:100000000C9458080C940E180C94E3170C94B81721
:100010000C9482080C9482080C9482080C94820838
:100020000C9482080C9450180C9482080C9482084A
:100030000C9482080C9482080C9482080C94820818
:100040000C9482080C9482080C946E170C9482080D
:100050000C945D160C9433160C9482080C94820850
:100060000C9482080C9482080C9440250C9482080D
:100070000C9482080C9482080C9482080C948208D8
:100080000C9482080C9482080C94820880349E346C
:10009000B934D434EF340A352E357A3A943AA93A41
:1000A000C43ACF3A0D3B143B1E3B293B393B393B0D
:1000B000393B393B393B393B393B393B393B393BA0
:1000C000393B393B393B393B393B393B393B393B90
:1000D000393B393B393B393B393B7A3A8F3A943A91
:1000E000A93AC43ACF3AEA3AF53A003B820DAE0D4E
:1000F000D40DF60D0E0E1E0E2C0E6D1086109D10DA
:10010000A010B910DC10F110A011AF11E011FE1118
:100110001512A912BA12D112ED122D124212581252
:100120006F1286129D12A612281432144E14561401
:100130005E14621466147714C015C315B615BA158B
:10014000DA15DA15C715CB15D115D515BA26D3266C
:100150001E2745276C274E285C286A288728792780
:100160008927A627D927E727F52723284428556E6E
:1001700061626C6520746F2066696E6420616464DE
:100180007265737320666F72204453313842323087
:10019000004F4646004F4E00445331384232302023
:1001A000706172617369746520706F776572206920
:1001B000733A2000525443206861732073657420A1
:1001C0007468652073797374656D2074696D65005A
:1001D000556E61626C6520746F2073796E63207751
:1001E0006974682074686520525443004572724AED
:1001F000616E4665624D61724170724D61794A75FA
:100200006E4A756C4175675365704F63744E6F76B7
:10021000446563005600426174746572793A005215
:100220006563656976696E6720446174612E2E2E60
:100230000000000000000000000008080808000896
:100240000000361224000000000000143E143E148A
:100250000000081E281C0A3C000000323408162644
:10026000000000182418261E0000181810000000B6
:1002700000000810101010080000100808080810EE
:10028000000000082A082A0800000008083E0808A4
:10029000000000000000180810000000003E0000F0
:1002A0000000000000000C0C0000000204081020F8
:1002B00000000C121212120C0000040C0404040EB4
:1002C00000000C120204081E00001E020C02120C98
:1002D000000012121E02020200001E101C02120C6C
:1002E00000000C101C12120C00001E02040808086A
:1002F00000000C120C12120C00000C120E02120C58
:100300000000000C0C000C0C0000000C0C000C0495
:100310000800000408100804000000003E003E0031
:10032000000000100804081000001C220408000847
:1003300000001C262A2E201E00001C22223E222203
:1003400000003C223C22223C00001C222020221CD7
:1003500000003C222222223C00003E203C20203E85
:1003600000003E203C20202000001C202026221ED1
:10037000000022223E22222200001C080808081C3D
:1003800000003E020202221C0000222438382422EF
:10039000000020202020203E000022362A22222297
:1003A000000022322A26222200001C222222221CA5
:1003B00000003C223C2020200000182424242C1A79
:1003C00000003C223C22222200001E201C02221C93
:1003D00000003E0808080808000022222222221CF1
:1003E000000022222214140800002222222A2A14A9
:1003F0000000221408081422000022221408080811
:1004000000003E040810203E00001C101010101CBC
:10041000000020100804020000001C040404041C56
:100420000000081422000000000000000000003E50
:1004300000000804000000000000001C021E223E14
:10044000000020203C22223C0000001C2020201C18
:10045000000002021E22221E0000001C223E201C60
:1004600000000E10103C10100000001E223E020280
:100470001C0020203C222222000008001808081C32
:10048000000008001E0202221C0020202438242222
:10049000000018080808081C000000342A2A2A2A2C
:1004A0000000002C322222220000001C2222221CEA
:1004B0000000003C223C20202000001C241C0404DE
:1004C0000600002E302020200000001E201C023CD0
:1004D0000000083E08080806000000222222221E12
:1004E000000000222222140800000022222A2A14DE
:1004F000000000221408142200000022221E020420
:100500001800003E0408103E000004080810080807
:100510000400080808080808000010080804080873
:10052000100000102A040000000010281000000035
:1005300000000000000000000000040404040004A7
:1005400000000505000000000000000C0F0C0F0C5F
:10055000000004060C06060C0400003234081626BF
:10056000000000182418261E0000181810000000B3
:1005700000000810101010080000100808080810EB
:10058000000000082A082A0800000008083E0808A1
:10059000000000000000180810000000003E0000ED
:1005A000000000000000020000000002040810200B
:1005B0000000020505050200000002060202070015
:1005C0000000060102040700000007010601060002
:1005D00000000505070101000000070407010600EF
:1005E00000000304070502000000070102040400E4
:1005F00000000705070507000000070507010600C2
:1006000000000002000200000000000606000602D2
:1006100004000001020402010000000007000700BE
:1006200000000004020102040000060102040004AC
:10063000000006090B0B080600000205050705056A
:100640000000060506050506000002050404050273
:10065000000006050505050600000704060404075A
:100660000000070406040404000003040405050355
:100670000000050507050505000007020202020744
:100680000000070101010502000005050606050539
:10069000000004040404040700000507070505051D
:1006A0000000050705050505000002050505050212
:1006B0000000060506040404000002050505070302
:1006C00000000605060505050000030402010502F9
:1006D00000000702020202020000050505050507E9
:1006E00000000505050505020000050505050707CD
:1006F00000000505020205050000050505020202CD
:1007000000000701020404070000060404040406B4
:1007100000000404020101000000030202020203BF
:1007200000000205050000000000000000000007B6
:10073000000002010000000000000006010705079C
:100740000000040407050507000000030404040377
:10075000000001010705050700000002040704036B
:100760000000030202070202000000030507010166
:100770000600040407050505000002000602020742
:10078000000001000701010502000004050605053F
:100790000000060202020207000000060707050526
:1007A000000000060505050500000002050505021C
:1007B000000000060506040404000003050701010B
:1007C0000100000304040404000000030402010605
:1007D00000000207020202010000000505050503F2
:1007E00000000005050505020000000505050707D6
:1007F00000000005050205050000000505070101D0
:1008000006000007010204070000010202040202C0
:1008100001000202020202020000040202010202BE
:10082000040000040B01000000446973706C6179DE
:10083000204F7074696F6E73204D656E750044694A
:1008400073706C61792053797374656D204D656E9A
:100850007500446973706C617920446174652F542C
:10086000696D65204D656E75005345543A20546995
:100870006D657A6F6E65005363726F6C6C205465A2
:100880006D70005363726F6C6C2044617465004539
:100890006E746572205363726F6C6C205375626D59
:1008A000656E750057726974696E6720496E697468
:1008B00069616C2073657474696E677320746F204E
:1008C000454550524F4D2121210053657474696E86
:1008D000672053797374656D0057726974696E6728
:1008E000206E65772046772076657273696F6E009B
:1008F000005EBCE2613FDD83C29C7E20A3FD1F4100
:100900009DC3217FFCA2401E5F01E3BD3E6082DCEF
:10091000237D9FC1421CFEA0E1BF5D0380DE3C62DF
:10092000BEE0025CDF81633D7C22C09E1D43A1FFCF
:100930004618FAA427799BC584DA3866E5BB5907BF
:10094000DB856739BAE406581947A5FB7826C49AAF
:10095000653BD987045AB8E6A7F91B45C6987A249F
:10096000F8A6441A99C7257B3A6486D85B05E7B98F
:100970008CD2306EEDB3510F4E10F2AC2F7193CD7F
:10098000114FADF3702ECC92D38D6F31B2EC0E506F
:10099000AFF1134DCE90722C6D33D18F0C52B0EE5F
:1009A000326C8ED0530DEFB1F0AE4C1291CF2D734F
:1009B000CA947628ABF517490856B4EA6937D58B3F
:1009C0005709EBB536688AD495CB2977F4AA48162F
:1009D000E9B7550B88D6346A2B7597C94A14F6A81F
:1009E000742AC896154BA9F7B6E80A54D7896B350F
:1009F00000002100240027002A000000220025001A
:100A000028002B00000000010200090A000000007D
:100A100004030807000000000000000000000000C0
:100A2000000000000E1F13131313131313131F0ED4
:100A3000060E1E060606060606061F1F1E1F0303D9
:100A400003060C1818181F1F1E1F0303030E0E03A6
:100A500003031F1E181818181B1F1F03030303038B
:100A60001F1F1818181E1F0303031F1E0E1F181820
:100A7000181E1F1313131F0E1F1F030303060C184A
:100A8000181818180E1F1313130E0E1313131F0E1E
:100A90000E1F1313131F0F0303031F0E000000008C
:100AA00000000000000000001F1F1B1B1B1B1B1B66
:100AB0001B1B1F1F0C0C0C0C0C0C0C0C0C0C0C0C32
:100AC0001F1F0303031F1F1818181F1F1F1F0303D7
:100AD000031F1F0303031F1F1B1B1B1B1B1F1F03C6
:100AE000030303031F1F1818181F1F0303031F1FEF
:100AF0001F1F1818181F1F1B1B1B1F1F1F1F03035F
:100B000003030303030303031F1F1B1B1B1F1F1BE5
:100B10001B1B1F1F1F1F1B1B1B1F1F0303031F1F4D
:100B20000000000000000000000000000E1F1B1B62
:100B30001B1B1B1B1B1B1F0E02060E0606060606B2
:100B400006061F1F0E1F030303060C1818181F1F8D
:100B50000E1F0303030E0E0303031F0E03030606FB
:100B60000C0C1B1F030303031F1F1818181E0F0371
:100B700003031F0E0E1F1818181E1F1B1B1B1F0E12
:100B80001F1F030303060C18181818180E1F1B1B31
:100B90001B0E0E1B1B1B1F0E0E1F1B1B1B1F0F03F1
:100BA00003031F0E00000000000000000000000012
:100BB0001F111111111111111111111F040404043D
:100BC00004040404040404041F010101011F1010A3
:100BD0001010101F1F010101011F01010101011F60
:100BE00011111111111F0101010101011F1010103C
:100BF000101F01010101011F1F101010101F111102
:100C00001111111F1F010101010101010101010168
:100C10001F111111111F11111111111F1F1111118C
:100C2000111F01010101011F000000000000000070
:100C3000000000000E111111111111111111110EEE
:100C4000040C0404040404040404041F0E11010130
:100C5000010204081010101F0E110101010E010104
:100C60000101110E11111111111F010101010101E9
:100C70001F101010101E01010101110E0E11101095
:100C8000101E11111111110E1F01010101020408A2
:100C9000101010100E111111110E11111111110E51
:100CA0000E111111110F01010101110E00000000C0
:100CB0000000000000000000000000000000000034
:100CC0000008080808000800003612240000000090
:100CD0000000143E143E140000081E281C0A3C00AC
:100CE00000003234081626000000182418261E00C2
:100CF0000018181000000000000810101010080064
:100D000000100808080810000000082A082A080037
:100D1000000008083E080800000000000018081045
:100D2000000000003E00000000000000000C0C006D
:100D30000000020408102000001C262626261C00A5
:100D4000000C1C0C0C0C1E00001C260C18303E0065
:100D5000003E061C06261C000026263E060606004F
:100D6000003E303C06261C00001C203C26261C00B1
:100D7000003E060C18181800001C261C26261C0015
:100D8000001C261E06261C0000000C0C000C0C008B
:100D900000000C0C000C04080000040810080400FB
:100DA0000000003E003E0000000010080408100093
:100DB000001C220408000800001C262A2E201E0009
:100DC000001C22223E222200003C223C22223C0027
:100DD000001C222020221C00003C222222223C0057
:100DE000003E203C20203E00003E203C20202000F1
:100DF000001C202026221E000022223E2222220049
:100E0000001C080808081C00003E020202221C0008
:100E100000222438382422000020202020203E00F8
:100E20000022362A222222000022322A26222200F2
:100E3000001C222222221C00003C223C20202000F8
:100E400000182424242C1A00003C223C22222200D8
:100E5000001E201C02221C00003E08080808080092
:100E60000022222222221C00002222221414080026
:100E7000002222222A2A1400002214080814220028
:100E80000022221408080800003E040810203E003A
:100E9000001C101010101C0000201008040200009C
:100EA000001C040404041C000008142200000000BC
:100EB0000000000000003E000008040000000000E8
:100EC00000001C021E223E000020203C22223C008A
:100ED00000001C2020201C000002021E22221E00F6
:100EE00000001C223E201C00000E10103C101000C0
:100EF00000001E223E02021C0020203C2222220072
:100F00000008001808081C000008001E0202221C2D
:100F100000202024382422000018080808081C009B
:100F20000000342A2A2A2A0000002C322222220021
:100F300000001C2222221C0000003C223C20202019
:100F400000001C241C04040600002E302020200079
:100F500000001E201C023C0000083E080808060095
:100F60000000222222221E00000022222214080059
:100F7000000022222A2A1400000022140814220051
:100F8000000022221E02041800003E0408103E0049
:100F900000040808100808040008080808080800E9
:100FA00000100808040808100000102A04000000BF
:100FB0000010281000000000000020002300260080
:100FC00029000202020202020202040404040404D0
:100FD00004040303030303030303010101010101EB
:100FE00001010102040810204080010204081020C1
:100FF00040800102040810204080010204081020F3
:101000004080446563656D626572004E6F76656D04
:10101000626572004F63746F62657200536570742D
:10102000656D62657200417567757374004A756C11
:1010300079004A756E65004D617900417072696C86
:10104000004D617263680046656272756172790075
:101050004A616E7561727900005810501047104156
:10106000103B10371032102D1026101C1014100BCE
:101070001002104E414E494E495459494E46CDCC6E
:10108000CC3D0AD7233C17B7D13877CC2B32959576
:10109000E6241FB14F0A000020410000C842004072
:1010A0001C4620BCBE4CCA1B0E5AAEC59D741E42C7
:1010B00011241FBECFEFD0E4DEBFCDBF15E0A0E00E
:1010C000B1E0E4EBFAE900E00BBF02C007900D923B
:1010D000A43AB107D9F72CE0A4EAB5E001C01D920B
:1010E000A03FB207E1F718E0C8E5D8E004C02197B7
:1010F000FE010E941B45C735D107C9F70E947E2D0E
:101100000C94584D0C940000662351F05C98962F77
:10111000982311F05E9A01C05E985C9A6695F4CFB0
:1011200008958031E8F4883068F445B121E030E07A
:10113000B90102C0660F771F8A95E2F7CB01842BB5
:1011400085B908954BB1885021E030E0B90102C063
:10115000660F771F8A95E2F7CB01842B8BB9089530
:10116000282F30E0883160F448B12051310981E006
:1011700090E001C0880F2A95EAF7842B88B908957A
:1011800062B14FE150E0CA01821B930B9C0181E0E8
:1011900090E001C0880F2A95EAF7862B82B908955E
:1011A0008031F8F4883070F445B121E030E0B901C5
:1011B00002C0660F771F8A95E2F7CB0180958423E2
:1011C00085B908954BB1885021E030E0B90102C0E3
:1011D000660F771F8A95E2F7CB01809584238BB940
:1011E0000895282F30E0883168F448B12051310942
:1011F00081E090E001C0880F2A95EAF7809584236A
:1012000088B9089542B18FE190E0BC01621B730B75
:1012100081E090E001C0880F6A95EAF78095842309
:1012200082B9089586E090E00E94E5288E3679F034
:1012300089ED98E00E940B1F6EE686E090E00E9428
:10124000E3286FE070E080E090E00E94281780E0E3
:1012500090E00E94E52891E0811101C090E0909318
:101260008F0C84E090E00E94E5288093B40585E02F
:1012700090E00E94E528813009F081E08093CF055D
:1012800088E090E00E94E52880938E0C8EE090E04C
:101290000E94E52891E0811101C090E090938A0CB2
:1012A00080E190E00E94E5288093C10585E190E00F
:1012B0000E94E5288093DB0582E190E00E94E5280A
:1012C00091E0811101C090E09093B20584E190E03B
:1012D0000E94E5288093C00586E190E00E94E52801
:1012E00091E0811101C090E09093E005911108C058
:1012F0009091D80792FF04C084E089278093D80793
:1013000087E190E00E94E52891E0811101C090E022
:101310009093DC0589E190E00E94E52891E081113D
:1013200001C090E09093DF058BE190E00E94E528FA
:101330008093B1058EE190E00E94E5288093AF058F
:101340008FE190E00E94E5288093D70780E290E04B
:101350000E94E5288093B00581E290E00E94E52894
:101360008093DD0582E290E00E94E52891E0811102
:1013700001C090E09093890C84E290E00E94E528FF
:1013800091E0811101C090E09093B3050895DF9240
:10139000EF92FF920F931F93CF93DF9300E516E038
:1013A000C5E6D1E0DC2E84E0D80EE9908E2D0E94B7
:1013B000D00864E085E00E94840860E480E00E9438
:1013C000840880E3F82E60E880E00E948408FA94A4
:1013D000F110F9CF8E2D0E94910880E090E0F80185
:1013E000E80FF91F1082019680369105C1F7005A67
:1013F0001F4FDC12DACFDF91CF911F910F91FF9039
:10140000EF90DF9008958091DD07882359F098E0F0
:1014100088E10FB6F894A895809360000FBE909372
:101420006000FFCF1092DE051092E1071092870C4A
:101430001092DC071092BF051092CC051092CD05DA
:101440001092860C1092850C1092830C1092820CD4
:101450001092810C1092DB071092D4051092C205F5
:101460001092C3051092C4051092C5051092C605CE
:1014700081E0809360011092CE050C94C7090F9310
:101480001F93CF93DF931F92CDB7DEB7062FE82FC0
:10149000F0E0EB59FE4F1081812F49830E94D00864
:1014A00064E085E00E94840860E4802F0E94840844
:1014B00068E04981842F0E948408812F0F90DF917A
:1014C000CF911F910F910C949108803608F044C081
:1014D000603108F041C098EE980F983118F4892FC8
:1014E00051E001C050E090ED980F983110F4892F31
:1014F00052E098EB980F983110F4892F53E0962F13
:10150000937028E030E002C0359527959A95E2F770
:10151000982F990F990F65956595690F80E6589FEB
:10152000F0011124862F062E000C990BDF01A80F65
:10153000B91FA05BB94F442319F03C91232B03C082
:1015400020953C9123232C93E05BF94FE80FF91F82
:101550004081852F0C943F0A0895FF920F931F93AB
:10156000CF93DF9300D0CDB7DEB7F82E8091E1079F
:10157000882309F454C00E9462170091C805109195
:10158000C9052091CA053091CB05DC01CB01801B38
:10159000910BA20BB30B853F9140A105B10508F457
:1015A00044C00E9462176093C8057093C905809378
:1015B000CA059093CB058091860C882369F08091B1
:1015C000880C811103C0F092880C02C01092880C24
:1015D000F092E007F092DF078091850C882369F094
:1015E0008091E007811103C0F092E00702C01092E1
:1015F000E007F092880CF092DF078091840C88233A
:10160000A1F08091DF07811103C0F092DF0702C0D3
:101610001092DF07F092E007F092880C06C0F0927B
:10162000880CF092E007F092DF0780918F0C8823FE
:1016300009F444C00E94151C0E94661E0E94612489
:1016400020910508222331F0822F90E02D3020F0E8
:101650000C9702C08CE090E08093DE070E94151C7E
:101660000E94661E0E9461248091050890E00C97FC
:101670001CF44091880C01C040E061E080E00E94D1
:10168000650A8091DE072AE0622F0E94E7440E94EB
:10169000E744911106C020E040918E0C61E070E0BB
:1016A00006C0692F70E02091880C40918E0C8EEF5F
:1016B0009FEF0E942D20E2E0F0E01CC00E94151C6C
:1016C0000E94661E0E946124809105088093DE07B7
:1016D0002AE0622F0E94E7440E94E744692F70E0ED
:1016E0002091880C40918E0C80E090E00E942D208B
:1016F000E0E0F0E08091DE076AE00E94E744692FB5
:1017000070E02091880C40918E0C86E090E08E1B5A
:101710009F0B0E942D206F2D8FE00E94392C20916D
:10172000E00740918E0C29834A830E9495240AE0A9
:1017300010E0B8010E940745CB01B8010E9407459F
:1017400029814A81BC018FE090E00E942D202091E8
:10175000E00740918E0C29834A830E949524B801AA
:101760000E94074529814A81BC0186E190E00E94E0
:101770002D206F2D80E20E94392C2091DF074091AF
:101780008E0C29834A830E948D24B8010E9407454C
:10179000CB01B8010E94074529814A81BC0180E242
:1017A00090E00E942D202091DF0740918E0C29832C
:1017B0004A830E948D24B8010E94074529814A81ED
:1017C000BC0187E290E00F900F90DF91CF911F91C5
:1017D0000F91FF900C942D208F929F92AF92BF9209
:1017E000CF92DF92EF92FF920F931F93CF93DF93ED
:1017F000962E822E40321CF0C0EEC40F01C0C0E015
:1018000098E0C99FE0011124C12CD12C95E0B92E9C
:10181000B80EF601EC0FFD1FE854F34FE49185E09C
:10182000E82EF12C0E2F10E0AC2CA90CC8010E2CC8
:1018300002C0959587950A94E2F780FF02C0482D73
:1018400001C040E06A2D8B2D8E190E94650A81E04F
:10185000E81AF10858F78FEFC81AD80A98E0C916A5
:10186000D104B9F6DF91CF911F910F91FF90EF90C6
:10187000DF90CF90BF90AF909F908F9008952F9260
:101880003F924F925F926F927F928F929F92AF9210
:10189000BF92CF92DF92EF92FF920F931F93CF935D
:1018A000DF93CDB7DEB727970FB6F894DEBF0FBE34
:1018B000CDBF162F7C834A013901C0966C018B8302
:1018C0005F834E83F40101900020E9F73197E81916
:1018D000F9098E819F81881999098E179F0708F051
:1018E000A2C022E06216710479F033E0631671043D
:1018F00009F446C0202F81E06816710409F07EC00B
:10190000AE81BF814C917DC0EE81FF8180818032AC
:1019100014F0805201C080E0F8E08F9F1001112484
:10192000412C512C25E02C0D2D83F201E20DF31DED
:10193000EF5CFD4FE49125E0A22EB12CEE2EF12CB0
:10194000342D310F3983C7010A2C02C09595879534
:101950000A94E2F780FF02C0402F01C040E0698195
:101960008D818A190E94650A81E0A81AB10858F78A
:10197000AFEF4A1A5A0AB8E04B165104B1F646C006
:10198000EE81FF81808180528F3508F080E098E001
:10199000899F900111243A832983A12CB12C93E0D3
:1019A000392E3B81330EE981FA81EA0DFB1DEF5C94
:1019B000FA4FE49183E0E82EF12C4E2E512C2A2C84
:1019C000210EC2010E2C02C0959587950A94E2F76C
:1019D00080FF02C0402F01C040E0622D832D8E1990
:1019E0000E94650A81E0E81AF10858F7AFEFAA1AD9
:1019F000BA0AB8E0AB16B104B1F608C0EE81FF81B7
:101A00004081612F7C81C6010E94EC0B2E813F81B9
:101A10002F5F3F4F3F832E8336E0C30ED11C3B81A7
:101A20003C5F3B834FCF27960FB6F894DEBF0FBEC7
:101A3000CDBFDF91CF911F910F91FF90EF90DF907D
:101A4000CF90BF90AF909F908F907F906F905F905E
:101A50004F903F902F9008950F931F93CF930E9424
:101A600062170091D5051091D6052091D7053091C8
:101A7000D805DC01CB01801B910BA20BB30B883C7A
:101A80009105A105B10508F449C18091DE058823BF
:101A900009F444C10E9462176093D5057093D6057E
:101AA0008093D7059093D805C091DB07C23009F425
:101AB000DFC0C33009F403C1C13009F02FC10E9457
:101AC000C7098091CE058C278093CD05C093E1078F
:101AD0001092BF058091C2058F5F883018F4809303
:101AE000C20502C0C093C205E091C2058E2F90E0EE
:101AF000FC013197E730F10508F010C1EA58FF4FBB
:101B00000C941B450E94C70981E0809360011092EC
:101B1000870C8093860C1092850C1092840C109286
:101B2000830C1092820C1092810C1092D0070091BD
:101B3000CF0522E030E040E454E060E070E08EE069
:101B400090E00E943F0C0091CF0522E030E04EE98A
:101B500054E068E070E087E090E023C01092860CCB
:101B600081E08093850C1092840C1092830C10926B
:101B7000820C1092810C0091CF0522E030E040E40D
:101B800054E060E070E08EE090E00E943F0C009135
:101B9000CF0522E030E044E454E068E070E085E006
:101BA00090E00E943F0CBAC01092870C1092860CF5
:101BB0001092850C81E08093840C1092830C10921B
:101BC000820C1092810C0091CF0522E030E040E4BD
:101BD00054E060E070E08EE090E00E943F0C0091E5
:101BE000CF0522E030E04CE454E0D7CF1092600102
:101BF0000E94C7091092E10781E08093870C9091C1
:101C0000CF059093DF071092860C1092850C1092EE
:101C1000840C1092830C8093820C0DC01092E1070B
:101C20001092860C1092840C1092850C81E08093A7
:101C3000830C1092820C1092810C70C01092860C52
:101C40001092850C1092840C1092830C1092820CCE
:101C500081E08093810C62C089E698E00E940B1FAE
:101C600081E08093D007CF911F910F910C94AE2803
:101C70000E94C7091092DC071092E10791E090934F
:101C8000BF058091C305853079F48091C405811129
:101C900002C086E00AC08F5F883018F48093C405C4
:101CA00006C09093C40503C08F5F8093C3058091E5
:101CB000C3058A3098F181E08093C3052FC00E944C
:101CC000C7090E94C7091092DC071092E107109221
:101CD000BF0581E08093CC058091C505813079F402
:101CE0009091C605911102C082E00AC09F5F9830B2
:101CF00018F49093C60506C08093C60503C08F5F95
:101D00008093C5058091C505833018F081E08093EC
:101D1000C505CF911F910F910C94C709CF911F91C9
:101D20000F9108950F931F930E9462170091D5059C
:101D30001091D6052091D7053091D805DC01CB0153
:101D4000801B910BA20BB30B883C9105A105B1053B
:101D500008F488C00E9462176093D5057093D60579
:101D60008093D7059093D8050E9462176093D005A1
:101D70007093D1058093D2059093D30591E0909311
:101D8000DE058091CE0589278093CD051092DC0772
:101D90001092E1071092870C8091DB078F5F8430EF
:101DA00018F48093DB0702C09093DB078091DB0778
:101DB000823009F18330B9F1813009F053C082E5F6
:101DC00098E00E940B1F109260011092BF051092C4
:101DD000CC050E94C70901E021E030E044E554E071
:101DE00060E070E080E090E00E943F0C21E030E095
:101DF0004DE554E031C08EE398E00E940B1F109235
:101E000060010E94C70901E021E030E044E654E0AF
:101E100060E070E085E090E00E943F0C21E030E05F
:101E20004BE654E019C089E298E00E940B1F109223
:101E300060011092BF050E94C70901E021E030E077
:101E400041E754E060E070E085E090E00E943F0CE4
:101E500021E030E046E754E068E070E085E090E0A3
:101E60000E943F0C1F910F910895CF93DF93D62FBF
:101E7000E82FF0E0EB59FE4FC0818C2F0E94D00874
:101E800064E084E00E94840860E88D2F0E9484084A
:101E900061E080E00E9484088C2FDF91CF910C9448
:101EA0009108CF93DF93813029F093E0863018F0CA
:101EB00085E001C091E0989FC02D1124C056D0E06C
:101EC0006C2F8D2F0E94350FDF5FD530C9F7DF9162
:101ED000CF910895CF92DF92EF92FF928091DE052D
:101EE000811182C08091B40581117EC00E948D2431
:101EF0006AE070E00E940745892B09F075C0809167
:101F0000DA07811134C00E94191F449764F00E94BF
:101F1000191F8139914064F40E94191F092E000C89
:101F2000AA0BBB0B09C084E190E0A0E0B0E004C0C4
:101F300080E991E0A0E0B0E04497A109B109BC01BB
:101F4000CD0132E0660F771F881F991F3A95D1F7B0
:101F50002CE731E040E050E00E94F54CDA01C90185
:101F60000196A11DB11D8093DA070E94510F0E94B6
:101F7000191F449764F00E94191F8139914064F43D
:101F80000E94191F092E000CAA0BBB0B09C084E18B
:101F900090E0A0E0B0E004C080E991E0A0E0B0E013
:101FA0004497A109B109BC01CD0122E0660F771F5A
:101FB000881F991F2A95D1F72CE731E040E050E0C7
:101FC0000E94F54C69017A018FEFC81AD80AE80A15
:101FD000F80AC092D9078091DA078C1529F08C2D68
:101FE0000E94510FC092DA07FF90EF90DF90CF90E0
:101FF00008950F931F93CF93DF93CDB7DEB7279745
:102000000FB6F894DEBF0FBECDBF0E9462170091DD
:10201000D5051091D6052091D7053091D805DC0162
:10202000CB01801B910BA20BB30B883C9105A10542
:10203000B10508F47EC481E08093CE051092CD05F1
:102040000E9462176093D5057093D6058093D705DB
:102050009093D8058091DB07823009F45FC183300B
:1020600009F4E1C3813009F064C40E94151C0E9488
:102070006124809105088093D6070E94952480935F
:10208000D5070E948D248093D4070E94151C0E94BE
:102090006124809108088093D3070E94151C0E9438
:1020A0006124809107088093D2070E94151C0E942A
:1020B000852464E670E00E9407458093D107E09193
:1020C000C2054E2F50E0FA013197E730F10508F0D4
:1020D000A8C0E358FF4F0C941B459091D405809104
:1020E000D607992311F0815001C08F5F8093D607E6
:1020F0008091D6078F3F21F487E18093D60791C066
:10210000883108F48EC01092D6078BC09091D40508
:102110008091D507992311F0815001C08F5F809382
:10212000D5078091D5078F3F21F48BE38093D507A6
:1021300004C08C3310F01092D5071092D40771C0F0
:102140009091D4058091D207992311F0815001C05C
:102150008F5F8093D2078091D2078F3F21F48FE168
:102160008093D2075EC0803208F45BC01092D20721
:1021700058C09091D4058091D307992311F08150D4
:1021800001C08F5F8093D3078091D307811102C074
:102190008CE003C08D3018F081E08093D30700916C
:1021A000800C22E030E04EE754E060E070E080E038
:1021B00090E00E943F0C35C09091D405992311F016
:1021C000815001C08F5F8093D1078091D10780310A
:1021D00010F488E203C0893220F180E18093D107B6
:1021E00020C09091D4058091C309992311F08150AA
:1021F00001C08F5F8093C3098091C309883010F0BC
:102200001092C3096091C30988E190E00E94E3281D
:102210006FE070E080E090E00E94281781E08093FA
:10222000DD070E9462170091D0051091D105209121
:10223000D2053091D305DC01CB01801B910BA20BA1
:10224000B30B893E9340A105B10578F18091D40785
:102250008F5F8C3318F48093D40707C01092D40793
:102260008091D5078F5F8093D5078091D5078C33F8
:1022700038F01092D5078091D6078F5F8093D607EC
:102280008091D607883138F01092D6078091D20716
:102290008F5F8093D2070E9462176093D00570937E
:1022A000D1058093D2059093D3058091D10790E01A
:1022B0006091D3075091D2072091D4073091D50770
:1022C0004091D607843691051CF0825B974001C08F
:1022D0004E9680930908609308085093070840932E
:1022E0000508309304082093030883E098E00E94D7
:1022F0009F1C0E94EE1B0E94151CAE014F5F5F4F9A
:102300000E949023CE0101960E949D248091D007C7
:10231000882309F40EC30E94AE280BC38AEC98E010
:102320000E940B1FE091C3058E2F90E0FC013197B6
:10233000E930F10508F0FDC2EC57FF4F0C941B4546
:1023400080918F0C811104C081E080938F0C02C0BA
:1023500010928F0C60918F0C80E090E05FC00E9423
:10236000C7099091D4058091B405992311F081504B
:1023700001C08F5F8093B4058091B4058F3F21F435
:1023800085E08093B40504C0863010F01092B40547
:102390006091B40584E090E00E94E3286FE070E073
:1023A00080E090E00E9428171092DA078091B4052F
:1023B000811103C00E946A0FBCC20E94510FB9C2B2
:1023C0000E94C7099091D40580918E0C992311F039
:1023D000815001C08F5F80938E0C80918E0C8F3F57
:1023E00021F484E080938E0C04C0853010F01092AC
:1023F0008E0C60918E0C88E090E070C20E94C7093C
:1024000080918A0C882319F010928A0C03C081E015
:1024100080938A0C60918A0C8EE090E00E94E32801
:102420006FE070E080E090E05FC20E94C709E09139
:10243000C40581E0EE2371F08093DD078E2F90E0DC
:10244000FC013197E730F10508F073C2E357FF4F05
:102450000C941B458093C4056CC28091E0058823D1
:1024600019F01092E00509C081E08093E0056FE06B
:1024700070E080E090E00E9428176091E00586E11E
:1024800090E02CC29091D4058091B105992311F070
:10249000815001C08F5F8093B1058091B105833079
:1024A00010F01092B1056091B1058BE190E016C279
:1024B0009091D4058091AF05992311F0815001C00E
:1024C0008F5F8093AF058091AF05853118F081E073
:1024D0008093AF056091AF058EE190E0FFC19091D0
:1024E000D4058091B005992311F0815001C08F5F10
:1024F0008093B0058091B005853118F081E080931C
:10250000B0056091B00580E290E0E8C19091D405FB
:102510008091DD05992311F0815001C08F5F809378
:10252000DD058091DD05853118F081E08093DD05C2
:102530006091DD0581E290E0D1C16091890C81E07C
:1025400068276093890C82E290E0C8C11092C405AC
:10255000F0C10E94C7098091DC05882319F0109210
:10256000DC0503C081E08093DC056091DC0587E138
:1025700090E054CF0E94C7098091DF05882319F0AD
:102580001092DF0503C081E08093DF056091DF05D5
:1025900089E190E00E94E3286FE070E080E090E045
:1025A00016C00E94C7098091B305882319F01092C4
:1025B000B30503C081E08093B3056091B30584E265
:1025C00090E00E94E32865E070E080E090E00E94E7
:1025D000281781E08093DD07ACC10E94C70984EA17
:1025E00098E00E940B1F60E080E090E00E94E328EA
:1025F00062E370E080E090E00E94281763E084E0EE
:1026000090E00E94E32862E370E080E090E00E94A6
:10261000281761E085E090E00E94E32862E370E023
:1026200080E090E00E9428176EE686E090E00E942D
:10263000E32862E370E080E090E00E94281761E008
:1026400088E090E00E94E32862E370E080E090E0A0
:102650000E94281761E08EE090E00E94E32862E388
:1026600070E080E090E00E94281762E080E190E056
:102670000E94E32862E370E080E090E00E94281767
:102680006FEF81E190E00E94E32862E370E080E078
:1026900090E00E94281761E082E190E00E94E32828
:1026A00062E370E080E090E00E94281762E084E13D
:1026B00090E00E94E32862E370E080E090E00E94F6
:1026C000281762E085E190E00E94E32862E370E071
:1026D00080E090E00E94281760E086E190E00E9490
:1026E000E32862E370E080E090E00E94281760E059
:1026F00087E190E00E94E32862E370E080E090E0F0
:102700000E9428176091DF0589E190E00E94E3288C
:1027100062E370E080E090E00E94281760E08BE1C7
:1027200090E00E94E32862E370E080E090E00E9485
:10273000281761E08EE190E00E94E32862E370E0F8
:1027400080E090E00E94281765E08FE190E00E9411
:10275000E32862E370E080E090E00E94281761E0E7
:1027600080E290E00E94E32862E370E080E090E085
:102770000E94281765E081E290E00E94E32862E36E
:1027800070E080E090E00E94281760E082E290E034
:102790000E94E32869E170E080E090E00E94281741
:1027A00060E084E290E00E94E32869E170E080E06C
:1027B00090E00E94281764E670E084EB9AE00E94A3
:1027C000391864E970E08CE89AE00E94391864ECEA
:1027D00070E084E69AE00E94391864EF70E08CE3C0
:1027E0009AE00E94391864E271E084E19AE00E9464
:1027F000391864E571E08CEE99E00E94391864E8BC
:1028000071E084EC99E00E94391864EB71E08CED82
:102810009AE00E9439180E94120981E08093DD0736
:102820000E94030A86C08091C505813021F0823064
:1028300009F460C07EC0E091C6058E2F90E088301C
:10284000910508F076C0FC01EC56FF4F0C941B4537
:102850000E94C70981E08093C6058FE898E00E9436
:102860000B1F67C09091D4058091C105992311F089
:10287000815001C08F5F8093C1058091C105811196
:1028800004C089E08093C10504C08A3010F0109222
:10289000C1056091C10580E190E041C083E898E006
:1028A0000E940B1F6091DB05605814C087E798E019
:1028B0000E940B1F6091DB0580E40BC06091DB057B
:1028C00080E207C06091DB0580E103C06091DB0519
:1028D00088E068276093DB0585E190E00E94E328AB
:1028E00065E070E080E090E00E94281722C010921E
:1028F000C6051FC09091D4058091C005992311F0A1
:10290000815001C08F5F8093C0058091C0058A30DF
:1029100014F01092C0056091C00584E190E00E941F
:10292000E32865E070E080E090E00E9428170E94B4
:10293000C70927960FB6F894DEBF0FBECDBFDF9153
:10294000CF911F910F910895CF92DF92EF92FF9256
:102950000F931F93CF93DF936C017A018B01C0E03B
:10296000D0E0CE15DF0589F0D8016D918D01D6013B
:10297000ED91FC910190F081E02DC6010995892B24
:1029800011F47E0102C02196ECCFC701DF91CF91F7
:102990001F910F91FF90EF90DF90CF900895FC0171
:1029A000918D828D981761F0828DDF01A80FB11D86
:1029B0005D968C91928D9F5F9F73928F90E00895AA
:1029C0008FEF9FEF0895FC01918D828D981731F064
:1029D000828DE80FF11D858D90E008958FEF9FEFB8
:1029E0000895FC01918D228D892F90E0805C9F4F8E
:1029F000821B91098F73992708958AE098E00E94BD
:102A0000F11421E0892B09F420E0822F0895FC01C4
:102A1000848DDF01A80FB11DA35ABF4F2C91848D67
:102A200090E001968F739927848FA689B7892C939C
:102A3000A089B1898C9180648C93938D848D981337
:102A400006C00288F389E02D80818F7D8083089500
:102A5000EF92FF920F931F93CF93DF93EC0181E0EE
:102A6000888F9B8D8C8D981305C0E889F9898081AA
:102A700085FD24C0F62E0B8D10E00F5F1F4F0F73E6
:102A80001127E02E8C8DE8120CC00FB607FCFACF90
:102A9000E889F989808185FFF5CFCE010E9407156D
:102AA000F1CF8B8DFE01E80FF11DE35AFF4FF0824D
:102AB0000B8FEA89FB898081806207C0EE89FF89DC
:102AC0006083E889F98980818064808381E090E077
:102AD000DF91CF911F910F91FF90EF900895CF93C9
:102AE000DF93EC01888D8823C9F0EA89FB89808116
:102AF00085FD05C0A889B9898C9186FD0FC00FB6E8
:102B000007FCF5CF808185FFF2CFA889B9898C9128
:102B100085FFEDCFCE010E940715E7CFDF91CF9162
:102B2000089580E090E0892B21F00E94FD1481112E
:102B30000DC080E090E0892B71F080E090E0892B5F
:102B400051F00E940000811104C008950E9400000D
:102B5000F0CF0C940000089590E0FC013197EA302A
:102B6000F10540F5E456FF4F0C941B458091800021
:102B70008F7703C0809180008F7D809380000895BF
:102B800084B58F7702C084B58F7D84BD0895809110
:102B9000B0008F7703C08091B0008F7D8093B0002C
:102BA0000895809190008F7703C0809190008F7D71
:102BB0008093900008953FB7F8948091EB0790912F
:102BC000EC07A091ED07B091EE0726B5A89B05C0D4
:102BD0002F3F19F00196A11DB11D3FBFBA2FA92F9C
:102BE000982F8827820F911DA11DB11DBC01CD0119
:102BF00042E0660F771F881F991F4A95D1F7089505
:102C000008950895FC0190810180F281E02D892FC3
:102C1000809560FF12C0F894228182238283818193
:102C2000892B8183A3E2B0E01197F1F78281982B81
:102C30009283789487ED90E011C0F89422818223EA
:102C400082838181892B8183AFEFB0E01197F1F707
:102C50008281982B928378948FE090E00197F1F72E
:102C600008950E9481461F920F920FB60F92112471
:102C70000BB60F922F933F934F935F936F937F9376
:102C80008F939F93AF93BF93EF93FF938AE098E066
:102C90000E940715FF91EF91BF91AF919F918F9186
:102CA0007F916F915F914F913F912F910F900BBE4C
:102CB0000F900FBE0F901F9018951F920F920FB696
:102CC0000F9211240BB60F922F938F939F93EF9334
:102CD000FF93E0911A08F0911B088081E091200891
:102CE000F091210882FD12C09081809123088F5FAE
:102CF0008F7320912408821751F0E0912308F0E0AF
:102D0000E65FF74F958F8093230801C08081FF9184
:102D1000EF919F918F912F910F900BBE0F900FBE4F
:102D20000F901F901895CF93DF93282F30E0F90173
:102D3000EC5FF54F8491F901EE51F04FD491F90118
:102D4000EE53F04FC491CC2391F081110E94AC1549
:102D5000EC2FF0E0EE0FFF1FE854F04FA591B49177
:102D6000EC91ED2381E090E021F480E002C080E06E
:102D700090E0DF91CF9108951F93CF93DF93282F99
:102D800030E0F901EC5FF54F8491F901EE51F04F1D
:102D9000D491F901EE53F04FC491CC23C9F0162F12
:102DA00081110E94AC15EC2FF0E0EE0FFF1FE650F2
:102DB000F64FA591B4918FB7F894111105C09C916D
:102DC000ED2FE095E92302C0EC91ED2BEC938FBF42
:102DD000DF91CF911F910895CF93DF9390E0FC0195
:102DE000EE51F04F2491FC01EE53F04F8491882373
:102DF00061F190E0880F991FFC01E051F64FC591F9
:102E0000D491FC01E650F64FA591B491611109C02F
:102E10009FB7F8948881209582238883EC912E2394
:102E20000BC0623061F49FB7F8943881822F80958F
:102E300083238883EC912E2B2C939FBF06C08FB7E2
:102E4000F894E8812E2B28838FBFDF91CF910895CE
:102E50008F929F92AF92BF92CF92DF92EF92FF92AA
:102E60006B017C010E94DB154B015C01C114D10494
:102E7000E104F104F1F00E94DB15DC01CB018819BB
:102E80009909AA09BB09883E9340A105B10570F3D1
:102E900021E0C21AD108E108F10888EE880E83E02B
:102EA000981EA11CB11CC114D104E104F10419F74E
:102EB000DDCFFF90EF90DF90CF90BF90AF909F90CD
:102EC0008F9008952FB7F8946091E7077091E80705
:102ED0008091E9079091EA072FBF08951F920F9202
:102EE0000FB60F9211242F933F938F939F93AF931D
:102EF000BF938091E7079091E807A091E907B0910F
:102F0000EA073091E60723E0230F2D3720F40196DE
:102F1000A11DB11D05C026E8230F0296A11DB11DFC
:102F20002093E6078093E7079093E807A093E907CB
:102F3000B093EA078091EB079091EC07A091ED0721
:102F4000B091EE070196A11DB11D8093EB07909300
:102F5000EC07A093ED07B093EE07BF91AF919F915F
:102F60008F913F912F910F900FBE0F901F9018954A
:102F70001F920F920FB60F9211240BB60F922F9340
:102F80003F934F935F936F937F938F939F93AF93F1
:102F9000BF93EF93FF93E0910401F0910501099530
:102FA000FF91EF91BF91AF919F918F917F916F9121
:102FB0005F914F913F912F910F900BBE0F900FBEDD
:102FC0000F901F9018951F920F920FB60F92112419
:102FD0000BB60F922F933F934F935F936F937F9313
:102FE0008F939F93AF93BF93EF93FF93E091020171
:102FF000F09103010995FF91EF91BF91AF919F91DE
:103000008F917F916F915F914F913F912F910F9091
:103010000BBE0F900FBE0F901F9018951F920F922E
:103020000FB60F9211240BB60F922F933F934F932D
:103030005F936F937F938F939F93AF93BF93EF9320
:10304000FF93E0910001F09101010995FF91EF914B
:10305000BF91AF919F918F917F916F915F914F91B0
:103060003F912F910F900BBE0F900FBE0F901F90AE
:1030700018950F931F93CF93DF938C01EB014CE0D6
:1030800050E00E94DD4CBE01645F7F4F4CE050E099
:10309000C8010C96DF91CF911F910F910C94DD4CDC
:1030A0001F920F920FB60F9211240BB60F922F930F
:1030B0003F934F935F936F937F938F939F93AF93C0
:1030C000BF93EF93FF938091BA080E9493162091CB
:1030D000BD083091BE082F5F3F4F3093BE0820934C
:1030E000BD0890918709943618F095E09093BB083D
:1030F0009091BB089330B9F018F4923039F057C072
:10310000943059F1953009F44CC051C081114FC031
:103110002091BD083091BE082436310508F443C023
:10312000109287091CC0813009F041C0E0918709E5
:1031300091E09E0F90938709F0E02091BD083091B7
:10314000BE08EE0FFF1FE654F74F3683258310921B
:10315000BE081092BD0894E021C0811117C0E09113
:10316000870991E09E0F90938709F0E02091BD08B8
:103170003091BE08EE0FFF1FE654F74F36832583CC
:103180001092BE081092BD0893E008C02091BD08BF
:103190003091BE082536310550F095E09093BB087C
:1031A00006C0811104C01092BE081092BD08909113
:1031B000BC08992329F0811102C02D9A01C02D98D5
:1031C000FF91EF91BF91AF919F918F917F916F91FF
:1031D0005F914F913F912F910F900BBE0F900FBEBB
:1031E0000F901F901895CF92DF92EF92FF92CF939E
:1031F000DF93EC01072E000C880B990B0E94A54B66
:103200006B017C0120E030E040E45FE30E94044C6D
:1032100020E030E048E452E40E94CF450E9441465D
:10322000C617D707D4F020E030E040EA5FE3C701DB
:10323000B6010E94044C20E030E048E452E40E94D1
:10324000CF4520E030E040E85FE30E9463450E9404
:10325000414621E06C177D070CF420E0822F90E0BE
:10326000DF91CF91FF90EF90DF90CF9008958EBDCA
:103270000DB407FEFDCF8EB50895CF92DF92EF9289
:10328000FF92CF93C82F38B1C12CD12C7601C394B3
:10329000B701A6010090AE0504C0440F551F661F7C
:1032A000771F0A94D2F74095242F232328B9892F1A
:1032B0000E9437198C2F0E94371988B10090AE05F3
:1032C00004C0CC0CDD1CEE1CFF1C0A94D2F7C82AEB
:1032D000C8B8CF91FF90EF90DF90CF900895CF9234
:1032E000DF92EF92FF921F93CF93DF93182F2CB5AD
:1032F00021602CBD38B1C12CD12C7601C394B7010B
:10330000A6010090AE0504C0440F551F661F771F2D
:103310000A94D2F74095242F232328B9892F0E949D
:103320003719C82FD0E0DC2FCC27812F0E94371906
:1033300098B10090AE0504C0CC0CDD1CEE1CFF1C47
:103340000A94D2F7C92AC8B89CB59E7F9CBD9E013D
:10335000282BC901DF91CF911F91FF90EF90DF9053
:10336000CF9008958627682F62956827062E669568
:1033700066956025062E669560256770082E892F54
:10338000669507946795902D8627069467959025F6
:1033900086270895CF9380E090E00E943D198091A8
:1033A000950C853091F580E090EB0E946F19682FA5
:1033B0008091940C811104C09091900C911175C072
:1033C000E091940C81E08E0F8093940CF0E0E9582A
:1033D000F44F60838091920C9091930C0E94B219EB
:1033E0009093930C8093920C80917A0B2091940C83
:1033F00090E0059630E0821793070CF461C080914D
:10340000940C863808F05CC060C08091950C87FFF2
:103410001BC0E0917A0B8091950C91E0980F9093EE
:10342000950CEC5F8E0FE82FF0E0E958F44FC08167
:103430008091920C9091930C6C2F0E94B2199093F2
:10344000930C8093920C2DC08091950C91E0980F75
:103450009093950C8330F1F054F48823A9F08130D7
:10346000E9F48091920C9091930CC92F1AC0893085
:10347000B9F08A3099F4C091900C90917A0B8DEF4D
:10348000891B8093950C0DC08091920C9091930CA8
:10349000C82F07C08DE092E80E943D19CAEA01C01A
:1034A000CDE28C2F90E098540DC0E091940C81E017
:1034B0008E0F8093940CF0E0E958F44F908380CF06
:1034C0008DE092E8CF910C943D19CF910895DC01E5
:1034D000E0E0615038F08D91E827F0E0E051F74FDF
:1034E000E491F7CF8E2F0895CF92DF92EF92FF9263
:1034F0000F931F93CF93DF931F92CDB7DEB76C016D
:10350000E62E08E010E0FF24F39461E08F2D8E2179
:1035100009F460E0C60149830E940216FF0C0150C5
:10352000110949810115110581F7411115C0F89460
:10353000D6011196ED91FC91129791818C91809515
:10354000892381831196ED91FC91129792818C9140
:1035500080958923828378940F90DF91CF911F917A
:103560000F91FF90EF90DF90CF900895CF92DF9270
:10357000EF92FF920F931F93CF93DF931F92CDB7DC
:10358000DEB78C01F62E40E065E579830E94741A5F
:10359000CF2C7981D72E760188E0E80EF11CF60158
:1035A00061916F0140E0C8010E94741ACE14DF04DB
:1035B000B1F70F90DF91CF911F910F91FF90EF9096
:1035C000DF90CF900895FC0190810180F281E02D81
:1035D000F8948181892B81832281892F80952823EA
:1035E0002283A7E0B0E01197F1F721818223818344
:1035F000A3E2B0E01197F1F780817894EFECF0E06E
:103600003197F1F7982381E009F480E00895EF9273
:10361000FF920F931F93CF93DF937C0108E010E09C
:10362000C0E0D1E0C7010E94E31A8111CD2BDD0F6C
:1036300001501109B9F78C2FDF91CF911F910F9194
:10364000FF90EF900895FC0190810180F281E02DC0
:10365000F8948181292F20958223818378948DE7A6
:1036600043E050E0815021F1DA011197F1F7308108
:103670003923C1F3F8948281822382838181892B4B
:1036800081837894ABECB7E01197F1F7F8948181DE
:1036900028232183ABE3B1E01197F1F780819823D0
:1036A00081E009F080E07894EBE8F6E03197F1F7FB
:1036B0000895AF92BF92CF92DF92EF92FF920F9355
:1036C0001F93CF93DF931F92CDB7DEB75C01E62E39
:1036D000D72EFC01858581115DC0C5010E94231B89
:1036E000811105C0F5011386158614866BC040E074
:1036F00060EFC5010E94741A01E0F12CC12C11E0A9
:10370000C5010E94E31A682FC50169830E94E31A6C
:103710006981613019F48130B9F433C04F2D50E024
:1037200068131BC0F5018385181730F4E40FF51FEB
:103730008381802349F402C0181731F060E019300A
:1037400058F4F501148708C0F501EF0DF11D8381D0
:10375000802B838361E009C0C12EF501E40FF51FC2
:103760009381802F809589238383C5010E9402164F
:103770001F5F000F11F4F39401E0F7E0FF1508F06C
:10378000BFCF113438F0F501C386C11015C081E0F8
:10379000858712C0F50113861586148680E0D50151
:1037A0001396EE2DFD2D9501255F3F4F9D91919331
:1037B000A217B307D9F706C0F5018381882351F317
:1037C00081E0EDCF0F90DF91CF911F910F91FF908E
:1037D000EF90DF90CF90BF90AF9008956093A805D1
:1037E0007093A9058093AA059093AB05DC01CB01EA
:1037F000845D9E4FAF4FBF4F8093A4059093A50566
:10380000A093A605B093A70582E090E09093DA0517
:103810008093D9050E9462176093E2077093E307D3
:103820008093E4079093E5070895CF92DF92EF929B
:10383000FF920F931F930E946217C090E207D090EF
:10384000E307E090E407F090E5078B019C010C1979
:103850001D092E093F098091A8059091A905A09105
:10386000AA05B091AB05083E134021053105D0F003
:103870000196A11DB11D8093A8059093A905A09361
:10388000AA05B093AB05B701A60148515C4F6F4F35
:103890007F4F4093E2075093E3076093E4077093F0
:1038A000E507C9CF4091A4055091A5056091A605F3
:1038B0007091A70584179507A607B70788F1E091CF
:1038C000AC05F091AD05309759F109956115710579
:1038D0008105910519F00E94EE1B22C08091A80578
:1038E0009091A905A091AA05B091AB05845D9E4F6A
:1038F000AF4FBF4F8093A4059093A505A093A60555
:10390000B093A70581E090E02091D9053091DA05C8
:10391000232B11F480E090E09093DA058093D90591
:103920006091A8057091A9058091AA059091AB05B9
:103930001F910F91FF90EF90DF90CF9008956F92BD
:103940007F928F929F92AF92BF92CF92DF92EF922F
:10395000FF920F931F93CF93DF93EC01EE81AE2F75
:10396000B0E020E833E341EE51E00E94144D4B01FA
:103970005C0122EB37E0FD0104E610E080E9E82E6F
:10398000FF24F394C901825B97408E179F07DCF4F4
:10399000C90183709927892B99F4C901B8010E9444
:1039A0000745892B31F4C901B7010E940745892BCE
:1039B00039F480E8880E81E5981E81E0A81EB11CCC
:1039C0002F5F3F4FDFCF6D80712CEE54F84FCF014A
:1039D00064E670E00E9407457C01CF0160E971E078
:1039E0000E9407456C0101E010E0E370FF27061517
:1039F00017052CF50230110581F4309771F4E114AC
:103A0000F10419F4C114D10441F480E8880E8BE369
:103A1000981E86E2A81EB11C0FC0D801A759BE4F40
:103A2000AC91B0E020E831E541E050E00E94144D57
:103A3000860E971EA81EB91E0F5F1F4FD8CF498153
:103A40002A8130E0A0E1BEE00E94494D6B017C017B
:103A5000242F30E0ACE3B0E00E94494DDC01CB0103
:103A60008C0D9D1DAE1DBF1D28816C017D01C20EF8
:103A7000D11CE11CF11CAC81B0E0119720E831E5CC
:103A800041E050E00E941F4DDC01CB018C0D9D1DDB
:103A9000AE1DBF1DBC01CD01680D791D8A1D9B1D8A
:103AA000DF91CF911F910F91FF90EF90DF90CF901A
:103AB000BF90AF909F908F907F906F9008958F925E
:103AC0009F92AF92BF92CF92DF92EF92FF920F93AD
:103AD0001F93CF93DF93CDB7DEB764970FB6F894FB
:103AE000DEBF0FBECDBF5F87798BF42E411109C0B9
:103AF0006F5F6D3040F02FEFC21AD20A21E061E013
:103B000003C0242F01C021E089898B831A82198286
:103B100081E08D836E838EE48C0D8F83CE010196C0
:103B20002C8B0E949F1C4B015C010F8510E00E94B2
:103B300061242C8930E02150310987E0829FF00117
:103B4000839FF00D1124809106089801281B3109EC
:103B5000C901079667E070E00E940745DF01A80FE2
:103B6000B91F20E831E541E050E00E941F4D680D8B
:103B7000791D8A1D9B1DF11004C060587A4389404D
:103B8000910964960FB6F894DEBF0FBECDBFDF91EA
:103B9000CF911F910F91FF90EF90DF90CF90BF904A
:103BA000AF909F908F9008958F929F92AF92BF9207
:103BB000CF92DF92EF92FF920F931F93CF93DF93F9
:103BC0006C01E0909B09F0909C0900919D09109177
:103BD0009E0920919F093091A0094091A10950911F
:103BE000A2096091A3097091A4098091A5099091FF
:103BF000A6090E945F1DCBE9D9E068A379A38AA337
:103C00009BA3E7EAF9E0E080F1800281138124813F
:103C100035814681578160857185828593850E94B3
:103C20005F1D6B017C016CA37DA38EA39FA3AE8956
:103C3000BF892CE330E00E94244508A119A12AA1E4
:103C40003BA148015901861A970AA80AB90A888E29
:103C5000998EAA8EBB8EAA85BB852CE330E00E948C
:103C60002445C61AD70AE80AF90ACC8EDD8EEE8EF4
:103C7000FF8EDF91CF911F910F91FF90EF90DF901A
:103C8000CF90BF90AF909F908F900895009769F06C
:103C9000FC0101900020E9F73197AF01481B590B57
:103CA000BC018AE098E00C94A41480E090E00895B0
:103CB000CF93DF930E94461EEC0187E394E00E94BD
:103CC000461E8C0F9D1FDF91CF910895CF92DF92FA
:103CD000EF92FF92CF93DF936B017C010E948524CA
:103CE000EC016091B3097091B4098091B50990918C
:103CF000B6090E948524C817D90731F0C701B6015B
:103D00000E9485240E94D41DC701B6010E9485240B
:103D1000EC016091B3097091B4098091B50990915B
:103D2000B6090E948524C817D90731F0C701B6012A
:103D30000E9485240E94D41D4091B7095091B80972
:103D40006091B9097091BA098091B3099091B40951
:103D5000A091B509B091B60984179507A607B707D2
:103D600058F4C816D906EA06FB06D8F0C416D506DC
:103D7000E606F706B0F40AC0C416D506E606F7064E
:103D800028F0C816D906EA06FB0658F08BE999E038
:103D90009093020880930108A091A509B091A6090B
:103DA0000AC087EA99E09093020880930108A091E5
:103DB000B109B091B2092CE330E00E9424456C0DAA
:103DC0007D1D8E1D9F1DDF91CF91FF90EF90DF90A5
:103DD000CF9008950F931F93CF93DF938C01C0E092
:103DE000D0E0F801EC0FFD1F6491662371F0E091C3
:103DF0000A08F0910B080190F081E02D8AE098E02C
:103E00000995892B11F02196ECCFCE01DF91CF914E
:103E10001F910F910895CF93DF930E94EA1EEC014A
:103E200087E394E00E94461E8C0F9D1FDF91CF9187
:103E3000089581E480937C0080917A00806480936F
:103E40007A0080917A0086FDFCCF809178002091E5
:103E5000790090E0922B08952F923F924F925F92BB
:103E60006F927F928F929F92AF92BF92CF92DF928A
:103E7000EF92FF920F931F93CF93DF93CDB7DEB7EF
:103E80002C970FB6F894DEBF0FBECDBFFA0101909C
:103E90000020E9F79F01241B350B082F10E01C8739
:103EA0000B87F801EC5FF34F8081000F111F1A831D
:103EB0000983811109C080E690E0045A1E4FD801A1
:103EC0008D939C9381E0808309811A81045A1E4F4F
:103ED000D8018D909C9078EF7203C001739F900D74
:103EE0001124C096881599050CF092C08A01262EDF
:103EF000FA0101900020E9F79F01241B350B3C8358
:103F00002B837401612C712C2B813C81621673060A
:103F10000CF064C03BE2E316F1040CF458C0F80165
:103F2000E60DF71D808180322CF0082E000C990BD5
:103F3000809702C080E090E09C0163E0220F331F75
:103F40006A95E1F73E832D83412C512C97012A5F1E
:103F50003F4F3A872987ED81FE81E40DF51DE85436
:103F6000F34FE491670155E0A52EB12C2E2F30E0E0
:103F700038872F83342C320C38ECE316F104ACF480
:103F800080E3C816D1048CF08F8198850A2C02C07A
:103F9000959587950A94E2F780FF02C041E001C041
:103FA00040E0632D8C2D0E94650A9FEFC91AD90A43
:103FB000A1E0AA1AB10829853A85C216D306E1F60E
:103FC0003FEF431A530A88E04816510421F69FEF49
:103FD000691A790AA8E0EA0EF11C96CFE981FA8104
:103FE000E45AFE4F31E0831A9108918280820E9448
:103FF00062172B853C85220F331F220F331F27505A
:10400000384FD9016D937D938D939C9313970CC07A
:104010001082EB85FC85E950F84F81E0808380E6D3
:1040200090E0F801918380832C960FB6F894DEBF60
:104030000FBECDBFDF91CF911F910F91FF90EF90F9
:10404000DF90CF90BF90AF909F908F907F906F90B8
:104050005F904F903F902F9008959F92AF92BF92A4
:10406000CF92DF92EF92FF920F931F93CF93DF9344
:10407000A22E2BE0429F600D711D11249CE0969FA3
:104080006001979FD00C112400E010E097E0992E7A
:10409000980EC8018C0D9D1DFC01EC5DF54F7F0154
:1040A000C4E0D0E082E0B82EB00EF701A491B0E0F9
:1040B0000C2E02C0B595A7950A94E2F7A0FF05C0A3
:1040C0004A2D6B2D892D8C1B04C040E06B2D892D52
:1040D0008C1B0E94650A219740F70F5F1F4F0C3021
:1040E0001105B9F6DF91CF911F910F91FF90EF90DD
:1040F000DF90CF90BF90AF909F900895EF92FF9286
:104100000F931F93CF93DF937C018B01C8E8D9E015
:104110008D819E810E94231BB7018D819E810E940B
:10412000B61A40E06EEB8D819E810E94741A8D81DB
:104130009E810E94071BF80180838D819E810E94D1
:10414000071BF80181838D819E810E94071BF80166
:1041500082838D819E810E94071BF80183838D815C
:104160009E810E94071BF80184838D819E810E949D
:10417000071BF80185838D819E810E94071BF80132
:1041800086838D819E810E94071BF80187838D8124
:104190009E810E94071BF80180878D819E81DF919F
:1041A000CF911F910F91FF90EF900C94231BCF9311
:1041B000DF93EB010E947E2068E0CE010E94671A27
:1041C00091E02885821390E0892FDF91CF910895A7
:1041D0004F925F926F927F928F929F92AF92BF9217
:1041E000CF92DF92EF92FF92CF93DF93CDB7DEB7FE
:1041F00029970FB6F894DEBF0FBECDBFBE016F5F2B
:104200007F4F8FEE97E00E94D720882309F48AC061
:104210008A8190E0982F88272981822B2091EF07AF
:104220002232B9F12832A9F1203109F081C0F88495
:10423000BC0175956795072E000C880B990B0E94A1
:10424000A54B20E030E040E85EE30E9462454B0170
:104250005C018F2D90E02F81821B9109BC01990F89
:10426000880B990B0E94A54B2B013C016F2D70E030
:1042700080E090E00E94A34B9B01AC01C301B2011E
:104280000E94CF459B01AC01C501B4010E9463456A
:1042900036C02D812F33B1F1A0F42F3109F048C081
:1042A000BC0123E0759567952A95E1F7072E000C70
:1042B000880B990B0E94A54B20E030E040E05FE3C3
:1042C0001CC02F3569F02F3799F5BC01990F880B69
:1042D000990B0E94A54B20E030E040E85DE30DC063
:1042E000BC0175956795072E000C880B990B0E94F1
:1042F000A54B20E030E040E05EE30E94044C6B01FF
:104300007C0116C0BC017595679575956795072E5C
:10431000000C880B990B0E94A54B20E030E040E890
:104320005EE3EBCFC12CD12C8EEFE82E82ECF82E81
:10433000C701B60129960FB6F894DEBF0FBECDBFF8
:10434000DF91CF91FF90EF90DF90CF90BF90AF9033
:104350009F908F907F906F905F904F900895809185
:104360008D0990918E090E94231B40E06CEC809196
:104370008D0990918E090E94741A4091880964E415
:1043800080918D0990918E090E94741A80918A09FA
:104390008823E9F0809189098A3049F08B3061F0F7
:1043A000893079F46EE570E080E090E00EC06CEB4F
:1043B00070E080E090E009C067E771E080E090E0A5
:1043C00004C06EEE72E080E090E00C94281708952F
:1043D0008091AC0890E02091AD08821B910908956E
:1043E00085ED8093BC008091BC0084FDFCCF1092D1
:1043F000A90808954091360C262F30E0240F311D76
:1044000021323105DCF42091A9082430C9F4FC01E3
:1044100080E090E0861758F43091360C2191DC0151
:10442000AC5EB34FA30FB11D2C930196F3CF8091D7
:10443000360C680F6093360C80E0089581E0089593
:1044400082E008950895E091AD088091AC08E817E6
:1044500030F4F0E0E55AF34F808190E008958FEF5B
:104460009FEF08959091AD088091AC08981750F493
:10447000E92FF0E0E55AF34F208130E09F5F909301
:10448000AD0802C02FEF3FEFC9010895CF92DF9230
:10449000EF92FF920F931F93CF93DF937C01262F10
:1044A000972F8A018091C80C882391F0C62FD72FAF
:1044B0006E01C40ED51ECC15DD0571F06991D701D2
:1044C000ED91FC910190F081E02DC7010995F3CFAA
:1044D000642F822F0E94FA21C801DF91CF911F9192
:1044E0000F91FF90EF90DF90CF900895CF93DF93DF
:1044F0001F92CDB7DEB769832091C80C2223D1F07B
:104500002091AA08203240F021E030E0FC01338302
:10451000228380E090E015C08091AB08E82FF0E0A6
:10452000E753F34F998190838F5F8093AB0880931B
:10453000AA0805C061E0CE0101960E94FA2181E03F
:1045400090E00F90DF91CF9108951F93CF93DF9369
:10455000CDB7DEB727970FB6F894DEBF0FBECDBF3D
:1045600011E01093C80C88E68093E90C1092AB0818
:104570001092AA0860E08EEA98E00E94762281E01C
:104580000E94872A882319F010927B0CBCC01093DC
:104590007B0C8091A9088111FCCF81E08093A90850
:1045A0008093A8089FEF9093C70C1092C60C96E0DA
:1045B0009093C50C8093A40C8091A40C806D809383
:1045C000A40C8091A708813061F41092A708809113
:1045D000A40C8093BB008091BC0083FDF8CF85ECD8
:1045E00001C085EE8093BC008091A9088130E1F381
:1045F0008091C60C873018F48091C60C01C087E00A
:10460000A5EABCE02BE53CE0F9019E2F921B981730
:1046100018F49D919193F9CF1092AD088093AC0856
:10462000873008F470C08EEA98E00E943222182F7A
:104630008695869586958E70982F990F990F890F7C
:10464000912F9F70890F89838EEA98E00E94322211
:10465000282F22952F70982F9F708AE0289F900D09
:1046600011249A838EEA98E00E943222982F282FF4
:104670002695269526952670822F880F880F280F5D
:104680009F70920F9B838EEA98E00E943222282F1F
:1046900022952F70982F9F708AE0289F900D1124EB
:1046A0009C838EEA98E00E943222282F22952F7058
:1046B000982F9F708AE0289F900D11249D838EEA89
:1046C00098E00E943222282F22952F70982F9F70F9
:1046D0008AE0289F900D11249E838EEA98E00E9424
:1046E0003222982F9F70925E282F22952F708AE099
:1046F000289F900D11249F8317FD05C0CE010196C0
:104700000E949F1C03C060E070E0CB0127960FB6AB
:10471000F894DEBF0FBECDBFDF91CF911F910895FA
:104720006F927F928F929F92AF92BF92CF92DF92C1
:10473000EF92FF920F931F93CF93DF93EA012CE345
:10474000C22ED12CE12CF12CA70196010E94274DFD
:104750006883CA01B901A70196010E94274D6983A8
:10476000CA01B90128E130E040E050E00E94274D45
:1047700069017A016A83CA01B9016C5F7F4F8F4F6B
:104780009F4F27E030E040E050E00E94274D6F5FF0
:104790006B83812C912C540140E034E6632E712C04
:1047A00000E911E0242F30E02E54384FF901E37076
:1047B000FF27309789F4C901B3010E940745892B6F
:1047C00031F4C901B8010E940745892B29F48EE60E
:1047D00091E0A0E0B0E004C08DE691E0A0E0B0E0A0
:1047E000880E991EAA1EBB1ED501C401AA27BB278D
:1047F000C816D906EA06FB0610F04F5FD3CF4E83EA
:10480000309799F4C90164E670E00E940745892B4E
:1048100039F4C90160E971E00E940745892B29F448
:104820008EE691E0A0E0B0E004C08DE691E0A0E06B
:10483000B0E0881A990AAA0ABB0AC818D908EA0877
:10484000FB08C90164E670E00E9407458C01C901BC
:1048500060E971E00E940745AAE6B1E020E021305E
:1048600041F4309751F40115110529F4009729F40A
:1048700002C04C9103C04DE101C04CE150E060E04A
:1048800070E0C416D506E606F70640F0C41AD50A4D
:10489000E60AF70A2F5F11962C3009F72F5F2D8358
:1048A000C394CC82DF91CF911F910F91FF90EF9035
:1048B000DF90CF90BF90AF909F908F907F906F9040
:1048C0000895CF92DF92EF92FF92C0907C0CD0902F
:1048D0007D0CE0907E0CF0907F0C6C157D058E05B4
:1048E0009F0571F06B017C0143E058E00E9490232A
:1048F000C0927C0CD0927D0CE0927E0CF0927F0CEA
:10490000FF90EF90DF90CF9008950E9461248091F6
:10491000090890E08E54984F08950E94151C0E943B
:1049200061248091030890E008950E94151C0E9464
:1049300061248091040890E00895FF920F931F93E3
:10494000CF93DF938C01D1E0D093C80C88E6F82E8A
:10495000F092E90C1092AB081092AA0860E08EEA7F
:1049600098E00E94762260E88EEA98E00E94762223
:10497000F8018181CAE06C2F0E94E744692FF0E1C1
:104980008F9F600D11248EEA98E00E947622F80134
:1049900082816C2F0E94E744692FF0E18F9F600DA8
:1049A00011248EEA98E00E947622F80183816C2F10
:1049B0000E94E744692FF0E18F9F600D11248EEA79
:1049C00098E00E947622F80184816C2F0E94E744CF
:1049D000692FF0E18F9F600D11248EEA98E00E940C
:1049E0007622F80185816C2F0E94E744692FF0E15F
:1049F0008F9F600D11248EEA98E00E947622F801C4
:104A000086818E516C2F0E94E744692FF0E18F9FC1
:104A1000600D11248EEA98E00E94762281E00E94C7
:104A2000872A882321F010927B0C80E023C0D0934A
:104A30007B0CD093C80CF092E90C1092AB0810924A
:104A4000AA0860E08EEA98E00E947622F801808150
:104A50006C2F0E94E744692FF0E18F9F600D1124B5
:104A60008EEA98E00E94762281E00E94872A8111D6
:104A7000DACF81E0DF91CF911F910F91FF900895E0
:104A80001F920F920FB60F9211240BB60F922F9315
:104A90003F934F935F936F937F938F939F93AF93C6
:104AA000BF93EF93FF938091B900887F803609F41C
:104AB0009CC068F5883209F45BC090F4803109F439
:104AC00054C038F4882309F4F6C0883009F44DC086
:104AD000F6C0883109F44CC0803209F45DC0EFC0E3
:104AE000803409F468C048F4803309F455C0883331
:104AF00009F0E5C08093C70CD8C0803509F44FC0D9
:104B0000883509F45DC0883409F0D9C0D6C0883929
:104B100009F4C7C0A8F4883709F467C038F48836A8
:104B200009F463C0803709F460C0C9C0883809F44B
:104B3000B8C0803909F45FC0803809F0C0C05BC0DC
:104B4000803B09F486C038F4803A09F466C0883A9C
:104B500009F47FC0B4C0803C09F4A7C0883C09F4C4
:104B6000A4C0883B09F48AC0AAC08091A40C10C0DC
:104B70009091C60C8091C50C981770F5E091C60C09
:104B800081E08E0F8093C60CF0E0EB55F34F8081EF
:104B90008093BB0085EC86C08093C70C8EC0E091EB
:104BA000C60C81E08E0F8093C60C8091BB00F0E0B4
:104BB000EB55F34F80839091C60C8091C50C6EC06D
:104BC000E091C60C81E08E0F8093C60C8091BB00F3
:104BD000F0E0EB55F34F80838091A80881116DC000
:104BE00081E08093A70884EA61C083E08093A908EC
:104BF00010925A0CCFCF80915A0C803208F051C0DD
:104C0000E0915A0C81E08E0F80935A0C8091BB008A
:104C1000F0E0E65CF34F8083BDCF85EC8093BC0071
:104C20001092A90880915A0C803230F4E0915A0C0D
:104C3000F0E0E65CF34F108260915A0C70E0E09176
:104C4000380CF091390C8AE39CE0099510925A0CCB
:104C500036C084E08093A9081092370C1092360C6D
:104C6000E091340CF091350C09958091360C81114E
:104C700005C081E08093360C1092140CE091370C43
:104C800081E08E0F8093370CF0E0EC5EF34F808173
:104C90008093BB009091370C8091360C981708F4E4
:104CA00079CF85E88093BC000AC085EC8093BC0076
:104CB0001092A90804C01092C70C0E94F021FF9125
:104CC000EF91BF91AF919F918F917F916F915F9184
:104CD0004F913F912F910F900BBE0F900FBE0F90F1
:104CE0001F901895CF92DF92EF92FF920F931F9330
:104CF000CF93DF93CDB7DEB728970FB6F894DEBF1A
:104D00000FBECDBF1091CF050E946217C090C8059D
:104D1000D090C905E090CA05F090CB05DC01CB012D
:104D20008C199D09AE09BF09853F9140A105B105C8
:104D300098F00E9462176093C8057093C90580932C
:104D4000CA059093CB058091C705811103C01093CC
:104D5000C70502C01092C705E091C3058E2F90E0F1
:104D6000FC013197E930F10508F0E9C1EA55FF4F40
:104D70000C941B45012F21E030E048E854E060E04E
:104D800070E080E090E00E943F0C80918F0C0091D9
:104D9000C70521E030E0882319F041E954E044C020
:104DA0004BE954E041C0012F21E030E044EA54E0F7
:104DB00060E070E080E090E00E943F0C8091B405DC
:104DC000823009F160F48823B9F0813009F0B7C16D
:104DD0000091C70521E030E042EB54E025C084306B
:104DE00031F1E0F0853009F0AAC10091C70521E05A
:104DF00030E048EC54E09DC10091C70521E030E06F
:104E00004DEA54E011C00091C70521E030E048EBC5
:104E100054E068E070E088E090E08FC10091C70541
:104E200021E030E04CEB54E068E070E034C10091E8
:104E3000C70521E030E043EC54E0B6C0012F21E08B
:104E400030E040ED54E060E070E081E090E00E94EE
:104E50003F0C80918E0C1F928F9386ED94E09F9370
:104E60008F931F9288E08F93CE0101967C019F93D0
:104E70008F930E948D460091C70521E030E0A70185
:104E800068E070E081E090E0D6C0012F21E030E0E2
:104E90004FE953E060E070E080E090E00E943F0C5A
:104EA00021E030E04DED54E068E070E080E090E01B
:104EB0000E943F0C80918A0C0091C70521E030E0F0
:104EC000882319F047EF54E002C04BED53E068E04F
:104ED00070E088E290E031C1E091C4058E2F90E04F
:104EE0008830910508F02BC1FC01E155FF4F0C946F
:104EF0001B45012F21E030E044EE54E060E070E01B
:104F00008AE090E00E943F0C21E030E04FE753E060
:104F100010C1012F21E030E04AEE54E060E070E083
:104F200081E090E00E943F0C8091E0050091C70570
:104F300021E030E0882319F042EF54E002C045EF51
:104F400054E068E070E08FE090E0F7C08091E00509
:104F5000811104C087E08093C405F1C0012F21E0D6
:104F600030E049EF54E060E070E081E090E00E94C2
:104F70003F0C8091B105813051F080F0823071F4A6
:104F80000091C70521E030E04FE055E00DC00091F1
:104F9000C70521E030E047E055E006C00091C705B5
:104FA00021E030E04FEF54E068E070E085E090E011
:104FB000C4C0012F21E030E047E155E060E070E03F
:104FC00085E090E00E943F0C8091AF051BC0012F4F
:104FD00021E030E042E255E060E070E081E090E006
:104FE0000E943F0C8091B0050DC0012F21E030E000
:104FF0004AE255E060E070E081E090E00E943F0C02
:105000008091DD051F928F938CE195E09F938F93A4
:105010001F9288E08F93CE0101967C019F938F931E
:105020000E948D460091C70521E030E0A70168E0AD
:1050300070E08FE090E00E943F0C0FB6F894DEBF66
:105040000FBECDBF7CC0012F21E030E041E355E031
:1050500060E070E081E090E00E943F0C8091890C5C
:10506000882339F00091880C21E030E041E555E0DB
:1050700006C00091C70521E030E043EF54E068E04E
:1050800070E084E190E059C0012F21E030E041EC74
:1050900053E060E070E081E090E04FC0012F21E03C
:1050A00030E049E355E060E070E082E090E00E948B
:1050B0003F0C8091DC051BC0012F21E030E04DE367
:1050C00055E060E070E082E090E00E943F0C80914B
:1050D000DF050DC0012F21E030E041E455E060E044
:1050E00070E080E090E00E943F0C8091B305009159
:1050F000C70521E030E0882319F042EF54E002C0F8
:1051000045EF54E068E070E08AE090E016C000915E
:10511000C70521E030E04BE455E060E070E082E05C
:1051200090E00E943F0C0091C70521E030E043E58C
:1051300055E068E070E080E090E00E943F0C289627
:105140000FB6F894DEBF0FBECDBFDF91CF911F9198
:105150000F91FF90EF90DF90CF9008950F930E94F2
:10516000C70981E0809360011092870C1092860C31
:105170001092850C1092840C1092830C1092820C69
:105180001092810C0091CF0522E030E04CE555E013
:1051900060E070E080E090E00E943F0CE091C30985
:1051A000F0E0EE0FFF1FE85AFD4F40815181009162
:1051B000CF0522E030E068E070E080E090E00E94FF
:1051C0003F0C0F9108950C94E74C0C94D54CCF9262
:1051D000DF92EF92FF920F931F93CF93DF93CDB7A0
:1051E000DEB72A970FB6F894DEBF0FBECDBF909101
:1051F000870C992309F4C2C0182F0E946217C0902F
:10520000C805D090C905E090CA05F090CB05DC0137
:10521000CB018C199D09AE09BF09853F9140A105BD
:10522000B105B8F00E9462176093C8057093C90574
:105230008093CA059093CB058091CD05882321F0FA
:1052400080918D0C811103C010938D0C02C01092BF
:105250008D0C8091830C882341F080918D0C80937C
:10526000800C10938C0C10938B0C8091820C8823F3
:1052700041F01093800C80918D0C80938C0C1093D6
:105280008B0C8091810C882341F01093800C10933B
:105290008C0C80918D0C80938B0C0E94151C0E94AD
:1052A000661E0E946124E0910808F0E0EE0FFF1FE7
:1052B000E75AFF4E6591749185EB95E00E94EA49AB
:1052C00085EB95E09F938F9383E793E09F938F9374
:1052D0001F921AE01F93CE0101967C019F938F933A
:1052E0000E948D460091800C22E030E0A70160E032
:1052F00070E080E090E00E943F0C0E94151C0E942C
:10530000661E0E946124809107081F928F9395E684
:10531000C92E95E0D92EDF92CF921F921F93FF9254
:10532000EF920E948D4600918C0C22E030E0A701A4
:1053300068E070E080E090E00E943F0C0E94151C45
:105340000E94661E0E9485249F938F93DF92CF92C6
:105350001F921F93FF92EF920E948D4600918B0C3B
:1053600021E030E0A70168E070E084E190E00E9475
:105370003F0C0FB6F894DEBF0FBECDBF2A960FB616
:10538000F894DEBF0FBECDBFDF91CF911F910F917B
:10539000FF90EF90DF90CF900895CF93DF93CDB73C
:1053A000DEB729970FB6F894DEBF0FBECDBFFC0164
:1053B00020812031D9F0BE016F5F7F4F0E94D7203E
:1053C000882381F08D818F3359F018F48F3171F07B
:1053D00009C08F3519F08F3739F004C08BE007C052
:1053E0008AE005C080E003C08CE001C089E0299616
:1053F0000FB6F894DEBF0FBECDBFDF91CF910895F9
:105400000F931F93CF93DF93CDB7DEB761970FB69E
:10541000F894DEBF0FBECDBFE0918D09F0918E09EB
:10542000138615861486DF011B9633961E92AE17DF
:10543000BF07E1F710928C0911E0BE01665F7F4F54
:1054400080918D0990918E090E94591B882309F43F
:1054500053C067E0CE010A960E94671A99898913A2
:10546000ECCF80918809811126C080918D0990919F
:105470008E090E94231BBE01665F7F4F80918D09BC
:1054800090918E090E94B61A40E064EB80918D09DC
:1054900090918E090E94741A80918D0990918E09C5
:1054A0000E94E31A082F80918D0990918E090E9425
:1054B000231B0023F1F0BE016F5F7F4FCE010A96E0
:1054C0000E947E2000918909CE010A960E94CD2972
:1054D000801718F48091890904C0CE010A960E94B1
:1054E000CD298093890980918C098F5F80938C09E5
:1054F000A4CF10938809DFCF61960FB6F894DEBF72
:105500000FBECDBFDF91CF911F910F910895382F1E
:105510002091AA089091E90C213208F049C08091AD
:10552000A9088111FCCF42E04093A9083093A80854
:105530003FEF3093C70C1092C60C2093C50CA9EC1A
:10554000BCE045EA5CE0FA013E2F341B321718F448
:105550003D913193F9CF1092A40C2091A40C990F96
:10556000922B9093A40C9091A708913061F4109223
:10557000A7089091A40C9093BB009091BC0093FD60
:10558000F8CF95EC01C095EE9093BC009091A908DE
:105590009230E1F39091C70C9F3F79F08091C70C56
:1055A000803241F08091C70C803331F084E005C037
:1055B00081E003C082E001C083E01092AB0810924A
:1055C000AA081092C80C08958F929F92AF92BF9232
:1055D000CF92DF92EF92FF920F931F93CF93DF93BF
:1055E000FC01C081D1812091A20C3091A30CC21783
:1055F000D3070CF04BC09E01220F331FE091A00C8B
:10560000F091A10CE20FF31F80809180C170DD2723
:10561000F1E0CF27209719F404E610E002C00CE96E
:105620001FEF7A015B016C01040F151FB801C40163
:105630000E94F318892B99F40E0D1F1DB801C401A7
:105640000E94F318892B71F4B8016E0D7F1DC401FF
:105650000E94F318892BE9F023E030E005C021E037
:1056600030E002C022E030E0F501808191810196B6
:10567000821793073CF0F50111821082F6018081B8
:105680009181019691838083CE0105C081E090E0F5
:1056900002C08FEF9FEFDF91CF911F910F91FF908D
:1056A000EF90DF90CF90BF90AF909F908F90089534
:1056B0008F929F92AF92BF920F931F93CF93DF93DE
:1056C000CDB7DEB7A1970FB6F894DEBF0FBECDBF42
:1056D00019A2423008F44AE08E010F5D1F4F842E5C
:1056E000912CA12CB12CA50194010E94274DE62FED
:1056F000B901CA0101501109EA3014F4E05D01C09A
:10570000E95CD801EC93232B242B252B61F7C801EE
:105710000E94461EA1960FB6F894DEBF0FBECDBF05
:10572000DF91CF911F910F91BF90AF909F908F907D
:105730000895E0910A08F0910B080190F081E02DA6
:10574000682F8AE098E00994CF92DF92EF92FF925F
:10575000CF93DF936C01990FEE08FF08F7FE17C097
:105760008DE20E94992BEC0166277727CB016C19FB
:105770007D098E099F094AE00E94582B8C0F9D1FBE
:10578000DF91CF91FF90EF90DF90CF9008954AE0A6
:10579000C701B601DF91CF91FF90EF90DF90CF90DE
:1057A0000C94582B8091950C853031F580917A0BB3
:1057B0002091940C90E0059630E08217930724F036
:1057C0008091940C8638C0F084E08093950C809191
:1057D0007A0B813830F081E090E09093930C8093C5
:1057E000920C8091780B8F7741F18091780B8F77B5
:1057F0009091910C891709F18091950C8430D9F41E
:1058000010927A0B1092940C8FEF9FEF9093930C61
:105810008093920C6091900C662331F00E94B21933
:105820009093930C8093920C85E08093950C8DED72
:1058300092E80E943D1980E008958091920C909129
:10584000930C892B49F4E091FD0BF091FE0B3097FE
:1058500019F080E009950BC08FEF9FEFDC0180937A
:10586000EA0C9093EB0CA093EC0CB093ED0C81E060
:1058700008950F931F93CF93DF93C62F90918F0CB2
:10588000992321F0883110F492E001C090E000915A
:105890008E0CD82FD91B033028F44C2F65E08D2FA8
:1058A0000E94650A11E01D0F4C2F65E0812F0E94B8
:1058B000650A033028F44C2F66E08D2F0E94650A9C
:1058C0004C2F66E0812F0E94650A033028F44C2F8C
:1058D00069E08D2F0E94650A4C2F69E0812F0E949C
:1058E000650A033028F44C2F6AE08D2F0E94650A68
:1058F0004C2F6AE0812FDF91CF911F910F910C9473
:10590000650A0F931F93CF93DF93EC0160E070E083
:10591000CB01E99120ED2E0F2A30C0F4AAE0B0E0CF
:105920009B01AC010E94144D0E2FEE0F110B220BA8
:10593000330BDC01CB01800F911FA21FB31FBC01F1
:10594000CD016053710981099109E3CFDF91CF91B6
:105950001F910F9108950F931F93CF93C1E08091F2
:105960005A0B8D3221F0C0E00AE51BE002C00BE5C6
:105970001BE0C8010E94812C9B01AC01A4E6B0E0B1
:105980000E94144DF801DF01219130ED320F3A30C1
:10599000D0F32E3269F511962C91119730ED320F1C
:1059A0003A3030F5022E000C330B205331094AE017
:1059B000429F8001439F100D1124012E000C220BE9
:1059C000330B600F711F821F931F12960C9120EDF5
:1059D000200F2A3068F4002E000C110B005311091F
:1059E000012E000C220B330B600F711F821F931FBF
:1059F000CC2339F090958095709561957F4F8F4FAE
:105A00009F4FCF911F910F9108954F925F926F9288
:105A10007F928F929F92AF92BF92CF92DF92EF923E
:105A2000FF92CF93DF938AE59BE00E94812C2B01AC
:105A30003C0124E630E040E050E00E94274D9B010D
:105A4000AC01A0E1B7E20E94144D6B017C01EAE5D4
:105A5000FBE0819190ED980F9A30D8F38E3219F5D2
:105A6000EF0188EE882E83E0982EA12CB12CA9910D
:105A700080ED8A0F8A30B8F40A2E000CBB0BD09749
:105A8000A50194010E941F4DC60ED71EE81EF91EE7
:105A9000C501B4012AE030E040E050E00E94274D0B
:105AA00049015A01E4CFC701B60126E030E040E0E9
:105AB00050E00E94274D69017A01C301B20124E63A
:105AC00030E040E050E00E94274D60EA76E881E057
:105AD00090E00E94D7446C0D7D1D8E1D9F1DDF91AF
