:100000000C9477080C9428220C94FD210C94D22196
:100010000C94A1080C94A1080C94A1080C94A108BC
:100020000C94A1080C946A220C94A1080C94A108C9
:100030000C94A1080C94A1080C94A1080C94A1089C
:100040000C94A1080C94A1080C9473210C94A108A1
:100050000C9462200C9438200C94A1080C94A108F4
:100060000C94A1080C94A1080C94F1170C94A1080D
:100070000C94A1080C94A1080C94A1080C94A1085C
:100080000C94A1080C94A1080C94A1089035AE35ED
:10009000C935E435FF351A363E36103C2A3C3F3C24
:1000A0005A3C653CA33CAA3CB43CBF3CCF3CCF3C53
:1000B000CF3CCF3CCF3CCF3CCF3CCF3CCF3CCF3CE8
:1000C000CF3CCF3CCF3CCF3CCF3CCF3CCF3CCF3CD8
:1000D000CF3CCF3CCF3CCF3CCF3C103C253C2A3CD6
:1000E0003F3C5A3C653C803C8B3C963C260C540C77
:1000F0007A0C9C0CB40CC40CD20C130F2C0F430FB5
:10010000460F5F0F820F970F461055108610A410F0
:10011000BB104F11601177119311D310E810FE102E
:1001200015112C1143114C11CE12D812F412FC12DD
:10013000041308130C131D13F41FF71FEA1FEE1FFF
:100140000E200E20FB1FFF1F052009209326AC2642
:10015000F7261E27452727283528432860285227B9
:1001600062277F27B227C027CE27FC271D28556E80
:1001700061626C6520746F2066696E6420616464DE
:100180007265737320666F72204453313842323087
:10019000004F4646004F4E00445331384232302023
:1001A000706172617369746520706F776572206920
:1001B000733A200052464D313242204465746563E3
:1001C00074696F6E204641494C2120286973206371
:1001D0006869702070726573656E743F29005246BD
:1001E0004D313242204465746563746564204F4B21
:1001F0002100525443206861732073657420746831
:10020000652073797374656D2074696D6500556E32
:1002100061626C6520746F2073796E6320776974F6
:10022000682074686520525443004572724A616EBA
:100230004665624D61724170724D61794A756E4AD0
:10024000756C4175675365704F63744E6F76446586
:1002500063005600426174746572793A00526563B6
:10026000656976696E6720446174612E2E2E0000E8
:100270000000000000000000080808080008000056
:10028000361224000000000000143E143E1400004A
:10029000081E281C0A3C0000003234081626000004
:1002A00000182418261E0000181810000000000076
:1002B00008101010100800001008080808100000AE
:1002C00000082A082A0800000008083E0808000064
:1002D00000000000180810000000003E00000000B0
:1002E000000000000C0C00000002040810200000B8
:1002F0000C121212120C0000040C0404040E000074
:100300000C120204081E00001E020C02120C000057
:1003100012121E02020200001E101C02120C00002B
:100320000C101C12120C00001E0204080808000029
:100330000C120C12120C00000C120E02120C000017
:10034000000C0C000C0C0000000C0C000C0408004D
:10035000000408100804000000003E003E000000F9
:1003600000100804081000001C2204080008000007
:100370001C262A2E201E00001C22223E22220000C3
:100380003C223C22223C00001C222020221C000097
:100390003C222222223C00003E203C20203E000045
:1003A0003E203C20202000001C202026221E000091
:1003B00022223E22222200001C080808081C0000FD
:1003C0003E020202221C00002224383824220000AF
:1003D00020202020203E000022362A222222000057
:1003E00022322A26222200001C222222221C000065
:1003F0003C223C2020200000182424242C1A000039
:100400003C223C22222200001E201C02221C000052
:100410003E0808080808000022222222221C0000B0
:1004200022222214140800002222222A2A14000068
:1004300022140808142200002222140808080000D0
:100440003E040810203E00001C101010101C00007C
:1004500020100804020000001C040404041C000016
:10046000081422000000000000000000003E000010
:100470000804000000000000001C021E223E0000D4
:1004800020203C22223C0000001C2020201C0000D8
:1004900002021E22221E0000001C223E201C000020
:1004A0000E10103C10100000001E223E02021C0024
:1004B00020203C222222000008001808081C00000E
:1004C00008001E0202221C002020243824220000E2
:1004D00018080808081C000000342A2A2A2A0000EC
:1004E000002C322222220000001C2222221C0000AA
:1004F000003C223C20202000001C241C0404060098
:10050000002E302020200000001E201C023C000095
:10051000083E08080806000000222222221E0000D1
:1005200000222222140800000022222A2A1400009D
:1005300000221408142200000022221E02041800C7
:10054000003E0408103E00000408081008080400DB
:100550000808080808080000100808040808100027
:1005600000102A0400000000102810000000000005
:100570000000000000000000040404040004000067
:100580000505000000000000000C0F0C0F0C00001F
:1005900004060C06060C040000323408162600007F
:1005A00000182418261E0000181810000000000073
:1005B00008101010100800001008080808100000AB
:1005C00000082A082A0800000008083E0808000061
:1005D00000000000180810000000003E00000000AD
:1005E00000000000020000000002040810200000CB
:1005F00002050505020000000206020207000000D5
:1006000006010204070000000701060106000000C1
:1006100005050701010000000704070106000000AE
:1006200003040705020000000701020404000000A3
:100630000705070507000000070507010600000081
:10064000000200020000000000060600060204008E
:100650000001020402010000000007000700000082
:10066000000402010204000006010204000400006C
:1006700006090B0B0806000002050507050500002A
:100680000605060505060000020504040502000033
:10069000060505050506000007040604040700001A
:1006A0000704060404040000030404050503000015
:1006B0000505070505050000070202020207000004
:1006C00007010101050200000505060605050000F9
:1006D00004040404040700000507070505050000DD
:1006E00005070505050500000205050505020000D2
:1006F00006050604040400000205050507030000C2
:1007000006050605050500000304020105020000B8
:1007100007020202020200000505050505070000A8
:10072000050505050502000005050505070700008C
:10073000050502020505000005050502020200008C
:100740000701020404070000060404040406000074
:10075000040402010100000003020202020300007F
:100760000205050000000000000000000007000076
:10077000020100000000000000060107050700005C
:100780000404070505070000000304040403000037
:10079000010107050507000000020407040300002B
:1007A0000302020702020000000305070101060020
:1007B0000404070505050000020006020207000008
:1007C00001000701010502000004050605050000FF
:1007D00006020202020700000006070705050000E6
:1007E00000060505050500000002050505020000DC
:1007F00000060506040404000003050701010100CA
:1008000000030404040400000003040201060000C5
:1008100002070202020100000005050505030000B1
:100820000005050505020000000505050707000095
:100830000005050205050000000505070101060089
:100840000007010204070000010202040202010085
:10085000020202020202000004020201020204007B
:1008600000040B01000000446973706C6179204F33
:100870007074696F6E73204D656E75004469737096
:100880006C61792053797374656D204D656E7500C8
:10089000446973706C617920446174652F54696D8B
:1008A00065204D656E75005345543A2054696D6559
:1008B0007A6F6E65005363726F6C6C2054656D7057
:1008C000005363726F6C6C204461746500456E74F4
:1008D0006572205363726F6C6C205375626D656E28
:1008E000750057726974696E6720496E6974696131
:1008F0006C2073657474696E677320746F2045454E
:1009000050524F4D2121210053657474696E672048
:1009100053797374656D0057726974696E67206EE0
:1009200065772046772076657273696F6E000E1FBB
:1009300013131313131313131F0E060E1E060606AE
:10094000060606061F1F1E1F030303060C181818B1
:100950001F1F1E1F0303030E0E0303031F1E181881
:1009600018181B1F1F03030303031F1F1818181E4B
:100970001F0303031F1E0E1F1818181E1F13131327
:100980001F0E1F1F030303060C18181818180E1F3C
:100990001313130E0E1313131F0E0E1F1313131F17
:1009A0000F0303031F0E0000000000000000000002
:1009B00000001F1F1B1B1B1B1B1B1B1B1F1F0C0CCB
:1009C0000C0C0C0C0C0C0C0C0C0C1F1F0303031F49
:1009D0001F1818181F1F1F1F0303031F1F030303E4
:1009E0001F1F1B1B1B1B1B1F1F03030303031F1FB7
:1009F0001818181F1F0303031F1F1F1F1818181F85
:100A00001F1B1B1B1F1F1F1F0303030303030303E2
:100A100003031F1F1B1B1B1F1F1B1B1B1F1F1F1F36
:100A20001B1B1B1F1F0303031F1F000000000000F0
:100A30000000000000000E1F1B1B1B1B1B1B1B1BB1
:100A40001F0E02060E060606060606061F1F0E1FCE
:100A5000030303060C1818181F1F0E1F0303030EB1
:100A60000E0303031F0E030306060C0C1B1F0303D8
:100A700003031F1F1818181E0F0303031F0E0E1F5A
:100A80001818181E1F1B1B1B1F0E1F1F0303030616
:100A90000C18181818180E1F1B1B1B0E0E1B1B1BE7
:100AA0001F0E0E1F1B1B1B1F0F0303031F0E000037
:100AB000000000000000000000001F1111111111C2
:100AC00011111111111F040404040404040404048A
:100AD00004041F010101011F10101010101F1F013D
:100AE0000101011F01010101011F11111111111F4C
:100AF0000101010101011F101010101F010101016E
:100B0000011F1F101010101F11111111111F1F01B3
:100B1000010101010101010101011F111111111F49
:100B200011111111111F1F111111111F01010101CB
:100B3000011F0000000000000000000000000E1176
:100B40001111111111111111110E040C04040404DE
:100B500004040404041F0E11010101020408101012
:100B6000101F0E110101010E01010101110E1111E1
:100B70001111111F0101010101011F101010101EA0
:100B800001010101110E0E111010101E1111111191
:100B9000110E1F01010101020408101010100E11A6
:100BA0001111110E11111111110E0E111111110F40
:100BB00001010101110E0000000000000000000012
:100BC0000000000000000000000000080808080005
:100BD000080000361224000000000000143E143EFD
:100BE000140000081E281C0A3C00000032340816BD
:100BF00026000000182418261E00001818100000F7
:100C00000000000810101010080000100808080864
:100C100010000000082A082A0800000008083E0802
:100C200008000000000000180810000000003E004E
:100C3000000000000000000C0C000000020408107E
:100C40002000001C262626261C00000C1C0C0C0C68
:100C50001E00001C260C18303E00003E061C062616
:100C60001C000026263E06060600003E303C0626F6
:100C70001C00001C203C26261C00003E060C1818F8
:100C80001800001C261C26261C00001C261E0626FA
:100C90001C0000000C0C000C0C0000000C0C000CE4
:100CA000040800000408100804000000003E003E94
:100CB00000000000100804081000001C22040800B6
:100CC0000800001C262A2E201E00001C22223E2284
:100CD0002200003C223C22223C00001C2220202238
:100CE0001C00003C222222223C00003E203C20200E
:100CF0003E00003E203C20202000001C2020262218
:100D00001E000022223E22222200001C08080808A1
:100D10001C00003E020202221C000022243838245B
:100D200022000020202020203E000022362A2222FD
:100D300022000022322A26222200001C2222222205
:100D40001C00003C223C2020200000182424242CDD
:100D50001A00003C223C22222200001E201C0222FB
:100D60001C00003E08080808080000222222222257
:100D70001C000022222214140800002222222A2A07
:100D8000140000221408081422000022221408086B
:100D90000800003E040810203E00001C1010101037
:100DA0001C000020100804020000001C04040404BD
:100DB0001C000008142200000000000000000000D9
:100DC0003E00000804000000000000001C021E227B
:100DD0003E000020203C22223C0000001C2020205D
:100DE0001C000002021E22221E0000001C223E20C7
:100DF0001C00000E10103C10100000001E223E02CD
:100E0000021C0020203C22222200000800180808B2
:100E10001C000008001E0202221C0020202438248E
:100E200022000018080808081C000000342A2A2A9A
:100E30002A0000002C322222220000001C22222242
:100E40001C0000003C223C20202000001C241C042C
:100E5000040600002E302020200000001E201C026E
:100E60003C0000083E08080806000000222222225A
:100E70001E000000222222140800000022222A2A3A
:100E800014000000221408142200000022221E0276
:100E9000041800003E0408103E0000040808100872
:100EA00008040008080808080800001008080408DA
:100EB00008100000102A0400000000102810000094
:100EC0000000000020002300260029000202020288
:100ED00002020202040404040404040403030303DE
:100EE00003030303010101010101010101020408DF
:100EF00010204080010204081020408001020408F4
:100F0000102040800102040810204080005EBCE2F6
:100F1000613FDD83C29C7E20A3FD1F419DC3217FD5
:100F2000FCA2401E5F01E3BD3E6082DC237D9FC1C9
:100F3000421CFEA0E1BF5D0380DE3C62BEE0025CBD
:100F4000DF81633D7C22C09E1D43A1FF4618FAA4A9
:100F500027799BC584DA3866E5BB5907DB85673995
:100F6000BAE406581947A5FB7826C49A653BD98789
:100F7000045AB8E6A7F91B45C6987A24F8A6441A7D
:100F800099C7257B3A6486D85B05E7B98CD2306E69
:100F9000EDB3510F4E10F2AC2F7193CD114FADF355
:100FA000702ECC92D38D6F31B2EC0E50AFF1134D49
:100FB000CE90722C6D33D18F0C52B0EE326C8ED03D
:100FC000530DEFB1F0AE4C1291CF2D73CA94762829
:100FD000ABF517490856B4EA6937D58B5709EBB515
:100FE00036688AD495CB2977F4AA4816E9B7550B09
:100FF00088D6346A2B7597C94A14F6A8742AC896FD
:10100000154BA9F7B6E80A54D7896B3500002100C3
:10101000240027002A0000002200250028002B00C1
:10102000000000010200090A000000000403080794
:1010300000000000000000000000000000000000B0
:10104000446563656D626572004E6F76656D6265BD
:1010500072004F63746F6265720053657074656DE2
:1010600062657200417567757374004A756C79002A
:101070004A756E65004D617900417072696C004D72
:1010800061726368004665627275617279004A61D7
:101090006E75617279000096108E1085107F107940
:1010A00010751070106B1064105A105210491040D7
:1010B000104E414E494E495459494E46CDCCCC3D37
:1010C0000AD7233C17B7D13877CC2B329595E62435
:1010D0001FB14F0A000020410000C84200401C46DA
:1010E00020BCBE4CCA1B0E5AAEC59D743F43112492
:1010F0001FBECFEFD0E4DEBFCDBF15E0A0E0B1E072
:10110000E6EFFCE900E00BBF02C007900D92A239A8
:10111000B107D9F72CE0A2E9B5E001C01D92A33ECA
:10112000B207E1F718E0C7E7D8E004C02197FE0155
:101130000E943C46C637D107C9F70E94D82E0C94AE
:10114000794E0C940000662351F05C98962F9823FA
:1011500011F05E9A01C05E985C9A6695F4CF08958E
:101160008031E8F4883068F445B121E030E0B9011D
:1011700002C0660F771F8A95E2F7CB01842B85B9F1
:1011800008954BB1885021E030E0B90102C0660FEC
:10119000771F8A95E2F7CB01842B8BB90895282F0E
:1011A00030E0883160F448B12051310981E090E0AD
:1011B00001C0880F2A95EAF7842B88B9089562B197
:1011C0004FE150E0CA01821B930B9C0181E090E04B
:1011D00001C0880F2A95EAF7862B82B908958031DD
:1011E000F8F4883070F445B121E030E0B90102C074
:1011F000660F771F8A95E2F7CB018095842385B926
:1012000008954BB1885021E030E0B90102C0660F6B
:10121000771F8A95E2F7CB01809584238BB90895D7
:10122000282F30E0883168F448B12051310981E03D
:1012300090E001C0880F2A95EAF78095842388B949
:10124000089542B18FE190E0BC01621B730B81E015
:1012500090E001C0880F6A95EAF78095842382B9EF
:10126000089586E090E00E94BE288C3679F087E1F0
:1012700099E00E94ED1B6CE686E090E00E94BC289D
:101280006FE070E080E090E00E942D2180E090E02F
:101290000E94BE2891E0811101C090E09093820CE1
:1012A00084E090E00E94BE288093A10585E090E054
:1012B0000E94BE28813009F081E08093BC0588E05F
:1012C00090E00E94BE288093810C8EE090E00E9406
:1012D000BE2891E0811101C090E090937A0C80E1EA
:1012E00090E00E94BE288093AE0585E190E00E94C8
:1012F000BE288093C80582E190E00E94BE2891E05C
:10130000811101C090E090939F0584E190E00E94DC
:10131000BE288093AD0586E190E00E94BE2891E052
:10132000811101C090E09093CC05911108C090917B
:10133000C40792FF04C084E089278093C40787E133
:1013400090E00E94BE2891E0811101C090E090934E
:10135000C90589E190E00E94BE2891E0811101C099
:1013600090E09093CB058BE190E00E94BE288093A3
:101370009E058EE190E00E94BE2880939C058FE13F
:1013800090E00E94BE288093C30780E290E00E9414
:10139000BE2880939D0581E290E00E94BE28809344
:1013A000790C82E290E00E94BE2891E0811101C098
:1013B00090E09093780C84E290E00E94BE2891E047
:1013C000811101C090E09093A0050895DF92EF9203
:1013D000FF920F931F93CF93DF930CE316E0C7E6C2
:1013E000D1E0DC2E84E0D80EE9908E2D0E94EF082B
:1013F00064E085E00E94A30860E480E00E94A30806
:1014000080E3F82E60E880E00E94A308FA94F110CF
:10141000F9CF8E2D0E94B00880E090E0F801E80F2F
:10142000F91F1082019680369105C1F7005A1F4FAF
:10143000DC12DACFDF91CF911F910F91FF90EF90E7
:10144000DF9008950F931F93CF93DF931F92CDB733
:10145000DEB7062FE82FF0E0E959FE4F1081812F0B
:1014600049830E94EF0864E085E00E94A30860E4DD
:10147000802F0E94A30868E04981842F0E94A3085E
:10148000812F0F90DF91CF911F910F910C94B00895
:10149000803608F044C0603108F041C098EE980FE3
:1014A000983118F4892F51E001C050E090ED980F69
:1014B000983110F4892F52E098EB980F983110F47E
:1014C000892F53E0962F937028E030E002C03595C5
:1014D00027959A95E2F7982F990F990F659565953D
:1014E000690F80E6589FF0011124862F062E000C0C
:1014F000990BDF01A80FB91FA45CB94F442319F061
:101500003C91232B03C020953C9123232C93E45C36
:10151000F94FE80FF91F4081852F0C94220A089596
:101520008F929F92AF92BF92CF92DF92EF92FF92F3
:101530000F931F93CF93DF93962E822E40321CF091
:10154000C0EEC40F01C0C0E098E0C99FE0011124C3
:10155000C12CD12C95E0B92EB80EF601EC0FFD1F71
:10156000EE53F44FE49185E0E82EF12C0E2F10E0BD
:10157000AC2CA90CC8010E2C02C0959587950A9435
:10158000E2F780FF02C0482D01C040E06A2D8B2D9C
:101590008E190E94480A81E0E81AF10858F78FEF87
:1015A000C81AD80A98E0C916D104B9F6DF91CF91CC
:1015B0001F910F91FF90EF90DF90CF90BF90AF9071
:1015C0009F908F9008952F923F924F925F926F92CB
:1015D0007F928F929F92AF92BF92CF92DF92EF92C3
:1015E000FF920F931F93CF93DF93CDB7DEB727976B
:1015F0000FB6F894DEBF0FBECDBF162F7C834A0115
:101600003901C0966C018B835F834E83F401019096
:101610000020E9F73197E819F9098E819F8188192F
:1016200099098E179F0708F0A2C022E06216710484
:1016300079F033E06316710409F446C0202F81E08D
:101640006816710409F07EC0AE81BF814C917DC0E7
:10165000EE81FF818081803214F0805201C080E0F1
:10166000F8E08F9F10011124412C512C25E02C0D06
:101670002D83F201E20DF31DE159FD4FE49125E0C8
:10168000A22EB12CEE2EF12C342D310F3983C7014F
:101690000A2C02C0959587950A94E2F780FF02C054
:1016A000402F01C040E069818D818A190E94480A5B
:1016B00081E0A81AB10858F7AFEF4A1A5A0AB8E001
:1016C0004B165104B1F646C0EE81FF8180818052F5
:1016D0008F3508F080E098E0899F900111243A83CB
:1016E0002983A12CB12C93E0392E3B81330EE98163
:1016F000FA81EA0DFB1DE159FA4FE49183E0E82EEF
:10170000F12C4E2E512C2A2C210EC2010E2C02C07F
:10171000959587950A94E2F780FF02C0402F01C09B
:1017200040E0622D832D8E190E94480A81E0E81A5C
:10173000F10858F7AFEFAA1ABA0AB8E0AB16B1042D
:10174000B1F608C0EE81FF814081612F7C81C60126
:101750000E94900A2E813F812F5F3F4F3F832E834F
:1017600036E0C30ED11C3B813C5F3B834FCF2796B5
:101770000FB6F894DEBF0FBECDBFDF91CF911F91A2
:101780000F91FF90EF90DF90CF90BF90AF909F9020
:101790008F907F906F905F904F903F902F90089523
:1017A0000F931F93CF930E9467210091C205109160
:1017B000C3052091C4053091C505DC01CB01801B18
:1017C000910BA20BB30B883C9105A105B10508F460
:1017D0004BC18091CA05882309F446C10E94672144
:1017E0006093C2057093C3058093C4059093C505AB
:1017F000C0916B0CC23009F4E1C0C33009F405C1DB
:10180000C13009F031C10E94E6098091BB058C27E7
:101810008093BA05C0936F0C1092AC058091AF0510
:101820008F5F883018F48093AF0502C0C093AF0576
:10183000E091AF058E2F90E0FC013197E730F10584
:1018400008F012C1EA58FF4F0C943C460E94E6098A
:1018500081E08093620180936F0C1092770C8093EB
:10186000760C1092750C1092740C1092730C1092EE
:10187000720C1092710C1092BC070091BC0522E012
:1018800030E04EE254E060E070E08EE090E00E94D4
:10189000E30A0091BC0522E030E04CE854E068E047
:1018A00070E087E090E023C01092760C81E0809396
:1018B000750C1092740C1092730C1092720C1092A2
:1018C000710C0091BC0522E030E04EE254E060E093
:1018D00070E08EE090E00E94E30A0091BC0522E0F7
:1018E00030E042E354E068E070E085E090E00E9480
:1018F000E30ABAC01092770C1092760C1092750C15
:1019000081E08093740C1092730C1092720C109200
:10191000710C0091BC0522E030E04EE254E060E042
:1019200070E08EE090E00E94E30A0091BC0522E0A6
:1019300030E04AE354E0D7CF109262010E94E609FA
:1019400010926F0C81E08093770C9091BC0590937E
:101950006E0C1092760C1092750C1092740C109202
:10196000730C8093720C0DC010926F0C1092760C59
:101970001092740C1092750C81E08093730C10928D
:10198000720C1092710C70C01092760C1092750C43
:101990001092740C1092730C1092720C81E0809370
:1019A000710C62C087EA98E00E94ED1B81E0809391
:1019B000BC07CF911F910F910C9487280E94E609D4
:1019C00010926C0C10926F0C91E09093AC0580918A
:1019D000B005853079F48091B105811102C086E0AF
:1019E0000AC08F5F883018F48093B10506C09093C9
:1019F000B10503C08F5F8093B0058091B0058A3038
:101A000098F181E08093B0052FC00E94E6090E9402
:101A1000E60910926C0C10926F0C1092AC0581E0EC
:101A20008093B9058091B205813079F49091B30526
:101A3000911102C082E00AC09F5F983018F4909321
:101A4000B30506C08093B30503C08F5F8093B205D2
:101A50008091B205833018F081E08093B205CF9178
:101A60001F910F910C94E609CF911F910F9108954A
:101A70000F931F930E9467210091C2051091C30527
:101A80002091C4053091C505DC01CB01801B910B71
:101A9000A20BB30B883C9105A105B10508F488C0E1
:101AA0000E9467216093C2057093C3058093C405AB
:101AB0009093C5050E9467216093BD057093BE0594
:101AC0008093BF059093C00591E09093CA058091E3
:101AD000BB0589278093BA0510926C0C10926F0C8D
:101AE0001092770C80916B0C8F5F843018F4809388
:101AF0006B0C02C090936B0C80916B0C823009F1DF
:101B00008330B9F1813009F053C080E998E00E9438
:101B1000ED1B109262011092AC051092B9050E9463
:101B2000E60901E021E030E042E454E060E070E0EA
:101B300080E090E00E94E30A21E030E04BE454E0D2
:101B400031C08CE798E00E94ED1B109262010E9468
:101B5000E60901E021E030E042E554E060E070E0B9
:101B600085E090E00E94E30A21E030E049E554E09E
:101B700019C087E698E00E94ED1B10926201109256
:101B8000AC050E94E60901E021E030E04FE554E0B9
:101B900060E070E085E090E00E94E30A21E030E040
:101BA00044E654E068E070E085E090E00E94E30ADB
:101BB0001F910F910895CF93DF93D62FE82FF0E078
:101BC000E959FE4FC0818C2F0E94EF0864E084E049
:101BD0000E94A30860E88D2F0E94A30861E080E0C6
:101BE0000E94A3088C2FDF91CF910C94B008CF9363
:101BF000DF93813029F093E0863018F085E001C052
:101C000091E0989FC02D1124C056D0E06C2F8D2FED
:101C10000E94DB0DDF5FD530C9F7DF91CF910895CA
:101C2000CF92DF92EF92FF928091CA05811182C01C
:101C30008091A10581117EC00E943E176AE070E08C
:101C40000E942846892B09F075C08091C607811132
:101C500034C00E94091C449764F00E94091C813919
:101C6000914064F40E94091C092E000CAA0BBB0BC6
:101C700009C084E190E0A0E0B0E004C080E991E018
:101C8000A0E0B0E04497A109B109BC01CD0132E068
:101C9000660F771F881F991F3A95D1F72CE731E01F
:101CA00040E050E00E94164EDA01C9010196A11DE4
:101CB000B11D8093C6070E94F70D0E94091C44972E
:101CC00064F00E94091C8139914064F40E94091C4F
:101CD000092E000CAA0BBB0B09C084E190E0A0E028
:101CE000B0E004C080E991E0A0E0B0E04497A10931
:101CF000B109BC01CD0122E0660F771F881F991F33
:101D00002A95D1F72CE731E040E050E00E94164ED2
:101D100069017A018FEFC81AD80AE80AF80AC09256
:101D2000C5078091C6078C1529F08C2D0E94F70DF0
:101D3000C092C607FF90EF90DF90CF9008950F9369
:101D40001F93CF93DF93CDB7DEB727970FB6F894E5
:101D5000DEBF0FBECDBF0E9467210091C20510916A
:101D6000C3052091C4053091C505DC01CB01801B62
:101D7000910BA20BB30B883C9105A105B10508F4AA
:101D80007EC481E08093BB051092BA050E94672152
:101D90006093C2057093C3058093C4059093C505F5
:101DA00080916B0C823009F45FC1833009F4E1C388
:101DB000813009F064C40E940C140E9412178091B3
:101DC00050088093C2070E9446178093C1070E9463
:101DD0003E178093C0070E940C140E941217809136
:101DE00053088093BF070E940C140E941217809121
:101DF00052088093BE070E940C140E94361764E6B6
:101E000070E00E9428468093BD07E091AF054E2FF9
:101E100050E0FA013197E730F10508F0A8C0E35827
:101E2000FF4F0C943C469091C1058091C2079923C5
:101E300011F0815001C08F5F8093C2078091C2076B
:101E40008F3F21F487E18093C20791C0883108F465
:101E50008EC01092C2078BC09091C1058091C107BE
:101E6000992311F0815001C08F5F8093C107809149
:101E7000C1078F3F21F48BE38093C10704C08C33EB
:101E800010F01092C1071092C00771C09091C10567
:101E90008091BE07992311F0815001C08F5F80931C
:101EA000BE078091BE078F3F21F48FE18093BE076C
:101EB0005EC0803208F45BC01092BE0758C090919B
:101EC000C1058091BF07992311F0815001C08F5F38
:101ED0008093BF078091BF07811102C08CE003C0CF
:101EE0008D3018F081E08093BF070091700C22E0E4
:101EF00030E04CE654E060E070E080E090E00E946A
:101F0000E30A35C09091C105992311F0815001C0B9
:101F10008F5F8093BD078091BD07803110F488E208
:101F200003C0893220F180E18093BD0720C09091E9
:101F3000C10580910E0A992311F0815001C08F5F75
:101F400080930E0A80910E0A883010F010920E0ACB
:101F500060910E0A88E190E00E94BC286FE070E07A
:101F600080E090E00E942D2181E080936D0C0E9422
:101F700067210091BD051091BE052091BF053091EC
:101F8000C005DC01CB01801B910BA20BB30B893E7A
:101F90009340A105B10578F18091C0078F5F8C3324
:101FA00018F48093C00707C01092C0078091C10742
:101FB0008F5F8093C1078091C1078C3338F01092F6
:101FC000C1078091C2078F5F8093C2078091C207CB
:101FD000883138F01092C2078091BE078F5F8093DE
:101FE000BE070E9467216093BD057093BE05809374
:101FF000BF059093C0058091BD0790E06091BF0739
:102000005091BE072091C0073091C1074091C2078F
:10201000843691051CF0825B974001C04E968093F8
:1020200054086093530850935208409350083093DB
:102030004F0820934E088EE498E00E9496140E9468
:10204000E5130E940C14AE014F5F5F4F0E944116D2
:10205000CE0101960E944E178091BC07882309F497
:102060000EC30E9487280BC388E099E00E94ED1BF5
:10207000E091B0058E2F90E0FC013197E930F10539
:1020800008F0FDC2EC57FF4F0C943C468091820C47
:10209000811104C081E08093820C02C01092820CF6
:1020A0006091820C80E090E05FC00E94E609909110
:1020B000C1058091A105992311F0815001C08F5F66
:1020C0008093A1058091A1058F3F21F485E0809345
:1020D000A10504C0863010F01092A1056091A10501
:1020E00084E090E00E94BC286FE070E080E090E027
:1020F0000E942D211092C6078091A105811103C075
:102100000E94100EBCC20E94F70DB9C20E94E609DF
:102110009091C1058091810C992311F0815001C0EB
:102120008F5F8093810C8091810C8F3F21F484E03C
:102130008093810C04C0853010F01092810C609166
:10214000810C88E090E070C20E94E60980917A0CD0
:10215000882319F010927A0C03C081E080937A0CE6
:1021600060917A0C8EE090E00E94BC286FE070E0F5
:1021700080E090E05FC20E94E609E091B10581E055
:10218000EE2371F080936D0C8E2F90E0FC0131975F
:10219000E730F10508F073C2E357FF4F0C943C465B
:1021A0008093B1056CC28091CC05882319F0109200
:1021B000CC0509C081E08093CC056FE070E080E041
:1021C00090E00E942D216091CC0586E190E02CC228
:1021D0009091C10580919E05992311F0815001C015
:1021E0008F5F80939E0580919E05833010F0109242
:1021F0009E0560919E058BE190E016C29091C1050D
:1022000080919C05992311F0815001C08F5F8093CC
:102210009C0580919C05853118F081E080939C0598
:1022200060919C058EE190E0FFC19091C105809185
:102230009D05992311F0815001C08F5F80939D050A
:1022400080919D05853118F081E080939D05609116
:102250009D0580E290E0E8C19091C1058091790CE4
:10226000992311F0815001C08F5F8093790C809188
:10227000790C853118F081E08093790C6091790CAC
:1022800081E290E0D1C16091780C81E06827609391
:10229000780C82E290E0C8C11092B105F0C10E94B2
:1022A000E6098091C905882319F01092C90503C079
:1022B00081E08093C9056091C90587E190E054CF22
:1022C0000E94E6098091CB05882319F01092CB0576
:1022D00003C081E08093CB056091CB0589E190E05C
:1022E0000E94BC286FE070E080E090E016C00E9481
:1022F000E6098091A005882319F01092A00503C07B
:1023000081E08093A0056091A00584E290E00E94A6
:10231000BC2865E070E080E090E00E942D2181E023
:1023200080936D0CACC10E94E60982EE98E00E9499
:10233000ED1B60E080E090E00E94BC2862E370E06A
:1023400080E090E00E942D2163E084E090E00E9414
:10235000BC2862E370E080E090E00E942D2161E003
:1023600085E090E00E94BC2862E370E080E090E0AD
:102370000E942D216CE686E090E00E94BC2862E37A
:1023800070E080E090E00E942D2161E088E090E024
:102390000E94BC2862E370E080E090E00E942D2162
:1023A00061E08EE090E00E94BC2862E370E080E093
:1023B00090E00E942D2162E080E190E00E94BC2824
:1023C00062E370E080E090E00E942D216FEF81E1F8
:1023D00090E00E94BC2862E370E080E090E00E9400
:1023E0002D2161E082E190E00E94BC2862E370E070
:1023F00080E090E00E942D2162E084E190E00E9464
:10240000BC2862E370E080E090E00E942D2162E051
:1024100085E190E00E94BC2862E370E080E090E0FB
:102420000E942D2160E086E190E00E94BC2862E3DA
:1024300070E080E090E00E942D2160E087E190E074
:102440000E94BC2862E370E080E090E00E942D21B1
:102450006091CB0589E190E00E94BC2862E370E0C6
:1024600080E090E00E942D2160E08BE190E00E94EE
:10247000BC2862E370E080E090E00E942D2161E0E2
:102480008EE190E00E94BC2862E370E080E090E082
:102490000E942D2165E08FE190E00E94BC2862E35C
:1024A00070E080E090E00E942D2161E080E290E009
:1024B0000E94BC2862E370E080E090E00E942D2141
:1024C00065E081E290E00E94BC2862E370E080E079
:1024D00090E00E942D2160E082E290E00E94BC2802
:1024E00069E170E080E090E00E942D2160E084E2EC
:1024F00090E00E94BC2869E170E080E090E00E94DA
:102500002D2164E670E08FEF9AE00E94532264E987
:1025100070E087ED9AE00E94532264EC70E08FEA4D
:102520009AE00E94532264EF70E087E89AE00E94EC
:10253000532264E271E08FE59AE00E94532264E541
:1025400071E087E39AE00E94532264E871E08FE033
:102550009AE00E94532264EB71E087E29BE00E94C4
:1025600053220E94310981E080936D0C0E94E52A7C
:1025700086C08091B205813021F0823009F460C0BC
:102580007EC0E091B3058E2F90E08830910508F071
:1025900076C0FC01EC56FF4F0C943C460E94E609C5
:1025A00081E08093B3058DEC98E00E94ED1B67C03D
:1025B0009091C1058091AE05992311F0815001C021
:1025C0008F5F8093AE058091AE05811104C089E0D4
:1025D0008093AE0504C08A3010F01092AE05609171
:1025E000AE0580E190E041C081EC98E00E94ED1BD7
:1025F0006091C805605814C085EB98E00E94ED1BFF
:102600006091C80580E40BC06091C80580E207C0F6
:102610006091C80580E103C06091C80588E0682723
:102620006093C80585E190E00E94BC2865E070E0F9
:1026300080E090E00E942D2122C01092B3051FC0BF
:102640009091C1058091AD05992311F0815001C091
:102650008F5F8093AD058091AD058A3014F01092A4
:10266000AD056091AD0584E190E00E94BC2865E075
:1026700070E080E090E00E942D210E94E6092796FC
:102680000FB6F894DEBF0FBECDBFDF91CF911F9183
:102690000F9108958091F70890E02091F808821B2F
:1026A0009109089585ED8093BC008091BC0084FD64
:1026B000FCCF1092F40808950895E091F8088091F5
:1026C000F708E81730F4F0E0E25FF74F808190E020
:1026D00008958FEF9FEF08959091F8088091F70883
:1026E000981750F4E92FF0E0E25FF74F208130E0D7
:1026F0009F5F9093F80802C02FEF3FEFC901089544
:10270000FC0190810180F281E02D892F809560FF8E
:1027100012C0F8942281822382838181892B818354
:10272000A3E2B0E01197F1F78281982B928378941D
:1027300087ED90E011C0F894228182238283818109
:10274000892B8183AFEFB0E01197F1F78281982B4D
:10275000928378948FE090E00197F1F70895FC015F
:1027600090810180F281E02DF8948181292F2095BC
:102770008223818378948DE743E050E0815021F1FA
:10278000DA011197F1F730813923C1F3F89482818E
:10279000822382838181892B81837894ABECB7E09B
:1027A0001197F1F7F894818128232183ABE3B1E0FD
:1027B0001197F1F78081982381E009F080E0789407
:1027C000EBE8F6E03197F1F7089560939605709382
:1027D00097058093980590939905DC01CB01845D62
:1027E0009E4FAF4FBF4F8093920590939305A09358
:1027F0009405B093950582E090E09093C70580938F
:10280000C6050E9467216093330870933408809353
:102810003508909336080895CF92DF92EF92FF9299
:102820000F931F930E946721C0903308D090340803
:10283000E0903508F09036088B019C010C191D09B9
:102840002E093F098091960590919705A0919805D2
:10285000B0919905083E134021053105D0F001964D
:10286000A11DB11D8093960590939705A09398059F
:10287000B0939905B701A60148515C4F6F4F7F4F48
:1028800040933308509334086093350870933608AA
:10289000C9CF409192055091930560919405709134
:1028A000950584179507A607B70788F1E0919A0563
:1028B000F0919B05309759F10995611571058105D6
:1028C000910519F00E94E51322C080919605909120
:1028D0009705A0919805B0919905845D9E4FAF4FE3
:1028E000BF4F8093920590939305A0939405B09366
:1028F000950581E090E02091C6053091C705232B16
:1029000011F480E090E09093C7058093C605609134
:1029100096057091970580919805909199051F9162
:102920000F91FF90EF90DF90CF9008956F927F927C
:102930008F929F92AF92BF92CF92DF92EF92FF92CF
:102940000F931F93CF93DF93EC01EE81AE2FB0E096
:1029500020E833E341EE51E00E94354E4B015C012B
:1029600022EB37E0FD0104E610E080E9E82EFF24C9
:10297000F394C901825B97408E179F07DCF4C9016D
:1029800083709927892B99F4C901B8010E942846C0
:10299000892B31F4C901B7010E942846892B39F4EB
:1029A00080E8880E81E5981E81E0A81EB11C2F5F8B
:1029B0003F4FDFCF6D80712CEE54F84FCF0164E6AE
:1029C00070E00E9428467C01CF0160E971E00E941E
:1029D00028466C0101E010E0E370FF27061517059B
:1029E0002CF50230110581F4309771F4E114F104F3
:1029F00019F4C114D10441F480E8880E8BE3981EC9
:102A000086E2A81EB11C0FC0D801A559BE4FAC91DB
:102A1000B0E020E831E541E050E00E94354E860EFE
:102A2000971EA81EB91E0F5F1F4FD8CF49812A815C
:102A300030E0A0E1BEE00E946A4E6B017C01242FD1
:102A400030E0ACE3B0E00E946A4EDC01CB018C0DBB
:102A50009D1DAE1DBF1D28816C017D01C20ED11CC4
:102A6000E11CF11CAC81B0E0119720E831E541E0B8
:102A700050E00E94404EDC01CB018C0D9D1DAE1D2F
:102A8000BF1DBC01CD01680D791D8A1D9B1DDF9105
:102A9000CF911F910F91FF90EF90DF90CF90BF905B
:102AA000AF909F908F907F906F9008951F93CF93DA
:102AB000DF93CDB7DEB727970FB6F894DEBF0FBE12
:102AC000CDBF11E01093BB0C88E68093DC0C109214
:102AD000F6081092F50860E089EF98E00E941C2645
:102AE00081E00E94DB2B882319F010922E08BCC0D5
:102AF00010932E088091F4088111FCCF81E080931F
:102B0000F4088093F3089FEF9093BA0C1092B90CDD
:102B100096E09093B80C8093970C8091970C806D01
:102B20008093970C8091F208813061F41092F20842
:102B30008091970C8093BB008091BC0083FDF8CFFF
:102B400085EC01C085EE8093BC008091F408813053
:102B5000E1F38091B90C873018F48091B90C01C071
:102B600087E0A8E9BCE02EE038E0F9019E2F921B37
:102B7000981718F49D919193F9CF1092F8088093CB
:102B8000F708873008F470C089EF98E00E946C1352
:102B9000182F8695869586958E70982F990F990F88
:102BA000890F912F9F70890F898389EF98E00E9488
:102BB0006C13282F22952F70982F9F708AE0289FE2
:102BC000900D11249A8389EF98E00E946C13982F3E
:102BD000282F2695269526952670822F880F880FF8
:102BE000280F9F70920F9B8389EF98E00E946C13CF
:102BF000282F22952F70982F9F708AE0289F900D84
:102C000011249C8389EF98E00E946C13282F229551
:102C10002F70982F9F708AE0289F900D11249D831C
:102C200089EF98E00E946C13282F22952F70982F1F
:102C30009F708AE0289F900D11249E8389EF98E071
:102C40000E946C13982F9F70925E282F22952F70F0
:102C50008AE0289F900D11249F8317FD05C0CE01A7
:102C600001960E94961403C060E070E0CB012796A5
:102C70000FB6F894DEBF0FBECDBFDF91CF911F918D
:102C800008956F927F928F929F92AF92BF92CF9250
:102C9000DF92EF92FF920F931F93CF93DF93EA019E
:102CA0002CE3C22ED12CE12CF12CA70196010E941D
:102CB000484E6883CA01B901A70196010E94484E97
:102CC0006983CA01B90128E130E040E050E00E9488
:102CD000484E69017A016A83CA01B9016C5F7F4F6E
:102CE0008F4F9F4F27E030E040E050E00E94484E79
:102CF0006F5F6B83812C912C540140E034E6632E8E
:102D0000712C00E911E0242F30E02E54384FF901E6
:102D1000E370FF27309789F4C901B3010E94284668
:102D2000892B31F4C901B8010E942846892B29F466
:102D30008EE691E0A0E0B0E004C08DE691E0A0E076
:102D4000B0E0880E991EAA1EBB1ED501C401AA2799
:102D5000BB27C816D906EA06FB0610F04F5FD3CF93
:102D60004E83309799F4C90164E670E00E942846CA
:102D7000892B39F4C90160E971E00E942846892B4A
:102D800029F48EE691E0A0E0B0E004C08DE691E089
:102D9000A0E0B0E0881A990AAA0ABB0AC818D908A4
:102DA000EA08FB08C90164E670E00E9428468C012D
:102DB000C90160E971E00E942846ACE6B1E020E07C
:102DC000213041F4309751F40115110529F4009791
:102DD00029F402C04C9103C04DE101C04CE150E028
:102DE00060E070E0C416D506E606F70640F0C41AA7
:102DF000D50AE60AF70A2F5F11962C3009F72F5FE4
:102E00002D83C394CC82DF91CF911F910F91FF90BE
:102E1000EF90DF90CF90BF90AF909F908F907F907A
:102E20006F900895CF92DF92EF92FF92C0902F089B
:102E3000D0903008E0903108F09032086C157D0594
:102E40008E059F0571F06B017C014EE458E00E94F5
:102E50004116C0922F08D0923008E0923108F092CB
:102E60003208FF90EF90DF90CF9008950E941217E4
:102E70008091540890E08E54984F08950E940C144D
:102E80000E94121780914E0890E008950E940C1441
:102E90000E94121780914F0890E00895FF920F93BF
:102EA0001F93CF93DF938C01D1E0D093BB0C88E6C6
:102EB000F82EF092DC0C1092F6081092F50860E003
:102EC00089EF98E00E941C2660E889EF98E00E9454
:102ED0001C26F8018181CAE06C2F0E940846692FE8
:102EE000F0E18F9F600D112489EF98E00E941C266D
:102EF000F80182816C2F0E940846692FF0E18F9FB4
:102F0000600D112489EF98E00E941C26F80183814E
:102F10006C2F0E940846692FF0E18F9F600D1124ED
:102F200089EF98E00E941C26F80184816C2F0E9492
:102F30000846692FF0E18F9F600D112489EF98E01A
:102F40000E941C26F80185816C2F0E940846692F7B
:102F5000F0E18F9F600D112489EF98E00E941C26FC
:102F6000F80186818E516C2F0E940846692FF0E18E
:102F70008F9F600D112489EF98E00E941C2681E04C
:102F80000E94DB2B882321F010922E0880E023C0C2
:102F9000D0932E08D093BB0CF092DC0C1092F60864
:102FA0001092F50860E089EF98E00E941C26F80175
:102FB00080816C2F0E940846692FF0E18F9F600D81
:102FC000112489EF98E00E941C2681E00E94DB2BEF
:102FD0008111DACF81E0DF91CF911F910F91FF90A6
:102FE00008951F920F920FB60F9211240BB60F92F5
:102FF0002F933F934F935F936F937F938F939F9301
:10300000AF93BF93EF93FF938091B900887F803691
:1030100009F49CC068F5883209F45BC090F48031F3
:1030200009F454C038F4882309F4F6C0883009F450
:103030004DC0F6C0883109F44CC0803209F45DC03F
:10304000EFC0803409F468C048F4803309F455C0F7
:10305000883309F0E5C08093BA0CD8C0803509F4F4
:103060004FC0883509F45DC0883409F0D9C0D6C096
:10307000883909F4C7C0A8F4883709F467C038F460
:10308000883609F463C0803709F460C0C9C0883845
:1030900009F4B8C0803909F45FC0803809F0C0C0B5
:1030A0005BC0803B09F486C038F4803A09F466C0FE
:1030B000883A09F47FC0B4C0803C09F4A7C0883CBA
:1030C00009F4A4C0883B09F48AC0AAC08091970C77
:1030D00010C09091B90C8091B80C981770F5E091E0
:1030E000B90C81E08E0F8093B90CF0E0E856F34FF5
:1030F00080818093BB0085EC86C08093BA0C8EC023
:10310000E091B90C81E08E0F8093B90C8091BB00E7
:10311000F0E0E856F34F80839091B90C8091B80CA1
:103120006EC0E091B90C81E08E0F8093B90C809154
:10313000BB00F0E0E856F34F80838091F3088111E3
:103140006DC081E08093F20884EA61C083E08093DF
:10315000F40810920D08CFCF80910D08803208F04E
:1031600051C0E0910D0881E08E0F80930D08809191
:10317000BB00F0E0E351F84F8083BDCF85EC809336
:10318000BC001092F40880910D08803230F4E09178
:103190000D08F0E0E351F84F108260910D0870E0E7
:1031A000E091EB07F091EC078DEE97E00995109216
:1031B0000D0836C084E08093F4081092EA0710925C
:1031C000E907E091E707F091E80709958091E907A1
:1031D000811105C081E08093E9071092C707E09153
:1031E000EA0781E08E0F8093EA07F0E0E953F84F99
:1031F00080818093BB009091EA078091E90798173E
:1032000008F479CF85E88093BC000AC085EC8093F0
:10321000BC001092F40804C01092BA0C0E94521321
:10322000FF91EF91BF91AF919F918F917F916F919E
:103230005F914F913F912F910F900BBE0F900FBE5A
:103240000F901F9018954091E907262F30E0240F2A
:10325000311D21323105DCF42091F4082430C9F409
:10326000FC0180E090E0861758F43091E907219145
:10327000DC01A953B84FA30FB11D2C930196F3CFD6
:103280008091E907680F6093E90780E0089581E085
:10329000089582E00895CF92DF92EF92FF920F930C
:1032A0001F93CF93DF937C01262F972F8A01809164
:1032B000BB0C882391F0C62FD72F6E01C40ED51EEC
:1032C000CC15DD0571F06991D701ED91FC9101906C
:1032D000F081E02DC7010995F3CF642F822F0E9462
:1032E0002319C801DF91CF911F910F91FF90EF90AB
:1032F000DF90CF9008958F929F92AF92BF92CF921E
:10330000DF92EF92FF920F931F93CF93DF93CDB78E
:10331000DEB764970FB6F894DEBF0FBECDBF5F87F0
:10332000798BF42E411109C06F5F6D3040F02FEFA3
:10333000C21AD20A21E061E003C0242F01C021E0BB
:1033400089898B831A82198281E08D836E838EE452
:103350008C0D8F83CE0101962C8B0E9496144B010D
:103360005C010F8510E00E9412172C8930E021507B
:10337000310987E0829FF001839FF00D1124809135
:1033800051089801281B3109C901079667E070E0D0
:103390000E942846DF01A80FB91F20E831E541E06F
:1033A00050E00E94404E680D791D8A1D9B1DF11052
:1033B00004C060587A438940910964960FB6F89426
:1033C000DEBF0FBECDBFDF91CF911F910F91FF9058
:1033D000EF90DF90CF90BF90AF909F908F90089527
:1033E0008F929F92AF92BF92CF92DF92EF92FF9215
:1033F0000F931F93CF93DF936C01E090E609F09059
:10340000E7090091E8091091E9092091EA09309152
:10341000EB094091EC095091ED096091EE09709132
:10342000EF098091F0099091F1090E947B19C6EE95
:10343000D9E068A379A38AA39BA3E2EFF9E0E08037
:10344000F180028113812481358146815781608515
:103450007185828593850E947B196B017C016CA329
:103460007DA38EA39FA3AE89BF892CE330E00E9489
:10347000454608A119A12AA13BA148015901861A74
:10348000970AA80AB90A888E998EAA8EBB8EAA8539
:10349000BB852CE330E00E944546C61AD70AE80AED
:1034A000F90ACC8EDD8EEE8EFF8EDF91CF911F91CB
:1034B0000F91FF90EF90DF90CF90BF90AF909F90D3
:1034C0008F900895CF92DF92EF92FF92CF93DF9388
:1034D0006B017C010E943617EC016091FE0970912E
:1034E000FF098091000A9091010A0E943617C817BF
:1034F000D90731F0C701B6010E9436170E94F019B2
:10350000C701B6010E943617EC016091FE09709167
:10351000FF098091000A9091010A0E943617C8178E
:10352000D90731F0C701B6010E9436170E94F01981
:103530004091020A5091030A6091040A7091050AB1
:103540008091FE099091FF09A091000AB091010AB3
:1035500084179507A607B70758F4C816D906EA06D0
:10356000FB06D8F0C416D506E606F706B0F40AC086
:10357000C416D506E606F70628F0C816D906EA06E8
:10358000FB0658F086EE99E090934D0880934C0826
:10359000A091F009B091F1090AC082EF99E09093EF
:1035A0004D0880934C08A091FC09B091FD092CE3D3
:1035B00030E00E9445466C0D7D1D8E1D9F1DDF91E4
:1035C000CF91FF90EF90DF90CF900895F8940E94F4
:1035D000512378940895CF92DF92EF92FF920F9348
:1035E0001F93CF93DF9300D0CDB7DEB7062F109295
:1035F0004B084A8389830E948223898180934B08E8
:103600004A8140934A0810915A01143021F061E038
:1036100084E00E94F12061E0812F0E94F12061E0AE
:10362000812F0E94C12061E085E00E94F12060E0CE
:1036300086E00E94F12061E087E00E94F12080E5B1
:103640008CBD8DB581608DBD10915B0160E0812FD7
:103650000E94F12061E0812F0E94C12080E090E073
:103660000E94512385E092E80E94512380E098EB6C
:103670000E9451230E9467216B017C01812F0E94CF
:103680009820892B91F40E946721AB01BC014C1951
:103690005D096E097F09483C51056105710528F4F3
:1036A00080E090E00E945123E9CF0E946721DC0175
:1036B000CB018C199D09AE09BF09883C9105A10574
:1036C000B10508F04BC020E1029FC0011124876CB6
:1036D00090680E94512380E496EA0E94512388E07A
:1036E00096EC0E94512382EA94E90E9451238CEACD
:1036F00092EC0E945123F0904A08FF2041F083E8A9
:103700009AEC0E9451238F2D90E09E6C06C08BE8AE
:103710009AEC0E9451238DE29EEC0E94512383E893
:1037200094EC0E94512380E598E90E94512387E799
:103730009CEC0E94512380E090EE0E94512380E097
:1037400098EC0E94512383E490EC0E94512384E082
:10375000809349080E94822381E001C080E00F909D
:103760000F90DF91CF911F910F91FF90EF90DF901D
:10377000CF900895009769F0FC0101900020E9F7CF
:103780003197AF01481B590BBC0185E598E00C94BB
:10379000D81E80E090E008950F931F93CF93DF939E
:1037A0008C01C0E0D0E0F801EC0FFD1F64916623AE
:1037B00071F0E0915508F09156080190F081E02DEC
:1037C00085E598E00995892B11F02196ECCFCE0183
:1037D000DF91CF911F910F910895CF93DF930E94B6
:1037E000CC1BEC0185E294E00E94BA1B8C0F9D1F5C
:1037F000DF91CF910895CF93DF930E94BA1BEC0124
:1038000085E294E00E94BA1B8C0F9D1FDF91CF913F
:10381000089581E480937C0080917A008064809395
:103820007A0080917A0086FDFCCF8091780020910B
:10383000790090E0922B08952F923F924F925F92E1
:103840006F927F928F929F92AF92BF92CF92DF92B0
:10385000EF92FF920F931F93CF93DF93CDB7DEB715
:103860002C970FB6F894DEBF0FBECDBFFA010190C2
:103870000020E9F79F01241B350B082F10E01C875F
:103880000B87F801E15BF34F8081000F111F1A8352
:103890000983811109C080E690E00A5A1E4FD801C1
:1038A0008D939C9381E0808309811A810A5A1E4F6F
:1038B000D8018D909C9078EF7203C001739F900D9A
:1038C0001124C096881599050CF092C08A01262E05
:1038D000FA0101900020E9F79F01241B350B3C837E
:1038E0002B837401612C712C2B813C816216730631
:1038F0000CF064C03BE2E316F1040CF458C0F8018C
:10390000E60DF71D808180322CF0082E000C990BFB
:10391000809702C080E090E09C0163E0220F331F9B
:103920006A95E1F73E832D83412C512C97012A5F44
:103930003F4F3A872987ED81FE81E40DF51DEE5357
:10394000F44FE491670155E0A52EB12C2E2F30E005
:1039500038872F83342C320C38ECE316F104ACF4A6
:1039600080E3C816D1048CF08F8198850A2C02C0A0
:10397000959587950A94E2F780FF02C041E001C067
:1039800040E0632D8C2D0E94480A9FEFC91AD90A86
:10399000A1E0AA1AB10829853A85C216D306E1F634
:1039A0003FEF431A530A88E04816510421F69FEF6F
:1039B000691A790AA8E0EA0EF11C96CFE981FA812A
:1039C000EA5AFE4F31E0831A9108918280820E9468
:1039D00067212B853C85220F331F220F331F2F5B5E
:1039E000374FD9016D937D938D939C9313970CC0A2
:1039F0001082EB85FC85E15CF74F81E0808380E6F7
:103A000090E0F801918380832C960FB6F894DEBF86
:103A10000FBECDBFDF91CF911F910F91FF90EF901F
:103A2000DF90CF90BF90AF909F908F907F906F90DE
:103A30005F904F903F902F9008959F92AF92BF92CA
:103A4000CF92DF92EF92FF920F931F93CF93DF936A
:103A5000A22E2BE0429F600D711D11249CE0969FC9
:103A60006001979FD00C112400E010E097E0992EA0
:103A7000980EC8018C0D9D1DFC01E25DF64F7F0183
:103A8000C4E0D0E082E0B82EB00EF701A491B0E01F
:103A90000C2E02C0B595A7950A94E2F7A0FF05C0C9
:103AA0004A2D6B2D892D8C1B04C040E06B2D892D78
:103AB0008C1B0E94480A219740F70F5F1F4F0C3064
:103AC0001105B9F6DF91CF911F910F91FF90EF9003
:103AD000DF90CF90BF90AF909F900895EF92FF92AC
:103AE0000F931F93CF93DF937C018B01C3EDD9E03C
:103AF0008D819E810E94AF13B7018D819E810E94AE
:103B00001A2540E06EEB8D819E810E94D8248D8124
:103B10009E810E940026F80180838D819E810E94F3
:103B20000026F80181838D819E810E940026F80184
:103B300082838D819E810E940026F80183838D817E
:103B40009E810E940026F80184838D819E810E94BF
:103B50000026F80185838D819E810E940026F80150
:103B600086838D819E810E940026F80187838D8146
:103B70009E810E940026F80180878D819E81DF91C1
:103B8000CF911F910F91FF90EF900C94AF13CF93B3
:103B9000DF93EB010E946E1D68E0CE010E94CB24F2
:103BA00091E02885821390E0892FDF91CF910895CD
:103BB0004F925F926F927F928F929F92AF92BF923D
:103BC000CF92DF92EF92FF92CF93DF93CDB7DEB724
:103BD00029970FB6F894DEBF0FBECDBFBE016F5F51
:103BE0007F4F87E398E00E94C71D882309F48AC0AD
:103BF0008A8190E0982F88272981822B209137088D
:103C00002232B9F12832A9F1203109F081C0F884BB
:103C1000BC0175956795072E000C880B990B0E94C7
:103C2000C64C20E030E040E85EE30E9483464B0152
:103C30005C018F2D90E02F81821B9109BC01990FAF
:103C4000880B990B0E94C64C2B013C016F2D70E034
:103C500080E090E00E94C44C9B01AC01C301B20122
:103C60000E94F0469B01AC01C501B4010E9484464C
:103C700036C02D812F33B1F1A0F42F3109F048C0A7
:103C8000BC0123E0759567952A95E1F7072E000C96
:103C9000880B990B0E94C64C20E030E040E05FE3C7
:103CA0001CC02F3569F02F3799F5BC01990F880B8F
:103CB000990B0E94C64C20E030E040E85DE30DC067
:103CC000BC0175956795072E000C880B990B0E9417
:103CD000C64C20E030E040E05EE30E94254D6B01E1
:103CE0007C0116C0BC017595679575956795072E83
:103CF000000C880B990B0E94C64C20E030E040E895
:103D00005EE3EBCFC12CD12C8EEFE82E82ECF82EA7
:103D1000C701B60129960FB6F894DEBF0FBECDBF1E
:103D2000DF91CF91FF90EF90DF90CF90BF90AF9059
:103D30009F908F907F906F905F904F9008958091AB
:103D4000D8099091D9090E94AF1340E06CEC8091A2
:103D5000D8099091D9090E94D8244091D30964E4EC
:103D60008091D8099091D9090E94D8248091D509D1
:103D70008823E9F08091D4098A3049F08B3061F0D2
:103D8000893079F46EE570E080E090E00EC06CEB75
:103D900070E080E090E009C067E771E080E090E0CB
:103DA00004C06EEE72E080E090E00C942D21089546
:103DB000CF92DF92EF92FF920F931F93CF93DF93F7
:103DC0006C017A018B01C0E0D0E0CE15DF0589F0EF
:103DD000D8016D918D01D601ED91FC910190F0819A
:103DE000E02DC6010995892B11F47E0102C02196B0
:103DF000ECCFC701DF91CF911F910F91FF90EF9012
:103E0000DF90CF900895FC01918D828D981761F01D
:103E1000828DDF01A80FB11D5D968C91928D9F5F01
:103E20009F73928F90E008958FEF9FEF0895FC01AC
:103E3000918D828D981731F0828DE80FF11D858D5F
:103E400090E008958FEF9FEF0895FC01918D228DF2
:103E5000892F90E0805C9F4F821B91098F73992777
:103E6000089585E598E00E94251F21E0892B09F43B
:103E700020E0822F0895FC01848DDF01A80FB11D81
:103E8000A35ABF4F2C91848D90E001968F73992790
:103E9000848FA689B7892C93A089B1898C9180647D
:103EA0008C93938D848D981306C00288F389E02D3E
:103EB00080818F7D80830895EF92FF920F931F93EF
:103EC000CF93DF93EC0181E0888F9B8D8C8D9813CD
:103ED00005C0E889F989808185FD24C0F62E0B8D07
:103EE00010E00F5F1F4F0F731127E02E8C8DE8122B
:103EF0000CC00FB607FCFACFE889F989808185FFED
:103F0000F5CFCE010E943B1FF1CF8B8DFE01E80F54
:103F1000F11DE35AFF4FF0820B8FEA89FB89808104
:103F2000806207C0EE89FF896083E889F989808112
:103F30008064808381E090E0DF91CF911F910F91A9
:103F4000FF90EF900895CF93DF93EC01888D882345
:103F5000C9F0EA89FB89808185FD05C0A889B989F6
:103F60008C9186FD0FC00FB607FCF5CF808185FFD1
:103F7000F2CFA889B9898C9185FFEDCFCE010E943F
:103F80003B1FE7CFDF91CF91089580E090E0892B30
:103F900021F00E94311F81110DC080E090E0892B3B
:103FA00071F080E090E0892B51F00E9400008111B7
:103FB00004C008950E940000F0CF0C940000089502
:103FC00090E0FC013197EA30F10540F5E456FF4FEF
:103FD0000C943C46809180008F7703C080918000D4
:103FE0008F7D80938000089584B58F7702C084B55B
:103FF0008F7D84BD08958091B0008F7703C080913C
:10400000B0008F7D8093B0000895809190008F77ED
:1040100003C0809190008F7D8093900008953FB7FA
:10402000F8948091670C9091680CA091690CB09104
:104030006A0C26B5A89B05C02F3F19F00196A11D5B
:10404000B11D3FBFBA2FA92F982F8827820F911D2E
:10405000A11DB11DBC01CD0142E0660F771F881F75
:10406000991F4A95D1F70895089508950E94A2478F
:104070001F920F920FB60F9211240BB60F922F932F
:104080003F934F935F936F937F938F939F93AF93E0
:10409000BF93EF93FF9385E598E00E943B1FFF914C
:1040A000EF91BF91AF919F918F917F916F915F91B0
:1040B0004F913F912F910F900BBE0F900FBE0F901D
:1040C0001F9018951F920F920FB60F9211240BB6E6
:1040D0000F922F938F939F93EF93FF93E091650837
:1040E000F09166088081E0916B08F0916C0882FD88
:1040F00012C0908180916E088F5F8F7320916F083E
:10410000821751F0E0916E08F0E0EB5AF74F958F6F
:1041100080936E0801C08081FF91EF919F918F91F4
:104120002F910F900BBE0F900FBE0F901F90189500
:10413000CF93DF93282F30E0F901E05EFF4E8491AA
:10414000F901E451F14FD491F901E453F14FC491D5
:10415000CC2391F081110E94E01FEC2FF0E0EE0FD4
:10416000FF1FEE53F14FA591B491EC91ED2381E047
:1041700090E021F480E002C080E090E0DF91CF91F8
:1041800008951F93CF93DF93282F30E0F901E05E6D
:10419000FF4E8491F901E451F14FD491F901E453B8
:1041A000F14FC491CC23C9F0162F81110E94E01F5A
:1041B000EC2FF0E0EE0FFF1FEA5EFF4EA591B491E9
:1041C0008FB7F894111105C09C91ED2FE095E9236C
:1041D00002C0EC91ED2BEC938FBFDF91CF911F913B
:1041E0000895CF93DF9390E0FC01E451F14F2491C7
:1041F000FC01E453F14F8491882361F190E0880F32
:10420000991FFC01E45FFF4EC591D491FC01EA5E69
:10421000FF4EA591B491611109C09FB7F8948881B0
:10422000209582238883EC912E230BC0623061F4A9
:104230009FB7F8943881822F809583238883EC91EF
:104240002E2B2C939FBF06C08FB7F894E8812E2B9E
:1042500028838FBFDF91CF9108958F929F92AF9265
:10426000BF92CF92DF92EF92FF926B017C010E948E
:104270000F204B015C01C114D104E104F104F1F001
:104280000E940F20DC01CB0188199909AA09BB09FA
:10429000883E9340A105B10570F321E0C21AD10810
:1042A000E108F10888EE880E83E0981EA11CB11C7D
:1042B000C114D104E104F10419F7DDCFFF90EF90B0
:1042C000DF90CF90BF90AF909F908F9008952FB7C1
:1042D000F8946091630C7091640C8091650C9091DE
:1042E000660C2FBF08951F920F920FB60F921124E4
:1042F0002F933F938F939F93AF93BF938091630CC2
:104300009091640CA091650CB091660C3091620C98
:1043100023E0230F2D3720F40196A11DB11D05C008
:1043200026E8230F0296A11DB11D2093620C8093F5
:10433000630C9093640CA093650CB093660C809111
:10434000670C9091680CA091690CB0916A0C019671
:10435000A11DB11D8093670C9093680CA093690C0C
:10436000B0936A0CBF91AF919F918F913F912F9124
:104370000F900FBE0F901F901895813039F020F0EC
:10438000823029F4EA9803C0E89801C0E998E82F40
:10439000F0E0EE0FFF1FE45AFE4F84E390E29183BA
:1043A000808308951F920F920FB60F9211240BB6BF
:1043B0000F922F933F934F935F936F937F938F93BE
:1043C0009F93AF93BF93EF93FF93E0916001F091C0
:1043D00061010995FF91EF91BF91AF919F918F91ED
:1043E0007F916F915F914F913F912F910F900BBEF5
:1043F0000F900FBE0F901F9018951F920F920FB63F
:104400000F9211240BB60F922F933F934F935F930C
:104410006F937F938F939F93AF93BF93EF93FF938C
:10442000E0915E01F0915F010995FF91EF91BF91DD
:10443000AF919F918F917F916F915F914F913F913C
:104440002F910F900BBE0F900FBE0F901F901895DD
:104450001F920F920FB60F9211240BB60F922F934B
:104460003F934F935F936F937F938F939F93AF93FC
:10447000BF93EF93FF93E0915C01F0915D0109958B
:10448000FF91EF91BF91AF919F918F917F916F912C
:104490005F914F913F912F910F900BBE0F900FBEE8
:1044A0000F901F9018950F931F93CF93DF938C015C
:1044B000EB014CE050E00E94FE4DBE01645F7F4F77
:1044C0004CE050E0C8010C96DF91CF911F910F9105
:1044D0000C94FE4D1F920F920FB60F9211240BB643
:1044E0000F922F933F934F935F936F937F938F938D
:1044F0009F93AF93BF93EF93FF93809105090E9421
:10450000982020910809309109092F5F3F4F30937F
:104510000909209308099091D209943618F095E082
:1045200090930609909106099330B9F018F49230EF
:1045300039F057C0943059F1953009F44CC051C04E
:1045400081114FC0209108093091090924363105A5
:1045500008F443C01092D2091CC0813009F041C058
:10456000E091D20991E09E0F9093D209F0E0209162
:10457000080930910909EE0FFF1FEB5FF64F3683F4
:104580002583109209091092080994E021C0811135
:1045900017C0E091D20991E09E0F9093D209F0E00C
:1045A0002091080930910909EE0FFF1FEB5FF64FCC
:1045B00036832583109209091092080993E008C0F8
:1045C00020910809309109092536310550F095E010
:1045D0009093060906C0811104C010920909109237
:1045E000080990910709992329F0811102C02D9A99
:1045F00001C02D98FF91EF91BF91AF919F918F9145
:104600007F916F915F914F913F912F910F900BBED2
:104610000F900FBE0F901F901895CF92DF92EF92E0
:10462000FF92CF93DF93EC01072E000C880B990BC0
:104630000E94C64C6B017C0120E030E040E45FE367
:104640000E94254D20E030E048E452E40E94F0460C
:104650000E946247C617D707D4F020E030E040EA56
:104660005FE3C701B6010E94254D20E030E048E439
:1046700052E40E94F04620E030E040E85FE30E9410
:1046800084460E94624721E06C177D070CF420E00D
:10469000822F90E0DF91CF91FF90EF90DF90CF904D
:1046A00008950F931F93CF93DF931F92CDB7DEB77B
:1046B000182F2CB521602CBD60E080915A019983A0
:1046C0000E94C12099819EBD0DB407FEFDCF8EB51D
:1046D000282F30E0322F22271EBD0DB407FEFDCF5C
:1046E0008EB58901082B61E080915A010E94C1209A
:1046F0008CB58E7F8CBDC8010F90DF91CF911F913B
:104700000F91089580915B0196EF980F923010F011
:10471000823099F520914B08222341F1823019F023
:10472000933058F5892FE82FF0E0EE0FFF1FE45A81
:10473000FE4F26ED33E231832083813049F0823011
:1047400071F0809169008C7F80936900E89A0895E8
:1047500080916900837F80936900E99A0895809130
:1047600069008F7C80936900EA9A0895823019F07D
:10477000933018F4892F0C94BD2108958627682F53
:1047800062956827062E669566956025062E6695C5
:1047900060256770082E892F669507946795902D80
:1047A000862706946795902586270895CF9380E005
:1047B00090E00E94512380914908853009F094C00F
:1047C0008091600C9091610C892B91F080915F0C2D
:1047D00084FD0EC085E880937A0080915F0C8F7015
:1047E000806480937C0080917A00806480937A005A
:1047F00080E090EB0E945123682F8091600C909193
:10480000610C892B69F080915F0C84FD09C0809157
:104810007A0086FDFCCF90917A00906490937A00A4
:104820008091880C81110EC080914A08882351F034
:10483000E091880C91E09E0F9093880CF0E0EE538D
:10484000F44F8083E091880C81E08E0F8093880C78
:10485000F0E0EE53F44F60838091860C9091870CCA
:104860000E94BE239093870C8093860C8091600CED
:104870009091610C892B39F180915F0C84FD23C0EC
:104880008091830C8138F8F480917A0086FDFCCF0A
:10489000809178002091790090E0922B9C012C531C
:1048A00031092F35314078F42091840C3091850CFA
:1048B000820F931F9093850C8093840C8091830CBE
:1048C0008F5F8093830C8091C50B2091880C90E0C2
:1048D000059630E0821793070CF456C08091880C3F
:1048E000863808F051C055C08091490887FF1BC029
:1048F000E091C50B8091490891E0980F9093490889
:10490000EC5F8E0FE82FF0E0EE53F44FC081809102
:10491000860C9091870C6C2F0E94BE239093870C7D
:104920008093860C2DC08091490891E0980F909358
:1049300049088330F1F054F48823A9F08130E9F478
:104940008091860C9091870CC92F1AC08930B9F0DC
:104950008A3099F4C0914A089091C50B8DEF891B5C
:10496000809349080DC08091860C9091870CC82FC8
:1049700007C08DE092E80E945123CAEA01C0CDE24F
:104980008C2F90E0985402C08DE092E8CF910C9467
:104990005123CF910895DC01E0E0615038F08D9112
:1049A000E827F0E0E45FF04FE491F7CF8E2F089511
:1049B000CF92DF92EF92FF920F931F93CF93DF93EB
:1049C0001F92CDB7DEB76C01E62E08E010E0FF24A1
:1049D000F39461E08F2D8E2109F460E0C6014983D4
:1049E0000E948013FF0C0150110949810115110526
:1049F00081F7411115C0F894D6011196ED91FC9103
:104A0000129791818C918095892381831196ED91E4
:104A1000FC91129792818C9180958923828378945E
:104A20000F90DF91CF911F910F91FF90EF90DF904A
:104A3000CF900895CF92DF92EF92FF920F931F9342
:104A4000CF93DF931F92CDB7DEB78C01F62E40E0F7
:104A500065E579830E94D824CF2C7981D72E760101
:104A600088E0E80EF11CF60161916F0140E0C80199
:104A70000E94D824CE14DF04B1F70F90DF91CF91BC
:104A80001F910F91FF90EF90DF90CF900895FC0160
:104A900090810180F281E02DF8948181892B8183BE
:104AA0002281892F809528232283A7E0B0E01197E7
:104AB000F1F7218182238183A3E2B0E01197F1F71E
:104AC00080817894EFECF0E03197F1F7982381E062
:104AD00009F480E00895AF92BF92CF92DF92EF92F7
:104AE000FF920F931F93CF93DF931F92CDB7DEB743
:104AF0005C01E62ED72EFC01858581115DC0C501C4
:104B00000E94AF13811105C0F50113861586148626
:104B10006BC040E060EFC5010E94D82401E0F12C99
:104B2000C12C11E0C5010E944725682FC50169838A
:104B30000E9447256981613019F48130B9F433C08E
:104B40004F2D50E068131BC0F5018385181730F412
:104B5000E40FF51F8381802349F402C0181731F058
:104B600060E0193058F4F501148708C0F501EF0D25
:104B7000F11D8381802B838361E009C0C12EF50183
:104B8000E40FF51F9381802F809589238383C501CE
:104B90000E9480131F5F000F11F4F39401E0F7E00F
:104BA000FF1508F0BFCF113438F0F501C386C110EE
:104BB00015C081E0858712C0F5011386158614861D
:104BC00080E0D5011396EE2DFD2D9501255F3F4F19
:104BD0009D919193A217B307D9F706C0F501838180
:104BE000882351F381E0EDCF0F90DF91CF911F919A
:104BF0000F91FF90EF90DF90CF90BF90AF9008950E
:104C0000EF92FF920F931F93CF93DF937C0108E005
:104C100010E0C0E0D1E0C7010E9447258111CD2BF3
:104C2000DD0F01501109B9F78C2FDF91CF911F9142
:104C30000F91FF90EF900895CF93DF931F92CDB720
:104C4000DEB769832091BB0C2223D1F02091F508B7
:104C5000203240F021E030E0FC013383228380E009
:104C600090E015C08091F608E82FF0E0E454F34F8F
:104C7000998190838F5F8093F6088093F50805C033
:104C800061E0CE0101960E94231981E090E00F902F
:104C9000DF91CF910895CF92DF92EF92FF920F9321
:104CA0001F93CF93DF93CDB7DEB728970FB6F89455
:104CB000DEBF0FBECDBF1091BC050E946721C09022
:104CC000B505D090B605E090B705F090B805DC01C9
:104CD000CB018C199D09AE09BF09853F9140A10503
:104CE000B10598F00E9467216093B5057093B605F1
:104CF0008093B7059093B8058091B405811103C0E6
:104D00001093B40502C01092B405E091B0058E2F47
:104D100090E0FC013197E930F10508F0E9C1EA556E
:104D2000FF4F0C943C46012F21E030E046E754E071
:104D300060E070E080E090E00E94E30A8091820CE5
:104D40000091B40521E030E0882319F04FE754E0EA
:104D500044C049E854E041C0012F21E030E042E97D
:104D600054E060E070E080E090E00E94E30A80910F
:104D7000A105823009F160F48823B9F0813009F08F
:104D8000B7C10091B40521E030E040EA54E025C00D
:104D9000843031F1E0F0853009F0AAC10091B4050A
:104DA00021E030E046EB54E09DC10091B40521E0E4
:104DB00030E04BE954E011C00091B40521E030E04F
:104DC00046EA54E068E070E088E090E08FC100912E
:104DD000B40521E030E04AEA54E068E070E034C114
:104DE0000091B40521E030E041EB54E0B6C0012F62
:104DF00021E030E04EEB54E060E070E081E090E0D4
:104E00000E94E30A8091810C1F928F9384EC94E0BE
:104E10009F938F931F9288E08F93CE0101967C0120
:104E20009F938F930E94AE470091B40521E030E03C
:104E3000A70168E070E081E090E0D6C0012F21E09A
:104E400030E04DE853E060E070E080E090E00E94E8
:104E5000E30A21E030E04BEC54E068E070E080E0F1
:104E600090E00E94E30A80917A0C0091B40521E061
:104E700030E0882319F045EE54E002C049EC53E0DD
:104E800068E070E088E290E031C1E091B1058E2FDA
:104E900090E08830910508F02BC1FC01E155FF4FEF
:104EA0000C943C46012F21E030E042ED54E060E0FC
:104EB00070E08AE090E00E94E30A21E030E04DE6F5
:104EC00053E010C1012F21E030E048ED54E060E0F4
:104ED00070E081E090E00E94E30A8091CC050091AF
:104EE000B40521E030E0882319F040EE54E002C020
:104EF00043EE54E068E070E08FE090E0F7C080910E
:104F0000CC05811104C087E08093B105F1C0012F69
:104F100021E030E047EE54E060E070E081E090E0B6
:104F20000E94E30A80919E05813051F080F082302A
:104F300071F40091B40521E030E04DEF54E00DC074
:104F40000091B40521E030E045EF54E006C0009147
:104F5000B40521E030E04DEE54E068E070E085E01B
:104F600090E0C4C0012F21E030E045E055E060E072
:104F700070E085E090E00E94E30A80919C051BC0F0
:104F8000012F21E030E040E155E060E070E081E099
:104F900090E00E94E30A80919D050DC0012F21E061
:104FA00030E048E155E060E070E081E090E00E9490
:104FB000E30A8091790C1F928F938AE095E09F938A
:104FC0008F931F9288E08F93CE0101967C019F936F
:104FD0008F930E94AE470091B40521E030E0A70115
:104FE00068E070E08FE090E00E94E30A0FB6F8946A
:104FF000DEBF0FBECDBF7CC0012F21E030E04FE10E
:1050000055E060E070E081E090E00E94E30A80916A
:10501000780C882339F00091800C21E030E04FE3D8
:1050200055E006C00091B40521E030E041EE54E0C7
:1050300068E070E084E190E059C0012F21E030E0A9
:105040004FEA53E060E070E081E090E04FC0012F54
:1050500021E030E047E255E060E070E082E090E07F
:105060000E94E30A8091C9051BC0012F21E030E0B6
:105070004BE255E060E070E082E090E00E94E30ADD
:105080008091CB050DC0012F21E030E04FE255E0CB
:1050900060E070E080E090E00E94E30A8091A0056B
:1050A0000091B40521E030E0882319F040EE54E08F
:1050B00002C043EE54E068E070E08AE090E016C081
:1050C0000091B40521E030E049E355E060E070E094
:1050D00082E090E00E94E30A0091B40521E030E014
:1050E00041E455E068E070E080E090E00E94E30A6F
:1050F00028960FB6F894DEBF0FBECDBFDF91CF91DB
:105100001F910F91FF90EF90DF90CF9008950F9334
:105110000E94E60981E0809362011092770C109260
:10512000760C1092750C1092740C1092730C1092F5
:10513000720C1092710C0091BC0522E030E04AE440
:1051400055E060E070E080E090E00E94E30AE091CA
:105150000E0AF0E0EE0FFF1FE65AFD4F408151812D
:105160000091BC0522E030E068E070E080E090E073
:105170000E94E30A0F9108950C94084E0C94F64D8A
:10518000CF92DF92EF92FF920F931F93CF93DF9313
:10519000CDB7DEB72A970FB6F894DEBF0FBECDBFEE
:1051A0009091770C992309F4C2C0182F0E946721AF
:1051B000C090B505D090B605E090B705F090B80561
:1051C000DC01CB018C199D09AE09BF09853F9140D7
:1051D000A105B105B8F00E9467216093B5057093F1
:1051E000B6058093B7059093B8058091BA058823DA
:1051F00021F080917F0C811103C010937F0C02C0BD
:1052000010927F0C8091730C882341F080917F0C69
:105210008093700C10937E0C10937D0C8091720C17
:10522000882341F01093700C80917F0C80937E0C4A
:1052300010937D0C8091710C882341F01093700CB9
:1052400010937E0C80917F0C80937D0C0E940C1437
:105250000E94621A0E941217E0915308F0E0EE0FCC
:10526000FF1FE956FF4E6591749182EA95E00E9416
:105270000B4B82EA95E09F938F9381E693E09F9397
:105280008F931F921AE01F93CE0101967C019F938A
:105290008F930E94AE470091700C22E030E0A7018E
:1052A00060E070E080E090E00E94E30A0E940C144D
:1052B0000E94621A0E941217809152081F928F93C7
:1052C00093E5C92E95E0D92EDF92CF921F921F93BE
:1052D000FF92EF920E94AE4700917E0C22E030E0F8
:1052E000A70168E070E080E090E00E94E30A0E947D
:1052F0000C140E94621A0E9436179F938F93DF92BC
:10530000CF921F921F93FF92EF920E94AE4700919F
:105310007D0C21E030E0A70168E070E084E190E0DE
:105320000E94E30A0FB6F894DEBF0FBECDBF2A96E7
:105330000FB6F894DEBF0FBECDBFDF91CF911F91A6
:105340000F91FF90EF90DF90CF900895FF920F9311
:105350001F93CF93DF9300D0CDB7DEB7F82E8091A7
:105360006F0C882309F454C00E9467210091B50591
:105370001091B6052091B7053091B805DC01CB013D
:10538000801B910BA20BB30B853F9140A105B1058A
:1053900008F444C00E9467216093B5057093B60578
:1053A0008093B7059093B8058091760C882369F0B7
:1053B0008091800C811103C0F092800C02C0109289
:1053C000800CF0927C0CF0926E0C8091750C88230E
:1053D00069F080917C0C811103C0F0927C0C02C0BA
:1053E00010927C0CF092800CF0926E0C8091740CF8
:1053F0008823A1F080916E0C811103C0F0926E0C95
:1054000002C010926E0CF0927C0CF092800C06C0E0
:10541000F092800CF0927C0CF0926E0C8091820CD9
:10542000882309F444C00E940C140E94621A0E944E
:10543000121720915008222331F0822F90E02D3056
:1054400020F00C9702C08CE090E080937B0C0E94CF
:105450000C140E94621A0E9412178091500890E06A
:105460000C971CF44091800C01C040E061E080E0AA
:105470000E94480A80917B0C2AE0622F0E94084615
:105480000E940846911106C020E04091810C61E025
:1054900070E006C0692F70E02091800C4091810C73
:1054A0008EEF9FEF0E941D1DE2E0F0E01CC00E9405
:1054B0000C140E94621A0E94121780915008809367
:1054C0007B0C2AE0622F0E9408460E940846692F42
:1054D00070E02091800C4091810C80E090E00E946F
:1054E0001D1DE0E0F0E080917B0C6AE00E94084620
:1054F000692F70E02091800C4091810C86E090E053
:105500008E1B9F0B0E941D1D6F2D8FE00E94932DFF
:1055100020917C0C4091810C29834A830E9446177C
:105520000AE010E0B8010E942846CB01B8010E94B1
:10553000284629814A81BC018FE090E00E941D1D10
:1055400020917C0C4091810C29834A830E9446174C
:10555000B8010E94284629814A81BC0186E190E079
:105560000E941D1D6F2D80E20E94932D20916E0CD4
:105570004091810C29834A830E943E17B8010E9402
:105580002846CB01B8010E94284629814A81BC01E6
:1055900080E290E00E941D1D20916E0C4091810CD4
:1055A00029834A830E943E17B8010E942846298118
:1055B0004A81BC0187E290E00F900F90DF91CF917C
:1055C0001F910F91FF900C941D1D80916D0C8823ED
:1055D00059F098E088E10FB6F894A89580936000A0
:1055E0000FBE90936000FFCF1092CA0510926F0C0F
:1055F0001092770C10926C0C1092AC051092B905B9
:105600001092BA051092760C1092750C1092730CD1
:105610001092720C1092710C10926B0C1092C105CA
:105620001092AF051092B0051092B1051092B2051C
:105630001092B30581E0809362011092BB050C9437
:10564000E609CF93DF93CDB7DEB729970FB6F8946D
:10565000DEBF0FBECDBFFC0120812031D9F0BE01DD
:105660006F5F7F4F0E94C71D882381F08D818F332C
:1056700059F018F48F3171F009C08F3519F08F3758
:1056800039F004C08BE007C08AE005C080E003C0A9
:105690008CE001C089E029960FB6F894DEBF0FBEFA
:1056A000CDBFDF91CF9108950F931F93CF93DF93D9
:1056B000CDB7DEB761970FB6F894DEBF0FBECDBF92
:1056C000E091D809F091D909138615861486DF0177
:1056D0001B9633961E92AE17BF07E1F71092D709BB
:1056E00011E0BE01665F7F4F8091D8099091D90982
:1056F0000E946B25882309F453C067E0CE010A9607
:105700000E94CB2499898913ECCF8091D309811110
:1057100026C08091D8099091D9090E94AF13BE018B
:10572000665F7F4F8091D8099091D9090E941A2510
:1057300040E064EB8091D8099091D9090E94D82467
:105740008091D8099091D9090E944725082F80910E
:10575000D8099091D9090E94AF130023F1F0BE013E
:105760006F5F7F4FCE010A960E946E1D0091D40993
:10577000CE010A960E94212B801718F48091D4093B
:1057800004C0CE010A960E94212B8093D4098091F7
:10579000D7098F5F8093D709A4CF1093D309DFCFA8
:1057A00061960FB6F894DEBF0FBECDBFDF91CF91EB
:1057B0001F910F910895382F2091F5089091DC0CDE
:1057C000213208F049C08091F4088111FCCF42E0F9
:1057D0004093F4083093F3083FEF3093BA0C1092E3
:1057E000B90C2093B80CACEBBCE048E95CE0FA01E2
:1057F0003E2F341B321718F43D913193F9CF10929C
:10580000970C2091970C990F922B9093970C909155
:10581000F208913061F41092F2089091970C9093F5
:10582000BB009091BC0093FDF8CF95EC01C095EEC4
:105830009093BC009091F4089230E1F39091BA0CEF
:105840009F3F79F08091BA0C803241F08091BA0C80
:10585000803331F084E005C081E003C082E001C004
:1058600083E01092F6081092F5081092BB0C089590
:105870008F929F92AF92BF92CF92DF92EF92FF9260
:105880000F931F93CF93DF93FC01C081D1812091AF
:10589000950C3091960CC217D3070CF04BC09E01AB
:1058A000220F331FE091930CF091940CE20FF31F41
:1058B00080809180C170DD27F1E0CF27209719F417
:1058C00004E610E002C00CE91FEF7A015B016C01F5
:1058D000040F151FB801C4010E940D23892B99F4F0
:1058E0000E0D1F1DB801C4010E940D23892B71F4F8
:1058F000B8016E0D7F1DC4010E940D23892BE9F0B4
:1059000023E030E005C021E030E002C022E030E0DA
:10591000F501808191810196821793073CF0F50192
:1059200011821082F601808191810196918380839A
:10593000CE0105C081E090E002C08FEF9FEFDF91C4
:10594000CF911F910F91FF90EF90DF90CF90BF907C
:10595000AF909F908F9008958F929F92AF92BF9239
:105960000F931F93CF93DF93CDB7DEB7A1970FB6F9
:10597000F894DEBF0FBECDBF19A2423008F44AE052
:105980008E010F5D1F4F842E912CA12CB12CA501EF
:1059900094010E94484EE62FB901CA010150110935
:1059A000EA3014F4E05D01C0E95CD801EC93232BEC
:1059B000242B252B61F7C8010E94BA1BA1960FB6B4
:1059C000F894DEBF0FBECDBFDF91CF911F910F9135
:1059D000BF90AF909F908F900895E0915508F091FF
:1059E00056080190F081E02D682F85E598E0099434
:1059F000CF92DF92EF92FF92CF93DF936C01990FDA
:105A0000EE08FF08F7FE17C08DE20E94ED2CEC01B6
:105A100066277727CB016C197D098E099F094AE01B
:105A20000E94AC2C8C0F9D1FDF91CF91FF90EF90C7
:105A3000DF90CF9008954AE0C701B601DF91CF9182
:105A4000FF90EF90DF90CF900C94AC2C80914908A0
:105A5000853031F58091C50B2091880C90E005963A
:105A600030E08217930724F08091880C8638C0F0CC
:105A700084E0809349088091C50B813830F081E043
:105A800090E09093870C8093860C8091C30B8F7766
:105A900071F18091C30B8F7790914B08891739F181
:105AA00080914908843009F51092C50B1092880C3A
:105AB0008FEF9FEF9093870C8093860C60914A083C
:105AC000662331F00E94BE239093870C8093860C4E
:105AD0001092850C1092840C1092830C85E08093B8
