:100000000C9479080C94D7290C94AC290C94812970
:100010000C94A3080C94A3080C94A3080C94A308B4
:100020000C94A3080C94192A0C94A3080C94A3080C
:100030000C94A3080C94A3080C94A3080C94A30894
:100040000C94A3080C94A3080C9422290C94A308E4
:100050000C9411280C94E7270C94A3080C94A30883
:100060000C94A3080C94A3080C94B4130C94A30848
:100070000C94A3080C94A3080C94A3080C94A30854
:100080000C94A3080C94A3080C94A308C135DF3585
:10009000FA35153630364B3666368A36603C7A3C51
:1000A0008F3CAA3CB53CF33CFA3C043D0F3D1F3D60
:1000B0001F3D1F3D1F3D1F3D1F3D1F3D1F3D1F3D60
:1000C0001F3D1F3D1F3D1F3D1F3D1F3D1F3D1F3D50
:1000D0001F3D1F3D1F3D1F3D1F3D1F3D603C753CAB
:1000E0007A3C8F3CAA3CB53CD03CDB3CE63C730BF5
:1000F000A10BC70BE90B010C110C1F0CD10DEA0D64
:10010000010E040E1D0E400E550E040F130F440F6A
:10011000620F790F0D101E1035105110910FA60FA0
:10012000BC0FD30FEA0F01100A108C119611B211F7
:10013000BA11C211C611CA11CE11DF112E15471501
:100140009215B915E015C216D016DE16FB16ED1580
:10015000FD151A164D165B1669169716B816AF26BA
:10016000B226A526A926C926C926B626BA26C0269D
:10017000C426556E61626C6520746F2066696E647A
:10018000206164647265737320666F72204453311A
:1001900038423230004F4646004F4E00445331380B
:1001A00042323020706172617369746520706F77BC
:1001B00065722069733A200052464D313242204424
:1001C0006574656374696F6E204641494C2120282F
:1001D000697320636869702070726573656E743F1F
:1001E000290052464D31324220446574656374657E
:1001F00064204F4B21005254432068617320736583
:1002000074207468652073797374656D2074696DEA
:100210006500556E61626C6520746F2073796E6342
:1002200020776974682074686520525443004572D1
:10023000724A616E4665624D61724170724D6179BC
:100240004A756E4A756C4175675365704F63744E9D
:100250006F76446563005600426174746572793A42
:1002600000526563656976696E6720446174612E2A
:100270002E2E000000000000000000000808080802
:1002800000080000361224000000000000143E1494
:100290003E140000081E281C0A3C000000323408EE
:1002A0001626000000182418261E0000181810003A
:1002B00000000000081010101008000010080808C6
:1002C0000810000000082A082A0800000008083E5C
:1002D0000808000000000000180810000000003EA0
:1002E00000000000000000000C0C000000020408E8
:1002F000102000000C121212120C0000040C040456
:10030000040E00000C120204081E00001E020C0263
:10031000120C000012121E02020200001E101C022B
:10032000120C00000C101C12120C00001E0204081B
:10033000080800000C120C12120C00000C120E0225
:10034000120C0000000C0C000C0C0000000C0C0047
:100350000C040800000408100804000000003E001F
:100360003E00000000100804081000001C220408D1
:10037000000800001C262A2E201E00001C22223EFF
:10038000222200003C223C22223C00001C22202091
:10039000221C00003C222222223C00003E203C2065
:1003A000203E00003E203C20202000001C20202673
:1003B000221E000022223E22222200001C080808E1
:1003C000081C00003E020202221C000022243838D1
:1003D0002422000020202020203E000022362A2255
:1003E0002222000022322A26222200001C2222225F
:1003F000221C00003C223C20202000001824242441
:100400002C1A00003C223C22222200001E201C024A
:10041000221C00003E0808080808000022222222B0
:10042000221C000022222214140800002222222A68
:100430002A140000221408081422000022221408A2
:10044000080800003E040810203E00001C10101098
:10045000101C000020100804020000001C0404040A
:10046000041C00000814220000000000000000002E
:10047000003E00000804000000000000001C021EF6
:10048000223E000020203C22223C0000001C2020B4
:10049000201C000002021E22221E0000001C223E20
:1004A000201C00000E10103C10100000001E223E08
:1004B00002021C0020203C22222200000800180812
:1004C000081C000008001E0202221C002020243804
:1004D0002422000018080808081C000000342A2AFA
:1004E0002A2A0000002C322222220000001C222294
:1004F000221C0000003C223C20202000001C241C68
:1005000004040600002E302020200000001E201CC5
:10051000023C0000083E08080806000000222222D3
:10052000221E000000222222140800000022222A9B
:100530002A14000000221408142200000022221EA7
:1005400002041800003E0408103E000004080810D1
:100550000808040008080808080800001008080433
:100560000808100000102A040000000010281000E5
:10057000000000000000000000000000040404046B
:10058000000400000505000000000000000C0F0C36
:100590000F0C000004060C06060C040000323408A0
:1005A0001626000000182418261E00001818100037
:1005B00000000000081010101008000010080808C3
:1005C0000810000000082A082A0800000008083E59
:1005D0000808000000000000180810000000003E9D
:1005E00000000000000000000200000000020408FB
:1005F00010200000020505050200000002060202AC
:1006000007000000060102040700000007010601C0
:1006100006000000050507010100000007040701AE
:1006200006000000030407050200000007010204A1
:100630000400000007050705070000000705070183
:100640000600000000020002000000000006060094
:10065000060204000001020402010000000007007D
:100660000700000000040201020400000601020469
:100670000004000006090B0B080600000205050730
:100680000505000006050605050600000205040430
:10069000050200000605050505060000070406041E
:1006A0000407000007040604040400000304040512
:1006B0000503000005050705050500000702020205
:1006C00002070000070101010502000005050606FA
:1006D00005050000040404040407000005070705DD
:1006E00005050000050705050505000002050505CF
:1006F00005020000060506040404000002050505C5
:1007000007030000060506050505000003040201B5
:1007100005020000070202020202000005050505AD
:10072000050700000505050505020000050505058E
:100730000707000005050202050500000505050282
:10074000020200000701020404070000060404047A
:10075000040600000404020101000000030202027A
:100760000203000002050500000000000000000078
:100770000007000002010000000000000006010761
:100780000507000004040705050700000003040432
:10079000040300000101070505070000000204072B
:1007A0000403000003020207020200000003050721
:1007B0000101060004040705050500000200060209
:1007C0000207000001000701010502000004050600
:1007D00005050000060202020207000000060707E6
:1007E00005050000000605050505000000020505D9
:1007F00005020000000605060404040000030507C6
:1008000001010100000304040404000000030402C9
:1008100001060000020702020201000000050505B2
:10082000050300000005050505020000000505059B
:100830000707000000050502050500000005050783
:100840000101060000070102040700000102020482
:10085000020201000202020202020000040202017E
:100860000202040000040B01000000446973706C74
:100870006179204F7074696F6E73204D656E7500DD
:10088000446973706C61792053797374656D204D80
:10089000656E7500446973706C617920446174659C
:1008A0002F54696D65204D656E75005345543A208F
:1008B00054696D657A6F6E65005363726F6C6C205E
:1008C00054656D70005363726F6C6C204461746585
:1008D00000456E746572205363726F6C6C205375A3
:1008E000626D656E750057726974696E6720496E36
:1008F000697469616C2073657474696E67732074C0
:100900006F20454550524F4D21212100536574748D
:10091000696E672053797374656D000E1F1313138E
:1009200013131313131F0E060E1E060606060606E5
:10093000061F1F1E1F030303060C1818181F1F1E77
:100940001F0303030E0E0303031F1E181818181BA2
:100950001F1F03030303031F1F1818181E1F030381
:10096000031F1E0E1F1818181E1F1313131F0E1F10
:100970001F030303060C18181818180E1F1313135F
:100980000E0E1313131F0E0E1F1313131F0F03034B
:10099000031F0E0000000000000000000000001F08
:1009A0001F1B1B1B1B1B1B1B1B1F1F0C0C0C0C0CD6
:1009B0000C0C0C0C0C0C0C1F1F0303031F1F18182E
:1009C000181F1F1F1F0303031F1F0303031F1F1BEA
:1009D0001B1B1B1B1F1F03030303031F1F181818D8
:1009E0001F1F0303031F1F1F1F1818181F1F1B1B88
:1009F0001B1F1F1F1F030303030303030303031F23
:100A00001F1B1B1B1F1F1B1B1B1F1F1F1F1B1B1B1A
:100A10001F1F0303031F1F00000000000000000051
:100A20000000000E1F1B1B1B1B1B1B1B1B1F0E0292
:100A3000060E060606060606061F1F0E1F03030304
:100A4000060C1818181F1F0E1F0303030E0E0303B6
:100A5000031F0E030306060C0C1B1F030303031FD7
:100A60001F1818181E0F0303031F0E0E1F18181847
:100A70001E1F1B1B1B1F0E1F1F030303060C181832
:100A80001818180E1F1B1B1B0E0E1B1B1B1F0E0EF8
:100A90001F1B1B1B1F0F0303031F0E000000000082
:100AA000000000000000001F11111111111111119F
:100AB00011111F0404040404040404040404041FA6
:100AC000010101011F10101010101F1F0101010171
:100AD0001F01010101011F11111111111F0101015C
:100AE0000101011F101010101F01010101011F1F42
:100AF000101010101F11111111111F1F0101010100
:100B0000010101010101011F111111111F11111129
:100B100011111F1F111111111F01010101011F00EE
:100B200000000000000000000000000E1111111173
:100B30001111111111110E040C0404040404040415
:100B400004041F0E110101010204081010101F0EF1
:100B5000110101010E01010101110E1111111111FB
:100B60001F0101010101011F101010101E010101E0
:100B700001110E0E111010101E11111111110E1F66
:100B800001010101020408101010100E11111111C1
:100B90000E11111111110E0E111111110F01010180
:100BA00001110E0000000000000000000000000025
:100BB000000000000000000008080808000800000D
:100BC000361224000000000000143E143E14000001
:100BD000081E281C0A3C00000032340816260000BB
:100BE00000182418261E000018181000000000002D
:100BF0000810101010080000100808080810000065
:100C000000082A082A0800000008083E080800001A
:100C100000000000180810000000003E0000000066
:100C2000000000000C0C000000020408102000006E
:100C30001C262626261C00000C1C0C0C0C1E00007A
:100C40001C260C18303E00003E061C06261C000028
:100C500026263E06060600003E303C06261C000006
:100C60001C203C26261C00003E060C18181800000C
:100C70001C261C26261C00001C261E06261C000006
:100C8000000C0C000C0C0000000C0C000C04080004
:100C9000000408100804000000003E003E000000B0
:100CA00000100804081000001C22040800080000BE
:100CB0001C262A2E201E00001C22223E222200007A
:100CC0003C223C22223C00001C222020221C00004E
:100CD0003C222222223C00003E203C20203E0000FC
:100CE0003E203C20202000001C202026221E000048
:100CF00022223E22222200001C080808081C0000B4
:100D00003E020202221C0000222438382422000065
:100D100020202020203E000022362A22222200000D
:100D200022322A26222200001C222222221C00001B
:100D30003C223C2020200000182424242C1A0000EF
:100D40003C223C22222200001E201C02221C000009
:100D50003E0808080808000022222222221C000067
:100D600022222214140800002222222A2A1400001F
:100D70002214080814220000222214080808000087
:100D80003E040810203E00001C101010101C000033
:100D900020100804020000001C040404041C0000CD
:100DA000081422000000000000000000003E0000C7
:100DB0000804000000000000001C021E223E00008B
:100DC00020203C22223C0000001C2020201C00008F
:100DD00002021E22221E0000001C223E201C0000D7
:100DE0000E10103C10100000001E223E02021C00DB
:100DF00020203C222222000008001808081C0000C5
:100E000008001E0202221C00202024382422000098
:100E100018080808081C000000342A2A2A2A0000A2
:100E2000002C322222220000001C2222221C000060
:100E3000003C223C20202000001C241C040406004E
:100E4000002E302020200000001E201C023C00004C
:100E5000083E08080806000000222222221E000088
:100E600000222222140800000022222A2A14000054
:100E700000221408142200000022221E020418007E
:100E8000003E0408103E0000040808100808040092
:100E900008080808080800001008080408081000DE
:100EA00000102A04000000001028100000000000BC
:100EB0005EBCE2613FDD83C29C7E20A3FD1F419D9D
:100EC000C3217FFCA2401E5F01E3BD3E6082DC23A4
:100ED0007D9FC1421CFEA0E1BF5D0380DE3C62BE7F
:100EE000E0025CDF81633D7C22C09E1D43A1FF4682
:100EF00018FAA427799BC584DA3866E5BB5907DB65
:100F0000856739BAE406581947A5FB7826C49A655F
:100F10003BD987045AB8E6A7F91B45C6987A24F846
:100F2000A6441A99C7257B3A6486D85B05E7B98C35
:100F3000D2306EEDB3510F4E10F2AC2F7193CD1134
:100F40004FADF3702ECC92D38D6F31B2EC0E50AF0B
:100F5000F1134DCE90722C6D33D18F0C52B0EE3216
:100F60006C8ED0530DEFB1F0AE4C1291CF2D73CAF1
:100F7000947628ABF517490856B4EA6937D58B57EC
:100F800009EBB536688AD495CB2977F4AA4816E9D7
:100F9000B7550B88D6346A2B7597C94A14F6A874CE
:100FA0002AC896154BA9F7B6E80A54D7896B3500BD
:100FB0000020002300260029000202020202020291
:100FC00002040404040404040403030303030303EA
:100FD0000301010101010101010102040810204087
:100FE0008001020408102040800102040810204003
:100FF0008001020408102040800000210024002706
:10100000002A0000002200250028002B000000001C
:10101000010200090A0000000004030807000000A4
:1010200000000000000000000000000000446563B4
:10103000656D626572004E6F76656D626572004F18
:1010400063746F6265720053657074656D6265727A
:1010500000417567757374004A756C79004A756E46
:1010600065004D617900417072696C004D61726379
:1010700068004665627275617279004A616E7561D9
:101080007279000057726974696E67206E65772007
:1010900046772076657273696F6E0083107B1072DD
:1010A000106C10661062105D105810511047103F00
:1010B0001036102D104E414E494E495459494E4656
:1010C000CDCCCC3D0AD7233C17B7D13877CC2B32C7
:1010D0009595E6241FB14F0A000020410000C84248
:1010E00000401C4620BCBE4CCA1B0E5AAEC59D74A7
:1010F0008A4311241FBECFEFD0E4DEBFCDBF15E081
:10110000A0E0B1E0ECE8FDE900E00BBF02C0079011
:101110000D92A83AB107D9F72DE0A8EAB5E001C0D1
:101120001D92A132B207E1F718E0C9E7D8E004C088
:101130002197FE010E948746C837D107C9F70E9450
:10114000DE2E0C94C44E0C940000662351F05C9883
:10115000962F982311F05E9A01C05E985C9A66956E
:10116000F4CF08958031E8F4883068F445B121E087
:1011700030E0B90102C0660F771F8A95E2F7CB0114
:10118000842B85B908954BB1885021E030E0B90136
:1011900002C0660F771F8A95E2F7CB01842B8BB9CB
:1011A0000895282F30E0883160F448B1205131098A
:1011B00081E090E001C0880F2A95EAF7842B88B976
:1011C000089562B14FE150E0CA01821B930B9C016C
:1011D00081E090E001C0880F2A95EAF7862B82B95A
:1011E00008958031F8F4883070F445B121E030E0A2
:1011F000B90102C0660F771F8A95E2F7CB0180958F
:10120000842385B908954BB1885021E030E0B901BD
:1012100002C0660F771F8A95E2F7CB018095842381
:101220008BB90895282F30E0883168F448B12051F7
:10123000310981E090E001C0880F2A95EAF7809596
:10124000842388B9089542B18FE190E0BC01621B0C
:10125000730B81E090E001C0880F6A95EAF78095F2
:10126000842382B90895DF92EF92FF920F931F9328
:10127000CF93DF930AE716E0CFE3D1E0DC2E84E0E2
:10128000D80EE9908E2D0E94F10864E085E00E945E
:10129000A50860E480E00E94A50880E3F82E60E8DD
:1012A00080E00E94A508FA94F110F9CF8E2D0E94DB
:1012B000B20880E090E0F801E80FF91F1082019673
:1012C00080369105C1F7005A1F4FDC12DACFDF914B
:1012D000CF911F910F91FF90EF90DF9008950F93A2
:1012E0001F93CF93DF931F92CDB7DEB7062FE82F62
:1012F000F0E0E15CFE4F1081812F49830E94F108EC
:1013000064E085E00E94A50860E4802F0E94A508A3
:1013100068E04981842F0E94A508812F0F90DF91FA
:10132000CF911F910F910C94B208803608F044C001
:10133000603108F041C098EE980F983118F4892F69
:1013400051E001C050E090ED980F983110F4892FD2
:1013500052E098EB980F983110F4892F53E0962FB4
:10136000937028E030E002C0359527959A95E2F712
:10137000982F990F990F65956595690F80E6589F8D
:10138000F0011124862F062E000C990BDF01A80F07
:10139000B91FA658B94F442319F03C91232B03C021
:1013A00020953C9123232C93E658F94FE80FF91F21
:1013B0004081852F0C946F0908958F929F92AF9270
:1013C000BF92CF92DF92EF92FF920F931F93CF9332
:1013D000DF93962E822E40321CF0C0EEC40F01C067
:1013E000C0E098E0C99FE0011124C12CD12C95E008
:1013F000B92EB80EF601EC0FFD1FE155F44FE49144
:1014000085E0E82EF12C0E2F10E0AC2CA90CC801C1
:101410000E2C02C0959587950A94E2F780FF02C0D2
:10142000482D01C040E06A2D8B2D8E190E94950930
:1014300081E0E81AF10858F78FEFC81AD80A98E047
:10144000C916D104B9F6DF91CF911F910F91FF908A
:10145000EF90DF90CF90BF90AF909F908F900895C6
:101460002F923F924F925F926F927F928F929F92B4
:10147000AF92BF92CF92DF92EF92FF920F931F93A2
:10148000CF93DF93CDB7DEB727970FB6F894DEBFC3
:101490000FBECDBF162F7C834A013901C0966C0167
:1014A0008B835F834E83F40101900020E9F731972D
:1014B000E819F9098E819F81881999098E179F076C
:1014C00008F0A2C022E06216710479F033E06316DE
:1014D000710409F446C0202F81E06816710409F0F8
:1014E0007EC0AE81BF814C917DC0EE81FF81808145
:1014F000803214F0805201C080E0F8E08F9F10012C
:101500001124412C512C25E02C0D2D83F201E20DEC
:10151000F31DED58FD4FE49125E0A22EB12CEE2EE7
:10152000F12C342D310F3983C7010A2C02C0959557
:1015300087950A94E2F780FF02C0402F01C040E087
:1015400069818D818A190E94950981E0A81AB108E4
:1015500058F7AFEF4A1A5A0AB8E04B165104B1F6E1
:1015600046C0EE81FF81808180528F3508F080E097
:1015700098E0899F900111243A832983A12CB12CF2
:1015800093E0392E3B81330EE981FA81EA0DFB1D90
:10159000ED58FA4FE49183E0E82EF12C4E2E512CB9
:1015A0002A2C210EC2010E2C02C0959587950A9413
:1015B000E2F780FF02C0402F01C040E0622D832D82
:1015C0008E190E94950981E0E81AF10858F7AFEFEB
:1015D000AA1ABA0AB8E0AB16B104B1F608C0EE8197
:1015E000FF814081612F7C81C6010E94DD092E812F
:1015F0003F812F5F3F4F3F832E8336E0C30ED11CC8
:101600003B813C5F3B834FCF27960FB6F894DEBFFC
:101610000FBECDBFDF91CF911F910F91FF90EF9043
:10162000DF90CF90BF90AF909F908F907F906F9002
:101630005F904F903F902F9008950F931F93CF93FB
:101640000E9416290091D8051091D9052091DA053C
:101650003091DB05DC01CB01801B910BA20BB30B9E
:10166000883C9105A105B10508F44BC18091E005C6
:10167000882309F446C10E9416296093D805709307
:10168000D9058093DA059093DB05C0910A0DC2302D
:1016900009F4E1C0C33009F405C1C13009F031C11A
:1016A0000E9433098091D1058C278093D005C09387
:1016B0000E0D1092C2058091C5058F5F883018F419
:1016C0008093C50502C0C093C505E091C5058E2F66
:1016D00090E0FC013197E730F10508F012C1E958BC
:1016E000FF4F0C9487460E94330981E080933A01B2
:1016F00080930E0D1092160D8093150D1092140DFF
:101700001092130D1092120D1092110D1092100DD7
:101710001092FA070091D20522E030E043E454E051
:1017200060E070E08EE090E00E94300A0091D20507
:1017300022E030E041EA54E068E070E087E090E0C9
:1017400023C01092150D81E08093140D1092130D9B
:101750001092120D1092110D1092100D0091D205E1
:1017600022E030E043E454E060E070E08EE090E09E
:101770000E94300A0091D20522E030E047E454E0B4
:1017800068E070E085E090E00E94300ABAC01092F4
:10179000160D1092150D1092140D81E08093130D0B
:1017A0001092120D1092110D1092100D0091D20591
:1017B00022E030E043E454E060E070E08EE090E04E
:1017C0000E94300A0091D20522E030E04FE454E05C
:1017D000D7CF10923A010E94330910920E0D81E08A
:1017E0008093160D9091D20590930D0D1092150DCA
:1017F0001092140D1092130D1092120D8093110D72
:101800000DC010920E0D1092150D1092130D109226
:10181000140D81E08093120D1092110D1092100D95
:1018200070C01092150D1092140D1092130D10929D
:10183000120D1092110D81E08093100D62C08BEAA1
:1018400098E00E947B1781E08093FA07CF911F9167
:101850000F910C94002B0E94330910920B0D1092E3
:101860000E0D91E09093C2058091C605853079F404
:101870008091C705811102C086E00AC08F5F883061
:1018800018F48093C70506C09093C70503C08F5F07
:101890008093C6058091C6058A3098F181E08093D7
:1018A000C6052FC00E9433090E94330910920B0D08
:1018B00010920E0D1092C20581E08093CF058091A9
:1018C000C805813079F49091C905911102C082E078
:1018D0000AC09F5F993018F49093C90506C08093A1
:1018E000C90503C08F5F8093C8058091C805833008
:1018F00018F081E08093C805CF911F910F910C944F
:101900003309CF911F910F9108950F931F930E9458
:1019100016290091D8051091D9052091DA0530914A
:10192000DB05DC01CB01801B910BA20BB30B883CC8
:101930009105A105B10508F488C00E94162960939D
:10194000D8057093D9058093DA059093DB050E9442
:1019500016296093D3057093D4058093D505909391
:10196000D60591E09093E0058091D1058927809379
:10197000D00510920B0D10920E0D1092160D809145
:101980000A0D8F5F843018F480930A0D02C0909383
:101990000A0D80910A0D823009F18330B9F181304E
:1019A00009F053C084E998E00E947B1710923A0135
:1019B0001092C2051092CF050E94330901E021E088
:1019C00030E047E554E060E070E080E090E00E94A5
:1019D000300A21E030E040E654E031C080E898E091
:1019E0000E947B1710923A010E94330901E021E026
:1019F00030E047E654E060E070E085E090E00E946F
:101A0000300A21E030E04EE654E019C08BE698E061
:101A10000E947B1710923A011092C2050E9433096E
:101A200001E021E030E044E754E060E070E085E070
:101A300090E00E94300A21E030E049E754E068E09D
:101A400070E085E090E00E94300A1F910F910895A8
:101A5000CF93DF93D62FE82FF0E0E15CFE4FC081FB
:101A60008C2F0E94F10864E084E00E94A50860E8E1
:101A70008D2F0E94A50861E080E00E94A5088C2FB0
:101A8000DF91CF910C94B208CF93DF93813029F08E
:101A900093E0863018F085E001C091E0989FC02D5A
:101AA0001124C056D0E06C2F8D2F0E94280DDF5FCF
:101AB000D530C9F7DF91CF9108950F931F93CF933E
:101AC000DF93CDB7DEB727970FB6F894DEBF0FBE12
:101AD000CDBF0E9416290091D8051091D9052091FB
:101AE000DA053091DB05DC01CB01801B910BA20BE9
:101AF000B30B883C9105A105B10508F482C481E0CF
:101B00008093D1051092D0050E9416296093D805C4
:101B10007093D9058093DA059093DB0580910A0DC7
:101B2000823009F45FC1833009F4E1C3813009F0E8
:101B300068C40E9419200E9434228091F00880938A
:101B400000080E9468228093FF070E946022809311
:101B5000FE070E9419200E9434228091F30880938E
:101B6000FD070E9419200E9434228091F208809380
:101B7000FC070E9419200E94582264E670E00E942F
:101B800073468093FB07E091C5054E2F50E0FA01A4
:101B90003197E730F10508F0A8C0E258FF4F0C94E8
:101BA00087469091D70580910008992311F08150C4
:101BB00001C08F5F80930008809100088F3F21F45F
:101BC00087E18093000891C0883108F48EC010929C
:101BD00000088BC09091D7058091FF07992311F0E1
:101BE000815001C08F5F8093FF078091FF078F3F77
:101BF00021F48BE38093FF0704C08C3310F0109224
:101C0000FF071092FE0771C09091D7058091FC07E5
:101C1000992311F0815001C08F5F8093FC07809160
:101C2000FC078F3F21F48FE18093FC075EC0803278
:101C300008F45BC01092FC0758C09091D7058091C2
:101C4000FD07992311F0815001C08F5F8093FD073C
:101C50008091FD07811102C08CE003C08D3018F027
:101C600081E08093FD0700910F0D22E030E041E814
:101C700054E060E070E080E090E00E94300A35C0FF
:101C80009091D705992311F0815001C08F5F809307
:101C9000FB078091FB07803110F488E203C0893292
:101CA00020F180E18093FB0720C09091D7058091BF
:101CB000AE0A992311F0815001C08F5F8093AE0A64
:101CC0008091AE0A883010F01092AE0A6091AE0A90
:101CD00088E190E00E94352B6FE070E080E090E0BA
:101CE0000E94DC2881E080930C0D0E94162900914F
:101CF000D3051091D4052091D5053091D605DC018E
:101D0000CB01801B910BA20BB30B893E9340A10525
:101D1000B10578F18091FE078F5F8C3318F48093C2
:101D2000FE0707C01092FE078091FF078F5F809328
:101D3000FF078091FF078C3338F01092FF078091E6
:101D400000088F5F8093000880910008883138F088
:101D5000109200088091FC078F5F8093FC070E941F
:101D600016296093D3057093D4058093D50590937D
:101D7000D6058091FB0790E06091FD075091FC072C
:101D80002091FE073091FF074091000884369105AD
:101D90001CF0825B974001C04E968093F4086093DC
:101DA000F3085093F2084093F0083093EF08209323
:101DB000EE088EEE98E00E94A3200E94F21F0E947F
:101DC0001920AE014F5F5F4F0E946321CE01019643
:101DD0000E9470228091FA07882309F412C30E949E
:101DE000002B0FC38CE099E00E947B17E091C605A1
:101DF0008E2F90E0FC013197E930F10508F001C326
:101E0000EB57FF4F0C94874680916D08811104C0F9
:101E100081E080936D0802C010926D0860916D089A
:101E200080E090E05FC00E9433099091D7058091D7
:101E3000B705992311F0815001C08F5F8093B705DA
:101E40008091B7058F3F21F485E08093B70504C0EA
:101E5000863010F01092B7056091B70584E090E0ED
:101E60000E94352B6FE070E080E090E00E94DC285B
:101E70001092090D8091B705811103C00E949A2D1F
:101E8000C0C20E94440DBDC20E9433099091D70583
:101E900080916C08992311F0815001C08F5F80936D
:101EA0006C0880916C088F3F21F484E080936C086B
:101EB00004C0853010F010926C0860916C0888E0C6
:101EC00090E074C20E94330980910408882319F0BD
:101ED0001092040803C081E0809304086091040814
:101EE0008EE090E00E94352B6FE070E080E090E0A3
:101EF00063C20E943309E091C70581E0EE2371F0CF
:101F000080930C0D8E2F90E0FC013197E730F105A6
:101F100008F077C2E257FF4F0C9487468093C705BD
:101F200070C28091E205882319F01092E20509C081
:101F300081E08093E2056FE070E080E090E00E9435
:101F4000DC286091E20586E190E030C29091D705EF
:101F50008091B405992311F0815001C08F5F809367
:101F6000B4058091B405833010F01092B4056091EF
:101F7000B4058BE190E01AC29091D7058091B2052B
:101F8000992311F0815001C08F5F8093B205809139
:101F9000B205853118F081E08093B2056091B205F9
:101FA0008EE190E003C29091D7058091B30599230B
:101FB00011F0815001C08F5F8093B3058091B3050C
:101FC000853118F081E08093B3056091B30580E21C
:101FD00090E0ECC19091D70580910308992311F00E
:101FE000815001C08F5F8093030880910308853181
:101FF00018F081E0809303086091030881E290E08B
:10200000D5C16091020881E068276093020882E2EE
:1020100090E0CCC11092C705F4C10E9433098091B1
:10202000DF05882319F01092DF0503C081E080935B
:10203000DF056091DF0587E190E054CF0E9433090E
:102040008091E105882319F01092E10503C081E039
:102050008093E1056091E10589E190E00E94352BD4
:102060006FE070E080E090E016C00E94330980913C
:10207000B605882319F01092B60503C081E080935D
:10208000B6056091B60584E290E00E94352B65E0CC
:1020900070E080E090E00E94DC2881E080930C0DED
:1020A000B0C10E94330986EE98E00E947B1760E081
:1020B00080E090E00E94352B62E370E080E090E0E9
:1020C0000E94DC2863E084E090E00E94352B62E30C
:1020D00070E080E090E00E94DC2861E085E090E024
:1020E0000E94352B62E370E080E090E00E94DC28E3
:1020F0006EE686E090E00E94352B62E370E080E0BF
:1021000090E00E94DC2861E088E090E00E94352B9E
:1021100062E370E080E090E00E94DC2861E08EE005
:1021200090E00E94352B62E370E080E090E00E9436
:10213000DC2862E080E190E00E94352B62E370E0F1
:1021400080E090E00E94DC286FEF81E190E00E9447
:10215000352B62E370E080E090E00E94DC2861E0D3
:1021600082E190E00E94352B62E370E080E090E035
:102170000E94DC2862E084E190E00E94352B62E35B
:1021800070E080E090E00E94DC2868EC85E190E05F
:102190000E94352B62E370E080E090E00E94DC2832
:1021A00060E086E190E00E94352B62E370E080E021
:1021B00090E00E94DC2860E087E190E00E94352BEF
:1021C00062E370E080E090E00E94DC286091E1052D
:1021D00089E190E00E94352B62E370E080E090E0BE
:1021E0000E94DC2860E08BE190E00E94352B62E3E6
:1021F00070E080E090E00E94DC2861E08EE190E0F9
:102200000E94352B62E370E080E090E00E94DC28C1
:1022100065E08FE190E00E94352B62E370E080E0A2
:1022200090E00E94DC2861E080E290E00E94352B83
:1022300062E370E080E090E00E94DC2865E081E2EB
:1022400090E00E94352B62E370E080E090E00E9415
:10225000DC2860E082E290E00E94352B69E170E0CA
:1022600080E090E00E94DC2860E084E290E00E9440
:10227000352B69E170E080E090E00E94DC2864E6A4
:1022800070E08FE99BE00E94022A64E970E087E732
:102290009BE00E94022A64EC70E08FE49BE00E94C5
:1022A000022A64EF70E087E29BE00E94022A64E267
:1022B00071E08FEF9AE00E94022A64E571E087EDF9
:1022C0009AE00E94022A64E871E08FEA9AE00E9494
:1022D000022A64EB71E087EC9BE00E94022A0E94D4
:1022E000292E81E080930C0D0E945E2D8AC0809182
:1022F000C805813021F0823009F464C082C0E091C9
:10230000C9058E2F90E08930910508F07AC0FC0154
:10231000EB56FF4F0C9487460E94330981E080936F
:10232000C90581ED98E00E947B176BC09091D7059D
:102330008091C405992311F0815001C08F5F809373
:10234000C4058091C405811104C089E08093C4054F
:1023500004C08A3010F01092C4056091C40580E179
:1023600090E045C085EC98E00E947B176091DE0507
:10237000605818C089EB98E00E947B176091DE05D9
:1023800080E40FC06091DE0580E20BC06091DE0545
:1023900080E107C06091DE0588E003C06091DE0542
:1023A00084E068276093DE0585E190E00E94352B8C
:1023B00065E070E080E090E00E94DC2822C010928E
:1023C000C9051FC09091D7058091C305992311F0CD
:1023D000815001C08F5F8093C3058091C3058A300F
:1023E00014F01092C3056091C30584E190E00E944F
:1023F000352B65E070E080E090E00E94DC280E94D0
:10240000330927960FB6F894DEBF0FBECDBFDF911C
:10241000CF911F910F9108958091970990E020919D
:102420009809821B9109089585ED8093BC008091E5
:10243000BC0084FDFCCF10929409089540912708B8
:10244000262F30E0240F311D21323105DCF420919C
:1024500094092430C9F4FC0180E090E0861758F418
:10246000309127082191DC01AB5FB74FA30FB11D5D
:102470002C930196F3CF80912708680F609327086B
:1024800080E0089581E0089582E008950895E09144
:10249000980980919709E81730F4F0E0E45BF74F72
:1024A000808190E008958FEF9FEF089590919809B3
:1024B00080919709981750F4E92FF0E0E45BF74F0B
:1024C000208130E09F5F9093980902C02FEF3FEF8B
:1024D000C9010895CF92DF92EF92FF920F931F935D
:1024E000CF93DF937C01262F972F8A018091A60836
:1024F000882391F0C62FD72F6E01C40ED51ECC15A0
:10250000DD0571F06991D701ED91FC910190F081A9
:10251000E02DC7010995F3CF642F822F0E941E1270
:10252000C801DF91CF911F910F91FF90EF90DF9045
:10253000CF900895CF93DF931F92CDB7DEB7698315
:102540002091A6082223D1F020919509203240F055
:1025500021E030E0FC013383228380E090E015C06D
:1025600080919609E82FF0E0E955F74F9981908323
:102570008F5F809396098093950905C061E0CE0135
:1025800001960E941E1281E090E00F90DF91CF91A2
:1025900008951F93CF93DF93CDB7DEB727970FB67C
:1025A000F894DEBF0FBECDBF11E01093A60888E6F9
:1025B0008093C708109296091092950960E089E906
:1025C00099E00E949A1281E00E94B91A882319F0BA
:1025D0001092E008BCC01093E0088091940981112A
:1025E000FCCF81E080939409809393099FEF9093AF
:1025F000A5081092A40896E09093A30880938208FF
:1026000080918208806D8093820880919209813048
:1026100061F410929209809182088093BB008091AE
:10262000BC0083FDF8CF85EC01C085EE8093BC0033
:10263000809194098130E1F38091A408873018F4E7
:102640008091A40801C087E0A3E8B8E02CE438E05A
:10265000F9019E2F921B981718F49D919193F9CF31
:102660001092980980939709873008F470C089E91F
:1026700099E00E945612182F8695869586958E7041
:10268000982F990F990F890F912F9F70890F898328
:1026900089E999E00E945612282F22952F70982FD1
:1026A0009F708AE0289F900D11249A8389E999E010
:1026B0000E945612982F282F26952695269526702B
:1026C000822F880F880F280F9F70920F9B8389E9B4
:1026D00099E00E945612282F22952F70982F9F70F4
:1026E0008AE0289F900D11249C8389E999E00E943B
:1026F0005612282F22952F70982F9F708AE0289FBE
:10270000900D11249D8389E999E00E945612282F8B
:1027100022952F70982F9F708AE0289F900D11248A
:102720009E8389E999E00E945612982F9F70925ECD
:10273000282F22952F708AE0289F900D11249F83C7
:1027400017FD05C0CE0101960E94A32003C060E0E2
:1027500070E0CB0127960FB6F894DEBF0FBECDBF59
:10276000DF91CF911F9108951F920F920FB60F9294
:1027700011240BB60F922F933F934F935F936F9358
:102780007F938F939F93AF93BF93EF93FF9380912A
:10279000B900887F803609F49CC068F5883209F456
:1027A0005BC090F4803109F454C038F4882309F4F4
:1027B000F6C0883009F44DC0F6C0883109F44CC029
:1027C000803209F45DC0EFC0803409F468C048F479
:1027D000803309F455C0883309F0E5C08093A5081B
:1027E000D8C0803509F44FC0883509F45DC08834FD
:1027F00009F0D9C0D6C0883909F4C7C0A8F4883711
:1028000009F467C038F4883609F463C0803709F4E6
:1028100060C0C9C0883809F4B8C0803909F45FC005
:10282000803809F0C0C05BC0803B09F486C038F432
:10283000803A09F466C0883A09F47FC0B4C0803C8D
:1028400009F4A7C0883C09F4A4C0883B09F48AC0F5
:10285000AAC08091820810C09091A4088091A3081A
:10286000981770F5E091A40881E08E0F8093A4087A
:10287000F0E0ED57F74F80818093BB0085EC86C078
:102880008093A5088EC0E091A40881E08E0F80930C
:10289000A4088091BB00F0E0ED57F74F8083909142
:1028A000A4088091A3086EC0E091A40881E08E0F77
:1028B0008093A4088091BB00F0E0ED57F74F808330
:1028C0008091930981116DC081E08093920984EA1F
:1028D00061C083E08093940910924B08CFCF809120
:1028E0004B08803208F051C0E0914B0881E08E0F18
:1028F00080934B088091BB00F0E0E55DF74F80834B
:10290000BDCF85EC8093BC001092940980914B0858
:10291000803230F4E0914B08F0E0E55DF74F108233
:1029200060914B0870E0E0912908F0912A088BE251
:1029300098E0099510924B0836C084E08093940982
:102940001092280810922708E0912508F091260897
:10295000099580912708811105C081E0809327089F
:1029600010920508E091280881E08E0F80932808D6
:10297000F0E0EB5FF74F80818093BB0090912808D7
:1029800080912708981708F479CF85E88093BC00D8
:102990000AC085EC8093BC001092940904C0109288
:1029A000A5080E941412FF91EF91BF91AF919F91E2
:1029B0008F917F916F915F914F913F912F910F90E8
:1029C0000BBE0F900FBE0F901F901895CF92DF9205
:1029D000EF92FF920F931F93CF93DF93CDB7DEB7A4
:1029E00028970FB6F894DEBF0FBECDBF1091D20569
:1029F0000E941629C090CB05D090CC05E090CD0563
:102A0000F090CE05DC01CB018C199D09AE09BF0900
:102A1000853F9140A105B10598F00E941629609369
:102A2000CB057093CC058093CD059093CE05809116
:102A3000CA05811103C01093CA0502C01092CA05CD
:102A4000E091C6058E2F90E0FC013197E930F10549
:102A500008F0E9C1E256FF4F0C948746012F21E0B0
:102A600030E04BE854E060E070E080E090E00E94ED
:102A7000300A80916D080091CA0521E030E088237A
:102A800019F044E954E044C04EE954E041C0012F3C
:102A900021E030E047EA54E060E070E080E090E060
:102AA0000E94300A8091B705823009F160F48823D2
:102AB000B9F0813009F0B7C10091CA0521E030E0DA
:102AC00045EB54E025C0843031F1E0F0853009F069
:102AD000AAC10091CA0521E030E04BEC54E09DC151
:102AE0000091CA0521E030E040EB54E011C00091B4
:102AF000CA0521E030E04BEB54E068E070E088E08C
:102B000090E08FC10091CA0521E030E04FEB54E026
:102B100068E070E034C10091CA0521E030E046EC85
:102B200054E0B6C0012F21E030E043ED54E060E016
:102B300070E081E090E00E94300A80916C081F9262
:102B40008F9389ED94E09F938F931F9288E08F93EA
:102B5000CE0101967C019F938F930E94F9470091CB
:102B6000CA0521E030E0A70168E070E081E090E074
:102B7000D6C0012F21E030E04AE953E060E070E088
:102B800080E090E00E94300A21E030E040EE54E026
:102B900068E070E080E090E00E94300A80910408D4
:102BA0000091CA0521E030E0882319F04AEF54E093
:102BB00002C04EED53E068E070E088E290E031C181
:102BC000E091C7058E2F90E08830910508F02BC169
:102BD000FC01E955FF4F0C948746012F21E030E0BE
:102BE00047EE54E060E070E08AE090E00E94300A36
:102BF00021E030E04AE753E010C1012F21E030E04E
:102C00004DEE54E060E070E081E090E00E94300A18
:102C10008091E2050091CA0521E030E0882319F097
:102C200045EF54E002C048EF54E068E070E08FE008
:102C300090E0F7C08091E205811104C087E08093A5
:102C4000C705F1C0012F21E030E04CEF54E060E017
:102C500070E081E090E00E94300A8091B4058130FC
:102C600051F080F0823071F40091CA0521E030E02B
:102C700042E155E00DC00091CA0521E030E04AE094
:102C800055E006C00091CA0521E030E042E055E081
:102C900068E070E085E090E0C4C0012F21E030E002
:102CA0004AE155E060E070E085E090E00E94300A83
:102CB0008091B2051BC0012F21E030E045E255E0D4
:102CC00060E070E081E090E00E94300A8091B305FE
:102CD0000DC0012F21E030E04DE255E060E070E0F2
:102CE00081E090E00E94300A809103081F928F9348
:102CF0008FE195E09F938F931F9288E08F93CE0191
:102D000001967C019F938F930E94F9470091CA0519
:102D100021E030E0A70168E070E08FE090E00E94E1
:102D2000300A0FB6F894DEBF0FBECDBF7CC0012FB6
:102D300021E030E044E355E060E070E081E090E0C5
:102D40000E94300A80910208882339F0009101081E
:102D500021E030E044E555E006C00091CA0521E0DD
:102D600030E046EF54E068E070E084E190E059C064
:102D7000012F21E030E044EC53E060E070E081E0BE
:102D800090E04FC0012F21E030E04CE355E060E0DF
:102D900070E082E090E00E94300A8091DF051BC065
:102DA000012F21E030E040E455E060E070E082E097
:102DB00090E00E94300A8091E1050DC0012F21E0D2
:102DC00030E044E455E060E070E080E090E00E9494
:102DD000300A8091B6050091CA0521E030E08823D1
:102DE00019F045EF54E002C048EF54E068E070E0AD
:102DF0008AE090E016C00091CA0521E030E04EE480
:102E000055E060E070E082E090E00E94300A0091BE
:102E1000CA0521E030E046E555E068E070E080E07A
:102E200090E00E94300A28960FB6F894DEBF0FBEDD
:102E3000CDBFDF91CF911F910F91FF90EF90DF9069
:102E4000CF900895EF92FF920F931F93CF93DF934C
:102E50007C018B01C3E7DAE08D819E810E94271FF0
:102E6000B7018D819E810E94BA1E40E06EEB8D817C
:102E70009E810E94781E8D819E810E940B1FF80109
:102E800080838D819E810E940B1FF80181838D813B
:102E90009E810E940B1FF80182838D819E810E947A
:102EA0000B1FF80183838D819E810E940B1FF80107
:102EB00084838D819E810E940B1FF80185838D8103
:102EC0009E810E940B1FF80186838D819E810E9446
:102ED0000B1FF80187838D819E810E940B1FF801D3
:102EE00080878D819E81DF91CF911F910F91FF90FF
:102EF000EF900C94271FCF93DF930E947225EC0173
:102F00008AE394E00E94FA238C0F9D1FDF91CF91FA
:102F1000089581E480937C0080917A00806480939E
:102F20007A0080917A0086FDFCCF80917800209114
:102F3000790090E0922B08952F923F924F925F92EA
:102F40006F927F928F929F92AF92BF92CF92DF92B9
:102F5000EF92FF920F931F93CF93DF93CDB7DEB71E
:102F60002C970FB6F894DEBF0FBECDBFFA010190CB
:102F70000020E9F79F01241B350B082F10E01C8768
:102F80000B87F801E252F74F8081000F111F1A835F
:102F90000983811109C080E690E0025D1E4FD801CF
:102FA0008D939C9381E0808309811A81025D1E4F7D
:102FB000D8018D909C9078EF7203C001739F900DA3
:102FC0001124C096881599050CF092C08A01262E0E
:102FD000FA0101900020E9F79F01241B350B3C8387
:102FE0002B837401612C712C2B813C81621673063A
:102FF0000CF064C03BE2E316F1040CF458C0F80195
:10300000E60DF71D808180322CF0082E000C990B04
:10301000809702C080E090E09C0163E0220F331FA4
:103020006A95E1F73E832D83412C512C97012A5F4D
:103030003F4F3A872987ED81FE81E40DF51DE1556B
:10304000F44FE491670155E0A52EB12C2E2F30E00E
:1030500038872F83342C320C38ECE316F104ACF4AF
:1030600080E3C816D1048CF08F8198850A2C02C0A9
:10307000959587950A94E2F780FF02C041E001C070
:1030800040E0632D8C2D0E9495099FEFC91AD90A43
:10309000A1E0AA1AB10829853A85C216D306E1F63D
:1030A0003FEF431A530A88E04816510421F69FEF78
:1030B000691A790AA8E0EA0EF11C96CFE981FA8133
:1030C000E25DFE4F31E0831A9108918280820E9476
:1030D00016292B853C85220F331F220F331F2E52BA
:1030E000374FD9016D937D938D939C9313970CC0AB
:1030F0001082EB85FC85E053F74F81E0808380E60A
:1031000090E0F801918380832C960FB6F894DEBF8F
:103110000FBECDBFDF91CF911F910F91FF90EF9028
:10312000DF90CF90BF90AF909F908F907F906F90E7
:103130005F904F903F902F9008959F92AF92BF92D3
:10314000CF92DF92EF92FF920F931F93CF93DF9373
:10315000A22E2BE0429F600D711D11249CE0969FD2
:103160006001979FD00C112400E010E097E0992EA9
:10317000980EC8018C0D9D1DFC01E55EF64F7F0188
:10318000C4E0D0E082E0B82EB00EF701A491B0E028
:103190000C2E02C0B595A7950A94E2F7A0FF05C0D2
:1031A0004A2D6B2D892D8C1B04C040E06B2D892D81
:1031B0008C1B0E949509219740F70F5F1F4F0C3021
:1031C0001105B9F6DF91CF911F910F91FF90EF900C
:1031D000DF90CF90BF90AF909F900895CF93DF93F3
:1031E000EB010E94221768E0CE010E946B1E91E065
:1031F0002885821390E0892FDF91CF910895CF9396
:10320000DF93CDB7DEB729970FB6F894DEBF0FBEB8
:10321000CDBFFC0120812031D9F0BE016F5F7F4F0F
:103220000E94EE18882381F08D818F3359F018F4B5
:103230008F3171F009C08F3519F08F3739F004C024
:103240008BE007C08AE005C080E003C08CE001C0CD
:1032500089E029960FB6F894DEBF0FBECDBFDF918F
:10326000CF9108954F925F926F927F928F929F922B
:10327000AF92BF92CF92DF92EF92FF92CF93DF9304
:10328000CDB7DEB729970FB6F894DEBF0FBECDBF1E
:10329000BE016F5F7F4F88EC98E00E94EE18882394
:1032A00009F48AC08A8190E0982F88272981822B8F
:1032B0002091C8082232B9F12832A9F1203109F051
:1032C00081C0F884BC0175956795072E000C880BAA
:1032D000990B0E94114D20E030E040E85EE30E942F
:1032E000CE464B015C018F2D90E02F81821B91090E
:1032F000BC01990F880B990B0E94114D2B013C01C9
:103300006F2D70E080E090E00E940F4D9B01AC01BA
:10331000C301B2010E943B479B01AC01C501B4014E
:103320000E94CF4636C02D812F33B1F1A0F42F314A
:1033300009F048C0BC0123E0759567952A95E1F72F
:10334000072E000C880B990B0E94114D20E030E0F5
:1033500040E05FE31CC02F3569F02F3799F5BC01C1
:10336000990F880B990B0E94114D20E030E040E846
:103370005DE30DC0BC0175956795072E000C880BA9
:10338000990B0E94114D20E030E040E05EE30E9486
:10339000704D6B017C0116C0BC01759567957595E4
:1033A0006795072E000C880B990B0E94114D20E0A9
:1033B00030E040E85EE3EBCFC12CD12C8EEFE82E5D
:1033C00082ECF82EC701B60129960FB6F894DEBF3D
:1033D0000FBECDBFDF91CF91FF90EF90DF90CF90E8
:1033E000BF90AF909F908F907F906F905F904F9025
:1033F00008958091780A9091790A0E94271F40E0F1
:103400006CEC8091780A9091790A0E94781E409124
:10341000730A64E48091780A9091790A0E94781E78
:103420008091750A8823E9F08091740A8A3049F006
:103430008B3061F0893079F46EE570E080E090E0E7
:103440000EC06CEB70E080E090E009C067E771E0CF
:1034500080E090E004C06EEE72E080E090E00C94BA
:10346000DC2808950F931F93CF93DF93CDB7DEB77A
:1034700061970FB6F894DEBF0FBECDBFE091780A1A
:10348000F091790A138615861486DF011B96339610
:103490001E92AE17BF07E1F71092770A11E0BE0146
:1034A000665F7F4F8091780A9091790A0E945D1F34
:1034B000882309F453C067E0CE010A960E946B1E70
:1034C00099898913ECCF8091730A811126C080916C
:1034D000780A9091790A0E94271FBE01665F7F4F8C
:1034E0008091780A9091790A0E94BA1E40E064EBBC
:1034F0008091780A9091790A0E94781E8091780ACA
:103500009091790A0E94E71E082F8091780A909185
:10351000790A0E94271F0023F1F0BE016F5F7F4FE1
:10352000CE010A960E9422170091740ACE010A96D3
:103530000E94FF18801718F48091740A04C0CE010D
:103540000A960E94FF188093740A8091770A8F5F11
:103550008093770AA4CF1093730ADFCF61960FB6DA
:10356000F894DEBF0FBECDBFDF91CF911F910F91B9
:103570000895382F209195099091C708213208F0BD
:1035800049C0809194098111FCCF42E04093940995
:10359000309393093FEF3093A5081092A40820932D
:1035A000A308A7EAB8E043E858E0FA013E2F341B2D
:1035B000321718F43D913193F9CF1092820820917F
:1035C0008208990F922B90938208909192099130E2
:1035D00061F410929209909182089093BB009091AF
:1035E000BC0093FDF8CF95EC01C095EE9093BC0024
:1035F000909194099230E1F39091A5089F3F79F062
:103600008091A508803241F08091A508803331F087
:1036100084E005C081E003C082E001C083E0109235
:103620009609109295091092A60808958F929F927C
:10363000AF92BF92CF92DF92EF92FF920F931F93C0
:10364000CF93DF93FC01C081D1812091800830911C
:103650008108C217D3070CF04BC09E01220F331F05
:10366000E0917E08F0917F08E20FF31F8080918047
:10367000C170DD27F1E0CF27209719F404E610E0B0
:1036800002C00CE91FEF7A015B016C01040F151FEA
:10369000B801C4010E94BC2A892B99F40E0D1F1D8C
:1036A000B801C4010E94BC2A892B71F4B8016E0DC7
:1036B0007F1DC4010E94BC2A892BE9F023E030E081
:1036C00005C021E030E002C022E030E0F501808159
:1036D00091810196821793073CF0F50111821082C7
:1036E000F60180819181019691838083CE0105C08E
:1036F00081E090E002C08FEF9FEFDF91CF911F91AB
:103700000F91FF90EF90DF90CF90BF90AF909F9080
:103710008F9008958F929F92AF92BF920F931F93B5
:10372000CF93DF93CDB7DEB7A1970FB6F894DEBF86
:103730000FBECDBF19A2423008F44AE08E010F5DE2
:103740001F4F842E912CA12CB12CA50194010E9415
:10375000934EE62FB901CA0101501109EA3014F461
:10376000E05D01C0E95CD801EC93232B242B252BD1
:1037700061F7C8010E94FA23A1960FB6F894DEBF44
:103780000FBECDBFDF91CF911F910F91BF90AF9032
:103790009F908F900895E091F508F091F6080190C0
:1037A000F081E02D682F85EF98E00994CF92DF92A9
:1037B000EF92FF92CF93DF936C01990FEE08FF0811
:1037C000F7FE17C08DE20E94CB1BEC01662777271E
:1037D000CB016C197D098E099F094AE00E948A1B62
:1037E0008C0F9D1FDF91CF91FF90EF90DF90CF90D6
:1037F00008954AE0C701B601DF91CF91FF90EF90A5
:10380000DF90CF900C948A1B8091E908853031F5C8
:103810008091650C2091730890E0059630E0821746
:10382000930724F0809173088638C0F084E0809379
:10383000E9088091650C813830F081E090E0909348
:103840007208809371088091630C8F7771F1809179
:10385000630C8F779091EB08891739F18091E90813
:10386000843009F51092650C109273088FEF9FEF6A
:1038700090937208809371086091EA08662331F092
:103880000E94531E909372088093710810927008E2
:1038900010926F0810926E0885E08093E9088DED14
:1038A00092E80E94E61D80E0089580917108909151
:1038B0007208892B49F4E091E80CF091E90C3097FB
:1038C00019F080E009950BC08FEF9FEFDC0180932A
:1038D000DA089093DB08A093DC08B093DD0881E060
:1038E00008950F931F93CF93DF93C62F90916D0888
:1038F000992321F0883110F492E001C090E000910A
:103900006C08D82FD91B033028F44C2F65E08D2F7D
:103910000E94950911E01D0F4C2F65E0812F0E9438
:103920009509033028F44C2F66E08D2F0E949509ED
:103930004C2F66E0812F0E949509033028F44C2F0C
:1039400069E08D2F0E9495094C2F69E0812F0E941C
:103950009509033028F44C2F6AE08D2F0E949509B9
:103960004C2F6AE0812FDF91CF911F910F910C9422
:1039700095090F931F93CF93DF93EC0160E070E004
:10398000CB01E99120ED2E0F2A30C0F4AAE0B0E07F
:103990009B01AC010E94804E0E2FEE0F110B220BEB
:1039A000330BDC01CB01800F911FA21FB31FBC01A1
:1039B000CD016053710981099109E3CFDF91CF9166
:1039C0001F910F9108950F931F93CF93C1E08091A2
:1039D000450C8D3221F0C0E005E41CE002C006E495
:1039E0001CE0C8010E94B91C9B01AC01A4E6B0E038
:1039F0000E94804EF801DF01219130ED320F3A3004
:103A0000D0F32E3269F511962C91119730ED320FCB
:103A10003A3030F5022E000C330B205331094AE0C6
:103A2000429F8001439F100D1124012E000C220B98
:103A3000330B600F711F821F931F12960C9120EDA4
:103A4000200F2A3068F4002E000C110B00531109CE
:103A5000012E000C220B330B600F711F821F931F6E
:103A6000CC2339F090958095709561957F4F8F4F5D
:103A70009F4FCF911F910F9108954F925F926F9238
:103A80007F928F929F92AF92BF92CF92DF92EF92EE
:103A9000FF92CF93DF9385E49CE00E94B91C2B0139
:103AA0003C0124E630E040E050E00E94934E9B0150
:103AB000AC01A0E1B7E20E94804E6B017C01E5E41D
:103AC000FCE0819190ED980F9A30D8F38E3219F581
:103AD000EF0188EE882E83E0982EA12CB12CA991BD
:103AE00080ED8A0F8A30B8F40A2E000CBB0BD097F9
:103AF000A50194010E948B4EC60ED71EE81EF91E2A
:103B0000C501B4012AE030E040E050E00E94934E4D
:103B100049015A01E4CFC701B60126E030E040E098
:103B200050E00E94934E69017A01C301B20124E67C
:103B300030E040E050E00E94934E60EA76E881E099
:103B400090E00E9443466C0D7D1D8E1D9F1DDF91F0
:103B5000CF91FF90EF90DF90CF90BF90AF909F906C
:103B60008F907F906F905F904F9008950895FC0123
:103B700090810180F281E02D892F809560FF12C035
:103B8000F8942281822382838181892B8183A3E21D
:103B9000B0E01197F1F78281982B9283789487EDAA
:103BA00090E011C0F8942281822382838181892B45
:103BB0008183AFEFB0E01197F1F78281982B928368
:103BC00078948FE090E00197F1F708950F931F9399
:103BD000CF93DF931F92CDB7DEB7182F2CB521609E
:103BE0002CBD60E08091320199830E9470289981F8
:103BF0009EBD0DB407FEFDCF8EB5282F30E0322FCD
:103C000022271EBD0DB407FEFDCF8EB58901082BFE
:103C100061E0809132010E9470288CB58E7F8CBD4E
:103C2000C8010F90DF91CF911F910F91089580915E
:103C3000330196EF980F923010F0823099F5209171
:103C4000EB08222341F1823019F0933058F5892F87
:103C5000E82FF0E0EE0FFF1FEC5CFE4F22EF36E2A4
:103C600031832083813049F0823071F08091690086
:103C70008C7F80936900E89A089580916900837F22
:103C800080936900E99A0895809169008F7C809300
:103C90006900EA9A0895823019F0933018F4892F58
:103CA0000C946C2908958627682F62956827062E44
:103CB000669566956025062E669560256770082EC8
:103CC000892F669507946795902D862706946795AA
:103CD000902586270895DC01E0E0615038F08D9151
:103CE000E827F0E0E155F14FE491F7CF8E2F0895EA
:103CF000CF92DF92EF92FF920F931F93CF93DF93B8
:103D00001F92CDB7DEB76C01E62E08E010E0FF246D
:103D1000F39461E08F2D8E2109F460E0C6014983A0
:103D20000E94B71DFF0C01501109498101151105B1
:103D300081F7411115C0F894D6011196ED91FC91CF
:103D4000129791818C918095892381831196ED91B1
:103D5000FC91129792818C9180958923828378942B
:103D60000F90DF91CF911F910F91FF90EF90DF9017
:103D7000CF900895CF92DF92EF92FF920F931F930F
:103D8000CF93DF931F92CDB7DEB78C01F62E40E0C4
:103D900065E579830E94781ECF2C7981D72E760134
:103DA00088E0E80EF11CF60161916F0140E0C80166
:103DB0000E94781ECE14DF04B1F70F90DF91CF91EF
:103DC0001F910F91FF90EF90DF90CF900895FC012D
:103DD00090810180F281E02DF8948181892B81838B
:103DE0002281892F809528232283A7E0B0E01197B4
:103DF000F1F7218182238183A3E2B0E01197F1F7EB
:103E000080817894EFECF0E03197F1F7982381E02E
:103E100009F480E00895EF92FF920F931F93CF93E0
:103E2000DF937C0108E010E0C0E0D1E0C7010E9410
:103E3000E71E8111CD2BDD0F01501109B9F78C2F31
:103E4000DF91CF911F910F91FF90EF900895FC01AA
:103E500090810180F281E02DF8948181292F2095B5
:103E60008223818378948DE743E050E0815021F1F3
:103E7000DA011197F1F730813923C1F3F894828187
:103E8000822382838181892B81837894ABECB7E094
:103E90001197F1F7F894818128232183ABE3B1E0F6
:103EA0001197F1F78081982381E009F080E0789400
:103EB000EBE8F6E03197F1F70895AF92BF92CF9219
:103EC000DF92EF92FF920F931F93CF93DF931F9296
:103ED000CDB7DEB75C01E62ED72EFC0185858111BA
:103EE0005DC0C5010E94271F811105C0F501138621
:103EF000158614866BC040E060EFC5010E94781EF5
:103F000001E0F12CC12C11E0C5010E94E71E682FD1
:103F1000C50169830E94E71E6981613019F481300F
:103F2000B9F433C04F2D50E068131BC0F5018385F1
:103F3000181730F4E40FF51F8381802349F402C081
:103F4000181731F060E0193058F4F501148708C0F3
:103F5000F501EF0DF11D8381802B838361E009C0A2
:103F6000C12EF501E40FF51F9381802F80958923E1
:103F70008383C5010E94B71D1F5F000F11F4F394E6
:103F800001E0F7E0FF1508F0BFCF113438F0F5017C
:103F9000C386C11015C081E0858712C0F501138664
:103FA0001586148680E0D5011396EE2DFD2D950122
:103FB000255F3F4F9D919193A217B307D9F706C094
:103FC000F5018381882351F381E0EDCF0F90DF91DC
:103FD000CF911F910F91FF90EF90DF90CF90BF9006
:103FE000AF9008956093AC057093AD058093AE05D6
:103FF0009093AF05DC01CB01845D9E4FAF4FBF4F67
:104000008093A8059093A905A093AA05B093AB054A
:1040100082E090E09093DD058093DC050E941629F4
:104020006093E5087093E6088093E7089093E808AA
:104030000895CF92DF92EF92FF920F931F930E9409
:104040001629C090E508D090E608E090E708F090C7
:10405000E8088B019C010C191D092E093F0980916C
:10406000AC059091AD05A091AE05B091AF05083EAD
:10407000134021053105D0F00196A11DB11D80939B
:10408000AC059093AD05A093AE05B093AF05B70115
:10409000A60148515C4F6F4F7F4F4093E508509306
:1040A000E6086093E7087093E808C9CF4091A80537
:1040B0005091A9056091AA057091AB0584179507E9
:1040C000A607B70788F1E091B005F091B1053097E8
:1040D00059F10995611571058105910519F00E9445
:1040E000F21F22C08091AC059091AD05A091AE0564
:1040F000B091AF05845D9E4FAF4FBF4F8093A80531
:104100009093A905A093AA05B093AB0581E090E038
:104110002091DC053091DD05232B11F480E090E047
:104120009093DD058093DC056091AC057091AD0541
:104130008091AE059091AF051F910F91FF90EF9088
:10414000DF90CF9008956F927F928F929F92AF925F
:10415000BF92CF92DF92EF92FF920F931F93CF9374
:10416000DF93EC01EE81AE2FB0E020E833E341EEC7
:1041700051E00E94804E4B015C0122EB37E0FD01D3
:1041800004E610E080E9E82EFF24F394C901825B85
:1041900097408E179F07DCF4C90183709927892BFC
:1041A00099F4C901B8010E947346892B31F4C90101
:1041B000B7010E947346892B39F480E8880E81E5A7
:1041C000981E81E0A81EB11C2F5F3F4FDFCF6D808E
:1041D000712CEE54F84FCF0164E670E00E947346F4
:1041E0007C01CF0160E971E00E9473466C0101E03F
:1041F00010E0E370FF27061517052CF502301105B6
:1042000081F4309771F4E114F10419F4C114D1046C
:1042100041F480E8880E8BE3981E86E2A81EB11C4C
:104220000FC0D801AD5BBE4FAC91B0E020E831E5E6
:1042300041E050E00E94804E860E971EA81EB91ED7
:104240000F5F1F4FD8CF49812A8130E0A0E1BEE047
:104250000E94B54E6B017C01242F30E0ACE3B0E04E
:104260000E94B54EDC01CB018C0D9D1DAE1DBF1D06
:1042700028816C017D01C20ED11CE11CF11CAC81B6
:10428000B0E0119720E831E541E050E00E948B4E0C
:10429000DC01CB018C0D9D1DAE1DBF1DBC01CD01F0
:1042A000680D791D8A1D9B1DDF91CF911F910F9184
:1042B000FF90EF90DF90CF90BF90AF909F908F9046
:1042C0007F906F9008956F927F928F929F92AF929E
:1042D000BF92CF92DF92EF92FF920F931F93CF93F3
:1042E000DF93EA012CE3C22ED12CE12CF12CA701A3
:1042F00096010E94934E6883CA01B901A7019601F5
:104300000E94934E6983CA01B90128E130E040E080
:1043100050E00E94934E69017A016A83CA01B90193
:104320006C5F7F4F8F4F9F4F27E030E040E050E0C1
:104330000E94934E6F5F6B83812C912C540140E05F
:1043400034E6632E712C00E911E0242F30E02E5466
:10435000384FF901E370FF27309789F4C901B301A1
:104360000E947346892B31F4C901B8010E9473463B
:10437000892B29F48EE691E0A0E0B0E004C08DE640
:1043800091E0A0E0B0E0880E991EAA1EBB1ED501E8
:10439000C401AA27BB27C816D906EA06FB0610F0F7
:1043A0004F5FD3CF4E83309799F4C90164E670E034
:1043B0000E947346892B39F4C90160E971E00E94BB
:1043C0007346892B29F48EE691E0A0E0B0E004C0AA
:1043D0008DE691E0A0E0B0E0881A990AAA0ABB0A2B
:1043E000C818D908EA08FB08C90164E670E00E9411
:1043F00073468C01C90160E971E00E947346A4E430
:10440000B1E020E0213041F4309751F4011511055D
:1044100029F4009729F402C04C9103C04DE101C07A
:104420004CE150E060E070E0C416D506E606F70601
:1044300040F0C41AD50AE60AF70A2F5F11962C300D
:1044400009F72F5F2D83C394CC82DF91CF911F9109
:104450000F91FF90EF90DF90CF90BF90AF909F9023
:104460008F907F906F900895CF92DF92EF92FF929E
:10447000C090E108D090E208E090E308F090E408F2
:104480006C157D058E059F0571F06B017C014EEE6C
:1044900058E00E946321C092E108D092E208E092C5
:1044A000E308F092E408FF90EF90DF90CF9008953A
:1044B0000E9434228091F40890E08E54984F089521
:1044C0000E9419200E9434228091EE0890E0089505
:1044D0000E9419200E9434228091EF0890E00895F4
:1044E000FF920F931F93CF93DF938C01D1E0D09372
:1044F000A60888E6F82EF092C70810929609109246
:10450000950960E089E999E00E949A1260E889E9DA
:1045100099E00E949A12F8018181CAE06C2F0E94F2
:104520005346692FF0E18F9F600D112489E999E0CE
:104530000E949A12F80182816C2F0E945346692FC3
:10454000F0E18F9F600D112489E999E00E949A1291
:10455000F80183816C2F0E945346692FF0E18F9FF1
:10456000600D112489E999E00E949A12F801848172
:104570006C2F0E945346692FF0E18F9F600D11242C
:1045800089E999E00E949A12F80185816C2F0E94B6
:104590005346692FF0E18F9F600D112489E999E05E
:1045A0000E949A12F80186818E516C2F0E94534608
:1045B000692FF0E18F9F600D112489E999E00E9435
:1045C0009A1281E00E94B91A882321F01092E00823
:1045D00080E023C0D093E008D093A608F092C708EB
:1045E000109296091092950960E089E999E00E947D
:1045F0009A12F80180816C2F0E945346692FF0E1D6
:104600008F9F600D112489E999E00E949A1281E040
:104610000E94B91A8111DACF81E0DF91CF911F9109
:104620000F91FF9008958F929F92AF92BF92CF9279
:10463000DF92EF92FF920F931F93CF93DF93CDB74B
:10464000DEB764970FB6F894DEBF0FBECDBF5F87AD
:10465000798BF42E411109C06F5F6D3040F02FEF60
:10466000C21AD20A21E061E003C0242F01C021E078
:1046700089898B831A82198281E08D836E838EE40F
:104680008C0D8F83CE0101962C8B0E94A3204B01B1
:104690005C010F8510E00E9434222C8930E021500B
:1046A000310987E0829FF001839FF00D11248091F2
:1046B000F1089801281B3109C901079667E070E0ED
:1046C0000E947346DF01A80FB91F20E831E541E0E1
:1046D00050E00E948B4E680D791D8A1D9B1DF110C4
:1046E00004C060587A438940910964960FB6F894E3
:1046F000DEBF0FBECDBFDF91CF911F910F91FF9015
:10470000EF90DF90CF90BF90AF909F908F900895E3
:104710008F929F92AF92BF92CF92DF92EF92FF92D1
:104720000F931F93CF93DF936C01E090860AF09074
:10473000870A0091880A1091890A20918A0A30918B
:104740008B0A40918C0A50918D0A60918E0A70916B
:104750008F0A8091900A9091910A0E941323C6E8D3
:10476000DAE068A379A38AA39BA3E2E9FAE0E080F8
:10477000F1800281138124813581468157816085D2
:104780007185828593850E9413236B017C016CA344
:104790007DA38EA39FA3AE89BF892CE330E00E9446
:1047A000904608A119A12AA13BA148015901861AE6
:1047B000970AA80AB90A888E998EAA8EBB8EAA85F6
:1047C000BB852CE330E00E949046C61AD70AE80A5F
:1047D000F90ACC8EDD8EEE8EFF8EDF91CF911F9188
:1047E0000F91FF90EF90DF90CF90BF90AF909F9090
:1047F0008F900895009769F0FC0101900020E9F77F
:104800003197AF01481B590BBC0185EF98E00C9420
:10481000932580E090E00895CF93DF930E94FA23E0
:10482000EC018AE394E00E94FA238C0F9D1FDF9134
:10483000CF910895CF92DF92EF92FF92CF93DF93C3
:104840006B017C010E945822EC0160919E0A7091DC
:104850009F0A8091A00A9091A10A0E945822C8172D
:10486000D90731F0C701B6010E9458220E9488235F
:10487000C701B6010E945822EC0160919E0A709116
:104880009F0A8091A00A9091A10A0E945822C817FD
:10489000D90731F0C701B6010E9458220E9488232F
:1048A0004091A20A5091A30A6091A40A7091A50AAE
:1048B00080919E0A90919F0AA091A00AB091A10AAE
:1048C00084179507A607B70758F4C816D906EA064D
:1048D000FB06D8F0C416D506E606F706B0F40AC003
:1048E000C416D506E606F70628F0C816D906EA0665
:1048F000FB0658F086E89AE09093ED088093EC0868
:10490000A091900AB091910A0AC082E99AE090932E
:10491000ED088093EC08A0919C0AB0919D0A2CE3CD
:1049200030E00E9490466C0D7D1D8E1D9F1DDF9115
:10493000CF91FF90EF90DF90CF900895F8940E9470
:10494000E61D78940895CF92DF92EF92FF920F9335
:104950001F93CF93DF9300D0CDB7DEB7062F109211
:10496000EB084A8389830E94171E89818093EB0894
:104970004A814093EA0810913201143021F061E03D
:1049800084E00E94A02861E0812F0E94A02861E0BD
:10499000812F0E94702861E085E00E94A02860E0DD
:1049A00086E00E94A02861E087E00E94A02880E5C0
:1049B0008CBD8DB581608DBD1091330160E0812F7C
:1049C0000E94A02861E0812F0E94702880E090E082
:1049D0000E94E61D85E092E80E94E61D80E098EBCB
:1049E0000E94E61D0E9416296B017C01812F0E9406
:1049F0004728892B91F40E941629AB01BC014C1960
:104A00005D096E097F09483C51056105710528F46F
:104A100080E090E00E94E61DE9CF0E941629DC01AB
:104A2000CB018C199D09AE09BF09883C9105A105F0
:104A3000B10508F04BC020E1029FC0011124876C32
:104A400090680E94E61D80E496EA0E94E61D88E0D8
:104A500096EC0E94E61D82EA94E90E94E61D8CEA2B
:104A600092EC0E94E61DF090EA08FF2041F083E8F6
:104A70009AEC0E94E61D8F2D90E09E6C06C08BE89C
:104A80009AEC0E94E61D8DE29EEC0E94E61D83E8F2
:104A900094EC0E94E61D80E598E90E94E61D87E7F8
:104AA0009CEC0E94E61D80E090EE0E94E61D80E0F6
:104AB00098EC0E94E61D83E490EC0E94E61D84E0E1
:104AC0008093E9080E94171E81E001C080E00F90EA
:104AD0000F90DF91CF911F910F91FF90EF90DF909A
:104AE000CF9008950F931F93CF93DF938C01C0E075
:104AF000D0E0F801EC0FFD1F6491662371F0E091A6
:104B0000F508F091F6080190F081E02D85EF98E02E
:104B10000995892B11F02196ECCFCE01DF91CF9131
:104B20001F910F910895CF92DF92EF92FF920F9312
:104B30001F93CF93DF936C017A018B01C0E0D0E02B
:104B4000CE15DF0589F0D8016D918D01D601ED916B
:104B5000FC910190F081E02DC6010995892B11F49B
:104B60007E0102C02196ECCFC701DF91CF911F914A
:104B70000F91FF90EF90DF90CF900895FC01918D01
:104B8000828D981761F0828DDF01A80FB11D5D96AF
:104B90008C91928D9F5F9F73928F90E008958FEF1D
:104BA0009FEF0895FC01918D828D981731F0828DD1
:104BB000E80FF11D858D90E008958FEF9FEF089528
:104BC000FC01918D228D892F90E0805C9F4F821B8C
:104BD00091098F739927089585EF98E00E94E02549
:104BE00021E0892B09F420E0822F0895FC01848DB7
:104BF000DF01A80FB11DA35ABF4F2C91848D90E007
:104C000001968F739927848FA689B7892C93A089E1
:104C1000B1898C9180648C93938D848D981306C098
:104C20000288F389E02D80818F7D80830895EF9243
:104C3000FF920F931F93CF93DF93EC0181E0888F56
:104C40009B8D8C8D981305C0E889F989808185FD3D
:104C500024C0F62E0B8D10E00F5F1F4F0F7311272E
:104C6000E02E8C8DE8120CC00FB607FCFACFE88955
:104C7000F989808185FFF5CFCE010E94F625F1CF1D
:104C80008B8DFE01E80FF11DE35AFF4FF0820B8F71
:104C9000EA89FB898081806207C0EE89FF89608391
:104CA000E889F98980818064808381E090E0DF91E8
:104CB000CF911F910F91FF90EF900895CF93DF93C5
:104CC000EC01888D8823C9F0EA89FB89808185FD04
:104CD00005C0A889B9898C9186FD0FC00FB607FC65
:104CE000F5CF808185FFF2CFA889B9898C9185FFA6
:104CF000EDCFCE010E94F625E7CFDF91CF91089549
:104D000080E090E0892B21F00E94EC2581110DC0FC
:104D100080E090E0892B71F080E090E0892B51F0E9
:104D20000E940000811104C008950E940000F0CF8D
:104D30000C940000089590E0FC013197EA30F105F1
:104D400040F5E155FF4F0C948746809180008F77A6
:104D500003C0809180008F7D80938000089584B58A
:104D60008F7702C084B58F7D84BD08958091B00097
:104D70008F7703C08091B0008F7D8093B00008953D
:104D8000809190008F7703C0809190008F7D8093F9
:104D9000900008953FB7F8948091050D9091060D0D
:104DA000A091070DB091080D26B5A89B05C02F3F17
:104DB00019F00196A11DB11D3FBFBA2FA92F982F41
:104DC0008827820F911DA11DB11DBC01CD0142E0BC
:104DD000660F771F881F991F4A95D1F70895089588
:104DE0000E94ED47CF9380E090E00E94E61D809105
:104DF000E908853009F094C08091FE0C9091FF0C79
:104E0000892B91F08091FD0C84FD0EC085E8809384
:104E10007A008091FD0C8F70806480937C0080917B
:104E20007A00806480937A0080E090EB0E94E61D17
:104E3000682F8091FE0C9091FF0C892B69F0809176
:104E4000FD0C84FD09C080917A0086FDFCCF909115
:104E50007A00906490937A008091730881110EC05B
:104E60008091EA08882351F0E091730891E09E0F49
:104E700090937308F0E0EE59F34F8083E09173084C
:104E800081E08E0F80937308F0E0EE59F34F60835A
:104E900080917108909172080E94531E909372083D
:104EA000809371088091FE0C9091FF0C892B39F151
:104EB0008091FD0C84FD23C080916E088138F8F448
:104EC00080917A0086FDFCCF809178002091790056
:104ED00090E0922B9C012C5331092F35314078F40E
:104EE00020916F0830917008820F931F9093700883
:104EF00080936F0880916E088F5F80936E08809119
:104F0000650C2091730890E0059630E082179307B6
:104F10000CF456C080917308863808F051C055C013
:104F20008091E90887FF1BC0E091650C8091E9083A
:104F300091E0980F9093E908EC5F8E0FE82FF0E076
:104F4000EE59F34FC08180917108909172086C2FD7
:104F50000E94531E90937208809371082DC0809117
:104F6000E90891E0980F9093E9088330F1F054F448
:104F70008823A9F08130E9F480917108909172083A
:104F8000C92F1AC08930B9F08A3099F4C091EA0863
:104F90009091650C8DEF891B8093E9080DC080917D
:104FA000710890917208C82F07C08DE092E80E94A6
:104FB000E61DCAEA01C0CDE28C2F90E0985402C0F1
:104FC0008DE092E8CF910C94E61DCF9108951F9249
:104FD0000F920FB60F9211240BB60F922F933F939F
:104FE0004F935F936F937F938F939F93AF93BF93F1
:104FF000EF93FF9385EF98E00E94F625FF91EF91E4
:10500000BF91AF919F918F917F916F915F914F91E0
:105010003F912F910F900BBE0F900FBE0F901F90DE
:1050200018951F920F920FB60F9211240BB60F9284
:105030002F938F939F93EF93FF93E0910509F09146
:1050400006098081E0910B09F0910C0982FD12C0E4
:10505000908180910E098F5F8F7320910F098217C5
:1050600051F0E0910E09F0E0EB50F74F958F8093EF
:105070000E0901C08081FF91EF919F918F912F9137
:105080000F900BBE0F900FBE0F901F901895CF93EF
:10509000DF93282F30E0F901E35FFF4E8491F9019F
:1050A000E752F04FD491F901E754F04FC491CC236B
:1050B00091F081110E949B26EC2FF0E0EE0FFF1F74
:1050C000E155F04FA591B491EC91ED2381E090E092
:1050D00021F480E002C080E090E0DF91CF9108955C
:1050E0001F93CF93DF93282F30E0F901E35FFF4E4A
:1050F0008491F901E752F04FD491F901E754F04F50
:10510000C491CC23C9F0162F81110E949B26EC2F4D
:10511000F0E0EE0FFF1FED5FFF4EA591B4918FB74A
:10512000F894111105C09C91ED2FE095E92302C080
:10513000EC91ED2BEC938FBFDF91CF911F910895F0
:10514000CF93DF9390E0FC01E752F04F2491FC01F4
:10515000E754F04F8491882361F190E0880F991F04
:10516000FC01E750F04FC591D491FC01ED5FFF4E7B
:10517000A591B491611109C09FB7F89488812095D9
:1051800082238883EC912E230BC0623061F49FB799
:10519000F8943881822F809583238883EC912E2B7D
:1051A0002C939FBF06C08FB7F894E8812E2B2883DD
:1051B0008FBFDF91CF9108958F929F92AF92BF9250
:1051C000CF92DF92EF92FF926B017C010E94CA2680
:1051D0004B015C01C114D104E104F104F1F00E941F
:1051E000CA26DC01CB0188199909AA09BB09883EA6
:1051F0009340A105B10570F321E0C21AD108E1087E
:10520000F10888EE880E83E0981EA11CB11CC11421
:10521000D104E104F10419F7DDCFFF90EF90DF90A6
:10522000CF90BF90AF909F908F9008952FB7F89434
:105230006091010D7091020D8091030D9091040D0C
:105240002FBF08951F920F920FB60F9211242F9324
:105250003F938F939F93AF93BF938091010D909154
:10526000020DA091030DB091040D3091000D23E0CB
:10527000230F2D3720F40196A11DB11D05C026E88E
:10528000230F0296A11DB11D2093000D8093010DE7
:105290009093020DA093030DB093040D8091050D22
:1052A0009091060DA091070DB091080D0196A11DDA
:1052B000B11D8093050D9093060DA093070DB0933B
:1052C000080DBF91AF919F918F913F912F910F90BA
:1052D0000FBE0F901F901895813039F020F082306A
:1052E00029F4EA9803C0E89801C0E998E82FF0E0B3
:1052F000EE0FFF1FEC5CFE4F8FEE96E291838083F2
:1053000008951F920F920FB60F9211240BB60F92B1
:105310002F933F934F935F936F937F938F939F93BD
:10532000AF93BF93EF93FF93E0913801F091390170
:105330000995FF91EF91BF91AF919F918F917F91CF
:105340006F915F914F913F912F910F900BBE0F90F6
:105350000FBE0F901F9018951F920F920FB60F92CD
:1053600011240BB60F922F933F934F935F936F933C
:105370007F938F939F93AF93BF93EF93FF93E091AE
:105380003601F09137010995FF91EF91BF91AF91EF
:105390009F918F917F916F915F914F913F912F914D
:1053A0000F900BBE0F900FBE0F901F9018951F927D
:1053B0000F920FB60F9211240BB60F922F933F93BB
:1053C0004F935F936F937F938F939F93AF93BF930D
:1053D000EF93FF93E0913401F09135010995FF912E
:1053E000EF91BF91AF919F918F917F916F915F915D
:1053F0004F913F912F910F900BBE0F900FBE0F90CA
:105400001F9018950F931F93CF93DF938C01EB019F
:105410004CE050E00E94494EBE01645F7F4F4CE07B
:1054200050E0C8010C96DF91CF911F910F910C9421
:10543000494E1F920F920FB60F9211240BB60F9286
:105440002F933F934F935F936F937F938F939F938C
:10545000AF93BF93EF93FF938091A5090E944728D4
:105460002091A8093091A9092F5F3F4F3093A909D6
:105470002093A8099091720A943618F095E09093C1
:10548000A6099091A6099330B9F018F4923039F03A
:1054900057C0943059F1953009F44CC051C0811176
:1054A0004FC02091A8093091A9092436310508F48C
:1054B00043C01092720A1CC0813009F041C0E091D3
:1054C000720A91E09E0F9093720AF0E02091A80971
:1054D0003091A909EE0FFF1FEB55F64F3683258358
:1054E0001092A9091092A80994E021C0811117C057
:1054F000E091720A91E09E0F9093720AF0E0209181
:10550000A8093091A909EE0FFF1FEB55F64F36831E
:1055100025831092A9091092A80993E008C0209150
:10552000A8093091A9092536310550F095E09093EE
:10553000A60906C0811104C01092A9091092A809F9
:105540009091A709992329F0811102C02D9A01C0D9
:105550002D98FF91EF91BF91AF919F918F917F9186
:105560006F915F914F913F912F910F900BBE0F90D4
:105570000FBE0F901F901895CF92DF92EF92FF927F
:10558000CF93DF93EC01072E000C880B990B0E9440
:10559000114D6B017C0120E030E040E45FE30E94AC
:1055A000704D20E030E048E452E40E943B470E9406
:1055B000AD47C617D707D4F020E030E040EA5FE3FC
:1055C000C701B6010E94704D20E030E048E452E48B
:1055D0000E943B4720E030E040E85FE30E94CF4676
:1055E0000E94AD4721E06C177D070CF420E0822F6C
:1055F00090E0DF91CF91FF90EF90DF90CF900895F2
:105600000F930E94330981E080933A011092160DA6
:105610001092150D1092140D1092130D1092120D80
:105620001092110D1092100D0091D20522E030E081
:105630004FE555E060E070E080E090E00E94300AC5
:10564000E091AE0AF0E0EE0FFF1FED5CFD4F4081F0
:1056500051810091D20522E030E068E070E080E006
:1056600090E00E94300A0F9108950C94534E0C94D0
:10567000414ECF92DF92EF92FF920F931F93CF9301
:10568000DF93CDB7DEB72A970FB6F894DEBF0FBE13
:10569000CDBF9091160D992309F4C2C0182F0E9416
:1056A0001629C090CB05D090CC05E090CD05F090A8
:1056B000CE05DC01CB018C199D09AE09BF09853FE0
:1056C0009140A105B105B8F00E9416296093CB0561
:1056D0007093CC058093CD059093CE058091D00535
:1056E000882321F080911E0D811103C010931E0D9F
:1056F00002C010921E0D8091120D882341F08091FE
:105700001E0D80930F0D10931D0D10931C0D809195
:10571000110D882341F010930F0D80911E0D809381
:105720001D0D10931C0D8091100D882341F01093D6
:105730000F0D10931D0D80911E0D80931C0D0E9466
:1057400019200E941A240E943422E091F308F0E00C
:10575000EE0FFF1FE556FF4E6591749188EB95E0C3
:105760000E94564B88EB95E09F938F938FE693E0D2
:105770009F938F931F921AE01F93CE0101967C0195
:105780009F938F930E94F94700910F0D22E030E024
:10579000A70160E070E080E090E00E94300A0E9483
:1057A00019200E941A240E9434228091F2081F922C
:1057B0008F9398E6C92E95E0D92EDF92CF921F9253
:1057C0001F93FF92EF920E94F94700911D0D22E076
:1057D00030E0A70168E070E080E090E00E94300ACD
:1057E0000E9419200E941A240E9458229F938F938E
:1057F000DF92CF921F921F93FF92EF920E94F94780
:1058000000911C0D21E030E0A70168E070E084E128
:1058100090E00E94300A0FB6F894DEBF0FBECDBFF5
:105820002A960FB6F894DEBF0FBECDBFDF91CF91A1
:105830001F910F91FF90EF90DF90CF900895FF920E
:105840000F931F93CF93DF9300D0CDB7DEB7F82E21
:1058500080910E0D882309F454C00E9416290091EE
:10586000CB051091CC052091CD053091CE05DC0102
:10587000CB01801B910BA20BB30B853F9140A1057F
:10588000B10508F444C00E9416296093CB057093BB
:10589000CC058093CD059093CE058091150D88237E
:1058A00069F080910108811103C0F092010802C0E3
:1058B00010920108F0921B0DF0920D0D8091140DC5
:1058C000882369F080911B0D811103C0F0921B0D9C
:1058D00002C010921B0DF0920108F0920D0D809104
:1058E000130D8823A1F080910D0D811103C0F0925A
:1058F0000D0D02C010920D0DF0921B0DF0920108DB
:1059000006C0F0920108F0921B0DF0920D0D8091EF
:105910006D08882309F444C00E9419200E941A24AB
:105920000E9434222091F008222331F0822F90E04F
:105930002D3020F00C9702C08CE090E080931A0D7F
:105940000E9419200E941A240E9434228091F0089B
:1059500090E00C971CF44091010801C040E061E028
:1059600080E00E94950980911A0D2AE0622F0E9422
:1059700053460E945346911106C020E040916C08A6
:1059800061E070E006C0692F70E02091010840914D
:105990006C088EEF9FEF0E949D18E2E0F0E01CC0C3
:1059A0000E9419200E941A240E9434228091F0083B
:1059B00080931A0D2AE0622F0E9453460E9453469C
:1059C000692F70E02091010840916C0880E090E020
:1059D0000E949D18E0E0F0E080911A0D6AE00E94BC
:1059E0005346692F70E02091010840916C0886E0D1
:1059F00090E08E1B9F0B0E949D186F2D8FE00E94E0
:105A0000711C20911B0D40916C0829834A830E94D0
:105A100068220AE010E0B8010E947346CB01B80189
:105A20000E94734629814A81BC018FE090E00E9468
:105A30009D1820911B0D40916C0829834A830E9478
:105A40006822B8010E94734629814A81BC0186E11F
:105A500090E00E949D186F2D80E20E94711C2091A1
:105A60000D0D40916C0829834A830E946022B80181
:105A70000E947346CB01B8010E94734629814A8176
:105A8000BC0180E290E00E949D1820910D0D409194
:105A90006C0829834A830E946022B8010E947346E1
:105AA00029814A81BC0187E290E00F900F90DF913D
:105AB000CF911F910F91FF900C949D1880910C0D28
:105AC000882359F098E088E10FB6F894A895809360
:105AD00060000FBE90936000FFCF1092E00510921F
