:100000000C9463080C9471150C9446150C941B15F4
:100010000C948D080C948D080C948D080C948D080C
:100020000C948D080C94B3150C948D080C948D08C9
:100030000C948D080C948D080C948D080C948D08EC
:100040000C948D080C948D080C94BC140C948D08A1
:100050000C94AB130C9481130C948D080C948D08A4
:100060000C948D080C948D080C94CD290C948D085B
:100070000C948D080C948D080C948D080C948D08AC
:100080000C948D080C948D080C948D08083426343B
:1000900041345C3477349234B634B539CF39E439ED
:1000A000FF390A3A483A4F3A593A643A743A743A3C
:1000B000743A743A743A743A743A743A743A743AD0
:1000C000743A743A743A743A743A743A743A743AC0
:1000D000743A743A743A743A743AB539CA39CF39C1
:1000E000E439FF390A3A253A303A3B3A5D0B8B0B3B
:1000F000B10BD30BEB0BFB0B090CBB0DD40DEB0DB4
:10010000EE0D070E2A0E3F0EEE0EFD0E2E0F4C0FBB
:10011000630FF70F08101F103B107B0F900FA60FF7
:10012000BD0FD40FEB0FF40F761180119C11A411A9
:10013000AC11B011B411C5110E131113041308132F
:1001400028132813151319131F1323135E1A771A74
:10015000C21AE91A101BF21B001C0E1C2B1C1D1BC3
:100160002D1B4A1B7D1B8B1B991BC71BE81B446562
:1001700063656D626572004E6F76656D62657200D3
:100180004F63746F6265720053657074656D62656C
:100190007200417567757374004A756C79004A7511
:1001A0006E65004D617900417072696C004D61723D
:1001B0006368004665627275617279004A616E75A6
:1001C0006172790000556E61626C6520746F206603
:1001D000696E64206164647265737320666F722057
:1001E00044533138423230004F4646004F4E0044AF
:1001F0005331384232302070617261736974652006
:10020000706F7765722069733A200052464D313223
:100210004220446574656374696F6E204641494CA1
:100220002120286973206368697020707265736586
:100230006E743F290052464D313242204465746548
:1002400063746564204F4B210052544320686173EE
:1002500020736574207468652073797374656D20EC
:1002600074696D6500556E61626C6520746F2073F2
:10027000796E6320776974682074686520525443EE
:1002800000C401BC01B301AD01A701A3019E019906
:100290000192018801800177016E0156004261746C
:1002A000746572793A00526563656976696E672094
:1002B000446174612E2E2E0000000000000000003A
:1002C000000808080800080000361224000000009A
:1002D0000000143E143E140000081E281C0A3C00B6
:1002E00000003234081626000000182418261E00CC
:1002F000001818100000000000081010101008006E
:1003000000100808080810000000082A082A080041
:10031000000008083E08080000000000001808104F
:10032000000000003E00000000000000000C0C0077
:100330000000020408102000000C121212120C001F
:1003400000040C0404040E00000C120204081E0039
:10035000001E020C02120C000012121E0202020009
:10036000001E101C02120C00000C101C12120C00BB
:10037000001E020408080800000C120C12120C00E7
:10038000000C120E02120C0000000C0C000C0C00F1
:1003900000000C0C000C0408000004081008040005
:1003A0000000003E003E000000001008040810009D
:1003B000001C220408000800001C262A2E201E0013
:1003C000001C22223E222200003C223C22223C0031
:1003D000001C222020221C00003C222222223C0061
:1003E000003E203C20203E00003E203C20202000FB
:1003F000001C202026221E000022223E2222220053
:10040000001C080808081C00003E020202221C0012
:1004100000222438382422000020202020203E0002
:100420000022362A222222000022322A26222200FC
:10043000001C222222221C00003C223C2020200002
:1004400000182424242C1A00003C223C22222200E2
:10045000001E201C02221C00003E0808080808009C
:100460000022222222221C00002222221414080030
:10047000002222222A2A1400002214080814220032
:100480000022221408080800003E040810203E0044
:10049000001C101010101C000020100804020000A6
:1004A000001C040404041C000008142200000000C6
:1004B0000000000000003E000008040000000000F2
:1004C00000001C021E223E000020203C22223C0094
:1004D00000001C2020201C000002021E22221E0000
:1004E00000001C223E201C00000E10103C101000CA
:1004F00000001E223E02021C0020203C222222007C
:100500000008001808081C000008001E0202221C37
:1005100000202024382422000018080808081C00A5
:100520000000342A2A2A2A0000002C32222222002B
:1005300000001C2222221C0000003C223C20202023
:1005400000001C241C04040600002E302020200083
:1005500000001E201C023C0000083E08080806009F
:100560000000222222221E00000022222214080063
:10057000000022222A2A140000002214081422005B
:10058000000022221E02041800003E0408103E0053
:1005900000040808100808040008080808080800F3
:1005A00000100808040808100000102A04000000C9
:1005B00000102810000000000000000000000000F3
:1005C000000404040400040000050500000000000D
:1005D00000000C0F0C0F0C000004060C06060C04A7
:1005E00000003234081626000000182418261E00C9
:1005F000001818100000000000081010101008006B
:1006000000100808080810000000082A082A08003E
:10061000000008083E08080000000000001808104C
:10062000000000003E00000000000000000200008A
:100630000000020408102000000205050502000069
:100640000002060202070000000601020407000083
:100650000007010601060000000505070101000072
:10066000000704070106000000030407050200005C
:100670000007010204040000000705070507000049
:10068000000705070106000000000200020000004C
:100690000000060600060204000001020402010038
:1006A000000000070007000000000402010204002F
:1006B00000060102040004000006090B0B080600F6
:1006C00000020505070505000006050605050600EC
:1006D00000020504040502000006050505050600E4
:1006E00000070406040407000007040604040400CD
:1006F00000030404050503000005050705050500C2
:1007000000070202020207000007010101050200C2
:10071000000505060605050000040404040407009E
:100720000005070705050500000507050505050087
:100730000002050505050200000605060404040084
:10074000000205050507030000060506050505006E
:100750000003040201050200000702020202020077
:10076000000505050505070000050505050502004E
:10077000000505050507070000050502020505003F
:10078000000505050202020000070102040407003B
:100790000006040404040600000404020101000031
:1007A000000302020202030000020505000000002F
:1007B000000000000000070000020100000000002F
:1007C00000000601070507000004040705050700EF
:1007D00000000304040403000001010705050700ED
:1007E00000000204070403000003020207020200E3
:1007F00000000305070101060004040705050500C4
:1008000000020006020207000001000701010502C4
:1008100000000405060505000006020202020700AA
:100820000000060707050500000006050505050090
:100830000000020505050200000006050604040488
:100840000000030507010101000003040404040083
:100850000000030402010600000207020202010078
:10086000000005050505030000000505050502005B
:100870000000050505070700000005050205050045
:10088000000005050701010600000701020407003A
:10089000000102020402020100020202020202003E
:1008A00000040202010202040000040B0100000027
:1008B000446973706C6179204F7074696F6E732036
:1008C0004D656E7500446973706C6179205379735E
:1008D00074656D204D656E7500446973706C617947
:1008E00020446174652F54696D65204D656E7500F7
:1008F0005345543A2054696D657A6F6E65005363B1
:10090000726F6C6C2054656D70005363726F6C6C09
:10091000204461746500456E746572205363726F84
:100920006C6C205375626D656E75005772697469E1
:100930006E6720496E697469616C207365747469AF
:100940006E677320746F20454550524F4D21212111
:100950000053657474696E672053797374656D0014
:10096000005EBCE2613FDD83C29C7E20A3FD1F418F
:100970009DC3217FFCA2401E5F01E3BD3E6082DC7F
:10098000237D9FC1421CFEA0E1BF5D0380DE3C626F
:10099000BEE0025CDF81633D7C22C09E1D43A1FF5F
:1009A0004618FAA427799BC584DA3866E5BB59074F
:1009B000DB856739BAE406581947A5FB7826C49A3F
:1009C000653BD987045AB8E6A7F91B45C6987A242F
:1009D000F8A6441A99C7257B3A6486D85B05E7B91F
:1009E0008CD2306EEDB3510F4E10F2AC2F7193CD0F
:1009F000114FADF3702ECC92D38D6F31B2EC0E50FF
:100A0000AFF1134DCE90722C6D33D18F0C52B0EEEE
:100A1000326C8ED0530DEFB1F0AE4C1291CF2D73DE
:100A2000CA947628ABF517490856B4EA6937D58BCE
:100A30005709EBB536688AD495CB2977F4AA4816BE
:100A4000E9B7550B88D6346A2B7597C94A14F6A8AE
:100A5000742AC896154BA9F7B6E80A54D7896B359E
:100A600000002100240027002A00000022002500A9
:100A700028002B00000000010200090A000000000D
:100A80000403080700000000000000000000000050
:100A90000000000057726974696E67206E657720E8
:100AA00046772076657273696F6E000E1F131313FD
:100AB00013131313131F0E060E1E06060606060654
:100AC000061F1F1E1F030303060C1818181F1F1EE6
:100AD0001F0303030E0E0303031F1E181818181B11
:100AE0001F1F03030303031F1F1818181E1F0303F0
:100AF000031F1E0E1F1818181E1F1313131F0E1F7F
:100B00001F030303060C18181818180E1F131313CD
:100B10000E0E1313131F0E0E1F1313131F0F0303B9
:100B2000031F0E0000000000000000000000001F76
:100B30001F1B1B1B1B1B1B1B1B1F1F0C0C0C0C0C44
:100B40000C0C0C0C0C0C0C1F1F0303031F1F18189C
:100B5000181F1F1F1F0303031F1F0303031F1F1B58
:100B60001B1B1B1B1F1F03030303031F1F18181846
:100B70001F1F0303031F1F1F1F1818181F1F1B1BF6
:100B80001B1F1F1F1F030303030303030303031F91
:100B90001F1B1B1B1F1F1B1B1B1F1F1F1F1B1B1B89
:100BA0001F1F0303031F1F000000000000000000C0
:100BB0000000000E1F1B1B1B1B1B1B1B1B1F0E0201
:100BC000060E060606060606061F1F0E1F03030373
:100BD000060C1818181F1F0E1F0303030E0E030325
:100BE000031F0E030306060C0C1B1F030303031F46
:100BF0001F1818181E0F0303031F0E0E1F181818B6
:100C00001E1F1B1B1B1F0E1F1F030303060C1818A0
:100C10001818180E1F1B1B1B0E0E1B1B1B1F0E0E66
:100C20001F1B1B1B1F0F0303031F0E0000000000F0
:100C3000000000000000001F11111111111111110D
:100C400011111F0404040404040404040404041F14
:100C5000010101011F10101010101F1F01010101DF
:100C60001F01010101011F11111111111F010101CA
:100C70000101011F101010101F01010101011F1FB0
:100C8000101010101F11111111111F1F010101016E
:100C9000010101010101011F111111111F11111198
:100CA00011111F1F111111111F01010101011F005D
:100CB00000000000000000000000000E11111111E2
:100CC0001111111111110E040C0404040404040484
:100CD00004041F0E110101010204081010101F0E60
:100CE000110101010E01010101110E11111111116A
:100CF0001F0101010101011F101010101E0101014F
:100D000001110E0E111010101E11111111110E1FD4
:100D100001010101020408101010100E111111112F
:100D20000E11111111110E0E111111110F010101EE
:100D300001110E0000000000000000000000000093
:100D4000000000000000000008080808000800007B
:100D5000361224000000000000143E143E1400006F
:100D6000081E281C0A3C0000003234081626000029
:100D700000182418261E000018181000000000009B
:100D800008101010100800001008080808100000D3
:100D900000082A082A0800000008083E0808000089
:100DA00000000000180810000000003E00000000D5
:100DB000000000000C0C00000002040810200000DD
:100DC0001C262626261C00000C1C0C0C0C1E0000E9
:100DD0001C260C18303E00003E061C06261C000097
:100DE00026263E06060600003E303C06261C000075
:100DF0001C203C26261C00003E060C18181800007B
:100E00001C261C26261C00001C261E06261C000074
:100E1000000C0C000C0C0000000C0C000C04080072
:100E2000000408100804000000003E003E0000001E
:100E300000100804081000001C220408000800002C
:100E40001C262A2E201E00001C22223E22220000E8
:100E50003C223C22223C00001C222020221C0000BC
:100E60003C222222223C00003E203C20203E00006A
:100E70003E203C20202000001C202026221E0000B6
:100E800022223E22222200001C080808081C000022
:100E90003E020202221C00002224383824220000D4
:100EA00020202020203E000022362A22222200007C
:100EB00022322A26222200001C222222221C00008A
:100EC0003C223C2020200000182424242C1A00005E
:100ED0003C223C22222200001E201C02221C000078
:100EE0003E0808080808000022222222221C0000D6
:100EF00022222214140800002222222A2A1400008E
:100F000022140808142200002222140808080000F5
:100F10003E040810203E00001C101010101C0000A1
:100F200020100804020000001C040404041C00003B
:100F3000081422000000000000000000003E000035
:100F40000804000000000000001C021E223E0000F9
:100F500020203C22223C0000001C2020201C0000FD
:100F600002021E22221E0000001C223E201C000045
:100F70000E10103C10100000001E223E02021C0049
:100F800020203C222222000008001808081C000033
:100F900008001E0202221C00202024382422000007
:100FA00018080808081C000000342A2A2A2A000011
:100FB000002C322222220000001C2222221C0000CF
:100FC000003C223C20202000001C241C04040600BD
:100FD000002E302020200000001E201C023C0000BB
:100FE000083E08080806000000222222221E0000F7
:100FF00000222222140800000022222A2A140000C3
:1010000000221408142200000022221E02041800EC
:10101000003E0408103E0000040808100808040000
:10102000080808080808000010080804080810004C
:1010300000102A040000000010281000000000002A
:101040000020002300260029000202020202020200
:101050000204040404040404040303030303030359
:1010600003010101010101010101020408102040F6
:101070008001020408102040800102040810204072
:101080008001020408102040804E414E494E4954D0
:1010900059494E46CDCCCC3D0AD7233C17B7D13861
:1010A00077CC2B329595E6241FB14F0A00002041E2
:1010B0000000C84200401C4620BCBE4CCA1B0E5A51
:1010C000AEC59D74FA4011241FBECFEFD0E4DEBF41
:1010D000CDBF15E0A0E0B1E0E2E7F8E900E00BBF2A
:1010E00002C007900D92A430B107D9F72CE0A4E01C
:1010F000B5E001C01D92AA32B207E1F718E0C3E6DD
:10110000D8E004C02197FE010E94ED43C236D1070A
:10111000C9F70E94DE2E0C94374C0C940000662315
:1011200051F05C98962F982311F05E9A01C05E985A
:101130005C9A6695F4CF08958031E8F4883068F4BD
:1011400045B121E030E0B90102C0660F771F8A95F2
:10115000E2F7CB01842B85B908954BB1885021E08B
:1011600030E0B90102C0660F771F8A95E2F7CB0124
:10117000842B8BB90895282F30E0883160F448B172
:101180002051310981E090E001C0880F2A95EAF7EB
:10119000842B88B9089562B14FE150E0CA01821BE7
:1011A000930B9C0181E090E001C0880F2A95EAF73B
:1011B000862B82B908958031F8F4883070F445B1F7
:1011C00021E030E0B90102C0660F771F8A95E2F78F
:1011D000CB018095842385B908954BB1885021E0D7
:1011E00030E0B90102C0660F771F8A95E2F7CB01A4
:1011F000809584238BB90895282F30E0883168F4D6
:1012000048B12051310981E090E001C0880F2A9552
:10121000EAF78095842388B9089542B18FE190E080
:10122000BC01621B730B81E090E001C0880F6A95DE
:10123000EAF78095842382B90895DF92EF92FF92B6
:101240000F931F93CF93DF9306E815E0C9E1D1E038
:10125000DC2E84E0D80EE9908E2D0E94DB0864E03D
:1012600085E00E948F0860E480E00E948F0880E3A0
:10127000F82E60E880E00E948F08FA94F110F9CF10
:101280008E2D0E949C0880E090E0F801E80FF91F85
:101290001082019680369105C1F7005A1F4FDC126B
:1012A000DACFDF91CF911F910F91FF90EF90DF90F8
:1012B00008950F931F93CF93DF931F92CDB7DEB79F
:1012C000062FE82FF0E0E75EFE4F1081812F498363
:1012D0000E94DB0864E085E00E948F0860E4802FB4
:1012E0000E948F0868E04981842F0E948F08812F17
:1012F0000F90DF91CF911F910F910C949C08803635
:1013000008F044C0603108F041C098EE980F983161
:1013100018F4892F51E001C050E090ED980F9831FA
:1013200010F4892F52E098EB980F983110F4892F20
:1013300053E0962F937028E030E002C03595279552
:101340009A95E2F7982F990F990F65956595690F12
:1013500080E6589FF0011124862F062E000C990B71
:10136000DF01A80FB91FAA57BA4F442319F03C91C7
:10137000232B03C020953C9123232C93EA57FA4F4B
:10138000E80FF91F4081852F0C94590908958F9219
:101390009F92AF92BF92CF92DF92EF92FF920F9304
:1013A0001F93CF93DF93962E822E40321CF0C0EE17
:1013B000C40F01C0C0E098E0C99FE0011124C12C16
:1013C000D12C95E0B92EB80EF601EC0FFD1FE15CB3
:1013D000F24FE49185E0E82EF12C0E2F10E0AC2CBA
:1013E000A90CC8010E2C02C0959587950A94E2F7C6
:1013F00080FF02C0482D01C040E06A2D8B2D8E1960
:101400000E947F0981E0E81AF10858F78FEFC81AA7
:10141000D80A98E0C916D104B9F6DF91CF911F918F
:101420000F91FF90EF90DF90CF90BF90AF909F9083
:101430008F9008952F923F924F925F926F927F927A
:101440008F929F92AF92BF92CF92DF92EF92FF92D4
:101450000F931F93CF93DF93CDB7DEB727970FB6C8
:10146000F894DEBF0FBECDBF162F7C834A01390131
:10147000C0966C018B835F834E83F4010190002042
:10148000E9F73197E819F9098E819F81881999093F
:101490008E179F0708F0A2C022E06216710479F04F
:1014A00033E06316710409F446C0202F81E068160A
:1014B000710409F07EC0AE81BF814C917DC0EE8188
:1014C000FF818081803214F0805201C080E0F8E01A
:1014D0008F9F10011124412C512C25E02C0D2D83C0
:1014E000F201E20DF31DE854FD4FE49125E0A22E38
:1014F000B12CEE2EF12C342D310F3983C7010A2C7B
:1015000002C0959587950A94E2F780FF02C0402FAC
:1015100001C040E069818D818A190E947F0981E0C4
:10152000A81AB10858F7AFEF4A1A5A0AB8E04B1692
:101530005104B1F646C0EE81FF81808180528F3523
:1015400008F080E098E0899F900111243A83298374
:10155000A12CB12C93E0392E3B81330EE981FA8125
:10156000EA0DFB1DE854FA4FE49183E0E82EF12CDC
:101570004E2E512C2A2C210EC2010E2C02C0959504
:1015800087950A94E2F780FF02C0402F01C040E037
:10159000622D832D8E190E947F0981E0E81AF108DF
:1015A00058F7AFEFAA1ABA0AB8E0AB16B104B1F611
:1015B00008C0EE81FF814081612F7C81C6010E94BD
:1015C000C7092E813F812F5F3F4F3F832E8336E037
:1015D000C30ED11C3B813C5F3B834FCF27960FB698
:1015E000F894DEBF0FBECDBFDF91CF911F910F9159
:1015F000FF90EF90DF90CF90BF90AF909F908F9033
:101600007F906F905F904F903F902F9008950F9331
:101610001F93CF930E94B0140091340510913505AB
:101620002091360530913705DC01CB01801B910BF1
:10163000A20BB30B883C9105A105B10508F44BC181
:1016400080914607882309F446C10E94B014609334
:101650003405709335058093360590933705C09116
:101660001A07C23009F4E1C0C33009F405C1C13022
:1016700009F031C10E941D0980912D058C278093AE
:101680002C05C0931E0710921E05809121058F5FC7
:10169000883018F48093210502C0C0932105E091A1
:1016A00021058E2F90E0FC013197E730F10508F01D
:1016B00012C1EA58FF4F0C94ED430E941D0981E0CE
:1016C00080930E0180931E071092260780932507B2
:1016D00010922407109223071092220710922107DC
:1016E000109220071092060700912E0522E030E0AC
:1016F0004CE953E060E070E08EE090E00E941A0A4E
:1017000000912E0522E030E04AEF53E068E070E0FF
:1017100087E090E023C01092250781E080932407A2
:10172000109223071092220710922107109220078F
:1017300000912E0522E030E04CE953E060E070E0DB
:101740008EE090E00E941A0A00912E0522E030E01F
:1017500040EA53E068E070E085E090E00E941A0AF9
:10176000BAC010922607109225071092240781E034
:1017700080932307109222071092210710922007CE
:1017800000912E0522E030E04CE953E060E070E08B
:101790008EE090E00E941A0A00912E0522E030E0CF
:1017A00048EA53E0D7CF10920E010E941D09109213
:1017B0001E0781E08093260790912E0590931D07C8
:1017C00010922507109224071092230710922207E7
:1017D000809321070DC010921E07109225071092CA
:1017E00023071092240781E080932207109221079B
:1017F0001092200770C010922507109224071092B3
:101800002307109222071092210781E0809320077E
:1018100062C080EF98E00E941E2281E0809306075C
:10182000CF911F910F910C94521C0E941D09109290
:101830001B0710921E0791E090931E0580912205D0
:10184000853079F480912305811102C086E00AC0B9
:101850008F5F883018F48093230506C0909323058A
:1018600003C08F5F80932205809122058A3098F112
:1018700081E0809322052FC00E941D090E941D094E
:1018800010921B0710921E0710921E0581E0809394
:101890002B0580912405813079F4909125059111D3
:1018A00002C082E00AC09F5F983018F4909325052B
:1018B00006C08093250503C08F5F80932405809127
:1018C0002405833018F081E080932405CF911F9187
:1018D0000F910C941D09CF911F910F9108950F93B3
:1018E0001F930E94B014009134051091350520918A
:1018F000360530913705DC01CB01801B910BA20B23
:10190000B30B883C9105A105B10508F488C00E947D
:10191000B014609334057093350580933605909329
:1019200037050E94B01460932F05709330058093A3
:1019300031059093320591E09093460780912D05F3
:10194000892780932C0510921B0710921E07109276
:10195000260780911A078F5F843018F480931A0746
:1019600002C090931A0780911A07823009F18330E0
:10197000B9F1813009F053C089ED98E00E941E2230
:1019800010920E0110921E0510922B050E941D0947
:1019900001E021E030E040EB53E060E070E080E007
:1019A00090E00E941A0A21E030E049EB53E031C098
:1019B00085EC98E00E941E2210920E010E941D09E3
:1019C00001E021E030E040EC53E060E070E085E0D1
:1019D00090E00E941A0A21E030E047EC53E019C081
:1019E00080EB98E00E941E2210920E0110921E05BC
:1019F0000E941D0901E021E030E04DEC53E060E081
:101A000070E085E090E00E941A0A21E030E042EDAB
:101A100053E068E070E085E090E00E941A0A1F91B0
:101A20000F910895CF93DF93D62FE82FF0E0E75E74
:101A3000FE4FC0818C2F0E94DB0864E084E00E948E
:101A40008F0860E88D2F0E948F0861E080E00E947F
:101A50008F088C2FDF91CF910C949C08CF93DF934C
:101A6000813029F093E0863018F085E001C091E0E4
:101A7000989FC02D1124C056D0E06C2F8D2F0E944E
:101A8000120DDF5FD530C9F7DF91CF9108950F9325
:101A90001F93CF93DF93CDB7DEB727970FB6F89498
:101AA000DEBF0FBECDBF0E94B0140091340510916F
:101AB00035052091360530913705DC01CB01801BBF
:101AC000910BA20BB30B883C9105A105B10508F45D
:101AD0007EC481E080932D0510922C050E94B014E5
:101AE00060933405709335058093360590933705E0
:101AF00080911A07823009F45FC1833009F4E1C391
:101B0000813009F064C40E94E8250E94EE2880918B
:101B10003F0780930C070E94222980930B070E94A5
:101B20001A2980930A070E94E8250E94EE288091D6
:101B30004207809309070E94E8250E94EE288091C1
:101B40004107809308070E94E8250E94122964E655
:101B500070E00E94D94380930707E09121054E2F42
:101B600050E0FA013197E730F10508F0A8C0E358DA
:101B7000FF4F0C94ED439091330580910C0799230E
:101B800011F0815001C08F5F80930C0780910C078A
:101B90008F3F21F487E180930C0791C0883108F4CE
:101BA0008EC010920C078BC09091330580910B076B
:101BB000992311F0815001C08F5F80930B078091B2
:101BC0000B078F3F21F48BE380930B0704C08C330A
:101BD00010F010920B0710920A0771C09091330514
:101BE00080910807992311F0815001C08F5F809385
:101BF0000807809108078F3F21F48FE18093080741
:101C00005EC0803208F45BC01092080758C0909103
:101C1000330580910907992311F0815001C08F5F2E
:101C20008093090780910907811102C08CE003C0ED
:101C30008D3018F081E08093090700911F0722E0A2
:101C400030E04AED53E060E070E080E090E00E9418
:101C50001A0A35C090913305992311F0815001C0C3
:101C60008F5F8093070780910707803110F488E227
:101C700003C0893220F180E18093070720C0909152
:101C8000330580910309992311F0815001C08F5FC2
:101C90008093030980910309883010F010920309A2
:101CA0006091030988E190E00E94871C6FE070E07A
:101CB00080E090E00E94761481E080931C070E94EF
:101CC000B01400912F05109130052091310530910D
:101CD0003205DC01CB01801B910BA20BB30B893EBB
:101CE0009340A105B10578F180910A078F5F8C338D
:101CF00018F480930A0707C010920A0780910B0717
:101D00008F5F80930B0780910B078C3338F0109214
:101D10000B0780910C078F5F80930C0780910C0755
:101D2000883138F010920C07809108078F5F8093FC
:101D300008070E94B01460932F05709330058093BC
:101D40003105909332058091070790E06091090773
:101D50005091080720910A0730910B0740910C071A
:101D6000843691051CF0825B974001C04E968093AB
:101D70004307609342075093410740933F073093D6
:101D80003E0720933D078DE397E00E9472260E9454
:101D9000C1250E94E825AE014F5F5F4F0E941D28BC
:101DA000CE0101960E942A2980910607882309F412
:101DB0000EC30E94521C0BC381E599E00E941E22B3
:101DC000E09122058E2F90E0FC013197E930F1057A
:101DD00008F0FDC2EC57FF4F0C94ED438091C90B06
:101DE000811104C081E08093C90B02C01092C90B1D
:101DF0006091C90B80E090E05FC00E941D09909146
:101E0000330580911305992311F0815001C08F5F34
:101E100080931305809113058F3F21F485E0809313
:101E2000130504C0863010F010921305609113055D
:101E300084E090E00E94871C6FE070E080E090E01A
:101E40000E9476141092190780911305811103C026
:101E50000E94EC1EBCC20E942E0DB9C20E941D0938
:101E6000909133058091C80B992311F0815001C0E6
:101E70008F5F8093C80B8091C80B8F3F21F484E063
:101E80008093C80B04C0853010F01092C80B60918D
:101E9000C80B88E090E070C20E941D09809129075C
:101EA000882319F01092290703C081E08093290745
:101EB000609129078EE090E00E94871C6FE070E03F
:101EC00080E090E05FC20E941D09E091230581E05F
:101ED000EE2371F080931C078E2F90E0FC01319768
:101EE000E730F10508F073C2E357FF4F0C94ED4360
:101EF000809323056CC280913D05882319F01092D0
:101F00003D0509C081E080933D056FE070E080E011
:101F100090E00E94761460913D0586E190E02CC22D
:101F20009091330580911005992311F0815001C0E3
:101F30008F5F8093100580911005833010F0109210
:101F40001005609110058BE190E016C29091330569
:101F500080910E05992311F0815001C08F5F80930D
:101F60000E0580910E05853118F081E080930E05F5
:101F700060910E058EE190E0FFC190913305809154
:101F80000F05992311F0815001C08F5F80930F05D9
:101F900080910F05853118F081E080930F056091E5
:101FA0000F0580E290E0E8C1909133058091280709
:101FB000992311F0815001C08F5F80932807809191
:101FC0002807853118F081E0809328076091280761
:101FD00081E290E0D1C16091270781E0682760939A
:101FE000270782E290E0C8C110922305F0C10E9449
:101FF0001D0980913B05882319F010923B0503C011
:1020000081E080933B0560913B0587E190E054CFF0
:102010000E941D0980913C05882319F010923C050F
:1020200003C081E080933C0560913C0589E190E02C
:102030000E94871C6FE070E080E090E016C00E9474
:102040001D0980911205882319F01092120503C012
:1020500081E0809312056091120584E290E00E9475
:10206000871C65E070E080E090E00E94761481E0DB
:1020700080931C07ACC10E941D098BE299E00E946D
:102080001E2260E080E090E00E94871C62E370E026
:1020900080E090E00E94761463E084E090E00E948B
:1020A000871C62E370E080E090E00E94761461E0BB
:1020B00085E090E00E94871C62E370E080E090E0A1
:1020C0000E9476146AE686E090E00E94871C62E334
:1020D00070E080E090E00E94761461E088E090E09B
:1020E0000E94871C62E370E080E090E00E9476141A
:1020F00061E08EE090E00E94871C62E370E080E087
:1021000090E00E94761462E080E190E00E94871CDB
:1021100062E370E080E090E00E9476146FEF81E16E
:1021200090E00E94871C62E370E080E090E00E94F3
:10213000761461E082E190E00E94871C62E370E027
:1021400080E090E00E94761462E084E190E00E94DA
:10215000871C62E370E080E090E00E94761462E009
:1021600085E190E00E94871C62E370E080E090E0EF
:102170000E94761460E086E190E00E94871C62E392
:1021800070E080E090E00E94761460E087E190E0EB
:102190000E94871C62E370E080E090E00E94761469
:1021A00060913C0589E190E00E94871C62E370E049
:1021B00080E090E00E94761460E08BE190E00E9465
:1021C000871C62E370E080E090E00E94761461E09A
:1021D0008EE190E00E94871C62E370E080E090E076
:1021E0000E94761465E08FE190E00E94871C62E314
:1021F00070E080E090E00E94761461E080E290E080
:102200000E94871C62E370E080E090E00E947614F8
:1022100065E081E290E00E94871C62E370E080E06C
:1022200090E00E94761460E082E290E00E94871CB9
:1022300069E170E080E090E00E94761460E084E262
:1022400090E00E94871C69E170E080E090E00E94CD
:10225000761464E670E084EF99E00E949C1564E9CE
:1022600070E08CEC99E00E949C1564EC70E084EACC
:1022700099E00E949C1564EF70E08CE799E00E9461
:102280009C1564E271E084E599E00E949C1564E588
:1022900071E08CE299E00E949C1564E871E084E0B2
:1022A00099E00E949C1564EB71E08CE19AE00E9439
:1022B0009C150E947B1F81E080931C070E94B01E2A
:1022C00086C080912405813021F0823009F460C0FD
:1022D0007EC0E09125058E2F90E08830910508F0B2
:1022E00076C0FC01EC56FF4F0C94ED430E941D0993
:1022F00081E08093250586E199E00E941E2267C057
:102300009091330580912005992311F0815001C0EF
:102310008F5F8093200580912005811104C089E0A2
:102320008093200504C08A3010F01092200560913F
:10233000200580E190E041C08AE099E00E941E22E1
:1023400060913A05605814C08EEF98E00E941E22FA
:1023500060913A0580E40BC060913A0580E207C0C5
:1023600060913A0580E103C060913A0588E06827F2
:1023700060933A0585E190E00E94871C65E070E07B
:1023800080E090E00E94761422C0109225051FC0C4
:102390009091330580911F05992311F0815001C060
:1023A0008F5F80931F0580911F058A3014F0109273
:1023B0001F0560911F0584E190E00E94871C65E085
:1023C00070E080E090E00E9476140E941D0927963C
:1023D0000FB6F894DEBF0FBECDBFDF91CF911F9136
:1023E0000F910895CF92DF92EF92FF920F931F9378
:1023F000CF93DF936C017A018B01C0E0D0E0CE1562
:10240000DF0589F0D8016D918D01D601ED91FC9128
:102410000190F081E02DC6010995892B11F47E0110
:1024200002C02196ECCFC701DF91CF911F910F9190
:10243000FF90EF90DF90CF900895FC01918D828DF9
:10244000981761F0828DDF01A80FB11D5D968C9108
:10245000928D9F5F9F73928F90E008958FEF9FEF13
:102460000895FC01918D828D981731F0828DE80FCF
:10247000F11D858D90E008958FEF9FEF0895FC0189
:10248000918D228D892F90E0805C9F4F821B910956
:102490008F73992708958AE497E00E943F1221E004
:1024A000892B09F420E0822F0895FC01848DDF013F
:1024B000A80FB11DA35ABF4F2C91848D90E00196B7
:1024C0008F739927848FA689B7892C93A089B189A6
:1024D0008C9180648C93938D848D981306C00288B0
:1024E000F389E02D80818F7D80830895EF92FF92A4
:1024F0000F931F93CF93DF93EC0181E0888F9B8D27
:102500008C8D981305C0E889F989808185FD24C0E8
:10251000F62E0B8D10E00F5F1F4F0F731127E02E6B
:102520008C8DE8120CC00FB607FCFACFE889F98948
:10253000808185FFF5CFCE010E945512F1CF8B8DA2
:10254000FE01E80FF11DE35AFF4FF0820B8FEA897D
:10255000FB898081806207C0EE89FF896083E889FA
:10256000F98980818064808381E090E0DF91CF9160
:102570001F910F91FF90EF900895CF93DF93EC019F
:10258000888D8823C9F0EA89FB89808185FD05C093
:10259000A889B9898C9186FD0FC00FB607FCF5CFCD
:1025A000808185FFF2CFA889B9898C9185FFEDCF15
:1025B000CE010E945512E7CFDF91CF91089580E0C0
:1025C00090E0892B21F00E944B1281110DC080E018
:1025D00090E0892B71F080E090E0892B51F00E940F
:1025E0000000811104C008950E940000F0CF0C94F7
:1025F0000000089590E0FC013197EA30F10540F5C4
:10260000E456FF4F0C94ED43809180008F7703C018
:10261000809180008F7D80938000089584B58F77AE
:1026200002C084B58F7D84BD08958091B0008F77FE
:1026300003C08091B0008F7D8093B0000895809199
:1026400090008F7703C0809190008F7D80939000E1
:1026500008953FB7F8948091150790911607A091BF
:102660001707B091180726B5A89B05C02F3F19F092
:102670000196A11DB11D3FBFBA2FA92F982F882702
:10268000820F911DA11DB11DBC01CD0142E0660F5D
:10269000771F881F991F4A95D1F7089508950895C7
:1026A000FC0190810180F281E02D892F809560FFEF
:1026B00012C0F8942281822382838181892B8183B5
:1026C000A3E2B0E01197F1F78281982B928378947E
:1026D00087ED90E011C0F89422818223828381816A
:1026E000892B8183AFEFB0E01197F1F78281982BAE
:1026F000928378948FE090E00197F1F708950E941B
:1027000067451F920F920FB60F9211240BB60F92CE
:102710002F933F934F935F936F937F938F939F93E9
:10272000AF93BF93EF93FF938AE497E00E94551213
:10273000FF91EF91BF91AF919F918F917F916F9199
:102740005F914F913F912F910F900BBE0F900FBE55
:102750000F901F9018951F920F920FB60F92112491
:102760000BB60F922F938F939F93EF93FF93E0916C
:102770005A07F0915B078081E0916007F091610753
:1027800082FD12C09081809163078F5F8F732091CB
:102790006407821751F0E0916307F0E0E65BF84FC1
:1027A000958F8093630701C08081FF91EF919F9186
:1027B0008F912F910F900BBE0F900FBE0F901F9017
:1027C0001895CF93DF93282F30E0F901EC58F54F9F
:1027D0008491F901E759FF4ED491F901E75BFF4E6F
:1027E000C491CC2391F081110E94FA12EC2FF0E0F9
:1027F000EE0FFF1FE15CFF4EA591B491EC91ED232C
:1028000081E090E021F480E002C080E090E0DF9180
:10281000CF9108951F93CF93DF93282F30E0F901D4
:10282000EC58F54F8491F901E759FF4ED491F90125
:10283000E75BFF4EC491CC23C9F0162F81110E9493
:10284000FA12EC2FF0E0EE0FFF1FE659F54FA591BD
:10285000B4918FB7F894111105C09C91ED2FE095BC
:10286000E92302C0EC91ED2BEC938FBFDF91CF9168
:102870001F910895CF93DF9390E0FC01E759FF4E3D
:102880002491FC01E75BFF4E8491882361F190E085
:10289000880F991FFC01E05AF54FC591D491FC01B6
:1028A000E659F54FA591B491611109C09FB7F8940D
:1028B0008881209582238883EC912E230BC062307F
:1028C00061F49FB7F8943881822F809583238883A1
:1028D000EC912E2B2C939FBF06C08FB7F894E88104
:1028E0002E2B28838FBFDF91CF9108958F929F92D7
:1028F000AF92BF92CF92DF92EF92FF926B017C0179
:102900000E9429134B015C01C114D104E104F104BC
:10291000F1F00E942913DC01CB0188199909AA0959
:10292000BB09883E9340A105B10570F321E0C21AAE
:10293000D108E108F10888EE880E83E0981EA11CFA
:10294000B11CC114D104E104F10419F7DDCFFF90EB
:10295000EF90DF90CF90BF90AF909F908F900895B1
:102960002FB7F894609111077091120780911307A7
:10297000909114072FBF08951F920F920FB60F92D8
:1029800011242F933F938F939F93AF93BF93809185
:10299000110790911207A0911307B091140730917D
:1029A000100723E0230F2D3720F40196A11DB11D40
:1029B00005C026E8230F0296A11DB11D2093100724
:1029C0008093110790931207A0931307B0931407F5
:1029D0008091150790911607A0911707B0911807DD
:1029E0000196A11DB11D8093150790931607A09322
:1029F0001707B0931807BF91AF919F918F913F91A7
:102A00002F910F900FBE0F901F901895813039F0C5
:102A100020F0823029F4EA9803C0E89801C0E998D0
:102A2000E82FF0E0EE0FFF1FE85FFE4F8EE493E12A
:102A30009183808308951F920F920FB60F921124F5
:102A40000BB60F922F933F934F935F936F937F93A8
:102A50008F939F93AF93BF93EF93FF93E0910C01FC
:102A6000F0910D010995FF91EF91BF91AF919F9169
:102A70008F917F916F915F914F913F912F910F9027
:102A80000BBE0F900FBE0F901F9018951F920F92C4
:102A90000FB60F9211240BB60F922F933F934F93C3
:102AA0005F936F937F938F939F93AF93BF93EF93B6
:102AB000FF93E0910A01F0910B010995FF91EF91CD
:102AC000BF91AF919F918F917F916F915F914F9146
:102AD0003F912F910F900BBE0F900FBE0F901F9044
:102AE00018951F920F920FB60F9211240BB60F92EA
:102AF0002F933F934F935F936F937F938F939F9306
:102B0000AF93BF93EF93FF93E0910801F091090118
:102B10000995FF91EF91BF91AF919F918F917F9117
:102B20006F915F914F913F912F910F900BBE0F903E
:102B30000FBE0F901F9018950F931F93CF93DF93A5
:102B40008C01EB014CE050E00E94BC4BBE01645F85
:102B50007F4F4CE050E0C8010C96DF91CF911F9160
:102B60000F910C94BC4B1F920F920FB60F92112431
:102B70000BB60F922F933F934F935F936F937F9377
:102B80008F939F93AF93BF93EF93FF938091FA0737
:102B90000E94E1132091FD073091FE072F5F3F4F08
:102BA0003093FE072093FD079091C708943618F0E4
:102BB00095E09093FB079091FB079330B9F018F4E0
:102BC000923039F057C0943059F1953009F44CC027
:102BD00051C081114FC02091FD073091FE0724366E
:102BE000310508F443C01092C7081CC0813009F0B9
:102BF00041C0E091C70891E09E0F9093C708F0E0B4
:102C00002091FD073091FE07EE0FFF1FE650F84FB1
:102C1000368325831092FE071092FD0794E021C0B1
:102C2000811117C0E091C70891E09E0F9093C708EB
:102C3000F0E02091FD073091FE07EE0FFF1FE650F8
:102C4000F84F368325831092FE071092FD0793E01C
:102C500008C02091FD073091FE072536310550F060
:102C600095E09093FB0706C0811104C01092FE0707
:102C70001092FD079091FC07992329F0811102C061
:102C80002D9A01C02D98FF91EF91BF91AF919F9127
:102C90008F917F916F915F914F913F912F910F9005
:102CA0000BBE0F900FBE0F901F901895CF92DF9222
:102CB000EF92FF92CF93DF93EC01072E000C880B6D
:102CC000990B0E94844A6B017C0120E030E040E4D3
:102CD0005FE30E94E34A20E030E048E452E40E94CF
:102CE000B5440E942745C617D707D4F020E030E04E
:102CF00040EA5FE3C701B6010E94E34A20E030E00A
:102D000048E452E40E94B54420E030E040E85FE34C
:102D10000E9449440E94274521E06C177D070CF46E
:102D200020E0822F90E0DF91CF91FF90EF90DF9035
:102D3000CF9008950F931F93CF93DF931F92CDB73A
:102D4000DEB7182F2CB521602CBD60E080911301F7
:102D500099830E940A1499819EBD0DB407FEFDCF90
:102D60008EB5282F30E0322F22271EBD0DB407FE6E
:102D7000FDCF8EB58901082B61E0809113010E947F
:102D80000A148CB58E7F8CBDC8010F90DF91CF9156
:102D90001F910F9108958091140196EF980F923032
:102DA00010F0823099F520914907222341F18230B9
:102DB00019F0933058F5892FE82FF0E0EE0FFF1F40
:102DC000E85FFE4F2FE137E131832083813049F006
:102DD000823071F0809169008C7F80936900E89A5D
:102DE000089580916900837F80936900E99A08952E
:102DF000809169008F7C80936900EA9A08958230FF
:102E000019F0933018F4892F0C940615089586272D
:102E1000682F62956827062E669566956025062EB2
:102E2000669560256770082E892F669507946795CB
:102E3000902D862706946795902586270895CF9331
:102E400080E090E00E949A1680914707853009F053
:102E500094C080910E0790910F07892B91F080917B
:102E60000D0784FD0EC085E880937A0080910D07E0
:102E70008F70806480937C0080917A00806480935E
:102E80007A0080E090EB0E949A16682F80910E07DE
:102E900090910F07892B69F080910D0784FD09C07F
:102EA00080917A0086FDFCCF90917A009064909397
:102EB0007A008091CF0B81110EC080914807882342
:102EC00051F0E091CF0B91E09E0F9093CF0BF0E08B
:102ED000E954F54F8083E091CF0B81E08E0F809312
:102EE000CF0BF0E0E954F54F60838091CD0B9091CA
:102EF000CE0B0E9407179093CE0B8093CD0B809141
:102F00000E0790910F07892B39F180910D0784FDF1
:102F100023C08091CA0B8138F8F480917A0086FD35
:102F2000FCCF809178002091790090E0922B9C0159
:102F30002C5331092F35314078F42091CB0B30914F
:102F4000CC0B820F931F9093CC0B8093CB0B809173
:102F5000CA0B8F5F8093CA0B8091BA0A2091CF0B66
:102F600090E0059630E0821793070CF456C08091EC
:102F7000CF0B863808F051C055C08091470787FFB6
:102F80001BC0E091BA0A8091470791E0980F909397
:102F90004707EC5F8E0FE82FF0E0E954F54FC08152
:102FA0008091CD0B9091CE0B6C2F0E9407179093C0
:102FB000CE0B8093CD0B2DC08091470791E0980FE9
:102FC000909347078330F1F054F48823A9F08130BF
:102FD000E9F48091CD0B9091CE0BC92F1AC08930A6
:102FE000B9F08A3099F4C09148079091BA0A8DEFF0
:102FF000891B809347070DC08091CD0B9091CE0B1C
:10300000C82F07C08DE092E80E949A16CAEA01C054
:10301000CDE28C2F90E0985402C08DE092E8CF91E1
:103020000C949A16CF910895DC01E0E0615038F0DD
:103030008D91E827F0E0E05AF64FE491F7CF8E2F1C
:103040000895CF92DF92EF92FF920F931F93CF9349
:10305000DF931F92CDB7DEB76C01E62E08E010E0DB
:10306000FF24F39461E08F2D8E2109F460E0C60106
:1030700049830E945013FF0C015011094981011529
:10308000110581F7411115C0F894D6011196ED9103
:10309000FC91129791818C9180958923818311965F
:1030A000ED91FC91129792818C9180958923828376
:1030B00078940F90DF91CF911F910F91FF90EF9037
:1030C000DF90CF900895CF92DF92EF92FF920F930F
:1030D0001F93CF93DF931F92CDB7DEB78C01F62EEF
:1030E00040E065E579830E942118CF2C7981D72EA5
:1030F000760188E0E80EF11CF60161916F0140E075
:10310000C8010E942118CE14DF04B1F70F90DF919F
:10311000CF911F910F91FF90EF90DF90CF90089586
:10312000FC0190810180F281E02DF8948181892B4E
:1031300081832281892F809528232283A7E0B0E014
:103140001197F1F7218182238183A3E2B0E01197E7
:10315000F1F780817894EFECF0E03197F1F7982364
:1031600081E009F480E00895EF92FF920F931F939E
:10317000CF93DF937C0108E010E0C0E0D1E0C7010D
:103180000E9490188111CD2BDD0F01501109B9F764
:103190008C2FDF91CF911F910F91FF90EF900895A9
:1031A000FC0190810180F281E02DF8948181292F2A
:1031B00020958223818378948DE743E050E081500D
:1031C00021F1DA011197F1F730813923C1F3F89435
:1031D0008281822382838181892B81837894ABECE5
:1031E000B7E01197F1F7F894818128232183ABE3AD
:1031F000B1E01197F1F78081982381E009F080E038
:103200007894EBE8F6E03197F1F70895AF92BF922A
:10321000CF92DF92EF92FF920F931F93CF93DF93A2
:103220001F92CDB7DEB75C01E62ED72EFC01858557
:1032300081115DC0C5010E94D018811105C0F50142
:103240001386158614866BC040E060EFC5010E94AE
:10325000211801E0F12CC12C11E0C5010E94901849
:10326000682FC50169830E9490186981613019F443
:103270008130B9F433C04F2D50E068131BC0F50105
:103280008385181730F4E40FF51F8381802349F4F8
:1032900002C0181731F060E0193058F4F5011487B6
:1032A00008C0F501EF0DF11D8381802B838361E060
:1032B00009C0C12EF501E40FF51F9381802F809581
:1032C00089238383C5010E9450131F5F000F11F4EF
:1032D000F39401E0F7E0FF1508F0BFCF113438F0A8
:1032E000F501C386C11015C081E0858712C0F501C4
:1032F00013861586148680E0D5011396EE2DFD2DDC
:103300009501255F3F4F9D919193A217B307D9F780
:1033100006C0F5018381882351F381E0EDCF0F9042
:10332000DF91CF911F910F91FF90EF90DF90CF90A1
:10333000BF90AF9008959091ED078091EC0798179A
:1033400050F4E92FF0E0E85AF44F208130E09F5F1D
:103350009093ED0702C02FEF3FEFC90108958091D0
:10336000EC0790E02091ED07821B91090895CF9220
:10337000DF92EF92FF920F931F93CF93DF937C0125
:10338000262F972F8A018091020C882391F0C62F57
:10339000D72F6E01C40ED51ECC15DD0571F06991D5
:1033A000D701ED91FC910190F081E02DC7010995C5
:1033B000F3CF642F822F0E94FF2AC801DF91CF91A3
:1033C0001F910F91FF90EF90DF90CF900895CF93D2
:1033D000DF931F92CDB7DEB769832091020C2223C1
:1033E000D1F02091EA07203240F021E030E0FC01EA
:1033F0003383228380E090E015C08091EB07E82FB3
:10340000F0E0ED5FF34F998190838F5F8093EB073E
:103410008093EA0705C061E0CE0101960E94FF2A71
:1034200081E090E00F90DF91CF910895CF92DF92ED
:10343000EF92FF920F931F93CF93DF93CDB7DEB739
:1034400028970FB6F894DEBF0FBECDBF10912E05A2
:103450000E94B014C0902705D0902805E09029055F
:10346000F0902A05DC01CB018C199D09AE09BF093A
:10347000853F9140A105B10598F00E94B01460937A
:103480002705709328058093290590932A0580913C
:103490002605811103C01093260502C0109226054F
:1034A000E09122058E2F90E0FC013197E930F10583
:1034B00008F0E9C1EA55FF4F0C94ED43012F21E0DC
:1034C00030E044EE53E060E070E080E090E00E9485
:1034D0001A0A8091C90B0091260521E030E088236B
:1034E00019F04DEE53E044C047EF53E041C0012FC7
:1034F00021E030E040E054E060E070E080E090E007
:103500000E941A0A80911305823009F160F4882321
:10351000B9F0813009F0B7C10091260521E030E013
:103520004EE054E025C0843031F1E0F0853009F000
:10353000AAC10091260521E030E044E254E09DC19B
:103540000091260521E030E049E054E011C00091EF
:10355000260521E030E044E154E068E070E088E0D6
:1035600090E08FC10091260521E030E048E154E071
:1035700068E070E034C10091260521E030E04FE1C1
:1035800054E0B6C0012F21E030E04CE254E060E0AE
:1035900070E081E090E00E941A0A8091C80B1F92AF
:1035A0008F9382E394E09F938F931F9288E08F9391
:1035B000CE0101967C019F938F930E946C450091F0
:1035C000260521E030E0A70168E070E081E090E0AE
:1035D000D6C0012F21E030E04AEE52E060E070E01A
:1035E00080E090E00E941A0A21E030E049E354E0D4
:1035F00068E070E080E090E00E941A0A809129075C
:103600000091260521E030E0882319F043E554E0DD
:1036100002C046E253E068E070E088E290E031C129
:10362000E09123058E2F90E08830910508F02BC1A2
:10363000FC01E155FF4F0C94ED43012F21E030E0F8
:1036400040E454E060E070E08AE090E00E941A0AF2
:1036500021E030E04AEC52E010C1012F21E030E0DF
:1036600046E454E060E070E081E090E00E941A0AD5
:1036700080913D050091260521E030E0882319F076
:103680004EE454E002C041E554E068E070E08FE0B1
:1036900090E0F7C080913D05811104C087E08093E0
:1036A0002305F1C0012F21E030E045E554E060E062
:1036B00070E081E090E00E941A0A8091100581304C
:1036C00051F080F0823071F40091260521E030E065
:1036D0004BE654E00DC00091260521E030E043E6C2
:1036E00054E006C00091260521E030E04BE554E0AF
:1036F00068E070E085E090E0C4C0012F21E030E098
:1037000043E754E060E070E085E090E00E941A0A30
:1037100080910E051BC0012F21E030E04EE754E000
:1037200060E070E081E090E00E941A0A80910F054D
:103730000DC0012F21E030E046E854E060E070E089
:1037400081E090E00E941A0A809128071F928F93CF
:1037500088E794E09F938F931F9288E08F93CE0128
:1037600001967C019F938F930E946C4500912605E2
:1037700021E030E0A70168E070E08FE090E00E9477
:103780001A0A0FB6F894DEBF0FBECDBF7CC0012F62
:1037900021E030E04DE854E060E070E081E090E04E
:1037A0000E941A0A80912707882339F00091320776
:1037B00021E030E04DEA54E006C00091260521E00A
:1037C00030E04FE454E068E070E084E190E059C0FC
:1037D000012F21E030E04CE053E060E070E081E058
:1037E00090E04FC0012F21E030E045E954E060E077
:1037F00070E082E090E00E941A0A80913B051BC0B5
:10380000012F21E030E049E954E060E070E082E01F
:1038100090E00E941A0A80913C050DC0012F21E022
:1038200030E04DE954E060E070E080E090E00E941C
:103830001A0A809112050091260521E030E08823C4
:1038400019F04EE454E002C041E554E068E070E055
:103850008AE090E016C00091260521E030E047EABA
:1038600054E060E070E082E090E00E941A0A00916B
:10387000260521E030E04FEA54E068E070E080E0A7
:1038800090E00E941A0A28960FB6F894DEBF0FBE89
:10389000CDBFDF91CF911F910F91FF90EF90DF90FF
:1038A000CF9008950F930E941D0981E080930E012F
:1038B00010922607109225071092240710922307D2
:1038C00010922207109221071092200700912E05D6
:1038D00022E030E048EB54E060E070E080E090E00F
:1038E0000E941A0AE0910309F0E0EE0FFF1FE15E6B
:1038F000FE4F4081518100912E0522E030E068E0CA
:1039000070E080E090E00E941A0A0F9108950C94F4
:10391000C64B0C94B44BCF92DF92EF92FF920F9371
:103920001F93CF93DF93CDB7DEB72A970FB6F894E6
:10393000DEBF0FBECDBF90912607992309F4C2C008
:10394000182F0E94B014C0902705D0902805E09051
:103950002905F0902A05DC01CB018C199D09AE09DF
:10396000BF09853F9140A105B105B8F00E94B01490
:1039700060932705709328058093290590932A0565
:1039800080912C05882321F080913107811103C09B
:103990001093310702C010923107809122078823CB
:1039A00041F08091310780931F07109330071093E7
:1039B0002F0780912107882341F010931F078091E2
:1039C00031078093300710932F07809120078823B9
:1039D00041F010931F0710933007809131078093B7
:1039E0002F070E94E8250E9468230E94EE28E0919C
:1039F0004207F0E0EE0FFF1FEF57FD4F6591749106
:103A000084E195E00E94C94884E195E09F938F93FB
:103A100081EC94E09F938F931F921AE01F93CE0145
:103A200001967C019F938F930E946C4500911F0724
:103A300022E030E0A70160E070E080E090E00E94CA
:103A40001A0A0E94E8250E9468230E94EE288091AD
:103A500041071F928F9394ECC92E94E0D92EDF92E8
:103A6000CF921F921F93FF92EF920E946C4500919C
:103A7000300722E030E0A70168E070E080E090E0ED
:103A80000E941A0A0E94E8250E9468230E941229B7
:103A90009F938F93DF92CF921F921F93FF92EF928B
:103AA0000E946C4500912F0721E030E0A70168E0FB
:103AB00070E084E190E00E941A0A0FB6F894DEBF2D
:103AC0000FBECDBF2A960FB6F894DEBF0FBECDBF96
:103AD000DF91CF911F910F91FF90EF90DF90CF90EA
:103AE0000895FF920F931F93CF93DF9300D0CDB72C
:103AF000DEB7F82E80911E07882309F454C00E9477
:103B0000B0140091270510912805209129053091C6
:103B10002A05DC01CB01801B910BA20BB30B853F67
:103B20009140A105B10508F444C00E94B01460930F
:103B30002705709328058093290590932A05809185
:103B40002507882369F080913207811103C0F09224
:103B5000320702C010923207F0922E07F0921D0732
:103B600080912407882369F080912E07811103C07A
:103B7000F0922E0702C010922E07F0923207F092B8
:103B80001D07809123078823A1F080911D078111D3
:103B900003C0F0921D0702C010921D07F0922E077D
:103BA000F092320706C0F0923207F0922E07F092A0
:103BB0001D078091C90B882309F444C00E94E825A1
:103BC0000E9468230E94EE2820913F07222331F0B3
:103BD000822F90E02D3020F00C9702C08CE090E016
:103BE00080932D070E94E8250E9468230E94EE28FA
:103BF00080913F0790E00C971CF44091320701C080
:103C000040E061E080E00E947F0980912D072AE07A
:103C1000622F0E94CD430E94CD43911106C020E047
:103C20004091C80B61E070E006C0692F70E0209100
:103C300032074091C80B8EEF9FEF0E94EC23E2E029
:103C4000F0E01CC00E94E8250E9468230E94EE2834
:103C500080913F0780932D072AE0622F0E94CD4379
:103C60000E94CD43692F70E0209132074091C80B2C
:103C700080E090E00E94EC23E0E0F0E080912D07EE
:103C80006AE00E94CD43692F70E020913207409195
:103C9000C80B86E090E08E1B9F0B0E94EC236F2DDB
:103CA0008FE00E94992D20912E074091C80B298307
:103CB0004A830E9422290AE010E0B8010E94D943F9
:103CC000CB01B8010E94D94329814A81BC018FE010
:103CD00090E00E94EC2320912E074091C80B29838D
:103CE0004A830E942229B8010E94D94329814A812E
:103CF000BC0186E190E00E94EC236F2D80E20E94DF
:103D0000992D20911D074091C80B29834A830E9459
:103D10001A29B8010E94D943CB01B8010E94D943A6
:103D200029814A81BC0180E290E00E94EC2320912D
:103D30001D074091C80B29834A830E941A29B801A4
:103D40000E94D94329814A81BC0187E290E00F900B
:103D50000F90DF91CF911F910F91FF900C94EC2366
:103D600080911C07882359F098E088E10FB6F894F9
:103D7000A895809360000FBE90936000FFCF1092D3
:103D8000460710921E071092260710921B071092EA
:103D90001E0510922B0510922C05109225071092EB
:103DA00024071092220710922107109220071092E8
:103DB0001A071092330510922105109222051092D5
:103DC0002305109224051092250581E080930E01B1
:103DD00010922D050C941D09CF92DF92EF92FF9265
:103DE00080914607811182C08091130581117EC0A8
:103DF0000E941A296AE070E00E94D943892B09F0D9
:103E000075C080911907811134C00E943A224497ED
:103E100064F00E943A228139914064F40E943A226F
:103E2000092E000CAA0BBB0B09C084E190E0A0E0B6
:103E3000B0E004C080E991E0A0E0B0E04497A109BF
:103E4000B109BC01CD0132E0660F771F881F991FB1
:103E50003A95D1F72CE731E040E050E00E94D44B96
:103E6000DA01C9010196A11DB11D809319070E94B5
:103E70002E0D0E943A22449764F00E943A22813922
:103E8000914064F40E943A22092E000CAA0BBB0B4D
:103E900009C084E190E0A0E0B0E004C080E991E0D6
:103EA000A0E0B0E04497A109B109BC01CD0122E036
:103EB000660F771F881F991F2A95D1F72CE731E0ED
:103EC00040E050E00E94D44B69017A018FEFC81A9C
:103ED000D80AE80AF80AC0922C07809119078C15B5
:103EE00029F08C2D0E942E0DC0921907FF90EF90A3
:103EF000DF90CF90089586E090E00E94891C8A367A
:103F000079F084E99AE00E941E226AE686E090E059
:103F10000E94871C6FE070E080E090E00E947614C1
:103F200080E090E00E94891C91E0811101C090E046
:103F30009093C90B84E090E00E94891C8093130544
:103F400085E090E00E94891C813009F081E0809337
:103F50002E0588E090E00E94891C8093C80B8EE0BB
:103F600090E00E94891C91E0811101C090E0909343
:103F7000290780E190E00E94891C8093200585E15B
:103F800090E00E94891C80933A0582E190E00E94B3
:103F9000891C91E0811101C090E09093110584E1AA
:103FA00090E00E94891C80931F0586E190E00E94AA
:103FB000891C91E0811101C090E090933D05911121
:103FC00008C090912B0792FF04C084E0892780935A
:103FD0002B0787E190E00E94891C91E0811101C0CC
:103FE00090E090933B0589E190E00E94891C91E06C
:103FF000811101C090E090933C058BE190E00E941C
:10400000891C809310058EE190E00E94891C8093AA
:104010000E058FE190E00E94891C80932A0780E2C0
:1040200090E00E94891C80930F0581E290E00E943D
:10403000891C8093280782E290E00E94891C91E00D
:10404000811101C090E09093270784E290E00E94E4
:10405000891C91E0811101C090E0909312050895B0
:104060008F929F92AF92BF92CF92DF92EF92FF9288
:104070000F931F93CF93DF93CDB7DEB764970FB63F
:10408000F894DEBF0FBECDBF5F87798BF42E411150
:1040900009C06F5F6D3040F02FEFC21AD20A21E0E5
:1040A00061E003C0242F01C021E089898B831A823B
:1040B000198281E08D836E838EE48C0D8F83CE0117
:1040C00001962C8B0E9472264B015C010F8510E03B
:1040D0000E94EE282C8930E02150310987E0829F30
:1040E000F001839FF00D1124809140079801281B57
:1040F0003109C901079667E070E00E94D943DF01EA
:10410000A80FB91F20E831E541E050E00E94FE4BC6
:10411000680D791D8A1D9B1DF11004C060587A43FB
:104120008940910964960FB6F894DEBF0FBECDBFEB
:10413000DF91CF911F910F91FF90EF90DF90CF9083
:10414000BF90AF909F908F9008958F929F92AF9263
:10415000BF92CF92DF92EF92FF920F931F93CF9374
:10416000DF936C01E090DB08F090DC080091DD0843
:104170001091DE082091DF083091E0084091E108BD
:104180005091E2086091E3087091E4088091E5089D
:104190009091E6080E943020CBEDD8E068A379A387
:1041A0008AA39BA3E7EEF8E0E080F180028113810F
:1041B000248135814681578160857185828593850B
:1041C0000E9430206B017C016CA37DA38EA39FA372
:1041D000AE89BF892CE330E00E94F64308A119A103
:1041E0002AA13BA148015901861A970AA80AB90ACF
:1041F000888E998EAA8EBB8EAA85BB852CE330E073
:104200000E94F643C61AD70AE80AF90ACC8EDD8E58
:10421000EE8EFF8EDF91CF911F910F91FF90EF9067
:10422000DF90CF90BF90AF909F908F900895F894BB
:104230000E949A1678940895CF92DF92EF92FF929F
:104240000F931F93CF93DF9300D0CDB7DEB7062F28
:10425000109249074A8389830E94CB1689818093F3
:1042600049074A814093480710911301143021F007
:1042700061E084E00E943A1461E0812F0E943A14C8
:1042800061E0812F0E940A1461E085E00E943A14E7
:1042900060E086E00E943A1461E087E00E943A14F0
:1042A00080E58CBD8DB581608DBD1091140160E0FD
:1042B000812F0E943A1461E0812F0E940A1480E04D
:1042C00090E00E949A1685E092E80E949A1680E09B
:1042D00098EB0E949A160E94B0146B017C01812F0A
:1042E0000E94E113892B91F40E94B014AB01BC0130
:1042F0004C195D096E097F09483C5105610571053E
:1043000028F480E090E00E949A16E9CF0E94B01451
:10431000DC01CB018C199D09AE09BF09883C9105D0
:10432000A105B10508F04BC020E1029FC001112496
:10433000876C90680E949A1680E496EA0E949A160A
:1043400088E096EC0E949A1682EA94E90E949A16F6
:104350008CEA92EC0E949A16F0904807FF2041F0F8
:1043600083E89AEC0E949A168F2D90E09E6C06C00E
:104370008BE89AEC0E949A168DE29EEC0E949A16A7
:1043800083E894EC0E949A1680E598E90E949A16B8
:1043900087E79CEC0E949A1680E090EE0E949A16A5
:1043A00080E098EC0E949A1683E490EC0E949A16A2
:1043B00084E0809347070E94CB1681E001C080E033
:1043C0000F900F90DF91CF911F910F91FF90EF9081
:1043D000DF90CF900895009769F0FC0101900020D4
:1043E000E9F73197AF01481B590BBC018AE497E00C
:1043F0000C94F21180E090E008950F931F93CF93F7
:10440000DF938C01C0E0D0E0F801EC0FFD1F649158
:10441000662371F0E0914A07F0914B070190F0811B
:10442000E02D8AE497E00995892B11F02196ECCFD5
:10443000CE01DF91CF911F910F910895CF93DF931C
:104440000E94FD21EC0183E993E00E94EB218C0F97
:104450009D1FDF91CF910895CF93DF930E94EB21B1
:10446000EC0183E993E00E94EB218C0F9D1FDF910B
:10447000CF91089581E480937C0080917A008064DC
:1044800080937A0080917A0086FDFCCF809178003D
:104490002091790090E0922B08952F923F924F92B5
:1044A0005F926F927F928F929F92AF92BF92CF92C4
:1044B000DF92EF92FF920F931F93CF93DF93CDB7CD
:1044C000DEB72A970FB6F894DEBF0FBECDBF90912E
:1044D00046079111E4C0FA0101900020E9F78F012D
:1044E000041B150B90E0FC01E85BF44F20816C018C
:1044F000CC0CDD1C211109C020E630E0D601A15F03
:10450000BE4F2D933C9321E02083D601A15FBE4F87
:10451000AD90BC90119778EF70039001719F300DB2
:104520001124205D3F4F2A153B050CF085C05A87AA
:1045300049876887FA0101900020E9F79F01241B51
:10454000350B3B832A838501612C712C2A813B81A9
:10455000621673060CF060C00B3211050CF456C0E5
:10456000E985FA85E60DF71D808180322CF0082E52
:10457000000C990B809702C080E090E09C0193E0D2
:10458000220F331F9A95E1F73D832C83412C512C48
:1045900098012A5F3F4F3F832E83EC81FD81E40D1C
:1045A000F51DE15CF24FE491780185E0882E912CB5
:1045B0002E2E312C3885340D3983083C1105A4F496
:1045C00080E3E816F10484F0C101082C02C095953F
:1045D00087950A94E2F780FF02C041E001C040E005
:1045E00069818E2D0E947F099FEFE91AF90AA1E0E7
:1045F0008A1A91082E813F81E216F306F1F63FEF09
:10460000431A530A88E04816510439F69FEF691A95
:10461000790A085F1F4F9ACF8BE10E94E11301973F
:10462000B1F08CE10E94E113019789F08AE10E94C8
:10463000E113019731F50BC01082FC01EC5BF84FE0
:1046400021E0208380E690E08D939C9328C02A96F9
:104650000FB6F894DEBF0FBECDBFDF91CF911F9193
:104660000F91FF90EF90DF90CF90BF90AF909F9011
:104670008F907F906F905F904F903F902F900C9411
:104680001D0961E070E080E090E00E947614F60180
:10469000E15FFE4F31E0A31AB108B182A0822A96F1
:1046A0000FB6F894DEBF0FBECDBFDF91CF911F9143
:1046B0000F91FF90EF90DF90CF90BF90AF909F90C1
:1046C0008F907F906F905F904F903F902F900895C4
:1046D000CF92DF92EF92FF92CF93DF936B017C0139
:1046E0000E941229EC016091F3087091F408809106
:1046F000F5089091F6080E941229C817D90731F0E1
:10470000C701B6010E9412290E94A520C701B60167
:104710000E941229EC016091F3087091F4088091D5
:10472000F5089091F6080E941229C817D90731F0B0
:10473000C701B6010E9412290E94A5204091F708E6
:104740005091F8086091F9087091FA088091F30887
:104750009091F408A091F508B091F6088417950798
:10476000A607B70758F4C816D906EA06FB06D8F01C
:10477000C416D506E606F706B0F40AC0C416D50678
:10478000E606F70628F0C816D906EA06FB0658F032
:104790008BED98E090933C0780933B07A091E50850
:1047A000B091E6080AC087EE98E090933C078093AA
:1047B0003B07A091F108B091F2082CE330E00E9491
:1047C000F6436C0D7D1D8E1D9F1DDF91CF91FF90D7
:1047D000EF90DF90CF9008959F92AF92BF92CF92CB
:1047E000DF92EF92FF920F931F93CF93DF93A22E4E
:1047F0002BE0429F600D711D11249CE0969F60018B
:10480000979FD00C112400E010E097E0992E980EAD
:10481000C8018C0D9D1DFC01E555F54F7F01C4E0DD
:10482000D0E082E0B82EB00EF701A491B0E00C2EDB
:1048300002C0B595A7950A94E2F7A0FF05C04A2DDE
:104840006B2D892D8C1B04C040E06B2D892D8C1B9A
:104850000E947F09219740F70F5F1F4F0C30110511
:10486000B9F6DF91CF911F910F91FF90EF90DF90FC
:10487000CF90BF90AF909F900895EF92FF920F93CB
:104880001F93CF93DF937C018B01C8ECD8E08D811F
:104890009E810E94D018B7018D819E810E9463186D
:1048A00040E06EEB8D819E810E9421188D819E815A
:1048B0000E94B418F80180838D819E810E94B418F3
:1048C000F80181838D819E810E94B418F801828352
:1048D0008D819E810E94B418F80183838D819E8111
:1048E0000E94B418F80184838D819E810E94B418BF
:1048F000F80185838D819E810E94B418F80186831A
:104900008D819E810E94B418F80187838D819E81DC
:104910000E94B418F80180878D819E81DF91CF912C
:104920001F910F91FF90EF900C94D018CF93DF93CD
:10493000EB010E943D2468E0CE010E94141891E032
:104940002885821390E0892FDF91CF9108954F92AF
:104950005F926F927F928F929F92AF92BF92CF920F
:10496000DF92EF92FF92CF93DF93CDB7DEB7299717
:104970000FB6F894DEBF0FBECDBFBE016F5F7F4F95
:1049800083E397E00E949624882309F48AC08A81F1
:1049900090E0982F88272981822B2091330722329B
:1049A000B9F12832A9F1203109F081C0F884BC01A5
:1049B00075956795072E000C880B990B0E94844A09
:1049C00020E030E040E85EE30E9448444B015C0197
:1049D0008F2D90E02F81821B9109BC01990F880BCC
:1049E000990B0E94844A2B013C016F2D70E080E0FE
:1049F00090E00E94824A9B01AC01C301B2010E9477
:104A0000B5449B01AC01C501B4010E94494436C0C4
:104A10002D812F33B1F1A0F42F3109F048C0BC0132
:104A200023E0759567952A95E1F7072E000C880B12
:104A3000990B0E94844A20E030E040E05FE31CC014
:104A40002F3569F02F3799F5BC01990F880B990B19
:104A50000E94844A20E030E040E85DE30DC0BC01E4
:104A600075956795072E000C880B990B0E94844A58
:104A700020E030E040E05EE30E94E34A6B017C010D
:104A800016C0BC017595679575956795072E000C46
:104A9000880B990B0E94844A20E030E040E85EE3F6
:104AA000EBCFC12CD12C8EEFE82E82ECF82EC70173
:104AB000B60129960FB6F894DEBF0FBECDBFDF91C9
:104AC000CF91FF90EF90DF90CF90BF90AF909F90ED
:104AD0008F907F906F905F904F9008958091CD0858
:104AE0009091CE080E94D01840E06CEC8091CD08E7
:104AF0009091CE080E9421184091C80864E48091EA
:104B0000CD089091CE080E9421188091CA08882370
:104B1000E9F08091C9088A3049F08B3061F0893022
:104B200079F46EE570E080E090E00EC06CEB70E030
:104B300080E090E009C067E771E080E090E004C0A9
:104B40006EEE72E080E090E00C947614089585EDAE
:104B50008093BC008091BC0084FDFCCF1092E907DB
:104B600008950895E091ED078091EC07E81730F47F
:104B7000F0E0E85AF44F808190E008958FEF9FEFC6
:104B80000895609308057093090580930A05909332
:104B90000B05DC01CB01845D9E4FAF4FBF4F80936F
:104BA000040590930505A0930605B093070582E0E0
:104BB00090E090933905809338050E94B01460937B
:104BC000C40B7093C50B8093C60B9093C70B0895CD
:104BD000CF92DF92EF92FF920F931F930E94B01437
:104BE000C090C40BD090C50BE090C60BF090C70BE3
:104BF0008B019C010C191D092E093F0980910805A4
:104C000090910905A0910A05B0910B05083E13404B
:104C100021053105D0F00196A11DB11D8093080535
:104C200090930905A0930A05B0930B05B701A6015F
:104C300048515C4F6F4F7F4F4093C40B5093C50B4F
:104C40006093C60B7093C70BC9CF40910405509178
:104C50000505609106057091070584179507A6075D
:104C6000B70788F1E0910C05F0910D05309759F1E7
:104C70000995611571058105910519F00E94C125FD
:104C800022C08091080590910905A0910A05B09174
:104C90000B05845D9E4FAF4FBF4F809304059093EB
:104CA0000505A0930605B093070581E090E02091EB
:104CB000380530913905232B11F480E090E0909372
:104CC0003905809338056091080570910905809138
:104CD0000A0590910B051F910F91FF90EF90DF90C7
:104CE000CF9008956F927F928F929F92AF92BF92D2
:104CF000CF92DF92EF92FF920F931F93CF93DF93A8
:104D0000EC01EE81AE2FB0E020E833E341EE51E05C
:104D10000E94F34B4B015C0122EB37E0FD0104E6FE
:104D200010E080E9E82EFF24F394C901825B9740EC
:104D30008E179F07DCF4C90183709927892B99F49A
:104D4000C901B8010E94D943892B31F4C901B701C7
:104D50000E94D943892B39F480E8880E81E5981E9A
:104D600081E0A81EB11C2F5F3F4FDFCF6D80712CFB
:104D7000EE54F84FCF0164E670E00E94D9437C0105
:104D8000CF0160E971E00E94D9436C0101E010E0BD
:104D9000E370FF27061517052CF50230110581F485
:104DA000309771F4E114F10419F4C114D10441F401
:104DB00080E8880E8BE3981E86E2A81EB11C0FC007
:104DC000D801A05FBD4FAC91B0E020E831E541E0F3
:104DD00050E00E94F34B860E971EA81EB91E0F5F6F
:104DE0001F4FD8CF49812A8130E0A0E1BEE00E9468
:104DF000284C6B017C01242F30E0ACE3B0E00E9432
:104E0000284CDC01CB018C0D9D1DAE1DBF1D2881E2
:104E10006C017D01C20ED11CE11CF11CAC81B0E023
:104E2000119720E831E541E050E00E94FE4BDC01A3
:104E3000CB018C0D9D1DAE1DBF1DBC01CD01680DAC
:104E4000791D8A1D9B1DDF91CF911F910F91FF90BE
:104E5000EF90DF90CF90BF90AF909F908F907F901A
:104E60006F9008951F93CF93DF93CDB7DEB7279749
:104E70000FB6F894DEBF0FBECDBF11E01093020C49
:104E800088E68093230C1092EB071092EA0760E00B
:104E90008EEE97E00E94E71981E00E94E12B8823C3
:104EA00019F01092BF0BBCC01093BF0B8091E907A3
:104EB0008111FCCF81E08093E9078093E8079FEFA1
:104EC0009093010C1092000C96E09093FF0B80934E
:104ED000DE0B8091DE0B806D8093DE0B8091E70707
:104EE000813061F41092E7078091DE0B8093BB0064
:104EF0008091BC0083FDF8CF85EC01C085EE8093E6
:104F0000BC008091E9078130E1F38091000C87308B
:104F100018F48091000C01C087E0AFEDBBE028E5FC
:104F20003BE0F9019E2F921B981718F49D919193E5
:104F3000F9CF1092ED078093EC07873008F470C02A
:104F40008EEE97E00E949B19182F86958695869580
:104F50008E70982F990F990F890F912F9F70890F3D
:104F600089838EEE97E00E949B19282F22952F703F
:104F7000982F9F708AE0289F900D11249A838EEEBF
:104F800097E00E949B19982F282F26952695269505
:104F90002670822F880F880F280F9F70920F9B8397
:104FA0008EEE97E00E949B19282F22952F70982F44
:104FB0009F708AE0289F900D11249C838EEE97E0CD
:104FC0000E949B19282F22952F70982F9F708AE09E
:104FD000289F900D11249D838EEE97E00E949B19CF
:104FE000282F22952F70982F9F708AE0289F900D70
:104FF00011249E838EEE97E00E949B19982F9F703C
:10500000925E282F22952F708AE0289F900D112400
:105010009F8317FD05C0CE0101960E94722603C032
:1050200060E070E0CB0127960FB6F894DEBF0FBEAC
:10503000CDBFDF91CF911F9108956F927F928F9294
:105040009F92AF92BF92CF92DF92EF92FF920F9317
:105050001F93CF93DF93EA012CE3C22ED12CE12CD6
:10506000F12CA70196010E94064C6883CA01B90180
:10507000A70196010E94064C6983CA01B90128E183
:1050800030E040E050E00E94064C69017A016A83FA
:10509000CA01B9016C5F7F4F8F4F9F4F27E030E00F
:1050A00040E050E00E94064C6F5F6B83812C912C96
:1050B000540140E034E6632E712C00E911E0242F06
:1050C00030E02E54384FF901E370FF27309789F410
:1050D000C901B3010E94D943892B31F4C901B80138
:1050E0000E94D943892B29F48EE691E0A0E0B0E03C
:1050F00004C08DE691E0A0E0B0E0880E991EAA1EE3
:10510000BB1ED501C401AA27BB27C816D906EA06CB
:10511000FB0610F04F5FD3CF4E83309799F4C9014F
:1051200064E670E00E94D943892B39F4C90160E933
:1051300071E00E94D943892B29F48EE691E0A0E02A
:10514000B0E004C08DE691E0A0E0B0E0881A990AD2
:10515000AA0ABB0AC818D908EA08FB08C90164E60C
:1051600070E00E94D9438C01C90160E971E00E949E
:10517000D943A1E1B2E020E0213041F4309751F46D
:105180000115110529F4009729F402C04C9103C0C0
:105190004DE101C04CE150E060E070E0C416D5067E
:1051A000E606F70640F0C41AD50AE60AF70A2F5FAA
:1051B00011962C3009F72F5F2D83C394CC82DF9199
:1051C000CF911F910F91FF90EF90DF90CF90BF9004
:1051D000AF909F908F907F906F900895CF92DF92C5
:1051E000EF92FF92C090C00BD090C10BE090C20B29
:1051F000F090C30B6C157D058E059F0571F06B015A
:105200007C014DE357E00E941D28C092C00BD09254
:10521000C10BE092C20BF092C30BFF90EF90DF90B6
:10522000CF9008950E94EE288091430790E08E541D
:10523000984F08950E94E8250E94EE2880913D072E
:1052400090E008950E94E8250E94EE2880913E0794
:1052500090E00895FF920F931F93CF93DF938C01FB
:10526000D1E0D093020C88E6F82EF092230C109235
:10527000EB071092EA0760E08EEE97E00E94E719D4
:1052800060E88EEE97E00E94E719F8018181CAE09C
:105290006C2F0E94CD43692FF0E18F9F600D112488
:1052A0008EEE97E00E94E719F80182816C2F0E9430
:1052B000CD43692FF0E18F9F600D11248EEE97E0B2
:1052C0000E94E719F80183816C2F0E94CD43692F5A
:1052D000F0E18F9F600D11248EEE97E00E94E71998
:1052E000F80184816C2F0E94CD43692FF0E18F9FDC
:1052F000600D11248EEE97E00E94E719F801858178
:105300006C2F0E94CD43692FF0E18F9F600D112417
:105310008EEE97E00E94E719F80186818E516C2F7E
:105320000E94CD43692FF0E18F9F600D11248EEE16
:1053300097E00E94E71981E00E94E12B882321F089
:105340001092BF0B80E023C0D093BF0BD093020C10
:10535000F092230C1092EB071092EA0760E08EEEB9
:1053600097E00E94E719F80180816C2F0E94CD43DD
:10537000692FF0E18F9F600D11248EEE97E00E945F
:10538000E71981E00E94E12B8111DACF81E0DF9102
:10539000CF911F910F91FF9008951F920F920FB61A
:1053A0000F9211240BB60F922F933F934F935F935D
:1053B0006F937F938F939F93AF93BF93EF93FF93DD
:1053C0008091B900887F803609F49CC068F58832E6
:1053D00009F45BC090F4803109F454C038F4882398
:1053E00009F4F6C0883009F44DC0F6C0883109F4DC
:1053F0004CC0803209F45DC0EFC0803409F468C04D
:1054000048F4803309F455C0883309F0E5C080932F
:10541000010CD8C0803509F44FC0883509F45DC04F
:10542000883409F0D9C0D6C0883909F4C7C0A8F4B7
:10543000883709F467C038F4883609F463C08037C8
:1054400009F460C0C9C0883809F4B8C0803909F4CB
:105450005FC0803809F0C0C05BC0803B09F486C0E3
:1054600038F4803A09F466C0883A09F47FC0B4C0C1
:10547000803C09F4A7C0883C09F4A4C0883B09F427
:105480008AC0AAC08091DE0B10C09091000C809160
:10549000FF0B981770F5E091000C81E08E0F809360
:1054A000000CF0E0E152F44F80818093BB0085EC6A
:1054B00086C08093010C8EC0E091000C81E08E0FBD
:1054C0008093000C8091BB00F0E0E152F44F8083A8
:1054D0009091000C8091FF0B6EC0E091000C81E078
:1054E0008E0F8093000C8091BB00F0E0E152F44FEE
:1054F00080838091E80781116DC081E08093E70788
:1055000084EA61C083E08093E9071092BE0BCFCF9D
:105510008091BE0B803208F051C0E091BE0B81E05B
:105520008E0F8093BE0B8091BB00F0E0E256F44FEB
:105530008083BDCF85EC8093BC001092E9078091F9
:10554000BE0B803230F4E091BE0BF0E0E256F44F37
:1055500010826091BE0B70E0E0919C0BF0919D0B6E
:105560008EE99BE009951092BE0B36C084E08093D3
:10557000E90710929B0B10929A0BE091980BF09117
:10558000990B099580919A0B811105C081E0809358
:105590009A0B1092780BE0919B0B81E08E0F809319
:1055A0009B0BF0E0E858F44F80818093BB00909112
:1055B0009B0B80919A0B981708F479CF85E880931C
:1055C000BC000AC085EC8093BC001092E90704C0BF
:1055D0001092010C0E94A725FF91EF91BF91AF910E
:1055E0009F918F917F916F915F914F913F912F91FB
:1055F0000F900BBE0F900FBE0F901F90189540910B
:105600009A0B262F30E0240F311D21323105DCF4B6
:105610002091E9072430C9F4FC0180E090E086176E
:1056200058F430919A0B2191DC01A858B44FA30F84
:10563000B11D2C930196F3CF80919A0B680F609364
:105640009A0B80E0089581E0089582E00895CF9359
:10565000DF93CDB7DEB729970FB6F894DEBF0FBE44
:10566000CDBFFC0120812031D9F0BE016F5F7F4F9B
:105670000E949624882381F08D818F3359F018F48D
:105680008F3171F009C08F3519F08F3739F004C0B0
:105690008BE007C08AE005C080E003C08CE001C059
:1056A00089E029960FB6F894DEBF0FBECDBFDF911B
:1056B000CF9108950F931F93CF93DF93CDB7DEB7AC
:1056C00061970FB6F894DEBF0FBECDBFE091CD0855
:1056D000F091CE08138615861486DF011B9633964B
:1056E0001E92AE17BF07E1F71092CC0811E0BE0181
:1056F000665F7F4F8091CD089091CE080E94061979
:10570000882309F453C067E0CE010A960E9414185A
:1057100099898913ECCF8091C808811126C08091A6
:10572000CD089091CE080E94D018BE01665F7F4FD1
:105730008091CD089091CE080E94631840E064EB00
:105740008091CD089091CE080E9421188091CD08BB
:105750009091CE080E949018082F8091CD089091CA
:10576000CE080E94D0180023F1F0BE016F5F7F4F7A
:10577000CE010A960E943D240091C908CE010A96E6
:105780000E94272B801718F48091C90804C0CE010D
:105790000A960E94272B8093C9088091CC088F5FBE
:1057A0008093CC08A4CF1093C808DFCF61960FB6C2
:1057B000F894DEBF0FBECDBFDF91CF911F910F9147
:1057C0000895382F2091EA079091230C213208F098
:1057D00049C08091E9078111FCCF42E04093E9077D
:1057E0003093E8073FEF3093010C1092000C2093A8
:1057F000FF0BA3E0BCE04FED5BE0FA013E2F341B52
:10580000321718F43D913193F9CF1092DE0B2091AD
:10581000DE0B990F922B9093DE0B9091E70791305E
:1058200061F41092E7079091DE0B9093BB0090918A
:10583000BC0093FDF8CF95EC01C095EE9093BC00B1
:105840009091E9079230E1F39091010C9F3F79F03C
:105850008091010C803241F08091010C803331F055
:1058600084E005C081E003C082E001C083E01092C3
:10587000EB071092EA071092020C08958F929F9204
:10588000AF92BF92CF92DF92EF92FF920F931F934E
:10589000CF93DF93FC01C081D1812091DC0B30914B
:1058A000DD0BC217D3070CF04BC09E01220F331F34
:1058B000E091DA0BF091DB0BE20FF31F8080918017
:1058C000C170DD27F1E0CF27209719F404E610E03E
:1058D00002C00CE91FEF7A015B016C01040F151F78
:1058E000B801C4010E945616892B99F40E0D1F1D94
:1058F000B801C4010E945616892B71F4B8016E0DCF
:105900007F1DC4010E945616892BE9F023E030E088
:1059100005C021E030E002C022E030E0F5018081E6
:1059200091810196821793073CF0F5011182108254
:10593000F60180819181019691838083CE0105C01B
:1059400081E090E002C08FEF9FEFDF91CF911F9138
:105950000F91FF90EF90DF90CF90BF90AF909F900E
:105960008F9008958F929F92AF92BF920F931F9343
:10597000CF93DF93CDB7DEB7A1970FB6F894DEBF14
:105980000FBECDBF19A2423008F44AE08E010F5D70
:105990001F4F842E912CA12CB12CA50194010E94A3
:1059A000064CE62FB901CA0101501109EA3014F47E
:1059B000E05D01C0E95CD801EC93232B242B252B5F
:1059C00061F7C8010E94EB21A1960FB6F894DEBFE3
:1059D0000FBECDBFDF91CF911F910F91BF90AF90C0
:1059E0009F908F900895E0914A07F0914B070190A6
:1059F000F081E02D682F8AE497E00994CF92DF923E
:105A0000EF92FF92CF93DF936C01990FEE08FF089E
:105A1000F7FE17C08DE20E94F32CEC016627772772
:105A2000CB016C197D098E099F094AE00E94B22CB6
:105A30008C0F9D1FDF91CF91FF90EF90DF90CF9063
:105A400008954AE0C701B601DF91CF91FF90EF9032
:105A5000DF90CF900C94B22C80914707853031F5C0
:105A60008091BA0A2091CF0B90E0059630E0821722
:105A7000930724F08091CF0B8638C0F084E08093A8
:105A800047078091BA0A813830F081E090E0909326
:105A9000CE0B8093CD0B8091B80A8F7771F18091F6
:105AA000B80A8F7790914907891739F18091470794
:105AB000843009F51092BA0A1092CF0B8FEF9FEF46
:105AC0009093CE0B8093CD0B60914807662331F005
:105AD0000E9407179093CE0B8093CD0B1092CC0BA6
