:100000000C9477080C94F1240C94C6240C949B2433
:100010000C94A1080C94A1080C94A1080C94A108BC
:100020000C94A1080C9433250C94A1080C94A108FD
:100030000C94A1080C94A1080C94A1080C94A1089C
:100040000C94A1080C94A1080C943C240C94A108D5
:100050000C942B230C9401230C94A1080C94A1085C
:100060000C94A1080C94A1080C94FB1D0C94A108FD
:100070000C94A1080C94A1080C94A1080C94A1085C
:100080000C94A1080C94A1080C94A1089035AE35ED
:10009000C935E435FF351A363E36103C2A3C3F3C24
:1000A0005A3C653CA33CAA3CB43CBF3CCF3CCF3C53
:1000B000CF3CCF3CCF3CCF3CCF3CCF3CCF3CCF3CE8
:1000C000CF3CCF3CCF3CCF3CCF3CCF3CCF3CCF3CD8
:1000D000CF3CCF3CCF3CCF3CCF3C103C253C2A3CD6
:1000E0003F3C5A3C653C803C8B3C963C710B9F0BE3
:1000F000C50BE70BFF0B0F0C1D0CCF0DE80DFF0D13
:10010000020E1B0E3E0E530E020F110F420F600F18
:10011000770F0B101C1033104F108F0FA40FBA0F56
:10012000D10FE80FFF0F08108A119411B011B81108
:10013000C011C411C811D911751F8E1FD91F0020FD
:100140002720092117212521422134204420612024
:100150009420A220B020DE20FF20BE22C122B422A3
:10016000B822D822D822C522C922CF22D322556E46
:1001700061626C6520746F2066696E6420616464DE
:100180007265737320666F72204453313842323087
:10019000004F4646004F4E00445331384232302023
:1001A000706172617369746520706F776572206920
:1001B000733A200052464D313242204465746563E3
:1001C00074696F6E204641494C2120286973206371
:1001D0006869702070726573656E743F29005246BD
:1001E0004D313242204465746563746564204F4B21
:1001F0002100525443206861732073657420746831
:10020000652073797374656D2074696D6500556E32
:1002100061626C6520746F2073796E6320776974F6
:10022000682074686520525443004572724A616EBA
:100230004665624D61724170724D61794A756E4AD0
:10024000756C4175675365704F63744E6F76446586
:1002500063005600426174746572793A00526563B6
:10026000656976696E6720446174612E2E2E0000E8
:100270000000000000000000080808080008000056
:10028000361224000000000000143E143E1400004A
:10029000081E281C0A3C0000003234081626000004
:1002A00000182418261E0000181810000000000076
:1002B00008101010100800001008080808100000AE
:1002C00000082A082A0800000008083E0808000064
:1002D00000000000180810000000003E00000000B0
:1002E000000000000C0C00000002040810200000B8
:1002F0000C121212120C0000040C0404040E000074
:100300000C120204081E00001E020C02120C000057
:1003100012121E02020200001E101C02120C00002B
:100320000C101C12120C00001E0204080808000029
:100330000C120C12120C00000C120E02120C000017
:10034000000C0C000C0C0000000C0C000C0408004D
:10035000000408100804000000003E003E000000F9
:1003600000100804081000001C2204080008000007
:100370001C262A2E201E00001C22223E22220000C3
:100380003C223C22223C00001C222020221C000097
:100390003C222222223C00003E203C20203E000045
:1003A0003E203C20202000001C202026221E000091
:1003B00022223E22222200001C080808081C0000FD
:1003C0003E020202221C00002224383824220000AF
:1003D00020202020203E000022362A222222000057
:1003E00022322A26222200001C222222221C000065
:1003F0003C223C2020200000182424242C1A000039
:100400003C223C22222200001E201C02221C000052
:100410003E0808080808000022222222221C0000B0
:1004200022222214140800002222222A2A14000068
:1004300022140808142200002222140808080000D0
:100440003E040810203E00001C101010101C00007C
:1004500020100804020000001C040404041C000016
:10046000081422000000000000000000003E000010
:100470000804000000000000001C021E223E0000D4
:1004800020203C22223C0000001C2020201C0000D8
:1004900002021E22221E0000001C223E201C000020
:1004A0000E10103C10100000001E223E02021C0024
:1004B00020203C222222000008001808081C00000E
:1004C00008001E0202221C002020243824220000E2
:1004D00018080808081C000000342A2A2A2A0000EC
:1004E000002C322222220000001C2222221C0000AA
:1004F000003C223C20202000001C241C0404060098
:10050000002E302020200000001E201C023C000095
:10051000083E08080806000000222222221E0000D1
:1005200000222222140800000022222A2A1400009D
:1005300000221408142200000022221E02041800C7
:10054000003E0408103E00000408081008080400DB
:100550000808080808080000100808040808100027
:1005600000102A0400000000102810000000000005
:100570000000000000000000040404040004000067
:100580000505000000000000000C0F0C0F0C00001F
:1005900004060C06060C040000323408162600007F
:1005A00000182418261E0000181810000000000073
:1005B00008101010100800001008080808100000AB
:1005C00000082A082A0800000008083E0808000061
:1005D00000000000180810000000003E00000000AD
:1005E00000000000020000000002040810200000CB
:1005F00002050505020000000206020207000000D5
:1006000006010204070000000701060106000000C1
:1006100005050701010000000704070106000000AE
:1006200003040705020000000701020404000000A3
:100630000705070507000000070507010600000081
:10064000000200020000000000060600060204008E
:100650000001020402010000000007000700000082
:10066000000402010204000006010204000400006C
:1006700006090B0B0806000002050507050500002A
:100680000605060505060000020504040502000033
:10069000060505050506000007040604040700001A
:1006A0000704060404040000030404050503000015
:1006B0000505070505050000070202020207000004
:1006C00007010101050200000505060605050000F9
:1006D00004040404040700000507070505050000DD
:1006E00005070505050500000205050505020000D2
:1006F00006050604040400000205050507030000C2
:1007000006050605050500000304020105020000B8
:1007100007020202020200000505050505070000A8
:10072000050505050502000005050505070700008C
:10073000050502020505000005050502020200008C
:100740000701020404070000060404040406000074
:10075000040402010100000003020202020300007F
:100760000205050000000000000000000007000076
:10077000020100000000000000060107050700005C
:100780000404070505070000000304040403000037
:10079000010107050507000000020407040300002B
:1007A0000302020702020000000305070101060020
:1007B0000404070505050000020006020207000008
:1007C00001000701010502000004050605050000FF
:1007D00006020202020700000006070705050000E6
:1007E00000060505050500000002050505020000DC
:1007F00000060506040404000003050701010100CA
:1008000000030404040400000003040201060000C5
:1008100002070202020100000005050505030000B1
:100820000005050505020000000505050707000095
:100830000005050205050000000505070101060089
:100840000007010204070000010202040202010085
:10085000020202020202000004020201020204007B
:1008600000040B01000000446973706C6179204F33
:100870007074696F6E73204D656E75004469737096
:100880006C61792053797374656D204D656E7500C8
:10089000446973706C617920446174652F54696D8B
:1008A00065204D656E75005345543A2054696D6559
:1008B0007A6F6E65005363726F6C6C2054656D7057
:1008C000005363726F6C6C204461746500456E74F4
:1008D0006572205363726F6C6C205375626D656E28
:1008E000750057726974696E6720496E6974696131
:1008F0006C2073657474696E677320746F2045454E
:1009000050524F4D2121210053657474696E672048
:1009100053797374656D000E1F13131313131313A0
:10092000131F0E060E1E060606060606061F1F1ECF
:100930001F030303060C1818181F1F1E1F030303B1
:100940000E0E0303031F1E181818181B1F1F030386
:100950000303031F1F1818181E1F0303031F1E0E77
:100960001F1818181E1F1313131F0E1F1F03030336
:10097000060C18181818180E1F1313130E0E131345
:10098000131F0E0E1F1313131F0F0303031F0E005D
:1009900000000000000000000000001F1F1B1B1BC8
:1009A0001B1B1B1B1B1F1F0C0C0C0C0C0C0C0C0C16
:1009B0000C0C0C1F1F0303031F1F1818181F1F1FE9
:1009C0001F0303031F1F0303031F1F1B1B1B1B1BF3
:1009D0001F1F03030303031F1F1818181F1F030300
:1009E000031F1F1F1F1818181F1F1B1B1B1F1F1F54
:1009F0001F030303030303030303031F1F1B1B1B2B
:100A00001F1F1B1B1B1F1F1F1F1B1B1B1F1F030346
:100A1000031F1F0000000000000000000000000E87
:100A20001F1B1B1B1B1B1B1B1B1F0E02060E060680
:100A300006060606061F1F0E1F030303060C1818E2
:100A4000181F1F0E1F0303030E0E0303031F0E03C5
:100A50000306060C0C1B1F030303031F1F181818A3
:100A60001E0F0303031F0E0E1F1818181E1F1B1B3B
:100A70001B1F0E1F1F030303060C18181818180E4F
:100A80001F1B1B1B0E0E1B1B1B1F0E0E1F1B1B1BDE
:100A90001F0F0303031F0E000000000000000000F2
:100AA0000000001F111111111111111111111F045A
:100AB00004040404040404040404041F01010101E7
:100AC0001F10101010101F1F010101011F01010153
:100AD00001011F11111111111F0101010101011F5C
:100AE000101010101F01010101011F1F1010101024
:100AF0001F11111111111F1F01010101010101013C
:100B00000101011F111111111F11111111111F1FCD
:100B1000111111111F01010101011F00000000004E
:100B2000000000000000000E11111111111111112F
:100B300011110E040C0404040404040404041F0E24
:100B4000110101010204081010101F0E1101010112
:100B50000E01010101110E11111111111F010101ED
:100B60000101011F101010101E01010101110E0ED4
:100B7000111010101E11111111110E1F0101010190
:100B8000020408101010100E111111110E11111184
:100B900011110E0E111111110F01010101110E00A1
:100BA0000000000000000000000000000000000045
:100BB00000000000080808080008000036122400A1
:100BC0000000000000143E143E140000081E281C03
:100BD0000A3C0000003234081626000000182418D1
:100BE000261E000018181000000000000810101049
:100BF00010080000100808080810000000082A0863
:100C00002A0800000008083E080800000000000054
:100C1000180810000000003E000000000000000066
:100C20000C0C000000020408102000001C262626E0
:100C3000261C00000C1C0C0C0C1E00001C260C18A2
:100C4000303E00003E061C06261C000026263E06FE
:100C5000060600003E303C06261C00001C203C26F8
:100C6000261C00003E060C18181800001C261C2626
:100C7000261C00001C261E06261C0000000C0C0072
:100C80000C0C0000000C0C000C0408000004081000
:100C90000804000000003E003E00000000100804B0
:100CA000081000001C220408000800001C262A2E40
:100CB000201E00001C22223E222200003C223C2258
:100CC000223C00001C222020221C00003C22222268
:100CD000223C00003E203C20203E00003E203C20E4
:100CE000202000001C202026221E000022223E225E
:100CF000222200001C080808081C00003E02020214
:100D0000221C000022243838242200002020202029
:100D1000203E000022362A222222000022322A26E9
:100D2000222200001C222222221C00003C223C2005
:100D300020200000182424242C1A00003C223C22ED
:100D4000222200001E201C02221C00003E0808086F
:100D50000808000022222222221C00002222221443
:100D6000140800002222222A2A1400002214080853
:100D70001422000022221408080800003E04081073
:100D8000203E00001C101010101C00002010080451
:100D9000020000001C040404041C000008142200CB
:100DA0000000000000000000003E000008040000F9
:100DB00000000000001C021E223E000020203C22F9
:100DC000223C0000001C2020201C000002021E22E9
:100DD000221E0000001C223E201C00000E10103CB1
:100DE00010100000001E223E02021C0020203C22A7
:100DF0002222000008001808081C000008001E023B
:100E000002221C0020202438242200001808080890
:100E1000081C000000342A2A2A2A0000002C322252
:100E200022220000001C2222221C0000003C223C46
:100E300020202000001C241C04040600002E30206A
:100E400020200000001E201C023C0000083E080874
:100E50000806000000222222221E00000022222278
:100E6000140800000022222A2A140000002214087C
:100E7000142200000022221E02041800003E040872
:100E8000103E0000040808100808040008080808BC
:100E900008080000100808040808100000102A04C0
:100EA00000000000102810000000000000200023B7
:100EB00000260029000202020202020202040404C7
:100EC00004040404040303030303030303010101F3
:100ED0000101010101010204081020408001020407
:100EE0000810204080010204081020408001020404
:100EF0000810204080005EBCE2613FDD83C29C7E22
:100F000020A3FD1F419DC3217FFCA2401E5F01E382
:100F1000BD3E6082DC237D9FC1421CFEA0E1BF5D1F
:100F20000380DE3C62BEE0025CDF81633D7C22C068
:100F30009E1D43A1FF4618FAA427799BC584DA3881
:100F400066E5BB5907DB856739BAE406581947A53A
:100F5000FB7826C49A653BD987045AB8E6A7F91BE3
:100F600045C6987A24F8A6441A99C7257B3A648620
:100F7000D85B05E7B98CD2306EEDB3510F4E10F24D
:100F8000AC2F7193CD114FADF3702ECC92D38D6FEA
:100F900031B2EC0E50AFF1134DCE90722C6D33D1B7
:100FA0008F0C52B0EE326C8ED0530DEFB1F0AE4CD0
:100FB0001291CF2D73CA947628ABF517490856B411
:100FC000EA6937D58B5709EBB536688AD495CB29B2
:100FD00077F4AA4816E9B7550B88D6346A2B75976B
:100FE000C94A14F6A8742AC896154BA9F7B6E80A98
:100FF00054D7896B3500002100240027002A000007
:10100000002200250028002B00000000010200093A
:101010000A000000000403080700000000000000B0
:10102000000000000000000000446563656D62651B
:1010300072004E6F76656D626572004F63746F6209
:1010400065720053657074656D6265720041756705
:10105000757374004A756C79004A756E65004D6150
:101060007900417072696C004D6172636800466579
:10107000627275617279004A616E75617279000001
:1010800057726974696E67206E657720467720769F
:10109000657273696F6E007F1077106E1068106252
:1010A000105E10591054104D1043103B103210298F
:1010B000104E414E494E495459494E46CDCCCC3D37
:1010C0000AD7233C17B7D13877CC2B329595E62435
:1010D0001FB14F0A000020410000C84200401C46DA
:1010E00020BCBE4CCA1B0E5AAEC59D74464311248B
:1010F0001FBECFEFD0E4DEBFCDBF15E0A0E0B1E072
:10110000E4E0FDE900E00BBF02C007900D92A239B8
:10111000B107D9F72CE0A2E9B5E001C01D92A33ECA
:10112000B207E1F718E0C7E7D8E004C02197FE0155
:101130000E944346C637D107C9F70E94D82E0C94A7
:10114000804E0C940000662351F05C98962F9823F3
:1011500011F05E9A01C05E985C9A6695F4CF08958E
:101160008031E8F4883068F445B121E030E0B9011D
:1011700002C0660F771F8A95E2F7CB01842B85B9F1
:1011800008954BB1885021E030E0B90102C0660FEC
:10119000771F8A95E2F7CB01842B8BB90895282F0E
:1011A00030E0883160F448B12051310981E090E0AD
:1011B00001C0880F2A95EAF7842B88B9089562B197
:1011C0004FE150E0CA01821B930B9C0181E090E04B
:1011D00001C0880F2A95EAF7862B82B908958031DD
:1011E000F8F4883070F445B121E030E0B90102C074
:1011F000660F771F8A95E2F7CB018095842385B926
:1012000008954BB1885021E030E0B90102C0660F6B
:10121000771F8A95E2F7CB01809584238BB90895D7
:10122000282F30E0883168F448B12051310981E03D
:1012300090E001C0880F2A95EAF78095842388B949
:10124000089542B18FE190E0BC01621B730B81E015
:1012500090E001C0880F6A95EAF78095842382B9EF
:101260000895DF92EF92FF920F931F93CF93DF9336
:101270000CE316E0C7E6D1E0DC2E84E0D80EE9905E
:101280008E2D0E94EF0864E085E00E94A30860E4D0
:1012900080E00E94A30880E3F82E60E880E00E94CE
:1012A000A308FA94F110F9CF8E2D0E94B00880E0C7
:1012B00090E0F801E80FF91F108201968036910541
:1012C000C1F7005A1F4FDC12DACFDF91CF911F9187
:1012D0000F91FF90EF90DF9008950F931F93CF939E
:1012E000DF931F92CDB7DEB7062FE82FF0E0E95964
:1012F000FE4F1081812F49830E94EF0864E085E052
:101300000E94A30860E4802F0E94A30868E049813E
:10131000842F0E94A308812F0F90DF91CF911F91FE
:101320000F910C94B008803608F044C0603108F08A
:1013300041C098EE980F983118F4892F51E001C000
:1013400050E090ED980F983110F4892F52E098EB0F
:10135000980F983110F4892F53E0962F937028E05E
:1013600030E002C0359527959A95E2F7982F990FAE
:10137000990F65956595690F80E6589FF0011124D6
:10138000862F062E000C990BDF01A80FB91FA45C55
:10139000B94F442319F03C91232B03C020953C9175
:1013A00023232C93E45CF94FE80FF91F4081852F2C
:1013B0000C946D0908958F929F92AF92BF92CF9235
:1013C000DF92EF92FF920F931F93CF93DF93962EAE
:1013D000822E40321CF0C0EEC40F01C0C0E098E085
:1013E000C99FE0011124C12CD12C95E0B92EB80E73
:1013F000F601EC0FFD1FE555F44FE49185E0E82E72
:10140000F12C0E2F10E0AC2CA90CC8010E2C02C040
:10141000959587950A94E2F780FF02C0482D01C098
:1014200040E06A2D8B2D8E190E94930981E0E81A05
:10143000F10858F78FEFC81AD80A98E0C916D104F6
:10144000B9F6DF91CF911F910F91FF90EF90DF9050
:10145000CF90BF90AF909F908F9008952F923F9222
:101460004F925F926F927F928F929F92AF92BF92B4
:10147000CF92DF92EF92FF920F931F93CF93DF9360
:10148000CDB7DEB727970FB6F894DEBF0FBECDBF3E
:10149000162F7C834A013901C0966C018B835F83D0
:1014A0004E83F40101900020E9F73197E819F9091A
:1014B0008E819F81881999098E179F0708F0A2C015
:1014C00022E06216710479F033E06316710409F4C6
:1014D00046C0202F81E06816710409F07EC0AE81FD
:1014E000BF814C917DC0EE81FF818081803214F0FC
:1014F000805201C080E0F8E08F9F10011124412C40
:10150000512C25E02C0D2D83F201E20DF31DE15944
:10151000FD4FE49125E0A22EB12CEE2EF12C342DBE
:10152000310F3983C7010A2C02C0959587950A941B
:10153000E2F780FF02C0402F01C040E069818D8149
:101540008A190E94930981E0A81AB10858F7AFEFF1
:101550004A1A5A0AB8E04B165104B1F646C0EE8159
:10156000FF81808180528F3508F080E098E0899F6C
:10157000900111243A832983A12CB12C93E0392EB8
:101580003B81330EE981FA81EA0DFB1DE159FA4FE7
:10159000E49183E0E82EF12C4E2E512C2A2C210EC2
:1015A000C2010E2C02C0959587950A94E2F780FF40
:1015B00002C0402F01C040E0622D832D8E190E9491
:1015C000930981E0E81AF10858F7AFEFAA1ABA0AAE
:1015D000B8E0AB16B104B1F608C0EE81FF814081DE
:1015E000612F7C81C6010E94DB092E813F812F5F24
:1015F0003F4F3F832E8336E0C30ED11C3B813C5FBF
:101600003B834FCF27960FB6F894DEBF0FBECDBFFA
:10161000DF91CF911F910F91FF90EF90DF90CF90CE
:10162000BF90AF909F908F907F906F905F904F9002
:101630003F902F9008950F931F93CF930E943024D3
:101640000091C2051091C3052091C4053091C505D4
:10165000DC01CB01801B910BA20BB30B883C9105E5
:10166000A105B10508F44BC18091CA05882309F48E
:1016700046C10E9430246093C2057093C3058093D5
:10168000C4059093C505C091730CC23009F4E1C044
:10169000C33009F405C1C13009F031C10E943109DC
:1016A0008091BB058C278093BA05C093770C10926C
:1016B000AC058091AF058F5F883018F48093AF053B
:1016C00002C0C093AF05E091AF058E2F90E0FC0102
:1016D0003197E730F10508F012C1EA58FF4F0C943A
:1016E00043460E94310981E080935C018093770C2E
:1016F00010921A0C8093190C1092180C1092170C5F
:101700001092160C1092150C1092140C1092BC072B
:101710000091BC0522E030E04EE254E060E070E071
:101720008EE090E00E942E0A0091BC0522E030E09D
:101730004CE854E068E070E087E090E023C010924D
:10174000190C81E08093180C1092170C1092160C53
:101750001092150C1092140C0091BC0522E030E0A0
:101760004EE254E060E070E08EE090E00E942E0ACD
:101770000091BC0522E030E042E354E068E070E014
:1017800085E090E00E942E0ABAC010921A0C1092C6
:10179000190C1092180C81E08093170C1092160C03
:1017A0001092150C1092140C0091BC0522E030E050
:1017B0004EE254E060E070E08EE090E00E942E0A7D
:1017C0000091BC0522E030E04AE354E0D7CF10920C
:1017D0005C010E9431091092770C81E080931A0C11
:1017E0009091BC059093760C1092190C1092180CE5
:1017F0001092170C1092160C8093150C0DC01092BD
:10180000770C1092190C1092170C1092180C81E0A2
:101810008093160C1092150C1092140C70C010923C
:10182000190C1092180C1092170C1092160C1092A2
:10183000150C81E08093140C62C087EA98E00E9446
:10184000781481E08093BC07CF911F910F910C9485
:1018500069210E9431091092740C1092770C91E06A
:101860009093AC058091B005853079F48091B105F5
:10187000811102C086E00AC08F5F883018F480931F
:10188000B10506C09093B10503C08F5F8093B0058A
:101890008091B0058A3098F181E08093B0052FC027
:1018A0000E9431090E9431091092740C1092770C39
:1018B0001092AC0581E08093B9058091B20581302A
:1018C00079F49091B305911102C082E00AC09F5F44
:1018D000983018F49093B30506C08093B30503C005
:1018E0008F5F8093B2058091B205833018F081E05C
:1018F0008093B205CF911F910F910C943109CF9134
:101900001F910F9108950F931F930E94302400910F
:10191000C2051091C3052091C4053091C505DC01B5
:10192000CB01801B910BA20BB30B883C9105A10549
:10193000B10508F488C00E9430246093C2057093FA
:10194000C3058093C4059093C5050E94302460931D
:10195000BD057093BE058093BF059093C00591E0CF
:101960009093CA058091BB0589278093BA05109290
:10197000740C1092770C10921A0C8091730C8F5F7C
:10198000843018F48093730C02C09093730C809190
:10199000730C823009F18330B9F1813009F053C002
:1019A00080E998E00E94781410925C011092AC05D6
:1019B0001092B9050E94310901E021E030E042E4D3
:1019C00054E060E070E080E090E00E942E0A21E0A8
:1019D00030E04BE454E031C08CE798E00E9478148A
:1019E00010925C010E94310901E021E030E042E503
:1019F00054E060E070E085E090E00E942E0A21E073
:101A000030E049E554E019C087E698E00E94781478
:101A100010925C011092AC050E94310901E021E0B6
:101A200030E04FE554E060E070E085E090E00E9437
:101A30002E0A21E030E044E654E068E070E085E002
:101A400090E00E942E0A1F910F910895CF93DF938B
:101A5000D62FE82FF0E0E959FE4FC0818C2F0E946D
:101A6000EF0864E084E00E94A30860E88D2F0E94E4
:101A7000A30861E080E00E94A3088C2FDF91CF9142
:101A80000C94B008CF93DF93813029F093E0863037
:101A900018F085E001C091E0989FC02D1124C05638
:101AA000D0E06C2F8D2F0E94260DDF5FD530C9F757
:101AB000DF91CF9108950F931F93CF93DF93CDB70D
:101AC000DEB727970FB6F894DEBF0FBECDBF0E94DA
:101AD00030240091C2051091C3052091C4053091B6
:101AE000C505DC01CB01801B910BA20BB30B883C1D
:101AF0009105A105B10508F47EC481E08093BB0582
:101B00001092BA050E9430246093C2057093C305F9
:101B10008093C4059093C5058091730C823009F4BD
:101B20005FC1833009F4E1C3813009F064C40E94CD
:101B300059190E945F1C8091DC078093C2070E94A4
:101B4000931C8093C1070E948B1C8093C0070E9446
:101B500059190E945F1C8091DF078093BF070E9484
:101B600059190E945F1C8091DE078093BE070E9476
:101B700059190E94831C64E670E00E942F468093EE
:101B8000BD07E091AF054E2F50E0FA013197E730E5
:101B9000F10508F0A8C0E358FF4F0C94434690911C
:101BA000C1058091C207992311F0815001C08F5F58
:101BB0008093C2078091C2078F3F21F487E1809311
:101BC000C20791C0883108F48EC01092C2078BC042
:101BD0009091C1058091C107992311F0815001C0F6
:101BE0008F5F8093C1078091C1078F3F21F48BE302
:101BF0008093C10704C08C3310F01092C10710927B
:101C0000C00771C09091C1058091BE07992311F062
:101C1000815001C08F5F8093BE078091BE078F3FC8
:101C200021F48FE18093BE075EC0803208F45BC070
:101C30001092BE0758C09091C1058091BF079923AB
:101C400011F0815001C08F5F8093BF078091BF0763
:101C5000811102C08CE003C08D3018F081E08093C8
:101C6000BF070091780C22E030E04CE654E060E0E1
:101C700070E080E090E00E942E0A35C09091C1058E
:101C8000992311F0815001C08F5F8093BD0780912F
:101C9000BD07803110F488E203C0893220F180E171
:101CA0008093BD0720C09091C10580919A09992326
:101CB00011F0815001C08F5F80939A0980919A0939
:101CC000883010F010929A0960919A0988E190E0AA
:101CD0000E949E216FE070E080E090E00E94F62379
:101CE00081E08093750C0E9430240091BD05109115
:101CF000BE052091BF053091C005DC01CB01801BE2
:101D0000910BA20BB30B893E9340A105B10578F16D
:101D10008091C0078F5F8C3318F48093C00707C091
:101D20001092C0078091C1078F5F8093C107809197
:101D3000C1078C3338F01092C1078091C2078F5FC2
:101D40008093C2078091C207883138F01092C20791
:101D50008091BE078F5F8093BE070E9430246093FE
:101D6000BD057093BE058093BF059093C00580911B
:101D7000BD0790E06091BF075091BE072091C0075A
:101D80003091C1074091C207843691051CF0825BF7
:101D9000974001C04E968093E0076093DF07509311
:101DA000DE074093DC073093DB072093DA078AEDE8
:101DB00097E00E94E3190E9432190E945919AE015E
:101DC0004F5F5F4F0E948E1BCE0101960E949B1CAD
:101DD0008091BC07882309F40EC30E9469210BC3BC
:101DE00088E099E00E947814E091B0058E2F90E091
:101DF000FC013197E930F10508F0FDC2EC57FF4FC7
:101E00000C9443468091820C811104C081E0809340
:101E1000820C02C01092820C6091820C80E090E0F3
:101E20005FC00E9431099091C1058091A10599235D
:101E300011F0815001C08F5F8093A1058091A105B1
:101E40008F3F21F485E08093A10504C0863010F017
:101E50001092A1056091A10584E090E00E949E216E
:101E60006FE070E080E090E00E94F6231092720C28
:101E70008091A105811103C00E94DD29BCC20E948E
:101E8000420DB9C20E9431099091C1058091810C27
:101E9000992311F0815001C08F5F8093810C809154
:101EA000810C8F3F21F484E08093810C04C0853045
:101EB00010F01092810C6091810C88E090E070C26B
:101EC0000E94310980911E0C882319F010921E0C7B
:101ED00003C081E080931E0C60911E0C8EE090E0A8
:101EE0000E949E216FE070E080E090E05FC20E945F
:101EF0003109E091B10581E0EE2371F08093750C1A
:101F00008E2F90E0FC013197E730F10508F073C2A5
:101F1000E357FF4F0C9443468093B1056CC2809108
:101F2000CC05882319F01092CC0509C081E080937C
:101F3000CC056FE070E080E090E00E94F6236091B5
:101F4000CC0586E190E02CC29091C10580919E0560
:101F5000992311F0815001C08F5F80939E0580917D
:101F60009E05833010F010929E0560919E058BE1D6
:101F700090E016C29091C10580919C05992311F0C3
:101F8000815001C08F5F80939C0580919C058531B5
:101F900018F081E080939C0560919C058EE190E0B3
:101FA000FFC19091C10580919D05992311F0815049
:101FB00001C08F5F80939D0580919D05853118F04C
:101FC00081E080939D0560919D0580E290E0E8C1ED
:101FD0009091C10580911D0C992311F0815001C091
:101FE0008F5F80931D0C80911D0C853118F081E06E
:101FF00080931D0C60911D0C81E290E0D1C1609135
:102000001C0C81E0682760931C0C82E290E0C8C140
:102010001092B105F0C10E9431098091C905882351
:1020200019F01092C90503C081E08093C905609141
:10203000C90587E190E054CF0E9431098091CB051A
:10204000882319F01092CB0503C081E08093CB0563
:102050006091CB0589E190E00E949E216FE070E0E5
:1020600080E090E016C00E9431098091A00588238D
:1020700019F01092A00503C081E08093A005609143
:10208000A00584E290E00E949E2165E070E080E07F
:1020900090E00E94F62381E08093750CACC10E9411
:1020A000310982EE98E00E94781460E080E090E0D0
:1020B0000E949E2162E370E080E090E00E94F6239F
:1020C00063E084E090E00E949E2162E370E080E0A3
:1020D00090E00E94F62361E085E090E00E949E215E
:1020E00062E370E080E090E00E94F6236DE686E017
:1020F00090E00E949E2162E370E080E090E00E9408
:10210000F62361E088E090E00E949E2162E370E0A7
:1021100080E090E00E94F62361E08EE090E00E9473
:102120009E2162E370E080E090E00E94F62362E08E
:1021300080E190E00E949E2162E370E080E090E008
:102140000E94F6236FEF81E190E00E949E2162E3FE
:1021500070E080E090E00E94F62361E082E190E090
:102160000E949E2162E370E080E090E00E94F623EE
:1021700062E084E190E00E949E2162E370E080E0F2
:1021800090E00E94F62362E085E190E00E949E21AB
:1021900062E370E080E090E00E94F62360E086E178
:1021A00090E00E949E2162E370E080E090E00E9457
:1021B000F62360E087E190E00E949E2162E370E0F8
:1021C00080E090E00E94F6236091CB0589E190E0E9
:1021D0000E949E2162E370E080E090E00E94F6237E
:1021E00060E08BE190E00E949E2162E370E080E07D
:1021F00090E00E94F62361E08EE190E00E949E2133
:1022000062E370E080E090E00E94F62365E08FE1F9
:1022100090E00E949E2162E370E080E090E00E94E6
:10222000F62361E080E290E00E949E2162E370E08C
:1022300080E090E00E94F62365E081E290E00E9459
:102240009E2162E370E080E090E00E94F62360E06F
:1022500082E290E00E949E2169E170E080E090E0DF
:102260000E94F62360E084E290E00E949E2169E1F2
:1022700070E080E090E00E94F62364E670E08BE876
:102280009AE00E941C2564E970E083E69AE00E94CF
:102290001C2564EC70E08BE39AE00E941C2564EF3F
:1022A00070E083E19AE00E941C2564E271E08BEE0D
:1022B00099E00E941C2564E571E083EC99E00E949E
:1022C0001C2564E871E08BE999E00E941C2564EB11
:1022D00071E083EB9AE00E941C250E946C2A81E049
:1022E0008093750C0E94A12986C08091B20581302F
:1022F00021F0823009F460C07EC0E091B3058E2FDA
:1023000090E08830910508F076C0FC01EC56FF4F54
:102310000C9443460E94310981E08093B3058DEC13
:1023200098E00E94781467C09091C1058091AE0535
:10233000992311F0815001C08F5F8093AE05809189
:10234000AE05811104C089E08093AE0504C08A30D7
:1023500010F01092AE056091AE0580E190E041C0B2
:1023600081EC98E00E9478146091C805605814C010
:1023700085EB98E00E9478146091C80580E40BC05A
:102380006091C80580E207C06091C80580E103C084
:102390006091C80588E068276093C80585E190E0F2
:1023A0000E949E2165E070E080E090E00E94F623AC
:1023B00022C01092B3051FC09091C1058091AD0558
:1023C000992311F0815001C08F5F8093AD058091FA
:1023D000AD058A3014F01092AD056091AD0584E131
:1023E00090E00E949E2165E070E080E090E00E9415
:1023F000F6230E94310927960FB6F894DEBF0FBE70
:10240000CDBFDF91CF911F910F9108958F929F9231
:10241000AF92BF92CF92DF92EF92FF920F931F93F2
:10242000CF93DF93CDB7DEB764970FB6F894DEBFD6
:102430000FBECDBF5F87798BF42E411109C06F5F4E
:102440006D3040F02FEFC21AD20A21E061E003C0E4
:10245000242F01C021E089898B831A82198281E0AF
:102460008D836E838EE48C0D8F83CE0101962C8B31
:102470000E94E3194B015C010F8510E00E945F1C74
:102480002C8930E02150310987E0829FF001839F41
:10249000F00D11248091DD079801281B3109C90135
:1024A000079667E070E00E942F46DF01A80FB91F72
:1024B00020E831E541E050E00E94474E680D791D6B
:1024C0008A1D9B1DF11004C060587A438940910910
:1024D00064960FB6F894DEBF0FBECDBFDF91CF91EB
:1024E0001F910F91FF90EF90DF90CF90BF90AF9032
:1024F0009F908F9008958F929F92AF92BF92CF92AC
:10250000DF92EF92FF920F931F93CF93DF936C01B3
:10251000E0907209F09073090091740910917509A7
:102520002091760930917709409178095091790985
:1025300060917A0970917B0980917C0990917D0965
:102540000E940612C2E7D9E068A379A38AA39BA3DD
:10255000EEE7F9E0E080F18002811381248135818A
:102560004681578160857185828593850E94061218
:102570006B017C016CA37DA38EA39FA3AE89BF8951
:102580002CE330E00E944C4608A119A12AA13BA1EE
:1025900048015901861A970AA80AB90A888E998EA5
:1025A000AA8EBB8EAA85BB852CE330E00E944C46E8
:1025B000C61AD70AE80AF90ACC8EDD8EEE8EFF8E97
:1025C000DF91CF911F910F91FF90EF90DF90CF900F
:1025D000BF90AF909F908F900895CF92DF92EF922F
:1025E000FF92CF93DF936B017C010E94831CEC016F
:1025F00060918A0970918B0980918C0990918D0965
:102600000E94831CC817D90731F0C701B6010E9488
:10261000831C0E947B12C701B6010E94831CEC013F
:1026200060918A0970918B0980918C0990918D0934
:102630000E94831CC817D90731F0C701B6010E9458
:10264000831C0E947B1240918E0950918F096091EA
:1026500090097091910980918A0990918B09A091BC
:102660008C09B0918D0984179507A607B70758F410
:10267000C816D906EA06FB06D8F0C416D506E60643
:10268000F706B0F40AC0C416D506E606F70628F029
:10269000C816D906EA06FB0658F082E799E090933F
:1026A000D9078093D807A0917C09B0917D090AC011
:1026B0008EE799E09093D9078093D807A091880975
:1026C000B09189092CE330E00E944C466C0D7D1DD1
:1026D0008E1D9F1DDF91CF91FF90EF90DF90CF90E7
:1026E0000895F8940E941A2678940895CF92DF9264
:1026F000EF92FF920F931F93CF93DF9300D0CDB74C
:10270000DEB7062F1092D7074A8389830E9440279D
:1027100089818093D7074A814093D60710915A0147
:10272000143021F061E084E00E94BA2361E0812F3F
:102730000E94BA2361E0812F0E948A2361E085E034
:102740000E94BA2360E086E00E94BA2361E087E03D
:102750000E94BA2380E58CBD8DB581608DBD10913E
:102760005B0160E0812F0E94BA2361E0812F0E940B
:102770008A2380E090E00E941A2685E092E80E9479
:102780001A2680E098EB0E941A260E9430246B01E2
:102790007C01812F0E946123892B91F40E943024B7
:1027A000AB01BC014C195D096E097F09483C51051C
:1027B0006105710528F480E090E00E941A26E9CFB7
:1027C0000E943024DC01CB018C199D09AE09BF09A0
:1027D000883C9105A105B10508F04BC020E1029F9E
:1027E000C0011124876C90680E941A2680E496EA42
:1027F0000E941A2688E096EC0E941A2682EA94E942
:102800000E941A268CEA92EC0E941A26F090D607B3
:10281000FF2041F083E89AEC0E941A268F2D90E069
:102820009E6C06C08BE89AEC0E941A268DE29EEC04
:102830000E941A2683E894EC0E941A2680E598E903
:102840000E941A2687E79CEC0E941A2680E090EEF0
:102850000E941A2680E098EC0E941A2683E490ECED
:102860000E941A2684E08093D5070E94402781E0C9
:1028700001C080E00F900F90DF91CF911F910F91D9
:10288000FF90EF90DF90CF900895009769F0FC01E2
:1028900001900020E9F73197AF01481B590BBC01AB
:1028A00081EE97E00C94A22180E090E008950F93D0
:1028B0001F93CF93DF938C01C0E0D0E0F801EC0FC1
:1028C000FD1F6491662371F0E091E107F091E2074A
:1028D0000190F081E02D81EE97E00995892B11F0B0
:1028E0002196ECCFCE01DF91CF911F910F910895EA
:1028F000CF93DF930E945714EC0185E294E00E948D
:1029000045148C0F9D1FDF91CF910895CF93DF93D6
:102910000E944514EC0185E294E00E9445148C0F5E
:102920009D1FDF91CF91089581E480937C00809179
:102930007A00806480937A0080917A0086FDFCCFD3
:10294000809178002091790090E0922B08952F9249
:102950003F924F925F926F927F928F929F92AF922F
:10296000BF92CF92DF92EF92FF920F931F93CF937C
:10297000DF93CDB7DEB72C970FB6F894DEBF0FBE4E
:10298000CDBFFA0101900020E9F79F01241B350B10
:10299000082F10E01C870B87F801E552F44F808167
:1029A000000F111F1A830983811109C080E690E08E
:1029B0000A5A1E4FD8018D939C9381E08083098130
:1029C0001A810A5A1E4FD8018D909C9078EF72039D
:1029D000C001739F900D1124C096881599050CF0C5
:1029E00092C08A01262EFA0101900020E9F79F018A
:1029F000241B350B3C832B837401612C712C2B81A0
:102A00003C81621673060CF064C03BE2E316F104ED
:102A10000CF458C0F801E60DF71D808180322CF0CF
:102A2000082E000C990B809702C080E090E09C017A
:102A300063E0220F331F6A95E1F73E832D83412C1B
:102A4000512C97012A5F3F4F3A872987ED81FE81FC
:102A5000E40DF51DE555F44FE491670155E0A52E11
:102A6000B12C2E2F30E038872F83342C320C38ECE9
:102A7000E316F104ACF480E3C816D1048CF08F8126
:102A800098850A2C02C0959587950A94E2F780FFF5
:102A900002C041E001C040E0632D8C2D0E949309EB
:102AA0009FEFC91AD90AA1E0AA1AB10829853A8567
:102AB000C216D306E1F63FEF431A530A88E04816E0
:102AC000510421F69FEF691A790AA8E0EA0EF11C79
:102AD00096CFE981FA81EA5AFE4F31E0831A9108D4
:102AE000918280820E9430242B853C85220F331FE7
:102AF000220F331F2353384FD9016D937D938D934C
:102B00009C9313970CC01082EB85FC85E553F84F1E
:102B100081E0808380E690E0F801918380832C96A9
:102B20000FB6F894DEBF0FBECDBFDF91CF911F91DE
:102B30000F91FF90EF90DF90CF90BF90AF909F905C
:102B40008F907F906F905F904F903F902F9008955F
:102B50009F92AF92BF92CF92DF92EF92FF920F932C
:102B60001F93CF93DF93A22E2BE0429F600D711D28
:102B700011249CE0969F6001979FD00C112400E0E7
:102B800010E097E0992E980EC8018C0D9D1DFC0158
:102B9000E95EF64F7F01C4E0D0E082E0B82EB00ECF
:102BA000F701A491B0E00C2E02C0B595A7950A9448
:102BB000E2F7A0FF05C04A2D6B2D892D8C1B04C0A8
:102BC00040E06B2D892D8C1B0E949309219740F7C3
:102BD0000F5F1F4F0C301105B9F6DF91CF911F9198
:102BE0000F91FF90EF90DF90CF90BF90AF909F90AC
:102BF0000895EF92FF920F931F93CF93DF937C0181
:102C00008B01CFE5D9E08D819E810E946718B701C5
:102C10008D819E810E94FA1740E06EEB8D819E812E
:102C20000E94B8178D819E810E944B18F801808305
:102C30008D819E810E944B18F80181838D819E8138
:102C40000E944B18F80182838D819E810E944B184F
:102C5000F80183838D819E810E944B18F801848343
:102C60008D819E810E944B18F80185838D819E8104
:102C70000E944B18F80186838D819E810E944B181B
:102C8000F80187838D819E810E944B18F80180870F
:102C90008D819E81DF91CF911F910F91FF90EF90D9
:102CA0000C946718CF93DF93EB010E94F91568E04D
:102CB000CE010E94AB1791E02885821390E0892F06
:102CC000DF91CF9108954F925F926F927F928F9292
:102CD0009F92AF92BF92CF92DF92EF92FF92CF93EB
:102CE000DF93CDB7DEB729970FB6F894DEBF0FBEDE
:102CF000CDBFBE016F5F7F4F83EC97E00E945216FD
:102D0000882309F48AC08A8190E0982F8827298136
:102D1000822B2091C3072232B9F12832A9F1203148
:102D200009F081C0F884BC0175956795072E000CE9
:102D3000880B990B0E94CD4C20E030E040E85EE328
:102D40000E948A464B015C018F2D90E02F81821BEF
:102D50009109BC01990F880B990B0E94CD4C2B0156
:102D60003C016F2D70E080E090E00E94CB4C9B0115
:102D7000AC01C301B2010E94F7469B01AC01C50141
:102D8000B4010E948B4636C02D812F33B1F1A0F4DF
:102D90002F3109F048C0BC0123E0759567952A954D
:102DA000E1F7072E000C880B990B0E94CD4C20E018
:102DB00030E040E05FE31CC02F3569F02F3799F514
:102DC000BC01990F880B990B0E94CD4C20E030E09C
:102DD00040E85DE30DC0BC0175956795072E000CBA
:102DE000880B990B0E94CD4C20E030E040E05EE380
:102DF0000E942C4D6B017C0116C0BC017595679536
:102E000075956795072E000C880B990B0E94CD4C89
:102E100020E030E040E85EE3EBCFC12CD12C8EEF18
:102E2000E82E82ECF82EC701B60129960FB6F89469
:102E3000DEBF0FBECDBFDF91CF91FF90EF90DF904F
:102E4000CF90BF90AF909F908F907F906F905F904A
:102E50004F90089580916409909165090E946718C8
:102E600040E06CEC80916409909165090E94B8176C
:102E700040915F0964E480916409909165090E9422
:102E8000B817809161098823E9F0809160098A3040
:102E900049F08B3061F0893079F46EE570E080E0C4
:102EA00090E00EC06CEB70E080E090E009C067E756
:102EB00071E080E090E004C06EEE72E080E090E0AF
:102EC0000C94F62308950895FC0190810180F2810D
:102ED000E02D892F809560FF12C0F8942281822313
:102EE00082838181892B8183A3E2B0E01197F1F77E
:102EF0008281982B9283789487ED90E011C0F894AA
:102F00002281822382838181892B8183AFEFB0E08C
:102F10001197F1F78281982B928378948FE090E05B
:102F20000197F1F708958627682F62956827062E86
:102F3000669566956025062E669560256770082E55
:102F4000892F669507946795902D86270694679537
:102F5000902586270895DC01E0E0615038F08D91DE
:102F6000E827F0E0EB50F14FE491F7CF8E2F089572
:102F7000CF92DF92EF92FF920F931F93CF93DF9345
:102F80001F92CDB7DEB76C01E62E08E010E0FF24FB
:102F9000F39461E08F2D8E2109F460E0C60149832E
:102FA0000E946417FF0C0150110949810115110598
:102FB00081F7411115C0F894D6011196ED91FC915D
:102FC000129791818C918095892381831196ED913F
:102FD000FC91129792818C918095892382837894B9
:102FE0000F90DF91CF911F910F91FF90EF90DF90A5
:102FF000CF900895CF92DF92EF92FF920F931F939D
:10300000CF93DF931F92CDB7DEB78C01F62E40E051
:1030100065E579830E94B817CF2C7981D72E760188
:1030200088E0E80EF11CF60161916F0140E0C801F3
:103030000E94B817CE14DF04B1F70F90DF91CF9143
:103040001F910F91FF90EF90DF90CF900895FC01BA
:1030500090810180F281E02DF8948181892B818318
:103060002281892F809528232283A7E0B0E0119741
:10307000F1F7218182238183A3E2B0E01197F1F778
:1030800080817894EFECF0E03197F1F7982381E0BC
:1030900009F480E00895EF92FF920F931F93CF936E
:1030A000DF937C0108E010E0C0E0D1E0C7010E949E
:1030B00027188111CD2BDD0F01501109B9F78C2F85
:1030C000DF91CF911F910F91FF90EF900895FC0138
:1030D00090810180F281E02DF8948181292F209543
:1030E0008223818378948DE743E050E0815021F181
:1030F000DA011197F1F730813923C1F3F894828115
:10310000822382838181892B81837894ABECB7E021
:103110001197F1F7F894818128232183ABE3B1E083
:103120001197F1F78081982381E009F080E078948D
:10313000EBE8F6E03197F1F70895AF92BF92CF92A6
:10314000DF92EF92FF920F931F93CF93DF931F9223
:10315000CDB7DEB75C01E62ED72EFC018585811147
:103160005DC0C5010E946718811105C0F501138675
:10317000158614866BC040E060EFC5010E94B81749
:1031800001E0F12CC12C11E0C5010E942718682F25
:10319000C50169830E9427186981613019F4813063
:1031A000B9F433C04F2D50E068131BC0F50183857F
:1031B000181730F4E40FF51F8381802349F402C00F
:1031C000181731F060E0193058F4F501148708C081
:1031D000F501EF0DF11D8381802B838361E009C030
:1031E000C12EF501E40FF51F9381802F809589236F
:1031F0008383C5010E9464171F5F000F11F4F394CD
:1032000001E0F7E0FF1508F0BFCF113438F0F50109
:10321000C386C11015C081E0858712C0F5011386F1
:103220001586148680E0D5011396EE2DFD2D9501AF
:10323000255F3F4F9D919193A217B307D9F706C021
:10324000F5018381882351F381E0EDCF0F90DF9169
:10325000CF911F910F91FF90EF90DF90CF90BF9093
:10326000AF900895609396057093970580939805A5
:1032700090939905DC01CB01845D9E4FAF4FBF4F0A
:103280008093920590939305A0939405B093950530
:1032900082E090E09093C7058093C6050E94302499
:1032A0006093100C7093110C8093120C9093130C7C
:1032B0000895CF92DF92EF92FF920F931F930E9497
:1032C0003024C090100CD090110CE090120CF090B3
:1032D000130C8B019C010C191D092E093F098091CB
:1032E000960590919705A0919805B0919905083E93
:1032F000134021053105D0F00196A11DB11D809329
:10330000960590939705A0939805B0939905B701FA
:10331000A60148515C4F6F4F7F4F4093100C509364
:10332000110C6093120C7093130CC9CF409192054D
:1033300050919305609194057091950584179507B8
:10334000A607B70788F1E0919A05F0919B053097A1
:1033500059F10995611571058105910519F00E94D2
:10336000321922C08091960590919705A0919805F9
:10337000B0919905845D9E4FAF4FBF4F80939205EA
:1033800090939305A0939405B093950581E090E008
:103390002091C6053091C705232B11F480E090E001
:1033A0009093C7058093C605609196057091970527
:1033B00080919805909199051F910F91FF90EF9042
:1033C000DF90CF9008956F927F928F929F92AF92ED
:1033D000BF92CF92DF92EF92FF920F931F93CF9302
:1033E000DF93EC01EE81AE2FB0E020E833E341EE55
:1033F00051E00E943C4E4B015C0122EB37E0FD01A5
:1034000004E610E080E9E82EFF24F394C901825B12
:1034100097408E179F07DCF4C90183709927892B89
:1034200099F4C901B8010E942F46892B31F4C901D2
:10343000B7010E942F46892B39F480E8880E81E578
:10344000981E81E0A81EB11C2F5F3F4FDFCF6D801B
:10345000712CEE54F84FCF0164E670E00E942F46C5
:103460007C01CF0160E971E00E942F466C0101E010
:1034700010E0E370FF27061517052CF50230110543
:1034800081F4309771F4E114F10419F4C114D104FA
:1034900041F480E8880E8BE3981E86E2A81EB11CDA
:1034A0000FC0D801A35BBD4FAC91B0E020E831E57F
:1034B00041E050E00E943C4E860E971EA81EB91EA9
:1034C0000F5F1F4FD8CF49812A8130E0A0E1BEE0D5
:1034D0000E94714E6B017C01242F30E0ACE3B0E020
:1034E0000E94714EDC01CB018C0D9D1DAE1DBF1DD8
:1034F00028816C017D01C20ED11CE11CF11CAC8144
:10350000B0E0119720E831E541E050E00E94474EDD
:10351000DC01CB018C0D9D1DAE1DBF1DBC01CD017D
:10352000680D791D8A1D9B1DDF91CF911F910F9111
:10353000FF90EF90DF90CF90BF90AF909F908F90D3
:103540007F906F9008951F93CF93DF93CDB7DEB731
:1035500027970FB6F894DEBF0FBECDBF11E01093D2
:10356000BB0C88E68093DC0C1092820810928108D4
:1035700060E085E898E00E94CC1D81E00E94DB2B92
:10358000882319F010920B0CBCC010930B0C809187
:1035900080088111FCCF81E08093800880937F08B0
:1035A0009FEF9093BA0C1092B90C96E09093B80CE0
:1035B0008093970C8091970C806D8093970C8091ED
:1035C0007E08813061F410927E088091970C809380
:1035D000BB008091BC0083FDF8CF85EC01C085EE77
:1035E0008093BC00809180088130E1F38091B90C18
:1035F000873018F48091B90C01C087E0A8E9BCE0DD
:103600002BEE3BE0F9019E2F921B981718F49D9129
:103610009193F9CF1092840880938308873008F43F
:1036200070C085E898E00E94801D182F86958695C9
:1036300086958E70982F990F990F890F912F9F70F3
:10364000890F898385E898E00E94801D282F2295A4
:103650002F70982F9F708AE0289F900D11249A83D5
:1036600085E898E00E94801D982F282F26952695A2
:1036700026952670822F880F880F280F9F70920F33
:103680009B8385E898E00E94801D282F22952F704B
:10369000982F9F708AE0289F900D11249C8385E8C5
:1036A00098E00E94801D282F22952F70982F9F70E0
:1036B0008AE0289F900D11249D8385E898E00E9460
:1036C000801D282F22952F70982F9F708AE0289FA9
:1036D000900D11249E8385E898E00E94801D982F0C
:1036E0009F70925E282F22952F708AE0289F900D60
:1036F00011249F8317FD05C0CE0101960E94E31996
:1037000003C060E070E0CB0127960FB6F894DEBFEF
:103710000FBECDBFDF91CF911F9108956F927F9221
:103720008F929F92AF92BF92CF92DF92EF92FF92D1
:103730000F931F93CF93DF93EA012CE3C22ED12C7A
:10374000E12CF12CA70196010E944F4E6883CA011B
:10375000B901A70196010E944F4E6983CA01B901C0
:1037600028E130E040E050E00E944F4E69017A01CC
:103770006A83CA01B9016C5F7F4F8F4F9F4F27E06B
:1037800030E040E050E00E944F4E6F5F6B83812C31
:10379000912C540140E034E6632E712C00E911E0D5
:1037A000242F30E02E54384FF901E370FF27309773
:1037B00089F4C901B3010E942F46892B31F4C90154
:1037C000B8010E942F46892B29F48EE691E0A0E0F3
:1037D000B0E004C08DE691E0A0E0B0E0880E991E54
:1037E000AA1EBB1ED501C401AA27BB27C816D9062D
:1037F000EA06FB0610F04F5FD3CF4E83309799F463
:10380000C90164E670E00E942F46892B39F4C90192
:1038100060E971E00E942F46892B29F48EE691E041
:10382000A0E0B0E004C08DE691E0A0E0B0E0881A2E
:10383000990AAA0ABB0AC818D908EA08FB08C901EC
:1038400064E670E00E942F468C01C90160E971E0D6
:103850000E942F46AEE4B2E020E0213041F43097E0
:1038600051F40115110529F4009729F402C04C9177
:1038700003C04DE101C04CE150E060E070E0C416CF
:10388000D506E606F70640F0C41AD50AE60AF70A96
:103890002F5F11962C3009F72F5F2D83C394CC82B4
:1038A000DF91CF911F910F91FF90EF90DF90CF901C
:1038B000BF90AF909F908F907F906F900895CF9220
:1038C000DF92EF92FF92C0900C0CD0900D0CE09024
:1038D0000E0CF0900F0C6C157D058E059F0571F098
:1038E0006B017C014AED57E00E948E1BC0920C0CCC
:1038F000D0920D0CE0920E0CF0920F0CFF90EF9016
:10390000DF90CF9008950E945F1C8091E00790E0C7
:103910008E54984F08950E9459190E945F1C8091FF
:10392000DA0790E008950E9459190E945F1C809167
:10393000DB0790E00895FF920F931F93CF93DF93DF
:103940008C01D1E0D093BB0C88E6F82EF092DC0C11
:10395000109282081092810860E085E898E00E9449
:10396000CC1D60E885E898E00E94CC1DF8018181BB
:10397000CAE06C2F0E940F46692FF0E18F9F600D07
:10398000112485E898E00E94CC1DF80182816C2FFB
:103990000E940F46692FF0E18F9F600D112485E88A
:1039A00098E00E94CC1DF80183816C2F0E940F4685
:1039B000692FF0E18F9F600D112485E898E00E9447
:1039C000CC1DF80184816C2F0E940F46692FF0E115
:1039D0008F9F600D112485E898E00E94CC1DF801AE
:1039E00085816C2F0E940F46692FF0E18F9F600D3B
:1039F000112485E898E00E94CC1DF80186818E5143
:103A00006C2F0E940F46692FF0E18F9F600D1124EB
:103A100085E898E00E94CC1D81E00E94DB2B882382
:103A200021F010920B0C80E023C0D0930B0CD093AC
:103A3000BB0CF092DC0C109282081092810860E0BE
:103A400085E898E00E94CC1DF80180816C2F0E94CF
:103A50000F46692FF0E18F9F600D112485E898E0F3
:103A60000E94CC1D81E00E94DB2B8111DACF81E026
:103A7000DF91CF911F910F91FF90089585ED809375
:103A8000BC008091BC0084FDFCCF1092800808959A
:103A90004091410C262F30E0240F311D2132310599
:103AA000DCF4209180082430C9F4FC0180E090E02F
:103AB000861758F43091410C2191DC01A15EB34F7F
:103AC000A30FB11D2C930196F3CF8091410C680F89
:103AD0006093410C80E0089581E0089582E00895AC
:103AE0000895E091840880918308E81730F4F0E0AD
:103AF000E551F44F808190E008958FEF9FEF089596
:103B00009091840880918308981750F4E92FF0E091
:103B1000E551F44F208130E09F5F9093840802C00C
:103B20002FEF3FEFC90108958091830890E0209125
:103B30008408821B91090895CF92DF92EF92FF9241
:103B40000F931F93CF93DF937C01262F972F8A012A
:103B50008091BB0C882391F0C62FD72F6E01C40E25
:103B6000D51ECC15DD0571F06991D701ED91FC9161
:103B70000190F081E02DC7010995F3CF642F822FCA
:103B80000E94481DC801DF91CF911F910F91FF90B6
:103B9000EF90DF90CF900895CF93DF931F92CDB732
:103BA000DEB769832091BB0C2223D1F020918108DC
:103BB000203240F021E030E0FC013383228380E0BA
:103BC00090E015C080918208E82FF0E0E454F34FB4
:103BD000998190838F5F809382088093810805C0CC
:103BE00061E0CE0101960E94481D81E090E00F90B7
:103BF000DF91CF9108951F920F920FB60F9211246B
:103C00000BB60F922F933F934F935F936F937F93D6
:103C10008F939F93AF93BF93EF93FF938091B900DE
:103C2000887F803609F49CC068F5883209F45BC04F
:103C300090F4803109F454C038F4882309F4F6C0B4
:103C4000883009F44DC0F6C0883109F44CC0803288
:103C500009F45DC0EFC0803409F468C048F48033D3
:103C600009F455C0883309F0E5C08093BA0CD8C078
:103C7000803509F44FC0883509F45DC0883409F0F7
:103C8000D9C0D6C0883909F4C7C0A8F4883709F468
:103C900067C038F4883609F463C0803709F460C01F
:103CA000C9C0883809F4B8C0803909F45FC08038C9
:103CB00009F0C0C05BC0803B09F486C038F4803A8C
:103CC00009F466C0883A09F47FC0B4C0803C09F4A6
:103CD000A7C0883C09F4A4C0883B09F48AC0AAC0E4
:103CE0008091970C10C09091B90C8091B80C9817E6
:103CF00070F5E091B90C81E08E0F8093B90CF0E083
:103D0000E856F34F80818093BB0085EC86C080939A
:103D1000BA0C8EC0E091B90C81E08E0F8093B90C83
:103D20008091BB00F0E0E856F34F80839091B90C8E
:103D30008091B80C6EC0E091B90C81E08E0F809339
:103D4000B90C8091BB00F0E0E856F34F808380917E
:103D50007F0881116DC081E080937E0884EA61C094
:103D600083E0809380081092650CCFCF8091650C22
:103D7000803208F051C0E091650C81E08E0F809395
:103D8000650C8091BB00F0E0EB5BF34F8083BDCF0F
:103D900085EC8093BC00109280088091650C803285
:103DA00030F4E091650CF0E0EB5BF34F1082609132
:103DB000650C70E0E091430CF091440C85E49CE0CC
:103DC00009951092650C36C084E0809380081092AB
:103DD000420C1092410CE0913F0CF091400C09957F
:103DE0008091410C811105C081E08093410C1092BB
:103DF0001F0CE091420C81E08E0F8093420CF0E0AA
:103E0000E15EF34F80818093BB009091420C8091E2
:103E1000410C981708F479CF85E88093BC000AC05C
:103E200085EC8093BC001092800804C01092BA0CFC
:103E30000E943E1DFF91EF91BF91AF919F918F9195
:103E40007F916F915F914F913F912F910F900BBE9A
:103E50000F900FBE0F901F901895CF92DF92EF92A8
:103E6000FF920F931F93CF93DF93CDB7DEB72897C1
:103E70000FB6F894DEBF0FBECDBF1091BC050E94F7
:103E80003024C090B505D090B605E090B705F0900D
:103E9000B805DC01CB018C199D09AE09BF09853F2E
:103EA0009140A105B10598F00E9430246093B505BA
:103EB0007093B6058093B7059093B8058091B405CB
:103EC000811103C01093B40502C01092B405E091B3
:103ED000B0058E2F90E0FC013197E930F10508F034
:103EE000E9C1E456FF4F0C944346012F21E030E036
:103EF00046E754E060E070E080E090E00E942E0A27
:103F00008091820C0091B40521E030E0882319F003
:103F10004FE754E044C049E854E041C0012F21E09C
:103F200030E042E954E060E070E080E090E00E9420
:103F30002E0A8091A105823009F160F48823B9F03E
:103F4000813009F0B7C10091B40521E030E040EACA
:103F500054E025C0843031F1E0F0853009F0AAC189
:103F60000091B40521E030E046EB54E09DC10091A2
:103F7000B40521E030E04BE954E011C00091B405F4
:103F800021E030E046EA54E068E070E088E090E04C
:103F90008FC10091B40521E030E04AEA54E068E0C6
:103FA00070E034C10091B40521E030E041EB54E011
:103FB000B6C0012F21E030E04EEB54E060E070E04D
:103FC00081E090E00E942E0A8091810C1F928F93D5
:103FD00084EC94E09F938F931F9288E08F93CE019F
:103FE00001967C019F938F930E94B5470091B40581
:103FF00021E030E0A70168E070E081E090E0D6C009
:10400000012F21E030E04DE853E060E070E080E017
:1040100090E00E942E0A21E030E04BEC54E068E092
:1040200070E080E090E00E942E0A80911E0C0091CA
:10403000B40521E030E0882319F045EE54E002C0D9
:1040400049EC53E068E070E088E290E031C1E09133
:10405000B1058E2F90E08830910508F02BC1FC014E
:10406000EB55FF4F0C944346012F21E030E042ED29
:1040700054E060E070E08AE090E00E942E0A21E0C7
:1040800030E04DE653E010C1012F21E030E048ED73
:1040900054E060E070E081E090E00E942E0A8091A0
:1040A000CC050091B40521E030E0882319F040EE02
:1040B00054E002C043EE54E068E070E08FE090E02E
:1040C000F7C08091CC05811104C087E08093B105D1
:1040D000F1C0012F21E030E047EE54E060E070E0F5
:1040E00081E090E00E942E0A80919E05813051F07F
:1040F00080F0823071F40091B40521E030E04DEFA2
:1041000054E00DC00091B40521E030E045EF54E0EB
:1041100006C00091B40521E030E04DEE54E068E0C7
:1041200070E085E090E0C4C0012F21E030E045E080
:1041300055E060E070E085E090E00E942E0A8091FA
:104140009C051BC0012F21E030E040E155E060E01C
:1041500070E081E090E00E942E0A80919D050DC0E4
:10416000012F21E030E048E155E060E070E081E0BF
:1041700090E00E942E0A80911D0C1F928F938AE07E
:1041800095E09F938F931F9288E08F93CE010196C5
:104190007C019F938F930E94B5470091B40521E065
:1041A00030E0A70168E070E08FE090E00E942E0A06
:1041B0000FB6F894DEBF0FBECDBF7CC0012F21E04B
:1041C00030E04FE155E060E070E081E090E00E9477
:1041D0002E0A80911C0C882339F000911B0C21E0E1
:1041E00030E04FE355E006C00091B40521E030E037
:1041F00041EE54E068E070E084E190E059C0012FA6
:1042000021E030E04FEA53E060E070E081E090E0D0
:104210004FC0012F21E030E047E255E060E070E060
:1042200082E090E00E942E0A8091C9051BC0012FF8
:1042300021E030E04BE255E060E070E082E090E0A9
:104240000E942E0A8091CB050DC0012F21E030E0A5
:104250004FE255E060E070E080E090E00E942E0ABE
:104260008091A0050091B40521E030E0882319F089
:1042700040EE54E002C043EE54E068E070E08AE0B3
:1042800090E016C00091B40521E030E049E355E02C
:1042900060E070E082E090E00E942E0A0091B40598
:1042A00021E030E041E455E068E070E080E090E03B
:1042B0000E942E0A28960FB6F894DEBF0FBECDBF1F
:1042C000DF91CF911F910F91FF90EF90DF90CF90F2
:1042D00008950F930E94310981E080935C01109250
:1042E0001A0C1092190C1092180C1092170C1092B4
:1042F000160C1092150C1092140C0091BC0522E0C3
:1043000030E04AE455E060E070E080E090E00E9438
:104310002E0AE0919A09F0E0EE0FFF1FE65AFD4FDA
:10432000408151810091BC0522E030E068E070E0FE
:1043300080E090E00E942E0A0F9108950C940F4E99
:104340000C94FD4DCF92DF92EF92FF920F931F934B
:10435000CF93DF936C017A018B01C0E0D0E0CE15E2
:10436000DF0589F0D8016D918D01D601ED91FC91A9
:104370000190F081E02DC6010995892B11F47E0191
:1043800002C02196ECCFC701DF91CF911F910F9111
:10439000FF90EF90DF90CF900895FC01918D828D7A
:1043A000981761F0828DDF01A80FB11D5D968C9189
:1043B000928D9F5F9F73928F90E008958FEF9FEF94
:1043C0000895FC01918D828D981731F0828DE80F50
:1043D000F11D858D90E008958FEF9FEF0895FC010A
:1043E000918D228D892F90E0805C9F4F821B9109D7
:1043F0008F739927089581EE97E00E94EF2121E0C5
:10440000892B09F420E0822F0895FC01848DDF01BF
:10441000A80FB11DA35ABF4F2C91848D90E0019637
:104420008F739927848FA689B7892C93A089B18926
:104430008C9180648C93938D848D981306C0028830
:10444000F389E02D80818F7D80830895EF92FF9224
:104450000F931F93CF93DF93EC0181E0888F9B8DA7
:104460008C8D981305C0E889F989808185FD24C069
:10447000F62E0B8D10E00F5F1F4F0F731127E02EEC
:104480008C8DE8120CC00FB607FCFACFE889F989C9
:10449000808185FFF5CFCE010E940522F1CF8B8D63
:1044A000FE01E80FF11DE35AFF4FF0820B8FEA89FE
:1044B000FB898081806207C0EE89FF896083E8897B
:1044C000F98980818064808381E090E0DF91CF91E1
:1044D0001F910F91FF90EF900895CF93DF93EC0120
:1044E000888D8823C9F0EA89FB89808185FD05C014
:1044F000A889B9898C9186FD0FC00FB607FCF5CF4E
:10450000808185FFF2CFA889B9898C9185FFEDCF95
:10451000CE010E940522E7CFDF91CF91089580E080
:1045200090E0892B21F00E94FB2181110DC080E0D9
:1045300090E0892B71F080E090E0892B51F00E948F
:104540000000811104C008950E940000F0CF0C9477
:104550000000089590E0FC013197EA30F10540F544
:10456000E355FF4F0C944346809180008F7703C042
:10457000809180008F7D80938000089584B58F772F
:1045800002C084B58F7D84BD08958091B0008F777F
:1045900003C08091B0008F7D8093B000089580911A
:1045A00090008F7703C0809190008F7D8093900062
:1045B00008953FB7F89480916E0C90916F0CA09184
:1045C000700CB091710C26B5A89B05C02F3F19F057
:1045D0000196A11DB11D3FBFBA2FA92F982F882783
:1045E000820F911DA11DB11DBC01CD0142E0660FDE
:1045F000771F881F991F4A95D1F7089508950E9443
:10460000A9471F920F920FB60F9211240BB60F926B
:104610002F933F934F935F936F937F938F939F93CA
:10462000AF93BF93EF93FF9381EE97E00E94052233
:10463000FF91EF91BF91AF919F918F917F916F917A
:104640005F914F913F912F910F900BBE0F900FBE36
:104650000F901F9018951F920F920FB60F92112472
:104660000BB60F922F938F939F93EF93FF93E0914D
:10467000F107F091F2078081E091F707F091F807D8
:1046800082FD12C090818091FA078F5F8F73209115
:10469000FB07821751F0E091FA07F0E0EF51F84F75
:1046A000958F8093FA0701C08081FF91EF919F91D0
:1046B0008F912F910F900BBE0F900FBE0F901F90F8
:1046C0001895CF93DF93282F30E0F901E75FFF4E75
:1046D0008491F901EB52F14FD491F901EB54F14F70
:1046E000C491CC2391F081110E94AA22EC2FF0E01A
:1046F000EE0FFF1FE555F14FA591B491EC91ED231D
:1047000081E090E021F480E002C080E090E0DF9161
:10471000CF9108951F93CF93DF93282F30E0F901B5
:10472000E75FFF4E8491F901EB52F14FD491F9010B
:10473000EB54F14FC491CC23C9F0162F81110E9484
:10474000AA22EC2FF0E0EE0FFF1FE150F04FA591F1
:10475000B4918FB7F894111105C09C91ED2FE0959D
:10476000E92302C0EC91ED2BEC938FBFDF91CF9149
:104770001F910895CF93DF9390E0FC01EB52F14F2E
:104780002491FC01EB54F14F8491882361F190E076
:10479000880F991FFC01EB50F04FC591D491FC019B
:1047A000E150F04FA591B491611109C09FB7F89401
:1047B0008881209582238883EC912E230BC0623060
:1047C00061F49FB7F8943881822F80958323888382
:1047D000EC912E2B2C939FBF06C08FB7F894E881E5
:1047E0002E2B28838FBFDF91CF9108958F929F92B8
:1047F000AF92BF92CF92DF92EF92FF926B017C015A
:104800000E94D9224B015C01C114D104E104F104DE
:10481000F1F00E94D922DC01CB0188199909AA097B
:10482000BB09883E9340A105B10570F321E0C21A8F
:10483000D108E108F10888EE880E83E0981EA11CDB
:10484000B11CC114D104E104F10419F7DDCFFF90CC
:10485000EF90DF90CF90BF90AF909F908F90089592
:104860002FB7F89460916A0C70916B0C80916C0C6E
:1048700090916D0C2FBF08951F920F920FB60F925B
:1048800011242F933F938F939F93AF93BF93809166
:104890006A0C90916B0CA0916C0CB0916D0C3091E6
:1048A000690C23E0230F2D3720F40196A11DB11DC3
:1048B00005C026E8230F0296A11DB11D2093690CA7
:1048C00080936A0C90936B0CA0936C0CB0936D0C5E
:1048D00080916E0C90916F0CA091700CB091710C46
:1048E0000196A11DB11D80936E0C90936F0CA09347
:1048F000700CB093710CBF91AF919F918F913F91CC
:104900002F910F900FBE0F901F901895813039F0A6
:1049100020F0823029F4EA9803C0E89801C0E998B1
:10492000E82FF0E0EE0FFF1FE35AFE4F8EEF92E20A
:104930009183808308951F920F920FB60F921124D6
:104940000BB60F922F933F934F935F936F937F9389
:104950008F939F93AF93BF93EF93FF93E091610188
:10496000F09162010995FF91EF91BF91AF919F91F5
:104970008F917F916F915F914F913F912F910F9008
:104980000BBE0F900FBE0F901F9018951F920F92A5
:104990000FB60F9211240BB60F922F933F934F93A4
:1049A0005F936F937F938F939F93AF93BF93EF9397
:1049B000FF93E0915F01F09160010995FF91EF9104
:1049C000BF91AF919F918F917F916F915F914F9127
:1049D0003F912F910F900BBE0F900FBE0F901F9025
:1049E00018951F920F920FB60F9211240BB60F92CB
:1049F0002F933F934F935F936F937F938F939F93E7
:104A0000AF93BF93EF93FF93E0915D01F0915E014F
:104A10000995FF91EF91BF91AF919F918F917F91F8
:104A20006F915F914F913F912F910F900BBE0F901F
:104A30000FBE0F901F9018950F931F93CF93DF9386
:104A40008C01EB014CE050E00E94054EBE01645F1A
:104A50007F4F4CE050E0C8010C96DF91CF911F9141
:104A60000F910C94054E1F920F920FB60F921124C6
:104A70000BB60F922F933F934F935F936F937F9358
:104A80008F939F93AF93BF93EF93FF938091910880
:104A90000E94612320919408309195082F5F3F4F29
:104AA000309395082093940890915E09943618F0FD
:104AB00095E090939208909192089330B9F018F491
:104AC000923039F057C0943059F1953009F44CC008
:104AD00051C081114FC0209194083091950824361F
:104AE000310508F443C010925E091CC0813009F002
:104AF00041C0E0915E0991E09E0F90935E09F0E065
:104B00002091940830919508EE0FFF1FEF56F74F54
:104B100036832583109295081092940894E021C062
:104B2000811117C0E0915E0991E09E0F90935E099C
:104B3000F0E02091940830919508EE0FFF1FEF569A
:104B4000F74F36832583109295081092940893E0CE
:104B500008C020919408309195082536310550F011
:104B600095E09093920806C0811104C010929508B8
:104B70001092940890919308992329F0811102C012
:104B80002D9A01C02D98FF91EF91BF91AF919F9108
:104B90008F917F916F915F914F913F912F910F90E6
:104BA0000BBE0F900FBE0F901F901895CF92DF9203
:104BB000EF92FF92CF93DF93EC01072E000C880B4E
:104BC000990B0E94CD4C6B017C0120E030E040E469
:104BD0005FE30E942C4D20E030E048E452E40E9464
:104BE000F7460E946947C617D707D4F020E030E0A7
:104BF00040EA5FE3C701B6010E942C4D20E030E09F
:104C000048E452E40E94F74620E030E040E85FE3E9
:104C10000E948B460E94694721E06C177D070CF4C7
:104C200020E0822F90E0DF91CF91FF90EF90DF9016
:104C3000CF9008950F931F93CF93DF931F92CDB71B
:104C4000DEB7182F2CB521602CBD60E080915A0191
:104C500099830E948A2399819EBD0DB407FEFDCFE2
:104C60008EB5282F30E0322F22271EBD0DB407FE4F
:104C7000FDCF8EB58901082B61E080915A010E9419
:104C80008A238CB58E7F8CBDC8010F90DF91CF91A8
:104C90001F910F910895CF9380E090E00E941A2613
:104CA0008091D507853009F094C08091670C909170
:104CB000680C892B91F08091660C84FD0EC085E80C
:104CC00080937A008091660C8F70806480937C0062
:104CD00080917A00806480937A0080E090EB0E945B
:104CE0001A26682F8091670C9091680C892B69F0C7
:104CF0008091660C84FD09C080917A0086FDFCCF0E
:104D000090917A00906490937A008091880C811140
:104D10000EC08091D607882351F0E091880C91E075
:104D20009E0F9093880CF0E0E25BF44F8083E0915B
:104D3000880C81E08E0F8093880CF0E0E25BF44FEA
:104D400060838091860C9091870C0E9493179093BA
:104D5000870C8093860C8091670C9091680C892B4E
:104D600039F18091660C84FD23C08091830C8138D9
:104D7000F8F480917A0086FDFCCF80917800209134
:104D8000790090E0922B9C012C5331092F35314052
:104D900078F42091840C3091850C820F931F9093AE
:104DA000850C8093840C8091830C8F5F8093830C9F
:104DB0008091510B2091880C90E0059630E082178D
:104DC00093070CF456C08091880C863808F051C0C7
:104DD00055C08091D50787FF1BC0E091510B809192
:104DE000D50791E0980F9093D507EC5F8E0FE82FD1
:104DF000F0E0E25BF44FC0818091860C9091870CCB
:104E00006C2F0E9493179093870C8093860C2DC073
:104E10008091D50791E0980F9093D5078330F1F0FA
:104E200054F48823A9F08130E9F48091860C9091A4
:104E3000870CC92F1AC08930B9F08A3099F4C09113
:104E4000D6079091510B8DEF891B8093D5070DC02C
:104E50008091860C9091870CC82F07C08DE092E856
:104E60000E941A26CAEA01C0CDE28C2F90E0985425
:104E700002C08DE092E8CF910C941A26CF9108954C
:104E800080915B0196EF980F923010F0823099F587
:104E90002091D707222341F1823019F0933058F541
:104EA000892FE82FF0E0EE0FFF1FE35AFE4F2BE4AF
:104EB00036E231832083813049F0823071F0809175
:104EC00069008C7F80936900E89A08958091690059
:104ED000837F80936900E99A0895809169008F7CAF
:104EE00080936900EA9A0895823019F0933018F49B
:104EF000892F0C9486240895CF92DF92EF92FF922F
:104F00000F931F93CF93DF93CDB7DEB72A970FB6DA
:104F1000F894DEBF0FBECDBF90911A0C992309F40F
:104F2000C2C0182F0E943024C090B505D090B6059D
:104F3000E090B705F090B805DC01CB018C199D0914
:104F4000AE09BF09853F9140A105B105B8F00E94A7
:104F500030246093B5057093B6058093B7059093A0
:104F6000B8058091BA05882321F08091800C8111C9
:104F700003C01093800C02C01092800C8091160C1C
:104F8000882341F08091800C8093780C10937F0CE3
:104F900010937E0C8091150C882341F01093780CAF
:104FA0008091800C80937F0C10937E0C8091140C68
:104FB000882341F01093780C10937F0C8091800C23
:104FC00080937E0C0E9459190E94ED120E945F1C72
:104FD000E091DF07F0E0EE0FFF1FE956FF4E65910D
:104FE000749182EA95E00E94124B82EA95E09F93C9
:104FF0008F9381E693E09F938F931F921AE01F9304
:10500000CE0101967C019F938F930E94B54700913A
:10501000780C22E030E0A70160E070E080E090E0F2
:105020000E942E0A0E9459190E94ED120E945F1CD4
:105030008091DE071F928F939EE8C92E95E0D92EAE
:10504000DF92CF921F921F93FF92EF920E94B5477B
:1050500000917F0C22E030E0A70168E070E080E082
:1050600090E00E942E0A0E9459190E94ED120E949F
:10507000831C9F938F93DF92CF921F921F93FF9277
:10508000EF920E94B54700917E0C21E030E0A7012D
:1050900068E070E084E190E00E942E0A0FB6F89478
:1050A000DEBF0FBECDBF2A960FB6F894DEBF0FBE8F
:1050B000CDBFDF91CF911F910F91FF90EF90DF90C7
:1050C000CF900895FF920F931F93CF93DF9300D05B
:1050D000CDB7DEB7F82E8091770C882309F454C041
:1050E0000E9430240091B5051091B6052091B705B6
:1050F0003091B805DC01CB01801B910BA20BB30BE7
:10510000853F9140A105B10508F444C00E943024B8
:105110006093B5057093B6058093B7059093B80575
:105120008091190C882369F080911B0C811103C0B8
:10513000F0921B0C02C010921B0CF0927D0CF092AE
:10514000760C8091180C882369F080917D0C811178
:1051500003C0F0927D0C02C010927D0CF0921B0CEB
:10516000F092760C8091170C8823A1F08091760C38
:10517000811103C0F092760C02C01092760CF0926E
:105180007D0CF0921B0C06C0F0921B0CF0927D0C73
:10519000F092760C8091820C882309F444C00E941E
:1051A00059190E94ED120E945F1C2091DC072223F6
:1051B00031F0822F90E02D3020F00C9702C08CE06F
:1051C00090E080937C0C0E9459190E94ED120E947D
:1051D0005F1C8091DC0790E00C971CF440911B0C45
:1051E00001C040E061E080E00E94930980917C0C66
:1051F0002AE0622F0E940F460E940F46911106C0BE
:1052000020E04091810C61E070E006C0692F70E001
:1052100020911B0C4091810C8EEF9FEF0E94A815EE
:10522000E2E0F0E01CC00E9459190E94ED120E94B9
:105230005F1C8091DC0780937C0C2AE0622F0E9427
:105240000F460E940F46692F70E020911B0C409181
:10525000810C80E090E00E94A815E0E0F0E08091F1
:105260007C0C6AE00E940F46692F70E020911B0CB5
:105270004091810C86E090E08E1B9F0B0E94A81548
:105280006F2D8FE00E94932D20917D0C4091810C19
:1052900029834A830E94931C0AE010E0B8010E940F
:1052A0002F46CB01B8010E942F4629814A81BC01BB
:1052B0008FE090E00E94A81520917D0C4091810C18
:1052C00029834A830E94931CB8010E942F4629819A
:1052D0004A81BC0186E190E00E94A8156F2D80E212
:1052E0000E94932D2091760C4091810C29834A8352
:1052F0000E948B1CB8010E942F46CB01B8010E946E
:105300002F4629814A81BC0180E290E00E94A815C5
:105310002091760C4091810C29834A830E948B1C3A
:10532000B8010E942F4629814A81BC0187E290E0A2
:105330000F900F90DF91CF911F910F91FF900C94E0
:10534000A8158091750C882359F098E088E10FB674
:10535000F894A895809360000FBE90936000FFCFF3
:105360001092CA051092770C10921A0C1092740CBD
:105370001092AC051092B9051092BA051092190C52
:105380001092180C1092160C1092150C1092140C0E
:105390001092730C1092C1051092AF051092B005D7
:1053A0001092B1051092B2051092B30581E080937E
:1053B0005C011092BB050C943109CF92DF92EF9201
:1053C000FF928091CA05811182C08091A10581114F
:1053D0007EC00E948B1C6AE070E00E942F46892BE1
:1053E00009F075C08091720C811134C00E94941430
:1053F000449764F00E9494148139914064F40E94AF
:105400009414092E000CAA0BBB0B09C084E190E098
:10541000A0E0B0E004C080E991E0A0E0B0E04497F3
:10542000A109B109BC01CD0132E0660F771F881FC9
:10543000991F3A95D1F72CE731E040E050E00E9407
:105440001D4EDA01C9010196A11DB11D8093720C98
:105450000E94420D0E949414449764F00E94941498
:105460008139914064F40E949414092E000CAA0B17
:10547000BB0B09C084E190E0A0E0B0E004C080E98B
:1054800091E0A0E0B0E04497A109B109BC01CD01D1
:1054900022E0660F771F881F991F2A95D1F72CE706
:1054A00031E040E050E00E941D4E69017A018FEF2B
:1054B000C81AD80AE80AF80AC0927B0C8091720CCC
:1054C0008C1529F08C2D0E94420DC092720CFF9019
:1054D000EF90DF90CF90089586E090E00E94A021A9
:1054E0008D3679F080E890E10E9478146DE686E0D0
:1054F00090E00E949E216FE070E080E090E00E94CA
:10550000F62380E090E00E94A02191E0811101C08B
:1055100090E09093820C84E090E00E94A021809320
:10552000A10585E090E00E94A021813009F081E092
:105530008093BC0588E090E00E94A0218093810CBC
:105540008EE090E00E94A02191E0811101C090E0E6
:1055500090931E0C80E190E00E94A0218093AE0504
:1055600085E190E00E94A0218093C80582E190E04F
:105570000E94A02191E0811101C090E090939F05CD
:1055800084E190E00E94A0218093AD0586E190E047
:105590000E94A02191E0811101C090E09093CC0580
:1055A000911108C090917A0C92FF04C084E0892781
:1055B00080937A0C87E190E00E94A02191E0811114
:1055C00001C090E09093C90589E190E00E94A0217C
:1055D00091E0811101C090E09093CB058BE190E0C8
:1055E0000E94A02180939E058EE190E00E94A02160
:1055F00080939C058FE190E00E94A0218093790C1C
:1056000080E290E00E94A02180939D0581E290E0DD
:105610000E94A02180931D0C82E290E00E94A021B4
:1056200091E0811101C090E090931C0C84E290E025
:105630000E94A02191E0811101C090E09093A0050B
:105640000895CF93DF93CDB7DEB729970FB6F894BF
:10565000DEBF0FBECDBFFC0120812031D9F0BE01DD
:105660006F5F7F4F0E945216882381F08D818F33A8
:1056700059F018F48F3171F009C08F3519F08F3758
:1056800039F004C08BE007C08AE005C080E003C0A9
:105690008CE001C089E029960FB6F894DEBF0FBEFA
:1056A000CDBFDF91CF9108950F931F93CF93DF93D9
:1056B000CDB7DEB761970FB6F894DEBF0FBECDBF92
:1056C000E0916409F0916509138615861486DF015F
:1056D0001B9633961E92AE17BF07E1F7109263092F
:1056E00011E0BE01665F7F4F80916409909165096A
:1056F0000E949D18882309F453C067E0CE010A96E2
:105700000E94AB1799898913ECCF80915F098111B1
:1057100026C080916409909165090E946718BE01B6
:10572000665F7F4F80916409909165090E94FA1726
:1057300040E064EB80916409909165090E94B8177C
:1057400080916409909165090E942718082F809123
:105750006409909165090E9467180023F1F0BE0169
:105760006F5F7F4FCE010A960E94F9150091600984
:10577000CE010A960E94212B801718F480916009AF
:1057800004C0CE010A960E94212B8093600980916B
:1057900063098F5F80936309A4CF10935F09DFCF04
:1057A00061960FB6F894DEBF0FBECDBFDF91CF91EB
:1057B0001F910F910895382F209181089091DC0C52
:1057C000213208F049C0809180088111FCCF42E06D
:1057D0004093800830937F083FEF3093BA0C1092CB
:1057E000B90C2093B80CACEBBCE048E95CE0FA01E2
:1057F0003E2F341B321718F43D913193F9CF10929C
:10580000970C2091970C990F922B9093970C909155
:105810007E08913061F410927E089091970C9093DD
:10582000BB009091BC0093FDF8CF95EC01C095EEC4
:105830009093BC00909180089230E1F39091BA0C63
:105840009F3F79F08091BA0C803241F08091BA0C80
:10585000803331F084E005C081E003C082E001C004
:1058600083E010928208109281081092BB0C089578
:105870008F929F92AF92BF92CF92DF92EF92FF9260
:105880000F931F93CF93DF93FC01C081D1812091AF
:10589000950C3091960CC217D3070CF04BC09E01AB
:1058A000220F331FE091930CF091940CE20FF31F41
:1058B00080809180C170DD27F1E0CF27209719F417
:1058C00004E610E002C00CE91FEF7A015B016C01F5
:1058D000040F151FB801C4010E94D625892B99F425
:1058E0000E0D1F1DB801C4010E94D625892B71F42D
:1058F000B8016E0D7F1DC4010E94D625892BE9F0E9
:1059000023E030E005C021E030E002C022E030E0DA
:10591000F501808191810196821793073CF0F50192
:1059200011821082F601808191810196918380839A
:10593000CE0105C081E090E002C08FEF9FEFDF91C4
:10594000CF911F910F91FF90EF90DF90CF90BF907C
:10595000AF909F908F9008958F929F92AF92BF9239
:105960000F931F93CF93DF93CDB7DEB7A1970FB6F9
:10597000F894DEBF0FBECDBF19A2423008F44AE052
:105980008E010F5D1F4F842E912CA12CB12CA501EF
:1059900094010E944F4EE62FB901CA01015011092E
:1059A000EA3014F4E05D01C0E95CD801EC93232BEC
:1059B000242B252B61F7C8010E944514A1960FB630
:1059C000F894DEBF0FBECDBFDF91CF911F910F9135
:1059D000BF90AF909F908F900895E091E107F09174
:1059E000E2070190F081E02D682F81EE97E00994A5
:1059F000CF92DF92EF92FF92CF93DF936C01990FDA
:105A0000EE08FF08F7FE17C08DE20E94ED2CEC01B6
:105A100066277727CB016C197D098E099F094AE01B
:105A20000E94AC2C8C0F9D1FDF91CF91FF90EF90C7
:105A3000DF90CF9008954AE0C701B601DF91CF9182
:105A4000FF90EF90DF90CF900C94AC2C8091D50715
:105A5000853031F58091510B2091880C90E00596AE
:105A600030E08217930724F08091880C8638C0F0CC
:105A700084E08093D5078091510B813830F081E02C
:105A800090E09093870C8093860C80914F0B8F77DA
:105A900071F180914F0B8F779091D707891739F16A
:105AA0008091D507843009F51092510B1092880C23
:105AB0008FEF9FEF9093870C8093860C6091D607B1
:105AC000662331F00E9493179093870C8093860C85
:105AD0001092850C1092840C1092830C85E08093B8
