:100000000C94D5080C943A1D0C940F1D0C94E41C10
:100010000C94FF080C94FF080C94FF080C94FF0844
:100020000C94FF080C947C1D0C94FF080C94FF08A2
:100030000C94FF080C94B6410C948D460C94FF0868
:100040000C94FF080C94FF080C949A1C0C94FF0865
:100050000C94891B0C945F1B0C94FF080C94FF08F4
:100060000C94FF080C94FF080C94BF2B0C94FF0811
:100070000C94FF080C94FF080C94FF080C94FF08E4
:100080000C94FF080C94FF080C94FF085C0B6B0B9E
:100090009C0BB90BD70BE80BF90B170C280CB70C02
:1000A000C80C370C3B0C500C660C7D0C940CAB0C44
:1000B000B40C950E9B0EB70EBF0ECC0ED00ED40E08
:1000C000D80EDC0EE00EF00EF60EFA0EFE0E0D0F40
:1000D000110F150F190F2A0F48184B183E18421808
:1000E000621862184F18531859185D186C2F7F2F1B
:1000F000922FA52FB82FCB2FDE2FFA2F7E318231F2
:1001000086318C31903194319A319E313933563366
:100110009F33C933F73326344D349834A634AF3582
:10012000CC35B334CB34E834193527354F357E35EB
:100130009B35093ADD3AF23B043C1A3C1F3CC83C73
:100140000F3B123B153B183B1B3B1E3B213BC23E6A
:10015000DC3E243F493F683F8D3FAC3FD13FF03FFD
:10016000604146406B409040B540E040054132411F
:100170006041556E61626C6520746F2066696E64C3
:10018000206164647265737320666F7220446576C3
:100190006963652030004F4646004F4E004453319E
:1001A0003842323020706172617369746520706FFB
:1001B0007765722069733A2000206465766963650B
:1001C000732E00466F756E6420004E6F2076616C52
:1001D00069642046415420706172746974696F6E5D
:1001E000210043616E2774206F70656E20726F6FFF
:1001F000742064697221004361726420696E6974BD
:100200002E206661696C6564210052544320686148
:100210007320736574207468652073797374656DD9
:100220002074696D6500556E61626C6520746F2085
:1002300073796E63207769746820746865205254FE
:10024000430045786974206D656E75005600426103
:1002500074746572793A00526563656976696E6790
:1002600020446174612E2E2E0052652D656E6162F0
:100270006C6520526164696F005363726F6C6C200F
:1002800054656D70005363726F6C6C2044617465CB
:100290000057726974696E6720496E697469616C90
:1002A0002073657474696E677320746F20454550C0
:1002B000524F4D21212100000000000000000000ED
:1002C000080808080008000036122400000000009A
:1002D00000143E143E140000081E281C0A3C0000B6
:1002E000003234081626000000182418261E0000CC
:1002F000181810000000000008101010100800006E
:10030000100808080810000000082A082A08000041
:100310000008083E0808000000000000180810004F
:100320000000003E00000000000000000C0C000077
:1003300000020408102000001C262626261C0000AF
:100340000C1C0C0C0C1E00001C260C18303E00006F
:100350003E061C06261C000026263E060606000059
:100360003E303C06261C00001C203C26261C0000BB
:100370003E060C18181800001C261C26261C00001F
:100380001C261E06261C0000000C0C000C0C000095
:10039000000C0C000C040800000408100804000005
:1003A00000003E003E00000000100804081000009D
:1003B0001C220408000800001C262A2E201E000013
:1003C0001C22223E222200003C223C22223C000031
:1003D0001C222020221C00003C222222223C000061
:1003E0003E203C20203E00003E203C2020200000FB
:1003F0001C202026221E000022223E222222000053
:100400001C080808081C00003E020202221C000012
:10041000222438382422000020202020203E000002
:1004200022362A222222000022322A2622220000FC
:100430001C222222221C00003C223C202020000002
:10044000182424242C1A00003C223C2222220000E2
:100450001E201C02221C00003E080808080800009C
:1004600022222222221C0000222222141408000030
:100470002222222A2A140000221408081422000032
:1004800022221408080800003E040810203E000044
:100490001C101010101C00002010080402000000A6
:1004A0001C040404041C00000814220000000000C6
:1004B00000000000003E00000804000000000000F2
:1004C000001C021E223E000020203C22223C000094
:1004D000001C2020201C000002021E22221E000000
:1004E000001C223E201C00000E10103C10100000CA
:1004F000001E223E02021C0020203C22222200007C
:1005000008001808081C000008001E0202221C0037
:10051000202024382422000018080808081C0000A5
:1005200000342A2A2A2A0000002C3222222200002B
:10053000001C2222221C0000003C223C2020200023
:10054000001C241C04040600002E30202020000083
:10055000001E201C023C0000083E0808080600009F
:1005600000222222221E0000002222221408000063
:100570000022222A2A14000000221408142200005B
:100580000022221E02041800003E0408103E000053
:1005900004080810080804000808080808080000F3
:1005A000100808040808100000102A0400000000C9
:1005B00010281000000000000000000000000000F3
:1005C0000808080800080000361224000000000097
:1005D00000143E143E140000081E281C0A3C0000B3
:1005E000003234081626000000182418261E0000C9
:1005F000181810000000000008101010100800006B
:10060000100808080810000000082A082A0800003E
:100610000008083E0808000000000000180810004C
:100620000000003E00000000000000000C0C000074
:1006300000020408102000000C121212120C00001C
:10064000040C0404040E00000C120204081E000036
:100650001E020C02120C000012121E020202000006
:100660001E101C02120C00000C101C12120C0000B8
:100670001E020408080800000C120C12120C0000E4
:100680000C120E02120C0000000C0C000C0C0000EE
:10069000000C0C000C040800000408100804000002
:1006A00000003E003E00000000100804081000009A
:1006B0001C220408000800001C262A2E201E000010
:1006C0001C22223E222200003C223C22223C00002E
:1006D0001C222020221C00003C222222223C00005E
:1006E0003E203C20203E00003E203C2020200000F8
:1006F0001C202026221E000022223E222222000050
:100700001C080808081C00003E020202221C00000F
:10071000222438382422000020202020203E0000FF
:1007200022362A222222000022322A2622220000F9
:100730001C222222221C00003C223C2020200000FF
:10074000182424242C1A00003C223C2222220000DF
:100750001E201C02221C00003E0808080808000099
:1007600022222222221C000022222214140800002D
:100770002222222A2A14000022140808142200002F
:1007800022221408080800003E040810203E000041
:100790001C101010101C00002010080402000000A3
:1007A0001C040404041C00000814220000000000C3
:1007B00000000000003E00000804000000000000EF
:1007C000001C021E223E000020203C22223C000091
:1007D000001C2020201C000002021E22221E0000FD
:1007E000001C223E201C00000E10103C10100000C7
:1007F000001E223E02021C0020203C222222000079
:1008000008001808081C000008001E0202221C0034
:10081000202024382422000018080808081C0000A2
:1008200000342A2A2A2A0000002C32222222000028
:10083000001C2222221C0000003C223C2020200020
:10084000001C241C04040600002E30202020000080
:10085000001E201C023C0000083E0808080600009C
:1008600000222222221E0000002222221408000060
:100870000022222A2A140000002214081422000058
:100880000022221E02041800003E0408103E000050
:1008900004080810080804000808080808080000F0
:1008A000100808040808100000102A0400000000C6
:1008B00010281000000000000000000000000000F0
:1008C000040404040004000005050000000000000A
:1008D000000C0F0C0F0C000004060C06060C0400A4
:1008E000003234081626000000182418261E0000C6
:1008F0001818100000000000081010101008000068
:10090000100808080810000000082A082A0800003B
:100910000008083E08080000000000001808100049
:100920000000003E00000000000000000200000087
:100930000002040810200000020505050200000066
:100940000206020207000000060102040700000080
:10095000070106010600000005050701010000006F
:100960000704070106000000030407050200000059
:100970000701020404000000070507050700000046
:100980000705070106000000000200020000000049
:100990000006060006020400000102040201000035
:1009A000000007000700000000040201020400002C
:1009B000060102040004000006090B0B08060000F3
:1009C00002050507050500000605060505060000E9
:1009D00002050404050200000605050505060000E1
:1009E00007040604040700000704060404040000CA
:1009F00003040405050300000505070505050000BF
:100A000007020202020700000701010105020000BF
:100A1000050506060505000004040404040700009B
:100A20000507070505050000050705050505000084
:100A30000205050505020000060506040404000081
:100A4000020505050703000006050605050500006B
:100A50000304020105020000070202020202000074
:100A6000050505050507000005050505050200004B
:100A7000050505050707000005050202050500003C
:100A80000505050202020000070102040407000038
:100A9000060404040406000004040201010000002E
:100AA000030202020203000002050500000000002C
:100AB000000000000007000002010000000000002C
:100AC00000060107050700000404070505070000EC
:100AD00000030404040300000101070505070000EA
:100AE00000020407040300000302020702020000E0
:100AF00000030507010106000404070505050000C1
:100B000002000602020700000100070101050200C1
:100B100000040506050500000602020202070000A7
:100B2000000607070505000000060505050500008D
:100B30000002050505020000000605060404040085
:100B40000003050701010100000304040404000080
:100B50000003040201060000020702020201000075
:100B60000005050505030000000505050502000058
:100B70000005050507070000000505020505000042
:100B80000005050701010600000701020407000037
:100B9000010202040202010002020202020200003B
:100BA000040202010202040000040B0100000057CD
:100BB000726974696E67206E657720467720766566
:100BC0007273696F6E00436F756C646E2774206F6B
:100BD00070656E2066696C6520004E6F7420612020
:100BE00076616C69642057415600446973706C618A
:100BF00079204F7074696F6E73204D656E75004477
:100C00006973706C61792053797374656D204D65DB
:100C10006E7500446973706C617920446174652F4E
:100C200054696D65204D656E7500446973706C6123
:100C30007920416C726D2032204D656E75004469DB
:100C400073706C617920416C726D2031204D656E3E
:100C50007500005EBCE2613FDD83C29C7E20A3FD87
:100C60001F419DC3217FFCA2401E5F01E3BD3E608A
:100C700082DC237D9FC1421CFEA0E1BF5D0380DEBC
:100C80003C62BEE0025CDF81633D7C22C09E1D436E
:100C9000A1FF4618FAA427799BC584DA3866E5BB1C
:100CA0005907DB856739BAE406581947A5FB78264A
:100CB000C49A653BD987045AB8E6A7F91B45C6987C
:100CC0007A24F8A6441A99C7257B3A6486D85B052E
:100CD000E7B98CD2306EEDB3510F4E10F2AC2F71DC
:100CE00093CD114FADF3702ECC92D38D6F31B2EC0A
:100CF0000E50AFF1134DCE90722C6D33D18F0C523C
:100D0000B0EE326C8ED0530DEFB1F0AE4C1291CFED
:100D10002D73CA947628ABF517490856B4EA69379B
:100D2000D58B5709EBB536688AD495CB2977F4AAC9
:100D30004816E9B7550B88D6346A2B7597C94A14FB
:100D4000F6A8742AC896154BA9F7B6E80A54D789AD
:100D50006B3500002100240027002A00000022003B
:100D6000250028002B00000000010200090A0000F5
:100D7000000004030807000000000000000000005D
:100D800000000000000048696768207261746520F7
:100D9000667261676D656E7465642066696C652155
:100DA0000053616D706C65207261746520746F6FA3
:100DB000206869676821004D6F7265207468616EF4
:100DC0002031362062697473207065722073616D02
:100DD000706C652100205761726E696E67207374B4
:100DE0006572656F2066696C6521004E6F74206DB9
:100DF0006F6E6F2F73746572656F2100436F6D7036
:100E000072657373696F6E206E6F74207375707086
:100E10006F72746564000E1F1313131313131313EF
:100E20001F0E060E1E060606060606061F1F1E1FBE
:100E3000030303060C1818181F1F1E1F0303030EBD
:100E40000E0303031F1E181818181B1F1F0303038C
:100E500003031F1F1818181E1F0303031F1E0E1F56
:100E60001818181E1F1313131F0E1F1F030303064A
:100E70000C18181818180E1F1313130E0E13131333
:100E80001F0E0E1F1313131F0F0303031F0E00006B
:100E9000000000000000000000001F1F1B1B1B1BA8
:100EA0001B1B1B1B1F1F0C0C0C0C0C0C0C0C0C0C20
:100EB0000C0C1F1F0303031F1F1818181F1F1F1FD1
:100EC0000303031F1F0303031F1F1B1B1B1B1B1FEE
:100ED0001F03030303031F1F1818181F1F03030317
:100EE0001F1F1F1F1818181F1F1B1B1B1F1F1F1F33
:100EF000030303030303030303031F1F1B1B1B1F26
:100F00001F1B1B1B1F1F1F1F1B1B1B1F1F0303035D
:100F10001F1F0000000000000000000000000E1F66
:100F20001B1B1B1B1B1B1B1B1F0E02060E06060694
:100F3000060606061F1F0E1F030303060C181818CB
:100F40001F1F0E1F0303030E0E0303031F0E0303D5
:100F500006060C0C1B1F030303031F1F1818181E83
:100F60000F0303031F0E0E1F1818181E1F1B1B1B39
:100F70001F0E1F1F030303060C18181818180E1F46
:100F80001B1B1B0E0E1B1B1B1F0E0E1F1B1B1B1FD9
:100F90000F0303031F0E000000000000000000000C
:100FA00000001F111111111111111111111F040451
:100FB000040404040404040404041F010101011FC7
:100FC00010101010101F1F010101011F010101016C
:100FD000011F11111111111F0101010101011F1048
:100FE0001010101F01010101011F1F101010101F10
:100FF00011111111111F1F01010101010101010155
:1010000001011F111111111F11111111111F1F11B8
:101010001111111F01010101011F0000000000005A
:101020000000000000000E11111111111111111119
:10103000110E040C0404040404040404041F0E111F
:101040000101010204081010101F0E110101010E10
:1010500001010101110E11111111111F01010101F5
:1010600001011F101010101E01010101110E0E11BF
:101070001010101E11111111110E1F01010101029A
:101080000408101010100E111111110E1111111170
:10109000110E0E111111110F01010101110E0000AD
:1010A00000000000000000000000000020002300FD
:1010B00026002900020202020202020204040404C1
:1010C00004040404030303030303030301010101F4
:1010D00001010101010204081020408001020408FE
:1010E0001020408001020408102040800102040802
:1010F000102040804572724A616E4665624D617291
:101100004170724D61794A756E4A756C41756753CD
:1011100065704F63744E6F764465630045786974FB
:10112000696E6720514D656E7500526164696F206C
:101130004F666621002C20000D0A534420492F4F92
:10114000206572726F723A20004E6F7420612076B3
:10115000616C69642057415600436F756C646E275B
:1011600074206F70656E2066696C6520004E414E7C
:10117000494E495459494E46CDCCCC3D0AD7233C23
:1011800017B7D13877CC2B329595E6241FB14F0A8B
:10119000000020410000C84200401C4620BCBE4C5C
:1011A000CA1B0E5AAEC59D749C5F11241FBECFEFA3
:1011B000D0E4DEBFCDBF18E0A0E0B1E0E2E5F5EDA0
:1011C00000E00BBF02C007900D92AA3EB107D9F70D
:1011D00023E1AAEEB8E001C01D92A739B207E1F7FA
:1011E00018E0C5EDD8E004C02197FE010E9411620D
:1011F000C43DD107C9F70E94294E0C94A76A0C94EC
:101200000000CF92DF92EF92FF920F931F93CF9344
:10121000DF93CDB7DEB727970FB6F894DEBF0FBECA
:10122000CDBF80913909823029F410923C09109287
:10123000390938C6833019F402E310E002C00CE229
:1012400011E00E948E1CC0903E09D0903F09E090B2
:101250004009F0904109AB01BC014C195D096E09D0
:101260007F09C801110FAA0BBB0B481759076A0762
:101270007B0708F417C681E080932E091092270996
:101280000E948E1C60933E0970933F098093400931
:101290009093410980912109833099F038F481308D
:1012A00061F0823009F0FEC581E008C0843009F4A5
:1012B000EEC1853009F41AC5F5C580E00E94DF3023
:1012C000F1C50E945D280E94632B8091B60E809329
:1012D00095090E948F2B809317130E945D280E940E
:1012E000632B8091B40E809394090E945D280E9424
:1012F000632B8091B90E809393090E945D280E9410
:10130000632B8091B80E809318130E945D280E9471
:10131000872B64E670E00E94FD61809392099091B2
:101320001909933009F442C028F4913061F09230E9
:1013300019F1A4C0953009F469C008F450C0963082
:1013400009F479C09BC090913D098091950999233A
:1013500011F0815001C08F5F8093950980919509AC
:101360008F3F21F487E18093950988C0883108F484
:1013700085C01092950982C090913D098091171304
:10138000992311F0815001C08F5F809317138091D2
:1013900017138F3F21F48BE38093171304C08C3312
:1013A00010F0109217131092940968C090913D09A3
:1013B00080911813992311F0815001C08F5F8093A1
:1013C0001813809118138F3F21F48FE18093181325
:1013D00055C0803208F452C0109218134FC090913B
:1013E0003D0980919309992311F0815001C08F5FCD
:1013F0008093930980919309811102C08CE003C00E
:101400008D30E0F181E08093930938C090913D09DF
:10141000992311F0815001C08F5F809392098091D0
:101420009209803110F488E203C0893238F180E1FA
:101430008093920923C081E00E94422D90913D0942
:1014400080916110992311F0815001C08F5F8093CA
:10145000611080916110873010F0109261106091DE
:10146000611084E290E00E9436376FE070E080E027
:1014700090E00E94541C81E080932D090E948E1CF4
:1014800000918E0910918F09209190093091910956
:10149000DC01CB01801B910BA20BB30B893E934067
:1014A000A105B10578F1809194098F5F8C3318F410
:1014B0008093940907C010929409809117138F5F4D
:1014C00080931713809117138C3338F010921713F1
:1014D000809195098F5F8093950980919509883156
:1014E00038F010929509809118138F5F809318132C
:1014F0000E948E1C60938E0970938F0980939009CF
:10150000909391098091920990E060919309509194
:10151000181320919409309117134091950984363E
:1015200091051CF0825B974001C04E968093BA0EE5
:101530006093B90E5093B80E4093B60E3093B50E2B
:101540002093B40E84EB9EE00E94E7280E94362888
:101550000E945D28AE014F5F5F4F0E94922A01E01A
:1015600000935F1388E6F82EF092801310925C0FC0
:1015700010925B0F60E08FE59FE00E947E2760E89D
:101580008FE59FE00E947E278A811AE0612F0E94EA
:10159000DD61692F20E1829F600D11248FE59FE0BE
:1015A0000E947E278B81612F0E94DD61692F20E1DF
:1015B000829F600D11248FE59FE00E947E278C8121
:1015C000612F0E94DD61692F20E1829F600D11244F
:1015D0008FE59FE00E947E278D81612F0E94DD6153
:1015E000692F20E1829F600D11248FE59FE00E940A
:1015F0007E278E81612F0E94DD61692F20E1829F0D
:10160000600D11248FE59FE00E947E278F818E510F
:10161000612F0E94DD61692F20E1829F600D1124FE
:101620008FE59FE00E947E2781E00E94584D88232D
:1016300019F010928B1223C000938B1200935F134A
:10164000F092801310925C0F10925B0F60E08FE5B8
:101650009FE00E947E278981612F0E94DD61692FB2
:1016600020E1829F600D11248FE59FE00E947E277C
:1016700081E00E94584D8111DCCF00938B12809144
:101680008D09882309F40EC40E94453E0BC4809145
:101690001A09882319F081E00E94422DE0911A096D
:1016A0008E2F90E0FC013197EB30F10508F0FAC382
:1016B000EA5BFF4F0C94116280919013811104C07A
:1016C00081E08093901302C0109290136091901368
:1016D00080E090E09BC30E94421290913D0980916E
:1016E0001409992311F0815001C08F5F8093140970
:1016F000809114098F3F21F485E08093140904C080
:10170000863010F0109214096091140984E090E082
:101710000E9436376FE070E080E090E00E94541C39
:101720001092051380911409811103C00E943A326E
:10173000B9C30E941412B6C30E94421290913D098F
:1017400080914709992311F0815001C08F5F8093E8
:10175000470980914709811102C083E003C08430AA
:1017600018F081E0809347096091470985E090E097
:101770004DC30E94421290913D098091121399230A
:1017800011F0815001C08F5F80931213809112136A
:101790008F3F21F484E08093121304C0853010F051
:1017A000109212136091121388E090E02FC30E94F0
:1017B000421280910B01882319F010920B0103C093
:1017C00081E080930B0160910B018DE090E01EC3DE
:1017D0000E94421280911113882319F01092111364
:1017E00003C081E080931113609111138EE090E0AB
:1017F0000DC30E94421290913D09809113099923D3
:1018000011F08F5F01C081508093130980911309FB
:101810008F3F21F488E08093130904C0893010F0D1
:1018200010921309609113098FE090E0EFC20E94BB
:10183000421280911209882319F01092120903C0F4
:1018400081E0809312096091120982E190E0DEC28A
:101850000E944212E09120098E2F90E0883091057D
:1018600008F020C3FC01EF5AFF4F0C94116281E095
:101870008093200917C380918E13882319F010924A
:101880008E1309C081E080938E136FE070E080E0DA
:1018900090E00E94541C60918E1386E190E0B6C2E5
:1018A00090913D0980911109992311F0815001C057
:1018B0008F5F8093110980911109833010F010928D
:1018C0001109609111098BE190E0A0C290913D094E
:1018D00080910F09992311F0815001C08F5F80938F
:1018E0000F0980910F09843618F081E080930F0969
:1018F00060910F098EE190E089C290913D0980913D
:101900001009992311F0815001C08F5F8093100955
:1019100080911009843618F081E08093100960915D
:10192000100980E290E072C290913D0980911013FD
:10193000992311F0815001C08F5F80931013809123
:101940001013843618F081E0809310136091101307
:1019500081E290E05BC260910E0981E068276093AC
:101960000E0982E290E052C2109220099BC20E94AE
:10197000421280914209882319F01092420903C053
:1019800081E0809342096091420987E190E03EC284
:101990000E94421281E992E00E94012D60E081E004
:1019A00090E00E94363762E370E080E090E00E94B1
:1019B000541C60E082E090E00E94363762E370E001
:1019C00080E090E00E94541C60E083E090E00E9480
:1019D000363762E370E080E090E00E94541C61E0E2
:1019E00087E090E00E94363762E370E080E090E0AC
:1019F0000E94541C60E089E090E00E94363762E368
:101A000070E080E090E00E94541C60E08AE090E08A
:101A10000E94363762E370E080E090E00E94541C40
:101A200060E08BE090E00E94363762E370E080E097
:101A300090E00E94541C61E08CE090E00E943637F8
:101A400062E370E080E090E00E94541C60E080E07F
:101A500090E00E94363762E370E080E090E00E9400
:101A6000541C63E084E090E00E94363762E370E04B
:101A700080E090E00E94541C61E085E090E00E94CC
:101A8000363762E370E080E090E00E94541C6EE222
:101A900089E190E00E94363761E08AE190E00E949F
:101AA000363762E370E080E090E00E94541C61E011
:101AB00088E090E00E94363762E370E080E090E0DA
:101AC0000E94541C61E08DE090E00E94363762E392
:101AD00070E080E090E00E94541C61E08EE090E0B5
:101AE0000E94363762E370E080E090E00E94541C70
:101AF00060E08FE090E00E94363762E370E080E0C3
:101B000090E00E94541C62E080E190E00E94363731
:101B100062E370E080E090E00E94541C6FEF81E18E
:101B200090E00E94363762E370E080E090E00E942F
:101B3000541C61E082E190E00E94363762E370E07D
:101B400080E090E00E94541C62E084E190E00E94FA
:101B5000363762E370E080E090E00E94541C62E05F
:101B600085E190E00E94363762E370E080E090E02B
:101B70000E94541C60E086E190E00E94363762E3E8
:101B800070E080E090E00E94541C60E087E190E00B
:101B90000E94363762E370E080E090E00E94541CBF
:101BA00060E08BE190E00E94363762E370E080E015
:101BB00090E00E94541C61E08EE190E00E94363774
:101BC00062E370E080E090E00E94541C69E08FE1E5
:101BD00090E00E94363762E370E080E090E00E947F
:101BE000541C61E080E290E00E94363762E370E0CE
:101BF00080E090E00E94541C65E081E290E00E9449
:101C0000363762E370E080E090E00E94541C61E0AF
:101C100082E290E00E94363769E170E080E090E077
:101C20000E94541C60E084E290E00E94363769E133
:101C300070E080E090E00E94541C64E670E082E571
:101C400091E10E94651D64E970E08AE291E10E94E1
:101C5000651D64EC70E082E091E10E94651D64EF17
:101C600070E08AED90E10E94651D64E271E082EB14
:101C700090E10E94651D64E571E08AE890E10E94B0
:101C8000651D64E871E082E690E10E94651D0E9496
:101C9000E3101092460910922C0910922B09109211
:101CA0002A091092290910922809109227091092E6
:101CB00026091092250910922409109223091092E6
:101CC00022091092210910923D09E7E1F9E01192F1
:101CD00089E0E132F807D9F711E010930001109282
:101CE0002E090E94421210932D09DCC080911D091B
:101CF000882319F081E00E94422D80911D098230D5
:101D000009F461C0833009F4A8C0813009F0CAC069
:101D1000E0911E098E2F90E08A30910508F0C2C034
:101D2000FC01E75AFF4F0C9411620E94421281E0BD
:101D300080931E09B7C090913D0980913109992384
:101D400011F0815001C08F5F80933109809131097A
:101D5000811104C089E08093310904C08A3010F0F9
:101D6000109231096091310980E190E091C085E8DD
:101D700092E00E94012D60913009605808C089E707
:101D800092E00E94012D6091300980E46827609301
:101D9000300985E190E03AC06091300980E2F6CFE9
:101DA0006091300980E1F2CF6091300988E0EECF98
:101DB0006091300981E0EACF6091300984E0E6CF9C
:101DC00010921E096FC0E0911F098E2F90E089309C
:101DD000910508F067C0FC01ED59FF4F0C941162AA
:101DE0000E94421281E080931F095CC060911C1325
:101DF00080E407C060911C1380E203C060911C1353
:101E000080E1682760931C1381E190E00E943637DF
:101E100065E070E080E090E01AC060911C1384E0FF
:101E20000BC060911C1381E007C060911C1382E01D
:101E300003C060911C1388E0682760931C1381E144
:101E400090E00E9436376AE070E080E090E00E9407
:101E5000541C28C010921F0925C090913D09809103
:101E60001B13992311F0815001C08F5F80931B13C6
:101E700080911B138F3F21F489E080931B1304C0D2
:101E80008A3010F010921B1360911B1384E190E0D4
:101E90000E94363765E070E080E090E00E94541CBC
:101EA0000E94421227960FB6F894DEBF0FBECDBF38
:101EB000DF91CF911F910F91FF90EF90DF90CF9026
:101EC0000895662351F05C98962F982311F05E9A3E
:101ED00001C05E985C9A6695F4CF08955F9A5F980A
:101EE00008951F93CF93DF93EC0197FF02C05D9895
:101EF00003C05D9A892B59F40E946E0F0E946E0FE9
:101F00000E946E0FDF91CF911F910C946E0F0E9473
:101F10006E0F0E946E0F0E946E0F0E946E0F5D98F2
:101F20000E946E0F5D9A11E0812F90E08C179D0743
:101F300024F40E946E0F1F5FF7CFDF91CF911F91A6
:101F400008951F93CF93DF931F92CDB7DEB7162F5F
:101F500090E049830E94710F64E085E00E94610F68
:101F600060E4812F0E94610F68E04981842F0E9404
:101F7000610F80E090E00F90DF91CF911F910C9462
:101F8000710FCF93DF93EC010E943A3780912312B7
:101F9000882321F089E192E10E94072DCE010E9461
:101FA0009025811114C064E170E080E090E00E940F
:101FB000541CCE010E949025811109C086EC9BE043
:101FC0000E94F12CCE010E94B6220E94C2610E94A2
:101FD000DA23811106C08AED9BE0DF91CF910C944A
:101FE000012D8091130980932812DF91CF910C94D9
:101FF0002925CF93DF9300D0CDB7DEB70FB6F89485
:10200000A8952091600028612093600010926000E4
:102010000FBEA89589839A830E943A3789819A8155
:102020000E94C10F809123128111FCCF99E288E1B7
:102030000FB6F894A895809360000FBE909360004F
:102040000F900F90DF91CF910895CF93DF93C82F1A
:10205000D0E0FE01EC5BF64F808181110AC08091D7
:102060004609811123C0DE01A25FBE4F9C919A30C8
:10207000F0F4DE01AA5DBC4E81E08C931082FE017B
:10208000E25FFE4F8AE080838AEB93E00E94F90FC3
:10209000FE01E85DFC4E8081C45FDE4F863018F49F
:1020A00087E0888301C0188281E001C080E0DF9171
:1020B000CF910895CF92DF92EF92FF920F931F93EB
:1020C000CF93DF93C82FD0E08E010C5B164FF80141
:1020D0008081882399F10E948F2B2AE0C22ED12C77
:1020E000B6010E94FD619E01225F3E4F7901892B5E
:1020F00011F489E006C00E948F2BB6010E94FD6199
:102100008150F7018083F8011082CA5DDC4E81E0C6
:10211000888389E192E10E94072D18821092430979
:1021200068EE73E080E090E0DF91CF911F910F9116
:10213000FF90EF90DF90CF900C94541CDF91CF91E3
:102140001F910F91FF90EF90DF90CF900895CF9364
:10215000DF93C82FD0E0FE01E65DFC4E808187FF53
:102160002FC020918F1330E0FE01EC5DFC4E80818A
:1021700090E001962817390719F50E948F2BFE0170
:10218000EE5DFC4E208130E082179307C9F4FE011A
:10219000EC5BF64F1082FE01EA5DFC4E1082FE0100
:1021A000E85DFC4E8081FE01E45FFE4F863018F44E
:1021B00087E0808301C01082C25FDE4F8AE088839F
:1021C000DF91CF910895CF9383E090E00E9438375C
:1021D000C82F80932A1381E090E00E9438378093C3
:1021E000241382E090E00E9438378093221387E026
:1021F00090E00E94383780932813CC0F8C2F90E00A
:10220000959587958C37910519F410920E1306C099
:102210008F379105D1F381E080930E138BE090E02E
:102220000E943837C82F80932B1389E090E00E94DA
:102230003837809325138AE090E00E9438378093E6
:1022400023138CE090E00E94383780932913CC0F41
:102250008C2F90E0959587958C37910519F08F37E5
:10226000910519F410920F1303C081E080930F13AE
:1022700080E090E00E94383791E0811101C090E049
:102280009093901384E090E00E9438378093140973
:1022900085E090E00E9438379FEF980F933008F068
:1022A00083E08093470988E090E00E94383780936C
:1022B00012138DE090E00E94383791E0811101C047
:1022C00090E090930B018EE090E00E94383791E00F
:1022D000811101C090E0909311138FE090E00E9473
:1022E00038378093130980E190E00E94383780935B
:1022F000310985E190E00E9438378093300981E10F
:1023000090E00E943837C82F80931C1382E190E040
:102310000E94383791E0811101C090E0909312093A
:1023200084E190E00E94383780931B1386E190E0AF
:102330000E94383791E0811101C090E090938E1394
:1023400091110FC0C2FF05C094E08C2F89278093A4
:102350001C1390911C1391FF04C082E08927809385
:102360001C130E94D94C8E329140A1F08FEA9BE061
:102370000E94012D6EE289E190E00E94363761E013
:102380008AE190E00E9436376FE070E080E090E0F4
:102390000E94541C87E190E00E94383791E081113F
:1023A00001C090E0909342098BE190E00E943837A1
:1023B000809311098EE190E00E94383780930F09D5
:1023C0008FE190E00E9438378093960A80E290E097
:1023D0000E9438378093100981E290E00E943837DC
:1023E0008093101382E290E00E94383791E08111CF
:1023F00001C090E090930E09CF910895CF93C62F1E
:1024000090E00E94710F64E084E00E94610F60E838
:102410008C2F0E94610F61E080E00E94610F80E0DC
:1024200090E0CF910C94710FEF92FF921F93CF9396
:10243000DF9300D000D01F92CDB7DEB795E0E3E286
:10244000F1E0DE01119601900D929A95E1F7863048
:1024500008F085E011E07E01E80EF11CF7016081D3
:102460006056812F0E94FE111F5F1530B9F70F9043
:102470000F900F900F900F90DF91CF911F91FF90D1
:10248000EF900895CF9386E999E044E0480F20E06B
:1024900030E0FC01E20FF31F10822C5F3F4F21154B
:1024A00051E03507B1F701964813F1CFC0E040E0A5
:1024B0006C2F81E00E94A10F40E06C2F82E00E940F
:1024C000A10F40E06C2F83E00E94A10F40E06C2F31
:1024D00084E00E94A10FCF5FC03649F7CF910895E5
:1024E000CF9380E00E945A1081E00E945A108091A0
:1024F0004609882309F400C10E948E1C60933E099E
:1025000070933F09809340099093410982E00E94B3
:10251000422D80912109833099F038F4813061F0A7
:10252000823009F0E7C081E008C0843009F47DC042
:10253000853009F4A2C0DEC080E00E945E37DAC0B8
:102540000E9442120E94E43210922A0991E0909374
:102550002C0910922909809119098F5F873018F48E
:102560008093190902C090931909C0911909C330C9
:10257000A1F168F4C130E1F0C23009F0BBC01092A3
:10258000260981E080932509109224093DC0C530B9
:1025900009F43FC090F1C63009F0ACC081E08093EF
:1025A0008D0910922B09109222090E94453EA2C06B
:1025B0000E944212C0930001C0932C0910922B0973
:1025C000C09326091092250910922409109223091C
:1025D0001092220910928D098DC0109200010E9464
:1025E000421281E080932B0910922609109225094E
:1025F000109224098093230909C010922609109291
:10260000250981E080932409109223091092220960
:1026100071C0109226091092250910922409109277
:10262000230981E08093220965C00E944212109222
:102630002A0910922C0991E09093290980911A0996
:10264000893079F480912009811102C08AE00AC0A2
:102650008F5F883018F48093200906C0909320097A
:1026600003C08F5F80931A0980911A098C3008F497
:1026700041C081E080931A093DC00E9442120E942D
:10268000421210922A0910922C091092290991E005
:102690009093280980911D09813079F490911E0949
:1026A000911102C082E01BC09F5F9A3018F4909392
:1026B0001E0917C080931E0914C0823079F48091DE
:1026C0001F09811102C083E00AC08F5F893018F4AE
:1026D00080931F0906C090931F0903C08F5F8093EA
:1026E0001D0980911D09843018F081E080931D0937
:1026F0000E94421210923809CF910895EF92FF92F2
:102700001F93CF93DF939B018032910508F02AC17C
:102710006031710508F026C1542F507144FF70C01C
:102720004370582F52955F706830710514F0E2E0E5
:1027300001C0E0E0E50F22FB992790F98F70880F28
:10274000890F237060E870E002C0759567952A953F
:10275000E2F790E0F0E0423011F14330C1F1262F72
:102760002095DC01AA0FBB1FAA0FBB1FAE0FBF1F16
:10277000AA56B64F3C91413019F032233C9302C027
:10278000632B6C938096880F991F880F991FE80F11
:10279000F91FEA56F64F808128232083E3C0DC012D
:1027A000AA0FBB1FAA0FBB1FAE0FBF1FAA56B64F63
:1027B000262F20953C9123232C939C01205E3F4F94
:1027C000220F331F220F331FE20FF31F13C0DC0150
:1027D000AA0FBB1FAA0FBB1FAE0FBF1FAA56B64F33
:1027E0002C91262B2C938096880F991F880F991F68
:1027F000E80FF91FEA56F64F8081862B8083B2C01E
:10280000443008F0AFC0BC01E4E075956795EA95E7
:10281000E1F7283031050CF052E0560F8F70992700
:10282000880F22FB662760F9182F160F23703327B5
:1028300088E090E07C0102C0F594E7942A95E2F7E5
:10284000612F70E0C52FD0E09B01220F331F220FB4
:10285000331FF901EC0FFD1FEA56F64F9081892FC7
:102860008E21A1E009F4A0E0FB01B096EE0FFF1F5E
:10287000EE0FFF1FEC0FFD1FEA56F64F80818E21F1
:1028800009F082E08A0F481709F46CC0413039F131
:1028900048F0423009F441C0433009F063C0492F89
:1028A0004E293EC0E094492F4E212C0F3D1FF901C7
:1028B000EA56F64F4083FF24F394F50E612F8F2DD7
:1028C0000E94A10F60E2610FFE0184E0689FE00DAD
:1028D000F11D1124EA56F64F90814E2D1CC0492F50
:1028E0004E292C0F3D1FF901EA56F64F4083FF2475
:1028F000F394F50E612F8F2D0E94A10F60E2610FFE
:10290000FE0184E0689FE00DF11D1124EA56F64FA8
:102910004E2D4095908149231CC04E2D4095492352
:102920002C0F3D1FF901EA56F64F4083FF24F39424
:10293000F50E612F8F2D0E94A10F60E2610FFE0145
:1029400084E0689FE00DF11D1124EA56F64F4081A6
:102950004E2940838F2DDF91CF911F91FF90EF90F3
:102960000C94A10FDF91CF911F91FF90EF900895EC
:102970002F923F924F925F926F927F928F929F928F
:10298000AF92BF92CF92DF92EF92FF920F931F937D
:10299000CF93DF93582E492E322EA895403214F053
:1029A000405201C040E03B015B0128E0A20EB11C97
:1029B00038E0439FE0011124C61BD70B85E0882E29
:1029C000912C832D8071282EF301EC0FFD1FE9540B
:1029D000FD4FE491E52CF42CC12CD12C0E2F10E0EE
:1029E000C4018C199D09980102C0359527958A95D7
:1029F000E2F720FF02C0432D01C0422DB301C70101
:102A00000E947E133FEFC31AD30A8FEFE81AF80A29
:102A100026E0C216D10421F73FEF631A730A6A1445
:102A20007B0491F6DF91CF911F910F91FF90EF9072
:102A3000DF90CF90BF90AF909F908F907F906F90DE
:102A40005F904F903F902F9008952F923F924F921A
:102A50005F926F927F928F929F92AF92BF92CF922E
:102A6000DF92EF92FF920F931F93CF93DF93CDB737
:102A7000DEB72A970FB6F894DEBF0FBECDBFF82E93
:102A8000192F6B012A011901A895043051F40E94F5
:102A9000106723E030E040E050E00E94446A01E02B
:102AA000060FF9861A8729853A853A8329837201A8
:102AB000C601089698878F83102F1071F20101903C
:102AC0000020E9F73197CF0184199509970124195E
:102AD00035092817390708F0B6C092E029163104E5
:102AE00071F0A3E02A16310409F451C0202FB1E09F
:102AF0002B16310409F091C0F701408190C0D70135
:102B00008C91A895803214F0805201C080E036018B
:102B1000B8E08B9FC00111249C012C193D093C8316
:102B20002B83EB81FC81E60DF71DE954FA4FE4910C
:102B300089849A84A12CB12C2E2F30E03E832D83E2
:102B400085E090E08A199B092D813E8102C0359570
:102B500027958A95E2F720FF02C0402F01C0412F40
:102B6000B301C4010E947E133FEFA31AB30A8FEF93
:102B7000881A980A96E0A916B10411F7AFEF6A1AFD
:102B80007A0AEF81F8856E167F0659F64DC0D70197
:102B90008C9180528F3508F080E05601B8E08B9F11
:102BA000C00111249C012C193D093C832B83EB812E
:102BB000FC81EA0DFB1DE954F74FE49169807A80AE
:102BC000812C912C2E2F30E03E832D8383E090E0EA
:102BD000881999092D813E8102C0359527958A95DE
:102BE000E2F720FF02C0402F01C0412FB501C30111
:102BF0000E947E133FEF831A930A8FEF681A780AB8
:102C000094E08916910411F7AFEFAA1ABA0AEF817E
:102C1000F885AE16BF0659F607C0D7014C91B6012C
:102C200089859A850E94B814BFEFEB1AFB0AE985E3
:102C3000FA853696FA87E98729813A812C5F3F4FDA
:102C40003A8329833BCF2A960FB6F894DEBF0FBE96
:102C5000CDBFDF91CF911F910F91FF90EF90DF904B
:102C6000CF90BF90AF909F908F907F906F905F902C
:102C70004F903F902F9008950F93CF9380914309E9
:102C80008111E7C00E942510811170C081E00E946F
:102C9000251081116BC00E948E1C60933E097093B9
:102CA0003F0980934009909341090E948E1C6093D4
:102CB0008E0970938F098093900990939109C1E0D8
:102CC000C09346090E94E43210922A0910922C09FE
:102CD00010922B09809121098F5F863008F4B6C0CD
:102CE000C093210982E00E94422DE7E1F9E01192B0
:102CF00089E0E132F807D9F780912109833009F49E
:102D00004AC008F041C08130A1F58EE39CE00E94EA
:102D1000012D1092000110922909109228090E9499
:102D20004212E091210984E0E89FF0011124EC5D5A
:102D3000FE4F4081518103E021E030E060E070E02F
:102D400087E090E00E942515E091210984E0E89F4A
:102D5000F0011124EC5DFE4F4281538121E030E00F
:102D600068E070E080E090E00E942515109237093D
:102D700070C08230D9F78AE29CE00E94012D109247
:102D8000000110922909CBCF843041F0853071F7D2
:102D90008AEE9BE02FC083E19CE02CC08FEF9BE08C
:102DA0000E94012D109200010E944212E09121091F
:102DB00084E0E89FF0011124EC5DFE4F40815181D9
:102DC00003E021E030E060E070E087E090E00E9406
:102DD0002515E091210984E0E89FF0011124EC5DC4
:102DE000FE4F4281538121E030E068E070E081E0F5
:102DF00090E0BACF0E94012D109200011092290993
:102E00000E944212E091210984E0E89FF001112420
:102E1000EC5DFE4F4081518103E021E030E060E055
:102E200070E083E090E00E942515E091210984E0A4
:102E3000E89FF0011124EC5DFE4F4281538121E0B7
:102E400030E068E070E083E090E08ECF809321096D
:102E500049CFCF910F910895CF92DF92EF92FF92D9
:102E60000F931F93CF93DF936C017A018B01C0E026
:102E7000D0E0CE15DF0589F0D8016D918D01D60126
:102E8000ED91FC910190F081E02DC6010995892B0F
:102E900011F47E0102C02196ECCFC701DF91CF91E2
:102EA0001F910F91FF90EF90DF90CF900895FC015C
:102EB000918D828D981761F0828DDF01A80FB11D71
:102EC0005D968C91928D9F5F9F73928F90E0089595
:102ED0008FEF9FEF0895FC01918D828D981731F04F
:102EE000828DE80FF11D858D90E008958FEF9FEFA3
:102EF0000895FC01918D228D892F90E0805C9F4F79
:102F0000821B91098F73992708958BEB9EE00E9495
:102F1000791721E0892B09F420E0822F0895FC0124
:102F2000848DDF01A80FB11DA35ABF4F2C91848D52
:102F300090E001968F739927848FA689B7892C9387
:102F4000A089B1898C9180648C93938D848D981322
:102F500006C00288F389E02D80818F7D80830895EB
:102F6000EF92FF920F931F93CF93DF93EC0181E0D9
:102F7000888F9B8D8C8D981305C0E889F989808195
:102F800085FD24C0F62E0B8D10E00F5F1F4F0F73D1
:102F90001127E02E8C8DE8120CC00FB607FCFACF7B
:102FA000E889F989808185FFF5CFCE010E948F17CE
:102FB000F1CF8B8DFE01E80FF11DE35AFF4FF08238
:102FC0000B8FEA89FB898081806207C0EE89FF89C7
:102FD0006083E889F98980818064808381E090E062
:102FE000DF91CF911F910F91FF90EF900895CF93B4
:102FF000DF93EC01888D8823C9F0EA89FB89808101
:1030000085FD05C0A889B9898C9186FD0FC00FB6D2
:1030100007FCF5CF808185FFF2CFA889B9898C9113
:1030200085FFEDCFCE010E948F17E7CFDF91CF91C3
:10303000089580E090E0892B21F00E94851781118E
:103040000DC080E090E0892B71F080E090E0892B4A
:1030500051F00E940000811104C008950E940000F8
:10306000F0CF0C940000089590E0FC013197EA3015
:10307000F10540F5E459FF4F0C94116280918000F6
:103080008F7703C0809180008F7D809380000895AA
:1030900084B58F7702C084B58F7D84BD08958091FB
:1030A000B0008F7703C08091B0008F7D8093B00017
:1030B0000895809190008F7703C0809190008F7D5C
:1030C0008093900008953FB7F8948091A30A90915F
:1030D000A40AA091A50AB091A60A26B5A89B05C08E
:1030E0002F3F19F00196A11DB11D3FBFBA2FA92F87
:1030F000982F8827820F911DA11DB11DBC01CD0104
:1031000042E0660F771F881F991F4A95D1F70895EF
:1031100008952F923F924F925F926F927F928F927B
:103120009F92AF92BF92CF92DF92EF92FF920F9356
:103130001F93CF93DF9300D000D000D0CDB7DEB780
:10314000882309F44EC1E091901180919A0A9091E0
:103150009B0AA0919C0AB0919D0A0196A11DB11DE8
:1031600080939A0A90939B0AA0939C0AB0939D0A1D
:10317000F0E0EF56FE4E80839183A283B38380916B
:1031800090118095982F937080919011890F809362
:103190009011E0919011F0E0EF56FE4E80818F7318
:1031A0008083E0919011F0E0EF56FE4E208130E4F4
:1031B000939FC0011124822B8083809190118F5F97
:1031C0008093901120909011822D86958695823063
:1031D00008F459C2282E880F3308C101880F991F9F
:1031E000880F991FAC0143575E4E5E834D83FA01F1
:1031F00080819181A281B381C12CD12C7601F1E033
:103200002F1A310827E4C21A26E8D20A28ECE20A6B
:1032100021E6F20AB701A60112E076956795579567
:1032200047951A95D1F7342F33703A831982298143
:10323000622F70E02C013D0154E0440C551C661CCB
:10324000771C5A95D1F74C015D01E5E0B694A7943F
:1032500097948794EA95D1F7621573050CF062C0D4
:103260006F5F7F4F660F771F660F771FFB01EF566B
:10327000FE4E0081118122813381AB0143575E4EA6
:103280005C834B83B901A801E3E076956795579578
:103290004795EA95D1F74426552666267726B90143
:1032A000A801F2E0440F551F661F771FFA95D1F76A
:1032B00084269526A626B726480C591C6A1C7B1C1A
:1032C00059815370EA815E2744E0549FF001112434
:1032D000E250F74F408151816281738184279527A5
:1032E000A627B727B901A8014C255D256E257F25A6
:1032F000840F951FA61FB71F482659266A267B26CE
:10330000EB81FC8180819181A281B381840D951D27
:10331000A61DB71D80839183A283B383F981FF5FCC
:10332000F98385CF40919111509192116091931141
:1033300070919411322F3370EA813E2724E0329F3E
:10334000F0011124E250F74F008111812281338175
:1033500080279127A227B3279701860104271527E5
:1033600026273727800F911FA21FB31F8A019B01B9
:10337000F3E03695279517950795FA95D1F704252B
:103380001525262537252A013B0142E0440C551C12
:10339000661C771C4A95D1F7482459246A247B245B
:1033A000400E511E621E731E84259525A625B72545
:1033B000ED81FE814081518162817381840F951F6F
:1033C000A61FB71F80839183A283B383F6E5CF1630
:1033D000FAEDDF06FCE4EF06F5EBFF0609F012CF8D
:1033E00052C180918A1390918B13892B09F04BC1A4
:1033F0001091901116951695123008F428C18091FD
:10340000911190919211A0919311B091941144E077
:10341000149F90011124F901E357FE4E1F0146E568
:103420005AED6CE475EB11501B838A019B01E2E0BD
:103430003695279517950795EA95D1F7F02FF370F4
:10344000FA832B8129833981032F10E098012150C1
:10345000304C220F331F220F331FF901EF56FE4E5F
:1034600080809180A280B380F901EB56FE4EFE83EE
:10347000ED832401350104E0440C551C661C771CC7
:103480000A95D1F76C017D0123E0F694E794D79477
:10349000C7942A95D1F74C245D246E247F2495018E
:1034A0008401E5E03695279517950795EA95D1F7BC
:1034B0006C017D01F2E0CC0CDD1CEE1CFF1CFA95CA
:1034C000D1F7C026D126E226F3264C0C5D1C6E1CDB
:1034D0007F1C39813370FA813F2724E0329FF0014D
:1034E0001124E250F74FC080D180E280F3808C2419
:1034F0009D24AE24BF246C017D01C426D526E6267A
:10350000F726C80CD91CEA1CFB1C4C245D246E2435
:103510007F24ED81FE8180819181A281B381841914
:103520009509A609B70980839183A283B383F981A2
:10353000F150F983F11187CFF10180809180A28051
:10354000B3802C013D01E3E076946794579447944F
:10355000EA95D1F775016401F4E0CC0CDD1CEE1C9A
:10356000FF1CFA95D1F74C245D246E247F248C0136
:103570009D01E2E0000F111F221F331FEA95D1F7D2
:1035800075016401F5E0F694E794D794C794FA9531
:10359000D1F7C026D126E226F326C40CD51CE61CA2
:1035A000F71C84279527A627B7272A81F4E02F9FA9
:1035B00080011124F801E250F74F40805180628071
:1035C0007380482459246A247B24480E591E6A1E9D
:1035D0007B1E4C245D246E247F2480919111909158
:1035E0009211A0919311B091941184199509A60993
:1035F000B7098093911190939211A0939311B09376
:103600009411495B594767437E4909F00ECFE09119
:103610009011E150E0939011F0E0EF56FE4E2081C2
:103620002295269526952370E0919011F0E0EF56B3
:10363000FE4E80818F7390E0A0E0B0E08093851310
:1036400090938613A0938713B093881303C011231C
:10365000D1F0DDCF215078F0E0919011E150E0936E
:103660009011F0E0EF56FE4E3081BA2FA92F982F1F
:103670008827832BEFCF8093851390938613A09395
:103680008713B093881326960FB6F894DEBF0FBE4B
:10369000CDBFDF91CF911F910F91FF90EF90DF9001
:1036A000CF90BF90AF909F908F907F906F905F90E2
:1036B0004F903F902F90089508950E9477631F9236
:1036C0000F920FB60F9211240BB60F922F933F93C8
:1036D0004F935F936F937F938F939F93AF93BF931A
:1036E000EF93FF938BEB9EE00E948F17FF91EF917A
:1036F000BF91AF919F918F917F916F915F914F910A
:103700003F912F910F900BBE0F900FBE0F901F9007
:1037100018951F920F920FB60F9211240BB60F92AD
:103720002F938F939F93EF93FF93E091CB0EF091A4
:10373000CC0E8081E091D10EF091D20E82FD12C0AC
:1037400090818091D40E8F5F8F732091D50E821758
:1037500051F0E091D40EF0E0E554F14F958F809355
:10376000D40E01C08081FF91EF919F918F912F9195
:103770000F900BBE0F900FBE0F901F901895CF9318
:10378000DF93282F30E0F901EA59F24F8491F901D3
:10379000EC52FF4ED491F901EC54FF4EC491CC236E
:1037A00091F081110E943418EC2FF0E0EE0FFF1F12
:1037B000E655FF4EA591B491EC91ED2381E090E0A8
:1037C00021F480E002C080E090E0DF91CF91089585
:1037D0001F93CF93DF93282F30E0F901EA59F24F7E
:1037E0008491F901EC52FF4ED491F901EC54FF4E53
:1037F000C491CC23C9F0162F81110E943418EC2FEC
:10380000F0E0EE0FFF1FE45AF24FA591B4918FB78D
:10381000F894111105C09C91ED2FE095E92302C0A9
:10382000EC91ED2BEC938FBFDF91CF911F91089519
:10383000CF93DF9390E0FC01EC52FF4E2491FC010A
:10384000EC54FF4E8491882361F190E0880F991F1A
:10385000FC01EE5AF24FC591D491FC01E45AF24FAB
:10386000A591B491611109C09FB7F8948881209502
:1038700082238883EC912E230BC0623061F49FB7C2
:10388000F8943881822F809583238883EC912E2BA6
:103890002C939FBF06C08FB7F894E8812E2B288306
:1038A0008FBFDF91CF9108958F929F92AF92BF9279
:1038B000CF92DF92EF92FF926B017C010E9463181E
:1038C0004B015C01C114D104E104F104F1F00E9448
:1038D0006318DC01CB0188199909AA09BB09883E44
:1038E0009340A105B10570F321E0C21AD108E108A7
:1038F000F10888EE880E83E0981EA11CB11CC1144B
:10390000D104E104F10419F7DDCFFF90EF90DF90CF
:10391000CF90BF90AF909F908F9008952FB7F8945D
:1039200060919F0A7091A00A8091A10A9091A20AC9
:103930002FBF08951F920F920FB60F9211242F934D
:103940003F938F939F93AF93BF9380919F0A9091E2
:10395000A00AA091A10AB091A20A30919E0A23E088
:10396000230F2D3720F40196A11DB11D05C026E8B7
:10397000230F0296A11DB11D20939E0A80939F0ADA
:103980009093A00AA093A10AB093A20A8091A30ADF
:103990009091A40AA091A50AB091A60A0196A11D32
:1039A000B11D8093A30A9093A40AA093A50AB09393
:1039B000A60ABF91AF919F918F913F912F910F9048
:1039C0000FBE0F901F9018951F920F920FB60F9277
:1039D00011240BB60F922F933F934F935F936F93E6
:1039E0007F938F939F93AF93BF93EF93FF93E09158
:1039F0000801F09109010995FF91EF91BF91AF91F5
:103A00009F918F917F916F915F914F913F912F91F6
:103A10000F900BBE0F900FBE0F901F9018951F9226
:103A20000F920FB60F9211240BB60F922F933F9364
:103A30004F935F936F937F938F939F93AF93BF93B6
:103A4000EF93FF93E0910601F09107010995FF9133
:103A5000EF91BF91AF919F918F917F916F915F9106
:103A60004F913F912F910F900BBE0F900FBE0F9073
:103A70001F9018951F920F920FB60F9211240BB63C
:103A80000F922F933F934F935F936F937F938F93F7
:103A90009F93AF93BF93EF93FF93E0910401F09155
:103AA00005010995FF91EF91BF91AF919F918F9182
:103AB0007F916F915F914F913F912F910F900BBE2E
:103AC0000F900FBE0F901F9018950F931F93CF93D9
:103AD000DF938C01EB014CE050E00E942C6ABE01A8
:103AE000645F7F4F4CE050E0C8010C96DF91CF91AE
:103AF0001F910F910C942C6A1F920F920FB60F9288
:103B000011240BB60F922F933F934F935F936F93B4
:103B10007F938F939F93AF93BF93EF93FF93809186
:103B20006B0F0E94BF1B20916E0F30916F0F2F5FA4
:103B30003F4F30936F0F20936E0F90913810943653
:103B400018F095E090936C0F90916C0F9330B9F052
:103B500018F4923039F057C0943059F1953009F487
:103B60004CC051C081114FC020916E0F30916F0F2A
:103B70002436310508F443C0109238101CC081303F
:103B800009F041C0E091381091E09E0F90933810F9
:103B9000F0E020916E0F30916F0FEE0FFF1FE5598F
:103BA000F04F3683258310926F0F10926E0F94E0C2
:103BB00021C0811117C0E091381091E09E0F9093C1
:103BC0003810F0E020916E0F30916F0FEE0FFF1F55
:103BD000E559F04F3683258310926F0F10926E0FC8
:103BE00093E008C020916E0F30916F0F253631059C
:103BF00050F095E090936C0F06C0811104C01092B4
:103C00006F0F10926E0F90916D0F992329F0811113
:103C100002C02D9A01C02D98FF91EF91BF91AF91F5
:103C20009F918F917F916F915F914F913F912F91D4
:103C30000F900BBE0F900FBE0F901F901895CF9254
:103C4000DF92EF92FF92CF93DF93EC01072E000CEF
:103C5000880B990B0E94F4686B017C0120E030E036
:103C600040E45FE30E94536920E030E048E452E41E
:103C70000E94C5620E943763C617D707D4F020E0C0
:103C800030E040EA5FE3C701B6010E94536920E0DB
:103C900030E048E452E40E94C56220E030E040E8B1
:103CA0005FE30E9459620E94376321E06C177D0731
:103CB0000CF420E0822F90E0DF91CF91FF90EF9005
:103CC000DF90CF9008950F931F93CF93DF931F92B0
:103CD000CDB7DEB7182F2CB521602CBD60E082E196
:103CE00099830E94E81B99819EBD0DB407FEFDCF0C
:103CF0008EB5282F30E0322F22271EBD0DB407FECF
:103D0000FDCF8EB58901082B61E082E10E94E81B9E
:103D10008CB58E7F8CBDC8010F90DF91CF911F9124
:103D20000F91089580918913882369F083EC9EE1B7
:103D30009093090180930801809169008F7C8093A2
:103D40006900EA9A0895EA9888E898E19093090151
:103D50008093080108958627682F62956827062EAC
:103D6000669566956025062E669560256770082E17
:103D7000892F669507946795902D862706946795F9
:103D8000902586270895CF9380E090E00E94631EDF
:103D900080918D13853009F094C08091980A90919C
:103DA000990A892B91F08091970A84FD0EC085E8CD
:103DB00080937A008091970A8F70806480937C0052
:103DC00080917A00806480937A0080E090EB0E947A
:103DD000631E682F8091980A9091990A892B69F047
:103DE0008091970A84FD09C080917A0086FDFCCFFE
:103DF00090917A00906490937A0080918C13811155
:103E00000EC080918413882351F0E0918C1391E0CF
:103E10009E0F90938C13F0E0E357FE4E8083E09169
:103E20008C1381E08E0F80938C13F0E0E357FE4EED
:103E3000608380918A1390918B130E94AB1E9093A4
:103E40008B1380938A138091980A9091990A892BF9
:103E500039F18091970A84FD23C0809181138138C4
:103E6000F8F480917A0086FDFCCF80917800209153
:103E7000790090E0922B9C012C5331092F35314071
:103E800078F42091821330918313820F931F9093C3
:103E9000831380938213809181138F5F80938113AA
:103EA0008091901120918C1390E0059630E082175C
:103EB00093070CF456C080918C13863808F051C0DB
:103EC00055C080918D1387FF1BC0E09190118091A8
:103ED0008D1391E0980F90938D13EC5F8E0FE82F68
:103EE000F0E0E357FE4EC08180918A1390918B13CE
:103EF0006C2F0E94AB1E90938B1380938A132DC05E
:103F000080918D1391E0980F90938D138330F1F091
:103F100054F48823A9F08130E9F480918A139091B8
:103F20008B13C92F1AC08930B9F08A3099F4C09127
:103F30008413909190118DEF891B80938D130DC088
:103F400080918A1390918B13C82F07C08DE092E85F
:103F50000E94631ECAEA01C0CDE28C2F90E0985403
:103F600002C08DE092E8CF910C94631ECF9108952A
:103F7000DC01E0E0615038F08D91E827F0E0EE5A86
:103F8000F34FE491F7CF8E2F0895EF92FF920F93A6
:103F90001F93CF93DF937C0108E010E0C0E0D1E0F5
:103FA000C7010E94AD278111CD2BDD0F01501109F2
:103FB000B9F78C2FDF91CF911F910F91FF90EF9068
:103FC0000895CF92DF92EF92FF920F931F93CF93BA
:103FD000DF931F92CDB7DEB76C01E62E08E010E04C
:103FE000FF24F39461E08F2D8E2109F460E0C60177
:103FF00049830E94D127FF0C015011094981011505
:10400000110581F7411115C0F894D6011196ED9173
:10401000FC91129791818C918095892381831196CF
:10402000ED91FC91129792818C91809589238283E6
:1040300078940F90DF91CF911F910F91FF90EF90A7
:10404000DF90CF900895AF92BF92CF92DF92EF9220
:10405000FF920F931F93CF93DF931F92CDB7DEB7DD
:104060005C01E62ED72EFC01858581115DC0C5015E
:104070000E940028811105C0F5011386158614865B
:104080006BC040E060EFC5010E94E11F01E0F12C30
:10409000C12C11E0C5010E94AD27682FC5016983BD
:1040A0000E94AD276981613019F48130B9F433C0C1
:1040B0004F2D50E068131BC0F5018385181730F4AD
:1040C000E40FF51F8381802349F402C0181731F0F3
:1040D00060E0193058F4F501148708C0F501EF0DC0
:1040E000F11D8381802B838361E009C0C12EF5011E
:1040F000E40FF51F9381802F809589238383C50169
:104100000E94D1271F5F000F11F4F39401E0F7E044
:10411000FF1508F0BFCF113438F0F501C386C11088
:1041200015C081E0858712C0F501138615861486B7
:1041300080E0D5011396EE2DFD2D9501255F3F4FB3
:104140009D919193A217B307D9F706C0F50183811A
:10415000882351F381E0EDCF0F90DF91CF911F9134
:104160000F91FF90EF90DF90CF90BF90AF900895A8
:10417000CF92DF92EF92FF920F931F93CF93DF9333
:104180001F92CDB7DEB78C01F62E40E065E579834E
:104190000E94E11FCF2C7981D72E760188E0E80EAE
:1041A000F11CF60161916F0140E0C8010E94E11F1E
:1041B000CE14DF04B1F70F90DF91CF911F910F91D3
:1041C000FF90EF90DF90CF9008958F929F92AF92E3
:1041D000BF92CF92DF92EF92FF920F931F93CF93F4
:1041E000DF93CDB7DEB764970FB6F894DEBF0FBE8E
:1041F000CDBF5F87798BF42E411109C06F5F6D30A1
:1042000040F02FEFC21AD20A21E061E003C0242F50
:1042100001C021E089898B831A82198281E08D8314
:104220006E838EE48C0D8F83CE0101962C8B0E94C1
:10423000E7284B015C010F8510E00E94632B2C895D
:1042400030E02150310987E0829FF001839FF00D1B
:1042500011248091B70E9801281B3109C9010796D6
:1042600067E070E00E94FD61DF01A80FB91F20E840
:1042700031E541E050E00E946E6A680D791D8A1DAB
:104280009B1DF11004C060587A43894091096496DF
:104290000FB6F894DEBF0FBECDBFDF91CF911F9157
:1042A0000F91FF90EF90DF90CF90BF90AF909F90D5
:1042B0008F9008958F929F92AF92BF92CF92DF928C
:1042C000EF92FF920F931F93CF93DF936C01E090D7
:1042D0003910F0903A1000913B1010913C10209151
:1042E0003D1030913E1040913F1050914010609130
:1042F00041107091421080914310909144100E949F
:10430000E520C9E3D0E168A379A38AA39BA3E5E4F0
:10431000F0E1E080F18002811381248135814681C2
:10432000578160857185828593850E94E5206B01A8
:104330007C016CA37DA38EA39FA3AE89BF892CE3D0
:1043400030E00E941A6208A119A12AA13BA14801EC
:104350005901861A970AA80AB90A888E998EAA8ED8
:10436000BB8EAA85BB852CE330E00E941A62C61A78
:10437000D70AE80AF90ACC8EDD8EEE8EFF8EDF9129
:10438000CF911F910F91FF90EF90DF90CF90BF9052
:10439000AF909F908F9008952F923F924F925F928F
:1043A0006F927F928F929F92AF92BF92CF92DF9245
:1043B000EF92FF920F931F93CF93DF9300D000D023
:1043C0001F92CDB7DEB78C016983FC0101900020FC
:1043D000E9F79F01281B390B3D832C8328EF6C8163
:1043E0007D812603C001279F900D11249B838A8322
:1043F00080E2E82EF12C93E0492E512C612C712C97
:104400004A01550FAA08BB086A817B816E157F059A
:10441000CCF567011801C101801B910B2C813D81F6
:1044200082179307C4F43981343041F40E94106735
:10443000A30192010E94446A6F5F6983F101419177
:104440001F01298168E070E0C6010E94B814F8E0FD
:10445000CF0ED11CE0CF8BE10E94BF1B0197A1F0D2
:104460008CE10E94BF1B019779F08AE10E94BF1B7B
:10447000019751F0C501B4010E94541C31E0E31AC8
:10448000F108C2CF81E003C00E94421280E00F9089
:104490000F900F900F900F90DF91CF911F910F9180
:1044A000FF90EF90DF90CF90BF90AF909F908F9054
:1044B0007F906F905F904F903F902F9008957F92E4
:1044C0008F929F92AF92BF92CF92DF92EF92FF9224
:1044D0000F931F93CF93DF93722E2BE0429F600DBB
:1044E000711D11242CE0269F6001279FD00C112400
:1044F000C2E0D0E003965C0132E0C31AD108450166
:10450000C6018C0F9D1FFC01EA5EF14F7F0104E0A4
:1045100010E0F701649170E0002E02C07595679578
:104520000A94E2F760FF02C0472D01C040E0BE01DF
:10453000C4010E947E1301501109FFEF8F1A9F0AD8
:104540000F3F2FEF120729F72196CE30D105B9F68C
:10455000DF91CF911F910F91FF90EF90DF90CF905F
:10456000BF90AF909F908F907F900895009769F0D3
:10457000FC0101900020E9F73197AF01481B590B6E
:10458000BC018BEB9EE00C942C1780E090E008952A
:104590008F929F92AF92BF920F931F93CF93DF930F
:1045A000CDB7DEB7A1970FB6F894DEBF0FBECDBF73
:1045B00019A2423008F44AE08E010F5D1F4F842E8D
:1045C000912CA12CB12CA50194010E94766AE62FB2
:1045D000B901CA0101501109EA3014F4E05D01C0CB
:1045E000E95CD801EC93232B242B252B61F7C80120
:1045F0000E94B622A1960FB6F894DEBF0FBECDBFC3
:10460000DF91CF911F910F91BF90AF909F908F90AE
:104610000895CF92DF92EF92FF92CF93DF936B01D9
:104620007C010E94872BEC01609151107091521017
:1046300080915310909154100E94872BC817D9076E
:1046400031F0C701B6010E94872B0E945A21C70191
:10465000B6010E94872BEC016091511070915210AD
:1046600080915310909154100E94872BC817D9073E
:1046700031F0C701B6010E94872B0E945A21409158
:1046800055105091561060915710709158108091AC
:10469000511090915210A0915310B0915410841762
:1046A0009507A607B70758F4C816D906EA06FB0609
:1046B000D8F0C416D506E606F706B0F40AC0C4164C
:1046C000D506E606F70628F0C816D906EA06FB0660
:1046D00058F089E390E19093B30E8093B20EA091CD
:1046E0004310B09144100AC085E490E19093B30E5A
:1046F0008093B20EA0914F10B09150102CE330E097
:104700000E941A626C0D7D1D8E1D9F1DDF91CF9141
:10471000FF90EF90DF90CF90089581E480937C002C
:1047200080917A00806480937A0080917A0086FD7F
:10473000FCCF809178002091790090E0922B089531
:10474000CF93DF930E94B622EC018AEE92E00E94A2
:10475000B6228C0F9D1FDF91CF9108950F931F9369
:10476000CF93DF938C01C0E0D0E0F801EC0FFD1F88
:104770006491662371F0E091BB0EF091BC0E019044
:10478000F081E02D8BEB9EE00995892B11F02196AD
:10479000ECCFCE01DF91CF911F910F910895E09161
:1047A000BB0EF091BC0E0190F081E02D682F8BEBD9
:1047B0009EE009948F929F92AF92BF92CF92DF9228
:1047C000EF92FF920F931F93CF93DF93CDB7DEB796
:1047D00062970FB6F894DEBF0FBECDBF80912B124B
:1047E000877041F1C0903812D0903912E0903A129F
:1047F000F0903B12C114D104E104F10409F050C05F
:1048000019C0460157012FEF821A920AA20AB20A72
:104810006B017C01681579058A059B0509F045C087
:10482000B701A601C8010E94DE436115710581052B
:10483000910539F74CE050E0BE016F5F7F4F8BE28E
:1048400092E10E940B450C9749F544E050E066EF79
:1048500073E0CE0101960E94A163892BF9F444E034
:1048600050E06BEF73E0CE0109960E94A163892BA3
:10487000A9F448E050E0BE016F5F7F4F8BE292E108
:104880000E940B45089751F444E050E060E074E06A
:10489000CE0101960E94A163892B01F110E0C5C0F1
:1048A00000913C1210913D12BBCFF80122892031BA
:1048B00029F008EF1FEF2FEF3FE004C008EF1FEFD4
:1048C00020E030E0601771078207930708F4B2CF49
:1048D00080912B12886080932B12ACCFCD80DE802C
:1048E000EF80F8848601C6018D7F409761F4A601B0
:1048F000BE016F5F7F4F8BE292E10E940B458C15EA
:104900009D0561F602C01A82198289819A810197F8
:1049100039F40231110539F489899A89892B19F002
:104920008CEF9DE007C08B8180931912833028F0B3
:104930008BEE9DE00E94012DB1CF823021F485EDF8
:104940009DE00E94012DEF85E0931E12E13118F0E9
:1049500087EB9DE0EFCF2D813E814F8158852093DD
:104960001A1230931B1240931C1250931D12A091E7
:104970001912B0E00E94636A6B017C01AE2FB0E0B7
:104980009B01AC010E94636ADC01CB0123E0B69578
:10499000A795979587952A95D1F7F3E2CF16F6E577
:1049A000DF06E104F10438F4893828E5920721E0B4
:1049B000A207B10518F081EA9DE0BCCF85349C4A7E
:1049C000A105B10558F080912B12182F187083FDA6
:1049D00005C086E89DE00E94012D27C08BE292E190
:1049E00090932A1280932912109224121092251269
:1049F00010922612109227121092231210921F1258
:104A0000109220121092211210922212109228124B
:104A100040E050E060E070E089E192E10E94F945F9
:104A20009095192F111F1127111F812F62960FB614
:104A3000F894DEBF0FBECDBFDF91CF911F910F91D4
:104A4000FF90EF90DF90CF90BF90AF909F908F90AE
:104A5000089589E192E19093B10E8093B00E40E009
:104A600052E060EB7CE00E94F945181619060CF044
:104A700056C020EB3CE03093AF0C2093AE0C805539
:104A8000934F9093AD0C8093AC0C40E052E06CEAF5
:104A90007AE089E192E10E94F94597FD40C02CEA55
:104AA0003AE03093AB0A2093AA0A8455954F90932D
:104AB000A90A8093A80A81E08093A70A8093231211
:104AC000209A219A229A289A239A2B981092800051
:104AD00089E080938100A091191220911A123091DF
:104AE0001B1240911C1250911D12B0E00E94636A8B
:104AF0009B01AC0160E074E284EF90E00E94766A72
:104B0000309389002093880081E090E090938B009F
:104B100080938A0080916F00826080936F00089577
:104B20008F929F92AF92BF92EF92FF920F931F933B
:104B3000CF93DF93CDB7DEB7AD970FB6F894DEBF56
:104B40000FBECDBF8C0180914B1290914C12A09161
:104B50004D12B0914E128093431290934412A09341
:104B60004512B093461210924712109248121092BA
:104B7000491210924A124EE2F42E90913E12977012
:104B8000923008F4C1C040E250E0BE016F5F7F4F39
:104B90008EE392E10E940B45803209F0B5C0998105
:104BA000992309F4B1C0953E71F39E3261F3BC8440
:104BB000FB2DF870AF2EB3FCE6CFFE01319690E0EE
:104BC00020E08191803291F0283041F4A1E2B0E000
:104BD000AC0FBD1FA90FB11DFC929F5FA1E2B0E019
:104BE000AC0FBD1FA90FB11D8C939F5F2F5F2B30A2
:104BF00041F7E1E2F0E0EC0FFD1FE90FF11D10823B
:104C0000B801CE0181960E947C63892B09F0B5CF53
:104C1000E0904F12F0905012F7018289803108F431
:104C200074C04D895E8960E070E0BA015527442761
:104C30000B8D1C8D20E030E0402B512B622B732B11
:104C4000409338125093391260933A1270933B128A
:104C50008B2D887181F481E080932B128D8D9E8D38
:104C6000AF8DB8A180932C1290932D12A0932E1289
:104C7000B0932F122AC0803109F047C084E080939E
:104C80002B12812C912C5401C7010E94DE43AB01F1
:104C9000BC01411551056105710579F0F70180816D
:104CA00090E0982F8827990F092E000CAA0BBB0BB8
:104CB000880E991EAA1EBB1EE7CF80922C129092DE
:104CC0002D12A0922E12B0922F12F0923D12E0926D
:104CD0003C128091381290913912A0913A12B09101
:104CE0003B128093301290933112A0933212B09302
:104CF0003312109234121092351210923612109212
:104D00003712AA24A39401C0A12C8A2DAD960FB608
:104D1000F894DEBF0FBECDBFDF91CF911F910F91F1
:104D2000FF90EF90BF90AF909F908F900895EF927B
:104D3000FF920F931F93CF93DF937C018B01CAE700
:104D4000D1E18D819E810E940028B7018D819E81D5
:104D50000E94B82040E06EEB8D819E810E94E11F91
:104D60008D819E810E94C51FF80180838D819E8167
:104D70000E94C51FF80181838D819E810E94C51FFD
:104D8000F80182838D819E810E94C51FF801838373
:104D90008D819E810E94C51FF80184838D819E8133
:104DA0000E94C51FF80185838D819E810E94C51FC9
:104DB000F80186838D819E810E94C51FF80187833B
:104DC0008D819E810E94C51FF80180878D819E8103
:104DD000DF91CF911F910F91FF90EF900C940028DD
:104DE00080915D0F90E020915E0F821B91090895E4
:104DF00085ED8093BC008091BC0084FDFCCF1092B7
:104E00005A0F08954091AE12262F30E0240F311D25
:104E100021323105DCF420915A0F2430C9F4FC0111
:104E200080E090E0861758F43091AE122191DC01B9
:104E3000A457BD4EA30FB11D2C930196F3CF8091C3
:104E4000AE12680F6093AE1280E0089581E008957D
:104E500082E008950895E0915E0F80915D0FE8175C
:104E600030F4F0E0ED52FD4E808190E008958FEF38
:104E70009FEF089590915E0F80915D0F981750F409
:104E8000E92FF0E0ED52FD4E208130E09F5F9093DE
:104E90005E0F02C02FEF3FEFC9010895CF92DF925E
:104EA000EF92FF920F931F93CF93DF937C01262FF6
:104EB000972F8A0180915F13882391F0C62FD72FF7
:104EC0006E01C40ED51ECC15DD0571F06991D701B8
:104ED000ED91FC910190F081E02DC7010995F3CF90
:104EE000642F822F0E940227C801DF91CF911F916A
:104EF0000F91FF90EF90DF90CF900895CF93DF93C5
:104F00001F92CDB7DEB7698320915F132223D1F0C2
:104F100020915B0F203240F021E030E0FC01338330
:104F2000228380E090E015C080915C0FE82FF0E0D4
:104F3000E05AFC4E998190838F5F80935C0F809341
:104F40005B0F05C061E0CE0101960E94022781E05F
:104F500090E00F90DF91CF910895FC019081018046
:104F6000F281E02DF8948181892B81832281892F20
:104F7000809528232283A7E0B0E01197F1F72181E3
:104F800082238183A3E2B0E01197F1F780817894C6
:104F9000EFECF0E03197F1F7982381E009F480E03D
:104FA0000895FC0190810180F281E02D892F809588
:104FB00060FF12C0F8942281822382838181892B31
:104FC0008183A3E2B0E01197F1F78281982B92835D
:104FD000789487ED90E011C0F89422818223828337
:104FE0008181892B8183AFEFB0E01197F1F7828146
:104FF000982B928378948FE090E00197F1F70895D1
:10500000FC0190810180F281E02DF8948181292FAB
:1050100020958223818378948DE743E050E081508E
:1050200021F1DA011197F1F730813923C1F3F894B6
:105030008281822382838181892B81837894ABEC66
:10504000B7E01197F1F7F894818128232183ABE32E
:10505000B1E01197F1F78081982381E009F080E0B9
:105060007894EBE8F6E03197F1F708956093EE0855
:105070007093EF088093F0089093F108DC01CB0166
:10508000845D9E4FAF4FBF4F8093EA089093EB082B
:10509000A093EC08B093ED0882E090E09093F508BF
:1050A0008093F4080E948E1C609301137093021386
:1050B00080930313909304130895CF92DF92EF929D
:1050C000FF920F931F930E948E1CC0900113D090EB
:1050D0000213E0900313F09004138B019C010C1950
:1050E0001D092E093F098091EE089091EF08A091CB
:1050F000F008B091F108083E134021053105D0F0C9
:105100000196A11DB11D8093EE089093EF08A09326
:10511000F008B093F108B701A60148515C4F6F4FFA
:105120007F4F4093011350930213609303137093C6
:105130000413C9CF4091EA085091EB086091EC0844
:105140007091ED0884179507A607B70788F1E091DD
:10515000F208F091F308309759F10995611571053E
:105160008105910519F00E94362822C08091EE0831
:105170009091EF08A091F008B091F108845D9E4FE6
:10518000AF4FBF4F8093EA089093EB08A093EC08D1
:10519000B093ED0881E090E02091F4083091F5089B
:1051A000232B11F480E090E09093F5088093F408AD
:1051B0006091EE087091EF088091F0089091F108ED
:1051C0001F910F91FF90EF90DF90CF9008956F9215
:1051D0007F928F929F92AF92BF92CF92DF92EF9287
:1051E000FF920F931F93CF93DF93EC01EE81AE2FCD
:1051F000B0E020E833E341EE51E00E94636A4B01E6
:105200005C0122EB37E0FD0104E610E080E9E82EC6
:10521000FF24F394C901825B97408E179F07DCF44B
:10522000C90183709927892B99F4C901B8010E949B
:10523000FD61892B31F4C901B7010E94FD61892B01
:1052400039F480E8880E81E5981E81E0A81EB11C23
:105250002F5F3F4FDFCF6D80712CEE54F84FCF01A1
:1052600064E670E00E94FD617C01CF0160E971E0BD
:105270000E94FD616C0101E010E0E370FF2706155C
:1052800017052CF50230110581F4309771F4E11403
:10529000F10419F4C114D10441F480E8880E8BE3C1
:1052A000981E86E2A81EB11C0FC0D801AF5EBD4F8C
:1052B000AC91B0E020E831E541E050E00E94636A43
:1052C000860E971EA81EB91E0F5F1F4FD8CF4981AB
:1052D0002A8130E0A0E1BEE00E94986A6B017C0167
:1052E000242F30E0ACE3B0E00E94986ADC01CB01EF
:1052F0008C0D9D1DAE1DBF1D28816C017D01C20E50
:10530000D11CE11CF11CAC81B0E0119720E831E523
:1053100041E050E00E946E6ADC01CB018C0D9D1DC6
:10532000AE1DBF1DBC01CD01680D791D8A1D9B1DE1
:10533000DF91CF911F910F91FF90EF90DF90CF9071
:10534000BF90AF909F908F907F906F9008951F9324
:10535000CF93DF93CDB7DEB727970FB6F894DEBFB4
:105360000FBECDBF11E010935F1388E680938013CA
:1053700010925C0F10925B0F60E08FE59FE00E943F
:105380007E2781E00E94584D882319F010928B12DD
:10539000BCC010938B1280915A0F8111FCCF81E019
:1053A00080935A0F8093590F9FEF90935E13109242
:1053B0005D1396E090935C1380933B1380913B13B5
:1053C000806D80933B138091580F813061F410926F
:1053D000580F80913B138093BB008091BC0083FDEC
:1053E000F8CF85EC01C085EE8093BC0080915A0F08
:1053F0008130E1F380915D13873018F480915D1363
:1054000001C087E0ACE3B3E123ED32E1F9019E2F67
:10541000921B981718F49D919193F9CF10925E0FFB
:1054200080935D0F873008F470C08FE59FE00E9485
:105430003A27182F8695869586958E70982F990F06
:10544000990F890F912F9F70890F89838FE59FE0B6
:105450000E943A27282F22952F70982F9F708AE05C
:10546000289F900D11249A838FE59FE00E943A2790
:10547000982F282F2695269526952670822F880FFF
:10548000880F280F9F70920F9B838FE59FE00E94EB
:105490003A27282F22952F70982F9F708AE0289FF7
:1054A000900D11249C838FE59FE00E943A27282FBE
:1054B00022952F70982F9F708AE0289F900D1124BD
:1054C0009D838FE59FE00E943A27282F22952F7019
:1054D000982F9F708AE0289F900D11249E838FE55E
:1054E0009FE00E943A27982F9F70925E282F229566
:1054F0002F708AE0289F900D11249F8317FD05C00F
:10550000CE0101960E94E72803C060E070E0CB0165
:1055100027960FB6F894DEBF0FBECDBFDF91CF91B7
:105520001F9108956F927F928F929F92AF92BF9238
:10553000CF92DF92EF92FF920F931F93CF93DF935F
:10554000EA012CE3C22ED12CE12CF12CA70196010B
:105550000E94766A6883CA01B901A70196010E9478
:10556000766A6983CA01B90128E130E040E050E081
:105570000E94766A69017A016A83CA01B9016C5F87
:105580007F4F8F4F9F4F27E030E040E050E00E9478
:10559000766A6F5F6B83812C912C540140E034E676
:1055A000632E712C00E911E0242F30E02E54384F87
:1055B000F901E370FF27309789F4C901B3010E9414
:1055C000FD61892B31F4C901B8010E94FD61892B6D
:1055D00029F48EE691E0A0E0B0E004C08DE691E011
:1055E000A0E0B0E0880E991EAA1EBB1ED501C40122
:1055F000AA27BB27C816D906EA06FB0610F04F5F9C
:10560000D3CF4E83309799F4C90164E670E00E94CD
:10561000FD61892B39F4C90160E971E00E94FD61E7
:10562000892B29F48EE691E0A0E0B0E004C08DE67D
:1056300091E0A0E0B0E0881A990AAA0ABB0AC8184B
:10564000D908EA08FB08C90164E670E00E94FD6120
:105650008C01C90160E971E00E94FD61A2E1B2E044
:1056600020E0213041F4309751F40115110529F45F
:10567000009729F402C04C9103C04DE101C04CE1F8
:1056800050E060E070E0C416D506E606F70640F08C
:10569000C41AD50AE60AF70A2F5F11962C3009F7CB
:1056A0002F5F2D83C394CC82DF91CF911F910F91F7
:1056B000FF90EF90DF90CF90BF90AF909F908F9032
:1056C0007F906F900895CF92DF92EF92FF92C090FB
:1056D000FD12D090FE12E090FF12F09000136C15B6
:1056E0007D058E059F0571F06B017C0144EB5EE04A
:1056F0000E94922AC092FD12D092FE12E092FF12F6
:10570000F0920013FF90EF90DF90CF9008950E94E9
:10571000632B8091BA0E90E08E54984F08950E94AA
:105720005D280E94632B8091B50E90E008950E9441
:10573000632B2091B60E222331F0822F90E02D3082
:1057400020F00C9708958CE090E0089523E0829F6C
:10575000C0011124A3EFB2E120E030E0F901E80F2D
:10576000F91FEC50FF4EE491ED932F5F3F4F233034
:105770003105A1F71092F61283EF92E108951F927E
:105780000F920FB60F9211240BB60F922F933F93E7
:105790004F935F936F937F938F939F93AF93BF9339
:1057A000EF93FF938091B900887F803609F49CC005
:1057B00068F5883209F45BC090F4803109F454C074
:1057C00038F4882309F4F6C0883009F44DC0F6C0D7
:1057D000883109F44CC0803209F45DC0EFC08034D8
:1057E00009F468C048F4803309F455C0883309F0DF
:1057F000E5C080935E13D8C0803509F44FC088356A
:1058000009F45DC0883409F0D9C0D6C0883909F4DC
:10581000C7C0A8F4883709F467C038F4883609F49B
:1058200063C0803709F460C0C9C0883809F4B8C0C3
:10583000803909F45FC0803809F0C0C05BC0803B8C
:1058400009F486C038F4803A09F466C0883A09F44D
:105850007FC0B4C0803C09F4A7C0883C09F4A4C050
:10586000883B09F48AC0AAC080913B1310C0909174
:105870005D1380915C13981770F5E0915D1381E0E2
:105880008E0F80935D13F0E0E45CFC4E808180938A
:10589000BB0085EC86C080935E138EC0E0915D13E3
:1058A00081E08E0F80935D138091BB00F0E0E45C9B
:1058B000FC4E808390915D1380915C136EC0E091EB
:1058C0005D1381E08E0F80935D138091BB00F0E04B
:1058D000E45CFC4E80838091590F81116DC081E0A2
:1058E0008093580F84EA61C083E080935A0F10922E
:1058F000D212CFCF8091D212803208F051C0E09105
:10590000D21281E08E0F8093D2128091BB00F0E022
:10591000EE54FD4E8083BDCF85EC8093BC00109289
:105920005A0F8091D212803230F4E091D212F0E01E
:10593000EE54FD4E10826091D21270E0E091B012F0
:10594000F091B11282EB92E109951092D21236C019
:1059500084E080935A0F1092AF121092AE12E09131
:10596000AC12F091AD1209958091AE12811105C073
:1059700081E08093AE1210928C12E091AF1281E020
:105980008E0F8093AF12F0E0E457FD4E808180933C
:10599000BB009091AF128091AE12981708F479CFA6
:1059A00085E88093BC000AC085EC8093BC0010920F
:1059B0005A0F04C010925E130E94F826FF91EF91D7
:1059C000BF91AF919F918F917F916F915F914F9117
:1059D0003F912F910F900BBE0F900FBE0F901F9015
:1059E0001895CF93DF93EC01FE016491662331F0AB
:1059F0008BEB9EE00E94B0172196F6CFDF91CF91FE
:105A000008950E94F12C8AEE92E00C94B622EFE603
:105A1000F0E080818D7F8083E091B00EF091B10E37
:105A200012861092B10E1092B00E0895CF93DF93AC
:105A3000C82FD0E0FE01EC5DFC4EDE01AC5DBD4F39
:105A40008C91608190E00E9436376FE070E080E0DA
:105A500090E00E94541CFE01EE5DFC4EDE01AE5D46
:105A6000BD4F8C91608190E00E9436376FE070E00E
:105A700080E090E00E94541CCB5ED64F1882DF91EC
:105A8000CF910895CF9390910B019923D1F0C82F16
:105A90000E943A37C23069F028F4C13091F485E0B1
:105AA00094E00CC0C33041F0C43059F483E294E078
:105AB00005C08FE094E002C089E194E0CF910C949E
:105AC000C10FCF9108950F931F93809143098111C6
:105AD00005C080913909882309F4A5C09091460931
