:100000000C94DD080C949F3D0C94743D0C94493D78
:100010000C9407090C9407090C9407090C94070920
:100020000C9407090C94E13D0C9407090C94070902
:100030000C9407090C947A400C9454450C940709CD
:100040000C9407090C9407090C94FF3C0C940709C5
:100050000C94EE3B0C94C43B0C9407090C940709D8
:100060000C9407090C9407090C94E11A0C940709E5
:100070000C9407090C9407090C9407090C940709C0
:100080000C9407090C9407090C940709640B730B73
:10009000A40BC10BDF0BF00B010C1F0C300CBF0CC1
:1000A000D00C3F0C430C580C6E0C850C9C0CB30C04
:1000B000BC0C7C0E820E9E0EA60EB30EB70EBB0EAF
:1000C000BF0EC30EC70ED70EDD0EE10EE50EF40E09
:1000D000F80EFC0E000F110F2125F5250A271C270D
:1000E00032273727E02727262A262D2630263326B3
:1000F000362639267F2A922AA52AB82ACB2ADE2A32
:10010000F12A0D2B912C952C992C9F2CA32CA72CEC
:10011000AD2CB12C572E742EBD2EE72E152F442F4B
:100120006B2FB62FC42FCD30EA30D12FE92F0630F8
:10013000373045306D309C30B9309E34B83400359E
:100140002535443569358835AD35CC353C372236D3
:1001500047366C369136BC36E1360E373C37AE3812
:10016000B138A438A838C838C838B538B938BF3815
:10017000C33857726974696E67206E657720467759
:100180002076657273696F6E00556E61626C6520D2
:10019000746F2066696E6420616464726573732095
:1001A000666F72204465766963652030004F46466D
:1001B000004F4E004453313842323020706172613A
:1001C0007369746520706F7765722069733A2000D7
:1001D00020646576696365732E00466F756E6420D2
:1001E000004E6F2076616C69642046415420706136
:1001F00072746974696F6E210043616E2774206F99
:1002000070656E20726F6F742064697221004361A3
:10021000726420696E69742E206661696C65642160
:1002200000525443206861732073657420746865BC
:100230002073797374656D2074696D6500556E6106
:10024000626C6520746F2073796E632077697468BF
:1002500020746865205254430045786974206D65A8
:100260006E75005600426174746572793A00526589
:1002700063656976696E6720446174612E2E2E0075
:1002800052652D656E61626C6520526164696F0014
:100290005363726F6C6C2054656D70005363726FA2
:1002A0006C6C20446174650057726974696E6720D4
:1002B000496E697469616C2073657474696E6773E3
:1002C00020746F20454550524F4D2121210048692F
:1002D0006768207261746520667261676D656E740F
:1002E00065642066696C65210053616D706C6520E2
:1002F0007261746520746F6F206869676821004DB2
:100300006F7265207468616E203136206269747383
:10031000207065722073616D706C652100205761DB
:10032000726E696E672073746572656F2066696CA2
:100330006521004E6F74206D6F6E6F2F7374657240
:10034000656F2100436F6D7072657373696F6E2006
:100350006E6F7420737570706F72746564000E1F19
:1003600013131313131313131F0E060E1E06060684
:10037000060606061F1F1E1F030303060C18181887
:100380001F1F1E1F0303030E0E0303031F1E181857
:1003900018181B1F1F03030303031F1F1818181E21
:1003A0001F0303031F1E0E1F1818181E1F131313FD
:1003B0001F0E1F1F030303060C18181818180E1F12
:1003C0001313130E0E1313131F0E0E1F1313131FED
:1003D0000F0303031F0E00000000000000000000D8
:1003E00000001F1F1B1B1B1B1B1B1B1B1F1F0C0CA1
:1003F0000C0C0C0C0C0C0C0C0C0C1F1F0303031F1F
:100400001F1818181F1F1F1F0303031F1F030303B9
:100410001F1F1B1B1B1B1B1F1F03030303031F1F8C
:100420001818181F1F0303031F1F1F1F1818181F5A
:100430001F1B1B1B1F1F1F1F0303030303030303B8
:1004400003031F1F1B1B1B1F1F1B1B1B1F1F1F1F0C
:100450001B1B1B1F1F0303031F1F000000000000C6
:100460000000000000000E1F1B1B1B1B1B1B1B1B87
:100470001F0E02060E060606060606061F1F0E1FA4
:10048000030303060C1818181F1F0E1F0303030E87
:100490000E0303031F0E030306060C0C1B1F0303AE
:1004A00003031F1F1818181E0F0303031F0E0E1F30
:1004B0001818181E1F1B1B1B1F0E1F1F03030306EC
:1004C0000C18181818180E1F1B1B1B0E0E1B1B1BBD
:1004D0001F0E0E1F1B1B1B1F0F0303031F0E00000D
:1004E000000000000000000000001F111111111198
:1004F00011111111111F0404040404040404040460
:1005000004041F010101011F10101010101F1F0112
:100510000101011F01010101011F11111111111F21
:100520000101010101011F101010101F0101010143
:10053000011F1F101010101F11111111111F1F0189
:10054000010101010101010101011F111111111F1F
:1005500011111111111F1F111111111F01010101A1
:10056000011F0000000000000000000000000E114C
:100570001111111111111111110E040C04040404B4
:1005800004040404041F0E110101010204081010E8
:10059000101F0E110101010E01010101110E1111B7
:1005A0001111111F0101010101011F101010101E76
:1005B00001010101110E0E111010101E1111111167
:1005C000110E1F01010101020408101010100E117C
:1005D0001111110E11111111110E0E111111110F16
:1005E00001010101110E00000000000000000000E8
:1005F0000000000020002300260029000202020261
:1006000002020202040404040404040403030303B6
:1006100003030303010101010101010101020408B7
:1006200010204080010204081020408001020408CC
:100630001020408001020408102040804572724A58
:10064000616E4665624D61724170724D61794A75A5
:100650006E4A756C4175675365704F63744E6F7663
:1006600044656300005EBCE2613FDD83C29C7E2086
:10067000A3FD1F419DC3217FFCA2401E5F01E3BD7E
:100680003E6082DC237D9FC1421CFEA0E1BF5D0372
:1006900080DE3C62BEE0025CDF81633D7C22C09E66
:1006A0001D43A1FF4618FAA427799BC584DA386652
:1006B000E5BB5907DB856739BAE406581947A5FB3E
:1006C0007826C49A653BD987045AB8E6A7F91B4532
:1006D000C6987A24F8A6441A99C7257B3A6486D826
:1006E0005B05E7B98CD2306EEDB3510F4E10F2AC12
:1006F0002F7193CD114FADF3702ECC92D38D6F31FE
:10070000B2EC0E50AFF1134DCE90722C6D33D18FF1
:100710000C52B0EE326C8ED0530DEFB1F0AE4C12E5
:1007200091CF2D73CA947628ABF517490856B4EAD1
:100730006937D58B5709EBB536688AD495CB2977BD
:10074000F4AA4816E9B7550B88D6346A2B7597C9B1
:100750004A14F6A8742AC896154BA9F7B6E80A54A5
:10076000D7896B3500000000000000000008080871
:100770000800080000361224000000000000143EAB
:10078000143E140000081E281C0A3C0000003234ED
:10079000081626000000182418261E00001818103D
:1007A00000000000000810101010080000100808D9
:1007B000080810000000082A082A0800000008089D
:1007C0003E080800000000000018081000000000AB
:1007D0003E00000000000000000C0C0000000204BD
:1007E00008102000001C262626261C00000C1C0CCD
:1007F0000C0C1E00001C260C18303E00003E061C8F
:1008000006261C000026263E06060600003E303C5A
:1008100006261C00001C203C26261C00003E060C60
:1008200018181800001C261C26261C00001C261E5A
:1008300006261C0000000C0C000C0C0000000C0C28
:10084000000C040800000408100804000000003E2A
:10085000003E00000000100804081000001C2204E4
:1008600008000800001C262A2E201E00001C222240
:100870003E222200003C223C22223C00001C22207E
:1008800020221C00003C222222223C00003E203C70
:1008900020203E00003E203C20202000001C202084
:1008A00026221E000022223E22222200001C0808CE
:1008B00008081C00003E020202221C00002224380C
:1008C000382422000020202020203E000022362A4A
:1008D000222222000022322A26222200001C22226A
:1008E00022221C00003C223C20202000001824244E
:1008F000242C1A00003C223C22222200001E201C34
:1009000002221C00003E08080808080000222222DB
:1009100022221C000022222214140800002222227B
:100920002A2A14000022140808142200002222148B
:1009300008080800003E040810203E00001C1010AB
:1009400010101C000020100804020000001C040409
:1009500004041C0000081422000000000000000035
:1009600000003E00000804000000000000001C021F
:100970001E223E000020203C22223C0000001C20C1
:1009800020201C000002021E22221E0000001C2249
:100990003E201C00000E10103C10100000001E2213
:1009A0003E02021C0020203C2222220000080018E7
:1009B00008081C000008001E0202221C002020243F
:1009C000382422000018080808081C000000342AF7
:1009D0002A2A2A0000002C322222220000001C2297
:1009E00022221C0000003C223C20202000001C246D
:1009F0001C04040600002E302020200000001E20D1
:100A00001C023C0000083E080808060000002222E4
:100A100022221E00000022222214080000002222AE
:100A20002A2A1400000022140814220000002222A6
:100A30001E02041800003E0408103E0000040808CE
:100A40001008080400080808080808000010080832
:100A5000040808100000102A0400000000102810EC
:100A6000000000000000000000000000000808086E
:100A70000800080000361224000000000000143EA8
:100A8000143E140000081E281C0A3C0000003234EA
:100A9000081626000000182418261E00001818103A
:100AA00000000000000810101010080000100808D6
:100AB000080810000000082A082A0800000008089A
:100AC0003E080800000000000018081000000000A8
:100AD0003E00000000000000000C0C0000000204BA
:100AE00008102000000C121212120C0000040C045A
:100AF00004040E00000C120204081E00001E020C6A
:100B000002120C000012121E02020200001E101C33
:100B100002120C00000C101C12120C00001E020429
:100B200008080800000C120C12120C00000C120E27
:100B300002120C0000000C0C000C0C0000000C0C4D
:100B4000000C040800000408100804000000003E27
:100B5000003E00000000100804081000001C2204E1
:100B600008000800001C262A2E201E00001C22223D
:100B70003E222200003C223C22223C00001C22207B
:100B800020221C00003C222222223C00003E203C6D
:100B900020203E00003E203C20202000001C202081
:100BA00026221E000022223E22222200001C0808CB
:100BB00008081C00003E020202221C000022243809
:100BC000382422000020202020203E000022362A47
:100BD000222222000022322A26222200001C222267
:100BE00022221C00003C223C20202000001824244B
:100BF000242C1A00003C223C22222200001E201C31
:100C000002221C00003E08080808080000222222D8
:100C100022221C0000222222141408000022222278
:100C20002A2A140000221408081422000022221488
:100C300008080800003E040810203E00001C1010A8
:100C400010101C000020100804020000001C040406
:100C500004041C0000081422000000000000000032
:100C600000003E00000804000000000000001C021C
:100C70001E223E000020203C22223C0000001C20BE
:100C800020201C000002021E22221E0000001C2246
:100C90003E201C00000E10103C10100000001E2210
:100CA0003E02021C0020203C2222220000080018E4
:100CB00008081C000008001E0202221C002020243C
:100CC000382422000018080808081C000000342AF4
:100CD0002A2A2A0000002C322222220000001C2294
:100CE00022221C0000003C223C20202000001C246A
:100CF0001C04040600002E302020200000001E20CE
:100D00001C023C0000083E080808060000002222E1
:100D100022221E00000022222214080000002222AB
:100D20002A2A1400000022140814220000002222A3
:100D30001E02041800003E0408103E0000040808CB
:100D4000100808040008080808080800001008082F
:100D5000040808100000102A0400000000102810E9
:100D60000000000000000000000000000004040477
:100D700004000400000505000000000000000C0F46
:100D80000C0F0C000004060C06060C0400003234A4
:100D9000081626000000182418261E000018181037
:100DA00000000000000810101010080000100808D3
:100DB000080810000000082A082A08000000080897
:100DC0003E080800000000000018081000000000A5
:100DD0003E000000000000000002000000000204CD
:100DE00008102000000205050502000000020602AE
:100DF00002070000000601020407000000070106C8
:100E000001060000000505070101000000070407B6
:100E100001060000000304070502000000070102AC
:100E20000404000000070507050700000007050788
:100E3000010600000000020002000000000006069B
:100E40000006020400000102040201000000000785
:100E50000007000000000402010204000006010275
:100E6000040004000006090B0B080600000205053B
:100E70000705050000060506050506000002050435
:100E80000405020000060505050506000007040626
:100E9000040407000007040604040400000304041B
:100EA000050503000005050705050500000702020A
:100EB0000202070000070101010502000005050606
:100EC00006050500000404040404070000050707E4
:100ED00005050500000507050505050000020505D7
:100EE00005050200000605060404040000020505CD
:100EF00005070300000605060505050000030402BA
:100F000001050200000702020202020000050505B9
:100F10000505070000050505050502000005050596
:100F20000507070000050502020505000005050587
:100F30000202020000070102040407000006040484
:100F40000404060000040402010100000003020280
:100F5000020203000002050500000000000000007E
:100F60000000070000020100000000000000060170
:100F70000705070000040407050507000000030437
:100F80000404030000010107050507000000020436
:100F90000704030000030202070202000000030529
:100FA000070101060004040705050500000200060C
:100FB000020207000001000701010502000004050C
:100FC00006050500000602020202070000000607EF
:100FD00007050500000006050505050000000205DF
:100FE00005050200000006050604040400000305D0
:100FF00007010101000003040404040000000304CD
:1010000002010600000207020202010000000505BD
:1010100005050300000005050505020000000505A3
:10102000050707000000050502050500000005058D
:101030000701010600000701020407000001020287
:101040000402020100020202020202000004020283
:10105000010202040000040B01000000436F756CE4
:10106000646E2774206F70656E2066696C65200061
:101070004E6F7420612076616C6964205741560080
:10108000446973706C6179204F7074696F6E73205E
:101090004D656E7500446973706C61792053797386
:1010A00074656D204D656E7500446973706C61796F
:1010B00020446174652F54696D65204D656E75001F
:1010C000446973706C617920416C726D2032204DDF
:1010D000656E7500446973706C617920416C726D46
:1010E0002031204D656E750045786974696E672002
:1010F000514D656E7500526164696F204F666621BF
:10110000002C20000D0A534420492F4F2065727295
:101110006F723A20004E6F7420612076616C6964B2
:101120002057415600436F756C646E2774206F70B2
:10113000656E2066696C6520000000210024002790
:10114000002A0000002200250028002B00000000DB
:10115000010200090A000000000403080700000063
:101160000000000000000000000000000065727236
:101170006F7220636F72726563746564004E414ED6
:10118000494E495459494E46CDCCCC3D0AD7233C13
:1011900017B7D13877CC2B329595E6241FB14F0A7B
:1011A000000020410000C84200401C4620BCBE4C4C
:1011B000CA1B0E5AAEC59D745A5F11241FBECFEFD5
:1011C000D0E4DEBFCDBF18E0A0E0B1E0E8E0F5ED8F
:1011D00000E00BBF02C007900D92A43FB107D9F702
:1011E00023E1A4EFB8E001C01D92A43CB207E1F7EF
:1011F00018E0CDEDD8E004C02197FE010E94EC611B
:10120000CC3DD107C9F70E94D94C0C94826A0C944A
:101210000000CF92DF92EF92FF920F931F93CF9334
:10122000DF93CDB7DEB727970FB6F894DEBF0FBEBA
:10123000CDBF80915309823029F410925609109243
:10124000530917C6833019F402E310E002C00CE220
:1012500011E00E94F33CC0905809D0905909E090E9
:101260005A09F0905B09AB01BC014C195D096E098C
:101270007F09C801110FAA0BBB0B481759076A0752
:101280007B0708F4F6C581E0809348091092410974
:101290000E94F33C609358097093590980935A094E
:1012A00090935B0980913B09833099F038F4813049
:1012B00061F0823009F0DDC581E008C0843009F4B6
:1012C000EEC1853009F4F9C4D4C580E00E94F22B48
:1012D000D0C50E947F170E94851A8091C00D80930F
:1012E000B0090E94B11A809337130E947F170E94A1
:1012F000851A8091BE0D8093AF090E947F170E94CE
:10130000851A8091C30D8093AE090E947F170E94B9
:10131000851A8091C20D809338130E947F170E9416
:10132000A91A64E670E00E94D8618093AD0990919B
:101330003309933009F442C028F4913061F09230BF
:1013400019F1A4C0953009F469C008F450C0963072
:1013500009F479C09BC0909157098091B0099923F5
:1013600011F0815001C08F5F8093B0098091B00966
:101370008F3F21F487E18093B00988C0883108F459
:1013800085C01092B00982C090915709809137139F
:10139000992311F0815001C08F5F809337138091A2
:1013A00037138F3F21F48BE38093371304C08C33C2
:1013B00010F0109237131092AF0968C0909157093E
:1013C00080913813992311F0815001C08F5F809371
:1013D0003813809138138F3F21F48FE180933813B5
:1013E00055C0803208F452C0109238134FC090910B
:1013F00057098091AE09992311F0815001C08F5F88
:101400008093AE098091AE09811102C08CE003C0C7
:101410008D30E0F181E08093AE0938C0909157099A
:10142000992311F0815001C08F5F8093AD098091A5
:10143000AD09803110F488E203C0893238F180E1CF
:101440008093AD0923C081E00E94552890915709EF
:1014500080916B0F992311F0815001C08F5F8093B1
:101460006B0F80916B0F883010F010926B0F6091B2
:101470006B0F84E290E00E9454326FE070E080E0F5
:1014800090E00E94B93C81E0809347090E94F33CC0
:101490000091A9091091AA092091AB093091AC09DA
:1014A000DC01CB01801B910BA20BB30B893E934057
:1014B000A105B10578F18091AF098F5F8C3318F4E5
:1014C0008093AF0907C01092AF09809137138F5FE7
:1014D00080933713809137138C3338F01092371381
:1014E0008091B0098F5F8093B0098091B0098831F5
:1014F00038F01092B009809138138F5F80933813C1
:101500000E94F33C6093A9097093AA098093AB09E8
:101510009093AC098091AD0990E06091AE09509133
:1015200038132091AF09309137134091B0098436B8
:1015300091051CF0825B974001C04E968093C40DCC
:101540006093C30D5093C20D4093C00D3093BF0DF7
:101550002093BE0D8EEB9DE00E9409180E94581743
:101560000E947F17AE014F5F5F4F0E94B41901E0E8
:1015700000938F1388E6F82EF092B0131092660E47
:101580001092650E60E089E69EE00E94264060E8C9
:1015900089E69EE00E9426408A811AE0612F0E941F
:1015A000B861692F20E1829F600D112489E69EE0D9
:1015B0000E9426408B81612F0E94B861692F20E133
:1015C000829F600D112489E69EE00E9426408C8156
:1015D000612F0E94B861692F20E1829F600D112464
:1015E00089E69EE00E9426408D81612F0E94B861AD
:1015F000692F20E1829F600D112489E69EE00E9400
:1016000026408E81612F0E94B861692F20E1829F60
:10161000600D112489E69EE00E9426408F818E5144
:10162000612F0E94B861692F20E1829F600D112413
:1016300089E69EE00E94264081E00E94084C8823B3
:1016400019F01092DD1123C00093DD1100938F1368
:10165000F092B0131092660E1092650E60E089E66B
:101660009EE00E9426408981612F0E94B861692F07
:1016700020E1829F600D112489E69EE00E942640B1
:1016800081E00E94084C8111DCCF0093DD11809134
:10169000A809882309F4EDC30E942134EAC380918C
:1016A0003409882319F081E00E945528E09134091B
:1016B0008E2F90E0FC013197EB30F10508F0D9C393
:1016C000EA5BFF4F0C94EC618091BD13811104C063
:1016D00081E08093BD1302C01092BD136091BD13D1
:1016E00080E090E07AC30E94011E9091570980919A
:1016F0002E09992311F0815001C08F5F80932E092C
:1017000080912E098F3F21F485E080932E0904C03B
:10171000863010F010922E0960912E0984E090E03E
:101720000E9454326FE070E080E090E00E94B93C8B
:1017300010923B1380912E09811103C00E94582DF5
:1017400098C30E94D31D95C30E94011E9091570912
:1017500080916109992311F0815001C08F5F8093BE
:10176000610980916109811102C083E003C0843066
:1017700018F081E0809361096091610985E090E053
:101780002CC30E94011E909157098091F80899235B
:1017900011F0815001C08F5F8093F8088091F808A4
:1017A0008F3F21F484E08093F80804C0853010F066
:1017B0001092F8086091F80888E090E00EC30E944B
:1017C000011E80910001882319F01092000103C0CE
:1017D00081E080930001609100018DE090E0FDC206
:1017E0000E94011E8091F708882319F01092F708D3
:1017F00003C081E08093F7086091F7088EE090E0E5
:10180000ECC20E94011E9091570980912D099923E5
:1018100011F08F5F01C0815080932D0980912D09B7
:101820008F3F21F488E080932D0904C0893010F0A7
:1018300010922D0960912D098FE090E0CEC20E9498
:10184000011E80912C09882319F010922C0903C0E5
:1018500081E080932C0960912C0982E190E0BDC267
:101860000E94011EE0913A098E2F90E08830910588
:1018700008F0FFC2FC01EF5AFF4F0C94EC6181E0CD
:1018800080933A09F6C28091BB13882319F0109215
:10189000BB1309C081E08093BB136FE070E080E070
:1018A00090E00E94B93C6091BB1386E190E095C244
:1018B0009091570980912B09992311F0815001C013
:1018C0008F5F80932B0980912B09833010F0109249
:1018D0002B0960912B098BE190E07FC29091570911
:1018E00080912909992311F0815001C08F5F809365
:1018F000290980912909843618F081E0809329090B
:10190000609129098EE190E068C290915709809119
:101910002A09992311F0815001C08F5F80932A0911
:1019200080912A09843618F081E080932A09609119
:101930002A0980E290E051C2909157098091F40801
:10194000992311F0815001C08F5F8093F40880913A
:10195000F408843618F081E08093F4086091F4086C
:1019600081E290E03AC26091280981E068276093A3
:10197000280982E290E031C210923A097AC20E94AC
:10198000011E80915C09882319F010925C0903C044
:1019900081E080935C0960915C0987E190E01DC261
:1019A0000E94011E88EA92E00E94654060E081E0AA
:1019B00090E00E94543262E370E080E090E00E9488
:1019C000B93C60E082E090E00E94543262E370E053
:1019D00080E090E00E94B93C60E083E090E00E94EB
:1019E000543262E370E080E090E00E94B93C61E034
:1019F00087E090E00E94543262E370E080E090E083
:101A00000E94B93C60E089E090E00E94543262E3B9
:101A100070E080E090E00E94B93C60E08AE090E0F5
:101A20000E94543262E370E080E090E00E94B93C92
:101A300060E08BE090E00E94543262E370E080E06E
:101A400090E00E94B93C61E08CE090E00E9454324A
:101A500062E370E080E090E00E94B93C60E080E0EA
:101A600090E00E94543262E370E080E090E00E94D7
:101A7000B93C63E084E090E00E94543262E370E09D
:101A800080E090E00E94B93C61E085E090E00E9437
:101A9000543262E370E080E090E00E94B93C6FE273
:101AA00089E190E00E94543261E08AE190E00E9476
:101AB000543262E370E080E090E00E94B93C61E063
:101AC00088E090E00E94543262E370E080E090E0B1
:101AD0000E94B93C61E08DE090E00E94543262E3E4
:101AE00070E080E090E00E94B93C61E08EE090E020
:101AF0000E94543262E370E080E090E00E94B93CC2
:101B000060E08FE090E00E94543262E370E080E099
:101B100090E00E94B93C62E080E190E00E94543283
:101B200062E370E080E090E00E94B93C6FEF81E1F9
:101B300090E00E94543262E370E080E090E00E9406
:101B4000B93C61E082E190E00E94543262E370E0CF
:101B500080E090E00E94B93C62E084E190E00E9465
:101B6000543262E370E080E090E00E94B93C62E0B1
:101B700085E190E00E94543262E370E080E090E002
:101B80000E94B93C60E086E190E00E94543262E33A
:101B900070E080E090E00E94B93C60E087E190E076
:101BA0000E94543262E370E080E090E00E94B93C11
:101BB00060E08BE190E00E94543262E370E080E0EC
:101BC00090E00E94B93C61E08EE190E00E945432C6
:101BD00062E370E080E090E00E94B93C69E08FE150
:101BE00090E00E94543262E370E080E090E00E9456
:101BF000B93C61E080E290E00E94543262E370E020
:101C000080E090E00E94B93C65E081E290E00E94B3
:101C1000543262E370E080E090E00E94B93C61E001
:101C200082E290E00E94543269E170E080E090E04E
:101C30000E94B93C60E084E290E00E94543269E185
:101C400070E080E090E00E94B93C64E670E08CE5D2
:101C500090E10E94CA3D64E970E084E390E10E9453
:101C6000CA3D64EC70E08CE090E10E94CA3D64EFF4
:101C700070E084EE9FE00E94CA3D64E271E08CEB6C
:101C80009FE00E94CA3D64E571E084E99FE00E9404
:101C9000CA3D64E871E08CE69FE00E94CA3D64EBB7
:101CA00071E084E890E10E94CA3D64E670E080E063
:101CB00090E00E94B93C0E944D2D80913709882305
:101CC00019F081E00E94552880913709823009F48B
:101CD00061C0833009F4A8C0813009F0CAC0E09126
:101CE00038098E2F90E08A30910508F0C2C0FC01BF
:101CF000E75AFF4F0C94EC610E94011E81E0809333
:101D00003809B7C09091570980914B09992311F078
:101D1000815001C08F5F80934B0980914B098111E5
:101D200004C089E080934B0904C08A3010F01092FF
:101D30004B0960914B0980E190E091C08CE992E001
:101D40000E94654060914A09605808C080E992E0AD
:101D50000E94654060914A0980E4682760934A09BF
:101D600085E190E03AC060914A0980E2F6CF609147
:101D70004A0980E1F2CF60914A0988E0EECF609194
:101D80004A0981E0EACF60914A0984E0E6CF1092E7
:101D900038096FC0E09139098E2F90E089309105A4
:101DA00008F067C0FC01ED59FF4F0C94EC610E94F4
:101DB000011E81E0809339095CC06091F60880E4DF
:101DC00007C06091F60880E203C06091F60880E1E8
:101DD00068276093F60881E190E00E94543265E044
:101DE00070E080E090E01AC06091F60884E00BC0DB
:101DF0006091F60881E007C06091F60882E003C0B8
:101E00006091F60888E068276093F60881E190E029
:101E10000E9454326AE070E080E090E00E94B93C99
:101E200028C01092390925C0909157098091F50872
:101E3000992311F0815001C08F5F8093F508809144
:101E4000F5088F3F21F489E08093F50804C08A30BB
:101E500010F01092F5086091F50884E190E00E947E
:101E6000543265E070E080E090E00E94B93C0E944E
:101E7000011E27960FB6F894DEBF0FBECDBFDF91CF
:101E8000CF911F910F91FF90EF90DF90CF90089529
:101E90008F929F92AF92BF92CF92DF92EF92FF927A
:101EA0000F931F93CF93DF93CDB7DEB764970FB631
:101EB000F894DEBF0FBECDBF5F87798BF42E411142
:101EC00009C06F5F6D3040F02FEFC21AD20A21E0D7
:101ED00061E003C0242F01C021E089898B831A822D
:101EE000198281E08D836E838EE48C0D8F83CE0109
:101EF00001962C8B0E9409184B015C010F8510E0A4
:101F00000E94851A2C8930E02150310987E0829F98
:101F1000F001839FF00D11248091C10D9801281BC1
:101F20003109C901079667E070E00E94D861DF01BE
:101F3000A80FB91F20E831E541E050E00E94496A4E
:101F4000680D791D8A1D9B1DF11004C060587A43ED
:101F50008940910964960FB6F894DEBF0FBECDBFDD
:101F6000DF91CF911F910F91FF90EF90DF90CF9075
:101F7000BF90AF909F908F9008958F929F92AF9255
:101F8000BF92CF92DF92EF92FF920F931F93CF9366
:101F9000DF936C01E090430FF090440F0091450FE8
:101FA0001091460F2091470F3091480F4091490FF3
:101FB00050914A0F60914B0F70914C0F80914D0FD3
:101FC00090914E0F0E94480FC3E4DFE068A379A30D
:101FD0008AA39BA3EFE4FFE0E080F18002811381FC
:101FE00024813581468157816085718582859385FD
:101FF0000E94480F6B017C016CA37DA38EA39FA35D
:10200000AE89BF892CE330E00E94F56108A119A1D7
:102010002AA13BA148015901861A970AA80AB90AC0
:10202000888E998EAA8EBB8EAA85BB852CE330E064
:102030000E94F561C61AD70AE80AF90ACC8EDD8E2D
:10204000EE8EFF8EDF91CF911F910F91FF90EF9059
:10205000DF90CF90BF90AF909F908F9008952F9278
:102060003F924F925F926F927F928F929F92AF9228
:10207000BF92CF92DF92EF92FF920F931F93CF9375
:10208000DF9300D000D01F92CDB7DEB78C016983FB
:10209000FC0101900020E9F79F01281B390B3D83CB
:1020A0002C8328EF6C817D812603C001279F900D32
:1020B00011249B838A8380E2E82EF12C93E0492E41
:1020C000512C612C712C4A01550FAA08BB086A815A
:1020D0007B816E157F05CCF567011801C101801B5E
:1020E000910B2C813D8182179307C4F439813430E0
:1020F00041F40E94EB66A30192010E941F6A6F5F88
:102100006983F10141911F01298168E070E0C601F6
:102110000E947720F8E0CF0ED11CE0CF8BE10E9427
:10212000243C0197A1F08CE10E94243C019779F0B6
:102130008AE10E94243C019751F0C501B4010E943C
:10214000B93C31E0E31AF108C2CF81E003C00E943C
:10215000011E80E00F900F900F900F900F90DF9175
:10216000CF911F910F91FF90EF90DF90CF90BF9094
:10217000AF909F908F907F906F905F904F903F9027
:102180002F9008957F928F929F92AF92BF92CF929D
:10219000DF92EF92FF920F931F93CF93DF93722EF4
:1021A0002BE0429F600D711D11242CE0269F6001E1
:1021B000279FD00C1124C2E0D0E003965C0132E0EE
:1021C000C31AD1084501C6018C0F9D1FFC01E25ABC
:1021D000FC4F7F0104E010E0F701649170E0002EF5
:1021E00002C0759567950A94E2F760FF02C0472D1B
:1021F00001C040E0BE01C4010E943D1F0150110911
:10220000FFEF8F1A9F0A0F3F2FEF120729F7219632
:10221000CE30D105B9F6DF91CF911F910F91FF908C
:10222000EF90DF90CF90BF90AF909F908F907F9076
:102230000895009769F0FC0101900020E9F73197BB
:10224000AF01481B590BBC0185EC9DE00C94923703
:1022500080E090E008958F929F92AF92BF920F938B
:102260001F93CF93DF93CDB7DEB7A1970FB6F89446
:10227000DEBF0FBECDBF19A2423008F44AE08E0186
:102280000F5D1F4F842E912CA12CB12CA501940120
:102290000E94516AE62FB901CA0101501109EA30C2
:1022A00014F4E05D01C0E95CD801EC93232B242BEE
:1022B000252B61F7C8010E941911A1960FB6F89459
:1022C000DEBF0FBECDBFDF91CF911F910F91BF90A9
:1022D000AF909F908F900895CF92DF92EF92FF92F0
:1022E000CF93DF936B017C010E94A91AEC016091EE
:1022F0005B0F70915C0F80915D0F90915E0F0E945B
:10230000A91AC817D90731F0C701B6010E94A91A46
:102310000E94BD0FC701B6010E94A91AEC0160918D
:102320005B0F70915C0F80915D0F90915E0F0E942A
:10233000A91AC817D90731F0C701B6010E94A91A16
:102340000E94BD0F40915F0F5091600F6091610F2F
:102350007091620F80915B0F90915C0FA0915D0F67
:10236000B0915E0F84179507A607B70758F4C816F3
:10237000D906EA06FB06D8F0C416D506E606F70627
:10238000B0F40AC0C416D506E606F70628F0C8164B
:10239000D906EA06FB0658F083E49FE09093BD0D52
:1023A0008093BC0DA0914D0FB0914E0F0AC08FE4E9
:1023B0009FE09093BD0D8093BC0DA091590FB091FB
:1023C0005A0F2CE330E00E94F5616C0D7D1D8E1DCF
:1023D0009F1DDF91CF91FF90EF90DF90CF900895F8
:1023E00081E480937C0080917A00806480937A00FD
:1023F00080917A0086FDFCCF809178002091790051
:1024000090E0922B0895CF93DF930E941911EC0175
:1024100082EF92E00E9419118C0F9D1FDF91CF91E6
:1024200008950F931F93CF93DF938C01C0E0D0E00A
:10243000F801EC0FFD1F6491662371F0E091C50D6A
:10244000F091C60D0190F081E02D85EC9DE009959D
:10245000892B11F02196ECCFCE01DF91CF911F9106
:102460000F910895E091C50DF091C60D0190F08196
:10247000E02D682F85EC9DE00994E8980E94FA3ED3
:10248000E89A08958F929F92AF92BF92CF92DF9277
:10249000EF92FF920F931F93CF93DF93CDB7DEB7E9
:1024A00062970FB6F894DEBF0FBECDBF80915D116D
:1024B000877041F1C0906A11D0906B11E0906C115F
:1024C000F0906D11C114D104E104F10409F050C081
:1024D00019C0460157012FEF821A920AA20AB20AC6
:1024E0006B017C01681579058A059B0509F045C0DB
:1024F000B701A601C8010E94A242611571058105BC
:10250000910539F74CE050E0BE016F5F7F4F8DE5DC
:1025100091E10E94CF430C9749F544E050E062EC12
:1025200073E0CE0101960E947C63892BF9F444E0AC
:1025300050E067EC73E0CE0109960E947C63892B22
:10254000A9F448E050E0BE016F5F7F4F8DE591E157
:102550000E94CF43089751F444E050E06CEC73E0E4
:10256000CE0101960E947C63892B01F110E0C5C069
:1025700000916E1110916F11BBCFF80122892031AB
:1025800029F008EF1FEF2FEF3FE004C008EF1FEF27
:1025900020E030E0601771078207930708F4B2CF9C
:1025A00080915D11886080935D11ACCFCD80DE801D
:1025B000EF80F8848601C6018D7F409761F4A60103
:1025C000BE016F5F7F4F8DE591E10E94CF438C1577
:1025D0009D0561F602C01A82198289819A8101974C
:1025E00039F40231110539F489899A89892B19F056
:1025F00084E493E007C08B8180934B11833028F0F3
:1026000083E393E00E946540B1CF823021F48DE1F5
:1026100093E00E946540EF85E0935011E13118F09E
:102620008FEF92E0EFCF2D813E814F81588520932F
:102630004C1130934D1140934E1150934F11A09176
:102640004B11B0E00E943E6A6B017C01AE2FB0E0FE
:102650009B01AC010E943E6ADC01CB0123E0B695F0
:10266000A795979587952A95D1F7F3E2CF16F6E5CA
:10267000DF06E104F10438F4893828E5920721E007
:10268000A207B10518F089EE92E0BCCF85349C4AD0
:10269000A105B10558F080915D11182F187083FDC8
:1026A00005C08EEC92E00E94654027C08DE591E167
:1026B00090935C1180935B111092561110925711F8
:1026C00010925811109259111092551110925111E7
:1026D00010925211109253111092541110925A11DB
:1026E00040E050E060E070E08BE491E10E94BD4486
:1026F0009095192F111F1127111F812F62960FB668
:10270000F894DEBF0FBECDBFDF91CF911F910F9127
:10271000FF90EF90DF90CF90BF90AF909F908F9001
:1027200008958BE491E19093BB0D8093BA0D40E046
:1027300052E06AEB7BE00E94BD44181619060CF0CB
:1027400056C02AEB3BE03093B90B2093B80B86546C
:10275000944F9093B70B8093B60B40E052E066EB3A
:1027600079E08BE491E10E94BD4497FD40C026EBE7
:1027700039E03093B5092093B4098A54964F909369
:10278000B3098093B20981E08093B1098093551118
:10279000209A219A229A289A239A2B9810928000A4
:1027A00089E080938100A0914B1120914C113091D0
:1027B0004D1140914E1150914F11B0E00E943E6A70
:1027C0009B01AC0160E074E284EF90E00E94516AEA
:1027D000309389002093880081E090E090938B00F3
:1027E00080938A0080916F00826080936F000895CB
:1027F0008F929F92AF92BF92EF92FF920F931F938F
:10280000CF93DF93CDB7DEB7AD970FB6F894DEBFA9
:102810000FBECDBF8C0180917D1190917E11A09152
:102820007F11B09180118093751190937611A093D0
:102830007711B09378111092791110927A11109249
:102840007B1110927C114EE2F42E909170119770D2
:10285000923008F4C1C040E250E0BE016F5F7F4F8C
:1028600080E791E10E94CF43803209F0B5C09981A1
:10287000992309F4B1C0953E71F39E3261F3BC8493
:10288000FB2DF870AF2EB3FCE6CFFE01319690E041
:1028900020E08191803291F0283041F4A1E2B0E053
:1028A000AC0FBD1FA90FB11DFC929F5FA1E2B0E06C
:1028B000AC0FBD1FA90FB11D8C939F5F2F5F2B30F5
:1028C00041F7E1E2F0E0EC0FFD1FE90FF11D10828E
:1028D000B801CE0181960E945763892B09F0B5CFCC
:1028E000E0908111F0908211F7018289803108F423
:1028F00074C04D895E8960E070E0BA0155274427B5
:102900000B8D1C8D20E030E0402B512B622B732B64
:1029100040936A1150936B1160936C1170936D1119
:102920008B2D887181F481E080935D118D8D9E8D5A
:10293000AF8DB8A180935E1190935F11A093601149
:10294000B09361112AC0803109F047C084E08093C0
:102950005D11812C912C5401C7010E94A242AB0150
:10296000BC01411551056105710579F0F7018081C0
:1029700090E0982F8827990F092E000CAA0BBB0B0B
:10298000880E991EAA1EBB1EE7CF80925E11909200
:102990005F11A0926011B0926111F0926F11E092FC
:1029A0006E1180916A1190916B11A0916C11B09190
:1029B0006D118093621190936311A0936411B09391
:1029C00065111092661110926711109268111092A1
:1029D0006911AA24A39401C0A12C8A2DAD960FB62B
:1029E000F894DEBF0FBECDBFDF91CF911F910F9145
:1029F000FF90EF90BF90AF909F908F900895EF92CF
:102A0000FF920F931F93CF93DF937C018B01CCEA4E
:102A1000D0E18D819E810E948D16B7018D819E81AE
:102A20000E94201640E06EEB8D819E810E94DE1593
:102A30008D819E810E947116F80180838D819E8117
:102A40000E947116F80181838D819E810E9471160A
:102A5000F80182838D819E810E947116F801838323
:102A60008D819E810E947116F80184838D819E81E3
:102A70000E947116F80185838D819E810E947116D6
:102A8000F80186838D819E810E947116F8018783EB
:102A90008D819E810E947116F80180878D819E81B3
:102AA000DF91CF911F910F91FF90EF900C948D16B5
:102AB000CF93DF93EB010E94FF1468E0CE010E94E8
:102AC000D11591E02885821390E0892FDF91CF9175
:102AD00008950895FC0190810180F281E02D892FF5
:102AE000809560FF12C0F8942281822382838181C5
:102AF000892B8183A3E2B0E01197F1F78281982BB3
:102B00009283789487ED90E011C0F894228182231B
:102B100082838181892B8183AFEFB0E01197F1F738
:102B20008281982B928378948FE090E00197F1F75F
:102B3000089585ED8093BC008091BC0084FDFCCF9E
:102B40001092640E08950895E091680E8091670ECA
:102B5000E81730F4F0E0E354FE4E808190E00895F1
:102B60008FEF9FEF08958EBD0DB407FEFDCF8EB59C
:102B700008958627682F62956827062E66956695C4
:102B80006025062E669560256770082E892F66954C
:102B900007946795902D862706946795902586273C
:102BA0000895DC01E0E0615038F08D91E827F0E015
:102BB000EC59F94FE491F7CF8E2F0895CF92DF9221
:102BC000EF92FF920F931F93CF93DF931F92CDB796
:102BD000DEB76C01E62E08E010E0FF24F39461E01C
:102BE0008F2D8E2109F460E0C60149830E946A1589
:102BF000FF0C0150110949810115110581F741119F
:102C000015C0F894D6011196ED91FC91129791811F
:102C10008C918095892381831196ED91FC91129777
:102C200092818C9180958923828378940F90DF9193
:102C3000CF911F910F91FF90EF90DF90CF9008956B
:102C4000CF92DF92EF92FF920F931F93CF93DF9378
:102C50001F92CDB7DEB78C01F62E40E065E5798393
:102C60000E94DE15CF2C7981D72E760188E0E80E00
:102C7000F11CF60161916F0140E0C8010E94DE1570
:102C8000CE14DF04B1F70F90DF91CF911F910F9118
:102C9000FF90EF90DF90CF900895FC01908101802C
:102CA000F281E02DF8948181892B81832281892F03
:102CB000809528232283A7E0B0E01197F1F72181C6
:102CC00082238183A3E2B0E01197F1F780817894A9
:102CD000EFECF0E03197F1F7982381E009F480E020
:102CE0000895EF92FF920F931F93CF93DF937C0190
:102CF00008E010E0C0E0D1E0C7010E944D1681114C
:102D0000CD2BDD0F01501109B9F78C2FDF91CF9139
:102D10001F910F91FF90EF900895FC019081018029
:102D2000F281E02DF8948181292F209582238183DF
:102D300078948DE743E050E0815021F1DA0111975A
:102D4000F1F730813923C1F3F894828182238283A1
:102D50008181892B81837894ABECB7E01197F1F7EF
:102D6000F894818128232183ABE3B1E01197F1F737
:102D70008081982381E009F080E07894EBE8F6E028
:102D80003197F1F70895AF92BF92CF92DF92EF9211
:102D9000FF920F931F93CF93DF931F92CDB7DEB7B0
:102DA0005C01E62ED72EFC01858581115DC0C50131
:102DB0000E948D16811105C0F501138615861486B3
:102DC0006BC040E060EFC5010E94DE1501E0F12C10
:102DD000C12C11E0C5010E944D16682FC501698301
:102DE0000E944D166981613019F48130B9F433C005
:102DF0004F2D50E068131BC0F5018385181730F480
:102E0000E40FF51F8381802349F402C0181731F0C5
:102E100060E0193058F4F501148708C0F501EF0D92
:102E2000F11D8381802B838361E009C0C12EF501F0
:102E3000E40FF51F9381802F809589238383C5013B
:102E40000E946A151F5F000F11F4F39401E0F7E090
:102E5000FF1508F0BFCF113438F0F501C386C1105B
:102E600015C081E0858712C0F5011386158614868A
:102E700080E0D5011396EE2DFD2D9501255F3F4F86
:102E80009D919193A217B307D9F706C0F5018381ED
:102E9000882351F381E0EDCF0F90DF91CF911F9107
:102EA0000F91FF90EF90DF90CF90BF90AF9008957B
:102EB00060930709709308098093090990930A09A0
:102EC000DC01CB01845D9E4FAF4FBF4F8093030960
:102ED00090930409A0930509B093060982E090E05D
:102EE00090930E0980930D090E94F33C6093331276
:102EF0007093341280933512909336120895CF92C6
:102F0000DF92EF92FF920F931F930E94F33CC090C9
:102F10003312D0903412E0903512F09036128B01BB
:102F20009C010C191D092E093F09809107099091F8
:102F30000809A0910909B0910A09083E134021052A
:102F40003105D0F00196A11DB11D80930709909322
:102F50000809A0930909B0930A09B701A6014851CD
:102F60005C4F6F4F7F4F40933312509334126093F6
:102F7000351270933612C9CF40910309509104095C
:102F8000609105097091060984179507A607B70790
:102F900088F1E0910B09F0910C09309759F10995EE
:102FA000611571058105910519F00E94581722C01D
:102FB0008091070990910809A0910909B0910A0927
:102FC000845D9E4FAF4FBF4F8093030990930409D8
:102FD000A0930509B093060981E090E020910D09C6
:102FE00030910E09232B11F480E090E090930E09AC
:102FF00080930D0960910709709108098091090972
:1030000090910A091F910F91FF90EF90DF90CF9060
:1030100008956F927F928F929F92AF92BF92CF92BC
:10302000DF92EF92FF920F931F93CF93DF93EC0108
:10303000EE81AE2FB0E020E833E341EE51E00E9494
:103040003E6A4B015C0122EB37E0FD0104E610E033
:1030500080E9E82EFF24F394C901825B97408E1724
:103060009F07DCF4C90183709927892B99F4C90162
:10307000B8010E94D861892B31F4C901B7010E94BF
:10308000D861892B39F480E8880E81E5981E81E0AB
:10309000A81EB11C2F5F3F4FDFCF6D80712CEE5407
:1030A000F84FCF0164E670E00E94D8617C01CF0147
:1030B00060E971E00E94D8616C0101E010E0E3700A
:1030C000FF27061517052CF50230110581F43097FE
:1030D00071F4E114F10419F4C114D10441F480E84D
:1030E000880E8BE3981E86E2A81EB11C0FC0D80183
:1030F000A55FBD4FAC91B0E020E831E541E050E084
:103100000E943E6A860E971EA81EB91E0F5F1F4FB3
:10311000D8CF49812A8130E0A0E1BEE00E94736AE5
:103120006B017C01242F30E0ACE3B0E00E94736AB5
:10313000DC01CB018C0D9D1DAE1DBF1D28816C01D6
:103140007D01C20ED11CE11CF11CAC81B0E01197D5
:1031500020E831E541E050E00E94496ADC01CB0102
:103160008C0D9D1DAE1DBF1DBC01CD01680D791DCF
:103170008A1D9B1DDF91CF911F910F91FF90EF90C2
:10318000DF90CF90BF90AF909F908F907F906F9087
:1031900008951F93CF93DF93CDB7DEB727970FB670
:1031A000F894DEBF0FBECDBF11E010938F1388E6F9
:1031B0008093B0131092660E1092650E60E089E65F
:1031C0009EE00E94264081E00E94084C882319F06E
:1031D0001092DD11BCC01093DD118091640E81113D
:1031E000FCCF81E08093640E8093630E9FEF9093F9
:1031F0008E1310928D1396E090938C1380936B1323
:1032000080916B13806D80936B138091620E81307F
:1032100061F41092620E80916B138093BB008091D9
:10322000BC0083FDF8CF85EC01C085EE8093BC0027
:103230008091640E8130E1F380918D13873018F412
:1032400080918D1301C087E0ACE6B3E12DEB31E155
:10325000F9019E2F921B981718F49D919193F9CF25
:103260001092680E8093670E873008F470C089E66C
:103270009EE00E94DA3F182F8695869586958E707F
:10328000982F990F990F890F912F9F70890F89831C
:1032900089E69EE00E94DA3F282F22952F70982F12
:1032A0009F708AE0289F900D11249A8389E69EE002
:1032B0000E94DA3F982F282F26952695269526706E
:1032C000822F880F880F280F9F70920F9B8389E6AB
:1032D0009EE00E94DA3F282F22952F70982F9F7032
:1032E0008AE0289F900D11249C8389E69EE00E942D
:1032F000DA3F282F22952F70982F9F708AE0289F01
:10330000900D11249D8389E69EE00E94DA3F282FCC
:1033100022952F70982F9F708AE0289F900D11247E
:103320009E8389E69EE00E94DA3F982F9F70925E0E
:10333000282F22952F708AE0289F900D11249F83BB
:1033400017FD05C0CE0101960E94091803C060E078
:1033500070E0CB0127960FB6F894DEBF0FBECDBF4D
:10336000DF91CF911F9108956F927F928F929F92DC
:10337000AF92BF92CF92DF92EF92FF920F931F9383
:10338000CF93DF93EA012CE3C22ED12CE12CF12C58
:10339000A70196010E94516A6883CA01B901A70179
:1033A00096010E94516A6983CA01B90128E130E09F
:1033B00040E050E00E94516A69017A016A83CA01C3
:1033C000B9016C5F7F4F8F4F9F4F27E030E040E0A7
:1033D00050E00E94516A6F5F6B83812C912C5401E5
:1033E00040E034E6632E712C00E911E0242F30E038
:1033F0002E54384FF901E370FF27309789F4C90143
:10340000B3010E94D861892B31F4C901B8010E942F
:10341000D861892B29F48EE691E0A0E0B0E004C0E9
:103420008DE691E0A0E0B0E0880E991EAA1EBB1EBA
:10343000D501C401AA27BB27C816D906EA06FB0690
:1034400010F04F5FD3CF4E83309799F4C90164E6F3
:1034500070E00E94D861892B39F4C90160E971E0FC
:103460000E94D861892B29F48EE691E0A0E0B0E0BB
:1034700004C08DE691E0A0E0B0E0881A990AAA0A9B
:10348000BB0AC818D908EA08FB08C90164E670E05D
:103490000E94D8618C01C90160E971E00E94D86185
:1034A000ACE0B2E020E0213041F4309751F4011556
:1034B000110529F4009729F402C04C9103C04DE195
:1034C00001C04CE150E060E070E0C416D506E606AD
:1034D000F70640F0C41AD50AE60AF70A2F5F1196DC
:1034E0002C3009F72F5F2D83C394CC82DF91CF91CD
:1034F0001F910F91FF90EF90DF90CF90BF90AF9012
:103500009F908F907F906F900895CF92DF92EF926F
:10351000FF92C0902F12D0903012E0903112F090B4
:1035200032126C157D058E059F0571F06B017C01D3
:103530004EEB5DE00E94B419C0922F12D09230126F
:10354000E0923112F0923212FF90EF90DF90CF9024
:1035500008950E94851A8091C40D90E08E54984F72
:1035600008950E947F170E94851A8091BF0D90E0F8
:1035700008950E94851A2091C00D222331F0822FD8
:1035800090E02D3020F00C9708958CE090E00895A5
:1035900023E0829FC0011124A5E2B2E120E030E0E7
:1035A000F901E80FF91FE45CF94FE491ED932F5F07
:1035B0003F4F23303105A1F71092281285E292E1A6
:1035C00008951F920F920FB60F9211240BB60F920F
:1035D0002F933F934F935F936F937F938F939F931B
:1035E000AF93BF93EF93FF938091B900887F8036AC
:1035F00009F49CC068F5883209F45BC090F480310E
:1036000009F454C038F4882309F4F6C0883009F46A
:103610004DC0F6C0883109F44CC0803209F45DC059
:10362000EFC0803409F468C048F4803309F455C011
:10363000883309F0E5C080938E13D8C0803509F433
:103640004FC0883509F45DC0883409F0D9C0D6C0B0
:10365000883909F4C7C0A8F4883709F467C038F47A
:10366000883609F463C0803709F460C0C9C088385F
:1036700009F4B8C0803909F45FC0803809F0C0C0CF
:103680005BC0803B09F486C038F4803A09F466C018
:10369000883A09F47FC0B4C0803C09F4A7C0883CD4
:1036A00009F4A4C0883B09F48AC0AAC080916B13B6
:1036B00010C090918D1380918C13981770F5E09144
:1036C0008D1381E08E0F80938D13F0E0E459FC4E52
:1036D00080818093BB0085EC86C080938E138EC062
:1036E000E0918D1381E08E0F80938D138091BB004C
:1036F000F0E0E459FC4E808390918D1380918C13FF
:103700006EC0E0918D1381E08E0F80938D138091B8
:10371000BB00F0E0E459FC4E80838091630E811180
:103720006DC081E08093620E84EA61C083E0809383
:10373000640E10922412CFCF80912412803208F0B0
:1037400051C0E091241281E08E0F80932412809169
:10375000BB00F0E0EC5FFD4E8083BDCF85EC809335
:10376000BC001092640E80912412803230F4E091FB
:103770002412F0E0EC5FFD4E10826091241270E0A4
:10378000E0910212F091031284E092E10995109207
:10379000241236C084E08093640E109201121092BD
:1037A0000012E091FE11F091FF1109958091001235
:1037B000811105C081E0809300121092DE11E0912A
:1037C000011281E08E0F80930112F0E0E252FE4E72
:1037D00080818093BB009091011280910012981714
:1037E00008F479CF85E88093BC000AC085EC80930B
:1037F000BC001092640E04C010928E130E949915A2
:10380000FF91EF91BF91AF919F918F917F916F91B8
:103810005F914F913F912F910F900BBE0F900FBE74
:103820000F901F90189540910012262F30E0240F22
:10383000311D21323105DCF42091640E2430C9F4AD
:10384000FC0180E090E0861758F43091001221913D
:10385000DC01A252BE4EA30FB11D2C930196F3CFF3
:1038600080910012680F6093001280E0089581E05B
:10387000089582E00895662351F05C98962F98236E
:1038800011F05E9A01C05E985C9A6695F4CF089537
:103890005F9A5F9808951F93CF93DF93EC0197FF92
:1038A00002C05D9803C05D9A892B59F40E94481CA0
:1038B0000E94481C0E94481CDF91CF911F910C94DC
:1038C000481C0E94481C0E94481C0E94481C0E94E0
:1038D000481C5D980E94481C5D9A11E0812F90E081
:1038E0008C179D0724F40E94481C1F5FF7CFDF91BF
:1038F000CF911F9108951F93CF93DF931F92CDB760
:10390000DEB7162F90E049830E944B1C64E085E0EF
:103910000E943B1C60E4812F0E943B1C68E04981AF
:10392000842F0E943B1C80E090E00F90DF91CF91AC
:103930001F910C944B1CCF93DF93EC010E945832E3
:1039400080915511882321F08BE491E10E946B4016
:10395000CE010E94F813811114C064E170E080E090
:1039600090E00E94B93CCE010E94F813811109C079
:103970008CE590E10E945540CE010E9419110E94F1
:103980004D2D0E944212811106C080E790E1DF9127
:10399000CF910C94654080912D0980935A11DF914D
:1039A000CF910C949113CF93DF9300D0CDB7DEB7B6
:1039B0000FB6F894A89520916000286120936000CC
:1039C000109260000FBEA89589839A830E94583296
:1039D00089819A810E949B1C809155118111FCCF95
:1039E00099E288E10FB6F894A895809360000FBE25
:1039F000909360000F900F90DF91CF910895CF9337
:103A0000DF93C82FD0E0FE01E25AF64F808181118A
:103A10000AC080916009811123C0DE01A25FBE4F00
:103A20009C919A30F0F4DE01A35BBC4E81E08C9354
:103A30001082FE01E25FFE4F8AE0808381ED93E019
:103A40000E94D31CFE01E550F74F8081C45FDE4F1A
:103A5000863018F487E0888301C0188281E001C0B5
:103A600080E0DF91CF910895CF92DF92EF92FF92A5
:103A70000F931F93CF93DF93C82FD0E08E01025A8C
:103A8000164FF8018081882399F10E94B11A2AE02B
:103A9000C22ED12CB6010E94D8619E01225F3E4FFA
:103AA0007901892B11F489E006C00E94B11AB60190
:103AB0000E94D8618150F7018083F8011082C35BB6
:103AC000DC4E81E088838BE491E10E946B40188298
:103AD00010925D0968EE73E080E090E0DF91CF9195
:103AE0001F910F91FF90EF90DF90CF900C94B93C15
:103AF000DF91CF911F910F91FF90EF90DF90CF90CA
:103B00000895CF93DF93C82FD0E0FE01EF5FF64F0B
:103B1000808187FF2FC02091BC1330E0FE01E1506F
:103B2000F74F808190E001962817390719F50E9418
:103B3000B11AFE01E350F74F208130E0821793075E
:103B4000C9F4FE01E25AF64F1082FE01E35BFC4E1F
:103B50001082FE01E550F74F8081FE01E45FFE4FC9
:103B6000863018F487E0808301C01082C25FDE4F88
:103B70008AE08883DF91CF910895CF93C62F90E09C
:103B80000E944B1C64E084E00E943B1C60E88C2F88
:103B90000E943B1C61E080E00E943B1C80E090E0C2
:103BA000CF910C944B1CEF92FF921F93CF93DF9316
:103BB00000D000D01F92CDB7DEB795E0E8E1F2E08B
:103BC000DE01119601900D929A95E1F7863008F08A
:103BD00085E011E07E01E80EF11CF701608160567E
:103BE000812F0E94BD1D1F5F1530B9F70F900F90F8
:103BF0000F900F900F90DF91CF911F91FF90EF905A
:103C00000895CF9387E392E144E0480F20E030E04D
:103C1000FC01E20FF31F10822C5F3F4F211551E092
:103C20003507B1F701964813F1CFC0E040E06C2FA3
:103C300081E00E947B1C40E06C2F82E00E947B1C94
:103C400040E06C2F83E00E947B1C40E06C2F84E0FE
:103C50000E947B1CCF5FC03649F7CF910895CF9368
:103C600080E00E94341D81E00E94341D8091600933
:103C7000882309F400C10E94F33C609358097093B3
:103C8000590980935A0990935B0982E00E94552854
:103C900080913B09833099F038F4813061F08230B3
:103CA00009F0E7C081E008C0843009F47DC08530A8
:103CB00009F4A2C0DEC080E00E947832DAC00E941F
:103CC000011E0E94022E1092440991E09093460931
:103CD00010924309809133098F5F873018F48093E5
:103CE000330902C090933309C0913309C330A1F165
:103CF00068F4C130E1F0C23009F0BBC01092400955
:103D000081E080933F0910923E093DC0C53009F41F
:103D10003FC090F1C63009F0ACC081E08093A809A3
:103D20001092450910923C090E942134A2C00E94C1
:103D3000011EC0930701C093460910924509C09324
:103D4000400910923F0910923E0910923D091092CD
:103D50003C091092A8098DC0109207010E94011E13
:103D600081E0809345091092400910923F0910921A
:103D70003E0980933D0909C01092400910923F0905
:103D800081E080933E0910923D0910923C0971C078
:103D90001092400910923F0910923E0910923D097D
:103DA00081E080933C0965C00E94011E1092440985
:103DB0001092460991E0909343098091340989302B
:103DC00079F480913A09811102C08AE00AC08F5FBC
:103DD000883018F480933A0906C090933A0903C0DA
:103DE0008F5F80933409809134098C3008F441C08E
:103DF00081E0809334093DC00E94011E0E94011E93
:103E000010924409109246091092430991E0909350
:103E1000420980913709813079F4909138099111E4
:103E200002C082E01BC09F5F9A3018F4909338095B
:103E300017C08093380914C0823079F48091390911
:103E4000811102C083E00AC08F5F893018F480932B
:103E5000390906C09093390903C08F5F80933709F1
:103E600080913709843018F081E0809337090E94EF
:103E7000011E10925209CF910895EF92FF921F9365
:103E8000CF93DF939B018032910508F02AC1603106
:103E9000710508F026C1542F507144FF70C0437063
:103EA000582F52955F706830710514F0E2E001C040
:103EB000E0E0E50F22FB992790F98F70880F890FBA
:103EC000237060E870E002C0759567952A95E2F767
:103ED00090E0F0E0423011F14330C1F1262F2095FF
:103EE000DC01AA0FBB1FAA0FBB1FAE0FBF1FA95C2F
:103EF000BD4E3C91413019F032233C9302C0632BFC
:103F00006C938096880F991F880F991FE80FF91FEF
:103F1000E95CFD4E808128232083E3C0DC01AA0FE9
:103F2000BB1FAA0FBB1FAE0FBF1FA95CBD4E262F24
:103F300020953C9123232C939C01205E3F4F220F20
:103F4000331F220F331FE20FF31F13C0DC01AA0F30
:103F5000BB1FAA0FBB1FAE0FBF1FA95CBD4E2C918C
:103F6000262B2C938096880F991F880F991FE80F96
:103F7000F91FE95CFD4E8081862B8083B2C04430FE
:103F800008F0AFC0BC01E4E075956795EA95E1F7EC
:103F9000283031050CF052E0560F8F709927880FAA
:103FA00022FB662760F9182F160F2370332788E04D
:103FB00090E07C0102C0F594E7942A95E2F7612F26
:103FC00070E0C52FD0E09B01220F331F220F331F5B
:103FD000F901EC0FFD1FE95CFD4E9081892F8E21C8
:103FE000A1E009F4A0E0FB01B096EE0FFF1FEE0F79
:103FF000FF1FEC0FFD1FE95CFD4E80818E2109F053
:1040000082E08A0F481709F46CC0413039F148F05A
:10401000423009F441C0433009F063C0492F4E29B2
:104020003EC0E094492F4E212C0F3D1FF901E95C61
:10403000FD4E4083FF24F394F50E612F8F2D0E94D7
:104040007B1C60E2610FFE0184E0689FE00DF11DC2
:104050001124E95CFD4E90814E2D1CC0492F4E2944
:104060002C0F3D1FF901E95CFD4E4083FF24F394C2
:10407000F50E612F8F2D0E947B1C60E2610FFE0107
:1040800084E0689FE00DF11D1124E95CFD4E4E2D8A
:104090004095908149231CC04E2D409549232C0FFB
:1040A0003D1FF901E95CFD4E4083FF24F394F50EBA
:1040B000612F8F2D0E947B1C60E2610FFE0184E066
:1040C000689FE00DF11D1124E95CFD4E40814E29F1
:1040D00040838F2DDF91CF911F91FF90EF900C9433
:1040E0007B1CDF91CF911F91FF90EF9008952F924D
:1040F0003F924F925F926F927F928F929F92AF9278
:10410000BF92CF92DF92EF92FF920F931F93CF93C4
:10411000DF93582E492E322EA895403214F040528B
:1041200001C040E03B015B0128E0A20EB11C38E079
:10413000439FE0011124C61BD70B85E0882E912CEC
:10414000832D8071282EF301EC0FFD1FEC59F84FE1
:10415000E491E52CF42CC12CD12C0E2F10E0C401DD
:104160008C199D09980102C0359527958A95E2F72B
:1041700020FF02C0432D01C0422DB301C7010E94A0
:104180003D1F3FEFC31AD30A8FEFE81AF80A26E063
:10419000C216D10421F73FEF631A730A6A147B0435
:1041A00091F6DF91CF911F910F91FF90EF90DF90EB
:1041B000CF90BF90AF909F908F907F906F905F90C7
:1041C0004F903F902F9008952F923F924F925F9281
:1041D0006F927F928F929F92AF92BF92CF92DF9217
:1041E000EF92FF920F931F93CF93DF93CDB7DEB77C
:1041F0002A970FB6F894DEBF0FBECDBFF82E192F49
:104200006B012A011901A895043051F40E94EB6654
:1042100023E030E040E050E00E941F6A01E0060F1A
:10422000F9861A8729853A853A8329837201C6015E
:10423000089698878F83102F1071F201019000204B
:10424000E9F73197CF0184199509970124193509A8
:104250002817390708F0B6C092E02916310471F02A
:10426000A3E02A16310409F451C0202FB1E02B1627
:10427000310409F091C0F701408190C0D7018C91C1
:10428000A895803214F0805201C080E03601B8E079
:104290008B9FC00111249C012C193D093C832B8369
:1042A000EB81FC81E60DF71DEC59F54FE491898413
:1042B0009A84A12CB12C2E2F30E03E832D8385E0F3
:1042C00090E08A199B092D813E8102C03595279582
:1042D0008A95E2F720FF02C0402F01C0412FB301B1
:1042E000C4010E943D1F3FEFA31AB30A8FEF881A43
:1042F000980A96E0A916B10411F7AFEF6A1A7A0A84
:10430000EF81F8856E167F0659F64DC0D7018C9166
:1043100080528F3508F080E05601B8E08B9FC001D5
:1043200011249C012C193D093C832B83EB81FC81DA
:10433000EA0DFB1DEC59F24FE49169807A80812CE3
:10434000912C2E2F30E03E832D8383E090E088195E
:1043500099092D813E8102C0359527958A95E2F70E
:1043600020FF02C0402F01C0412FB501C3010E94B0
:104370003D1F3FEF831A930A8FEF681A780A94E083
:104380008916910411F7AFEFAA1ABA0AEF81F885DE
:10439000AE16BF0659F607C0D7014C91B601898504
:1043A0009A850E947720BFEFEB1AFB0AE985FA8510
:1043B0003696FA87E98729813A812C5F3F4F3A8305
:1043C00029833BCF2A960FB6F894DEBF0FBECDBF30
:1043D000DF91CF911F910F91FF90EF90DF90CF90E1
:1043E000BF90AF909F908F907F906F905F904F9015
:1043F0003F902F9008950F93CF9380915D09811185
:10440000E7C00E94FF1C811170C081E00E94FF1C68
:1044100081116BC00E94F33C609358097093590955
:1044200080935A0990935B090E94F33C6093A90919
:104430007093AA098093AB099093AC09C1E0C09333
:1044400060090E94022E10924409109246091092AF
:10445000450980913B098F5F863008F4B6C0C09350
:104460003B0982E00E945528E1E3F9E0119289E0DE
:10447000EB33F807D9F780913B09833009F44AC040
:1044800008F041C08130A1F584ED90E10E946540C3
:104490001092070110924309109242090E94011ED6
:1044A000E0913B0984E0E89FF0011124E75EFD4FB5
:1044B0004081518103E021E030E060E070E087E07E
:1044C00090E00E94E420E0913B0984E0E89FF00145
:1044D0001124E75EFD4F4281538121E030E068E026
:1044E00070E080E090E00E94E4201092510970C0DA
:1044F0008230D9F780EC90E10E946540109207016C
:1045000010924309CBCF843041F0853071F780E8B9
:1045100090E12FC089EA90E12CC085E990E10E94EA
:104520006540109207010E94011EE0913B0984E062
:10453000E89FF0011124E75EFD4F4081518103E0C7
:1045400021E030E060E070E087E090E00E94E4204D
:10455000E0913B0984E0E89FF0011124E75EFD4F04
:104560004281538121E030E068E070E081E090E03A
:10457000BACF0E94654010920701109243090E9431
:10458000011EE0913B0984E0E89FF0011124E75E01
:10459000FD4F4081518103E021E030E060E070E0B8
:1045A00083E090E00E94E420E0913B0984E0E89FF2
:1045B000F0011124E75EFD4F4281538121E030E09C
:1045C00068E070E083E090E08ECF80933B0949CFB4
:1045D000CF910F9108952F923F924F925F926F92D9
:1045E0007F928F929F92AF92BF92CF92DF92EF9283
:1045F000FF920F931F93CF93DF93CDB7DEB7A797AB
:104600000FB6F894DEBF0FBECDBFF82E062FE42EF6
:10461000442309F4F1C01091F5088091B1109091F4
:10462000B2100E948D1640E06CEC8091B110909118
:10463000B2100E94DE154091AC1064E48091B1107C
:104640009091B2100E94DE158091AE108823E9F09F
:104650008091AD108A3049F08B3061F0893079F467
:104660006EE570E080E090E00EC06CEB70E080E002
:1046700090E009C067E771E080E090E004C06EEE72
:1046800072E080E090E00E94B93CBE016F5F7F4F16
:104690008FE099E00E945815882309F48AC08A8126
:1046A00090E0982F88272981822B20910F092232B0
:1046B000B9F12832A9F1203109F081C0D884BC01B8
:1046C00075956795072E000C880B990B0E94CF6893
:1046D00020E030E040E85EE30E9433624B015C0181
:1046E0008D2D90E02F81821B9109BC01990F880BC1
:1046F000990B0E94CF682B013C016D2D70E080E08A
:1047000090E00E94CD689B01AC01C301B2010E9400
:10471000A0629B01AC01C501B4010E94346236C0A5
:104720002D812F33B1F1A0F42F3109F048C0BC0125
:1047300033E0759567953A95E1F7072E000C880BE5
:10474000990B0E94CF6820E030E040E05FE31CC09E
:104750002F3569F02F3799F5BC01990F880B990B0C
:104760000E94CF6820E030E040E85DE30DC0BC016E
:1047700075956795072E000C880B990B0E94CF68E2
:1047800020E030E040E05EE30E942E694B015C01D6
:1047900016C0BC017595679575956795072E000C39
:1047A000880B990B0E94CF6820E030E040E85EE380
:1047B000EBCF812C912C9EEFA92E92ECB92E20E00C
:1047C00030E040E05FE3C501B4010E9434620E9422
:1047D000126370933A1360933913072E000C880B01
:1047E000990B0E94CF681B012C016DE074E0CE0193
:1047F00081960E94756318C08091BB13882309F4C9
:10480000A9C06091080170910901072E000C880B66
:10481000990B0E94CF681B012C0160E174E0CE016E
:1048200081960E94756310E020E030E048EC52E48D
:10483000C201B1010E9448639E012F5F3F4F690191
:10484000181654F020E030E048E452ECC201B10107
:104850000E94C86887FF25C0002321F084E194E00E
:104860000E949B1CCE0181969F938F938DE194E0D3
:104870009F938F931F9280E28F93DF92CF920E943B
:104880008A638F2D0E94DA4A45E050E062E0C6015B
:104890000E942F10182F0FB6F894DEBF0FBECDBFA9
:1048A00096C0612E712C20E030E040E05FE3C20151
:1048B000B1010E9434620E9412635B01A618B7081E
:1048C00026E636E646EE5FE3C201B1010E942E699C
:1048D00020E030E040E052E40E94346220E030E02A
:1048E00040E05FE30E9434620E9412634B0186182D
:1048F00097088F2D0E94DA4A2091F70801112CC0E9
:10490000CE018196222339F09F928F929F938F93AD
:1049100082E394E006C0BF92AF929F938F938FE3A0
:1049200094E09F938F931F9280E28F93DF92CF92B8
:104930000E948A630FB6F894DEBF0FBECDBF44E17C
:1049400050E06F2DC6010E942F10182F40C0C501E6
:104950000E943E4711E03BC02223B1F09F928F920C
:104960008AE394E09F938F931F9280E28F93DF926C
:10497000CF920E948A630FB6F894DEBF0FBECDBF00
:1049800080E1682E712C05C0BF92AF9287E494E05D
:10499000E9CF0F2D21E030E0A601B30185E090E0E2
:1049A0000E94E42069E170E080E090E00E94B93C60
:1049B00091E0691A710827E06216710451F71091AD
:1049C000F7086E2D112319F2C4010E943E47812F72
:1049D000A7960FB6F894DEBF0FBECDBFDF91CF9183
:1049E0001F910F91FF90EF90DF90CF90BF90AF900D
:1049F0009F908F907F906F905F904F903F902F90FF
:104A00000895CF92DF92EF92FF920F931F93CF936F
:104A1000DF93CDB7DEB7A1970FB6F894DEBF0FBE18
:104A2000CDBFE0910B018E2F90E0FC013197E73074
:104A3000F10508F0F7C2E459FF4F8091F6080C9495
:104A4000EC6186FFCFC00E94011E81E080930701C8
:104A500010924509809161090E94A7458CE494E079
:104A60000E94D31C0E947F170E946C110E94851A1D
:104A70008091C00D8093BC139091BD138E010F5F88
:104A80001F4F992341F00E947F170E946C110E94D2
:104A9000B91A9F930FC0853160F088E594E00E94B9
:104AA000D31C8091BC136AE00E94B8611F929F934F
:104AB00002C01F928F938EE795E09F938F931F9272
:104AC00089E08F931F930F930E948A63C8010E940D
:104AD000D31C0FB6F894DEBF0FBECDBF0E94B11A33
:104AE00044970CF50E94B11A892B49F48091BD13AB
:104AF000811160C08FE594E00E94D31C5BC00E94CE
:104B0000B11A2AE030E0B9010E94D861CB01B901A5
:104B10000E94D861892B21F487E694E00E94D31C7F
:104B20000E94B11A32C00E94B11A2AE030E0B901E5
:104B30000E94D861CB01B9010E94D86180933713DC
:104B4000833069F028F4823089F488E594E00CC061
:104B5000843041F0853051F48CE794E005C08EE656
:104B600094E002C085E794E00E94D31C0E94B11A31
:104B70005AE0E52EF12CB7010E94D861892BD1F0C3
:104B80000E94B11AB7010E94D8619F938F938EE75C
:104B900095E09F938F931F9289E08F931F930F93BC
:104BA0000E948A63C8010E94D31C0FB6F894DEBF2E
:104BB0000FBECDBF8091BD13882309F43BC20E9474
:104BC0007F170E946C110E94851A8091C00D90E0A1
:104BD0000C971CF483E894E002C08AE894E00E94F9
:104BE000D31C28C292E090930B0185FF0EC181E097
:104BF00080934509109207010E94011E809161096E
:104C00009091450991110E944D3181E994E00E94F3
:104C1000D31C81E594E00E94D31C8BE994E00E94B0
:104C200003120E947F170E946C110E94851AE09166
:104C3000C10D8E2F90E0FC0131978E01065E1F4F53
:104C4000E730F105D8F4ED58FF4F0C94EC6165EABC
:104C500074E011C069EA74E00EC06DEA74E00BC044
:104C600061EB74E008C065EB74E005C069EB74E0CB
:104C700002C06DEB74E0C8010E9475631F930F932F
:104C800031ECE32E34E0F32EFF92EF921F924AE0D4
:104C9000D42EDF928E010F5F1F4F1F930F930E9440
:104CA0008A63C8010E94D31C0E947F170E946C1166
:104CB0000E94851A8091C30D0E94C81A9F938F93FA
:104CC000FF92EF921F92DF921F930F930E948A63CD
:104CD000C8010E94D31C0E947F170E946C110E9481
:104CE000851A8091C20D90E00FB6F894DEBF0FBE1A
:104CF000CDBF44978CF40E947F170E946C110E94D4
:104D0000851A8091C20D1F928F9388EC94E09F9337
:104D10008F931F92DF9245C00E947F170E946C11F3
:104D20000E94851A8091C20D90E02AE030E0B9011E
:104D30000E94D861CB01B9010E94D86180933813D9
:104D4000823029F0833039F48EE694E002C088E5A1
:104D500094E00E94D31C0E947F170E946C110E9455
:104D6000851A8091C20D90E02AE0E22EF12CB70165
:104D70000E94D861892B09F10E947F170E946C1153
:104D80000E94851A8091C20D90E0B7010E94D861FF
:104D90009F938F9388EC94E09F938F931F928AE068
:104DA0008F931F930F930E948A63C8010E94D31CA4
:104DB0000FB6F894DEBF0FBECDBF8AE195E00E942A
:104DC000D31C81ED94E00E94D31C0E947F170E94A7
:104DD0006C110E94A91A64E670E00E94D8619F934A
:104DE0008F938EE795E09F938F931F928AE08F9326
:104DF0001F930F930E948A63C8010E94D31C0FB6B1
:104E0000F894DEBF0FBECDBF15C190910B019F5F1F
:104E100090930B0184FF0BC010924509109207017B
:104E20000E94011E83E00E94DA4A41E011C0909185
:104E30000B019F5F90930B0182FF0FC010924509F9
:104E4000109207010E94011E83E00E94DA4A40E0AE
:104E500061E083E00E94EB22EDC090910B019F5F27
:104E600090930B0190910B019F5F90930B0181FF39
:104E7000A2C00E94011E10914C09E12EF12C83E08A
:104E80000E94DA4AEF2861F484E194E00E949B1CBE
:104E900045E050E062E082E093E00E942F10CAC03B
:104EA0001F921F938AED94E09F938F931F9289E145
:104EB0008F939E012F5F3F4F69013F932F930E9475
:104EC0008A630FB6F894DEBF0FBECDBF90E1E92E26
:104ED000F12C03E021E030E0A601B70185E090E08D
:104EE0000E94E42069E170E080E090E00E94B93C1B
:104EF00091E0E91AF10827E0E216F10451F7D090A9
:104F00004C09ED2CF12C8FED94E00E94D31C8CEE1B
:104F100094E00E94D31C81E594E00E94D31C8E0192
:104F2000065E1F4F34E1E316F10454F41F92DF9242
:104F30008EE795E09F938F931F9288E08F932CC00C
:104F40002AE030E0C701B9010E94D8617C01CB01A1
:104F5000B9010E94D8619F938F9388EF94E09F934B
:104F60008F931F9288E0D82EDF921F930F930E9499
:104F70008A63C8010E94D31C0FB6F894DEBF0FBE2F
:104F8000CDBFE114F104A1F0FF92EF928EE795E01E
:104F90009F938F931F92DF921F930F930E948A63B8
:104FA000C8010E94D31C0FB6F894DEBF0FBECDBF60
:104FB00080E095E014CE90910B019F5F90930B01E0
:104FC00083FF30C08091010987FD05C080910209EF
:104FD00087FD16C027C0109245091092070111E005
:104FE000109344090E94011E10933B0984E08093B2
:104FF0003109809161090E94292980E00E94D047EF
:105000008091020987FF16C082E080933B0984E00B
:1050100080933209809161090E94292981E00E94D0
:10502000D04708C0109258091092590910925A0995
:1050300010925B09A1960FB6F894DEBF0FBECDBFEC
:10504000DF91CF911F910F91FF90EF90DF90CF9064
:105050000895CF93DF93C82FD0E0FE01E150F74FC2
:10506000DE01A15EBE4F8C91608190E00E945432BF
:105070006FE070E080E090E00E94B93CFE01E350F8
:10508000F74FDE01A35EBE4F8C91608190E00E94DD
:1050900054326FE070E080E090E00E94B93CC15D66
:1050A000D64F1882DF91CF910895CF939091000150
:1050B0009923D1F0C82F0E945832C23069F028F4E9
:1050C000C13091F48CE095E00CC0C33041F0C430A5
:1050D00059F484E194E005C086E195E002C080E2E5
:1050E00095E0CF910C949B1CCF9108950F931F9343
:1050F00080915D09811105C080915309882309F4CD
:10510000A5C09091600980915E09911110C088231B
:1051100011F080E005C080915F09882369F081E08B
:105120000E94341D10925309109256098FC0882393
:1051300019F081E080934D1380915F09882319F065
:1051400081E080934E1381E080935D099091560930
:105150009923D1F1909153099330B9F410924409F5
:1051600080930B0180910B01873030F40E94012560
:1051700080910B018F5FF4CF10925809109259095A
:1051800010925A0910925B0911C0923099F4109252
:10519000440990910B01983010F080930B010E940C
:1051A000012580910B018F5F80930B0110925309B1
:1051B000109256090E94F33C609358097093590964
:1051C00080935A0990935B098091580990915909ED
:1051D000A0915A09B0915B09892B8A2B8B2BA9F0DE
:1051E0000E94F33C009158091091590920915A09E5
:1051F00030915B09DC01CB01801B910BA20BB30B3F
:1052000088389341A105B10508F180915D09882393
:10521000E9F088EE90E10E9465400E94011E109224
:105220005D0981E0809307011092450980930B018D
:1052300010924809109241091092440910923B09BA
:105240001092310910923209109253091F910F9157
:105250000895AF92BF92CF92DF92EF92FF920F9399
:105260001F93CF93DF93CDB7DEB72B970FB6F8948C
:10527000DEBF0FBECDBF90914409992309F4A1C2AE
:10528000182F809141098823F1F10E94F33CC090CE
:105290004913D0904A13E0904B13F0904C13DC016B
:1052A000CB018C199D09AE09BF09853F9140A1052D
:1052B000B10568F10E94F33C6093491370934A135F
:1052C00080934B1390934C1380914313882359F090
:1052D00080914813811103C01093481302C01092AB
:1052E000481310933C1380914213882381F08091DE
:1052F0003C13811103C010933C1302C010923C1365
:105300001093481304C01093481310933C13EE24D9
:10531000E394F12C80913B09813011F4E12CF12CC4
:10532000C7018F5C964F6C01DC018C91833009F4CE
:10533000B3C030F4813099F1823009F465C041C2C4
:10534000863008F473C1863009F03BC2012F21E09A
:1053500030E040E050E060E070E081E090E00E94EA
:10536000E420F701E550F74F80811F928F9383E788
:1053700095E09F938F931F928BE08F93CE010196C0
:105380007C019F938F930E948A630091481321E0D0
:1053900030E0A70168E070E080E090E00BC2C70158
:1053A00001969F938F938AE295E09F938F931F922C
:1053B0008BE08F93FE0131966F01FF93EF930E9474
:1053C0008A63012F21E030E0A60168E070E081E00F
:1053D00090E00E94E420F701EF5FF64F0FB6F894DB
:1053E000DEBF0FBECDBF80810091481321E030E0C9
:1053F00087FF03C04AEA54E002C041E355E060E0A1
:1054000070E08AE090E00FC1C70101969F938F93EF
:105410008AE295E09F938F931F928BE08F93CE014A
:1054200001965C019F938F930E948A63012F21E074
:1054300030E0A50168E070E081E090E00E94E420A7
:105440000FB6F894DEBF0FBECDBFF701EF5FF64F8A
:1054500080810091481321E030E08C3F71F08F3F54
:1054600049F0811111C045E355E060E070E08AE049
:1054700090E010C049E355E009C04FE355E060E01B
:1054800070E081E090E006C045E455E060E070E047
:1054900080E090E00E94E420C70101969F938F93E3
:1054A0008AE295E09F938F931F928BE08F93FE018A
:1054B00031965F01FF93EF930E948A63012F21E0F1
:1054C00030E0A50168E070E081E090E00E94E42017
:1054D0000FB6F894DEBF0FBECDBFD6011496EC9187
:1054E0008E2F90E0FC013197E830F10508F069C19A
:1054F000E658FF4F012F21E030E00C94EC614BE4C3
:1055000055E060E070E080E090E00E94E420F70168
:10551000EF5FF64F80810091481321E030E086FF75
:1055200075C071C040E555E060E070E080E090E05B
:105530000E94E420F701EF5FF64F8081009148134D
:1055400021E030E085FF62C05EC045E555E060E0E7
:1055500070E080E090E00E94E420F701EF5FF64FFA
:1055600080810091481321E030E084FF4FC04BC0A0
:105570004AE555E060E070E080E090E00E94E420C1
:10558000F701EF5FF64F80810091481321E030E092
:1055900083FF3CC038C04FE555E060E070E080E03C
:1055A00090E00E94E420F701EF5FF64F80810091C8
:1055B000481321E030E082FF29C025C044E655E0D1
:1055C00060E070E080E090E00E94E420F701EF5F8F
:1055D000F64F80810091481321E030E081FF16C032
:1055E00012C049E655E060E070E080E090E00E9483
:1055F000E420F701EF5FF64F80810091481321E02E
:1056000030E080FF03C043E455E002C04BEA54E0C1
:1056100060E070E089E190E006C04EE655E060E0B1
:1056200070E080E090E00E94E420CBC0C7010196CA
:105630009F938F938AE295E09F938F931F928BE0C5
:10564000B82EBF92FE0131966F01FF93EF930E9437
:105650008A63012F21E030E0A60168E070E081E07C
:1056600090E00E94E4200FB6F894DEBF0FBECDBFDD
:105670008091BD13F701E150F74F882309F458C01A
:105680008081811104C08CE08093BC130BC08D30ED
:1056900028F48093BC138C3040F404C08C50809369
:1056A000BC1303C04091481301C040E061E070E0CA
:1056B00080E090E00E943D1F8091BC131F928F9369
:1056C00084E196E09F938F931F928BE08F93DF92FC
:1056D000CF920E948A638091BC132AE0622F0E94BD
:1056E000B8610E94B8610FB6F894DEBF0FBECDBF9F
:1056F0000091481321E030E0911112C045E953E0D8
:1057000060E070E081E090E00E94E42000914813A6
:1057100021E030E0A60160E070E087E090E005C0A5
:10572000A60160E070E081E090E00E94E4201DC0EE
:1057300080811F928F938DE698E09F938F931F92A5
:10574000BF92DF92CF920E948A630091481321E0BA
:1057500030E0A60160E070E081E090E00E94E4208B
:105760000FB6F894DEBF0FBECDBFF701E350F74F81
:1057700080811F928F938DE698E09F938F931F9265
:105780008BE08F93DF92CF920E948A63012F21E0FA
:1057900030E048E555E060E070E08CE090E00E9489
:1057A000E42000913C1321E030E0A60160E070E0CD
:1057B00082E190E00E94E4200FB6F894DEBF0FBEB5
:1057C000CDBF2B960FB6F894DEBF0FBECDBFDF91D5
:1057D000CF911F910F91FF90EF90DF90CF90BF90EE
:1057E000AF900895CF92DF92EF92FF920F931F93A5
:1057F000CF93DF93CDB7DEB72B970FB6F894DEBF0C
:105800000FBECDBF082F10E0F801E35BFC4E108205
:10581000F801E25AF64F1082F801E25FFE4F8AE08B
:105820008083C8018550974F7C01DC018C918630C4
:1058300028F487E0F801E45FFE4F8083F801EF5C15
:10584000F64F6F0180818150833018F481E00E940F
:105850005528D6018C91833009F44FC028F481304B
:1058600061F0823009F10AC1853009F4A6C008F45C
:1058700089C0863009F4BEC001C1F801EF5FF64F60
:105880007F0180818058808365E070E080E090E057
:105890000E94B93CF801EF5DFE4F8081D7016C9109
:1058A00090E00E94543226C0F801EF5FF64F8081ED
:1058B000D801A750B74F8C3F21F08F3F39F48CEFC0
:1058C00006C08EEF808381E08C9303C08FEF8083CE
:1058D0001C92D801AF5DBE4F8C91608190E00E9418
:1058E000543265E070E080E090E00E94B93C81E0D5
:1058F0000E9455280E94011EC1C098012B5C364FA2
:10590000D901EC918E2F90E0FC013197C8018F5F97
:10591000964F7C01E830F10558F5EE57FF4F0C9497
:10592000EC61DC019C9180E407C0FC01908180E285
:1059300011C0DC019C9180E189278C9319C0FC0186
:10594000908188E007C0DC019C9184E0F5CFFC01E8
:10595000908182E0892780830BC0DC019C9181E0EB
:10596000EBCFF901108284E0D6018C930E94011ED6
:10597000F801EF5DFE4F8081F701608190E00E94A9
:105980005432B5CFF801E15DF64F81E0808380911C
:105990005709F801E150F74F882319F080818150B1
:1059A00002C080818F5F808380818F3F11F487E107
:1059B0001AC0883108F462C01BC0F801E15DF64FDF
:1059C00081E0808380915709F801E350F74F8823E5
:1059D00019F08081815002C080818F5F8083808137
:1059E0008F3F19F48BE3808349C08C3308F446C0A1
:1059F000108244C080915709882329F0D7018C91E7
:105A000081508C9304C0F70180818F5F8083D70120
:105A10008C918F3F19F48AE08C9305C08B3018F07D
:105A200081E0F7018083D7018C911F928F938AE7E1
:105A300095E09F938F931F928BE08F93FE01319699
:105A40006F01FF93EF930E948A63C6010E949B1C23
:105A5000F801E55EFE4F8081D7016C9190E00E94D5
:105A6000543265E070E080E090E00E94B93C0E9412
:105A7000011E0FB6F894DEBF0FBECDBF2B960FB63A
:105A8000F894DEBF0FBECDBFDF91CF911F910F9174
:105A9000FF90EF90DF90CF90089598E088E10FB6E7
:105AA000F894A895809360000FBE90936000FFCF9C
:105AB000CF92DF92EF92FF928091600981119DC099
:105AC00080912E09811199C00E94F33CC0903E1331
:105AD000D0903F13E0904013F0904113DC01CB01D4
