:100000000C94D5080C9413240C94E8230C94BD2371
:100010000C94FF080C94FF080C94FF080C94FF0844
:100020000C94FF080C9455240C94FF080C94FF08C2
:100030000C94FF080C94C6380C9473380C94FF0889
:100040000C94FF080C94FF080C9473230C94FF0885
:100050000C9462220C9438220C94FF080C94FF0834
:100060000C94FF080C94FF080C941A1C0C94FF08C5
:100070000C94FF080C94FF080C94FF080C94FF08E4
:100080000C94FF080C94FF080C94FF081D132C130C
:100090005D137A139813A913BA13D813E9137814BC
:1000A0008914F813FC13111427143E1455146C14FE
:1000B000751456165C16781680168D1691169516C0
:1000C00099169D16A116B116B716BB16BF16CE16F9
:1000D000D216D616DA16EB16211F241F171F1B1F68
:1000E0003B1F3B1F281F2C1F321F361F0C2829289F
:1000F00072289C28CA28F92820296B297929822A64
:100100009F2A86299E29BB29EC29FA29222A512ACD
:100110006E2AAB357436553767377D3782372A38C4
:100120009E36A136A436A736AA36AD36B036AC44D4
:10013000BF44D244E544F8440B451E453A45BE460B
:10014000C246C646CC46D046D446DA46DE46C74707
:10015000E14729484E486D489248B148D648F5488D
:10016000654A4B4970499549BA49E5490A4A374AAF
:10017000654A556E61626C6520746F2066696E64B5
:10018000206164647265737320666F7220446576C3
:100190006963652030004F4646004F4E004453319E
:1001A0003842323020706172617369746520706FFB
:1001B0007765722069733A2000206465766963650B
:1001C000732E00466F756E6420004E6F2076616C52
:1001D00069642046415420706172746974696F6E5D
:1001E000210043616E2774206F70656E20726F6FFF
:1001F000742064697221004361726420696E6974BD
:100200002E206661696C6564210052544320686148
:100210007320736574207468652073797374656DD9
:100220002074696D6500556E61626C6520746F2085
:1002300073796E63207769746820746865205254FE
:10024000430045786974206D656E75005600426103
:1002500074746572793A00526563656976696E6790
:1002600020446174612E2E2E0052652D656E6162F0
:100270006C6520526164696F00000000000000009E
:1002800000000808080800080000361224000000DA
:10029000000000143E143E140000081E281C0A3CF6
:1002A0000000003234081626000000182418261E0C
:1002B00000001818100000000000081010101008AE
:1002C0000000100808080810000000082A082A0882
:1002D00000000008083E08080000000000001808A0
:1002E00010000000003E00000000000000000C0CA8
:1002F000000000020408102000001C262626261CF0
:1003000000000C1C0C0C0C1E00001C260C18303EAF
:1003100000003E061C06261C000026263E06060699
:1003200000003E303C06261C00001C203C26261CFB
:1003300000003E060C18181800001C261C26261C5F
:1003400000001C261E06261C0000000C0C000C0CD5
:100350000000000C0C000C04080000040810080445
:10036000000000003E003E000000001008040810DD
:1003700000001C220408000800001C262A2E201E53
:1003800000001C22223E222200003C223C22223C71
:1003900000001C222020221C00003C222222223CA1
:1003A00000003E203C20203E00003E203C2020203B
:1003B00000001C202026221E000022223E22222293
:1003C00000001C080808081C00003E020202221C53
:1003D0000000222438382422000020202020203E43
:1003E000000022362A222222000022322A2622223D
:1003F00000001C222222221C00003C223C20202043
:100400000000182424242C1A00003C223C22222222
:1004100000001E201C02221C00003E0808080808DC
:10042000000022222222221C000022222214140870
:1004300000002222222A2A14000022140808142272
:10044000000022221408080800003E040810203E84
:1004500000001C101010101C0000201008040200E6
:1004600000001C040404041C000008142200000006
:10047000000000000000003E000008040000000032
:100480000000001C021E223E000020203C22223CD4
:100490000000001C2020201C000002021E22221E40
:1004A0000000001C223E201C00000E10103C10100A
:1004B0000000001E223E02021C0020203C222222BC
:1004C000000008001808081C000008001E02022294
:1004D0001C00202024382422000018080808081CCA
:1004E000000000342A2A2A2A0000002C322222226C
:1004F0000000001C2222221C0000003C223C202084
:100500002000001C241C04040600002E30202020A3
:100510000000001E201C023C0000083E08080806DF
:10052000000000222222221E0000002222221408A3
:1005300000000022222A2A1400000022140814229B
:1005400000000022221E02041800003E0408103E93
:100550000000040808100808040008080808080833
:100560000000100808040808100000102A04000009
:100570000000102810000000000000000000000033
:1005800000000808080800080000361224000000D7
:10059000000000143E143E140000081E281C0A3CF3
:1005A0000000003234081626000000182418261E09
:1005B00000001818100000000000081010101008AB
:1005C0000000100808080810000000082A082A087F
:1005D00000000008083E080800000000000018089D
:1005E00010000000003E00000000000000000C0CA5
:1005F000000000020408102000000C121212120C5D
:100600000000040C0404040E00000C120204081E76
:1006100000001E020C02120C000012121E02020246
:1006200000001E101C02120C00000C101C12120CF8
:1006300000001E020408080800000C120C12120C24
:1006400000000C120E02120C0000000C0C000C0C2E
:100650000000000C0C000C04080000040810080442
:10066000000000003E003E000000001008040810DA
:1006700000001C220408000800001C262A2E201E50
:1006800000001C22223E222200003C223C22223C6E
:1006900000001C222020221C00003C222222223C9E
:1006A00000003E203C20203E00003E203C20202038
:1006B00000001C202026221E000022223E22222290
:1006C00000001C080808081C00003E020202221C50
:1006D0000000222438382422000020202020203E40
:1006E000000022362A222222000022322A2622223A
:1006F00000001C222222221C00003C223C20202040
:100700000000182424242C1A00003C223C2222221F
:1007100000001E201C02221C00003E0808080808D9
:10072000000022222222221C00002222221414086D
:1007300000002222222A2A1400002214080814226F
:10074000000022221408080800003E040810203E81
:1007500000001C101010101C0000201008040200E3
:1007600000001C040404041C000008142200000003
:10077000000000000000003E00000804000000002F
:100780000000001C021E223E000020203C22223CD1
:100790000000001C2020201C000002021E22221E3D
:1007A0000000001C223E201C00000E10103C101007
:1007B0000000001E223E02021C0020203C222222B9
:1007C000000008001808081C000008001E02022291
:1007D0001C00202024382422000018080808081CC7
:1007E000000000342A2A2A2A0000002C3222222269
:1007F0000000001C2222221C0000003C223C202081
:100800002000001C241C04040600002E30202020A0
:100810000000001E201C023C0000083E08080806DC
:10082000000000222222221E0000002222221408A0
:1008300000000022222A2A14000000221408142298
:1008400000000022221E02041800003E0408103E90
:100850000000040808100808040008080808080830
:100860000000100808040808100000102A04000006
:100870000000102810000000000000000000000030
:10088000000004040404000400000505000000004A
:100890000000000C0F0C0F0C000004060C06060CE8
:1008A0000400003234081626000000182418261E02
:1008B00000001818100000000000081010101008A8
:1008C0000000100808080810000000082A082A087C
:1008D00000000008083E080800000000000018089A
:1008E00010000000003E00000000000000000200B8
:1008F00000000002040810200000020505050200A7
:1009000000000206020207000000060102040700C0
:1009100000000701060106000000050507010100AF
:100920000000070407010600000003040705020099
:100930000000070102040400000007050705070086
:100940000000070507010600000000020002000089
:100950000000000606000602040000010204020175
:10096000000000000700070000000004020102046C
:100970000000060102040004000006090B0B080633
:100980000000020505070505000006050605050629
:100990000000020504040502000006050505050621
:1009A000000007040604040700000704060404040A
:1009B00000000304040505030000050507050505FF
:1009C0000000070202020207000007010101050200
:1009D00000000505060605050000040404040407DC
:1009E00000000507070505050000050705050505C5
:1009F00000000205050505020000060506040404C2
:100A000000000205050507030000060506050505AB
:100A100000000304020105020000070202020202B4
:100A2000000005050505050700000505050505028B
:100A3000000005050505070700000505020205057C
:100A40000000050505020202000007010204040778
:100A5000000006040404040600000404020101006E
:100A6000000003020202020300000205050000006C
:100A7000000000000000000700000201000000006C
:100A8000000000060107050700000404070505072C
:100A9000000000030404040300000101070505072A
:100AA0000000000204070403000003020207020220
:100AB0000000000305070101060004040705050501
:100AC0000000020006020207000001000701010504
:100AD00002000004050605050000060202020207E6
:100AE00000000006070705050000000605050505CE
:100AF00000000002050505020000000605060404CA
:100B000004000003050701010100000304040404BC
:100B100000000003040201060000020702020201B5
:100B20000000000505050503000000050505050298
:100B30000000000505050707000000050502050582
:100B40000000000505070101060000070102040777
:100B5000000001020204020201000202020202027B
:100B60000000040202010202040000040B01000064
:100B70000057726974696E67206E6577204677202A
:100B800076657273696F6E00436F756C646E27745F
:100B9000206F70656E2066696C6520004E6F742052
:100BA000612076616C696420574156004469737016
:100BB0006C6179204F7074696F6E73204D656E752E
:100BC00000446973706C61792053797374656D208A
:100BD0004D656E7500446973706C61792044617471
:100BE000652F54696D65204D656E7500446973709D
:100BF0006C617920416C726D2032204D656E7500FC
:100C0000446973706C617920416C726D2031204DA4
:100C1000656E75005363726F6C6C2054656D700067
:100C20005363726F6C6C2044617465005772697411
:100C3000696E6720496E697469616C2073657474AC
:100C4000696E677320746F20454550524F4D2121C6
:100C500021004572724A616E4665624D6172417053
:100C6000724D61794A756E4A756C4175675365704E
:100C70004F63744E6F7644656300005EBCE2613F73
:100C8000DD83C29C7E20A3FD1F419DC3217FFCA26A
:100C9000401E5F01E3BD3E6082DC237D9FC1421C9C
:100CA000FEA0E1BF5D0380DE3C62BEE0025CDF814E
:100CB000633D7C22C09E1D43A1FF4618FAA42779FC
:100CC0009BC584DA3866E5BB5907DB856739BAE42A
:100CD00006581947A5FB7826C49A653BD987045A5C
:100CE000B8E6A7F91B45C6987A24F8A6441A99C70E
:100CF000257B3A6486D85B05E7B98CD2306EEDB3BC
:100D0000510F4E10F2AC2F7193CD114FADF3702EE9
:100D1000CC92D38D6F31B2EC0E50AFF1134DCE901B
:100D2000722C6D33D18F0C52B0EE326C8ED0530DCD
:100D3000EFB1F0AE4C1291CF2D73CA947628ABF57B
:100D400017490856B4EA6937D58B5709EBB53668A9
:100D50008AD495CB2977F4AA4816E9B7550B88D6DB
:100D6000346A2B7597C94A14F6A8742AC896154B8D
:100D7000A9F7B6E80A54D7896B3500002100240092
:100D800027002A0000002200250028002B00000078
:100D900000010200090A0000000004030807000027
:100DA0000000000000000000000000000000457886
:100DB0006974696E6720514D656E75005261646992
:100DC0006F204F666621002C20000D0A53442049F5
:100DD0002F4F206572726F723A2000486967682051
:100DE0007261746520667261676D656E74656420FA
:100DF00066696C65210053616D706C652072617469
:100E00006520746F6F206869676821004D6F726597
:100E1000207468616E2031362062697473207065B9
:100E2000722073616D706C652100205761726E696C
:100E30006E672073746572656F2066696C6521004A
:100E40004E6F74206D6F6E6F2F73746572656F21B6
:100E500000436F6D7072657373696F6E206E6F748F
:100E600020737570706F72746564000E1F13131316
:100E700013131313131F0E060E1E06060606060690
:100E8000061F1F1E1F030303060C1818181F1F1E22
:100E90001F0303030E0E0303031F1E181818181B4D
:100EA0001F1F03030303031F1F1818181E1F03032C
:100EB000031F1E0E1F1818181E1F1313131F0E1FBB
:100EC0001F030303060C18181818180E1F1313130A
:100ED0000E0E1313131F0E0E1F1313131F0F0303F6
:100EE000031F0E0000000000000000000000001FB3
:100EF0001F1B1B1B1B1B1B1B1B1F1F0C0C0C0C0C81
:100F00000C0C0C0C0C0C0C1F1F0303031F1F1818D8
:100F1000181F1F1F1F0303031F1F0303031F1F1B94
:100F20001B1B1B1B1F1F03030303031F1F18181882
:100F30001F1F0303031F1F1F1F1818181F1F1B1B32
:100F40001B1F1F1F1F030303030303030303031FCD
:100F50001F1B1B1B1F1F1B1B1B1F1F1F1F1B1B1BC5
:100F60001F1F0303031F1F000000000000000000FC
:100F70000000000E1F1B1B1B1B1B1B1B1B1F0E023D
:100F8000060E060606060606061F1F0E1F030303AF
:100F9000060C1818181F1F0E1F0303030E0E030361
:100FA000031F0E030306060C0C1B1F030303031F82
:100FB0001F1818181E0F0303031F0E0E1F181818F2
:100FC0001E1F1B1B1B1F0E1F1F030303060C1818DD
:100FD0001818180E1F1B1B1B0E0E1B1B1B1F0E0EA3
:100FE0001F1B1B1B1F0F0303031F0E00000000002D
:100FF000000000000000001F11111111111111114A
:1010000011111F0404040404040404040404041F50
:10101000010101011F10101010101F1F010101011B
:101020001F01010101011F11111111111F01010106
:101030000101011F101010101F01010101011F1FEC
:10104000101010101F11111111111F1F01010101AA
:10105000010101010101011F111111111F111111D4
:1010600011111F1F111111111F01010101011F0099
:1010700000000000000000000000000E111111111E
:101080001111111111110E040C04040404040404C0
:1010900004041F0E110101010204081010101F0E9C
:1010A000110101010E01010101110E1111111111A6
:1010B0001F0101010101011F101010101E0101018B
:1010C00001110E0E111010101E11111111110E1F11
:1010D00001010101020408101010100E111111116C
:1010E0000E11111111110E0E111111110F0101012B
:1010F00001110E00000000000000000000000000D0
:10110000002000230026002900020202020202023F
:101110000204040404040404040303030303030398
:101120000301010101010101010102040810204035
:1011300080010204081020408001020408102040B1
:101140008001020408102040804E6F7420612076D8
:10115000616C69642057415600436F756C646E275B
:1011600074206F70656E2066696C6520004E414E7C
:10117000494E495459494E46CDCCCC3D0AD7233C23
:1011800017B7D13877CC2B329595E6241FB14F0A8B
:10119000000020410000C84200401C4620BCBE4C5C
:1011A000CA1B0E5AAEC59D74595F11241FBECFEFE6
:1011B000D0E4DEBFCDBF18E0A0E0B1E0ECECF4ED90
:1011C00000E00BBF02C007900D92AA3EB107D9F70D
:1011D00023E1AAEEB8E001C01D92A739B207E1F7FA
:1011E00018E0C5EDD8E004C02197FE010E94CE6151
:1011F000C43DD107C9F70E94F14D0C94646A0C9468
:101200000000662351F05C98962F982311F05E9AA7
:1012100001C05E985C9A6695F4CF08955F9A5F98D6
:1012200008951F93CF93DF93EC0197FF02C05D9861
:1012300003C05D9A892B59F40E940E090E940E0981
:101240000E940E09DF91CF911F910C940E090E940C
:101250000E090E940E090E940E090E940E095D9857
:101260000E940E095D9A11E0812F90E08C179D0776
:1012700024F40E940E091F5FF7CFDF91CF911F91D9
:1012800008951F93CF93DF931F92CDB7DEB7162F2C
:1012900090E049830E94110964E085E00E94010901
:1012A00060E4812F0E94010968E04981842F0E9437
:1012B000010980E090E00F90DF91CF911F910C9495
:1012C0001109CF93DF93EC010E94FD2B8091A612B0
:1012D000882321F08CE992E10E94621DCE010E94D8
:1012E0004B31811114C064E170E080E090E00E9415
:1012F0002D23CE010E944B31811109C088E89BE06B
:101300000E944C1DCE010E94F52E0E947F610E941A
:10131000952F811106C08CE99BE0DF91CF910C9451
:101320005C1D809113098093AB12DF91CF910C94D7
:10133000E430CF93DF9300D0CDB7DEB70FB6F8948B
:10134000A8952091600028612093600010926000B1
:101350000FBEA89589839A830E94FD2B89819A816B
:101360000E9461098091A6128111FCCF99E288E167
:101370000FB6F894A895809360000FBE909360001C
:101380000F900F90DF91CF910895CF93DF93C82FE7
:10139000D0E0FE01EC5BF64F808181110AC08091A4
:1013A0004609811123C0DE01A25FBE4F9C919A3095
:1013B000F0F4DE01A45EBC4E81E08C931082FE014D
:1013C000E25FFE4F8AE080838AEB93E00E949909F6
:1013D000FE01E25EFC4E8081C45FDE4F863018F471
:1013E00087E0888301C0188281E001C080E0DF913E
:1013F000CF910895CF92DF92EF92FF920F931F93B8
:10140000CF93DF93C82FD0E08E010C5B164FF8010D
:101410008081882399F10E94DB1B2AE0C22ED12C07
:10142000B6010E94BA619E01225F3E4F7901892B6D
:1014300011F489E006C00E94DB1BB6010E94BA616C
:101440008150F7018083F8011082C45EDC4E81E098
:1014500088838CE992E10E94621D188210924309F0
:1014600068EE73E080E090E0DF91CF911F910F91E3
:10147000FF90EF90DF90CF900C942D23DF91CF91D0
:101480001F910F91FF90EF90DF90CF900895CF9331
:10149000DF93C82FD0E0FE01E05EFC4E808187FF25
:1014A0002FC020918D1330E0FE01E65EFC4E80815E
:1014B00090E001962817390719F50E94DB1BFE0101
:1014C000E85EFC4E208130E082179307C9F4FE01EC
:1014D000EC5BF64F1082FE01E45EFC4E1082FE01D2
:1014E000E25EFC4E8081FE01E45FFE4F863018F420
:1014F00087E0808301C01082C25FDE4F8AE088836C
:10150000DF91CF910895CF9383E090E00E94FB2B71
:10151000C82F8093201381E090E00E94FB2B8093E2
:101520001A1382E090E00E94FB2B8093181387E04F
:1015300090E00E94FB2B80931E13CC0F8C2F90E029
:10154000959587958C37910519F41092230B06C059
:101550008F379105D1F381E08093230B8BE090E0EE
:101560000E94FB2BC82F8093211389E090E00E94FA
:10157000FB2B80931B138AE090E00E94FB2B80934F
:1015800019138CE090E00E94FB2B80931F13CC0F6B
:101590008C2F90E0959587958C37910519F08F37B2
:1015A000910519F41092240B03C081E08093240B61
:1015B00080E090E00E94FB2B91E0811101C090E05F
:1015C00090938E1384E090E00E94FB2B809314098B
:1015D00085E090E00E94FB2B9FEF980F933008F07E
:1015E00083E08093470988E090E00E94FB2B809382
:1015F000270B8DE090E00E94FB2B91E0811101C050
:1016000090E090930B018EE090E00E94FB2B91E024
:10161000811101C090E09093260B8FE090E00E9432
:10162000FB2B8093130980E190E00E94FB2B8093B9
:10163000310985E190E00E94FB2B8093300981E124
:1016400090E00E94FB2BC82F8093251382E190E04D
:101650000E94FB2B91E0811101C090E09093120950
:1016600084E190E00E94FB2B8093241386E190E0BC
:101670000E94FB2B91E0811101C090E090938C13AC
:1016800091110FC0C2FF05C094E08C2F8927809371
:1016900025139091251391FF04C082E08927809340
:1016A00025130E94A14C8C329140A1F081E79BE070
:1016B0000E945C1D6CE289E190E00E94F92B61E0E0
:1016C0008AE190E00E94F92B6FE070E080E090E00A
:1016D0000E942D2387E190E00E94FB2B91E0811175
:1016E00001C090E0909342098BE190E00E94FB2BB7
:1016F000809311098EE190E00E94FB2B80930F09EB
:101700008FE190E00E94FB2B80938D0A80E290E0B5
:101710000E94FB2B8093100981E290E00E94FB2B3A
:101720008093250B82E290E00E94FB2B91E08111D7
:1017300001C090E090930E09CF910895CF93C62FEA
:1017400090E00E94110964E084E00E94010960E8D1
:101750008C2F0E94010961E080E00E94010980E075
:1017600090E0CF910C941109EF92FF921F93CF93C9
:10177000DF9300D000D01F92CDB7DEB795E0E3E253
:10178000F1E0DE01119601900D929A95E1F7863015
:1017900008F085E011E07E01E80EF11CF7016081A0
:1017A0006056812F0E949E0B1F5F1530B9F70F9076
:1017B0000F900F900F900F90DF91CF911F91FF909E
:1017C000EF900895CF938DE899E044E0480F20E032
:1017D00030E0FC01E20FF31F10822C5F3F4F211518
:1017E00051E03507B1F701964813F1CFC0E040E072
:1017F0006C2F81E00E94410940E06C2F82E00E9442
:10180000410940E06C2F83E00E94410940E06C2FC9
:1018100084E00E944109CF5FC03649F7CF91089517
:10182000CF9380E00E94FA0981E00E94FA0980913A
:101830004609882309F400C10E94672360933E098A
:1018400070933F09809340099093410982E00E9480
:10185000C22C80912109833099F038F4813061F0F5
:10186000823009F0E7C081E008C0843009F47DC00F
:10187000853009F4A2C0DEC080E00E94212CDAC0CD
:101880000E94E20B0E946E3310922A0991E090931D
:101890002C0910922909809119098F5F873018F45B
:1018A0008093190902C090931909C0911909C33096
:1018B000A1F168F4C130E1F0C23009F0BBC0109270
:1018C000260981E080932509109224093DC0C53086
:1018D00009F43FC090F1C63009F0ACC081E08093BC
:1018E0008E0A10922B09109222090E94313EA2C04A
:1018F0000E94E20BC0930001C0932C0910922B09A7
:10190000C0932609109225091092240910922309E8
:101910001092220910928E0A8DC0109200010E942E
:10192000E20B81E080932B09109226091092250981
:10193000109224098093230909C01092260910925D
:10194000250981E08093240910922309109222092D
:1019500071C0109226091092250910922409109244
:10196000230981E08093220965C00E94E20B109256
:101970002A0910922C0991E09093290980911A0963
:10198000893079F480912009811102C08AE00AC06F
:101990008F5F883018F48093200906C09093200947
:1019A00003C08F5F80931A0980911A098C3008F464
:1019B00041C081E080931A093DC00E94E20B0E9461
:1019C000E20B10922A0910922C091092290991E039
:1019D0009093280980911D09813079F490911E0916
:1019E000911102C082E01BC09F5F9A3018F490935F
:1019F0001E0917C080931E0914C0823079F48091AB
:101A00001F09811102C083E00AC08F5F893018F47A
:101A100080931F0906C090931F0903C08F5F8093B6
:101A20001D0980911D09843018F081E080931D0903
:101A30000E94E20B10923809CF910895EF92FF9225
:101A40001F93CF93DF939B018032910508F02AC149
:101A50006031710508F026C1542F507144FF70C0E9
:101A60004370582F52955F706830710514F0E2E0B2
:101A700001C0E0E0E50F22FB992790F98F70880FF5
:101A8000890F237060E870E002C0759567952A950C
:101A9000E2F790E0F0E0423011F14330C1F1262F3F
:101AA0002095DC01AA0FBB1FAA0FBB1FAE0FBF1FE3
:101AB000A357B64F3C91413019F032233C9302C0FA
:101AC000632B6C938096880F991F880F991FE80FDE
:101AD000F91FE357F64F808128232083E3C0DC0100
:101AE000AA0FBB1FAA0FBB1FAE0FBF1FA357B64F36
:101AF000262F20953C9123232C939C01205E3F4F61
:101B0000220F331F220F331FE20FF31F13C0DC011C
:101B1000AA0FBB1FAA0FBB1FAE0FBF1FA357B64F05
:101B20002C91262B2C938096880F991F880F991F34
:101B3000E80FF91FE357F64F8081862B8083B2C0F0
:101B4000443008F0AFC0BC01E4E075956795EA95B4
:101B5000E1F7283031050CF052E0560F8F709927CD
:101B6000880F22FB662760F9182F160F2370332782
:101B700088E090E07C0102C0F594E7942A95E2F7B2
:101B8000612F70E0C52FD0E09B01220F331F220F81
:101B9000331FF901EC0FFD1FE357F64F9081892F9A
:101BA0008E21A1E009F4A0E0FB01B096EE0FFF1F2B
:101BB000EE0FFF1FEC0FFD1FE357F64F80818E21C4
:101BC00009F082E08A0F481709F46CC0413039F1FE
:101BD00048F0423009F441C0433009F063C0492F56
:101BE0004E293EC0E094492F4E212C0F3D1FF90194
:101BF000E357F64F4083FF24F394F50E612F8F2DAA
:101C00000E94410960E2610FFE0184E0689FE00DDF
:101C1000F11D1124E357F64F90814E2D1CC0492F22
:101C20004E292C0F3D1FF901E357F64F4083FF2447
:101C3000F394F50E612F8F2D0E94410960E2610F30
:101C4000FE0184E0689FE00DF11D1124E357F64F7B
:101C50004E2D4095908149231CC04E2D409549231F
:101C60002C0F3D1FF901E357F64F4083FF24F394F7
:101C7000F50E612F8F2D0E94410960E2610FFE0178
:101C800084E0689FE00DF11D1124E357F64F408179
:101C90004E2940838F2DDF91CF911F91FF90EF90C0
:101CA0000C944109DF91CF911F91FF90EF9008951F
:101CB0002F923F924F925F926F927F928F929F925C
:101CC000AF92BF92CF92DF92EF92FF920F931F934A
:101CD000CF93DF93582E492E322EA895403214F020
:101CE000405201C040E03B015B0128E0A20EB11C64
:101CF00038E0439FE0011124C61BD70B85E0882EF6
:101D0000912C832D8071282EF301EC0FFD1FE758D5
:101D1000FD4FE491E52CF42CC12CD12C0E2F10E0BA
:101D2000C4018C199D09980102C0359527958A95A3
:101D3000E2F720FF02C0432D01C0422DB301C701CD
:101D40000E941E0D3FEFC31AD30A8FEFE81AF80A5C
:101D500026E0C216D10421F73FEF631A730A6A1412
:101D60007B0491F6DF91CF911F910F91FF90EF903F
:101D7000DF90CF90BF90AF909F908F907F906F90AB
:101D80005F904F903F902F9008952F923F924F92E7
:101D90005F926F927F928F929F92AF92BF92CF92FB
:101DA000DF92EF92FF920F931F93CF93DF93CDB704
:101DB000DEB72A970FB6F894DEBF0FBECDBFF82E60
:101DC000192F6B012A011901A895043051F40E94C2
:101DD000CD6623E030E040E050E00E94016A01E07F
:101DE000060FF9861A8729853A853A832983720175
:101DF000C601089698878F83102F1071F201019009
:101E00000020E9F73197CF0184199509970124192A
:101E100035092817390708F0B6C092E029163104B1
:101E200071F0A3E02A16310409F451C0202FB1E06B
:101E30002B16310409F091C0F701408190C0D70101
:101E40008C91A895803214F0805201C080E0360158
:101E5000B8E08B9FC00111249C012C193D093C83E3
:101E60002B83EB81FC81E60DF71DE758FA4FE491D7
:101E700089849A84A12CB12C2E2F30E03E832D83AF
:101E800085E090E08A199B092D813E8102C035953D
:101E900027958A95E2F720FF02C0402F01C0412F0D
:101EA000B301C4010E941E0D3FEFA31AB30A8FEFC6
:101EB000881A980A96E0A916B10411F7AFEF6A1ACA
:101EC0007A0AEF81F8856E167F0659F64DC0D70164
:101ED0008C9180528F3508F080E05601B8E08B9FDE
:101EE000C00111249C012C193D093C832B83EB81FB
:101EF000FC81EA0DFB1DE758F74FE49169807A8079
:101F0000812C912C2E2F30E03E832D8383E090E0B6
:101F1000881999092D813E8102C0359527958A95AA
:101F2000E2F720FF02C0402F01C0412FB501C301DD
:101F30000E941E0D3FEF831A930A8FEF681A780AEA
:101F400094E08916910411F7AFEFAA1ABA0AEF814B
:101F5000F885AE16BF0659F607C0D7014C91B601F9
:101F600089859A850E94580EBFEFEB1AFB0AE98516
:101F7000FA853696FA87E98729813A812C5F3F4FA7
:101F80003A8329833BCF2A960FB6F894DEBF0FBE63
:101F9000CDBFDF91CF911F910F91FF90EF90DF9018
:101FA000CF90BF90AF909F908F907F906F905F90F9
:101FB0004F903F902F9008950F93CF9380914309B6
:101FC0008111E7C00E94C509811170C081E00E94A3
:101FD000C50981116BC00E94672360933E0970930D
:101FE0003F0980934009909341090E9467236093C1
:101FF0008F0A7093900A8093910A9093920AC1E09D
:10200000C09346090E946E3310922A0910922C093F
:1020100010922B09809121098F5F863008F4B6C099
:10202000C093210982E00E94C22CE7E1F9E01192FD
:1020300089E0E132F807D9F780912109833009F46A
:102040004AC008F041C08130A1F580E09CE00E94C8
:102050005C1D1092000110922909109228090E941B
:10206000E20BE091210984E0E89FF0011124EC5D8E
:10207000FE4F4081518103E021E030E060E070E0FC
:1020800087E090E00E94C50EE091210984E0E89F7E
:10209000F0011124EC5DFE4F4281538121E030E0DC
:1020A00068E070E080E090E00E94C50E1092370971
:1020B00070C08230D9F78CEE9BE00E945C1D1092BC
:1020C000000110922909CBCF843041F0853071F79F
:1020D0008CEA9BE02FC085ED9BE02CC081EC9BE05F
:1020E0000E945C1D109200010E94E20BE091210908
:1020F00084E0E89FF0011124EC5DFE4F40815181A6
:1021000003E021E030E060E070E087E090E00E94D2
:10211000C50EE091210984E0E89FF0011124EC5DF7
:10212000FE4F4281538121E030E068E070E081E0C1
:1021300090E0BACF0E945C1D109200011092290914
:102140000E94E20BE091210984E0E89FF001112454
:10215000EC5DFE4F4081518103E021E030E060E022
:1021600070E083E090E00E94C50EE091210984E0D8
:10217000E89FF0011124EC5DFE4F4281538121E084
:1021800030E068E070E083E090E08ECF809321093A
:1021900049CFCF910F910895CF92DF92EF92FF92A6
:1021A0000F931F93CF93DF93CDB7DEB727970FB66B
:1021B000F894DEBF0FBECDBF80913909823029F47B
:1021C00010923C09109239092EC6833019F402E3AB
:1021D00010E002C00CE211E00E946723C0903E09AB
:1021E000D0903F09E0904009F0904109AB01BC015B
:1021F0004C195D096E097F09C801110FAA0BBB0BB1
:10220000481759076A077B0708F40DC681E08093D9
:102210002E09109227090E94672360933E0970934C
:102220003F098093400990934109809121098330AF
:1022300099F038F4813061F0823009F0F4C581E022
:1022400008C0843009F4E4C1853009F410C5EBC539
:1022500080E00E941F46E7C50E948F180E94951BD0
:1022600080912E0B8093960A0E94DB1B80930E13A5
:102270000E948F180E94951B80912C0B8093950AC9
:102280000E94C31B8093940A0E94D31B80930F1358
:102290000E94B91B64E670E00E94BA618093930AC1
:1022A00090911909933009F442C028F4913061F0FB
:1022B000923019F1A4C0953009F469C008F450C0F7
:1022C000963009F479C09BC090913D098091960A9F
:1022D000992311F0815001C08F5F8093960A8091FD
:1022E000960A8F3F21F487E18093960A88C088314F
:1022F00008F485C01092960A82C090913D098091A1
:102300000E13992311F0815001C08F5F80930E133B
:1023100080910E138F3F21F48BE380930E1304C042
:102320008C3310F010920E131092950A68C09091A1
:102330003D0980910F13992311F0815001C08F5FE7
:1023400080930F1380910F138F3F21F48FE18093BF
:102350000F1355C0803208F452C010920F134FC0B3
:1023600090913D098091940A992311F0815001C008
:102370008F5F8093940A8091940A811102C08CE04F
:1023800003C08D30E0F181E08093940A38C09091D1
:102390003D09992311F0815001C08F5F8093930A0A
:1023A0008091930A8D3010F488E203C0893238F1AD
:1023B0008DE08093930A23C081E00E94C22C90910B
:1023C0003D098091E410992311F0815001C08F5F85
:1023D0008093E4108091E410873010F01092E410A4
:1023E0006091E41084E290E00E94F92B6FE070E0CD
:1023F00080E090E00E942D2381E080932D090E94CF
:10240000672300918F0A1091900A2091910A3091D0
:10241000920ADC01CB01801B910BA20BB30B893E0E
:102420009340A105B10578F18091950A8F5F8C33B7
:1024300018F48093950A07C01092950A80910E13A4
:102440008F5F80930E1380910E138C3338F01092AF
:102450000E138091960A8F5F8093960A8091960A58
:10246000883138F01092960A80910F138F5F809315
:102470000F130E94672360938F0A7093900A8093D2
:10248000910A9093920A8091930A90E06091940A45
:1024900050910F132091950A30910E134091960A96
:1024A000843691051CF0825B974001C04E96809364
:1024B000320B6093310B5093300B40932E0B3093C3
:1024C0002D0B20932C0B8CE29BE00E9419190E948B
:1024D00068180E948F18AE014F5F5F4F0E94C41AA8
:1024E00001E000935D1388E6F82EF0927E131092BF
:1024F000DF0F1092DE0F60E082EE9FE00E94B017C7
:1025000060E882EE9FE00E94B0178A811AE0612F96
:102510000E949A61692F20E1829F600D112482EE52
:102520009FE00E94B0178B81612F0E949A61692FF2
:1025300020E1829F600D112482EE9FE00E94B0177F
:102540008C81612F0E949A61692F20E1829F600D2A
:10255000112482EE9FE00E94B0178D81612F0E94AE
:102560009A61692F20E1829F600D112482EE9FE025
:102570000E94B0178E81612F0E949A61692F20E11D
:10258000829F600D112482EE9FE00E94B0178F8120
:102590008E51612F0E949A61692F20E1829F600D08
:1025A000112482EE9FE00E94B01781E00E94204D2E
:1025B000882319F01092970A23C00093970A00937A
:1025C0005D13F0927E131092DF0F1092DE0F60E029
:1025D00082EE9FE00E94B0178981612F0E949A616C
:1025E000692F20E1829F600D112482EE9FE00E94FE
:1025F000B01781E00E94204D8111DCCF0093970A33
:1026000080918E0A882309F40EC40E94313E0BC4C7
:1026100080911A09882319F081E00E94C22CE09170
:102620001A098E2F90E0FC013197EB30F10508F08C
:10263000FAC3EA5BFF4F0C94CE6180918E13811137
:1026400004C081E080938E1302C010928E136091BB
:102650008E1380E090E09BC30E94E20B90913D09B5
:1026600080911409992311F0815001C08F5F8093EC
:102670001409809114098F3F21F485E08093140997
:1026800004C0863010F0109214096091140984E09F
:1026900090E00E94F92B6FE070E080E090E00E94F3
:1026A0002D231092101380911409811103C00E94F0
:1026B000C432B9C30E94B40BB6C30E94E20B90911E
:1026C0003D0980914709992311F0815001C08F5F26
:1026D0008093470980914709811102C083E003C0BC
:1026E000843018F081E0809347096091470985E0C4
:1026F00090E04DC30E94E20B90913D098091270B21
:10270000992311F0815001C08F5F8093270B809136
:10271000270B8F3F21F484E08093270B04C0853082
:1027200010F01092270B6091270B88E090E02FC3E8
:102730000E94E20B80910B01882319F010920B018B
:1027400003C081E080930B0160910B018DE090E06C
:102750001EC30E94E20B8091260B882319F0109271
:10276000260B03C081E08093260B6091260B8EE040
:1027700090E00DC30E94E20B90913D0980911309F6
:10278000992311F08F5F01C08150809313098091CC
:1027900013098F3F21F488E08093130904C0893026
:1027A00010F010921309609113098FE090E0EFC2CE
:1027B0000E94E20B80911209882319F010921209ED
:1027C00003C081E0809312096091120982E190E0D8
:1027D000DEC20E94E20BE09120098E2F90E088304B
:1027E000910508F020C3FC01EF5AFF4F0C94CE6115
:1027F00081E08093200917C380918C13882319F0FE
:1028000010928C1309C081E080938C136FE070E00C
:1028100080E090E00E942D2360918C1386E190E08F
:10282000B6C290913D0980911109992311F0815010
:1028300001C08F5F8093110980911109833010F0DE
:1028400010921109609111098BE190E0A0C2909162
:102850003D0980910F09992311F0815001C08F5FCC
:1028600080930F0980910F09843618F081E08093DE
:102870000F0960910F098EE190E089C290913D09A6
:1028800080911009992311F0815001C08F5F8093CE
:10289000100980911009843618F081E080931009A6
:1028A0006091100980E290E072C290913D098091A0
:1028B000250B992311F0815001C08F5F8093250B68
:1028C0008091250B843618F081E08093250B609170
:1028D000250B81E290E05BC260910E0981E06827E0
:1028E00060930E0982E290E052C2109220099BC2CE
:1028F0000E94E20B80914209882319F0109242094C
:1029000003C081E0809342096091420987E190E031
:102910003EC20E94E20B8CE29CE00E945C1D60E0E3
:1029200081E090E00E94F92B62E370E080E090E0AB
:102930000E942D2360E082E090E00E94F92B62E388
:1029400070E080E090E00E942D2360E083E090E062
:102950000E94F92B62E370E080E090E00E942D235A
:1029600061E087E090E00E94F92B62E370E080E094
:1029700090E00E942D2360E089E090E00E94F92B16
:1029800062E370E080E090E00E942D2360E08AE046
:1029900090E00E94F92B62E370E080E090E00E94FA
:1029A0002D2360E08BE090E00E94F92B62E370E061
:1029B00080E090E00E942D2361E08CE090E00E9496
:1029C000F92B62E370E080E090E00E942D2360E04C
:1029D00080E090E00E94F92B62E370E080E090E0FC
:1029E0000E942D2363E084E090E00E94F92B62E3D3
:1029F00070E080E090E00E942D2361E085E090E0AF
:102A00000E94F92B62E370E080E090E00E942D23A9
:102A10006CE289E190E00E94F92B61E08AE190E0AC
:102A20000E94F92B62E370E080E090E00E942D2389
:102A300061E088E090E00E94F92B62E370E080E0C2
:102A400090E00E942D2361E08DE090E00E94F92B40
:102A500062E370E080E090E00E942D2361E08EE070
:102A600090E00E94F92B62E370E080E090E00E9429
:102A70002D2360E08FE090E00E94F92B62E370E08C
:102A800080E090E00E942D2362E080E190E00E94CF
:102A9000F92B62E370E080E090E00E942D236FEF5D
:102AA00081E190E00E94F92B62E370E080E090E029
:102AB0000E942D2361E082E190E00E94F92B62E305
:102AC00070E080E090E00E942D2362E084E190E0DD
:102AD0000E94F92B62E370E080E090E00E942D23D9
:102AE00062E085E190E00E94F92B62E370E080E013
:102AF00090E00E942D2360E086E190E00E94F92B97
:102B000062E370E080E090E00E942D2360E087E1C6
:102B100090E00E94F92B62E370E080E090E00E9478
:102B20002D2360E08BE190E00E94F92B62E370E0DE
:102B300080E090E00E942D2361E08EE190E00E9411
:102B4000F92B62E370E080E090E00E942D2369E0C1
:102B50008FE190E00E94F92B62E370E080E090E06A
:102B60000E942D2361E080E290E00E94F92B62E355
:102B700070E080E090E00E942D2365E081E290E02B
:102B80000E94F92B62E370E080E090E00E942D2328
:102B900061E082E290E00E94F92B69E170E080E060
:102BA00090E00E942D2360E084E290E00E94F92BE7
:102BB00069E170E080E090E00E942D2364E670E01F
:102BC00085ED91E10E943E2464E970E08DEA91E197
:102BD0000E943E2464EC70E085E891E10E943E246E
:102BE00064EF70E08DE591E10E943E2464E271E0C3
:102BF00085E391E10E943E2464E571E08DE091E17E
:102C00000E943E2464E871E085EE90E10E943E243B
:102C10000E94830A1092460910922C0910922B09E7
:102C200010922A0910922909109228091092270956
:102C30001092260910922509109224091092230956
:102C4000109222091092210910923D09E7E1F9E062
:102C5000119289E0E132F807D9F711E010930001F1
:102C600010922E090E94E20B10932D09DCC0809176
:102C70001D09882319F081E00E94C22C80911D0952
:102C8000823009F461C0833009F4A8C0813009F0B2
:102C9000CAC0E0911E098E2F90E08A30910508F09D
:102CA000C2C0FC01E75AFF4F0C94CE610E94E20BB8
:102CB00081E080931E09B7C090913D098091310950
:102CC000992311F0815001C08F5F80933109809169
:102CD0003109811104C089E08093310904C08A3030
:102CE00010F0109231096091310980E190E091C0BB
:102CF00080E29CE00E945C1D60913009605808C031
:102D000084E19CE00E945C1D6091300980E46827AA
:102D10006093300985E190E03AC06091300980E22B
:102D2000F6CF6091300980E1F2CF6091300988E000
:102D3000EECF6091300981E0EACF6091300984E004
:102D4000E6CF10921E096FC0E0911F098E2F90E010
:102D50008930910508F067C0FC01ED59FF4F0C94D4
:102D6000CE610E94E20B81E080931F095CC06091FC
:102D7000251380E407C06091251380E203C06091B1
:102D8000251380E168276093251381E190E00E947C
:102D9000F92B65E070E080E090E01AC060912513A7
:102DA00084E00BC06091251381E007C0609125137A
:102DB00082E003C06091251388E0682760932513A3
:102DC00081E190E00E94F92B6AE070E080E090E001
:102DD0000E942D2328C010921F0925C090913D0903
:102DE00080912413992311F0815001C08F5F80934B
:102DF0002413809124138F3F21F489E080932413BE
:102E000004C08A3010F0109224136091241384E1DE
:102E100090E00E94F92B65E070E080E090E00E9475
:102E20002D230E94E20B27960FB6F894DEBF0FBE4B
:102E3000CDBFDF91CF911F910F91FF90EF90DF9069
:102E4000CF9008958091E00F90E02091E10F821BD8
:102E50009109089585ED8093BC008091BC0084FDAC
:102E6000FCCF1092DD0F08954091BA0A262F30E072
:102E7000240F311D21323105DCF42091DD0F243087
:102E8000C9F4FC0180E090E0861758F43091BA0A4A
:102E90002191DC01A856B54FA30FB11D2C930196CB
:102EA000F3CF8091BA0A680F6093BA0A80E0089560
:102EB00081E0089582E008950895E091E10F809106
:102EC000E00FE81730F4F0E0E152F54F808190E038
:102ED00008958FEF9FEF08959091E10F8091E00F9B
:102EE000981750F4E92FF0E0E152F54F208130E0DF
:102EF0009F5F9093E10F02C02FEF3FEFC90108954C
:102F0000CF92DF92EF92FF920F931F93CF93DF93B5
:102F10007C01262F972F8A0180915D13882391F0E1
:102F2000C62FD72F6E01C40ED51ECC15DD0571F04E
:102F30006991D701ED91FC910190F081E02DC701DD
:102F40000995F3CF642F822F0E943417C801DF91B7
:102F5000CF911F910F91FF90EF90DF90CF90089548
:102F6000CF93DF931F92CDB7DEB7698320915D13B6
:102F70002223D1F02091DE0F203240F021E030E01A
:102F8000FC013383228380E090E015C08091DF0F45
:102F9000E82FF0E0E25AFC4E998190838F5F809396
:102FA000DF0F8093DE0F05C061E0CE0101960E9425
:102FB000341781E090E00F90DF91CF910895FC01EC
:102FC00090810180F281E02DF8948181892B8183A9
:102FD0002281892F809528232283A7E0B0E01197D2
:102FE000F1F7218182238183A3E2B0E01197F1F709
:102FF00080817894EFECF0E03197F1F7982381E04D
:1030000009F480E00895FC0190810180F281E02DB7
:10301000892F809560FF12C0F894228182238283D9
:103020008181892B8183A3E2B0E01197F1F782813E
:10303000982B9283789487ED90E011C0F8942281C8
:10304000822382838181892B8183AFEFB0E0119746
:10305000F1F78281982B928378948FE090E001972A
:10306000F1F70895FC0190810180F281E02DF89440
:103070008181292F20958223818378948DE743E0F5
:1030800050E0815021F1DA011197F1F730813923B5
:10309000C1F3F8948281822382838181892B818389
:1030A0007894ABECB7E01197F1F7F894818128237D
:1030B0002183ABE3B1E01197F1F78081982381E0A0
:1030C00009F080E07894EBE8F6E03197F1F70895A5
:1030D0006093EE087093EF088093F0089093F108E6
:1030E000DC01CB01845D9E4FAF4FBF4F8093EA0858
:1030F0009093EB08A093EC08B093ED0882E090E089
:103100009093F5088093F4080E94672360930D0B59
:1031100070930E0B80930F0B9093100B0895CF922A
:10312000DF92EF92FF920F931F930E946723C0904C
:103130000D0BD0900E0BE0900F0BF090100B8B014D
:103140009C010C191D092E093F098091EE089091F0
:10315000EF08A091F008B091F108083E1340210556
:103160003105D0F00196A11DB11D8093EE0890931A
:10317000EF08A093F008B093F108B701A6014851F9
:103180005C4F6F4F7F4F40930D0B50930E0B60932E
:103190000F0B7093100BC9CF4091EA085091EB08C8
:1031A0006091EC087091ED0884179507A607B707A2
:1031B00088F1E091F208F091F308309759F1099500
:1031C000611571058105910519F00E94681822C0EA
:1031D0008091EE089091EF08A091F008B091F1086D
:1031E000845D9E4FAF4FBF4F8093EA089093EB08EA
:1031F000A093EC08B093ED0881E090E02091F408F2
:103200003091F508232B11F480E090E09093F508BD
:103210008093F4086091EE087091EF088091F008B7
:103220009091F1081F910F91FF90EF90DF90CF9058
:1032300008956F927F928F929F92AF92BF92CF929A
:10324000DF92EF92FF920F931F93CF93DF93EC01E6
:10325000EE81AE2FB0E020E833E341EE51E00E9472
:10326000206A4B015C0122EB37E0FD0104E610E02F
:1032700080E9E82EFF24F394C901825B97408E1702
:103280009F07DCF4C90183709927892B99F4C90140
:10329000B8010E94BA61892B31F4C901B7010E94BB
:1032A000BA61892B39F480E8880E81E5981E81E0A7
:1032B000A81EB11C2F5F3F4FDFCF6D80712CEE54E5
:1032C000F84FCF0164E670E00E94BA617C01CF0143
:1032D00060E971E00E94BA616C0101E010E0E37006
:1032E000FF27061517052CF50230110581F43097DC
:1032F00071F4E114F10419F4C114D10441F480E82B
:10330000880E8BE3981E86E2A81EB11C0FC0D80160
:10331000A55CBE4FAC91B0E020E831E541E050E063
:103320000E94206A860E971EA81EB91E0F5F1F4FAF
:10333000D8CF49812A8130E0A0E1BEE00E94556AE1
:103340006B017C01242F30E0ACE3B0E00E94556AB1
:10335000DC01CB018C0D9D1DAE1DBF1D28816C01B4
:103360007D01C20ED11CE11CF11CAC81B0E01197B3
:1033700020E831E541E050E00E942B6ADC01CB01FE
:103380008C0D9D1DAE1DBF1DBC01CD01680D791DAD
:103390008A1D9B1DDF91CF911F910F91FF90EF90A0
:1033A000DF90CF90BF90AF909F908F907F906F9065
:1033B00008951F93CF93DF93CDB7DEB727970FB64E
:1033C000F894DEBF0FBECDBF11E010935D1388E609
:1033D00080937E131092DF0F1092DE0F60E082EE7A
:1033E0009FE00E94B01781E00E94204D882319F0D1
:1033F0001092970ABCC01093970A8091DD0F81113B
:10340000FCCF81E08093DD0F8093DC0F9FEF9093E2
:103410005C1310925B1396E090935A1380933913C8
:1034200080913913806D809339138091DB0F813047
:1034300061F41092DB0F809139138093BB0080916F
:10344000BC0083FDF8CF85EC01C085EE8093BC0005
:103450008091DD0F8130E1F380915B13873018F4A8
:1034600080915B1301C087E0AAE3B3E12FED3AE05E
:10347000F9019E2F921B981718F49D919193F9CF03
:103480001092E10F8093E00F873008F470C082EE55
:103490009FE00E946C17182F8695869586958E70F2
:1034A000982F990F990F890F912F9F70890F8983FA
:1034B00082EE9FE00E946C17282F22952F70982F84
:1034C0009F708AE0289F900D11249A8382EE9FE0DE
:1034D0000E946C17982F282F2695269526952670E2
:1034E000822F880F880F280F9F70920F9B8382EE88
:1034F0009FE00E946C17282F22952F70982F9F70A5
:103500008AE0289F900D11249C8382EE9FE00E9408
:103510006C17282F22952F70982F9F708AE0289F74
:10352000900D11249D8382EE9FE00E946C17282F3E
:1035300022952F70982F9F708AE0289F900D11245C
:103540009E8382EE9FE00E946C17982F9F70925E80
:10355000282F22952F708AE0289F900D11249F8399
:1035600017FD05C0CE0101960E94191903C060E045
:1035700070E0CB0127960FB6F894DEBF0FBECDBF2B
:10358000DF91CF911F9108956F927F928F929F92BA
:10359000AF92BF92CF92DF92EF92FF920F931F9361
:1035A000CF93DF93EA012CE3C22ED12CE12CF12C36
:1035B000A70196010E94336A6883CA01B901A70175
:1035C00096010E94336A6983CA01B90128E130E09B
:1035D00040E050E00E94336A69017A016A83CA01BF
:1035E000B9016C5F7F4F8F4F9F4F27E030E040E085
:1035F00050E00E94336A6F5F6B83812C912C5401E1
:1036000040E034E6632E712C00E911E0242F30E015
:103610002E54384FF901E370FF27309789F4C90120
:10362000B3010E94BA61892B31F4C901B8010E942B
:10363000BA61892B29F48EE691E0A0E0B0E004C0E5
:103640008DE691E0A0E0B0E0880E991EAA1EBB1E98
:10365000D501C401AA27BB27C816D906EA06FB066E
:1036600010F04F5FD3CF4E83309799F4C90164E6D1
:1036700070E00E94BA61892B39F4C90160E971E0F8
:103680000E94BA61892B29F48EE691E0A0E0B0E0B7
:1036900004C08DE691E0A0E0B0E0881A990AAA0A79
:1036A000BB0AC818D908EA08FB08C90164E670E03B
:1036B0000E94BA618C01C90160E971E00E94BA619F
:1036C000ACE3B1E020E0213041F4309751F4011532
:1036D000110529F4009729F402C04C9103C04DE173
:1036E00001C04CE150E060E070E0C416D506E6068B
:1036F000F70640F0C41AD50AE60AF70A2F5F1196BA
:103700002C3009F72F5F2D83C394CC82DF91CF91AA
:103710001F910F91FF90EF90DF90CF90BF90AF90EF
:103720009F908F907F906F900895CF92DF92EF924D
:10373000FF92C090090BD0900A0BE0900B0BF09019
:103740000C0B6C157D058E059F0571F06B017C01DE
:103750004CE25BE00E94C41AC092090BD0920A0BA3
:10376000E0920B0BF0920C0BFF90EF90DF90CF905C
:1037700008950E948F180E94951B8091320B90E053
:103780008E54984F08950E948F180E94951B809127
:10379000310B90E008950E948F180E94951B809134
:1037A0002F0B90E008950E948F180E94951B809126
:1037B000300B90E008950E948F180E94951B809115
:1037C0002D0B90E008950E948F180E94951B209168
:1037D0002E0B30E081E02C3031050CF080E00895B4
:1037E0000E948F180E94951B20912E0B222331F0EE
:1037F000822F90E02D3020F00C9708958CE090E01F
:10380000089523E0829FC0011124AFEFBAE020E0C9
:1038100030E0F901E80FF91FEE5AF34FE491ED9310
:103820002F5F3F4F23303105A1F71092020B8FEF2E
:103830009AE008951F920F920FB60F9211240BB6C3
:103840000F922F933F934F935F936F937F938F9339
:103850009F93AF93BF93EF93FF938091B900887FBD
:10386000803609F49CC068F5883209F45BC090F496
:10387000803109F454C038F4882309F4F6C0883044
:1038800009F44DC0F6C0883109F44CC0803209F407
:103890005DC0EFC0803409F468C048F4803309F497
:1038A00055C0883309F0E5C080935C13D8C08035DB
:1038B00009F44FC0883509F45DC0883409F0D9C0D7
:1038C000D6C0883909F4C7C0A8F4883709F467C09E
:1038D00038F4883609F463C0803709F460C0C9C081
:1038E000883809F4B8C0803909F45FC0803809F01D
:1038F000C0C05BC0803B09F486C038F4803A09F44C
:1039000066C0883A09F47FC0B4C0803C09F4A7C0FF
:10391000883C09F4A4C0883B09F48AC0AAC08091FD
:10392000391310C090915B1380915A13981770F55A
:10393000E0915B1381E08E0F80935B13F0E0E65C17
:10394000FC4E80818093BB0085EC86C080935C1325
:103950008EC0E0915B1381E08E0F80935B138091AA
:10396000BB00F0E0E65CFC4E808390915B1380919D
:103970005A136EC0E0915B1381E08E0F80935B134E
:103980008091BB00F0E0E65CFC4E80838091DC0F10
:1039900081116DC081E08093DB0F84EA61C083E018
:1039A0008093DD0F1092DE0ACFCF8091DE0A803245
:1039B00008F051C0E091DE0A81E08E0F8093DE0AAC
:1039C0008091BB00F0E0E254F54F8083BDCF85ECE1
:1039D0008093BC001092DD0F8091DE0A803230F4BB
:1039E000E091DE0AF0E0E254F54F10826091DE0AC9
:1039F00070E0E091BC0AF091BD0A8EEB9AE0099567
:103A00001092DE0A36C084E08093DD0F1092BB0A6C
:103A10001092BA0AE091B80AF091B90A099580911A
:103A2000BA0A811105C081E08093BA0A1092980AFF
:103A3000E091BB0A81E08E0F8093BB0AF0E0E8566C
:103A4000F54F80818093BB009091BB0A8091BA0AA8
:103A5000981708F479CF85E88093BC000AC085ECFC
:103A60008093BC001092DD0F04C010925C130E9482
:103A70002A17FF91EF91BF91AF919F918F917F9105
:103A80006F915F914F913F912F910F900BBE0F90CF
:103A90000FBE0F901F901895CF93DF93EC01FE019E
:103AA0006491662331F08EE39FE00E94891E219687
:103AB000F6CFDF91CF9108950E944C1D8AEE92E0DF
:103AC0000C94F52EEFE6F0E080818D7F8083E0910D
:103AD0003C0FF0913D0F128610923D0F10923C0F5B
:103AE00008958F929F92AF92BF92CF92DF92EF9202
:103AF000FF920F931F93CF93DF93CDB7DEB7289735
:103B00000FB6F894DEBF0FBECDBF8C017B016A01FA
:103B1000FC0186819781A085B185892B8A2B8B2B0F
:103B200051F548E050E0BE016F5F7F4FF80180899A
:103B300091890E941B3C089719F08FEF9FEF52C0AC
:103B400044E050E066EF73E0CE0101960E945E63B0
:103B50004D815E816F817885F801892B29F4468338
:103B600057836087718707C0808991890E946D3B68
:103B70008111D7CFE2CFF80180899189FC0121859D
:103B800032853170E0E0F2E0E21BF30B9601EC15B8
:103B9000FD0508F49F01F801468157816085718514
:103BA0004901A12CB12C481559056A057B0508F47B
:103BB0009A01A901B7010E941B3C1816190694F43A
:103BC0006C01092E000CEE08FF08F80146815781B0
:103BD000608571854C195D096E097F09468357839D
:103BE0006087718728960FB6F894DEBF0FBECDBFF1
:103BF000DF91CF911F910F91FF90EF90DF90CF90C9
:103C0000BF90AF909F908F900895CF92DF92EF92E8
:103C1000FF920F931F93CF93DF936C017A018B0177
:103C2000C0E0D0E0CE15DF0589F0D8016D918D019F
:103C3000D601ED91FC910190F081E02DC60109952E
:103C4000892B11F47E0102C02196ECCFC701DF91D0
:103C5000CF911F910F91FF90EF90DF90CF9008953B
:103C6000FC01918D828D981761F0828DDF01A80F84
:103C7000B11D5D968C91928D9F5F9F73928F90E0A6
:103C800008958FEF9FEF0895FC01918D828D981715
:103C900031F0828DE80FF11D858D90E008958FEF52
:103CA0009FEF0895FC01918D228D892F90E0805C1B
:103CB0009F4F821B91098F73992708958EE39FE090
:103CC0000E94521E21E0892B09F420E0822F0895E2
:103CD000FC01848DDF01A80FB11DA35ABF4F2C91A9
:103CE000848D90E001968F739927848FA689B78978
:103CF0002C93A089B1898C9180648C93938D848D51
:103D0000981306C00288F389E02D80818F7D80831F
:103D10000895EF92FF920F931F93CF93DF93EC01DF
:103D200081E0888F9B8D8C8D981305C0E889F98977
:103D3000808185FD24C0F62E0B8D10E00F5F1F4F94
:103D40000F731127E02E8C8DE8120CC00FB607FC04
:103D5000FACFE889F989808185FFF5CFCE010E94ED
:103D6000681EF1CF8B8DFE01E80FF11DE35AFF4F66
:103D7000F0820B8FEA89FB898081806207C0EE891F
:103D8000FF896083E889F98980818064808381E08C
:103D900090E0DF91CF911F910F91FF90EF900895E8
:103DA000CF93DF93EC01888D8823C9F0EA89FB89E2
:103DB000808185FD05C0A889B9898C9186FD0FC0D9
:103DC0000FB607FCF5CF808185FFF2CFA889B989AE
:103DD0008C9185FFEDCFCE010E94681EE7CFDF9169
:103DE000CF91089580E090E0892B21F00E945E1E23
:103DF00081110DC080E090E0892B71F080E090E0AF
:103E0000892B51F00E940000811104C008950E9486
:103E10000000F0CF0C940000089590E0FC01319771
:103E2000EA30F10540F5E459FF4F0C94CE618091E2
:103E300080008F7703C0809180008F7D8093800009
:103E4000089584B58F7702C084B58F7D84BD0895B1
:103E50008091B0008F7703C08091B0008F7D8093F8
:103E6000B0000895809190008F7703C080919000FA
:103E70008F7D8093900008953FB7F89480911D0B3B
:103E800090911E0BA0911F0BB091200B26B5A89B03
:103E900005C02F3F19F00196A11DB11D3FBFBA2FDC
:103EA000A92F982F8827820F911DA11DB11DBC013C
:103EB000CD0142E0660F771F881F991F4A95D1F701
:103EC000089508952F923F924F925F926F927F9242
:103ED0008F929F92AF92BF92CF92DF92EF92FF921A
:103EE0000F931F93CF93DF9300D000D000D0CDB7B6
:103EF000DEB7882309F44EC1E09113128091140BB0
:103F00009091150BA091160BB091170B0196A11D66
:103F1000B11D8093140B9093150BA093160BB093C7
:103F2000170BF0E0EC5EFD4E80839183A283B38398
:103F3000809113128095982F937080911312890F9E
:103F400080931312E0911312F0E0EC5EFD4E80813D
:103F50008F738083E0911312F0E0EC5EFD4E2081C0
:103F600030E4939FC0011124822B8083809113122F
:103F70008F5F8093131220901312822D8695869561
:103F8000823008F459C2282E880F3308C101880FE7
:103F9000991F880F991FAC01405F5D4E5E834D8372
:103FA000FA0180819181A281B381C12CD12C76014B
:103FB000F1E02F1A310827E4C21A26E8D20A28ECC9
:103FC000E20A21E6F20AB701A60112E076956795AA
:103FD000579547951A95D1F7342F33703A83198244
:103FE0002981622F70E02C013D0154E0440C551CE6
:103FF000661C771C5A95D1F74C015D01E5E0B6943B
:10400000A79497948794EA95D1F7621573050CF0FD
:1040100062C06F5F7F4F660F771F660F771FFB01D0
:10402000EC5EFD4E0081118122813381AB01405F46
:104030005D4E5C834B83B901A801E3E076956795FB
:1040400057954795EA95D1F7442655266626772653
:10405000B901A801F2E0440F551F661F771FFA95BA
:10406000D1F784269526A626B726480C591C6A1C2B
:104070007B1C59815370EA815E2744E0549FF00114
:104080001124E250F74F408151816281738184276E
:104090009527A627B727B901A8014C255D256E25D0
:1040A0007F25840F951FA61FB71F482659266A260D
:1040B0007B26EB81FC8180819181A281B381840D7B
:1040C000951DA61DB71D80839183A283B383F981BB
:1040D000FF5FF98385CF40911412509115126091C2
:1040E000161270911712322F3370EA813E2724E0A6
:1040F000329FF0011124E250F74F0081118122819B
:10410000338180279127A227B327970186010427AF
:10411000152726273727800F911FA21FB31F8A015B
:104120009B01F3E03695279517950795FA95D1F7FA
:1041300004251525262537252A013B0142E0440C9C
:10414000551C661C771C4A95D1F7482459246A24CB
:104150007B24400E511E621E731E84259525A625C4
:10416000B725ED81FE814081518162817381840F89
:10417000951FA61FB71F80839183A283B383F6E5A3
:10418000CF16FAEDDF06FCE4EF06F5EBFF0609F0CB
:1041900012CF52C18091881390918913892B09F015
:1041A0004BC11091131216951695123008F428C1C0
:1041B0008091141290911512A0911612B0911712BD
:1041C00044E0149F90011124F901E05FFD4E1F01AE
:1041D00046E55AED6CE475EB11501B838A019B0197
:1041E000E2E03695279517950795EA95D1F7F02FD8
:1041F000F370FA832B8129833981032F10E0980112
:104200002150304C220F331F220F331FF901EC5E77
:10421000FD4E80809180A280B380F901E85EFD4E62
:10422000FE83ED832401350104E0440C551C661C1B
:10423000771C0A95D1F76C017D0123E0F694E79491
:10424000D794C7942A95D1F74C245D246E247F24FB
:1042500095018401E5E03695279517950795EA9530
:10426000D1F76C017D01F2E0CC0CDD1CEE1CFF1CD3
:10427000FA95D1F7C026D126E226F3264C0C5D1C18
:104280006E1C7F1C39813370FA813F2724E0329FF6
:10429000F0011124E250F74FC080D180E280F3801A
:1042A0008C249D24AE24BF246C017D01C426D52618
:1042B000E626F726C80CD91CEA1CFB1C4C245D24FE
:1042C0006E247F24ED81FE8180819181A281B38162
:1042D00084199509A609B70980839183A283B383C2
:1042E000F981F150F983F11187CFF101808091803C
:1042F000A280B3802C013D01E3E07694679457944B
:104300004794EA95D1F775016401F4E0CC0CDD1C0B
:10431000EE1CFF1CFA95D1F74C245D246E247F24FB
:104320008C019D01E2E0000F111F221F331FEA954F
:10433000D1F775016401F5E0F694E794D794C7943A
:10434000FA95D1F7C026D126E226F326C40CD51C57
:10435000E61CF71C84279527A627B7272A81F4E0B7
:104360002F9F80011124F801E250F74F40805180C7
:1043700062807380482459246A247B24480E591E85
:104380006A1E7B1E4C245D246E247F2480911412AF
:1043900090911512A0911612B091171284199509D7
:1043A000A609B7098093141290931512A0931612C0
:1043B000B0931712495B594767437E4909F00ECF06
:1043C000E0911312E150E0931312F0E0EC5EFD4E29
:1043D00020812295269526952370E0911312F0E016
:1043E000EC5EFD4E80818F7390E0A0E0B0E08093A2
:1043F000831390938413A0938513B093861303C003
:104400001123D1F0DDCF215078F0E0911312E1506B
:10441000E0931312F0E0EC5EFD4E3081BA2FA92F2D
:10442000982F8827832BEFCF809383139093841347
:10443000A0938513B093861326960FB6F894DEBF2B
:104440000FBECDBFDF91CF911F910F91FF90EF90E5
:10445000DF90CF90BF90AF909F908F907F906F90A4
:104460005F904F903F902F90089508950E9434637D
:104470001F920F920FB60F9211240BB60F922F932B
:104480003F934F935F936F937F938F939F93AF93DC
:10449000BF93EF93FF938EE39FE00E94681EFF910E
:1044A000EF91BF91AF919F918F917F916F915F91AC
:1044B0004F913F912F910F900BBE0F900FBE0F9019
:1044C0001F9018951F920F920FB60F9211240BB6E2
:1044D0000F922F938F939F93EF93FF93E0914E0F43
:1044E000F0914F0F8081E091540FF091550F82FDB4
:1044F00012C090818091570F8F5F8F732091580F5A
:10450000821751F0E091570FF0E0E25CF04F958F89
:104510008093570F01C08081FF91EF919F918F9100
:104520002F910F900BBE0F900FBE0F901F901895FC
:10453000CF93DF93282F30E0F901E257F24F8491B7
:10454000F901E75DFE4ED491F901E75FFE4EC4919B
:10455000CC2391F081110E940D1FEC2FF0E0EE0FA3
:10456000FF1FE150FF4EA591B491EC91ED2381E046
:1045700090E021F480E002C080E090E0DF91CF91F4
:1045800008951F93CF93DF93282F30E0F901E2576E
:10459000F24F8491F901E75DFE4ED491F901E75F96
:1045A000FE4EC491CC23C9F0162F81110E940D1F1D
:1045B000EC2FF0E0EE0FFF1FEC57F24FA591B491F6
:1045C0008FB7F894111105C09C91ED2FE095E92368
:1045D00002C0EC91ED2BEC938FBFDF91CF911F9137
:1045E0000895CF93DF9390E0FC01E75DFE4E2491A8
:1045F000FC01E75FFE4E8491882361F190E0880F13
:10460000991FFC01E658F24FC591D491FC01EC577B
:10461000F24FA591B491611109C09FB7F8948881B8
:10462000209582238883EC912E230BC0623061F4A5
:104630009FB7F8943881822F809583238883EC91EB
:104640002E2B2C939FBF06C08FB7F894E8812E2B9A
:1046500028838FBFDF91CF9108958F929F92AF9261
:10466000BF92CF92DF92EF92FF926B017C010E948A
:104670003C1F4B015C01C114D104E104F104F1F0D1
:104680000E943C1FDC01CB0188199909AA09BB09CA
:10469000883E9340A105B10570F321E0C21AD1080C
:1046A000E108F10888EE880E83E0981EA11CB11C79
:1046B000C114D104E104F10419F7DDCFFF90EF90AC
:1046C000DF90CF90BF90AF909F908F9008952FB7BD
:1046D000F8946091190B70911A0B80911B0B9091BB
:1046E0001C0B2FBF08951F920F920FB60F9211242B
:1046F0002F933F938F939F93AF93BF938091190B09
:1047000090911A0BA0911B0BB0911C0B3091180BC0
:1047100023E0230F2D3720F40196A11DB11D05C004
:1047200026E8230F0296A11DB11D2093180B80933C
:10473000190B90931A0BA0931B0BB0931C0B809139
:104740001D0B90911E0BA0911F0BB091200B019699
:10475000A11DB11D80931D0B90931E0BA0931F0BE9
:10476000B093200BBF91AF919F918F913F912F916B
:104770000F900FBE0F901F9018951F920F920FB6BB
:104780000F9211240BB60F922F933F934F935F9389
:104790006F937F938F939F93AF93BF93EF93FF9309
:1047A000E0910801F09109010995FF91EF91BF9106
:1047B000AF919F918F917F916F915F914F913F91B9
:1047C0002F910F900BBE0F900FBE0F901F9018955A
:1047D0001F920F920FB60F9211240BB60F922F93C8
:1047E0003F934F935F936F937F938F939F93AF9379
:1047F000BF93EF93FF93E0910601F09107010995B4
:10480000FF91EF91BF91AF919F918F917F916F91A8
:104810005F914F913F912F910F900BBE0F900FBE64
:104820000F901F9018951F920F920FB60F921124A0
:104830000BB60F922F933F934F935F936F937F939A
:104840008F939F93AF93BF93EF93FF93E0910401F6
:10485000F09105010995FF91EF91BF91AF919F9163
:104860008F917F916F915F914F913F912F910F9019
:104870000BBE0F900FBE0F901F9018950F931F93B4
:10488000CF93DF938C01EB014CE050E00E94E9698B
:10489000BE01645F7F4F4CE050E0C8010C96DF9191
:1048A000CF911F910F910C94E9691F920F920FB64F
:1048B0000F9211240BB60F922F933F934F935F9358
:1048C0006F937F938F939F93AF93BF93EF93FF93D8
:1048D0008091EE0F0E9498222091F10F3091F20FFB
:1048E0002F5F3F4F3093F20F2093F10F9091BB1049
:1048F000943618F095E09093EF0F9091EF0F93306E
:10490000B9F018F4923039F057C0943059F195301D
:1049100009F44CC051C081114FC02091F10F30916A
:10492000F20F2436310508F443C01092BB101CC0AE
:10493000813009F041C0E091BB1091E09E0F90934F
:10494000BB10F0E02091F10F3091F20FEE0FFF1F3E
:10495000E251F04F368325831092F20F1092F10F3F
:1049600094E021C0811117C0E091BB1091E09E0F2F
:104970009093BB10F0E02091F10F3091F20FEE0F09
:10498000FF1FE251F04F368325831092F20F1092F1
:10499000F10F93E008C02091F10F3091F20F25360E
:1049A000310550F095E09093EF0F06C0811104C0DF
:1049B0001092F20F1092F10F9091F00F992329F0BD
:1049C000811102C02D9A01C02D98FF91EF91BF91E6
:1049D000AF919F918F917F916F915F914F913F9197
:1049E0002F910F900BBE0F900FBE0F901F90189538
:1049F000CF92DF92EF92FF92CF93DF93EC01072EDD
:104A0000000C880B990B0E94B1686B017C0120E0BF
:104A100030E040E45FE30E94106920E030E048E4C9
:104A200052E40E9482620E94F462C617D707D4F053
:104A300020E030E040EA5FE3C701B6010E94106960
:104A400020E030E048E452E40E94826220E030E05E
:104A500040E85FE30E9416620E94F46221E06C1756
:104A60007D070CF420E0822F90E0DF91CF91FF9042
:104A7000EF90DF90CF9008950F931F93CF93DF9324
:104A80001F92CDB7DEB7182F2CB521602CBD60E08A
:104A900082E199830E94C12299819EBD0DB407FED7
:104AA000FDCF8EB5282F30E0322F22271EBD0DB44A
:104AB00007FEFDCF8EB58901082B61E082E10E94DF
:104AC000C1228CB58E7F8CBDC8010F90DF91CF9134
:104AD0001F910F91089580918713882369F08CE9C5
:104AE00095E29093090180930801809169008F7C81
:104AF00080936900EA9A0895EA9881E69FE190938D
:104B000009018093080108958627682F6295682718
:104B1000062E669566956025062E6695602567705B
:104B2000082E892F669507946795902D8627069401
:104B30006795902586270895CF9380E090E00E94A6
:104B40003C2580918B13853009F094C08091120B25
:104B50009091130B892B91F08091110B84FD0EC065
:104B600085E880937A008091110B8F708064809328
:104B70007C0080917A00806480937A0080E090EBE2
:104B80000E943C25682F8091120B9091130B892B6A
:104B900069F08091110B84FD09C080917A0086FD37
:104BA000FCCF90917A00906490937A0080918A1360
:104BB00081110EC080918213882351F0E0918A13F5
:104BC00091E09E0F90938A13F0E0E05FFD4E8083AA
:104BD000E0918A1381E08E0F80938A13F0E0E05F0A
:104BE000FD4E608380918813909189130E948425E3
:104BF00090938913809388138091120B9091130BDB
:104C0000892B39F18091110B84FD23C080917F1392
:104C10008138F8F480917A0086FDFCCF809178008D
:104C20002091790090E0922B9C012C5331092F3573
:104C3000314078F42091801330918113820F931FBB
:104C4000909381138093801380917F138F5F809363
:104C50007F138091131220918A1390E0059630E023
:104C6000821793070CF456C080918A13863808F097
:104C700051C055C080918B1387FF1BC0E091131268
:104C800080918B1391E0980F90938B13EC5F8E0FB4
:104C9000E82FF0E0E05FFD4EC08180918813909195
:104CA00089136C2F0E948425909389138093881315
:104CB0002DC080918B1391E0980F90938B138330CC
:104CC000F1F054F48823A9F08130E9F4809188133D
:104CD00090918913C92F1AC08930B9F08A3099F49C
:104CE000C0918213909113128DEF891B80938B13C7
:104CF0000DC08091881390918913C82F07C08DE053
:104D000092E80E943C25CAEA01C0CDE28C2F90E0D7
:104D1000985402C08DE092E8CF910C943C25CF913D
:104D20000895DC01E0E0615038F08D91E827F0E073
:104D3000E658F34FE491F7CF8E2F0895EF92FF924C
:104D40000F931F93CF93DF937C0108E010E0C0E046
:104D5000D1E0C7010E94DF178111CD2BDD0F01507B
:104D60001109B9F78C2FDF91CF911F910F91FF900F
:104D7000EF900895CF92DF92EF92FF920F931F93DF
:104D8000CF93DF931F92CDB7DEB76C01E62E08E01C
:104D900010E0FF24F39461E08F2D8E2109F460E090
:104DA000C60149830E940318FF0C01501109498173
:104DB0000115110581F7411115C0F894D60111961E
:104DC000ED91FC91129791818C918095892381833B
:104DD0001196ED91FC91129792818C918095892387
:104DE000828378940F90DF91CF911F910F91FF9064
:104DF000EF90DF90CF900895AF92BF92CF92DF9265
:104E0000EF92FF920F931F93CF93DF931F92CDB733
:104E1000DEB75C01E62ED72EFC01858581115DC0D1
:104E2000C5010E943218811105C0F501138615864F
:104E300014866BC040E060EFC5010E94BA2601E015
:104E4000F12CC12C11E0C5010E94DF17682FC501AC
:104E500069830E94DF176981613019F48130B9F4E8
:104E600033C04F2D50E068131BC0F5018385181720
:104E700030F4E40FF51F8381802349F402C0181732
:104E800031F060E0193058F4F501148708C0F501DD
:104E9000EF0DF11D8381802B838361E009C0C12E5A
:104EA000F501E40FF51F9381802F8095892383837B
:104EB000C5010E9403181F5F000F11F4F39401E075
:104EC000F7E0FF1508F0BFCF113438F0F501C386C5
:104ED000C11015C081E0858712C0F50113861586C3
:104EE000148680E0D5011396EE2DFD2D9501255FEA
:104EF0003F4F9D919193A217B307D9F706C0F501D3
:104F00008381882351F381E0EDCF0F90DF91CF9122
:104F10001F910F91FF90EF90DF90CF90BF90AF90D7
:104F20000895CF92DF92EF92FF920F931F93CF934A
:104F3000DF931F92CDB7DEB78C01F62E40E065E51A
:104F400079830E94BA26CF2C7981D72E760188E00A
:104F5000E80EF11CF60161916F0140E0C8010E946A
:104F6000BA26CE14DF04B1F70F90DF91CF911F91D5
:104F70000F91FF90EF90DF90CF9008956F927F9206
:104F80008F929F92AF92BF92CF92DF92EF92FF9259
:104F90000F931F93CF93DF93CDB7DEB728970FB64C
:104FA000F894DEBF0FBECDBF109147090E94672362
:104FB000C0902713D0902813E0902913F0902A1363
:104FC000DC01CB018C199D09AE09BF09853F9140D9
:104FD000A105B10598F00E94672360932713709391
:104FE00028138093291390932A13809126138111FB
:104FF00003C01093261302C010922613E0911A09E1
:105000008E2F90E0FC013197EB30F10508F0B7C22C
:10501000EA58FF4F0C94CE61012F21E030E04BEFB6
:1050200053E060E070E081E090E00E94C50E809166
:105030008E130091261321E030E0882319F041E01F
:1050400054E002C048E054E068E070E081E090E0A5
:1050500094C2012F21E030E04EE054E060E070E0C7
:1050600081E090E00E94C50E80911409823009F120
:1050700060F48823B9F0813009F081C200912613D1
:1050800021E030E049E154E0DFCF843001F1C0F0AD
:10509000853009F074C20091261321E030E04CE223
:1050A00054E03FC00091261321E030E044E154E099
:1050B000CBCF0091261321E030E04FE154E031C026
:1050C0000091261321E030E043E254E02AC0009131
:1050D000261321E030E047E254E068E070E085E02C
:1050E00090E04BC2012F21E030E040E354E060E06B
:1050F00070E081E090E00E94C50E80914709823007
:1051000059F0833099F0813009F039C201E021E093
:1051100030E046E354E098CF02E021E030E04CE399
:1051200054E068E070E088E090E027C203E021E00E
:1051300030E040E454E088CF012F21E030E046E445
:1051400054E060E070E081E090E00E94C50E809144
:10515000270B1F928F938BE494E09F938F931F9262
:1051600088E08F93CE0101967C019F938F930E94DC
:105170006C630091261321E030E0A70168E070E045
:1051800081E090E00E94C50E0FB6F894DEBF0FBE1E
:10519000CDBFF5C1012F21E030E041EF53E060E0E9
:1051A00070E082E090E00E94C50EE0911A0934E0C0
:1051B000E39FF0011124E85BFE4F4281538121E01F
:1051C00030E068E070E080E090E00E94C50E8091E1
:1051D0000B010091261323E030E0882319F04BE8FF
:1051E00055E002C042E554E068E070E082E190E002
:1051F000C4C1012F21E030E047EA58E060E070E0F0
:1052000082E090E00E94C50E8091260B009126134B
:1052100021E030E0882319F04BEE54E002C046E56F
:1052200054E068E070E08AE090E00E94C50E212F13
:105230004FE768E070E082E190E00E94580E9FC165
:10524000012F21E030E048E554E060E070E080E0CC
:1052500090E00E94C50EE0911A0984E0E89FF001F9
:105260001124E85BFE4F4281538121E030E069E088
:1052700070E082E090E00E94C50E88E0E82EF12CFC
:1052800090E2892E912C8091130990E08E159F0554
:105290000CF075C15401AE18BF08C12CD12C3701D8
:1052A00087E0680E711C809113099701281B310952
:1052B000C216D30664F4412FB301C5010E941E0D2E
:1052C0009FEFC91AD90A2FEFA21AB20AECCF31E028
:1052D000E31AF108D8CF012F23E030E04EE554E087
:1052E00060E070E082E090E00E94C50E80911209BB
:1052F00016C1E09120098E2F90E08830910508F0CA
:10530000F8C0FC01EF57FF4F0C94CE61012F21E054
:1053100030E046E654E060E070E082E090E00E9419
:10532000C50EE0911A0994E0E99FF0011124E85BB1
:10533000FE4F4281538121E030E049C0012F21E03E
:1053400030E049E654E060E070E081E090E00E94E7
:10535000C50E80918C130091261321E030E0882344
:1053600019F04BE855E002C042E554E068E070E017
:105370008AE090E0BCC080918C13811104C087E06A
:1053800080932009B6C0012F21E030E04EE654E0C2
:1053900060E070E081E090E00E94C50E809111090C
:1053A000813041F070F40091261321E030E043E7B2
:1053B00054E00DC00091261321E030E04AE754E0AC
:1053C00006C00091261321E030E041E854E068E097
:1053D00070E080E090E08BC0012F21E030E048E8F1
:1053E00054E060E070E081E090E00E94C50E8091A2
:1053F0000F0935C0012F21E030E043E954E060E0BF
:1054000070E081E090E00E94C50E809110091F922B
:105410008F9380E994E09F938F931F9288E08F93FE
:105420009E012F5F3F4F79013F932F930E946C6342
:105430000091261321E030E0A70168E070E08AE0E7
:1054400090E027C0012F21E030E047E954E060E020
:1054500070E081E090E00E94C50E8091250B1F92C4
:105460008F938DE894E09F938F931F9288E08F93A2
:105470009E012F5F3F4F79013F932F930E946C63F2
:105480000091261321E030E0A70168E070E080E0A1
:1054900090E00E94C50E0FB6F894DEBF0FBECDBFE0
:1054A00028C0012F21E030E04CE954E060E070E0DA
:1054B00081E090E00E94C50E80910E0900912613B4
:1054C00021E030E0882319F04FE458E002C04CE8B6
:1054D00055E068E070E084E190E009C0012F21E030
:1054E00030E041EA54E060E070E081E090E00E944A
:1054F000C50E80912009882309F441C081E0809382
:105500002D093DC0012F21E030E046EA54E060E083
:1055100070E082E090E00E94C50E80914209009107
:10552000261321E030E0882319F04BE855E002C053
:1055300042E554E068E070E08AE090E01EC000912F
:10554000261321E030E049EA54E060E070E080E0BA
:1055500090E00E94C50EE0911A0994E0E99FF001E5
:105560001124E85BFE4F428153810091261321E014
:1055700030E069E070E080E090E00E94C50E28967F
:105580000FB6F894DEBF0FBECDBFDF91CF911F9154
:105590000F91FF90EF90DF90CF90BF90AF909F90D2
:1055A0008F907F906F9008950F931F938091330990
:1055B00090913409A0913509B0913609892B8A2B35
:1055C0008B2BA9F00E9467230091330910913409B5
:1055D0002091350930913609DC01CB01801B910BFC
:1055E000A20BB30B80389E4EA643B10510F042E0EB
:1055F00001C041E060E070E08FE190E01F910F9109
:105600000C941E0DCF92DF92EF92FF920F931F9397
:10561000CF93DF9300D000D01F92CDB7DEB7182F05
:10562000843051F40E94CD6623E030E040E050E049
:105630000E94016A11E0160F80912C09882309F459
:1056400051C00E946723C0902713D0902813E09088
:105650002913F0902A13DC01CB018C199D09AE09A6
:10566000BF09853F9140A105B105B8F00E946723AD
:1056700060932713709328138093291390932A1310
:1056800080912709882339F080912B0B882319F00A
:1056900010922B0B02C010932B0B809124098823AE
:1056A00041F080912B0B80932A0B1093290B1093C0
:1056B000280B80912309882341F010932A0B8091B5
:1056C0002B0B8093290B1093280B809122098823A0
:1056D00079F010932A0B1093290B80912B0B809358
:1056E000280B06C010932A0B1093290B1093280B3C
:1056F0000E94C31B0E94011C9F938F9388EF97E029
:105700009F938F931F9215E01F93CE0101967C010A
:105710009F938F930E946C6300912A0B22E030E0EC
:10572000A70160E070E081E090E00E94C50E0E9459
:10573000D31B9F938F938FEAC82E84E0D82EDF92DD
:10574000CF921F921F93FF92EF920E946C63009181
:10575000290B22E030E0A70160E070E084E190E0F6
:105760000E94C50E0E94B91B9F938F93DF92CF9228
:105770001F921F93FF92EF920E946C630091280B7F
:1057800021E030E0A70168E070E085E090E00E9451
:10579000C50E0FB6F894DEBF0FBECDBF0F900F90B1
:1057A0000F900F900F90DF91CF911F910F91FF906D
:1057B000EF90DF90CF9008958AEC9DE00E944C1D01
:1057C0006091F71270E080E090E040E10E94072FC6
:1057D00087EC9DE00E944C1D6091F81270E080E023
:1057E00090E040E10E94072F8AEE92E00E94F52EA1
:1057F000FFCF0C94F3690C94E16980918C1388239A
:10580000F9F0809103018823D9F0F89480E095EEB7
:105810000E943C257894F89485E092E80E943C250B
:10582000789484E080938B13109203018CEB9DE0BD
:105830000E945C1D65E070E080E090E00C942D23F8
:1058400008951F93CF93DF931F92CDB7DEB789835F
:105850000E946E330E94E20B91E090932A0910920D
:105860002909898190E0FC01E95EF64F208123300F
:1058700011F02F5F20832081273010F021E020835A
:10588000DC01A05EBC4E2C9127FD05C0208122309A
:1058900011F424E02083DC01AD5DB44F2C91211183
:1058A00005C03081333011F434E03083108113307F
:1058B000F1F070F4113091F0123099F50E94E20B82
:1058C00010922B0981E080932A098093220B29C032
:1058D0001530E1F0C0F01630F9F023C00E94E20B61
:1058E00010922B0910932A091093220B1AC022231D
:1058F00099F0FC01E55EF64F80818F5F893008F0FA
:1059000081E0808309C00E94E20B06C01092220B46
:1059100081E08093210B05C081E08093220B1092DF
:10592000210B0F90DF91CF911F910895CF93DF93BB
:10593000C82FD0E0FE01E65EFC4EDE01A65BBE4F46
:105940008C91608190E00E94F92B6FE070E080E024
:1059500090E00E942D23FE01E85EFC4EDE01A85B74
:10596000BE4F8C91608190E00E94F92B6FE070E057
:1059700080E090E00E942D23CB5ED64F1882DF910D
:10598000CF910895CF9390910B019923D1F0C82F17
:105990000E94FD2BC23069F028F4C13091F483EBF2
:1059A00094E00CC0C33041F0C43059F481ED94E070
:1059B00005C08DEB94E002C087EC94E0CF910C948D
:1059C0006109CF9108950F931F938091430981112D
:1059D00005C080913909882309F4A5C09091460932
:1059E00080914409911110C0882311F080E005C016
:1059F00080914509882369F081E00E94FA0910929C
:105A0000390910923C098FC0882319F081E08093F6
:105A10001C1380914509882319F081E080931D13A0
:105A200081E08093430990913C099923D1F19091B1
:105A300039099330B9F410922A0980930A018091B0
:105A40000A01873030F40E948B3580910A018F5F04
:105A5000F4CF10923E0910923F0910924009109223
:105A6000410911C0923099F410922A0990910A01CB
:105A7000983010F080930A010E948B3580910A01C2
:105A80008F5F80930A011092390910923C090E949D
:105A9000672360933E0970933F0980934009909378
:105AA000410980913E0990913F09A0914009B09130
:105AB0004109892B8A2B8B2BA9F00E946723009127
:105AC0003E0910913F092091400930914109DC01C4
:105AD000CB01801B910BA20BB30B88389341A1051E
