:100000000C94D5080C946B320C9440320C9415323D
:100010000C94FF080C94FF080C94FF080C94FF0844
:100020000C94FF080C94AD320C94FF080C94FF085C
:100030000C94FF080C94CE250C947B250C94FF089F
:100040000C94FF080C94FF080C94CB310C94FF081F
:100050000C94BA300C9490300C94FF080C94FF0868
:100060000C94FF080C94FF080C9497350C94FF082F
:100070000C94FF080C94FF080C94FF080C94FF08E4
:100080000C94FF080C94FF080C94FF081D132C130C
:100090005D137A139813A913BA13D813E9137814BC
:1000A0008914F813FC13111427143E1455146C14FE
:1000B0007514DB14E114FD140515121516151A1527
:1000C0001E152215261536153C15401544155315D9
:1000D00057155B155F157015231B401B891BB31B40
:1000E000E11B101C371C821C901C991DB61D9D1C09
:1000F000B51CD21C031D111D391D681D851D032251
:10010000162229223C224F22622275229122152496
:1001100019241D24232427242B2431243524852C21
:10012000882C7B2C7F2C9F2C9F2C8C2C902C962CFD
:100130009A2C523C6C3CB43CD93CF83C1D3D3C3DB7
:10014000613D803DF03ED63DFB3D203E453E703E4C
:10015000953EC23EF03EF547BE489F49B149C7496A
:10016000CC49744AE848EB48EE48F148F448F7486F
:10017000FA48556E61626C6520746F2066696E6422
:10018000206164647265737320666F7220446576C3
:100190006963652030004F4646004F4E004453319E
:1001A0003842323020706172617369746520706FFB
:1001B0007765722069733A2000206465766963650B
:1001C000732E00466F756E6420004E6F2076616C52
:1001D00069642046415420706172746974696F6E5D
:1001E000210043616E2774206F70656E20726F6FFF
:1001F000742064697221004361726420696E6974BD
:100200002E206661696C6564210052544320686148
:100210007320736574207468652073797374656DD9
:100220002074696D6500556E61626C6520746F2085
:1002300073796E63207769746820746865205254FE
:10024000430045786974206D656E75005600426103
:1002500074746572793A00526563656976696E6790
:1002600020446174612E2E2E0052652D656E6162F0
:100270006C6520526164696F00000000000000009E
:1002800000000808080800080000361224000000DA
:10029000000000143E143E140000081E281C0A3CF6
:1002A0000000003234081626000000182418261E0C
:1002B00000001818100000000000081010101008AE
:1002C0000000100808080810000000082A082A0882
:1002D00000000008083E08080000000000001808A0
:1002E00010000000003E00000000000000000C0CA8
:1002F000000000020408102000001C262626261CF0
:1003000000000C1C0C0C0C1E00001C260C18303EAF
:1003100000003E061C06261C000026263E06060699
:1003200000003E303C06261C00001C203C26261CFB
:1003300000003E060C18181800001C261C26261C5F
:1003400000001C261E06261C0000000C0C000C0CD5
:100350000000000C0C000C04080000040810080445
:10036000000000003E003E000000001008040810DD
:1003700000001C220408000800001C262A2E201E53
:1003800000001C22223E222200003C223C22223C71
:1003900000001C222020221C00003C222222223CA1
:1003A00000003E203C20203E00003E203C2020203B
:1003B00000001C202026221E000022223E22222293
:1003C00000001C080808081C00003E020202221C53
:1003D0000000222438382422000020202020203E43
:1003E000000022362A222222000022322A2622223D
:1003F00000001C222222221C00003C223C20202043
:100400000000182424242C1A00003C223C22222222
:1004100000001E201C02221C00003E0808080808DC
:10042000000022222222221C000022222214140870
:1004300000002222222A2A14000022140808142272
:10044000000022221408080800003E040810203E84
:1004500000001C101010101C0000201008040200E6
:1004600000001C040404041C000008142200000006
:10047000000000000000003E000008040000000032
:100480000000001C021E223E000020203C22223CD4
:100490000000001C2020201C000002021E22221E40
:1004A0000000001C223E201C00000E10103C10100A
:1004B0000000001E223E02021C0020203C222222BC
:1004C000000008001808081C000008001E02022294
:1004D0001C00202024382422000018080808081CCA
:1004E000000000342A2A2A2A0000002C322222226C
:1004F0000000001C2222221C0000003C223C202084
:100500002000001C241C04040600002E30202020A3
:100510000000001E201C023C0000083E08080806DF
:10052000000000222222221E0000002222221408A3
:1005300000000022222A2A1400000022140814229B
:1005400000000022221E02041800003E0408103E93
:100550000000040808100808040008080808080833
:100560000000100808040808100000102A04000009
:100570000000102810000000000000000000000033
:1005800000000808080800080000361224000000D7
:10059000000000143E143E140000081E281C0A3CF3
:1005A0000000003234081626000000182418261E09
:1005B00000001818100000000000081010101008AB
:1005C0000000100808080810000000082A082A087F
:1005D00000000008083E080800000000000018089D
:1005E00010000000003E00000000000000000C0CA5
:1005F000000000020408102000000C121212120C5D
:100600000000040C0404040E00000C120204081E76
:1006100000001E020C02120C000012121E02020246
:1006200000001E101C02120C00000C101C12120CF8
:1006300000001E020408080800000C120C12120C24
:1006400000000C120E02120C0000000C0C000C0C2E
:100650000000000C0C000C04080000040810080442
:10066000000000003E003E000000001008040810DA
:1006700000001C220408000800001C262A2E201E50
:1006800000001C22223E222200003C223C22223C6E
:1006900000001C222020221C00003C222222223C9E
:1006A00000003E203C20203E00003E203C20202038
:1006B00000001C202026221E000022223E22222290
:1006C00000001C080808081C00003E020202221C50
:1006D0000000222438382422000020202020203E40
:1006E000000022362A222222000022322A2622223A
:1006F00000001C222222221C00003C223C20202040
:100700000000182424242C1A00003C223C2222221F
:1007100000001E201C02221C00003E0808080808D9
:10072000000022222222221C00002222221414086D
:1007300000002222222A2A1400002214080814226F
:10074000000022221408080800003E040810203E81
:1007500000001C101010101C0000201008040200E3
:1007600000001C040404041C000008142200000003
:10077000000000000000003E00000804000000002F
:100780000000001C021E223E000020203C22223CD1
:100790000000001C2020201C000002021E22221E3D
:1007A0000000001C223E201C00000E10103C101007
:1007B0000000001E223E02021C0020203C222222B9
:1007C000000008001808081C000008001E02022291
:1007D0001C00202024382422000018080808081CC7
:1007E000000000342A2A2A2A0000002C3222222269
:1007F0000000001C2222221C0000003C223C202081
:100800002000001C241C04040600002E30202020A0
:100810000000001E201C023C0000083E08080806DC
:10082000000000222222221E0000002222221408A0
:1008300000000022222A2A14000000221408142298
:1008400000000022221E02041800003E0408103E90
:100850000000040808100808040008080808080830
:100860000000100808040808100000102A04000006
:100870000000102810000000000000000000000030
:10088000000004040404000400000505000000004A
:100890000000000C0F0C0F0C000004060C06060CE8
:1008A0000400003234081626000000182418261E02
:1008B00000001818100000000000081010101008A8
:1008C0000000100808080810000000082A082A087C
:1008D00000000008083E080800000000000018089A
:1008E00010000000003E00000000000000000200B8
:1008F00000000002040810200000020505050200A7
:1009000000000206020207000000060102040700C0
:1009100000000701060106000000050507010100AF
:100920000000070407010600000003040705020099
:100930000000070102040400000007050705070086
:100940000000070507010600000000020002000089
:100950000000000606000602040000010204020175
:10096000000000000700070000000004020102046C
:100970000000060102040004000006090B0B080633
:100980000000020505070505000006050605050629
:100990000000020504040502000006050505050621
:1009A000000007040604040700000704060404040A
:1009B00000000304040505030000050507050505FF
:1009C0000000070202020207000007010101050200
:1009D00000000505060605050000040404040407DC
:1009E00000000507070505050000050705050505C5
:1009F00000000205050505020000060506040404C2
:100A000000000205050507030000060506050505AB
:100A100000000304020105020000070202020202B4
:100A2000000005050505050700000505050505028B
:100A3000000005050505070700000505020205057C
:100A40000000050505020202000007010204040778
:100A5000000006040404040600000404020101006E
:100A6000000003020202020300000205050000006C
:100A7000000000000000000700000201000000006C
:100A8000000000060107050700000404070505072C
:100A9000000000030404040300000101070505072A
:100AA0000000000204070403000003020207020220
:100AB0000000000305070101060004040705050501
:100AC0000000020006020207000001000701010504
:100AD00002000004050605050000060202020207E6
:100AE00000000006070705050000000605050505CE
:100AF00000000002050505020000000605060404CA
:100B000004000003050701010100000304040404BC
:100B100000000003040201060000020702020201B5
:100B20000000000505050503000000050505050298
:100B30000000000505050707000000050502050582
:100B40000000000505070101060000070102040777
:100B5000000001020204020201000202020202027B
:100B60000000040202010202040000040B01000064
:100B70000057726974696E67206E6577204677202A
:100B800076657273696F6E00436F756C646E27745F
:100B9000206F70656E2066696C6520004E6F742052
:100BA000612076616C696420574156004469737016
:100BB0006C6179204F7074696F6E73204D656E752E
:100BC00000446973706C61792053797374656D208A
:100BD0004D656E7500446973706C61792044617471
:100BE000652F54696D65204D656E7500446973709D
:100BF0006C617920416C726D2032204D656E7500FC
:100C0000446973706C617920416C726D2031204DA4
:100C1000656E75005363726F6C6C2054656D700067
:100C20005363726F6C6C2044617465004869676837
:100C3000207261746520667261676D656E746564AB
:100C40002066696C65210053616D706C652072616E
:100C5000746520746F6F206869676821004D6F723A
:100C600065207468616E203136206269747320706B
:100C700065722073616D706C652100205761726E22
:100C8000696E672073746572656F2066696C652193
:100C9000004E6F74206D6F6E6F2F73746572656F89
:100CA0002100436F6D7072657373696F6E206E6F94
:100CB0007420737570706F72746564000E1F131367
:100CC0001313131313131F0E060E1E060606060635
:100CD00006061F1F1E1F030303060C1818181F1FEC
:100CE0001E1F0303030E0E0303031F1E18181818FC
:100CF0001B1F1F03030303031F1F1818181E1F03C6
:100D000003031F1E0E1F1818181E1F1313131F0E88
:100D10001F1F030303060C18181818180E1F1313AF
:100D2000130E0E1313131F0E0E1F1313131F0F0397
:100D300003031F0E00000000000000000000000080
:100D40001F1F1B1B1B1B1B1B1B1B1F1F0C0C0C0C1F
:100D50000C0C0C0C0C0C0C0C1F1F0303031F1F1896
:100D600018181F1F1F1F0303031F1F0303031F1F49
:100D70001B1B1B1B1B1F1F03030303031F1F181831
:100D8000181F1F0303031F1F1F1F1818181F1F1BE7
:100D90001B1B1F1F1F1F0303030303030303030383
:100DA0001F1F1B1B1B1F1F1B1B1B1F1F1F1F1B1B73
:100DB0001B1F1F0303031F1F000000000000000093
:100DC000000000000E1F1B1B1B1B1B1B1B1B1F0EF1
:100DD00002060E060606060606061F1F0E1F030362
:100DE00003060C1818181F1F0E1F0303030E0E0313
:100DF00003031F0E030306060C0C1B1F0303030350
:100E00001F1F1818181E0F0303031F0E0E1F18189C
:100E1000181E1F1B1B1B1F0E1F1F030303060C188E
:100E2000181818180E1F1B1B1B0E0E1B1B1B1F0E4A
:100E30000E1F1B1B1B1F0F0303031F0E00000000D0
:100E400000000000000000001F111111111111110C
:100E50001111111F04040404040404040404040410
:100E60001F010101011F10101010101F1F010101AF
:100E7000011F01010101011F11111111111F0101B8
:100E8000010101011F101010101F01010101011FBC
:100E90001F101010101F11111111111F1F0101013E
:100EA00001010101010101011F111111111F111196
:100EB0001111111F1F111111111F01010101011F3A
:100EC0000000000000000000000000000E111111E1
:100ED000111111111111110E040C04040404040465
:100EE0000404041F0E110101010204081010101F58
:100EF0000E110101010E01010101110E111111115B
:100F0000111F0101010101011F101010101E01012C
:100F10000101110E0E111010101E11111111110EE0
:100F20001F01010101020408101010100E1111110F
:100F3000110E11111111110E0E111111110F0101CC
:100F40000101110E00000000000000000000000080
:100F500000002000230026002900020202020202F3
:100F6000020204040404040404040303030303034B
:100F70000303010101010101010101020408102024
:100F80004080010204081020408001020408102063
:100F900040800102040810204080526164696F2083
:100FA0004F666621002C20000D0A534420492F4F24
:100FB000206572726F723A200045786974696E67B5
:100FC00020514D656E75004E6F7420612076616C06
:100FD00069642057415600436F756C646E27742016
:100FE0006F70656E2066696C65200000002100242A
:100FF0000027002A0000002200250028002B000006
:101000000000010200090A000000000403080700B4
:10101000000000000000000000000000000000458B
:1010200072724A616E4665624D61724170724D61C5
:10103000794A756E4A756C4175675365704F637474
:101040004E6F7644656300005EBCE2613FDD83C2A3
:101050009C7E20A3FD1F419DC3217FFCA2401E5FFB
:1010600001E3BD3E6082DC237D9FC1421CFEA0E106
:10107000BF5D0380DE3C62BEE0025CDF81633D7CDD
:1010800022C09E1D43A1FF4618FAA427799BC58460
:10109000DA3866E5BB5907DB856739BAE4065819C3
:1010A00047A5FB7826C49A653BD987045AB8E6A7BA
:1010B000F91B45C6987A24F8A6441A99C7257B3AA5
:1010C0006486D85B05E7B98CD2306EEDB3510F4E14
:1010D00010F2AC2F7193CD114FADF3702ECC92D393
:1010E0008D6F31B2EC0E50AFF1134DCE90722C6D6E
:1010F00033D18F0C52B0EE326C8ED0530DEFB1F075
:10110000AE4C1291CF2D73CA947628ABF5174908CF
:1011100056B4EA6937D58B5709EBB536688AD4954A
:10112000CB2977F4AA4816E9B7550B88D6346A2B31
:101130007597C94A14F6A8742AC896154BA9F7B62C
:10114000E80A54D7896B3557726974696E6720490C
:101150006E697469616C2073657474696E6773205D
:10116000746F20454550524F4D212121004E414E74
:10117000494E495459494E46CDCCCC3D0AD7233C23
:1011800017B7D13877CC2B329595E6241FB14F0A8B
:10119000000020410000C84200401C4620BCBE4C5C
:1011A000CA1B0E5AAEC59D745D5F11241FBECFEFE2
:1011B000D0E4DEBFCDBF18E0A0E0B1E0E4EDF4ED97
:1011C00000E00BBF02C007900D92AA3EB107D9F70D
:1011D00023E1AAEEB8E001C01D92A739B207E1F7FA
:1011E00018E0C5EDD8E004C02197FE010E94D2614D
:1011F000C43DD107C9F70E94F34D0C94686A0C9462
:101200000000662351F05C98962F982311F05E9AA7
:1012100001C05E985C9A6695F4CF08955F9A5F98D6
:1012200008951F93CF93DF93EC0197FF02C05D9861
:1012300003C05D9A892B59F40E940E090E940E0981
:101240000E940E09DF91CF911F910C940E090E940C
:101250000E090E940E090E940E090E940E095D9857
:101260000E940E095D9A11E0812F90E08C179D0776
:1012700024F40E940E091F5FF7CFDF91CF911F91D9
:1012800008951F93CF93DF931F92CDB7DEB7162F2C
:1012900090E049830E94110964E085E00E94010901
:1012A00060E4812F0E94010968E04981842F0E9437
:1012B000010980E090E00F90DF91CF911F910C9495
:1012C0001109CF93DF93EC010E94141F809111123A
:1012D000882321F087E092E10E94DF36CE010E9450
:1012E0005C19811114C064E170E080E090E00E941C
:1012F0008531CE010E945C19811109C088E89BE00C
:101300000E94C936CE010E9406170E9483610E9486
:10131000A617811106C08CE99BE0DF91CF910C9458
:10132000D9368091130980931612DF91CF910C94D6
:10133000F518CF93DF9300D0CDB7DEB70FB6F89492
:10134000A8952091600028612093600010926000B1
:101350000FBEA89589839A830E94141F89819A8160
:101360000E946109809111128111FCCF99E288E1FC
:101370000FB6F894A895809360000FBE909360001C
:101380000F900F90DF91CF910895CF93DF93C82FE7
:10139000D0E0FE01EC5BF64F808181110AC08091A4
:1013A0004609811123C0DE01A85FBE4F9C919A308F
:1013B000F0F4DE01A157BD4E81E08C931082FE0156
:1013C000E85FFE4F8AE080838AEB93E00E949909F0
:1013D000FE01EF56FD4E8081CA5FDE4F863018F465
:1013E00087E0888301C0188281E001C080E0DF913E
:1013F000CF910895CF92DF92EF92FF920F931F93B8
:10140000CF93DF93C82FD0E08E010C5B164FF8010D
:101410008081882399F10E94FD3B2AE0C22ED12CC5
:10142000B6010E94BE619E01285F3E4F7901892B63
:1014300011F489E006C00E94FD3BB6010E94BE6126
:101440008150F7018083F8011082C157DD4E81E0A1
:10145000888387E092E10E94DF3618821092430968
:1014600068EE73E080E090E0DF91CF911F910F91E3
:10147000FF90EF90DF90CF900C948531DF91CF916A
:101480001F910F91FF90EF90DF90CF900895CF9331
:10149000DF93C82FD0E0FE01ED56FD4E808187FF1F
:1014A0002FC020918D1330E0FE01E357FD4E808167
:1014B00090E001962817390719F50E94FD3BFE01BF
:1014C000E557FD4E208130E082179307C9F4FE01F5
:1014D000EC5BF64F1082FE01E157FD4E1082FE01DB
:1014E000EF56FD4E8081FE01EA5FFE4F863018F414
:1014F00087E0808301C01082C85FDE4F8AE0888366
:10150000DF91CF910895CF9383E090E00E94121F66
:10151000C82F8093931281E090E00E94121F809365
:101520008D1282E090E00E94121F80938B1287E060
:1015300090E00E94121F80939112CC0F8C2F90E0AC
:10154000959587958C37910519F410927B1206C0FA
:101550008F379105D1F381E080937B128BE090E08F
:101560000E94121FC82F8093941289E090E00E947D
:10157000121F80938E128AE090E00E94121F8093C7
:101580008C128CE090E00E94121F80939212CC0F7C
:101590008C2F90E0959587958C37910519F08F37B2
:1015A000910519F410927C1203C081E080937C12A3
:1015B00080E090E00E94121F91E0811101C090E054
:1015C00090938E1384E090E00E94121F8093140980
:1015D00085E090E00E94121F9FEF980F933008F073
:1015E00083E08093470988E090E00E94121F809377
:1015F0007F128DE090E00E94121F91E0811101C0E6
:1016000090E0909304018EE090E00E94121F91E020
:10161000811101C090E090937E128FE090E00E94D3
:10162000121F8093130980E190E00E94121F8093A3
:10163000310985E190E00E94121F8093300981E119
:1016400090E00E94121FC82F8093201382E190E047
:101650000E94121F91E0811101C090E09093120945
:1016600084E190E00E94121F80931F1386E190E0B6
:101670000E94121F91E0811101C090E090938C13A1
:1016800091110FC0C2FF05C094E08C2F8927809371
:1016900020139091201391FF04C082E0892780934A
:1016A00020130E94A34C8C329140A1F081E79BE073
:1016B0000E94D9366CE289E190E00E94101F61E03F
:1016C0008AE190E00E94101F6FE070E080E090E0FF
:1016D0000E94853187E190E00E94121F91E0811104
:1016E00001C090E0909342098BE190E00E94121FAC
:1016F000809311098EE190E00E94121F80930F09E0
:101700008FE190E00E94121F80938D0A80E290E0AA
:101710000E94121F8093100981E290E00E94121F24
:1017200080937D1282E290E00E94121F91E081116D
:1017300001C090E090930E09CF910895CF93C62FEA
:1017400090E00E94110964E084E00E94010960E8D1
:101750008C2F0E94010961E080E00E94010980E075
:1017600090E0CF910C941109EF92FF921F93CF93C9
:10177000DF9300D000D01F92CDB7DEB795E0E3E253
:10178000F1E0DE01119601900D929A95E1F7863015
:1017900008F085E011E07E01E80EF11CF7016081A0
:1017A0006056812F0E949E0B1F5F1530B9F70F9076
:1017B0000F900F900F900F90DF91CF911F91FF909E
:1017C000EF900895CF938DE899E044E0480F20E032
:1017D00030E0FC01E20FF31F10822C5F3F4F211518
:1017E00051E03507B1F701964813F1CFC0E040E072
:1017F0006C2F81E00E94410940E06C2F82E00E9442
:10180000410940E06C2F83E00E94410940E06C2FC9
:1018100084E00E944109CF5FC03649F7CF91089517
:10182000CF9380E00E94FA0981E00E94FA0980913A
:101830004609882309F400C10E94BF3160933E0924
:1018400070933F09809340099093410982E00E9480
:10185000D91F80912109833099F038F4813061F0EB
:10186000823009F0E7C081E008C0843009F47DC00F
:10187000853009F4A2C0DEC080E00E94381FDAC0C3
:101880000E94E20B0E94CE4710922A0991E09093A9
:101890002C0910922909809119098F5F873018F45B
:1018A0008093190902C090931909C0911909C33096
:1018B000A1F168F4C130E1F0C23009F0BBC0109270
:1018C000260981E080932509109224093DC0C53086
:1018D00009F43FC090F1C63009F0ACC081E08093BC
:1018E0008E0A10922B09109222090E94392BA2C055
:1018F0000E94E20BC0930001C0932C0910922B09A7
:10190000C0932609109225091092240910922309E8
:101910001092220910928E0A8DC0109200010E942E
:10192000E20B81E080932B09109226091092250981
:10193000109224098093230909C01092260910925D
:10194000250981E08093240910922309109222092D
:1019500071C0109226091092250910922409109244
:10196000230981E08093220965C00E94E20B109256
:101970002A0910922C0991E09093290980911A0963
:10198000893079F480912009811102C08AE00AC06F
:101990008F5F883018F48093200906C09093200947
:1019A00003C08F5F80931A0980911A098C3008F464
:1019B00041C081E080931A093DC00E94E20B0E9461
:1019C000E20B10922A0910922C091092290991E039
:1019D0009093280980911D09813079F490911E0916
:1019E000911102C082E01BC09F5F9A3018F490935F
:1019F0001E0917C080931E0914C0823079F48091AB
:101A00001F09811102C083E00AC08F5F893018F47A
:101A100080931F0906C090931F0903C08F5F8093B6
:101A20001D0980911D09843018F081E080931D0903
:101A30000E94E20B10923809CF910895EF92FF9225
:101A40001F93CF93DF939B018032910508F02AC149
:101A50006031710508F026C1542F507144FF70C0E9
:101A60004370582F52955F706830710514F0E2E0B2
:101A700001C0E0E0E50F22FB992790F98F70880FF5
:101A8000890F237060E870E002C0759567952A950C
:101A9000E2F790E0F0E0423011F14330C1F1262F3F
:101AA0002095DC01AA0FBB1FAA0FBB1FAE0FBF1FE3
:101AB000A357B64F3C91413019F032233C9302C0FA
:101AC000632B6C938096880F991F880F991FE80FDE
:101AD000F91FE357F64F808128232083E3C0DC0100
:101AE000AA0FBB1FAA0FBB1FAE0FBF1FA357B64F36
:101AF000262F20953C9123232C939C01205E3F4F61
:101B0000220F331F220F331FE20FF31F13C0DC011C
:101B1000AA0FBB1FAA0FBB1FAE0FBF1FA357B64F05
:101B20002C91262B2C938096880F991F880F991F34
:101B3000E80FF91FE357F64F8081862B8083B2C0F0
:101B4000443008F0AFC0BC01E4E075956795EA95B4
:101B5000E1F7283031050CF052E0560F8F709927CD
:101B6000880F22FB662760F9182F160F2370332782
:101B700088E090E07C0102C0F594E7942A95E2F7B2
:101B8000612F70E0C52FD0E09B01220F331F220F81
:101B9000331FF901EC0FFD1FE357F64F9081892F9A
:101BA0008E21A1E009F4A0E0FB01B096EE0FFF1F2B
:101BB000EE0FFF1FEC0FFD1FE357F64F80818E21C4
:101BC00009F082E08A0F481709F46CC0413039F1FE
:101BD00048F0423009F441C0433009F063C0492F56
:101BE0004E293EC0E094492F4E212C0F3D1FF90194
:101BF000E357F64F4083FF24F394F50E612F8F2DAA
:101C00000E94410960E2610FFE0184E0689FE00DDF
:101C1000F11D1124E357F64F90814E2D1CC0492F22
:101C20004E292C0F3D1FF901E357F64F4083FF2447
:101C3000F394F50E612F8F2D0E94410960E2610F30
:101C4000FE0184E0689FE00DF11D1124E357F64F7B
:101C50004E2D4095908149231CC04E2D409549231F
:101C60002C0F3D1FF901E357F64F4083FF24F394F7
:101C7000F50E612F8F2D0E94410960E2610FFE0178
:101C800084E0689FE00DF11D1124E357F64F408179
:101C90004E2940838F2DDF91CF911F91FF90EF90C0
:101CA0000C944109DF91CF911F91FF90EF9008951F
:101CB0002F923F924F925F926F927F928F929F925C
:101CC000AF92BF92CF92DF92EF92FF920F931F934A
:101CD000CF93DF93582E492E322EA895403214F020
:101CE000405201C040E03B015B0128E0A20EB11C64
:101CF00038E0439FE0011124C61BD70B85E0882EF6
:101D0000912C832D8071282EF301EC0FFD1FE758D5
:101D1000FD4FE491E52CF42CC12CD12C0E2F10E0BA
:101D2000C4018C199D09980102C0359527958A95A3
:101D3000E2F720FF02C0432D01C0422DB301C701CD
:101D40000E941E0D3FEFC31AD30A8FEFE81AF80A5C
:101D500026E0C216D10421F73FEF631A730A6A1412
:101D60007B0491F6DF91CF911F910F91FF90EF903F
:101D7000DF90CF90BF90AF909F908F907F906F90AB
:101D80005F904F903F902F9008952F923F924F92E7
:101D90005F926F927F928F929F92AF92BF92CF92FB
:101DA000DF92EF92FF920F931F93CF93DF93CDB704
:101DB000DEB72A970FB6F894DEBF0FBECDBFF82E60
:101DC000192F6B012A011901A895043051F40E94C2
:101DD000D16623E030E040E050E00E94056A01E077
:101DE000060FF9861A8729853A853A832983720175
:101DF000C601089698878F83102F1071F201019009
:101E00000020E9F73197CF0184199509970124192A
:101E100035092817390708F0B6C092E029163104B1
:101E200071F0A3E02A16310409F451C0202FB1E06B
:101E30002B16310409F091C0F701408190C0D70101
:101E40008C91A895803214F0805201C080E0360158
:101E5000B8E08B9FC00111249C012C193D093C83E3
:101E60002B83EB81FC81E60DF71DE758FA4FE491D7
:101E700089849A84A12CB12C2E2F30E03E832D83AF
:101E800085E090E08A199B092D813E8102C035953D
:101E900027958A95E2F720FF02C0402F01C0412F0D
:101EA000B301C4010E941E0D3FEFA31AB30A8FEFC6
:101EB000881A980A96E0A916B10411F7AFEF6A1ACA
:101EC0007A0AEF81F8856E167F0659F64DC0D70164
:101ED0008C9180528F3508F080E05601B8E08B9FDE
:101EE000C00111249C012C193D093C832B83EB81FB
:101EF000FC81EA0DFB1DE758F74FE49169807A8079
:101F0000812C912C2E2F30E03E832D8383E090E0B6
:101F1000881999092D813E8102C0359527958A95AA
:101F2000E2F720FF02C0402F01C0412FB501C301DD
:101F30000E941E0D3FEF831A930A8FEF681A780AEA
:101F400094E08916910411F7AFEFAA1ABA0AEF814B
:101F5000F885AE16BF0659F607C0D7014C91B601F9
:101F600089859A850E94580EBFEFEB1AFB0AE98516
:101F7000FA853696FA87E98729813A812C5F3F4FA7
:101F80003A8329833BCF2A960FB6F894DEBF0FBE63
:101F9000CDBFDF91CF911F910F91FF90EF90DF9018
:101FA000CF90BF90AF909F908F907F906F905F90F9
:101FB0004F903F902F9008950F93CF9380914309B6
:101FC0008111E7C00E94C509811170C081E00E94A3
:101FD000C50981116BC00E94BF3160933E097093A7
:101FE0003F0980934009909341090E94BF3160935B
:101FF0008F0A7093900A8093910A9093920AC1E09D
:10200000C09346090E94CE4710922A0910922C09CB
:1020100010922B09809121098F5F863008F4B6C099
:10202000C093210982E00E94D91FE7E1F9E01192F3
:1020300089E0E132F807D9F780912109833009F46A
:102040004AC008F041C08130A1F580E09CE00E94C8
:10205000D9361092000110922909109228090E9485
:10206000E20BE091210984E0E89FF0011124EC5D8E
:10207000FE4F4081518103E021E030E060E070E0FC
:1020800087E090E00E94C50EE091210984E0E89F7E
:10209000F0011124EC5DFE4F4281538121E030E0DC
:1020A00068E070E080E090E00E94C50E1092370971
:1020B00070C08230D9F78CEE9BE00E94D936109226
:1020C000000110922909CBCF843041F0853071F79F
:1020D0008CEA9BE02FC085ED9BE02CC081EC9BE05F
:1020E0000E94D936109200010E94E20BE091210972
:1020F00084E0E89FF0011124EC5DFE4F40815181A6
:1021000003E021E030E060E070E087E090E00E94D2
:10211000C50EE091210984E0E89FF0011124EC5DF7
:10212000FE4F4281538121E030E068E070E081E0C1
:1021300090E0BACF0E94D93610920001109229097E
:102140000E94E20BE091210984E0E89FF001112454
:10215000EC5DFE4F4081518103E021E030E060E022
:1021600070E083E090E00E94C50EE091210984E0D8
:10217000E89FF0011124EC5DFE4F4281538121E084
:1021800030E068E070E083E090E08ECF809321093A
:1021900049CFCF910F910895CF92DF92EF92FF92A6
:1021A0000F931F93CF93DF93CDB7DEB727970FB66B
:1021B000F894DEBF0FBECDBF80913909823029F47B
:1021C00010923C0910923909B3C4833019F402E328
:1021D00010E002C00CE211E00E94BF31C0903E0945
:1021E000D0903F09E0904009F0904109AB01BC015B
:1021F0004C195D096E097F09C801110FAA0BBB0BB1
:10220000481759076A077B0708F492C481E0809356
:102210002E09109227090E94BF3160933E097093E6
:102220003F098093400990934109809121098330AF
:1022300099F038F4813061F0823009F079C481E09E
:1022400008C0843009F4E4C1853009F495C370C432
:1022500080E00E9476236CC40E94C0390E943C3505
:102260008091990A8093960A0E94FD3B80932913DE
:102270000E94C0390E943C358091970A8093950A4C
:102280000E94E53B8093940A0E94F53B80932A13B9
:102290000E94DB3B64E670E00E94BE618093930A7B
:1022A00090911909933009F442C028F4913061F0FB
:1022B000923019F1A4C0953009F469C008F450C0F7
:1022C000963009F479C09BC090913D098091960A9F
:1022D000992311F0815001C08F5F8093960A8091FD
:1022E000960A8F3F21F487E18093960A88C088314F
:1022F00008F485C01092960A82C090913D098091A1
:102300002913992311F0815001C08F5F8093291305
:10231000809129138F3F21F48BE38093291304C00C
:102320008C3310F0109229131092950A68C0909186
:102330003D0980912A13992311F0815001C08F5FCC
:1023400080932A1380912A138F3F21F48FE1809389
:102350002A1355C0803208F452C010922A134FC07D
:1023600090913D098091940A992311F0815001C008
:102370008F5F8093940A8091940A811102C08CE04F
:1023800003C08D30E0F181E08093940A38C09091D1
:102390003D09992311F0815001C08F5F8093930A0A
:1023A0008091930A8D3010F488E203C0893238F1AD
:1023B0008DE08093930A23C081E00E94D91F909101
:1023C0003D0980914F10992311F0815001C08F5F1A
:1023D00080934F1080914F10873010F010924F1063
:1023E00060914F1084E290E00E94101F6FE070E057
:1023F00080E090E00E94853181E080932D090E9469
:10240000BF3100918F0A1091900A2091910A30916A
:10241000920ADC01CB01801B910BA20BB30B893E0E
:102420009340A105B10578F18091950A8F5F8C33B7
:1024300018F48093950A07C01092950A8091291389
:102440008F5F80932913809129138C3338F0109279
:1024500029138091960A8F5F8093960A8091960A3D
:10246000883138F01092960A80912A138F5F8093FA
:102470002A130E94BF3160938F0A7093900A809351
:10248000910A9093920A8091930A90E06091940A45
:1024900050912A132091950A309129134091960A60
:1024A000843691051CF0825B974001C04E96809364
:1024B0009D0A60939C0A50939B0A4093990A30931B
:1024C000980A2093970A87E99AE00E944A3A0E9464
:1024D00099390E94C039AE014F5F5F4F0E940A3B9D
:1024E00001E000935D1388E6F82EF0927E131092BF
:1024F0004A0F1092490F60E08DE49FE00E94223461
:1025000060E88DE49FE00E9422348A811AE0612F06
:102510000E949E61692F20E1829F600D11248DE44D
:102520009FE00E9422348B81612F0E949E61692F5F
:1025300020E1829F600D11248DE49FE00E942234EF
:102540008C81612F0E949E61692F20E1829F600D26
:1025500011248DE49FE00E9422348D81612F0E941E
:102560009E61692F20E1829F600D11248DE49FE020
:102570000E9422348E81612F0E949E61692F20E18A
:10258000829F600D11248DE49FE00E9422348F8190
:102590008E51612F0E949E61692F20E1829F600D04
:1025A00011248DE49FE00E94223481E00E94224D9C
:1025B000882319F01092A51223C00093A51200934E
:1025C0005D13F0927E1310924A0F1092490F60E053
:1025D0008DE49FE00E9422348981612F0E949E61D8
:1025E000692F20E1829F600D11248DE49FE00E94FD
:1025F000223481E00E94224D8111DCCF0093A5128C
:1026000080918E0A882309F493C20E94392B90C2CC
:1026100080911A09882319F081E00E94D91FE09166
:102620001A098E2F90E0FC013197EB30F10508F08C
:102630007FC2EA5BFF4F0C94D26180918E138111AF
:1026400004C081E080938E1302C010928E136091BB
:102650008E1380E090E020C20E94E20B90913D0931
:1026600080911409992311F0815001C08F5F8093EC
:102670001409809114098F3F21F485E08093140997
:1026800004C0863010F0109214096091140984E09F
:1026900090E00E94101F6FE070E080E090E00E94E8
:1026A00085311092841280911409811103C00E9417
:1026B000D1243EC20E94B40B3BC20E94E20B909117
:1026C0003D0980914709992311F0815001C08F5F26
:1026D0008093470980914709811102C083E003C0BC
:1026E000843018F081E0809347096091470985E0C4
:1026F00090E0D2C10E94E20B90913D0980917F123F
:10270000992311F0815001C08F5F80937F128091D7
:102710007F128F3F21F484E080937F1204C08530C4
:1027200010F010927F1260917F1288E090E0B4C1A7
:102730000E94E20B80910401882319F01092040199
:1027400003C081E080930401609104018DE090E07A
:10275000A3C10E94E20B80917E12882319F010928F
:102760007E1203C081E080937E1260917E128EE023
:1027700090E092C10E94E20B90913D098091130973
:10278000992311F08F5F01C08150809313098091CC
:1027900013098F3F21F488E08093130904C0893026
:1027A00010F010921309609113098FE090E074C14A
:1027B0000E94E20B80911209882319F010921209ED
:1027C00003C081E0809312096091120982E190E0D8
:1027D00063C10E94E20BE09120098E2F90E08830C7
:1027E000910508F0A5C1FC01EF5AFF4F0C94D2618E
:1027F00081E0809320099CC180918C13882319F07B
:1028000010928C1309C081E080938C136FE070E00C
:1028100080E090E00E94853160918C1386E190E029
:102820003BC190913D0980911109992311F081508C
:1028300001C08F5F8093110980911109833010F0DE
:1028400010921109609111098BE190E025C19091DE
:102850003D0980910F09992311F0815001C08F5FCC
:1028600080930F0980910F09843618F081E08093DE
:102870000F0960910F098EE190E00EC190913D0922
:1028800080911009992311F0815001C08F5F8093CE
:10289000100980911009843618F081E080931009A6
:1028A0006091100980E290E0F7C090913D0980911D
:1028B0007D12992311F0815001C08F5F80937D12AA
:1028C00080917D12843618F081E080937D126091B2
:1028D0007D1281E290E0E0C060910E0981E06827FE
:1028E00060930E0982E290E0D7C01092200920C1C7
:1028F0000E94E20B80914209882319F0109242094C
:1029000003C081E0809342096091420987E190E031
:10291000C3C00E94E20B0E9451460E94830A10929B
:10292000460910922C0910922B0910922A09109234
:10293000290910922809109227091092260910924D
:10294000250910922409109223091092220910924D
:10295000210910923D09E7E1F9E0119289E0E132A5
:10296000F807D9F711E01093000110922E090E9488
:10297000E20B10932D09DCC080911D09882319F00A
:1029800081E00E94D91F80911D09823009F461C045
:10299000833009F4A8C0813009F0CAC0E0911E0953
:1029A0008E2F90E08A30910508F0C2C0FC01E75AF2
:1029B000FF4F0C94D2610E94E20B81E080931E09CC
:1029C000B7C090913D0980913109992311F0815050
:1029D00001C08F5F8093310980913109811104C05A
:1029E00089E08093310904C08A3010F010923109D7
:1029F0006091310980E190E091C080E29CE00E940A
:102A0000D93660913009605808C084E19CE00E948A
:102A1000D9366091300980E468276093300985E1F8
:102A200090E03AC06091300980E2F6CF60913009C1
:102A300080E1F2CF6091300988E0EECF60913009FB
:102A400081E0EACF6091300984E0E6CF10921E0960
:102A50006FC0E0911F098E2F90E08930910508F03A
:102A600067C0FC01ED59FF4F0C94D2610E94E20B4C
:102A700081E080931F095CC06091201380E407C04F
:102A80006091201380E203C06091201380E16827E9
:102A90006093201381E190E00E94101F65E070E0D8
:102AA00080E090E01AC06091201384E00BC0609138
:102AB000201381E007C06091201382E003C0609181
:102AC000201388E068276093201381E190E00E9442
:102AD000101F6AE070E080E090E00E94853128C01D
:102AE00010921F0925C090913D0980911F139923D1
:102AF00011F0815001C08F5F80931F1380911F13CD
:102B00008F3F21F489E080931F1304C08A3010F0B6
:102B100010921F1360911F1384E190E00E94101F18
:102B200065E070E080E090E00E9485310E94E20B59
:102B300027960FB6F894DEBF0FBECDBFDF91CF91C1
:102B40001F910F91FF90EF90DF90CF9008958F929B
:102B50009F92AF92BF92CF92DF92EF92FF920F932C
:102B60001F93CF93DF93CDB7DEB764970FB6F8947A
:102B7000DEBF0FBECDBF5F87798BF42E411109C038
:102B80006F5F6D3040F02FEFC21AD20A21E061E092
:102B900003C0242F01C021E089898B831A82198206
:102BA00081E08D836E838EE48C0D8F83CE01019640
:102BB0002C8B0E944A3A4B015C010F8510E00E9469
:102BC0003C352C8930E02150310987E0829FF001AB
:102BD000839FF00D112480919A0A9801281B3109D6
:102BE000C901079667E070E00E94BE61DF01A80F8F
:102BF000B91F20E831E541E050E00E942F6A680DDE
:102C0000791D8A1D9B1DF11004C060587A438940CC
:102C1000910964960FB6F894DEBF0FBECDBFDF9169
:102C2000CF911F910F91FF90EF90DF90CF90BF90C9
:102C3000AF909F908F9008952F923F924F925F9206
:102C40006F927F928F929F92AF92BF92CF92DF92BC
:102C5000EF92FF920F931F93CF93DF9300D000D09A
:102C60001F92CDB7DEB78C016983FC010190002073
:102C7000E9F79F01281B390B3D832C8328EF6C81DA
:102C80007D812603C001279F900D11249B838A8399
:102C900080E2E82EF12C93E0492E512C612C712C0E
:102CA0004A01550FAA08BB086A817B816E157F0512
:102CB000CCF567011801C101801B910B2C813D816E
:102CC00082179307C4F43981343041F40E94D166ED
:102CD000A30192010E94056A6F5F6983F10141912E
:102CE0001F01298168E070E0C6010E94580EF8E0DB
:102CF000CF0ED11CE0CF8BE10E94F0300197A1F004
:102D00008CE10E94F030019779F08AE10E94F03066
:102D1000019751F0C501B4010E94853131E0E31AF9
:102D2000F108C2CF81E003C00E94E20B80E00F9067
:102D30000F900F900F900F90DF91CF911F910F91F7
:102D4000FF90EF90DF90CF90BF90AF909F908F90CB
:102D50007F906F905F904F903F902F9008957F925B
:102D60008F929F92AF92BF92CF92DF92EF92FF929B
:102D70000F931F93CF93DF93722E2BE0429F600D32
:102D8000711D11242CE0269F6001279FD00C112477
:102D9000C2E0D0E003965C0132E0C31AD1084501DD
:102DA000C6018C0F9D1FFC01E454F34F7F0104E02A
:102DB00010E0F701649170E0002E02C075956795F0
:102DC0000A94E2F760FF02C0472D01C040E0BE0157
:102DD000C4010E941E0D01501109FFEF8F1A9F0AB6
:102DE0000F3F2FEF120729F72196CE30D105B9F604
:102DF000DF91CF911F910F91FF90EF90DF90CF90D7
:102E0000BF90AF909F908F907F900895009769F04A
:102E1000FC0101900020E9F73197AF01481B590BE5
:102E2000BC0189EA9EE00C94692B80E090E0089553
:102E30008F929F92AF92BF920F931F93CF93DF9386
:102E4000CDB7DEB7A1970FB6F894DEBF0FBECDBFEA
:102E500019A2423008F44AE08E010F5D1F4F842E04
:102E6000912CA12CB12CA50194010E94376AE62F68
:102E7000B901CA0101501109EA3014F4E05D01C042
:102E8000E95CD801EC93232B242B252B61F7C80197
:102E90000E940617A1960FB6F894DEBF0FBECDBFF5
:102EA000DF91CF911F910F91BF90AF909F908F9026
:102EB000089581E480937C0080917A0080648093FF
:102EC0007A0080917A0086FDFCCF80917800209175
:102ED000790090E0922B0895CF93DF930E9406171C
:102EE000EC018AEE92E00E9406178C0F9D1FDF9185
:102EF000CF9108950F931F93CF93DF938C01C0E080
:102F0000D0E0F801EC0FFD1F6491662371F0E091B1
:102F1000A90EF091AA0E0190F081E02D89EA9EE0C1
:102F20000995892B11F02196ECCFCE01DF91CF913D
:102F30001F910F910895E091A90EF091AA0E0190B2
:102F4000F081E02D682F89EA9EE009948F929F928C
:102F5000AF92BF92CF92DF92EF92FF920F931F93A7
:102F6000CF93DF93CDB7DEB762970FB6F894DEBF8D
:102F70000FBECDBF80911912877041F1C09026120B
:102F8000D0902712E0902812F0902912C114D10499
:102F9000E104F10409F050C019C0460157012FEFB8
:102FA000821A920AA20AB20A6B017C01681579059D
:102FB0008A059B0509F045C0B701A601C8010E941A
:102FC000F627611571058105910539F74CE050E050
:102FD000BE016F5F7F4F89E192E10E9423290C9728
:102FE00049F544E050E066EF73E0CE0101960E949F
:102FF0006263892BF9F444E050E06BEF73E0CE019B
:1030000009960E946263892BA9F448E050E0BE0152
:103010006F5F7F4F89E192E10E942329089751F465
:1030200044E050E060E074E0CE0101960E946263EB
:10303000892B01F110E0C5C000912A1210912B12CA
:10304000BBCFF8012289203129F008EF1FEF2FEFC5
:103050003FE004C008EF1FEF20E030E06017710789
:103060008207930708F4B2CF809119128860809389
:103070001912ACCFCD80DE80EF80F8848601C601C6
:103080008D7F409761F4A601BE016F5F7F4F89E19C
:1030900092E10E9423298C159D0561F602C01A82D7
:1030A000198289819A81019739F40231110539F425
:1030B00089899A89892B19F082EA9CE007C08B8163
:1030C00080930712833028F081E99CE00E94D93672
:1030D000B1CF823021F48BE79CE00E94D936EF8596
:1030E000E0930C12E13118F08DE59CE0EFCF2D81DB
:1030F0003E814F81588520930812309309124093E6
:103100000A1250930B12A0910712B0E00E94246A99
:103110006B017C01AE2FB0E09B01AC010E94246AE0
:10312000DC01CB0123E0B695A795979587952A9565
:10313000D1F7F3E2CF16F6E5DF06E104F10438F447
:10314000893828E5920721E0A207B10518F087E445
:103150009CE0BCCF85349C4AA105B10558F0809114
:103160001912182F187083FD05C08CE29CE00E9494
:10317000D93627C089E192E19093181280931712F3
:103180001092121210921312109214121092151221
:103190001092111210920D1210920E1210920F1224
:1031A000109210121092161240E050E060E070E0B1
:1031B00087E092E10E94EE369095192F111F11279A
:1031C000111F812F62960FB6F894DEBF0FBECDBFE0
:1031D000DF91CF911F910F91FF90EF90DF90CF90F3
:1031E000BF90AF909F908F90089587E092E1909369
:1031F000A80E8093A70E40E052E067EA7CE00E94B0
:10320000EE36181619060CF056C027EA3CE030934B
:10321000A60C2093A50C8955934F9093A40C8093F2
:10322000A30C40E052E063EA7AE087E092E10E947A
:10323000EE3697FD40C023EA3AE03093A20A20938D
:10324000A10A8D55954F9093A00A80939F0A81E023
:1032500080939E0A80931112209A219A229A289A8A
:10326000239A2B981092800089E080938100A0918E
:103270000712209108123091091240910A125091C0
:103280000B12B0E00E94246A9B01AC0160E074E282
:1032900084EF90E00E94376A309389002093880081
:1032A00081E090E090938B0080938A0080916F0082
:1032B000826080936F0008958F929F92AF92BF9229
:1032C000EF92FF920F931F93CF93DF93CDB7DEB7AB
:1032D000AD970FB6F894DEBF0FBECDBF8C018091C5
:1032E000391290913A12A0913B12B0913C12809306
:1032F000311290933212A0933312B0933412109281
:1033000035121092361210923712109238124EE285
:10331000F42E90912C129770923008F4C1C040E2C4
:1033200050E0BE016F5F7F4F8CE292E10E94232943
:10333000803209F0B5C09981992309F4B1C0953E56
:1033400071F39E3261F3BC84FB2DF870AF2EB3FC99
:10335000E6CFFE01319690E020E08191803291F03D
:10336000283041F4A1E2B0E0AC0FBD1FA90FB11DA0
:10337000FC929F5FA1E2B0E0AC0FBD1FA90FB11D91
:103380008C939F5F2F5F2B3041F7E1E2F0E0EC0F71
:10339000FD1FE90FF11D1082B801CE0181960E9438
:1033A0003D63892B09F0B5CFE0903D12F0903E12BD
:1033B000F7018289803108F474C04D895E8960E02C
:1033C00070E0BA01552744270B8D1C8D20E030E0BA
:1033D000402B512B622B732B4093261250932712B4
:1033E00060932812709329128B2D887181F481E0EB
:1033F000809319128D8D9E8DAF8DB8A180931A1276
:1034000090931B12A0931C12B0931D122AC08031FE
:1034100009F047C084E080931912812C912C54014B
:10342000C7010E94F627AB01BC014115510561059A
:10343000710579F0F701808190E0982F8827990F26
:10344000092E000CAA0BBB0B880E991EAA1EBB1ED0
:10345000E7CF80921A1290921B12A0921C12B09287
:103460001D12F0922B12E0922A1280912612909156
:103470002712A0912812B091291280931E129093C6
:103480001F12A0932012B0932112109222121092B8
:1034900023121092241210922512AA24A39401C080
:1034A000A12C8A2DAD960FB6F894DEBF0FBECDBF0E
:1034B000DF91CF911F910F91FF90EF90BF90AF9050
:1034C0009F908F9008958F929F92AF92BF92CF92CC
:1034D000DF92EF92FF920F931F93CF93DF936C01D4
:1034E000E0902710F09028100091291010912A10D8
:1034F00020912B1030912C1040912D1050912E10B6
:1035000060912F1070913010809131109091321095
:103510000E94A715C7E2D0E168A379A38AA39BA361
:10352000E3E3F0E1E080F1800281138124813581C1
:103530004681578160857185828593850E94A71594
:103540006B017C016CA37DA38EA39FA3AE89BF8971
:103550002CE330E00E94DB6108A119A12AA13BA164
:1035600048015901861A970AA80AB90A888E998EC5
:10357000AA8EBB8EAA85BB852CE330E00E94DB615E
:10358000C61AD70AE80AF90ACC8EDD8EEE8EFF8EB7
:10359000DF91CF911F910F91FF90EF90DF90CF902F
:1035A000BF90AF909F908F9008956F927F928F926F
:1035B0009F92AF92BF92CF92DF92EF92FF920F93C2
:1035C0001F93CF93DF93CDB7DEB728970FB6F8944C
:1035D000DEBF0FBECDBF109147090E94BF31C09022
:1035E0002213D0902313E0902413F0902513DC01D4
:1035F000CB018C199D09AE09BF09853F9140A105FA
:10360000B10598F00E94BF31609322137093231389
:10361000809324139093251380912113811103C06B
:103620001093211302C010922113E0911A098E2FDA
:1036300090E0FC013197EB30F10508F0B7C2E45996
:10364000FF4F0C94D261012F21E030E045E054E0BF
:1036500060E070E081E090E00E94C50E80918E13E2
:103660000091211321E030E0882319F04BE054E071
:1036700002C042E154E068E070E081E090E094C272
:10368000012F21E030E048E154E060E070E081E0AB
:1036900090E00E94C50E80911409823009F160F417
:1036A0008823B9F0813009F081C20091211321E013
:1036B00030E043E254E0DFCF843001F1C0F08530E8
:1036C00009F074C20091211321E030E046E354E098
:1036D0003FC00091211321E030E04EE154E0CBCF18
:1036E0000091211321E030E049E254E031C0009123
:1036F000211321E030E04DE254E02AC00091211373
:1037000021E030E041E354E068E070E085E090E0E3
:103710004BC2012F21E030E04AE354E060E070E06A
:1037200081E090E00E94C50E80914709823059F0F7
:10373000833099F0813009F039C201E021E030E0B6
:1037400040E454E098CF02E021E030E046E454E069
:1037500068E070E088E090E027C203E021E030E01C
:103760004AE454E088CF012F21E030E040E554E006
:1037700060E070E081E090E00E94C50E80917F12D1
:103780001F928F9385E594E09F938F931F9288E01B
:103790008F93CE0101967C019F938F930E9470635B
:1037A0000091211321E030E0A70168E070E081E0A2
:1037B00090E00E94C50E0FB6F894DEBF0FBECDBFDD
:1037C000F5C1012F21E030E041EF53E060E070E00F
:1037D00082E090E00E94C50EE0911A0934E0E39F78
:1037E000F0011124EE5EFD4F4281538121E030E073
:1037F00068E070E080E090E00E94C50E80910401D6
:103800000091211323E030E0882319F04CE958E0BF
:1038100002C04CE554E068E070E082E190E0C4C191
:10382000012F21E030E04EE855E060E070E082E0FA
:1038300090E00E94C50E80917E120091211321E03C
:1038400030E0882319F049EF53E002C040E654E02D
:1038500068E070E08AE090E00E94C50E212F4FE7FB
:1038600068E070E082E190E00E94580E9FC1012F55
:1038700021E030E042E654E060E070E080E090E07B
:103880000E94C50EE0911A0984E0E89FF00111241E
:10389000EE5EFD4F4281538121E030E069E070E04F
:1038A00082E090E00E94C50E88E0E82EF12C90E2C4
:1038B000892E912C8091130990E08E159F050CF0B4
:1038C00075C15401AE18BF08C12CD12C370187E057
:1038D000680E711C809113099701281B3109C216CB
:1038E000D30664F4412FB301C5010E941E0D9FEF62
:1038F000C91AD90A2FEFA21AB20AECCF31E0E31AA3
:10390000F108D8CF012F23E030E048E654E060E032
:1039100070E082E090E00E94C50E8091120916C10D
:10392000E09120098E2F90E08830910508F0F8C0D2
:10393000FC01E958FF4F0C94D261012F21E030E0E7
:1039400040E754E060E070E082E090E00E94C50E45
:10395000E0911A0994E0E99FF0011124EE5EFD4F19
:103960004281538121E030E049C0012F21E030E065
:1039700043E754E060E070E081E090E00E94C50E13
:1039800080918C130091211321E030E0882319F0FD
:103990004CE958E002C04CE554E068E070E08AE091
:1039A00090E0BCC080918C13811104C087E08093AB
:1039B0002009B6C0012F21E030E048E754E060E084
:1039C00070E081E090E00E94C50E80911109813085
:1039D00041F070F40091211321E030E04DE754E014
:1039E0000DC00091211321E030E044E854E006C00E
:1039F0000091211321E030E04BE854E068E070E0F2
:103A000080E090E08BC0012F21E030E042E954E0FB
:103A100060E070E081E090E00E94C50E80910F09A7
:103A200035C0012F21E030E04DE954E060E070E066
:103A300081E090E00E94C50E809110091F928F9343
:103A40008AE994E09F938F931F9288E08F939E0161
:103A50002F5F3F4F79013F932F930E947063009136
:103A6000211321E030E0A70168E070E08AE090E0F7
:103A700027C0012F21E030E041EA54E060E070E02F
:103A800081E090E00E94C50E80917D121F928F937D
:103A900087E994E09F938F931F9288E08F939E0114
:103AA0002F5F3F4F79013F932F930E9470630091E6
:103AB000211321E030E0A70168E070E080E090E0B1
:103AC0000E94C50E0FB6F894DEBF0FBECDBF28C052
:103AD000012F21E030E046EA54E060E070E081E050
:103AE00090E00E94C50E80910E090091211321E003
:103AF00030E0882319F047E055E002C04DE958E076
:103B000068E070E084E190E009C0012F21E030E03E
:103B10004BEA54E060E070E081E090E00E94C50E66
:103B200080912009882309F441C081E080932D0908
:103B30003DC0012F21E030E040EB54E060E070E058
:103B400082E090E00E94C50E80914209009121130D
:103B500021E030E0882319F04CE958E002C04CE540
:103B600054E068E070E08AE090E01EC0009121130C
:103B700021E030E043EB54E060E070E080E090E072
:103B80000E94C50EE0911A0994E0E99FF00111240A
:103B9000EE5EFD4F428153810091211321E030E020
:103BA00069E070E080E090E00E94C50E28960FB6B4
:103BB000F894DEBF0FBECDBFDF91CF911F910F9163
:103BC000FF90EF90DF90CF90BF90AF909F908F903D
:103BD0007F906F9008950F931F9380913309909178
:103BE0003409A0913509B0913609892B8A2B8B2B8A
:103BF000A9F00E94BF31009133091091340920913E
:103C0000350930913609DC01CB01801B910BA20BE9
:103C1000B30B80389E4EA643B10510F042E001C0C0
:103C200041E060E070E08FE190E01F910F910C9413
:103C30001E0DCF92DF92EF92FF920F931F93CF93BF
:103C4000DF9300D000D01F92CDB7DEB7182F84309D
:103C500051F40E94D16623E030E040E050E00E9441
:103C6000056A11E0160F80912C09882309F451C0D0
:103C70000E94BF31C0902213D0902313E0902413F0
:103C8000F0902513DC01CB018C199D09AE09BF0909
:103C9000853F9140A105B105B8F00E94BF31609306
:103CA00022137093231380932413909325138091F0
:103CB0002709882339F080918312882319F0109204
:103CC000831202C01093831280912409882341F04B
:103CD000809183128093821210938112109380122C
:103CE00080912309882341F01093821280918312DE
:103CF000809381121093801280912209882379F099
:103D000010938212109381128091831280938012FB
:103D100006C01093821210938112109380120E9499
:103D2000E53B0E947E359F938F9385E398E09F93B8
:103D30008F931F9215E01F93CE0101967C019F93F4
:103D40008F930E9470630091821222E030E0A701FD
:103D500060E070E081E090E00E94C50E0E94F53BBB
:103D60009F938F9389EBC82E84E0D82EDF92CF9259
:103D70001F921F93FF92EF920E9470630091811235
:103D800022E030E0A70160E070E084E190E00E9472
:103D9000C50E0E94DB3B9F938F93DF92CF921F92C1
:103DA0001F93FF92EF920E9470630091801221E0B6
:103DB00030E0A70168E070E085E090E00E94C50E69
:103DC0000FB6F894DEBF0FBECDBF0F900F900F90CF
:103DD0000F900F90DF91CF911F910F91FF90EF9077
:103DE000DF90CF90089588EA9FE00E94C9366091E5
:103DF000621270E080E090E040E10E94181785EACE
:103E00009FE00E94C9366091631270E080E090E00C
:103E100040E10E9418178AEE92E00E940617FFCF39
:103E20000C94F7690C94E56980918C138823F9F060
:103E3000809103018823D9F0F89480E095EE0E94E8
:103E4000B2377894F89485E092E80E94B23778947B
:103E500084E080938B13109203018AE99FE00E9413
:103E6000D93665E070E080E090E00C9485310895EB
:103E70001F93CF93DF931F92CDB7DEB789830E9444
:103E8000CE470E94E20B91E090932A0910922909F3
:103E9000898190E0FC01E95EF64F2081233011F02A
:103EA0002F5F20832081273010F021E02083DC0168
:103EB000AD56BD4E2C9127FD05C02081223011F456
:103EC00024E02083DC01A558BD4E2C91211105C0B2
:103ED0003081333011F434E0308310811330F1F04D
:103EE00070F4113091F0123099F50E94E20B1092AB
:103EF0002B0981E080932A0980937A1229C015301A
:103F0000E1F0C0F01630F9F023C00E94E20B1092ED
:103F10002B0910932A0910937A121AC0222399F0C0
:103F2000FC01E55EF64F80818F5F893008F081E00B
:103F3000808309C00E94E20B06C010927A1281E0D1
:103F40008093791205C081E080937A1210927912E1
:103F50000F90DF91CF911F910895CF93DF93C82FDA
:103F6000D0E0FE01E357FD4EDE01AC5EBD4F8C910B
:103F7000608190E00E94101F6FE070E080E090E0B0
:103F80000E948531FE01E557FD4EDE01AE5EBD4F5C
:103F90008C91608190E00E94101F6FE070E080E0E3
:103FA00090E00E948531CB5ED64F1882DF91CF9191
:103FB0000895CF93909104019923D1F0C82F0E94C6
:103FC000141FC23069F028F4C13091F48DEB94E0F5
:103FD0000CC0C33041F0C43059F48BED94E005C0FF
:103FE00087EC94E002C081ED94E0CF910C946109DC
:103FF000CF9108950F931F9380914309811105C0BC
:1040000080913909882309F4A5C0909146098091CF
:104010004409911110C0882311F080E005C08091FF
:104020004509882369F081E00E94FA091092390954
:1040300010923C098FC0882319F081E080938F1281
:1040400080914509882319F081E08093901281E0E6
:104050008093430990913C099923D1F190913909BA
:104060009330B9F410922A098093050180910501DB
:10407000873030F40E94D547809105018F5FF4CFDF
:1040800010923E0910923F09109240091092410986
:1040900011C0923099F410922A099091050198303C
:1040A00010F0809305010E94D547809105018F5F34
:1040B000809305011092390910923C090E94BF318A
:1040C00060933E0970933F098093400990934109A2
:1040D00080913E0990913F09A0914009B09141091A
:1040E000892B8A2B8B2BA9F00E94BF3100913E09AE
:1040F00010913F092091400930914109DC01CB0129
:10410000801B910BA20BB30B88389341A105B1051D
:1041100008F1809143098823E9F089EB9FE00E9430
:10412000D9360E94E20B1092430981E0809300018E
:1041300010922B098093050110922E0910922709E5
:1041400010922A0910922109109217091092180949
:10415000109239091F910F910895AF92BF92CF929B
:10416000DF92EF92FF920F931F93CF93DF93CDB720
:10417000DEB72B970FB6F894DEBF0FBECDBF909180
:104180002A09992309F4A1C2182F809127098823AD
:10419000F1F10E94BF31C0902213D0902313E09020
:1041A0002413F0902513DC01CB018C199D09AE0975
:1041B000BF09853F9140A105B10568F10E94BF315B
:1041C00060932213709323138093241390932513E9
:1041D00080917A12882359F080912113811103C0B4
:1041E0001093211302C01092211310938512809115
:1041F0007912882381F080918512811103C0109378
:10420000851202C0109285121093211304C01093DE
:10421000211310938512EE24E394F12C809121094F
:10422000813011F4E12CF12CC701895E964F6C01AD
:10423000DC018C91833009F4B3C030F4813099F102
:10424000823009F465C041C2863008F473C18630FB
:1042500009F03BC2012F21E030E040E050E060E097
:1042600070E081E090E00E94C50EF701EF56FD4E30
:1042700080811F928F9387E395E09F938F931F9286
:104280008BE08F93CE0101967C019F938F930E94C8
:1042900070630091211321E030E0A70168E070E035
:1042A00080E090E00BC2C70101969F938F9382EF4D
:1042B00094E09F938F931F928BE08F93FE01319632
:1042C0006F01FF93EF930E947063012F21E030E0B4
:1042D000A60168E070E081E090E00E94C50EF70161
:1042E000ED56FD4E0FB6F894DEBF0FBECDBF8081F8
:1042F0000091211321E030E087FF03C04CE958E032
:1043000002C04CE554E060E070E08AE090E00FC14C
:10431000C70101969F938F9382EF94E09F938F93B1
:104320001F928BE08F93CE0101965C019F938F9338
:104330000E947063012F21E030E0A50168E070E089
:1043400081E090E00E94C50E0FB6F894DEBF0FBE6C
:10435000CDBFF701ED56FD4E80810091211321E084
:1043600030E08C3F71F08F3F49F0811111C049EF6F
:1043700054E060E070E08AE090E010C04DEF54E05F
:1043800009C043E055E060E070E081E090E006C0E5
:1043900049E055E060E070E080E090E00E94C50EEA
:1043A000C70101969F938F9382EF94E09F938F9321
:1043B0001F928BE08F93FE0131965F01FF93EF9385
:1043C0000E947063012F21E030E0A50168E070E0F9
:1043D00081E090E00E94C50E0FB6F894DEBF0FBEDC
:1043E000CDBFD6011496EC918E2F90E0FC01319751
:1043F000E830F10508F069C1E158FF4F012F21E0D5
:1044000030E00C94D2614FE055E060E070E080E075
:1044100090E00E94C50EF701ED56FD4E808100919F
:10442000211321E030E086FF75C071C044E155E002
:1044300060E070E080E090E00E94C50EF701ED566C
:10444000FD4E80810091211321E030E085FF62C0A4
:104450005EC049E155E060E070E080E090E00E94DD
:10446000C50EF701ED56FD4E80810091211321E02C
:1044700030E084FF4FC04BC04EE155E060E070E09B
:1044800080E090E00E94C50EF701ED56FD4E808160
:104490000091211321E030E083FF3CC038C043E2AB
:1044A00055E060E070E080E090E00E94C50EF7010A
:1044B000ED56FD4E80810091211321E030E082FF16
:1044C00029C025C048E255E060E070E080E090E05F
:1044D0000E94C50EF701ED56FD4E8081009121131B
:1044E00021E030E081FF16C012C04DE255E060E0EF
:1044F00070E080E090E00E94C50EF701ED56FD4EA1
:1045000080810091211321E030E080FF03C047E06B
:1045100055E002C04DE958E060E070E089E190E0CC
:1045200006C042E355E060E070E080E090E00E9469
:10453000C50ECBC0C70101969F938F9382EF94E085
:104540009F938F931F928BE0B82EBF92FE013196FE
:104550006F01FF93EF930E947063012F21E030E021
:10456000A60168E070E081E090E00E94C50E0FB601
:10457000F894DEBF0FBECDBF80918E13F701E357D5
:10458000FD4E882309F458C08081811104C08CE05D
:1045900080938D130BC08D3028F480938D138C3055
:1045A00040F404C08C5080938D1303C040912113BC
:1045B00001C040E061E070E080E090E00E941E0DEC
:1045C00080918D131F928F938AE994E09F938F932C
:1045D0001F928BE08F93DF92CF920E947063809145
:1045E0008D132AE0622F0E949E610E949E610FB689
:1045F000F894DEBF0FBECDBF0091211321E030E063
:10460000911112C04DE853E060E070E081E090E06D
:104610000E94C50E0091211321E030E0A60160E068
:1046200070E087E090E005C0A60160E070E081E006
:1046300090E00E94C50E1DC080811F928F9380EF75
:1046400097E09F938F931F92BF92DF92CF920E9429
:1046500070630091211321E030E0A60160E070E07A
:1046600081E090E00E94C50E0FB6F894DEBF0FBE49
:10467000CDBFF701E557FD4E80811F928F9380EFEC
:1046800097E09F938F931F928BE08F93DF92CF924F
:104690000E947063012F21E030E04CE155E060E0C2
:1046A00070E08CE090E00E94C50E0091851221E040
:1046B00030E0A60160E070E082E190E00E94C50E6B
:1046C0000FB6F894DEBF0FBECDBF2B960FB6F89491
:1046D000DEBF0FBECDBFDF91CF911F910F91FF9035
:1046E000EF90DF90CF90BF90AF900895CF92DF9280
:1046F000EF92FF920F931F93CF93DF93CDB7DEB767
:104700002B970FB6F894DEBF0FBECDBF082F10E079
:10471000F801E157FD4E1082F801EC5BF64F108274
:10472000F801E85FFE4F8AE08083C8018F569D4EF6
:104730007C01DC018C91863028F487E0F801EA5F87
:10474000FE4F8083F801E95EF64F6F018081815052
:10475000833018F481E00E94D91FD6018C918330F8
:1047600009F44FC028F4813061F0823009F10AC1A8
:10477000853009F4A6C008F489C0863009F4BEC0AB
:1047800001C1F801ED56FD4E7F0180818058808384
:1047900065E070E080E090E00E948531F801EC5B1C
:1047A000FD4F8081D7016C9190E00E94101F26C0C0
:1047B000F801ED56FD4E8081D801A558BD4E8C3FC5
:1047C00021F08F3F39F48CEF06C08EEF808381E0BB
:1047D0008C9303C08FEF80831C92D801AC5BBD4FDC
:1047E0008C91608190E00E94101F65E070E080E095
:1047F00090E00E94853181E00E94D91F0E94E20B67
:10480000C1C09801255E364FD901EC918E2F90E002
:10481000FC013197C8018D569D4E7C01E830F105B1
:1048200058F5E957FF4F0C94D261DC019C9180E46C
:1048300007C0FC01908180E211C0DC019C9180E105
:1048400089278C9319C0FC01908188E007C0DC01A6
:104850009C9184E0F5CFFC01908182E089278083E0
:104860000BC0DC019C9181E0EBCFF901108284E068
:10487000D6018C930E94E20BF801EC5BFD4F808126
:10488000F701608190E00E94101FB5CFF801EB5E48
:10489000F64F81E0808380913D09F801E357FD4E9A
:1048A000882319F08081815002C080818F5F8083CE
:1048B00080818F3F11F487E11AC0883108F462C00B
:1048C0001BC0F801EB5EF64F81E0808380913D09CB
:1048D000F801E557FD4E882319F08081815002C010
:1048E00080818F5F808380818F3F19F48BE3808389
:1048F00049C08C3308F446C0108244C080913D0901
:10490000882329F0D7018C9181508C9304C0F70142
:1049100080818F5F8083D7018C918F3F19F48AE06B
:104920008C9305C08B3018F081E0F7018083D701AC
:104930008C911F928F938EE395E09F938F931F929C
:104940008BE08F93FE0131966F01FF93EF930E94EE
:104950007063C6010E946109F801EE5BFD4F808122
:10496000D7016C9190E00E94101F65E070E080E03C
:1049700090E00E9485310E94E20B0FB6F894DEBFF2
:104980000FBECDBF2B960FB6F894DEBF0FBECDBFC6
:10499000DF91CF911F910F91FF90EF90DF90CF901B
:1049A0000895CF92DF92EF92FF9280914609811194
:1049B0009DC080911409811199C00E94BF31C0909F
:1049C0008712D0908812E0908912F0908A12DC0150
:1049D000CB018C199D09AE09BF09883E9340A10502
:1049E000B10508F483C00E94BF31609387127093B1
:1049F00088128093891290938A1280918412811177
:104A000036C00E945917883C910564F00E945917DE
:104A10008137934064F40E945917092E000CAA0BA9
:104A2000BB0B09C088EC90E0A0E0B0E004C080E7D8
:104A300093E0A0E0B0E0885C9109A109B109BC0154
:104A4000CD0132E0660F771F881F991F3A95D1F785
:104A500028EA32E040E050E00E94056ADA01C9012C
:104A60000196A11DB11D809384120E94B40B0E9477
:104A70005917883C910564F00E945917813793407B
:104A800064F40E945917092E000CAA0BBB0B09C035
:104A900088EC90E0A0E0B0E004C080E793E0A0E004
:104AA000B0E0885C9109A109B109BC01CD0122E007
:104AB000660F771F881F991F2A95D1F728EA32E0E1
:104AC00040E050E00E94056A69017A018FEFC81A40
:104AD000D80AE80AF80AC0928612809184128C15CE
:104AE00029F08C2D0E94B40BC0928412FF90EF909D
:104AF000DF90CF9008951F920F920FB60F9211245E
:104B00000BB60F922F933F934F935F936F937F93C7
:104B10008F939F93AF93BF93EF93FF9380916F0019
:104B20008B7F80936F0080919E0A823021F578946C
:104B30006091A10A7091A20A40E052E08091A70E14
:104B40009091A80E0E94EE36F8942091A10A30911F
:104B5000A20A1816190644F4820F931F9093A00A14
:104B600080939F0A81E005C03093A00A20939F0A9A
:104B700083E080939E0AFF91EF91BF91AF919F9147
:104B80008F917F916F915F914F913F912F910F90F6
:104B90000BBE0F900FBE0F901F9018951F920F9293
:104BA0000FB60F9211240BB60F922F933F934F9392
:104BB0005F936F937F938F939F93AF93BF93EF9385
:104BC000FF93E091A70EF091A80E309709F4D8C09A
:104BD0002091A50C3091A60C8091A30C9091A40C6F
:104BE0002817390708F444C080919E0A813029F5BE
:104BF0008091A10A9091A20A9093A60C8093A50C93
:104C000020919F0A3091A00A3093A40C2093A30C0A
:104C1000875A9C4019F483EA9AE002C087EA9CE034
:104C20009093A20A8093A10A82E080939E0A8091C9
:104C30006F00846080936F001BC0833021F4CF012C
:104C40000E94DF369DC086819781A085B185892B22
:104C50008A2B8B2B09F494C083859485A585B68512
:104C60000196A11DB11D83879487A587B68788C04B
:104C7000A091A70EB091A80E15968C911597E09172
:104C8000A50CF091A60C803149F421812058808137
:104C90003296F093A60CE093A50C06C02191F093F8
:104CA000A60CE093A50C80E090E0922B1F960C9050
:104CB00002C0969587950A94E2F728982A98299A2F
:104CC0002998299A29982A9A299A2998299A2998D3
:104CD00097FF02C02A9A01C02A98299A2998292F59
:104CE00096FF02C02A9A01C02A98299A299825FF7E
:104CF00002C02A9A01C02A98299A299824FF02C042
:104D00002A9A01C02A98299A299823FF02C02A9A30
:104D100001C02A98299A299822FF02C02A9A01C024
:104D20002A98299A299821FF02C02A9A01C02A9814
:104D3000299A299820FF02C02A9A01C02A98299A04
:104D4000299887FF02C02A9A01C02A98299A29988F
:104D50009C01332786FF02C02A9A01C02A98299A0B
:104D6000299825FF02C02A9A01C02A98299A2998D1
:104D700024FF02C02A9A01C02A98299A2998289AC1
:104D8000FF91EF91BF91AF919F918F917F916F9123
:104D90005F914F913F912F910F900BBE0F900FBEDF
:104DA0000F901F9018958EBD0DB407FEFDCF08958E
:104DB000CF93DF93FC0186818823F1F08FEF8EBDC6
:104DC0004FEF878190859C012F5F3F4F308727836E
:104DD0008130924028F40DB407FEFDCF4EBDF1CFD7
:104DE0000DB407FEFDCFEF0161E084E00E941931B0
:104DF0008FEF0E94D3261E82DF91CF9108958FEF0F
:104E00000E94D3268EB50895CF92DF92EF92FF9243
:104E10001F93CF93DF93162F69017A010E94D82642
:104E200060E084E00E9419310E94BF31EB010E94D2
:104E3000FF268F3F39F00E94BF316C1B7D0B6D3216
:104E40007140A8F3812F80640E94D326C8E1D0E08E
:104E5000D701C6010C2E04C0B695A79597958795E6
:104E60000A94D2F70E94D3262897C83F8FEFD8071D
:104E700079F7112321F0183021F487E803C085E980
:104E800001C08FEF0E94D326C0E00E94FF2687FF5B
:104E900004C0CF3F11F0CF5FF8CFDF91CF911F91CA
:104EA000FF90EF90DF90CF9008958F929F92AF92F6
:104EB000BF92CF92DF92EF92FF920F931F93CF9307
:104EC000DF93EC01590168018E81882371F088819C
:104ED0009981AA81BB81481759076A077B0729F482
:104EE0008F81988528173907B0F5488359836A83DD
:104EF0007B838B85833039F089E0440F551F661F13
:104F0000771F8A95D1F79A01AB0161E1CE010E942A
:104F10000427182F882321F083E08C8310E058C0E9
:104F20000E94BF314B010E94FF268F3F51F40E9427
:104F3000BF31681979096D327140A8F38DE08C8317
:104F400047C08E3F21F090E19C838D8341C018863D
:104F50001F8281E08E838FEF8EBD2FEF8F8198852A
:104F60008A159B0550F40DB407FEFDCF2EBD8F8131
:104F70009885019698878F83F1CF87010150110999
:104F8000F6012FEFCF018C199D098017910738F496
:104F90000DB407FEFDCF8EB581932EBDF3CF0DB4BA
:104FA00007FEFDCF8EB5F601E00FF11F80838F81E4
:104FB0009885E80EF91EF886EF828985882321F00E
:104FC000E11482E0F80618F0CE010E94D82611E024
:104FD000812FDF91CF911F910F91FF90EF90DF9084
:104FE000CF90BF90AF909F908F900895CF92DF9217
:104FF000EF92FF920F931F93CF93DF9300D000D0D7
:10500000CDB7DEB7FC01423051056105710500F1F5
:1050100085819681A781B0850296A11DB11D481793
:1050200059076A077B07A0F48289803279F5C68424
:10503000D784E088F1889A01220F331F220F331F93
:10504000317083899489F9013496E130F24020F07F
:1050500060E070E0CB013CC0B7E07695679557956E
:105060004795BA95D1F74C0D5D1D6E1D7F1D14E05F
:10507000E12EF12C8E010F5F1F4F0E9455278823D0
:1050800039F369817A818B819C8122C0803101F75B
:105090009A01220F331F3170452F562F672F772724
:1050A00086859785A089B189480F591F6A1F7B1F84
:1050B000A2E0EA2EF12C8E010F5F1F4F83899489A5
:1050C0000E945527882321F269817A8180E090E04F
:1050D0000F900F900F900F90DF91CF911F910F9134
:1050E000FF90EF90DF90CF9008954F925F926F9274
:1050F0007F928F929F92AF92BF92CF92DF92EF9268
:10510000FF920F931F93CF93DF9300D000D0CDB7C2
:10511000DEB78C01DC011996CD90DD90ED90FC900E
:105120001C974A015B018C0C9D1CAE1CBF1C119688
:105130008D919D910D90BC91A02D88159905AA0582
:10514000BB0510F480E06AC0D8015196ED91FC9146
:1051500052974080512C612C712CC501B40129E07B
:1051600096958795779567952A95D1F7A301920132
:105170000E94376A29833A834B835C83C701B60157
:1051800039E096958795779567953A95D1F7A3017C
:1051900092010E94376AC980DA80EB80FC80C21AD3
:1051A000D30AE40AF50AF80181869286A386B486BA
:1051B0008081982F9770923079F083FF29C0F80191
:1051C00085819681A781B085C80ED91EEA1EFB1E77
:1051D000C582D682E782F08681E020C0F801458151
:1051E000568167817085818992890E94F627D8014E
:1051F00015966D937D938D939C931897B1E0CB1A80
:10520000D108E108F108672B682B692B09F49ACFC4
:10521000C114D104E104F10409F7DECF0F900F901F
:105220000F900F90DF91CF911F910F91FF90EF9012
:10523000DF90CF90BF90AF909F908F907F906F90B6
:105240005F904F9008952F923F924F925F926F928E
:105250007F928F929F92AF92BF92CF92DF92EF9206
:10526000FF920F931F93CF93DF9300D000D000D015
:10527000CDB7DEB76C014B011A01A12CB12CA214E1
:10528000B30408F0A1C0D60119964D905D906D90C1
:105290007C901C97F201F17080E092E08E1B9F0BD6
:1052A00091012A193B093E832D838217930710F43D
:1052B0009E838D83D60111964D915D916D917C9168
:1052C00014972D813E81C901A0E0B0E08A019B01C5
:1052D0000419150926093709081719072A073B0772
:1052E00028F4CA01841995099E838D83D6018C9177
:1052F000877099E076946794579447949A95D1F77C
:1053000051960D911C915297D801823039F45796DD
:105310004D915D916D917C915A972CC0FC90D60176
:1053200015962D913D914D915C9118972250310920
:1053300041095109AF2DB0E00E94246AD8011996A5
:105340002D913D914D915C911C97260F371F481F61
:10535000591F29833A834B835C838F2D90E00197FB
:10536000092E000CAA0BBB0B482259226A227B2271
:10537000BA01A901440D551D661D771DD80153962C
:105380006D907C9054972D813E81232B31F44D817B
:105390005E8114161506D4F013C08D819E818E0F88
:1053A0009F1F8130924048F4ED80FE8084019F0170
:1053B000C3010E9455278111EACF8FEF9FEF18C0DC
:1053C000ED81FE81F7FDF9CFC50112C02D813E812F
:1053D000A901330F660B770BC6010E94752888233D
:1053E00061F32D813E81820E931EA20EB31E47CF24
:1053F00026960FB6F894DEBF0FBECDBFDF91CF91DA
:105400001F910F91FF90EF90DF90CF90BF90AF90E2
:105410009F908F907F906F905F904F903F902F90D4
:1054200008958F929F92AF92BF92CF92DF92EF92A8
:10543000FF920F931F93CF93DF93CDB7DEB72B97D8
:105440000FB6F894DEBF0FBECDBFC82E80913809CD
:10545000813011F40E94100C0C2D10E098012D5693
:105460003D4E4901F901D080D7FEF0C09801285F78
:105470003E4F5901F9018081FDE1CF9E7001112459
:105480008A3061F40E94ED3B8C5A9D4FFC01808173
:105490008D2111F042E003C041E001C043E06FE024
:1054A00070E0C70101960E941E0D98012C5B364FDB
:1054B0007901F9018081882309F475C00E94141FC5
:1054C000F801E157FD4E80818111C0C098012F562F
:1054D0003D4E6901F90180811F928F938EE395E023
:1054E0009F938F931F928BE08F939E012F5F3F4F6F
:1054F00079013F932F930E9470630FB6F894A8959B
:1055000080916000886180936000109260000FBEFF
:105510000E94141F809111120FB6F894DEBF0FBEC7
:10552000CDBF811193C0C7010E945C19811114C0C5
:1055300064E170E080E090E00E948531C7010E9444
:105540005C19811109C087ED9FE00E94C936C7012F
:105550000E9406170E9483610E94A617811105C050
:1055600087EC9FE00E94D93671C0F6018081F80176
:10557000EA5FFE4F863030F48081882321F081502D
:10558000808301C010828081809316120E94F518DA
:1055900099E288E10FB6F894A895809360000FBE59
:1055A0009093600053C0F501D080FAE0DF16E9F077
:1055B0000E94FD3B6AE070E00E94BE61F50120811F
:1055C00030E08217930709F041C081E0F701808342
:1055D000F801EF56FD4E8081F801EA5FFE4F8630FC
:1055E00010F487E02CC0108231C0F801E157FD4E65
:1055F000808181112BC0F401B0800E94ED3B8C5A58
:105600009D4FFC0180818B2109F190918D13F80150
:10561000E357FD4E8081981319C00E94FD3BF801AD
:10562000E557FD4E208130E08217930779F4C110D1
:1056300008C010924509D092090181E0F7018083EA
:1056400005C010924409D0920801F7CF2B960FB6EF
:10565000F894DEBF0FBECDBFDF91CF911F910F91A8
:10566000FF90EF90DF90CF90BF90AF909F908F9082
:1056700008950F930E94E20B10922B0910922609B5
:1056800010922509109224091092230910922209E0
:105690000091470922E030E049E455E060E070E025
:1056A00080E090E00E94C50EE0914F10F0E0EE0F18
:1056B000FF1FEA5BFD4F408151810091470922E0C5
:1056C00030E068E070E080E090E00E94C50E0F914D
:1056D0000895CF92DF92EF92FF920F931F93CF9393
:1056E000DF936C017A018B01C0E0D0E0CE15DF05BD
:1056F00089F0D8016D918D01D601ED91FC91019059
:10570000F081E02DC6010995892B11F47E0102C0BC
:105710002196ECCFC701DF91CF911F910F91FF90A0
:10572000EF90DF90CF900895FC01918D828D9817B6
:1057300061F0828DDF01A80FB11D5D968C91928D75
:105740009F5F9F73928F90E008958FEF9FEF089572
:10575000FC01918D828D981731F0828DE80FF11D3B
:10576000858D90E008958FEF9FEF0895FC01918D56
:10577000228D892F90E0805C9F4F821B91098F734F
:105780009927089589EA9EE00E94B62B21E0892B93
:1057900009F420E0822F0895FC01848DDF01A80F19
:1057A000B11DA35ABF4F2C91848D90E001968F7349
:1057B0009927848FA689B7892C93A089B1898C9168
:1057C00080648C93938D848D981306C00288F3892E
:1057D000E02D80818F7D80830895EF92FF920F935B
:1057E0001F93CF93DF93EC0181E0888F9B8D8C8D8D
:1057F000981305C0E889F989808185FD24C0F62EBB
:105800000B8D10E00F5F1F4F0F731127E02E8C8D53
:10581000E8120CC00FB607FCFACFE889F98980813D
:1058200085FFF5CFCE010E94CC2BF1CF8B8DFE01F1
:10583000E80FF11DE35AFF4FF0820B8FEA89FB89D5
:105840008081806207C0EE89FF896083E889F989D9
:1058500080818064808381E090E0DF91CF911F910F
:105860000F91FF90EF900895CF93DF93EC01888D17
:105870008823C9F0EA89FB89808185FD05C0A88954
:10588000B9898C9186FD0FC00FB607FCF5CF8081DA
:1058900085FFF2CFA889B9898C9185FFEDCFCE0124
:1058A0000E94CC2BE7CFDF91CF91089580E090E06C
:1058B000892B21F00E94C22B81110DC080E090E065
:1058C000892B71F080E090E0892B51F00E9400005C
:1058D000811104C008950E940000F0CF0C940000D4
:1058E000089590E0FC013197EA30F10540F5E15769
:1058F000FF4F0C94D261809180008F7703C080911C
:1059000080008F7D80938000089584B58F7702C0DA
:1059100084B58F7D84BD08958091B0008F7703C0DA
:105920008091B0008F7D8093B000089580919000A9
:105930008F7703C0809190008F7D809390000895B1
:105940003FB7F8948091A1129091A212A091A31256
:10595000B091A41226B5A89B05C02F3F19F001965F
:10596000A11DB11D3FBFBA2FA92F982F8827820FE5
:10597000911DA11DB11DBC01CD0142E0660F771F35
:10598000881F991F4A95D1F7089508952F923F9245
:105990004F925F926F927F928F929F92AF92BF923F
:1059A000CF92DF92EF92FF920F931F93CF93DF93EB
:1059B00000D000D000D0CDB7DEB7882309F44EC1A7
:1059C000E0917E118091981290919912A0919A1273
:1059D000B0919B120196A11DB11D809398129093D6
:1059E0009912A0939A12B0939B12F0E0E158FE4EE8
:1059F00080839183A283B38380917E118095982FB9
:105A0000937080917E11890F80937E11E0917E11B9
:105A1000F0E0E158FE4E80818F738083E0917E112B
:105A2000F0E0E158FE4E208130E4939FC001112444
:105A3000822B808380917E118F5F80937E112090D6
:105A40007E11822D86958695823008F459C2282EC3
:105A5000880F3308C101880F991F880F991FAC0167
:105A600045585E4E5E834D83FA0180819181A2810B
:105A7000B381C12CD12C7601F1E02F1A310827E433
:105A8000C21A26E8D20A28ECE20A21E6F20AB70195
:105A9000A60112E076956795579547951A95D1F727
:105AA000342F33703A8319822981622F70E02C01E0
:105AB0003D0154E0440C551C661C771C5A95D1F7E7
:105AC0004C015D01E5E0B694A79497948794EA951C
:105AD000D1F7621573050CF062C06F5F7F4F660FE0
