:100000000C94DD080C94FE1C0C94D31C0C94A81CBE
:100010000C9407090C9407090C9407090C94070920
:100020000C9407090C94401D0C9407090C940709C3
:100030000C9407090C9454400C942E450C94070919
:100040000C9407090C9407090C945E1C0C94070986
:100050000C944D1B0C94231B0C9407090C9407095A
:100060000C9407090C9407090C9478250C94070943
:100070000C9407090C9407090C9407090C940709C0
:100080000C9407090C9407090C9407090C180F1815
:100090000218061826182618131817181D182118E4
:1000A0000B291A294B29682986299729A829C629A5
:1000B000D729662A772AE629EA29FF29152A2C2A30
:1000C000432A5A2A632AC92ACF2AEB2AF32A002B69
:1000D000042B082B0C2B102B142B242B2A2B2E2B10
:1000E000322B412B452B492B4D2B5E2BCB2D9F2E9D
:1000F000B42FC62FDC2FE12F8A30D12ED42ED72E4D
:10010000DA2EDD2EE02EE32E21313E318731B13162
:10011000DF310E32353280328E329733B4339B3238
:10012000B332D03201330F33373366338333113870
:10013000243837384A385D38703883389F38233A46
:10014000273A2B3A313A353A393A3F3A433A413D28
:100150005B3DA33DC83DE73D0C3E2B3E503E6F3E10
:10016000DF3FC53EEA3E0F3F343F5F3F843FB13F34
:10017000DF3F556E61626C6520746F2066696E6446
:10018000206164647265737320666F7220446576C3
:100190006963652030004F4646004F4E004453319E
:1001A0003842323020706172617369746520706FFB
:1001B0007765722069733A2000206465766963650B
:1001C000732E00466F756E6420004E6F2076616C52
:1001D00069642046415420706172746974696F6E5D
:1001E000210043616E2774206F70656E20726F6FFF
:1001F000742064697221004361726420696E6974BD
:100200002E206661696C6564210052544320686148
:100210007320736574207468652073797374656DD9
:100220002074696D6500556E61626C6520746F2085
:1002300073796E63207769746820746865205254FE
:10024000430045786974206D656E75005600426103
:1002500074746572793A00526563656976696E6790
:1002600020446174612E2E2E0052652D656E6162F0
:100270006C6520526164696F00000000000000009E
:1002800000000808080800080000361224000000DA
:10029000000000143E143E140000081E281C0A3CF6
:1002A0000000003234081626000000182418261E0C
:1002B00000001818100000000000081010101008AE
:1002C0000000100808080810000000082A082A0882
:1002D00000000008083E08080000000000001808A0
:1002E00010000000003E00000000000000000C0CA8
:1002F000000000020408102000001C262626261CF0
:1003000000000C1C0C0C0C1E00001C260C18303EAF
:1003100000003E061C06261C000026263E06060699
:1003200000003E303C06261C00001C203C26261CFB
:1003300000003E060C18181800001C261C26261C5F
:1003400000001C261E06261C0000000C0C000C0CD5
:100350000000000C0C000C04080000040810080445
:10036000000000003E003E000000001008040810DD
:1003700000001C220408000800001C262A2E201E53
:1003800000001C22223E222200003C223C22223C71
:1003900000001C222020221C00003C222222223CA1
:1003A00000003E203C20203E00003E203C2020203B
:1003B00000001C202026221E000022223E22222293
:1003C00000001C080808081C00003E020202221C53
:1003D0000000222438382422000020202020203E43
:1003E000000022362A222222000022322A2622223D
:1003F00000001C222222221C00003C223C20202043
:100400000000182424242C1A00003C223C22222222
:1004100000001E201C02221C00003E0808080808DC
:10042000000022222222221C000022222214140870
:1004300000002222222A2A14000022140808142272
:10044000000022221408080800003E040810203E84
:1004500000001C101010101C0000201008040200E6
:1004600000001C040404041C000008142200000006
:10047000000000000000003E000008040000000032
:100480000000001C021E223E000020203C22223CD4
:100490000000001C2020201C000002021E22221E40
:1004A0000000001C223E201C00000E10103C10100A
:1004B0000000001E223E02021C0020203C222222BC
:1004C000000008001808081C000008001E02022294
:1004D0001C00202024382422000018080808081CCA
:1004E000000000342A2A2A2A0000002C322222226C
:1004F0000000001C2222221C0000003C223C202084
:100500002000001C241C04040600002E30202020A3
:100510000000001E201C023C0000083E08080806DF
:10052000000000222222221E0000002222221408A3
:1005300000000022222A2A1400000022140814229B
:1005400000000022221E02041800003E0408103E93
:100550000000040808100808040008080808080833
:100560000000100808040808100000102A04000009
:100570000000102810000000000000000000000033
:1005800000000808080800080000361224000000D7
:10059000000000143E143E140000081E281C0A3CF3
:1005A0000000003234081626000000182418261E09
:1005B00000001818100000000000081010101008AB
:1005C0000000100808080810000000082A082A087F
:1005D00000000008083E080800000000000018089D
:1005E00010000000003E00000000000000000C0CA5
:1005F000000000020408102000000C121212120C5D
:100600000000040C0404040E00000C120204081E76
:1006100000001E020C02120C000012121E02020246
:1006200000001E101C02120C00000C101C12120CF8
:1006300000001E020408080800000C120C12120C24
:1006400000000C120E02120C0000000C0C000C0C2E
:100650000000000C0C000C04080000040810080442
:10066000000000003E003E000000001008040810DA
:1006700000001C220408000800001C262A2E201E50
:1006800000001C22223E222200003C223C22223C6E
:1006900000001C222020221C00003C222222223C9E
:1006A00000003E203C20203E00003E203C20202038
:1006B00000001C202026221E000022223E22222290
:1006C00000001C080808081C00003E020202221C50
:1006D0000000222438382422000020202020203E40
:1006E000000022362A222222000022322A2622223A
:1006F00000001C222222221C00003C223C20202040
:100700000000182424242C1A00003C223C2222221F
:1007100000001E201C02221C00003E0808080808D9
:10072000000022222222221C00002222221414086D
:1007300000002222222A2A1400002214080814226F
:10074000000022221408080800003E040810203E81
:1007500000001C101010101C0000201008040200E3
:1007600000001C040404041C000008142200000003
:10077000000000000000003E00000804000000002F
:100780000000001C021E223E000020203C22223CD1
:100790000000001C2020201C000002021E22221E3D
:1007A0000000001C223E201C00000E10103C101007
:1007B0000000001E223E02021C0020203C222222B9
:1007C000000008001808081C000008001E02022291
:1007D0001C00202024382422000018080808081CC7
:1007E000000000342A2A2A2A0000002C3222222269
:1007F0000000001C2222221C0000003C223C202081
:100800002000001C241C04040600002E30202020A0
:100810000000001E201C023C0000083E08080806DC
:10082000000000222222221E0000002222221408A0
:1008300000000022222A2A14000000221408142298
:1008400000000022221E02041800003E0408103E90
:100850000000040808100808040008080808080830
:100860000000100808040808100000102A04000006
:100870000000102810000000000000000000000030
:10088000000004040404000400000505000000004A
:100890000000000C0F0C0F0C000004060C06060CE8
:1008A0000400003234081626000000182418261E02
:1008B00000001818100000000000081010101008A8
:1008C0000000100808080810000000082A082A087C
:1008D00000000008083E080800000000000018089A
:1008E00010000000003E00000000000000000200B8
:1008F00000000002040810200000020505050200A7
:1009000000000206020207000000060102040700C0
:1009100000000701060106000000050507010100AF
:100920000000070407010600000003040705020099
:100930000000070102040400000007050705070086
:100940000000070507010600000000020002000089
:100950000000000606000602040000010204020175
:10096000000000000700070000000004020102046C
:100970000000060102040004000006090B0B080633
:100980000000020505070505000006050605050629
:100990000000020504040502000006050505050621
:1009A000000007040604040700000704060404040A
:1009B00000000304040505030000050507050505FF
:1009C0000000070202020207000007010101050200
:1009D00000000505060605050000040404040407DC
:1009E00000000507070505050000050705050505C5
:1009F00000000205050505020000060506040404C2
:100A000000000205050507030000060506050505AB
:100A100000000304020105020000070202020202B4
:100A2000000005050505050700000505050505028B
:100A3000000005050505070700000505020205057C
:100A40000000050505020202000007010204040778
:100A5000000006040404040600000404020101006E
:100A6000000003020202020300000205050000006C
:100A7000000000000000000700000201000000006C
:100A8000000000060107050700000404070505072C
:100A9000000000030404040300000101070505072A
:100AA0000000000204070403000003020207020220
:100AB0000000000305070101060004040705050501
:100AC0000000020006020207000001000701010504
:100AD00002000004050605050000060202020207E6
:100AE00000000006070705050000000605050505CE
:100AF00000000002050505020000000605060404CA
:100B000004000003050701010100000304040404BC
:100B100000000003040201060000020702020201B5
:100B20000000000505050503000000050505050298
:100B30000000000505050707000000050502050582
:100B40000000000505070101060000070102040777
:100B5000000001020204020201000202020202027B
:100B60000000040202010202040000040B01000064
:100B70000057726974696E67206E6577204677202A
:100B800076657273696F6E00436F756C646E27745F
:100B9000206F70656E2066696C6520004E6F742052
:100BA000612076616C696420574156004469737016
:100BB0006C6179204F7074696F6E73204D656E752E
:100BC00000446973706C61792053797374656D208A
:100BD0004D656E7500446973706C61792044617471
:100BE000652F54696D65204D656E7500446973709D
:100BF0006C617920416C726D2032204D656E7500FC
:100C0000446973706C617920416C726D2031204DA4
:100C1000656E750048696768207261746520667248
:100C200061676D656E7465642066696C652100534B
:100C3000616D706C65207261746520746F6F2068DF
:100C400069676821004D6F7265207468616E20319C
:100C5000362062697473207065722073616D706CE8
:100C6000652100205761726E696E6720737465722A
:100C7000656F2066696C6521004E6F74206D6F6E24
:100C80006F2F73746572656F2100436F6D707265AD
:100C90007373696F6E206E6F7420737570706F72EE
:100CA000746564000E1F13131313131313131F0E15
:100CB000060E1E060606060606061F1F1E1F030357
:100CC00003060C1818181F1F1E1F0303030E0E0324
:100CD00003031F1E181818181B1F1F030303030309
:100CE0001F1F1818181E1F0303031F1E0E1F18189E
:100CF000181E1F1313131F0E1F1F030303060C18C8
:100D0000181818180E1F1313130E0E1313131F0E9B
:100D10000E1F1313131F0F0303031F0E0000000009
:100D200000000000000000001F1F1B1B1B1B1B1BE3
:100D30001B1B1F1F0C0C0C0C0C0C0C0C0C0C0C0CAF
:100D40001F1F0303031F1F1818181F1F1F1F030354
:100D5000031F1F0303031F1F1B1B1B1B1B1F1F0343
:100D6000030303031F1F1818181F1F0303031F1F6C
:100D70001F1F1818181F1F1B1B1B1F1F1F1F0303DC
:100D800003030303030303031F1F1B1B1B1F1F1B63
:100D90001B1B1F1F1F1F1B1B1B1F1F0303031F1FCB
:100DA0000000000000000000000000000E1F1B1BE0
:100DB0001B1B1B1B1B1B1F0E02060E060606060630
:100DC00006061F1F0E1F030303060C1818181F1F0B
:100DD0000E1F0303030E0E0303031F0E0303060679
:100DE0000C0C1B1F030303031F1F1818181E0F03EF
:100DF00003031F0E0E1F1818181E1F1B1B1B1F0E90
:100E00001F1F030303060C18181818180E1F1B1BAE
:100E10001B0E0E1B1B1B1F0E0E1F1B1B1B1F0F036E
:100E200003031F0E0000000000000000000000008F
:100E30001F111111111111111111111F04040404BA
:100E400004040404040404041F010101011F101020
:100E50001010101F1F010101011F01010101011FDD
:100E600011111111111F0101010101011F101010B9
:100E7000101F01010101011F1F101010101F11117F
:100E80001111111F1F0101010101010101010101E6
:100E90001F111111111F11111111111F1F1111110A
:100EA000111F01010101011F0000000000000000EE
:100EB000000000000E111111111111111111110E6C
:100EC000040C0404040404040404041F0E110101AE
:100ED000010204081010101F0E110101010E010182
:100EE0000101110E11111111111F01010101010167
:100EF0001F101010101E01010101110E0E11101013
:100F0000101E11111111110E1F010101010204081F
:100F1000101010100E111111110E11111111110ECE
:100F20000E111111110F01010101110E000000003D
:100F30000000000000000000000020002300260048
:100F40002900020202020202020204040404040450
:100F5000040403030303030303030101010101016B
:100F60000101010204081020408001020408102041
:100F70004080010204081020408001020408102073
:100F80004080005EBCE2613FDD83C29C7E20A3FD09
:100F90001F419DC3217FFCA2401E5F01E3BD3E6057
:100FA00082DC237D9FC1421CFEA0E1BF5D0380DE89
:100FB0003C62BEE0025CDF81633D7C22C09E1D433B
:100FC000A1FF4618FAA427799BC584DA3866E5BBE9
:100FD0005907DB856739BAE406581947A5FB782617
:100FE000C49A653BD987045AB8E6A7F91B45C69849
:100FF0007A24F8A6441A99C7257B3A6486D85B05FB
:10100000E7B98CD2306EEDB3510F4E10F2AC2F71A8
:1010100093CD114FADF3702ECC92D38D6F31B2ECD6
:101020000E50AFF1134DCE90722C6D33D18F0C5208
:10103000B0EE326C8ED0530DEFB1F0AE4C1291CFBA
:101040002D73CA947628ABF517490856B4EA693768
:10105000D58B5709EBB536688AD495CB2977F4AA96
:101060004816E9B7550B88D6346A2B7597C94A14C8
:10107000F6A8742AC896154BA9F7B6E80A54D7897A
:101080006B3500002100240027002A000000220008
:10109000250028002B00000000010200090A0000C2
:1010A000000004030807000000000000000000002A
:1010B0000000000000004572724A616E4665624D94
:1010C00061724170724D61794A756E4A756C4175F5
:1010D000675365704F63744E6F7644656300536366
:1010E000726F6C6C2054656D70005363726F6C6C22
:1010F000204461746500526164696F204F66662107
:10110000002C20000D0A534420492F4F2065727295
:101110006F723A200045786974696E6720514D6599
:101120006E75004E6F7420612076616C6964205783
:10113000415600436F756C646E2774206F70656E46
:101140002066696C6520006572726F7220636F7231
:101150007265637465640057726974696E672049CB
:101160006E697469616C2073657474696E6773204D
:10117000746F20454550524F4D212121004E414E64
:10118000494E495459494E46CDCCCC3D0AD7233C13
:1011900017B7D13877CC2B329595E6241FB14F0A7B
:1011A000000020410000C84200401C4620BCBE4C4C
:1011B000CA1B0E5AAEC59D74B15F11241FBECFEF7E
:1011C000D0E4DEBFCDBF18E0A0E0B1E0ECECF5ED7F
:1011D00000E00BBF02C007900D92A63FB107D9F700
:1011E00023E1A6EFB8E001C01D92AB3CB207E1F7E6
:1011F00018E0CDEDD8E004C02197FE010E944E62B8
:10120000CC3DD107C9F70E943C4E0C94E46A0C9483
:101210000000662351F05C98962F982311F05E9A97
:1012200001C05E985C9A6695F4CF08955F9A5F98C6
:1012300008951F93CF93DF93EC0197FF02C05D9851
:1012400003C05D9A892B59F40E9416090E94160961
:101250000E941609DF91CF911F910C9416090E94EC
:1012600016090E9416090E9416090E9416095D9827
:101270000E9416095D9A11E0812F90E08C179D075E
:1012800024F40E9416091F5FF7CFDF91CF911F91C1
:1012900008951F93CF93DF931F92CDB7DEB7162F1C
:1012A00090E049830E94190964E085E00E940909E1
:1012B00060E4812F0E94090968E04981842F0E941F
:1012C000090980E090E00F90DF91CF911F910C947D
:1012D0001909CF93DF93EC010E94223580913E12D1
:1012E000882321F084E392E10E944540CE010E94D0
:1012F0007F15811114C064E170E080E090E00E94ED
:10130000181CCE010E947F15811109C088E89BE05E
:101310000E943540CE010E94A5120E94FF610E94EA
:10132000C913811106C08CE99BE0DF91CF910C9429
:10133000AA2680911F0980934312DF91CF910C94CC
:101340001815CF93DF9300D0CDB7DEB70FB6F89462
:10135000A8952091600028612093600010926000A1
:101360000FBEA89589839A830E94223589819A812C
:101370000E94690980913E128111FCCF99E288E1B7
:101380000FB6F894A895809360000FBE909360000C
:101390000F900F90DF91CF910895CF93DF93C82FD7
:1013A000D0E0FE01E05BF64F808181110AC08091A0
:1013B0005209811123C0DE01A25FBE4F9C919A3079
:1013C000F0F4DE01A65ABC4E81E08C931082FE013F
:1013D000E25FFE4F8AE0808383EC93E00E94A109E4
:1013E000FE01E45AFC4E8081C45FDE4F863018F463
:1013F00087E0888301C0188281E001C080E0DF912E
:10140000CF910895CF92DF92EF92FF920F931F93A7
:10141000CF93DF93C82FD0E08E01005B164FF80109
:101420008081882399F10E9448252AE0C22ED12C80
:10143000B6010E943A629E01225F3E4F7901892BDC
:1014400011F489E006C00E944825B6010E943A6264
:101450008150F7018083F8011082C65ADC4E81E08A
:10146000888384E392E10E944540188210924F09DC
:1014700068EE73E080E090E0DF91CF911F910F91D3
:10148000FF90EF90DF90CF900C94181CDF91CF91DC
:101490001F910F91FF90EF90DF90CF900895CF9321
:1014A000DF93C82FD0E0FE01E25AFC4E808187FF17
:1014B0002FC02091C31330E0FE01E85AFC4E80811A
:1014C00090E001962817390719F50E944825FE017A
:1014D000EA5AFC4E208130E082179307C9F4FE01DE
:1014E000E05BF64F1082FE01E65AFC4E1082FE01D0
:1014F000E45AFC4E8081FE01E45FFE4F863018F412
:1015000087E0808301C01082C25FDE4F8AE088835B
:10151000DF91CF910895CF9383E090E00E94203532
:10152000C82F80935E1381E090E00E942035809365
:10153000581382E090E00E9420358093561387E094
:1015400090E00E94203580935C13CC0F8C2F90E0AC
:10155000959587958C37910519F410923F1306C025
:101560008F379105D1F381E080933F138BE090E0BA
:101570000E942035C82F80935F1389E090E00E947D
:101580002035809359138AE090E00E9420358093A3
:1015900057138CE090E00E94203580935D13CC0FB0
:1015A0008C2F90E0959587958C37910519F08F37A2
:1015B000910519F41092401303C081E08093401309
:1015C00080E090E00E94203591E0811101C090E020
:1015D0009093C41384E090E00E942035809320090A
:1015E00085E090E00E9420359FEF980F933008F03F
:1015F00083E08093530988E090E00E942035809337
:1016000043138DE090E00E94203591E0811101C0EC
:1016100090E090930A018EE090E00E94203591E0E6
:10162000811101C090E0909342138FE090E00E94FE
:10163000203580931F0980E190E00E94203580933F
:101640003D0985E190E00E94203580933C0981E1CD
:1016500090E00E942035C82F8093501382E190E0E3
:101660000E94203591E0811101C090E090931E0905
:1016700084E190E00E94203580934F1386E190E052
:101680000E94203591E0811101C090E09093C21337
:1016900091110FC0C2FF05C094E08C2F8927809361
:1016A00050139091501391FF04C082E089278093DA
:1016B00050130E94694B8F329140A1F081E79BE06B
:1016C0000E94AA266FE289E190E00E941E3561E047
:1016D0008AE190E00E941E356FE070E080E090E0CB
:1016E0000E94181C87E190E00E94203591E0811152
:1016F00001C090E090934E098BE190E00E9420356C
:1017000080931D098EE190E00E94203580931B0993
:101710008FE190E00E9420358093990A80E290E06A
:101720000E94203580931C0981E290E00E942035C0
:101730008093411382E290E00E94203591E0811174
:1017400001C090E090931A09CF910895CF93C62FCE
:1017500090E00E94190964E084E00E94090960E8B1
:101760008C2F0E94090961E080E00E94090980E055
:1017700090E0CF910C941909EF92FF921F93CF93B1
:10178000DF9300D000D01F92CDB7DEB795E0E3E243
:10179000F1E0DE01119601900D929A95E1F7863005
:1017A00008F085E011E07E01E80EF11CF701608190
:1017B0006056812F0E94A60B1F5F1530B9F70F905E
:1017C0000F900F900F900F90DF91CF911F91FF908E
:1017D000EF900895CF9389E999E044E0480F20E025
:1017E00030E0FC01E20FF31F10822C5F3F4F211508
:1017F00051E03507B1F701964813F1CFC0E040E062
:101800006C2F81E00E94490940E06C2F82E00E9429
:10181000490940E06C2F83E00E94490940E06C2FA9
:1018200084E00E944909CF5FC03649F7CF910895FF
:10183000CF9380E00E94020A81E00E94020A809118
:101840005209882309F400C10E94521C60934A097E
:1018500070934B0980934C0990934D0982E00E944C
:10186000E73580912D09833099F038F4813061F0AB
:10187000823009F0E7C081E008C0843009F47DC0FF
:10188000853009F4A2C0DEC080E00E944635DAC08F
:101890000E94EA0B0E94893B1092360991E09093D6
:1018A000380910923509809125098F5F873018F427
:1018B0008093250902C090932509C0912509C33062
:1018C000A1F168F4C130E1F0C23009F0BBC0109260
:1018D000320981E080933109109230093DC0C53052
:1018E00009F43FC090F1C63009F0ACC081E08093AC
:1018F00030131092370910922E090E94C43CA2C0E6
:101900000E94EA0BC0930001C09338091092370976
:10191000C0933209109231091092300910922F09A8
:1019200010922E09109230138DC0109200010E9467
:10193000EA0B81E080933709109232091092310945
:101940001092300980932F0909C010923209109229
:10195000310981E08093300910922F0910922E09ED
:1019600071C0109232091092310910923009109210
:101970002F0981E080932E0965C00E94EA0B109226
:1019800036091092380991E0909335098091260923
:10199000893079F480912C09811102C08AE00AC053
:1019A0008F5F883018F480932C0906C090932C091F
:1019B00003C08F5F80932609809126098C3008F43C
:1019C00041C081E0809326093DC00E94EA0B0E943D
:1019D000EA0B10923609109238091092350991E0FD
:1019E0009093340980912909813079F490912A09E2
:1019F000911102C082E01BC09F5F9A3018F490934F
:101A00002A0917C080932A0914C0823079F4809182
:101A10002B09811102C083E00AC08F5F893018F45E
:101A200080932B0906C090932B0903C08F5F80938E
:101A3000290980912909843018F081E080932909CF
:101A40000E94EA0B10924409CF910895EF92FF9201
:101A50001F93CF93DF939B018032910508F02AC139
:101A60006031710508F026C1542F507144FF70C0D9
:101A70004370582F52955F706830710514F0E2E0A2
:101A800001C0E0E0E50F22FB992790F98F70880FE5
:101A9000890F237060E870E002C0759567952A95FC
:101AA000E2F790E0F0E0423011F14330C1F1262F2F
:101AB0002095DC01AA0FBB1FAA0FBB1FAE0FBF1FD3
:101AC000A756B64F3C91413019F032233C9302C0E7
:101AD000632B6C938096880F991F880F991FE80FCE
:101AE000F91FE756F64F808128232083E3C0DC01ED
:101AF000AA0FBB1FAA0FBB1FAE0FBF1FA756B64F23
:101B0000262F20953C9123232C939C01205E3F4F50
:101B1000220F331F220F331FE20FF31F13C0DC010C
:101B2000AA0FBB1FAA0FBB1FAE0FBF1FA756B64FF2
:101B30002C91262B2C938096880F991F880F991F24
:101B4000E80FF91FE756F64F8081862B8083B2C0DD
:101B5000443008F0AFC0BC01E4E075956795EA95A4
:101B6000E1F7283031050CF052E0560F8F709927BD
:101B7000880F22FB662760F9182F160F2370332772
:101B800088E090E07C0102C0F594E7942A95E2F7A2
:101B9000612F70E0C52FD0E09B01220F331F220F71
:101BA000331FF901EC0FFD1FE756F64F9081892F87
:101BB0008E21A1E009F4A0E0FB01B096EE0FFF1F1B
:101BC000EE0FFF1FEC0FFD1FE756F64F80818E21B1
:101BD00009F082E08A0F481709F46CC0413039F1EE
:101BE00048F0423009F441C0433009F063C0492F46
:101BF0004E293EC0E094492F4E212C0F3D1FF90184
:101C0000E756F64F4083FF24F394F50E612F8F2D96
:101C10000E94490960E2610FFE0184E0689FE00DC7
:101C2000F11D1124E756F64F90814E2D1CC0492F0F
:101C30004E292C0F3D1FF901E756F64F4083FF2434
:101C4000F394F50E612F8F2D0E94490960E2610F18
:101C5000FE0184E0689FE00DF11D1124E756F64F68
:101C60004E2D4095908149231CC04E2D409549230F
:101C70002C0F3D1FF901E756F64F4083FF24F394E4
:101C8000F50E612F8F2D0E94490960E2610FFE0160
:101C900084E0689FE00DF11D1124E756F64F408166
:101CA0004E2940838F2DDF91CF911F91FF90EF90B0
:101CB0000C944909DF91CF911F91FF90EF90089507
:101CC0002F923F924F925F926F927F928F929F924C
:101CD000AF92BF92CF92DF92EF92FF920F931F933A
:101CE000CF93DF93582E492E322EA895403214F010
:101CF000405201C040E03B015B0128E0A20EB11C54
:101D000038E0439FE0011124C61BD70B85E0882EE5
:101D1000912C832D8071282EF301EC0FFD1FE758C5
:101D2000FD4FE491E52CF42CC12CD12C0E2F10E0AA
:101D3000C4018C199D09980102C0359527958A9593
:101D4000E2F720FF02C0432D01C0422DB301C701BD
:101D50000E94260D3FEFC31AD30A8FEFE81AF80A44
:101D600026E0C216D10421F73FEF631A730A6A1402
:101D70007B0491F6DF91CF911F910F91FF90EF902F
:101D8000DF90CF90BF90AF909F908F907F906F909B
:101D90005F904F903F902F9008952F923F924F92D7
:101DA0005F926F927F928F929F92AF92BF92CF92EB
:101DB000DF92EF92FF920F931F93CF93DF93CDB7F4
:101DC000DEB72A970FB6F894DEBF0FBECDBFF82E50
:101DD000192F6B012A011901A895043051F40E94B2
:101DE0004D6723E030E040E050E00E94816A01E06E
:101DF000060FF9861A8729853A853A832983720165
:101E0000C601089698878F83102F1071F2010190F8
:101E10000020E9F73197CF0184199509970124191A
:101E200035092817390708F0B6C092E029163104A1
:101E300071F0A3E02A16310409F451C0202FB1E05B
:101E40002B16310409F091C0F701408190C0D701F1
:101E50008C91A895803214F0805201C080E0360148
:101E6000B8E08B9FC00111249C012C193D093C83D3
:101E70002B83EB81FC81E60DF71DE758FA4FE491C7
:101E800089849A84A12CB12C2E2F30E03E832D839F
:101E900085E090E08A199B092D813E8102C035952D
:101EA00027958A95E2F720FF02C0402F01C0412FFD
:101EB000B301C4010E94260D3FEFA31AB30A8FEFAE
:101EC000881A980A96E0A916B10411F7AFEF6A1ABA
:101ED0007A0AEF81F8856E167F0659F64DC0D70154
:101EE0008C9180528F3508F080E05601B8E08B9FCE
:101EF000C00111249C012C193D093C832B83EB81EB
:101F0000FC81EA0DFB1DE758F74FE49169807A8068
:101F1000812C912C2E2F30E03E832D8383E090E0A6
:101F2000881999092D813E8102C0359527958A959A
:101F3000E2F720FF02C0402F01C0412FB501C301CD
:101F40000E94260D3FEF831A930A8FEF681A780AD2
:101F500094E08916910411F7AFEFAA1ABA0AEF813B
:101F6000F885AE16BF0659F607C0D7014C91B601E9
:101F700089859A850E94600EBFEFEB1AFB0AE985FE
:101F8000FA853696FA87E98729813A812C5F3F4F97
:101F90003A8329833BCF2A960FB6F894DEBF0FBE53
:101FA000CDBFDF91CF911F910F91FF90EF90DF9008
:101FB000CF90BF90AF909F908F907F906F905F90E9
:101FC0004F903F902F9008950F93CF9380914F099A
:101FD0008111E7C00E94CD09811170C081E00E948B
:101FE000CD0981116BC00E94521C60934A09709305
:101FF0004B0980934C0990934D090E94521C6093A9
:102000003113709332138093331390933413C1E0E0
:10201000C09352090E94893B1092360910923809E8
:102020001092370980912D098F5F863008F4B6C071
:10203000C0932D0982E00E94E735E3E2F9E01192B6
:1020400089E0ED32F807D9F780912D09833009F442
:102050004AC008F041C08130A1F580E09CE00E94B8
:10206000AA261092000110923509109234090E949C
:10207000EA0BE0912D0984E0E89FF0011124EC5D6A
:10208000FE4F4081518103E021E030E060E070E0EC
:1020900087E090E00E94CD0EE0912D0984E0E89F5A
:1020A000F0011124EC5DFE4F4281538121E030E0CC
:1020B00068E070E080E090E00E94CD0E109243094D
:1020C00070C08230D9F78CEE9BE00E94AA26109255
:1020D000000110923509CBCF843041F0853071F783
:1020E0008CEA9BE02FC085ED9BE02CC081EC9BE04F
:1020F0000E94AA26109200010E94EA0BE0912D098D
:1021000084E0E89FF0011124EC5DFE4F4081518195
:1021100003E021E030E060E070E087E090E00E94C2
:10212000CD0EE0912D0984E0E89FF0011124EC5DD3
:10213000FE4F4281538121E030E068E070E081E0B1
:1021400090E0BACF0E94AA261092000110923509A1
:102150000E94EA0BE0912D0984E0E89FF001112430
:10216000EC5DFE4F4081518103E021E030E060E012
:1021700070E083E090E00E94CD0EE0912D0984E0B4
:10218000E89FF0011124EC5DFE4F4281538121E074
:1021900030E068E070E083E090E08ECF80932D091E
:1021A00049CFCF910F9108958F929F92AF92BF9296
:1021B000CF92DF92EF92FF920F931F93CF93DF9313
:1021C000CDB7DEB764970FB6F894DEBF0FBECDBFB4
:1021D0005F87798BF42E411109C06F5F6D3040F03D
:1021E0002FEFC21AD20A21E061E003C0242F01C000
:1021F00021E089898B831A82198281E08D836E8325
:102200008EE48C0D8F83CE0101962C8B0E94A02230
:102210004B015C010F8510E00E941C252C8930E0E9
:102220002150310987E0829FF001839FF00D112436
:102230008091AA0E9801281B3109C901079667E011
:1022400070E00E943A62DF01A80FB91F20E831E573
:1022500041E050E00E94AB6A680D791D8A1D9B1D0C
:10226000F11004C060587A438940910964960FB612
:10227000F894DEBF0FBECDBFDF91CF911F910F91BC
:10228000FF90EF90DF90CF90BF90AF909F908F9096
:1022900008958F929F92AF92BF92CF92DF92EF926A
:1022A000FF920F931F93CF93DF936C01E0902C105C
:1022B000F0902D1000912E1010912F1020913010C1
:1022C00030913110409132105091331060913410A0
:1022D0007091351080913610909137100E94D41073
:1022E000CCE2D0E168A379A38AA39BA3E8E3F0E161
:1022F000E080F180028113812481358146815781FC
:1023000060857185828593850E94D4106B017C0164
:102310006CA37DA38EA39FA3AE89BF892CE330E07D
:102320000E94576208A119A12AA13BA148015901A5
:10233000861A970AA80AB90A888E998EAA8EBB8E29
:10234000AA85BB852CE330E00E945762C61AD70AE3
:10235000E80AF90ACC8EDD8EEE8EFF8EDF91CF91EA
:102360001F910F91FF90EF90DF90CF90BF90AF90B3
:102370009F908F9008952F923F924F925F926F920D
:102380007F928F929F92AF92BF92CF92DF92EF9205
:10239000FF920F931F93CF93DF9300D000D01F9233
:1023A000CDB7DEB78C016983FC0101900020E9F70D
:1023B0009F01281B390B3D832C8328EF6C817D8185
:1023C0002603C001279F900D11249B838A8380E2FE
:1023D000E82EF12C93E0492E512C612C712C4A01EE
:1023E000550FAA08BB086A817B816E157F05CCF565
:1023F00067011801C101801B910B2C813D8182175F
:102400009307C4F43981343041F40E944D67A3012D
:1024100092010E94816A6F5F6983F10141911F01FE
:10242000298168E070E0C6010E94600EF8E0CF0EDE
:10243000D11CE0CF8BE10E94831B0197A1F08CE1BE
:102440000E94831B019779F08AE10E94831B019708
:1024500051F0C501B4010E94181C31E0E31AF108E3
:10246000C2CF81E003C00E94EA0B80E00F900F9082
:102470000F900F900F90DF91CF911F910F91FF90D0
:10248000EF90DF90CF90BF90AF909F908F907F9014
:102490006F905F904F903F902F9008957F928F9212
:1024A0009F92AF92BF92CF92DF92EF92FF920F93E3
:1024B0001F93CF93DF93722E2BE0429F600D711D0F
:1024C00011242CE0269F6001279FD00C1124C2E02C
:1024D000D0E003965C0132E0C31AD1084501C60181
:1024E0008C0F9D1FFC01EC55F34F7F0104E010E0C1
:1024F000F701649170E0002E02C0759567950A940B
:10250000E2F760FF02C0472D01C040E0BE01C401F8
:102510000E94260D01501109FFEF8F1A9F0A0F3FED
:102520002FEF120729F72196CE30D105B9F6DF91AA
:10253000CF911F910F91FF90EF90DF90CF90BF90C0
:10254000AF909F908F907F900895009769F0FC0165
:1025500001900020E9F73197AF01481B590BBC01EE
:102560008EEA9EE00C94F01680E090E008958F9241
:102570009F92AF92BF920F931F93CF93DF93CDB7EC
:10258000DEB7A1970FB6F894DEBF0FBECDBF19A27C
:10259000423008F44AE08E010F5D1F4F842E912CCB
:1025A000A12CB12CA50194010E94B36AE62FB901B8
:1025B000CA0101501109EA3014F4E05D01C0E95C80
:1025C000D801EC93232B242B252B61F7C8010E9403
:1025D000A512A1960FB6F894DEBF0FBECDBFDF9156
:1025E000CF911F910F91BF90AF909F908F900895C2
:1025F000CF92DF92EF92FF92CF93DF936B017C013A
:102600000E944025EC01609144107091451080912A
:102610004610909147100E944025C817D90731F005
:10262000C701B6010E9440250E944911C701B601A9
:102630000E944025EC0160914410709145108091FA
:102640004610909147100E944025C817D90731F0D5
:10265000C701B6010E9440250E94491140914810CF
:102660005091491060914A1070914B108091441024
:1026700090914510A0914610B0914710841795078E
:10268000A607B70758F4C816D906EA06FB06D8F01D
:10269000C416D506E606F706B0F40AC0C416D50679
:1026A000E606F70628F0C816D906EA06FB0658F033
:1026B0008CE290E19093A60E8093A50EA091361027
:1026C000B09137100AC088E390E19093A60E8093F2
:1026D000A50EA0914210B09143102CE330E00E946F
:1026E00057626C0D7D1D8E1D9F1DDF91CF91FF9058
:1026F000EF90DF90CF90089581E480937C008091EB
:102700007A00806480937A0080917A0086FDFCCF05
:10271000809178002091790090E0922B0895CF93DA
:10272000DF930E94A512EC0183EF92E00E94A512B4
:102730008C0F9D1FDF91CF9108950F931F93CF931F
:10274000DF938C01C0E0D0E0F801EC0FFD1F649135
:10275000662371F0E091AE0EF091AF0E0190F08122
:10276000E02D8EEA9EE00995892B11F02196ECCFA1
:10277000CE01DF91CF911F910F910895E091AE0EA0
:10278000F091AF0E0190F081E02D682F8EEA9EE06F
:1027900009948F929F92AF92BF92CF92DF92EF9265
:1027A000FF920F931F93CF93DF93CDB7DEB762975E
:1027B0000FB6F894DEBF0FBECDBF80914612877072
:1027C00041F1C0905312D0905412E0905512F09005
:1027D0005612C114D104E104F10409F050C019C02B
:1027E000460157012FEF821A920AA20AB20A6B0120
:1027F0007C01681579058A059B0509F045C0B7017C
:10280000A601C8010E947C426115710581059105F0
:1028100039F74CE050E0BE016F5F7F4F86E492E1F4
:102820000E94A9430C9749F544E050E06FEF73E034
:10283000CE0101960E94DE63892BF9F444E050E05A
:1028400064E074E0CE0109960E94DE63892BA9F44E
:1028500048E050E0BE016F5F7F4F86E492E10E9446
:10286000A943089751F444E050E069E074E0CE01D8
:1028700001960E94DE63892B01F110E0C5C0009132
:10288000571210915812BBCFF8012289203129F03C
:1028900008EF1FEF2FEF3FE004C008EF1FEF20E02D
:1028A00030E0601771078207930708F4B2CF809178
:1028B0004612886080934612ACCFCD80DE80EF80D8
:1028C000F8848601C6018D7F409761F4A601BE01A0
:1028D0006F5F7F4F86E492E10E94A9438C159D05AE
:1028E00061F602C01A82198289819A81019739F4AE
:1028F0000231110539F489899A89892B19F08AE8FE
:102900009CE007C08B8180933412833028F089E7E4
:102910009CE00E94AA26B1CF823021F483E69CE09D
:102920000E94AA26EF85E0933912E13118F085E480
:102930009CE0EFCF2D813E814F8158852093351249
:10294000309336124093371250933812A0913412BC
:10295000B0E00E94A06A6B017C01AE2FB0E09B0149
:10296000AC010E94A06ADC01CB0123E0B695A795DB
:10297000979587952A95D1F7F3E2CF16F6E5DF060E
:10298000E104F10438F4893828E5920721E0A20730
:10299000B10518F08FE29CE0BCCF85349C4AA105BC
:1029A000B10558F080914612182F187083FD05C0AC
:1029B00084E19CE00E94AA2627C086E492E19093DD
:1029C00045128093441210923F12109240121092BE
:1029D00041121092421210923E1210923A1210922C
:1029E0003B1210923C1210923D121092431240E0A2
:1029F00050E060E070E084E392E10E94974490959B
:102A0000192F111F1127111F812F62960FB6F894ED
:102A1000DEBF0FBECDBFDF91CF911F910F91FF9011
:102A2000EF90DF90CF90BF90AF909F908F900895E0
:102A300084E392E19093A40E8093A30E40E052E0D1
:102A400063EA7CE00E949744181619060CF056C001
:102A500023EA3CE03093A20C2093A10C8D55934FB8
:102A60009093A00C80939F0C40E052E06FE97AE0D5
:102A700084E392E10E94974497FD40C02FE93AE039
:102A800030939E0A20939D0A8156954F90939C0AFD
:102A900080939B0A81E080939A0A80933E12209A49
:102AA000219A229A289A239A2B981092800089E0E2
:102AB00080938100A091341220913512309136120A
:102AC0004091371250913812B0E00E94A06A9B01E9
:102AD000AC0160E074E284EF90E00E94B36A30934E
:102AE00089002093880081E090E090938B00809390
:102AF0008A0080916F00826080936F0008958F92AA
:102B00009F92AF92BF92EF92FF920F931F93CF933A
:102B1000DF93CDB7DEB7AD970FB6F894DEBF0FBE2B
:102B2000CDBF8C018091661290916712A0916812BE
:102B3000B091691280935E1290935F12A09360121D
:102B4000B09361121092621210926312109264128A
:102B5000109265124EE2F42E9091591297709230B5
:102B600008F4C1C040E250E0BE016F5F7F4F89E5CD
:102B700092E10E94A943803209F0B5C0998199235E
:102B800009F4B1C0953E71F39E3261F3BC84FB2D14
:102B9000F870AF2EB3FCE6CFFE01319690E020E056
:102BA0008191803291F0283041F4A1E2B0E0AC0F85
:102BB000BD1FA90FB11DFC929F5FA1E2B0E0AC0F59
:102BC000BD1FA90FB11D8C939F5F2F5F2B3041F765
:102BD000E1E2F0E0EC0FFD1FE90FF11D1082B801FA
:102BE000CE0181960E94B963892B09F0B5CFE090A0
:102BF0006A12F0906B12F7018289803108F474C078
:102C00004D895E8960E070E0BA01552744270B8D3D
:102C10001C8D20E030E0402B512B622B732B409316
:102C200053125093541260935512709356128B2D79
:102C3000887181F481E0809346128D8D9E8DAF8DD9
:102C4000B8A18093471290934812A0934912B09371
:102C50004A122AC0803109F047C084E080934612AE
:102C6000812C912C5401C7010E947C42AB01BC0114
:102C7000411551056105710579F0F701808190E0FA
:102C8000982F8827990F092E000CAA0BBB0B880ED2
:102C9000991EAA1EBB1EE7CF80924712909248123F
:102CA000A0924912B0924A12F0925812E092571232
:102CB0008091531290915412A0915512B0915612D6
:102CC00080934B1290934C12A0934D12B0934E12DE
:102CD00010924F12109250121092511210925212E2
:102CE000AA24A39401C0A12C8A2DAD960FB6F89406
:102CF000DEBF0FBECDBFDF91CF911F910F91FF902F
:102D0000EF90BF90AF909F908F900895EF92FF92B9
:102D10000F931F93CF93DF937C018B01C5E9D1E122
:102D20008D819E810E94B921B7018D819E810E9473
:102D30001E2040E06EEB8D819E810E9477218D8167
:102D40009E810E942C21F80180838D819E810E94AA
:102D50002C21F80181838D819E810E942C21F80114
:102D600082838D819E810E942C21F80183838D8135
:102D70009E810E942C21F80184838D819E810E9476
:102D80002C21F80185838D819E810E942C21F801E0
:102D900086838D819E810E942C21F80187838D81FD
:102DA0009E810E942C21F80180878D819E81DF9178
:102DB000CF911F910F91FF90EF900C94B921CF9379
:102DC000DF93EB010E94861668E0CE010E947C1F13
:102DD00091E02885821390E0892FDF91CF910895AB
:102DE000CF92DF92EF92FF920F931F93CF93DF93D7
:102DF0006C017A018B01C0E0D0E0CE15DF0589F0CF
:102E0000D8016D918D01D601ED91FC910190F08179
:102E1000E02DC6010995892B11F47E0102C021968F
:102E2000ECCFC701DF91CF911F910F91FF90EF90F1
:102E3000DF90CF900895FC01918D828D981761F0FD
:102E4000828DDF01A80FB11D5D968C91928D9F5FE1
:102E50009F73928F90E008958FEF9FEF0895FC018C
:102E6000918D828D981731F0828DE80FF11D858D3F
:102E700090E008958FEF9FEF0895FC01918D228DD2
:102E8000892F90E0805C9F4F821B91098F73992757
:102E900008958EEA9EE00E943D1721E0892B09F4F7
:102EA00020E0822F0895FC01848DDF01A80FB11D61
:102EB000A35ABF4F2C91848D90E001968F73992770
:102EC000848FA689B7892C93A089B1898C9180645D
:102ED0008C93938D848D981306C00288F389E02D1E
:102EE00080818F7D80830895EF92FF920F931F93CF
:102EF000CF93DF93EC0181E0888F9B8D8C8D9813AD
:102F000005C0E889F989808185FD24C0F62E0B8DE6
:102F100010E00F5F1F4F0F731127E02E8C8DE8120A
:102F20000CC00FB607FCFACFE889F989808185FFCC
:102F3000F5CFCE010E945317F1CF8B8DFE01E80F24
:102F4000F11DE35AFF4FF0820B8FEA89FB898081E4
:102F5000806207C0EE89FF896083E889F9898081F2
:102F60008064808381E090E0DF91CF911F910F9189
:102F7000FF90EF900895CF93DF93EC01888D882325
:102F8000C9F0EA89FB89808185FD05C0A889B989D6
:102F90008C9186FD0FC00FB607FCF5CF808185FFB1
:102FA000F2CFA889B9898C9185FFEDCFCE010E941F
:102FB0005317E7CFDF91CF91089580E090E0892B00
:102FC00021F00E94491781110DC080E090E0892B0B
:102FD00071F080E090E0892B51F00E940000811197
:102FE00004C008950E940000F0CF0C9400000895E2
:102FF00090E0FC013197EA30F10540F5EA5BFF4FC4
:103000000C944E62809180008F7703C08091800085
:103010008F7D80938000089584B58F7702C084B53A
:103020008F7D84BD08958091B0008F7703C080911B
:10303000B0008F7D8093B0000895809190008F77CD
:1030400003C0809190008F7D8093900008953FB7DA
:10305000F8948091B2129091B312A091B412B091F1
:10306000B51226B5A89B05C02F3F19F00196A11DEA
:10307000B11D3FBFBA2FA92F982F8827820F911D0E
:10308000A11DB11DBC01CD0142E0660F771F881F55
:10309000991F4A95D1F7089508952F923F924F9224
:1030A0005F926F927F928F929F92AF92BF92CF92D8
:1030B000DF92EF92FF920F931F93CF93DF9300D095
:1030C00000D000D0CDB7DEB7882309F44EC1E0911F
:1030D000AB118091A9129091AA12A091AB12B0915C
:1030E000AC120196A11DB11D8093A9129093AA1252
:1030F000A093AB12B093AC12F0E0E455FE4E808387
:103100009183A283B3838091AB118095982F9370A4
:103110008091AB11890F8093AB11E091AB11F0E07E
:10312000E455FE4E80818F738083E091AB11F0E017
:10313000E455FE4E208130E4939FC0011124822B80
:1031400080838091AB118F5F8093AB112090AB1186
:10315000822D86958695823008F459C2282E880FD4
:103160003308C101880F991F880F991FAC0148557A
:103170005E4E5E834D83FA0180819181A281B3818D
:10318000C12CD12C7601F1E02F1A310827E4C21AA4
:1031900026E8D20A28ECE20A21E6F20AB701A601E3
:1031A00012E076956795579547951A95D1F7342F84
:1031B00033703A8319822981622F70E02C013D011E
:1031C00054E0440C551C661C771C5A95D1F74C01F1
:1031D0005D01E5E0B694A79497948794EA95D1F7BA
:1031E000621573050CF062C06F5F7F4F660F771F2B
:1031F000660F771FFB01E455FE4E0081118122818D
:103200003381AB0148555E4E5C834B83B901A80105
:10321000E3E07695679557954795EA95D1F744266B
:10322000552666267726B901A801F2E0440F551FFE
:10323000661F771FFA95D1F784269526A626B7260E
:10324000480C591C6A1C7B1C59815370EA815E270B
:1032500044E0549FF0011124E65FF64F4081518114
:103260006281738184279527A627B727B901A80112
:103270004C255D256E257F25840F951FA61FB71F42
:10328000482659266A267B26EB81FC818081918124
:10329000A281B381840D951DA61DB71D80839183E6
:1032A000A283B383F981FF5FF98385CF4091AC118D
:1032B0005091AD116091AE117091AF11322F3370FA
:1032C000EA813E2724E0329FF0011124E65FF64FA9
:1032D000008111812281338180279127A227B32782
:1032E000970186010427152726273727800F911F6E
:1032F000A21FB31F8A019B01F3E03695279517950E
:103300000795FA95D1F704251525262537252A0195
:103310003B0142E0440C551C661C771C4A95D1F7D2
:10332000482459246A247B24400E511E621E731EB9
:1033300084259525A625B725ED81FE814081518103
:1033400062817381840F951FA61FB71F80839183AD
:10335000A283B383F6E5CF16FAEDDF06FCE4EF06B1
:10336000F5EBFF0609F012CF52C18091BE13909188
:10337000BF13892B09F04BC11091AB11169516950F
:10338000123008F428C18091AC119091AD11A09138
:10339000AE11B091AF1144E0149F90011124F901D6
:1033A000E855FE4E1F0146E55AED6CE475EB1150F1
:1033B0001B838A019B01E2E03695279517950795B7
:1033C000EA95D1F7F02FF370FA832B8129833981A5
:1033D000032F10E098012150304C220F331F220F91
:1033E000331FF901E455FE4E80809180A280B380A6
:1033F000F901E055FE4EFE83ED832401350104E022
:10340000440C551C661C771C0A95D1F76C017D0194
:1034100023E0F694E794D794C7942A95D1F74C24E7
:103420005D246E247F2495018401E5E0369527957F
:1034300017950795EA95D1F76C017D01F2E0CC0C68
:10344000DD1CEE1CFF1CFA95D1F7C026D126E22622
:10345000F3264C0C5D1C6E1C7F1C39813370FA8185
:103460003F2724E0329FF0011124E65FF64FC08031
:10347000D180E280F3808C249D24AE24BF246C0193
:103480007D01C426D526E626F726C80CD91CEA1CE1
:10349000FB1C4C245D246E247F24ED81FE81808101
:1034A0009181A281B38184199509A609B709808306
:1034B0009183A283B383F981F150F983F11187CF0E
:1034C000F10180809180A280B3802C013D01E3E076
:1034D0007694679457944794EA95D1F775016401FF
:1034E000F4E0CC0CDD1CEE1CFF1CFA95D1F74C244B
:1034F0005D246E247F248C019D01E2E0000F111FEA
:10350000221F331FEA95D1F775016401F5E0F694A7
:10351000E794D794C794FA95D1F7C026D126E2262E
:10352000F326C40CD51CE61CF71C84279527A62778
:10353000B7272A81F4E02F9F80011124F801E65F6C
:10354000F64F4080518062807380482459246A2459
:103550007B24480E591E6A1E7B1E4C245D246E245B
:103560007F248091AC119091AD11A091AE11B091DA
:10357000AF1184199509A609B7098093AC119093EE
:10358000AD11A093AE11B093AF11495B594767439A
:103590007E4909F00ECFE091AB11E150E093AB1101
:1035A000F0E0E455FE4E2081229526952695237065
:1035B000E091AB11F0E0E455FE4E80818F7390E016
:1035C000A0E0B0E08093B9139093BA13A093BB131B
:1035D000B093BC1303C01123D1F0DDCF215078F09C
:1035E000E091AB11E150E093AB11F0E0E455FE4EF9
:1035F0003081BA2FA92F982F8827832BEFCF809364
:10360000B9139093BA13A093BB13B093BC1326962F
:103610000FB6F894DEBF0FBECDBFDF91CF911F91E3
:103620000F91FF90EF90DF90CF90BF90AF909F9061
:103630008F907F906F905F904F903F902F90089564
:1036400008950E94B4631F920F920FB60F92112437
:103650000BB60F922F933F934F935F936F937F938C
:103660008F939F93AF93BF93EF93FF938EEA9EE068
:103670000E945317FF91EF91BF91AF919F918F914E
:103680007F916F915F914F913F912F910F900BBE62
:103690000F900FBE0F901F9018951F920F920FB6AC
:1036A0000F9211240BB60F922F938F939F93EF934A
:1036B000FF93E091BE0EF091BF0E8081E091C40EA9
:1036C000F091C50E82FD12C090818091C70E8F5F70
:1036D0008F732091C80E821751F0E091C70EF0E071
:1036E000E255F14F958F8093C70E01C08081FF9105
:1036F000EF919F918F912F910F900BBE0F900FBE66
:103700000F901F901895CF93DF93282F30E0F90189
:10371000EA56FF4E8491F901EE59F04FD491F90128
:10372000EE5BF04FC491CC2391F081110E94F81709
:10373000EC2FF0E0EE0FFF1FE85CF04FA591B49185
:10374000EC91ED2381E090E021F480E002C080E084
:1037500090E0DF91CF9108951F93CF93DF93282FAF
:1037600030E0F901EA56FF4E8491F901EE59F04F2D
:10377000D491F901EE5BF04FC491CC23C9F0162F20
:1037800081110E94F817EC2FF0E0EE0FFF1FE457B5
:10379000FF4EA591B4918FB7F894111105C09C917B
:1037A000ED2FE095E92302C0EC91ED2BEC938FBF58
:1037B000DF91CF911F910895CF93DF9390E0FC01AB
:1037C000EE59F04F2491FC01EE5BF04F8491882379
:1037D00061F190E0880F991FFC01EE57FF4EC591F3
:1037E000D491FC01E457FF4EA591B491611109C039
:1037F0009FB7F8948881209582238883EC912E23AB
:103800000BC0623061F49FB7F8943881822F8095A5
:1038100083238883EC912E2B2C939FBF06C08FB7F8
:10382000F894E8812E2B28838FBFDF91CF910895E4
:103830008F929F92AF92BF92CF92DF92EF92FF92C0
:103840006B017C010E9427184B015C01C114D1045B
:10385000E104F104F1F00E942718DC01CB01881982
:103860009909AA09BB09883E9340A105B10570F3E7
:1038700021E0C21AD108E108F10888EE880E83E041
:10388000981EA11CB11CC114D104E104F10419F764
:10389000DDCFFF90EF90DF90CF90BF90AF909F90E3
:1038A0008F9008952FB7F8946091AE127091AF1277
:1038B0008091B0129091B1122FBF08951F920F9274
:1038C0000FB60F9211242F933F938F939F93AF9333
:1038D000BF938091AE129091AF12A091B012B091AF
:1038E000B1123091AD1223E0230F2D3720F4019651
:1038F000A11DB11D05C026E8230F0296A11DB11D13
:103900002093AD128093AE129093AF12A093B01299
:10391000B093B1128091B2129091B312A091B412EF
:10392000B091B5120196A11DB11D8093B212909372
:10393000B312A093B412B093B512BF91AF919F91FF
:103940008F913F912F910F900FBE0F901F90189560
:103950001F920F920FB60F9211240BB60F922F9356
:103960003F934F935F936F937F938F939F93AF9307
:10397000BF93EF93FF93E0910801F091090109953E
:10398000FF91EF91BF91AF919F918F917F916F9137
:103990005F914F913F912F910F900BBE0F900FBEF3
:1039A0000F901F9018951F920F920FB60F9211242F
:1039B0000BB60F922F933F934F935F936F937F9329
:1039C0008F939F93AF93BF93EF93FF93E091060183
:1039D000F09107010995FF91EF91BF91AF919F91F0
:1039E0008F917F916F915F914F913F912F910F90A8
:1039F0000BBE0F900FBE0F901F9018951F920F9245
:103A00000FB60F9211240BB60F922F933F934F9343
:103A10005F936F937F938F939F93AF93BF93EF9336
:103A2000FF93E0910401F09105010995FF91EF9159
:103A3000BF91AF919F918F917F916F915F914F91C6
:103A40003F912F910F900BBE0F900FBE0F901F90C4
:103A500018950F931F93CF93DF938C01EB014CE0EC
:103A600050E00E94696ABE01645F7F4F4CE050E005
:103A7000C8010C96DF91CF911F910F910C94696A48
:103A80001F920F920FB60F9211240BB60F922F9325
:103A90003F934F935F936F937F938F939F93AF93D6
:103AA000BF93EF93FF9380915E0F0E94831B209141
:103AB000610F3091620F2F5F3F4F3093620F209361
:103AC000610F90912B10943618F095E090935F0F52
:103AD00090915F0F9330B9F018F4923039F057C0DD
:103AE000943059F1953009F44CC051C081114FC048
:103AF0002091610F3091620F2436310508F443C0E4
:103B000010922B101CC0813009F041C0E0912B10A5
:103B100091E09E0F90932B10F0E02091610F309177
:103B2000620FEE0FFF1FE25AF04F3683258310928B
:103B3000620F1092610F94E021C0811117C0E091D3
:103B40002B1091E09E0F90932B10F0E02091610FCD
:103B50003091620FEE0FFF1FE25AF04F368325833C
:103B60001092620F1092610F93E008C02091610FD4
:103B70003091620F2536310550F095E090935F0F3C
:103B800006C0811104C01092620F1092610F9091D3
:103B9000600F992329F0811102C02D9A01C02D9840
:103BA000FF91EF91BF91AF919F918F917F916F9115
:103BB0005F914F913F912F910F900BBE0F900FBED1
:103BC0000F901F901895CF92DF92EF92FF92CF93B4
:103BD000DF93EC01072E000C880B990B0E943169D2
:103BE0006B017C0120E030E040E45FE30E949069DB
:103BF00020E030E048E452E40E9402630E947463D3
:103C0000C617D707D4F020E030E040EA5FE3C701F1
:103C1000B6010E94906920E030E048E452E40E943E
:103C2000026320E030E040E85FE30E9496620E9479
:103C3000746321E06C177D070CF420E0822F90E084
:103C4000DF91CF91FF90EF90DF90CF9008950F9389
:103C50001F93CF93DF931F92CDB7DEB7182F2CB5EC
:103C600021602CBD60E082E199830E94AC1B9981A8
:103C70009EBD0DB407FEFDCF8EB5282F30E0322F4C
:103C800022271EBD0DB407FEFDCF8EB58901082B7E
:103C900061E082E10E94AC1B8CB58E7F8CBDC801B7
:103CA0000F90DF91CF911F910F9108958091BD13D7
:103CB000882369F087E89EE19093090180930801C9
:103CC000809169008F7C80936900EA9A0895EA9850
:103CD0008CE498E190930901809308010895862768
:103CE000682F62956827062E669566956025062ED4
:103CF000669560256770082E892F669507946795ED
:103D0000902D862706946795902586270895CF9352
:103D100080E090E00E94271E8091C113853009F059
:103D200094C08091A7129091A812892B91F0809154
:103D3000A61284FD0EC085E880937A008091A612B9
:103D40008F70806480937C0080917A00806480937F
:103D50007A0080E090EB0E94271E682F8091A712C6
:103D60009091A812892B69F08091A61284FD09C058
:103D700080917A0086FDFCCF90917A0090649093B8
:103D80007A008091C01381110EC08091B8138823EE
:103D900051F0E091C01391E09E0F9093C013F0E0BA
:103DA000E855FE4E8083E091C01381E08E0F809332
:103DB000C013F0E0E855FE4E60838091BE139091F1
:103DC000BF130E946F1E9093BF138093BE13809108
:103DD000A7129091A812892B39F18091A61284FD27
:103DE00023C08091B5138138F8F480917A0086FD64
:103DF000FCCF809178002091790090E0922B9C017B
:103E00002C5331092F35314078F42091B61330917D
:103E1000B713820F931F9093B7138093B6138091BB
:103E2000B5138F5F8093B5138091AB112091C013B0
:103E300090E0059630E0821793070CF456C080910D
:103E4000C013863808F051C055C08091C11387FF58
:103E50001BC0E091AB118091C11391E0980F90933A
:103E6000C113EC5F8E0FE82FF0E0E855FE4EC081E5
:103E70008091BE139091BF136C2F0E946F1E909380
:103E8000BF138093BE132DC08091C11391E0980F92
:103E90009093C1138330F1F054F48823A9F081305A
:103EA000E9F48091BE139091BF13C92F1AC08930D5
:103EB000B9F08A3099F4C091B8139091AB118DEF9D
:103EC000891B8093C1130DC08091BE139091BF13C5
:103ED000C82F07C08DE092E80E94271ECAEA01C0E1
:103EE000CDE28C2F90E0985402C08DE092E8CF9103
:103EF0000C94271ECF910895DC01E0E0615038F06A
:103F00008D91E827F0E0EE57F04FE491F7CF8E2F38
:103F10000895AF92BF92CF92DF92EF92FF920F93EC
:103F20001F93CF93DF931F92CDB7DEB75C01E62ED0
:103F3000D72EFC01858581115DC0C5010E94B92184
:103F4000811105C0F5011386158614866BC040E00B
:103F500060EFC5010E94772101E0F12CC12C11E036
:103F6000C5010E940821682FC50169830E940821AC
:103F70006981613019F48130B9F433C04F2D50E0BC
:103F800068131BC0F5018385181730F4E40FF51F83
:103F90008381802349F402C0181731F060E01930A2
:103FA00058F4F501148708C0F501EF0DF11D838168
:103FB000802B838361E009C0C12EF501E40FF51F5A
:103FC0009381802F809589238383C5010E94482196
:103FD0001F5F000F11F4F39401E0F7E0FF1508F004
:103FE000BFCF113438F0F501C386C11015C081E090
:103FF000858712C0F50113861586148680E0D501E9
:104000001396EE2DFD2D9501255F3F4F9D919193C8
:10401000A217B307D9F706C0F5018381882351F3AE
:1040200081E0EDCF0F90DF91CF911F910F91FF9025
:10403000EF90DF90CF90BF90AF900895CF92DF9236
:10404000EF92FF920F931F93CF93DF931F92CDB701
:10405000DEB78C01F62E40E065E579830E9477217A
:10406000CF2C7981D72E760188E0E80EF11CF6017D
:1040700061916F0140E0C8010E947721CE14DF04F6
:10408000B1F70F90DF91CF911F910F91FF90EF90BB
:10409000DF90CF9008958091500F90E02091510FC4
:1040A000821B9109089585ED8093BC008091BC002E
:1040B00084FDFCCF10924D0F08954091D912262F08
:1040C00030E0240F311D21323105DCF420914D0FF9
:1040D0002430C9F4FC0180E090E0861758F4309158
:1040E000D9122191DC01A954BD4EA30FB11D2C930F
:1040F0000196F3CF8091D912680F6093D91280E0B6
:10410000089581E0089582E008950895E091510FA7
:104110008091500FE81730F4F0E0E250FD4E8081BE
:1041200090E008958FEF9FEF08959091510F809147
:10413000500F981750F4E92FF0E0E250FD4E208127
:1041400030E09F5F9093510F02C02FEF3FEFC90106
:104150000895CF92DF92EF92FF920F931F93CF9328
:10416000DF937C01262F972F8A0180919313882358
:1041700091F0C62FD72F6E01C40ED51ECC15DD05CC
:1041800071F06991D701ED91FC910190F081E02DE2
:10419000C7010995F3CF642F822F0E945D20C801CB
:1041A000DF91CF911F910F91FF90EF90DF90CF9013
:1041B0000895CF93DF931F92CDB7DEB76983209127
:1041C00093132223D1F020914E0F203240F021E0B2
:1041D00030E0FC013383228380E090E015C08091C1
:1041E0004F0FE82FF0E0EC56FC4E998190838F5FE3
:1041F00080934F0F80934E0F05C061E0CE01019672
:104200000E945D2081E090E00F90DF91CF910895B2
:10421000FC0190810180F281E02DF8948181892B4D
:1042200081832281892F809528232283A7E0B0E013
:104230001197F1F7218182238183A3E2B0E01197E6
:10424000F1F780817894EFECF0E03197F1F7982363
:1042500081E009F480E00895EF92FF920F931F939D
:10426000CF93DF937C0108E010E0C0E0D1E0C7010C
:104270000E9408218111CD2BDD0F01501109B9F7E2
:104280008C2FDF91CF911F910F91FF90EF900895A8
:10429000FC0190810180F281E02D892F809560FFE3
:1042A00012C0F8942281822382838181892B8183A9
:1042B000A3E2B0E01197F1F78281982B9283789472
:1042C00087ED90E011C0F89422818223828381815E
:1042D000892B8183AFEFB0E01197F1F78281982BA2
:1042E000928378948FE090E00197F1F70895CF9250
:1042F000DF92EF92FF920F931F93CF93DF931F9262
:10430000CDB7DEB76C01E62E08E010E0FF24F39491
:1043100061E08F2D8E2109F460E0C60149830E947F
:104320004821FF0C0150110949810115110581F740
:10433000411115C0F894D6011196ED91FC91129798
:1043400091818C918095892381831196ED91FC91C7
:10435000129792818C9180958923828378940F9013
:10436000DF91CF911F910F91FF90EF90DF90CF9051
:104370000895FC0190810180F281E02DF894818103
:10438000292F20958223818378948DE743E050E0A4
:10439000815021F1DA011197F1F730813923C1F30E
:1043A000F8948281822382838181892B818378940E
:1043B000ABECB7E01197F1F7F894818128232183C2
:1043C000ABE3B1E01197F1F78081982381E009F028
:1043D00080E07894EBE8F6E03197F1F70895609388
:1043E000FA087093FB088093FC089093FD08DC01A9
:1043F000CB01845D9E4FAF4FBF4F8093F6089093E3
:10440000F708A093F808B093F90882E090E0909341
:104410000109809300090E94521C60932C13709331
:104420002D1380932E1390932F130895CF92DF9224
:10443000EF92FF920F931F930E94521CC0902C1377
:10444000D0902D13E0902E13F0902F138B019C0130
:104450000C191D092E093F098091FA089091FB085B
:10446000A091FC08B091FD08083E134021053105DC
:10447000D0F00196A11DB11D8093FA089093FB081E
:10448000A093FC08B093FD08B701A60148515C4F0A
:104490006F4F7F4F40932C1350932D1360932E1327
:1044A00070932F13C9CF4091F6085091F70860918F
:1044B000F8087091F90884179507A607B70788F1DF
:1044C000E091FE08F091FF08309759F109956115C8
:1044D00071058105910519F00E94EF2122C080919C
:1044E000FA089091FB08A091FC08B091FD08845D4A
:1044F0009E4FAF4FBF4F8093F6089093F708A0935D
:10450000F808B093F90881E090E02091000930911B
:104510000109232B11F480E090E09093010980932E
:1045200000096091FA087091FB088091FC08909155
:10453000FD081F910F91FF90EF90DF90CF900895AD
:104540006F927F928F929F92AF92BF92CF92DF92A3
:10455000EF92FF920F931F93CF93DF93EC01EE81C5
:10456000AE2FB0E020E833E341EE51E00E94A06AB4
:104570004B015C0122EB37E0FD0104E610E080E92D
:10458000E82EFF24F394C901825B97408E179F07A2
:10459000DCF4C90183709927892B99F4C901B8010A
:1045A0000E943A62892B31F4C901B7010E943A6234
:1045B000892B39F480E8880E81E5981E81E0A81ED9
:1045C000B11C2F5F3F4FDFCF6D80712CEE54F84F41
:1045D000CF0164E670E00E943A627C01CF0160E99D
:1045E00071E00E943A626C0101E010E0E370FF2785
:1045F000061517052CF50230110581F4309771F47A
:10460000E114F10419F4C114D10441F480E8880ED6
:104610008BE3981E86E2A81EB11C0FC0D801A35ED2
:10462000BD4FAC91B0E020E831E541E050E00E94A0
:10463000A06A860E971EA81EB91E0F5F1F4FD8CF07
:1046400049812A8130E0A0E1BEE00E94D56A6B0179
:104650007C01242F30E0ACE3B0E00E94D56ADC019D
:10466000CB018C0D9D1DAE1DBF1D28816C017D01F0
:10467000C20ED11CE11CF11CAC81B0E0119720E806
:1046800031E541E050E00E94AB6ADC01CB018C0DCA
:104690009D1DAE1DBF1DBC01CD01680D791D8A1D7C
:1046A0009B1DDF91CF911F910F91FF90EF90DF90B5
:1046B000CF90BF90AF909F908F907F906F90089514
:1046C0001F93CF93DF93CDB7DEB727970FB6F8943C
:1046D000DEBF0FBECDBF11E01093931388E6809329
:1046E000B41310924F0F10924E0F60E082E59FE0DE
:1046F0000E94D92081E00E94E84B882319F0109293
:10470000B612BCC01093B61280914D0F8111FCCF30
:1047100081E080934D0F80934C0F9FEF9093921305
:104720001092911396E09093901380936F13809161
:104730006F13806D80936F1380914B0F813061F404
:1047400010924B0F80916F138093BB008091BC003F
:1047500083FDF8CF85EC01C085EE8093BC0080918D
:104760004D0F8130E1F380919113873018F48091DF
:10477000911301C087E0A0E7B3E12EEF32E1F90128
:104780009E2F921B981718F49D919193F9CF109238
:10479000510F8093500F873008F470C082E59FE07E
:1047A0000E949520182F8695869586958E70982F55
:1047B000990F990F890F912F9F70890F898382E537
:1047C0009FE00E949520282F22952F70982F9F7090
:1047D0008AE0289F900D11249A8382E59FE00E9431
:1047E0009520982F282F2695269526952670822F7E
:1047F000880F880F280F9F70920F9B8382E59FE0A0
:104800000E949520282F22952F70982F9F708AE064
:10481000289F900D11249C8382E59FE00E949520A3
:10482000282F22952F70982F9F708AE0289F900D37
:1048300011249D8382E59FE00E949520282F2295D8
:104840002F70982F9F708AE0289F900D11249E83CF
:1048500082E59FE00E949520982F9F70925E282FFE
:1048600022952F708AE0289F900D11249F8317FDB9
:1048700005C0CE0101960E94A02203C060E070E056
:10488000CB0127960FB6F894DEBF0FBECDBFDF91E8
:10489000CF911F9108956F927F928F929F92AF92C6
:1048A000BF92CF92DF92EF92FF920F931F93CF931D
:1048B000DF93EA012CE3C22ED12CE12CF12CA701CD
:1048C00096010E94B36A6883CA01B901A7019601E3
:1048D0000E94B36A6983CA01B90128E130E040E06F
:1048E00050E00E94B36A69017A016A83CA01B90182
:1048F0006C5F7F4F8F4F9F4F27E030E040E050E0EC
:104900000E94B36A6F5F6B83812C912C540140E04D
:1049100034E6632E712C00E911E0242F30E02E5490
:10492000384FF901E370FF27309789F4C901B301CB
:104930000E943A62892B31F4C901B8010E943A629F
:10494000892B29F48EE691E0A0E0B0E004C08DE66A
:1049500091E0A0E0B0E0880E991EAA1EBB1ED50112
:10496000C401AA27BB27C816D906EA06FB0610F021
:104970004F5FD3CF4E83309799F4C90164E670E05E
:104980000E943A62892B39F4C90160E971E00E9402
:104990003A62892B29F48EE691E0A0E0B0E004C0F1
:1049A0008DE691E0A0E0B0E0881A990AAA0ABB0A55
:1049B000C818D908EA08FB08C90164E670E00E943B
:1049C0003A628C01C90160E971E00E943A62AEE18D
:1049D000B2E020E0213041F4309751F40115110587
:1049E00029F4009729F402C04C9103C04DE101C0A5
:1049F0004CE150E060E070E0C416D506E606F7062C
:104A000040F0C41AD50AE60AF70A2F5F11962C3037
:104A100009F72F5F2D83C394CC82DF91CF911F9133
:104A20000F91FF90EF90DF90CF90BF90AF909F904D
:104A30008F907F906F900895CF92DF92EF92FF92C8
:104A4000C0902813D0902913E0902A13F0902B13D4
:104A50006C157D058E059F0571F06B017C0147EAA1
:104A60005EE00E944B24C0922813D0922913E0925A
:104A70002A13F0922B13FF90EF90DF90CF900895C0
:104A80000E941C258091AD0E90E08E54984F0895A1
:104A90000E9416220E941C258091A80E90E0089585
:104AA0000E941C252091A90E222331F0822F90E034
:104AB0002D3020F00C9708958CE090E0089523E0CD
:104AC000829FC0011124AEE1B3E120E030E0F901A2
:104AD000E80FF91FEA54FF4EE491ED932F5F3F4F2B
:104AE00023303105A1F7109221138EE193E108954F
:104AF0001F920F920FB60F9211240BB60F922F93A5
:104B00003F934F935F936F937F938F939F93AF9355
:104B1000BF93EF93FF938091B900887F803609F4AB
:104B20009CC068F5883209F45BC090F4803109F4C8
:104B300054C038F4882309F4F6C0883009F44DC015
:104B4000F6C0883109F44CC0803209F45DC0EFC072
:104B5000803409F468C048F4803309F455C08833C0
:104B600009F0E5C080939213D8C0803509F44FC096
:104B7000883509F45DC0883409F0D9C0D6C08839B9
:104B800009F4C7C0A8F4883709F467C038F4883638
:104B900009F463C0803709F460C0C9C0883809F4DB
:104BA000B8C0803909F45FC0803809F0C0C05BC06C
:104BB000803B09F486C038F4803A09F466C0883A2C
:104BC00009F47FC0B4C0803C09F4A7C0883C09F454
:104BD000A4C0883B09F48AC0AAC080916F1310C09A
:104BE0009091911380919013981770F5E091911323
:104BF00081E08E0F80939113F0E0E059FC4E8081AC
:104C00008093BB0085EC86C0809392138EC0E091A8
:104C1000911381E08E0F809391138091BB00F0E09F
:104C2000E059FC4E808390919113809190136EC057
:104C3000E091911381E08E0F809391138091BB00DE
:104C4000F0E0E059FC4E808380914C0F81116DC0E3
:104C500081E080934B0F84EA61C083E080934D0F25
:104C60001092FD12CFCF8091FD12803208F051C01A
:104C7000E091FD1281E08E0F8093FD128091BB00C8
:104C8000F0E0E352FD4E8083BDCF85EC8093BC0005
:104C900010924D0F8091FD12803230F4E091FD12A0
:104CA000F0E0E352FD4E10826091FD1270E0E09161
:104CB000DB12F091DC128DED92E109951092FD125C
:104CC00036C084E080934D0F1092DA121092D91200
:104CD000E091D712F091D81209958091D9128111E3
:104CE00005C081E08093D9121092B712E091DA12D8
:104CF00081E08E0F8093DA12F0E0E954FD4E80815E
:104D00008093BB009091DA128091D912981708F421
:104D100079CF85E88093BC000AC085EC8093BC0005
:104D200010924D0F04C0109292130E945320FF91D5
:104D3000EF91BF91AF919F918F917F916F915F9113
:104D40004F913F912F910F900BBE0F900FBE0F9080
:104D50001F9018950E94354083EF92E00C94A512A5
:104D6000CF92DF92EF92FF920F931F93CF93DF9337
:104D7000CDB7DEB727970FB6F894DEBF0FBECDBF15
:104D800080914509823029F4109248091092450912
:104D9000BDC4833019F402E310E002C00CE211E05C
:104DA0000E94521CC0904A09D0904B09E0904C09D7
:104DB000F0904D09AB01BC014C195D096E097F09EA
:104DC000C801110FAA0BBB0B481759076A077B07CD
:104DD00008F49CC481E080933A09109233090E9440
:104DE000521C60934A0970934B0980934C0990932D
:104DF0004D0980912D09833099F038F4813061F0AC
:104E0000823009F083C481E008C0843009F4EEC127
:104E1000853009F49FC37AC480E00E94843976C447
:104E20000E9416220E941C258091A90E809338139F
:104E30000E944825809339130E9416220E941C2547
:104E40008091A70E809337130E9416220E941C2582
:104E50008091AC0E809336130E9416220E941C256E
:104E60008091AB0E80933A130E9416220E94402537
:104E700064E670E00E943A628093351390912509B0
:104E8000933009F442C028F4913061F0923019F166
:104E9000A4C0953009F469C008F450C0963009F4F4
:104EA00079C09BC09091490980913813992311F0E2
:104EB000815001C08F5F80933813809138138F3FEA
:104EC00021F487E18093381388C0883108F485C0C5
:104ED0001092381382C09091490980913913992317
:104EE00011F0815001C08F5F809339138091391385
:104EF0008F3F21F48BE38093391304C08C3310F07F
:104F0000109239131092371368C09091490980911B
:104F10003A13992311F0815001C08F5F80933A13A7
:104F200080913A138F3F21F48FE180933A1355C05B
:104F3000803208F452C010923A134FC09091490940
:104F400080913613992311F0815001C08F5F8093B7
:104F5000361380913613811102C08CE003C08D306E
:104F6000E0F181E08093361338C09091490999238C
:104F700011F0815001C08F5F8093351380913513FC
:104F8000803110F488E203C0893238F180E18093E7
:104F9000351323C081E00E94E73590914909809143
:104FA0005410992311F0815001C08F5F80935410E9
:104FB00080915410883010F0109254106091541069
:104FC00084E290E00E941E356FE070E080E090E0A7
:104FD0000E94181C81E0809339090E94521C0091A4
:104FE0003113109132132091331330913413DC01BB
:104FF000CB01801B910BA20BB30B893E9340A10503
:10500000B10578F1809137138F5F8C3318F480935A
:10501000371307C010923713809139138F5F809335
:105020003913809139138C3338F0109239138091F1
:1050300038138F5F8093381380913813883138F09C
:105040001092381380913A138F5F80933A130E9425
:10505000521C6093311370933213809333139093E7
:1050600034138091351390E06091361350913A13C8
:1050700020913713309139134091381384369105BC
:105080001CF0825B974001C04E968093AD0E6093FA
:10509000AC0E5093AB0E4093A90E3093A80E209304
:1050A000A70E87EA9EE00E94A0220E94EF210E94A4
:1050B0001622AE014F5F5F4F0E944B2401E0009328
:1050C000931388E6F82EF092B41310924F0F1092BB
:1050D0004E0F60E082E59FE00E94D92060E882E503
:1050E0009FE00E94D9208A811AE0612F0E941A62F3
:1050F000692F20E1829F600D112482E59FE00E94CC
:10510000D9208B81612F0E941A62692F20E1829F32
:10511000600D112482E59FE00E94D9208C81612FCF
:105120000E941A62692F20E1829F600D112482E59E
:105130009FE00E94D9208D81612F0E941A62692F01
:1051400020E1829F600D112482E59FE00E94D9201A
:105150008E81612F0E941A62692F20E1829F600D6B
:10516000112482E59FE00E94D9208F818E51612F0A
:105170000E941A62692F20E1829F600D112482E54E
:105180009FE00E94D92081E00E94E84B882319F01B
:105190001092B61223C00093B61200939313F092AC
:1051A000B41310924F0F10924E0F60E082E59FE013
:1051B0000E94D9208981612F0E941A62692F20E103
:1051C000829F600D112482E59FE00E94D92081E03A
:1051D0000E94E84B8111DCCF0093B612809130130E
:1051E000882309F493C20E94C43C90C2809126098E
:1051F000882319F081E00E94E735E09126098E2F7F
:1052000090E0FC013197EB30F10508F07FC2E05BE4
:10521000FF4F0C944E628091C413811104C081E051
:105220008093C41302C01092C4136091C41380E031
:1052300090E020C20E94EA0B9091490980912009D8
:10524000992311F0815001C08F5F809320098091D4
:1052500020098F3F21F485E08093200904C0863027
:1052600010F0109220096091200984E090E00E94E3
:105270001E356FE070E080E090E00E94181C1092F4
:10528000481380912009811103C00E94DF3A3EC279
:105290000E94BC0B3BC20E94EA0B9091490980918D
:1052A0005309992311F0815001C08F5F80935309F6
:1052B00080915309811102C083E003C0843018F04B
:1052C00081E0809353096091530985E090E0D2C159
:1052D0000E94EA0B9091490980914313992311F0A0
:1052E000815001C08F5F80934313809143138F3FA0
:1052F00021F484E08093431304C0853010F01092B1
:1053000043136091431388E090E0B4C10E94EA0B1C
:1053100080910A01882319F010920A0103C081E0EC
:1053200080930A0160910A018DE090E0A3C10E9480
:10533000EA0B80914213882319F01092421303C0A4
:1053400081E080934213609142138EE090E092C11D
:105350000E94EA0B9091490980911F09992311F04D
:105360008F5F01C0815080931F0980911F098F3F7B
:1053700021F488E080931F0904C0893010F0109256
:105380001F0960911F098FE090E074C10E94EA0B31
:1053900080911E09882319F010921E0903C081E034
:1053A00080931E0960911E0982E190E063C10E9412
:1053B000EA0BE0912C098E2F90E08830910508F0DF
:1053C000A5C1FC01E55AFF4F0C944E6281E0809329
:1053D0002C099CC18091C213882319F01092C2132A
:1053E00009C081E08093C2136FE070E080E090E03C
:1053F0000E94181C6091C21386E190E03BC190911D
:10540000490980911D09992311F0815001C08F5FD6
:1054100080931D0980911D09833010F010921D09A1
:1054200060911D098BE190E025C19091490980911F
:105430001B09992311F0815001C08F5F80931B09D4
:1054400080911B09843618F081E080931B096091DC
:105450001B098EE190E00EC19091490980911C09D1
:10546000992311F0815001C08F5F80931C098091B6
:105470001C09843618F081E080931C0960911C0996
:1054800080E290E0F7C090914909809141139923FF
:1054900011F0815001C08F5F8093411380914113BF
:1054A000843618F081E0809341136091411381E2CA
:1054B00090E0E0C060911A0981E0682760931A09C2
:1054C00082E290E0D7C010922C0920C10E94EA0B22
:1054D00080914E09882319F010924E0903C081E093
:1054E00080934E0960914E0987E190E0C3C00E940D
:1054F000EA0B0E94B94C0E948B0A1092520910923A
:105500003809109237091092360910923509109215
:105510003409109233091092320910923109109215
:10552000300910922F0910922E0910922D09109215
:105530004909E3E2F9E0119289E0ED32F807D9F781
:1055400011E01093000110923A090E94EA0B1093A7
:105550003909DCC080912909882319F081E00E9473
:10556000E73580912909823009F461C0833009F45C
:10557000A8C0813009F0CAC0E0912A098E2F90E0BE
:105580008A30910508F0C2C0FC01ED59FF4F0C9420
:105590004E620E94EA0B81E080932A09B7C0909185
:1055A000490980913D09992311F0815001C08F5F15
:1055B00080933D0980913D09811104C089E0809369
:1055C0003D0904C08A3010F010923D0960913D09F8
:1055D00080E190E091C08AEE90E10E94AA2660915D
:1055E0003C09605808C08EED90E10E94AA266091A7
:1055F0003C0980E4682760933C0985E190E03AC06B
:1056000060913C0980E2F6CF60913C0980E1F2CFE5
:1056100060913C0988E0EECF60913C0981E0EACFDF
:1056200060913C0984E0E6CF10922A096FC0E091B6
:105630002B098E2F90E08930910508F067C0FC019E
:10564000E359FF4F0C944E620E94EA0B81E0809375
:105650002B095CC06091501380E407C06091501327
:1056600080E203C06091501380E16827609350137B
:1056700081E190E00E941E3565E070E080E090E0FE
:105680001AC06091501384E00BC06091501381E008
:1056900007C06091501382E003C06091501388E00E
:1056A00068276093501381E190E00E941E356AE004
:1056B00070E080E090E00E94181C28C010922B0936
:1056C00025C09091490980914F13992311F0815081
:1056D00001C08F5F80934F1380914F138F3F21F450
:1056E00089E080934F1304C08A3010F010924F135A
:1056F00060914F1384E190E00E941E3565E070E0F8
:1057000080E090E00E94181C0E94EA0B27960FB6DA
:10571000F894DEBF0FBECDBFDF91CF911F910F91E7
:10572000FF90EF90DF90CF9008952F923F924F928D
:105730005F926F927F928F929F92AF92BF92CF9221
:10574000DF92EF92FF920F931F93CF93DF93CDB72A
:10575000DEB7A7970FB6F894DEBF0FBECDBFF82E09
:10576000062FE42E442309F4F1C010914F138091C9
:105770009A1190919B110E94B92140E06CEC8091AC
:105780009A1190919B110E9477214091951164E4A8
:1057900080919A1190919B110E947721809197118D
:1057A0008823E9F0809196118A3049F08B3061F0BE
:1057B000893079F46EE570E080E090E00EC06CEB2B
:1057C00070E080E090E009C067E771E080E090E081
:1057D00004C06EEE72E080E090E00E94181CBE01F2
:1057E0006F5F7F4F82E099E00E94DF16882309F403
:1057F0008AC08A8190E0982F88272981822B209166
:1058000002092232B9F12832A9F1203109F081C010
:10581000D884BC0175956795072E000C880B990BF1
:105820000E94316920E030E040E85EE30E9495622A
:105830004B015C018D2D90E02F81821B9109BC01F1
:10584000990F880B990B0E9431692B013C016D2D3A
:1058500070E080E090E00E942F699B01AC01C301E1
:10586000B2010E9402639B01AC01C501B4010E9418
:10587000966236C02D812F33B1F1A0F42F3109F09B
:1058800048C0BC0133E0759567953A95E1F7072E5E
:10589000000C880B990B0E94316920E030E040E059
:1058A0005FE31CC02F3569F02F3799F5BC01990FC4
:1058B000880B990B0E94316920E030E040E85DE3FD
:1058C0000DC0BC0175956795072E000C880B990BD0
:1058D0000E94316920E030E040E05EE30E94906980
:1058E0004B015C0116C0BC01759567957595679570
:1058F000072E000C880B990B0E94316920E030E0E4
:1059000040E85EE3EBCF812C912C9EEFA92E92EC28
:10591000B92E20E030E040E05FE3C501B4010E9411
:1059200096620E94746370933C1360933B13072E3E
:10593000000C880B990B0E9431691B012C016EE051
:1059400074E0CE0181960E94D76318C08091C21383
:10595000882309F4A9C06091010170910201072E0A
:10596000000C880B990B0E9431691B012C0161E12D
:1059700074E0CE0181960E94D76310E020E030E011
:1059800048EC52E4C201B1010E94AA639E012F5F5C
:105990003F4F6901181654F020E030E048E452EC23
:1059A000C201B1010E942A6987FF25C0002321F0AE
:1059B00085E194E00E946909CE0181969F938F93BF
:1059C0008EE194E09F938F931F9280E28F93DF92FA
:1059D000CF920E94EC638F2D0E94B44A45E050E0C4
:1059E00062E0C6010E94BB11182F0FB6F894DEBF0B
:1059F0000FBECDBF96C0612E712C20E030E040E09C
:105A00005FE3C201B1010E9496620E9474635B0170
:105A1000A618B70826E636E646EE5FE3C201B101F6
:105A20000E94906920E030E040E052E40E949662DB
:105A300020E030E040E05FE30E9496620E947463E1
:105A40004B01861897088F2D0E94B44A209142136B
:105A500001112CC0CE018196222339F09F928F92A2
:105A60009F938F9383E394E006C0BF92AF929F937E
:105A70008F9380E494E09F938F931F9280E28F93A3
:105A8000DF92CF920E94EC630FB6F894DEBF0FBE98
:105A9000CDBF44E150E06F2DC6010E94BB11182F0D
:105AA00040C0C5010E94184711E03BC02223B1F05D
:105AB0009F928F928BE394E09F938F931F9280E24B
:105AC0008F93DF92CF920E94EC630FB6F894DEBF03
:105AD0000FBECDBF80E1682E712C05C0BF92AF9282
