:100000000C94DD080C9464230C9439230C940E2377
:100010000C9407090C9407090C9407090C94070920
:100020000C9407090C94A6230C9407090C94070957
:100030000C9407090C94D5410C94AF460C94070915
:100040000C9407090C9407090C94C4220C9407091A
:100050000C94B3210C9489210C9407090C94070982
:100060000C9407090C9407090C94DE2B0C940709D7
:100070000C9407090C9407090C9407090C940709C0
:100080000C9407090C9407090C940709640B730B73
:10009000A40BC10BDF0BF00B010C1F0C300CBF0CC1
:1000A000D00C3F0C430C580C6E0C850C9C0CB30C04
:1000B000BC0CA30EA90EC50ECD0EDA0EDE0EE20E9E
:1000C000E60EEA0EEE0EFE0E040F080F0C0F1B0FCD
:1000D0001F0F230F270F380F721E751E681E6C1E10
:1000E0008C1E8C1E791E7D1E831E871E4C2F203079
:1000F000353147315D3162310B3252305530583035
:100100005B305E3061306430AA34BD34D034E334C7
:10011000F63409351C353835BC36C036C436CA36D7
:10012000CE36D236D836DC3677389438DD380739D3
:10013000353964398B39D639E439ED3A0A3BF1392E
:10014000093A263A573A653A8D3ABC3AD93AC23E0C
:10015000DC3E243F493F683F8D3FAC3FD13FF03FFD
:10016000604146406B409040B540E040054132411F
:100170006041556E61626C6520746F2066696E64C3
:10018000206164647265737320666F7220446576C3
:100190006963652030004F4646004F4E004453319E
:1001A0003842323020706172617369746520706FFB
:1001B0007765722069733A2000206465766963650B
:1001C000732E00466F756E6420004E6F2076616C52
:1001D00069642046415420706172746974696F6E5D
:1001E000210043616E2774206F70656E20726F6FFF
:1001F000742064697221004361726420696E6974BD
:100200002E206661696C6564210052544320686148
:100210007320736574207468652073797374656DD9
:100220002074696D6500556E61626C6520746F2085
:1002300073796E63207769746820746865205254FE
:10024000430045786974206D656E75005600426103
:1002500074746572793A00526563656976696E6790
:1002600020446174612E2E2E0052652D656E6162F0
:100270006C6520526164696F005363726F6C6C200F
:1002800054656D70005363726F6C6C2044617465CB
:100290000057726974696E6720496E697469616C90
:1002A0002073657474696E677320746F20454550C0
:1002B000524F4D21212100000000000000000000ED
:1002C000080808080008000036122400000000009A
:1002D00000143E143E140000081E281C0A3C0000B6
:1002E000003234081626000000182418261E0000CC
:1002F000181810000000000008101010100800006E
:10030000100808080810000000082A082A08000041
:100310000008083E0808000000000000180810004F
:100320000000003E00000000000000000C0C000077
:1003300000020408102000001C262626261C0000AF
:100340000C1C0C0C0C1E00001C260C18303E00006F
:100350003E061C06261C000026263E060606000059
:100360003E303C06261C00001C203C26261C0000BB
:100370003E060C18181800001C261C26261C00001F
:100380001C261E06261C0000000C0C000C0C000095
:10039000000C0C000C040800000408100804000005
:1003A00000003E003E00000000100804081000009D
:1003B0001C220408000800001C262A2E201E000013
:1003C0001C22223E222200003C223C22223C000031
:1003D0001C222020221C00003C222222223C000061
:1003E0003E203C20203E00003E203C2020200000FB
:1003F0001C202026221E000022223E222222000053
:100400001C080808081C00003E020202221C000012
:10041000222438382422000020202020203E000002
:1004200022362A222222000022322A2622220000FC
:100430001C222222221C00003C223C202020000002
:10044000182424242C1A00003C223C2222220000E2
:100450001E201C02221C00003E080808080800009C
:1004600022222222221C0000222222141408000030
:100470002222222A2A140000221408081422000032
:1004800022221408080800003E040810203E000044
:100490001C101010101C00002010080402000000A6
:1004A0001C040404041C00000814220000000000C6
:1004B00000000000003E00000804000000000000F2
:1004C000001C021E223E000020203C22223C000094
:1004D000001C2020201C000002021E22221E000000
:1004E000001C223E201C00000E10103C10100000CA
:1004F000001E223E02021C0020203C22222200007C
:1005000008001808081C000008001E0202221C0037
:10051000202024382422000018080808081C0000A5
:1005200000342A2A2A2A0000002C3222222200002B
:10053000001C2222221C0000003C223C2020200023
:10054000001C241C04040600002E30202020000083
:10055000001E201C023C0000083E0808080600009F
:1005600000222222221E0000002222221408000063
:100570000022222A2A14000000221408142200005B
:100580000022221E02041800003E0408103E000053
:1005900004080810080804000808080808080000F3
:1005A000100808040808100000102A0400000000C9
:1005B00010281000000000000000000000000000F3
:1005C0000808080800080000361224000000000097
:1005D00000143E143E140000081E281C0A3C0000B3
:1005E000003234081626000000182418261E0000C9
:1005F000181810000000000008101010100800006B
:10060000100808080810000000082A082A0800003E
:100610000008083E0808000000000000180810004C
:100620000000003E00000000000000000C0C000074
:1006300000020408102000000C121212120C00001C
:10064000040C0404040E00000C120204081E000036
:100650001E020C02120C000012121E020202000006
:100660001E101C02120C00000C101C12120C0000B8
:100670001E020408080800000C120C12120C0000E4
:100680000C120E02120C0000000C0C000C0C0000EE
:10069000000C0C000C040800000408100804000002
:1006A00000003E003E00000000100804081000009A
:1006B0001C220408000800001C262A2E201E000010
:1006C0001C22223E222200003C223C22223C00002E
:1006D0001C222020221C00003C222222223C00005E
:1006E0003E203C20203E00003E203C2020200000F8
:1006F0001C202026221E000022223E222222000050
:100700001C080808081C00003E020202221C00000F
:10071000222438382422000020202020203E0000FF
:1007200022362A222222000022322A2622220000F9
:100730001C222222221C00003C223C2020200000FF
:10074000182424242C1A00003C223C2222220000DF
:100750001E201C02221C00003E0808080808000099
:1007600022222222221C000022222214140800002D
:100770002222222A2A14000022140808142200002F
:1007800022221408080800003E040810203E000041
:100790001C101010101C00002010080402000000A3
:1007A0001C040404041C00000814220000000000C3
:1007B00000000000003E00000804000000000000EF
:1007C000001C021E223E000020203C22223C000091
:1007D000001C2020201C000002021E22221E0000FD
:1007E000001C223E201C00000E10103C10100000C7
:1007F000001E223E02021C0020203C222222000079
:1008000008001808081C000008001E0202221C0034
:10081000202024382422000018080808081C0000A2
:1008200000342A2A2A2A0000002C32222222000028
:10083000001C2222221C0000003C223C2020200020
:10084000001C241C04040600002E30202020000080
:10085000001E201C023C0000083E0808080600009C
:1008600000222222221E0000002222221408000060
:100870000022222A2A140000002214081422000058
:100880000022221E02041800003E0408103E000050
:1008900004080810080804000808080808080000F0
:1008A000100808040808100000102A0400000000C6
:1008B00010281000000000000000000000000000F0
:1008C000040404040004000005050000000000000A
:1008D000000C0F0C0F0C000004060C06060C0400A4
:1008E000003234081626000000182418261E0000C6
:1008F0001818100000000000081010101008000068
:10090000100808080810000000082A082A0800003B
:100910000008083E08080000000000001808100049
:100920000000003E00000000000000000200000087
:100930000002040810200000020505050200000066
:100940000206020207000000060102040700000080
:10095000070106010600000005050701010000006F
:100960000704070106000000030407050200000059
:100970000701020404000000070507050700000046
:100980000705070106000000000200020000000049
:100990000006060006020400000102040201000035
:1009A000000007000700000000040201020400002C
:1009B000060102040004000006090B0B08060000F3
:1009C00002050507050500000605060505060000E9
:1009D00002050404050200000605050505060000E1
:1009E00007040604040700000704060404040000CA
:1009F00003040405050300000505070505050000BF
:100A000007020202020700000701010105020000BF
:100A1000050506060505000004040404040700009B
:100A20000507070505050000050705050505000084
:100A30000205050505020000060506040404000081
:100A4000020505050703000006050605050500006B
:100A50000304020105020000070202020202000074
:100A6000050505050507000005050505050200004B
:100A7000050505050707000005050202050500003C
:100A80000505050202020000070102040407000038
:100A9000060404040406000004040201010000002E
:100AA000030202020203000002050500000000002C
:100AB000000000000007000002010000000000002C
:100AC00000060107050700000404070505070000EC
:100AD00000030404040300000101070505070000EA
:100AE00000020407040300000302020702020000E0
:100AF00000030507010106000404070505050000C1
:100B000002000602020700000100070101050200C1
:100B100000040506050500000602020202070000A7
:100B2000000607070505000000060505050500008D
:100B30000002050505020000000605060404040085
:100B40000003050701010100000304040404000080
:100B50000003040201060000020702020201000075
:100B60000005050505030000000505050502000058
:100B70000005050507070000000505020505000042
:100B80000005050701010600000701020407000037
:100B9000010202040202010002020202020200003B
:100BA000040202010202040000040B0100000057CD
:100BB000726974696E67206E657720467720766566
:100BC0007273696F6E00436F756C646E2774206F6B
:100BD00070656E2066696C6520004E6F7420612020
:100BE00076616C69642057415600446973706C618A
:100BF00079204F7074696F6E73204D656E75004477
:100C00006973706C61792053797374656D204D65DB
:100C10006E7500446973706C617920446174652F4E
:100C200054696D65204D656E7500446973706C6123
:100C30007920416C726D2032204D656E75004469DB
:100C400073706C617920416C726D2031204D656E3E
:100C50007500486967682072617465206672616713
:100C60006D656E7465642066696C65210053616D05
:100C7000706C65207261746520746F6F206869679D
:100C80006821004D6F7265207468616E20313620D6
:100C900062697473207065722073616D706C652178
:100CA00000205761726E696E672073746572656F9C
:100CB0002066696C6521004E6F74206D6F6E6F2F1A
:100CC00073746572656F2100436F6D707265737325
:100CD000696F6E206E6F7420737570706F727465BB
:100CE00064000E1F13131313131313131F0E060E9A
:100CF0001E060606060606061F1F1E1F0303030622
:100D00000C1818181F1F1E1F0303030E0E030303E6
:100D10001F1E181818181B1F1F03030303031F1F90
:100D20001818181E1F0303031F1E0E1F1818181E65
:100D30001F1313131F0E1F1F030303060C1818188D
:100D400018180E1F1313130E0E1313131F0E0E1F5E
:100D50001313131F0F0303031F0E000000000000F6
:100D60000000000000001F1F1B1B1B1B1B1B1B1B6D
:100D70001F1F0C0C0C0C0C0C0C0C0C0C0C0C1F1F67
:100D80000303031F1F1818181F1F1F1F0303031F30
:100D90001F0303031F1F1B1B1B1B1B1F1F0303031F
:100DA00003031F1F1818181F1F0303031F1F1F1FF4
:100DB0001818181F1F1B1B1B1F1F1F1F03030303D4
:100DC0000303030303031F1F1B1B1B1F1F1B1B1BF3
:100DD0001F1F1F1F1B1B1B1F1F0303031F1F0000C1
:100DE000000000000000000000000E1F1B1B1B1B6A
:100DF0001B1B1B1B1F0E02060E060606060606061A
:100E00001F1F0E1F030303060C1818181F1F0E1FA9
:100E10000303030E0E0303031F0E030306060C0C4D
:100E20001B1F030303031F1F1818181E0F030303C0
:100E30001F0E0E1F1818181E1F1B1B1B1F0E1F1F17
:100E4000030303060C18181818180E1F1B1B1B0E83
:100E50000E1B1B1B1F0E0E1F1B1B1B1F0F03030351
:100E60001F0E0000000000000000000000001F1125
:100E70001111111111111111111F040404040404A2
:100E80000404040404041F010101011F10101010C8
:100E9000101F1F010101011F01010101011F11119B
:100EA0001111111F0101010101011F101010101F6C
:100EB00001010101011F1F101010101F111111114C
:100EC000111F1F01010101010101010101011F1198
:100ED0001111111F11111111111F1F111111111FCA
:100EE00001010101011F00000000000000000000DE
:100EF00000000E111111111111111111110E040C1C
:100F00000404040404040404041F0E11010101027A
:100F100004081010101F0E110101010E0101010142
:100F2000110E11111111111F0101010101011F10F9
:100F30001010101E01010101110E0E111010101ED3
:100F400011111111110E1F010101010204081010ED
:100F500010100E111111110E11111111110E0E118F
:100F60001111110F01010101110E0000000000001C
:100F700000000000000000002000230026002900DF
:100F80000202020202020202040404040404040431
:100F90000303030303030303010101010101010131
:100FA0000102040810204080010204081020408043
:100FB0000102040810204080010204081020408033
:100FC000005EBCE2613FDD83C29C7E20A3FD1F4129
:100FD0009DC3217FFCA2401E5F01E3BD3E6082DC19
:100FE000237D9FC1421CFEA0E1BF5D0380DE3C6209
:100FF000BEE0025CDF81633D7C22C09E1D43A1FFF9
:101000004618FAA427799BC584DA3866E5BB5907E8
:10101000DB856739BAE406581947A5FB7826C49AD8
:10102000653BD987045AB8E6A7F91B45C6987A24C8
:10103000F8A6441A99C7257B3A6486D85B05E7B9B8
:101040008CD2306EEDB3510F4E10F2AC2F7193CDA8
:10105000114FADF3702ECC92D38D6F31B2EC0E5098
:10106000AFF1134DCE90722C6D33D18F0C52B0EE88
:10107000326C8ED0530DEFB1F0AE4C1291CF2D7378
:10108000CA947628ABF517490856B4EA6937D58B68
:101090005709EBB536688AD495CB2977F4AA481658
:1010A000E9B7550B88D6346A2B7597C94A14F6A848
:1010B000742AC896154BA9F7B6E80A54D7896B3538
:1010C00000002100240027002A0000002200250043
:1010D00028002B00000000010200090A00000000A7
:1010E00004030807000000000000000000000000EA
:1010F000000000004572724A616E4665624D617281
:101100004170724D61794A756E4A756C41756753CD
:1011100065704F63744E6F764465630045786974FB
:10112000696E6720514D656E7500526164696F206C
:101130004F666621002C20000D0A534420492F4F92
:10114000206572726F723A20004E6F7420612076B3
:10115000616C69642057415600436F756C646E275B
:1011600074206F70656E2066696C65200065727210
:101170006F7220636F72726563746564004E414ED6
:10118000494E495459494E46CDCCCC3D0AD7233C13
:1011900017B7D13877CC2B329595E6241FB14F0A7B
:1011A000000020410000C84200401C4620BCBE4C4C
:1011B000CA1B0E5AAEC59D74AD5F11241FBECFEF82
:1011C000D0E4DEBFCDBF18E0A0E0B1E0E4ECF5ED87
:1011D00000E00BBF02C007900D92A63FB107D9F700
:1011E00023E1A6EFB8E001C01D92AB3CB207E1F7E6
:1011F00018E0CDEDD8E004C02197FE010E944A62BC
:10120000CC3DD107C9F70E943A4E0C94E06A0C9489
:101210000000CF92DF92EF92FF920F931F93CF9334
:10122000DF93CDB7DEB727970FB6F894DEBF0FBEBA
:10123000CDBF80914509823029F41092480910925F
:1012400045093EC6833019F402E310E002C00CE207
:1012500011E00E94B822C0904A09D0904B09E0905A
:101260004C09F0904D09AB01BC014C195D096E09A8
:101270007F09C801110FAA0BBB0B481759076A0752
:101280007B0708F41DC681E080933A091092330968
:101290000E94B82260934A0970934B0980934C09CD
:1012A00090934D0980912D09833099F038F4813065
:1012B00061F0823009F004C681E008C0843009F48E
:1012C000EEC1853009F420C5FBC580E00E941D36C3
:1012D000F7C50E947C280E94822B8091B20E8093D9
:1012E000A1090E94AE2B809339130E947C280E9492
:1012F000822B8091B00E8093A0090E947C280E94CE
:10130000822B8091B50E80939F090E947C280E94B9
:10131000822B8091B40E80933A130E947C280E9405
:10132000A62B64E670E00E94366280939E0990913D
:101330002509933009F442C028F4913061F09230CD
:1013400019F1A4C0953009F469C008F450C0963072
:1013500009F479C09BC0909149098091A109992312
:1013600011F0815001C08F5F8093A1098091A10984
:101370008F3F21F487E18093A10988C0883108F468
:1013800085C01092A10982C09091490980913913BA
:10139000992311F0815001C08F5F809339138091A0
:1013A00039138F3F21F48BE38093391304C08C33BE
:1013B00010F0109239131092A00968C09091490959
:1013C00080913A13992311F0815001C08F5F80936F
:1013D0003A1380913A138F3F21F48FE180933A13AF
:1013E00055C0803208F452C010923A134FC0909109
:1013F000490980919F09992311F0815001C08F5FA5
:1014000080939F0980919F09811102C08CE003C0E5
:101410008D30E0F181E080939F0938C090914909B7
:10142000992311F0815001C08F5F80939E098091B4
:101430009E09803110F488E203C0893238F180E1DE
:1014400080939E0923C081E00E94803290914909D7
:1014500080915D10992311F0815001C08F5F8093BE
:101460005D1080915D10883010F010925D106091D9
:101470005D1084E290E00E94743C6FE070E080E0D8
:1014800090E00E947E2281E0809339090E94B82278
:1014900000919A0910919B0920919C0930919D0916
:1014A000DC01CB01801B910BA20BB30B893E934057
:1014B000A105B10578F18091A0098F5F8C3318F4F4
:1014C0008093A00907C01092A009809139138F5F03
:1014D00080933913809139138C3338F0109239137B
:1014E0008091A1098F5F8093A1098091A109883122
:1014F00038F01092A10980913A138F5F80933A13CC
:101500000E94B82260939A0970939B0980939C096A
:1015100090939D0980919E0990E060919F09509160
:101520003A132091A009309139134091A1098436D2
:1015300091051CF0825B974001C04E968093B60ED9
:101540006093B50E5093B40E4093B20E3093B10E2B
:101550002093B00E80EB9EE00E9406290E94552841
:101560000E947C28AE014F5F5F4F0E94B12A01E0CC
:101570000093931388E6F82EF092B4131092580F4C
:101580001092570F60E08BE59FE00E945B2760E8B8
:101590008BE59FE00E945B278A811AE0612F0E9401
:1015A0001662692F20E1829F600D11248BE59FE078
:1015B0000E945B278B81612F0E941662692F20E1B8
:1015C000829F600D11248BE59FE00E945B278C8138
:1015D000612F0E941662692F20E1829F600D112405
:1015E0008BE59FE00E945B278D81612F0E94166230
:1015F000692F20E1829F600D11248BE59FE00E94FE
:101600005B278E81612F0E941662692F20E1829FE5
:10161000600D11248BE59FE00E945B278F818E5126
:10162000612F0E941662692F20E1829F600D1124B4
:101630008BE59FE00E945B2781E00E94694D882333
:1016400019F01092BF1223C00093BF12009393139E
:10165000F092B4131092580F1092570F60E08BE580
:101660009FE00E945B278981612F0E941662692F8B
:1016700020E1829F600D11248BE59FE00E945B2793
:1016800081E00E94694D8111DCCF0093BF128091EF
:101690009909882309F414C40E94453E11C480911D
:1016A0002609882319F081E00E948032E091260902
:1016B0008E2F90E0FC013197EB30F10508F000C46B
:1016C000EA5BFF4F0C944A628091C413811104C0FD
:1016D00081E08093C41302C01092C4136091C413BC
:1016E00080E090E0A1C30E9450129091490980913E
:1016F0002009992311F0815001C08F5F8093200948
:10170000809120098F3F21F485E08093200904C057
:10171000863010F0109220096091200984E090E05A
:101720000E94743C6FE070E080E090E00E947E22B6
:1017300010923D1380912009811103C00E947837D7
:10174000BFC30E942212BCC30E945012909149094B
:1017500080915309992311F0815001C08F5F8093CC
:10176000530980915309811102C083E003C0843082
:1017700018F081E0809353096091530985E090E06F
:1017800053C30E9450129091490980914A139923A2
:1017900011F0815001C08F5F80934A1380914A13EA
:1017A0008F3F21F484E080934A1304C0853010F009
:1017B00010924A1360914A1388E090E035C30E946A
:1017C000501280910B01882319F010920B0103C075
:1017D00081E080930B0160910B018DE090E024C3C8
:1017E0000E94501280914913882319F010924913D6
:1017F00003C081E080934913609149138EE090E02B
:1018000013C30E9450129091490980911F09992396
:1018100011F08F5F01C0815080931F0980911F09D3
:101820008F3F21F488E080931F0904C0893010F0B5
:1018300010921F0960911F098FE090E0F5C20E948D
:10184000501280911E09882319F010921E0903C0BE
:1018500081E080931E0960911E0982E190E0E4C25C
:101860000E945012E0912C098E2F90E08830910553
:1018700008F026C3FC01EF5AFF4F0C944A6281E046
:1018800080932C091DC38091C213882319F01092F4
:10189000C21309C081E08093C2136FE070E080E062
:1018A00090E00E947E226091C21386E190E0BCC26B
:1018B0009091490980911D09992311F0815001C02F
:1018C0008F5F80931D0980911D09833010F0109265
:1018D0001D0960911D098BE190E0A6C29091490914
:1018E00080911B09992311F0815001C08F5F809373
:1018F0001B0980911B09843618F081E080931B0935
:1019000060911B098EE190E08FC29091490980910E
:101910001C09992311F0815001C08F5F80931C092D
:1019200080911C09843618F081E080931C09609135
:101930001C0980E290E078C2909149098091481397
:10194000992311F0815001C08F5F809348138091DB
:101950004813843618F081E080934813609148134F
:1019600081E290E061C260911A0981E0682760938A
:101970001A0982E290E058C210922C09A1C20E947A
:10198000501280914E09882319F010924E0903C01D
:1019900081E080934E0960914E0987E190E044C256
:1019A0000E94501281E992E00E94102D60E081E0D7
:1019B00090E00E94743C62E370E080E090E00E945E
:1019C0007E2260E082E090E00E94743C62E370E07E
:1019D00080E090E00E947E2260E083E090E00E9440
:1019E000743C62E370E080E090E00E947E2261E05F
:1019F00087E090E00E94743C62E370E080E090E059
:101A00000E947E2260E089E090E00E94743C62E3E4
:101A100070E080E090E00E947E2260E08AE090E04A
:101A20000E94743C62E370E080E090E00E947E22BD
:101A300060E08BE090E00E94743C62E370E080E044
:101A400090E00E947E2261E08CE090E00E94743C75
:101A500062E370E080E090E00E947E2260E080E03F
:101A600090E00E94743C62E370E080E090E00E94AD
:101A70007E2263E084E090E00E94743C62E370E0C8
:101A800080E090E00E947E2261E085E090E00E948C
:101A9000743C62E370E080E090E00E947E226FE29E
:101AA00089E190E00E94743C61E08AE190E00E944C
:101AB000743C62E370E080E090E00E947E2261E08E
:101AC00088E090E00E94743C62E370E080E090E087
:101AD0000E947E2261E08DE090E00E94743C62E30F
:101AE00070E080E090E00E947E2261E08EE090E075
:101AF0000E94743C62E370E080E090E00E947E22ED
:101B000060E08FE090E00E94743C62E370E080E06F
:101B100090E00E947E2262E080E190E00E94743CAE
:101B200062E370E080E090E00E947E226FEF81E14E
:101B300090E00E94743C62E370E080E090E00E94DC
:101B40007E2261E082E190E00E94743C62E370E0FA
:101B500080E090E00E947E2262E084E190E00E94BA
:101B6000743C62E370E080E090E00E947E2262E0DC
:101B700085E190E00E94743C62E370E080E090E0D8
:101B80000E947E2260E086E190E00E94743C62E365
:101B900070E080E090E00E947E2260E087E190E0CB
:101BA0000E94743C62E370E080E090E00E947E223C
:101BB00060E08BE190E00E94743C62E370E080E0C2
:101BC00090E00E947E2261E08EE190E00E94743CF1
:101BD00062E370E080E090E00E947E2269E08FE1A5
:101BE00090E00E94743C62E370E080E090E00E942C
:101BF0007E2261E080E290E00E94743C62E370E04B
:101C000080E090E00E947E2265E081E290E00E9408
:101C1000743C62E370E080E090E00E947E2261E02C
:101C200082E290E00E94743C69E170E080E090E024
:101C30000E947E2260E084E290E00E94743C69E1B0
:101C400070E080E090E00E947E2264E670E08EE426
:101C500091E10E948F2364E970E086E291E10E94A5
:101C60008F2364EC70E08EEF90E10E948F2364EF8D
:101C700070E086ED90E10E948F2364E271E08EEACD
:101C800090E10E948F2364E571E086E890E10E9474
:101C90008F2364E871E08EE590E10E948F2364EB6E
:101CA00071E086E791E10E948F230E94F11010926B
:101CB0005209109238091092370910923609109281
:101CC000350910923409109233091092320910929A
:101CD00031091092300910922F0910922E0910929A
:101CE0002D0910924909E3E2F9E0119289E0ED3201
:101CF000F807D9F711E01093000110923A090E94F9
:101D0000501210933909DCC080912909882319F0F9
:101D100081E00E94803280912909823009F461C0FB
:101D2000833009F4A8C0813009F0CAC0E0912A09C3
:101D30008E2F90E08A30910508F0C2C0FC01E75A6E
:101D4000FF4F0C944A620E94501281E080932A094E
:101D5000B7C09091490980913D09992311F08150B4
:101D600001C08F5F80933D0980913D09811104C0BE
:101D700089E080933D0904C08A3010F010923D093B
:101D800060913D0980E190E091C085E892E00E9479
:101D9000102D60913C09605808C089E792E00E94CC
:101DA000102D60913C0980E4682760933C0985E12F
:101DB00090E03AC060913C0980E2F6CF60913C0926
:101DC00080E1F2CF60913C0988E0EECF60913C0960
:101DD00081E0EACF60913C0984E0E6CF10922A09C5
:101DE0006FC0E0912B098E2F90E08930910508F0AB
:101DF00067C0FC01ED59FF4F0C944A620E945012DB
:101E000081E080932B095CC06091501380E407C08F
:101E10006091501380E203C06091501380E1682705
:101E20006093501381E190E00E94743C65E070E0A3
:101E300080E090E01AC06091501384E00BC0609184
:101E4000501381E007C06091501382E003C060919D
:101E5000501388E068276093501381E190E00E945E
:101E6000743C6AE070E080E090E00E947E2228C02E
:101E700010922B0925C09091490980914F13992305
:101E800011F0815001C08F5F80934F1380914F13E9
:101E90008F3F21F489E080934F1304C08A3010F003
:101EA00010924F1360914F1384E190E00E94743CB4
:101EB00065E070E080E090E00E947E220E94501277
:101EC00027960FB6F894DEBF0FBECDBFDF91CF913E
:101ED0001F910F91FF90EF90DF90CF9008956623B0
:101EE00051F05C98962F982311F05E9A01C05E988D
:101EF0005C9A6695F4CF08955F9A5F9808951F9352
:101F0000CF93DF93EC0197FF02C05D9803C05D9A09
:101F1000892B59F40E947C0F0E947C0F0E947C0F39
:101F2000DF91CF911F910C947C0F0E947C0F0E9437
:101F30007C0F0E947C0F0E947C0F5D980E947C0F9A
:101F40005D9A11E0812F90E08C179D0724F40E9488
:101F50007C0F1F5FF7CFDF91CF911F9108951F93E3
:101F6000CF93DF931F92CDB7DEB7162F90E0498352
:101F70000E947F0F64E085E00E946F0F60E4812F74
:101F80000E946F0F68E04981842F0E946F0F80E0EC
:101F900090E00F90DF91CF911F910C947F0FCF9322
:101FA000DF93EC010E94783C80914712882321F056
:101FB0008DE392E10E94C641CE010E94E51B811192
:101FC00014C064E170E080E090E00E947E22CE01C7
:101FD0000E94E51B811109C086EC9BE00E94B6417E
:101FE000CE010E940B190E94FB610E942F1A8111E1
:101FF00006C08AED9BE0DF91CF910C94102D80916B
:102000001F0980934C12DF91CF910C947E1BCF93CC
:10201000DF9300D0CDB7DEB70FB6F894A895209126
:102020006000286120936000109260000FBEA895A8
:1020300089839A830E94783C89819A810E94CF0F7C
:10204000809147128111FCCF99E288E10FB6F89494
:10205000A895809360000FBE909360000F900F9042
:10206000DF91CF910895CF93DF93C82FD0E0FE0189
:10207000E05BF64F808181110AC080915209811185
:1020800023C0DE01A25FBE4F9C919A30F0F4DE01C6
:10209000A65ABC4E81E08C931082FE01E25FFE4F97
:1020A0008AE0808383EC93E00E940710FE01E45AEB
:1020B000FC4E8081C45FDE4F863018F487E0888351
:1020C00001C0188281E001C080E0DF91CF910895C6
:1020D000CF92DF92EF92FF920F931F93CF93DF93F4
:1020E000C82FD0E08E01005B164FF8018081882355
:1020F00099F10E94AE2B2AE0C22ED12CB6010E948B
:1021000036629E01225F3E4F7901892B11F489E0EE
:1021100006C00E94AE2BB6010E9436628150F701C4
:102120008083F8011082C65ADC4E81E088838DE3FB
:1021300092E10E94C641188210924F0968EE73E046
:1021400080E090E0DF91CF911F910F91FF90EF9091
:10215000DF90CF900C947E22DF91CF911F910F9151
:10216000FF90EF90DF90CF900895CF93DF93C82F2B
:10217000D0E0FE01E25AFC4E808187FF2FC0209103
:10218000C31330E0FE01E85AFC4E808190E00196D6
:102190002817390719F50E94AE2BFE01EA5AFC4EAA
:1021A000208130E082179307C9F4FE01E05BF64F0F
:1021B0001082FE01E65AFC4E1082FE01E45AFC4EEB
:1021C0008081FE01E45FFE4F863018F487E0808353
:1021D00001C01082C25FDE4F8AE08883DF91CF9119
:1021E0000895CF9383E090E00E94763CC82F8093BF
:1021F0005E1381E090E00E94763C8093581382E069
:1022000090E00E94763C8093561387E090E00E9415
:10221000763C80935C13CC0F8C2F90E0959587953E
:102220008C37910519F41092461306C08F3791052B
:10223000D1F381E0809346138BE090E00E94763CDE
:10224000C82F80935F1389E090E00E94763C8093D2
:1022500059138AE090E00E94763C809357138CE0FB
:1022600090E00E94763C80935D13CC0F8C2F90E021
:10227000959587958C37910519F08F37910519F44D
:102280001092471303C081E08093471380E090E0F1
:102290000E94763C91E0811101C090E09093C413BC
:1022A00084E090E00E94763C8093200985E090E0F5
:1022B0000E94763C9FEF980F933008F083E0809364
:1022C000530988E090E00E94763C80934A138DE0A9
:1022D00090E00E94763C91E0811101C090E09093E3
:1022E0000B018EE090E00E94763C91E0811101C0EC
:1022F00090E0909349138FE090E00E94763C8093A9
:102300001F0980E190E00E94763C80933D0985E1C1
:1023100090E00E94763C80933C0981E190E00E942D
:10232000763CC82F8093501382E190E00E94763C67
:1023300091E0811101C090E090931E0984E190E04A
:102340000E94763C80934F1386E190E00E94763C99
:1023500091E0811101C090E09093C21391110FC0E0
:10236000C2FF05C094E08C2F892780935013909171
:10237000501391FF04C082E08927809350130E947C
:10238000EA4C8F329140A1F08FEA9BE00E94102D21
:102390006FE289E190E00E94743C61E08AE190E0A4
:1023A0000E94743C6FE070E080E090E00E947E222A
:1023B00087E190E00E94763C91E0811101C090E0BD
:1023C00090934E098BE190E00E94763C80931D092A
:1023D0008EE190E00E94763C80931B098FE190E0B3
:1023E0000E94763C8093A20A80E290E00E94763CB4
:1023F00080931C0981E290E00E94763C8093481310
:1024000082E290E00E94763C91E0811101C090E070
:1024100090931A09CF910895CF93C62F90E00E9410
:102420007F0F64E084E00E946F0F60E88C2F0E94B1
:102430006F0F61E080E00E946F0F80E090E0CF912D
:102440000C947F0FEF92FF921F93CF93DF9300D0F6
:1024500000D01F92CDB7DEB795E0E3E2F1E0DE01F8
:10246000119601900D929A95E1F7863008F085E07B
:1024700011E07E01E80EF11CF70160816056812FAA
:102480000E940C121F5F1530B9F70F900F900F903C
:102490000F900F90DF91CF911F91FF90EF900895D3
:1024A000CF9382EA99E044E0480F20E030E0FC015D
:1024B000E20FF31F10822C5F3F4F211551E03507CB
:1024C000B1F701964813F1CFC0E040E06C2F81E0F6
:1024D0000E94AF0F40E06C2F82E00E94AF0F40E0FF
:1024E0006C2F83E00E94AF0F40E06C2F84E00E94CD
:1024F000AF0FCF5FC03649F7CF910895CF9380E0FB
:102500000E94681081E00E9468108091520988231F
:1025100009F400C10E94B82260934A0970934B09E4
:1025200080934C0990934D0982E00E948032809103
:102530002D09833099F038F4813061F0823009F050
:10254000E7C081E008C0843009F47DC0853009F41B
:10255000A2C0DEC080E00E949C3CDAC00E94501203
:102560000E9422381092360991E090933809109217
:102570003509809125098F5F873018F480932509EC
:1025800002C090932509C0912509C330A1F168F4D8
:10259000C130E1F0C23009F0BBC01092320981E0D5
:1025A00080933109109230093DC0C53009F43FC015
:1025B00090F1C63009F0ACC081E080939909109287
:1025C000370910922E090E94453EA2C00E94501267
:1025D000C0930001C093380910923709C0933209A3
:1025E000109231091092300910922F0910922E0981
:1025F000109299098DC0109200010E94501281E042
:1026000080933709109232091092310910923009E3
:1026100080932F0909C0109232091092310981E08C
:102620008093300910922F0910922E0971C01092D8
:102630003209109231091092300910922F0981E06D
:1026400080932E0965C00E94501210923609109294
:10265000380991E09093350980912609893079F401
:1026600080912C09811102C08AE00AC08F5F8830F6
:1026700018F480932C0906C090932C0903C08F5F37
:1026800080932609809126098C3008F441C081E0AE
:10269000809326093DC00E9450120E945012109251
:1026A0003609109238091092350991E09093340957
:1026B00080912909813079F490912A09911102C001
:1026C00082E01BC09F5F9A3018F490932A0917C0CC
:1026D00080932A0914C0823079F480912B098111EA
:1026E00002C083E00AC08F5F893018F480932B0901
:1026F00006C090932B0903C08F5F809329098091B6
:102700002909843018F081E0809329090E94501231
:1027100010924409CF910895EF92FF921F93CF93A7
:10272000DF939B018032910508F02AC16031710569
:1027300008F026C1542F507144FF70C04370582FC9
:1027400052955F706830710514F0E2E001C0E0E07E
:10275000E50F22FB992790F98F70880F890F23705E
:1027600060E870E002C0759567952A95E2F790E001
:10277000F0E0423011F14330C1F1262F2095DC0109
:10278000AA0FBB1FAA0FBB1FAE0FBF1FAE55B64F80
:102790003C91413019F032233C9302C0632B6C937F
:1027A0008096880F991F880F991FE80FF91FEE5523
:1027B000F64F808128232083E3C0DC01AA0FBB1FD2
:1027C000AA0FBB1FAE0FBF1FAE55B64F262F2095C9
:1027D0003C9123232C939C01205E3F4F220F331FFB
:1027E000220F331FE20FF31F13C0DC01AA0FBB1F20
:1027F000AA0FBB1FAE0FBF1FAE55B64F2C91262B95
:102800002C938096880F991F880F991FE80FF91F46
:10281000EE55F64F8081862B8083B2C0443008F09D
:10282000AFC0BC01E4E075956795EA95E1F7283003
:1028300031050CF052E0560F8F709927880F22FB5C
:10284000662760F9182F160F2370332788E090E071
:102850007C0102C0F594E7942A95E2F7612F70E0BD
:10286000C52FD0E09B01220F331F220F331FF90128
:10287000EC0FFD1FEE55F64F9081892F8E21A1E0C0
:1028800009F4A0E0FB01B096EE0FFF1FEE0FFF1F53
:10289000EC0FFD1FEE55F64F80818E2109F082E08E
:1028A0008A0F481709F46CC0413039F148F04230C2
:1028B00009F441C0433009F063C0492F4E293EC09E
:1028C000E094492F4E212C0F3D1FF901EE55F64F94
:1028D0004083FF24F394F50E612F8F2D0E94AF0FDC
:1028E00060E2610FFE0184E0689FE00DF11D11249C
:1028F000EE55F64F90814E2D1CC0492F4E292C0FBE
:102900003D1FF901EE55F64F4083FF24F394F50E79
:10291000612F8F2D0E94AF0F60E2610FFE0184E0F6
:10292000689FE00DF11D1124EE55F64F4E2D409598
:10293000908149231CC04E2D409549232C0F3D1FEB
:10294000F901EE55F64F4083FF24F394F50E612F05
:102950008F2D0E94AF0F60E2610FFE0184E0689F3F
:10296000E00DF11D1124EE55F64F40814E294083B4
:102970008F2DDF91CF911F91FF90EF900C94AF0FAF
:10298000DF91CF911F91FF90EF9008952F923F928A
:102990004F925F926F927F928F929F92AF92BF926F
:1029A000CF92DF92EF92FF920F931F93CF93DF931B
:1029B000582E492E322EA895403214F0405201C0B4
:1029C00040E03B015B0128E0A20EB11C38E0439FD0
:1029D000E0011124C61BD70B85E0882E912C832D96
:1029E0008071282EF301EC0FFD1FE954FD4FE49197
:1029F000E52CF42CC12CD12C0E2F10E0C4018C1925
:102A00009D09980102C0359527958A95E2F720FF28
:102A100002C0432D01C0422DB301C7010E948C1397
:102A20003FEFC31AD30A8FEFE81AF80A26E0C2165E
:102A3000D10421F73FEF631A730A6A147B0491F6FD
:102A4000DF91CF911F910F91FF90EF90DF90CF908A
:102A5000BF90AF909F908F907F906F905F904F90BE
:102A60003F902F9008952F923F924F925F926F92D6
:102A70007F928F929F92AF92BF92CF92DF92EF920E
:102A8000FF920F931F93CF93DF93CDB7DEB72A97B3
:102A90000FB6F894DEBF0FBECDBFF82E192F6B0115
:102AA0002A011901A895043051F40E94496723E0D6
:102AB00030E040E050E00E947D6A01E0060FF986B8
:102AC0001A8729853A853A8329837201C6010896B7
:102AD00098878F83102F1071F20101900020E9F781
:102AE0003197CF01841995099701241935092817C1
:102AF000390708F0B6C092E02916310471F0A3E05E
:102B00002A16310409F451C0202FB1E02B163104EC
:102B100009F091C0F701408190C0D7018C91A89530
:102B2000803214F0805201C080E03601B8E08B9F03
:102B3000C00111249C012C193D093C832B83EB819E
:102B4000FC81E60DF71DE954FA4FE49189849A84DB
:102B5000A12CB12C2E2F30E03E832D8385E090E018
:102B60008A199B092D813E8102C0359527958A954A
:102B7000E2F720FF02C0402F01C0412FB301C40182
:102B80000E948C133FEFA31AB30A8FEF881A980A9A
:102B900096E0A916B10411F7AFEF6A1A7A0AEF812D
:102BA000F8856E167F0659F64DC0D7018C9180527C
:102BB0008F3508F080E05601B8E08B9FC0011124EA
:102BC0009C012C193D093C832B83EB81FC81EA0D90
:102BD000FB1DE954F74FE49169807A80812C912C98
:102BE0002E2F30E03E832D8383E090E088199909F1
:102BF0002D813E8102C0359527958A95E2F720FF09
:102C000002C0402F01C0412FB501C3010E948C13A7
:102C10003FEF831A930A8FEF681A780A94E08916B7
:102C2000910411F7AFEFAA1ABA0AEF81F885AE1630
:102C3000BF0659F607C0D7014C91B60189859A8520
:102C40000E94C614BFEFEB1AFB0AE985FA85369697
:102C5000FA87E98729813A812C5F3F4F3A8329839C
:102C60003BCF2A960FB6F894DEBF0FBECDBFDF91E3
:102C7000CF911F910F91FF90EF90DF90CF90BF9079
:102C8000AF909F908F907F906F905F904F903F900C
:102C90002F9008950F93CF9380914F098111E7C032
:102CA0000E943310811170C081E00E9433108111A5
:102CB0006BC00E94B82260934A0970934B098093BD
:102CC0004C0990934D090E94B82260939A09709321
:102CD0009B0980939C0990939D09C1E0C093520980
:102CE0000E94223810923609109238091092370942
:102CF00080912D098F5F863008F4B6C0C0932D09EE
:102D000082E00E948032E3E2F9E0119289E0ED3244
:102D1000F807D9F780912D09833009F44AC008F0EB
:102D200041C08130A1F58EE39CE00E94102D1092ED
:102D3000000110923509109234090E945012E0915E
:102D40002D0984E0E89FF0011124EC5DFE4F4081E5
:102D5000518103E021E030E060E070E087E090E046
:102D60000E943315E0912D0984E0E89FF0011124C1
:102D7000EC5DFE4F4281538121E030E068E070E07D
:102D800080E090E00E9433151092430970C08230B9
:102D9000D9F78AE29CE00E94102D10920001109257
:102DA0003509CBCF843041F0853071F78AEE9BE056
:102DB0002FC083E19CE02CC08FEF9BE00E94102D80
:102DC000109200010E945012E0912D0984E0E89FCA
:102DD000F0011124EC5DFE4F4081518103E021E0C0
:102DE00030E060E070E087E090E00E943315E09111
:102DF0002D0984E0E89FF0011124EC5DFE4F428133
:102E0000538121E030E068E070E081E090E0BACFEB
:102E10000E94102D10920001109235090E9450124C
:102E2000E0912D0984E0E89FF0011124EC5DFE4F54
:102E30004081518103E021E030E060E070E083E018
:102E400090E00E943315E0912D0984E0E89FF001A5
:102E50001124EC5DFE4F4281538121E030E068E0B7
:102E600070E083E090E08ECF80932D0949CFCF9121
:102E70000F9108958F929F92AF92BF92CF92DF925F
:102E8000EF92FF920F931F93CF93DF93CDB7DEB7EF
:102E900064970FB6F894DEBF0FBECDBF5F87798B06
:102EA000F42E411109C06F5F6D3040F02FEFC21A50
:102EB000D20A21E061E003C0242F01C021E089890A
:102EC0008B831A82198281E08D836E838EE48C0D50
:102ED0008F83CE0101962C8B0E9406294B015C0149
:102EE0000F8510E00E94822B2C8930E0215031099F
:102EF00087E0829FF001839FF00D11248091B30E33
:102F00009801281B3109C901079667E070E00E940B
:102F10003662DF01A80FB91F20E831E541E050E03B
:102F20000E94A76A680D791D8A1D9B1DF11004C0BF
:102F300060587A438940910964960FB6F894DEBFD1
:102F40000FBECDBFDF91CF911F910F91FF90EF90FA
:102F5000DF90CF90BF90AF909F908F9008958F9209
:102F60009F92AF92BF92CF92DF92EF92FF920F9318
:102F70001F93CF93DF936C01E0903510F0903610E3
:102F800000913710109138102091391030913A107B
:102F900040913B1050913C1060913D1070913E105B
:102FA00080913F10909140100E943A17C5E3D0E104
:102FB00068A379A38AA39BA3E1E4F0E1E080F18018
:102FC0000281138124813581468157816085718515
:102FD000828593850E943A176B017C016CA37DA3C7
:102FE0008EA39FA3AE89BF892CE330E00E94536279
:102FF00008A119A12AA13BA148015901861A970AE3
:10300000A80AB90A888E998EAA8EBB8EAA85BB851E
:103010002CE330E00E945362C61AD70AE80AF90A84
:10302000CC8EDD8EEE8EFF8EDF91CF911F910F91B2
:10303000FF90EF90DF90CF90BF90AF909F908F90D8
:1030400008952F923F924F925F926F927F928F924C
:103050009F92AF92BF92CF92DF92EF92FF920F9327
:103060001F93CF93DF9300D000D01F92CDB7DEB770
:103070008C016983FC0101900020E9F79F01281B66
:10308000390B3D832C8328EF6C817D812603C001A1
:10309000279F900D11249B838A8380E2E82EF12CD8
:1030A00093E0492E512C612C712C4A01550FAA082E
:1030B000BB086A817B816E157F05CCF5670118011D
:1030C000C101801B910B2C813D8182179307C4F4B1
:1030D0003981343041F40E944967A30192010E9472
:1030E0007D6A6F5F6983F10141911F01298168E069
:1030F00070E0C6010E94C614F8E0CF0ED11CE0CFEC
:103100008BE10E94E9210197A1F08CE10E94E92165
:10311000019779F08AE10E94E921019751F0C501F8
:10312000B4010E947E2231E0E31AF108C2CF81E0AF
:1031300003C00E94501280E00F900F900F900F90EC
:103140000F90DF91CF911F910F91FF90EF90DF9043
:10315000CF90BF90AF909F908F907F906F905F9037
:103160004F903F902F9008957F928F929F92AF92B1
:10317000BF92CF92DF92EF92FF920F931F93CF9364
:10318000DF93722E2BE0429F600D711D11242CE005
:10319000269F6001279FD00C1124C2E0D0E0039647
:1031A0005C0132E0C31AD1084501C6018C0F9D1F96
:1031B000FC01EE51F34F7F0104E010E0F701649150
:1031C00070E0002E02C0759567950A94E2F760FFE3
:1031D00002C0472D01C040E0BE01C4010E948C1313
:1031E00001501109FFEF8F1A9F0A0F3F2FEF1207AF
:1031F00029F72196CE30D105B9F6DF91CF911F91F5
:103200000F91FF90EF90DF90CF90BF90AF909F9085
:103210008F907F900895009769F0FC010190002045
:10322000E9F73197AF01481B590BBC0187EB9EE0D2
:103230000C94561D80E090E008958F929F92AF927B
:10324000BF920F931F93CF93DF93CDB7DEB7A197B4
:103250000FB6F894DEBF0FBECDBF19A2423008F4FE
:103260004AE08E010F5D1F4F842E912CA12CB12CB2
:10327000A50194010E94AF6AE62FB901CA0101506D
:103280001109EA3014F4E05D01C0E95CD801EC9367
:10329000232B242B252B61F7C8010E940B19A19623
:1032A0000FB6F894DEBF0FBECDBFDF91CF911F9157
:1032B0000F91BF90AF909F908F900895CF92DF9223
:1032C000EF92FF92CF93DF936B017C010E94A62BBC
:1032D000EC0160914D1070914E1080914F109091C3
:1032E00050100E94A62BC817D90731F0C701B601AC
:1032F0000E94A62B0E94AF17C701B6010E94A62B01
:10330000EC0160914D1070914E1080914F10909192
:1033100050100E94A62BC817D90731F0C701B6017B
:103320000E94A62B0E94AF1740915110509152104D
:10333000609153107091541080914D1090914E10E7
:10334000A0914F10B091501084179507A607B707AA
:1033500058F4C816D906EA06FB06D8F0C416D506F6
:10336000E606F706B0F40AC0C416D506E606F70668
:1033700028F0C816D906EA06FB0658F085E390E166
:103380009093AF0E8093AE0EA0913F10B09140107D
:103390000AC081E490E19093AF0E8093AE0EA091AD
:1033A0004B10B0914C102CE330E00E9453626C0D36
:1033B0007D1D8E1D9F1DDF91CF91FF90EF90DF90BF
:1033C000CF90089581E480937C0080917A0080649E
:1033D00080937A0080917A0086FDFCCF80917800FE
:1033E0002091790090E0922B0895CF93DF930E9473
:1033F0000B19EC0183EF92E00E940B198C0F9D1FBB
:10340000DF91CF9108950F931F93CF93DF938C019A
:10341000C0E0D0E0F801EC0FFD1F6491662371F06D
:10342000E091B70EF091B80E0190F081E02D87EB9E
:103430009EE00995892B11F02196ECCFCE01DF910A
:10344000CF911F910F910895E091B70EF091B80EB2
:103450000190F081E02D682F87EB9EE009948F9218
:103460009F92AF92BF92CF92DF92EF92FF920F9313
:103470001F93CF93DF93CDB7DEB762970FB6F89463
:10348000DEBF0FBECDBF80914F12877041F1C0905B
:103490005C12D0905D12E0905E12F0905F12C11449
:1034A000D104E104F10409F050C019C046015701EC
:1034B0002FEF821A920AA20AB20A6B017C016815E8
:1034C00079058A059B0509F045C0B701A601C80129
:1034D0000E94FD43611571058105910539F74CE0A6
:1034E00050E0BE016F5F7F4F8FE492E10E942A455A
:1034F0000C9749F544E050E06FEF73E0CE01019680
:103500000E94DA63892BF9F444E050E064E074E04F
:10351000CE0109960E94DA63892BA9F448E050E0B5
:10352000BE016F5F7F4F8FE492E10E942A450897AA
:1035300051F444E050E069E074E0CE0101960E944D
:10354000DA63892B01F110E0C5C00091601210917F
:103550006112BBCFF8012289203129F008EF1FEF5B
:103560002FEF3FE004C008EF1FEF20E030E06017CE
:1035700071078207930708F4B2CF80914F128860D9
:1035800080934F12ACCFCD80DE80EF80F88486012F
:10359000C6018D7F409761F4A601BE016F5F7F4F2A
:1035A0008FE492E10E942A458C159D0561F602C0C8
:1035B0001A82198289819A81019739F402311105A1
:1035C00039F489899A89892B19F088EC9CE007C025
:1035D0008B8180933D12833028F087EB9CE00E9422
:1035E000102DB1CF823021F481EA9CE00E94102D91
:1035F000EF85E0934212E13118F083E89CE0EFCFD1
:103600002D813E814F81588520933E1230933F1289
:103610004093401250934112A0913D12B0E00E949D
:103620009C6A6B017C01AE2FB0E09B01AC010E9453
:103630009C6ADC01CB0123E0B695A7959795879509
:103640002A95D1F7F3E2CF16F6E5DF06E104F1049F
:1036500038F4893828E5920721E0A207B10518F06F
:103660008DE69CE0BCCF85349C4AA105B10558F09D
:1036700080914F12182F187083FD05C082E59CE0E1
:103680000E94102D27C08FE492E190934E128093F8
:103690004D12109248121092491210924A12109232
:1036A0004B12109247121092431210924412109231
:1036B00045121092461210924C1240E050E060E029
:1036C00070E08DE392E10E9418469095192F111F2A
:1036D0001127111F812F62960FB6F894DEBF0FBE1F
:1036E000CDBFDF91CF911F910F91FF90EF90DF90B1
:1036F000CF90BF90AF909F908F9008958DE392E10F
:103700009093AD0E8093AC0E40E052E06CEA7CE00A
:103710000E941846181619060CF056C02CEA3CE018
:103720003093AB0C2093AA0C8455934F9093A90C23
:103730008093A80C40E052E068EA7AE08DE392E1E1
:103740000E94184697FD40C028EA3AE03093A70A45
:103750002093A60A8855954F9093A50A8093A40AB2
:1037600081E08093A30A80934712209A219A229A9B
:10377000289A239A2B981092800089E080938100E8
:10378000A0913D1220913E1230913F124091401283
:1037900050914112B0E00E949C6A9B01AC0160E034
:1037A00074E284EF90E00E94AF6A30938900209326
:1037B000880081E090E090938B0080938A00809154
:1037C0006F00826080936F0008958F929F92AF92F6
:1037D000BF92EF92FF920F931F93CF93DF93CDB7DA
:1037E000DEB7AD970FB6F894DEBF0FBECDBF8C012C
:1037F00080916F1290917012A0917112B09172121B
:103800008093671290936812A0936912B0936A1222
:1038100010926B1210926C1210926D1210926E1226
:103820004EE2F42E909162129770923008F4C1C06B
:1038300040E250E0BE016F5F7F4F82E692E10E945E
:103840002A45803209F0B5C09981992309F4B1C0A5
:10385000953E71F39E3261F3BC84FB2DF870AF2E60
:10386000B3FCE6CFFE01319690E020E081918032FA
:1038700091F0283041F4A1E2B0E0AC0FBD1FA90FD8
:10388000B11DFC929F5FA1E2B0E0AC0FBD1FA90F7C
:10389000B11D8C939F5F2F5F2B3041F7E1E2F0E089
:1038A000EC0FFD1FE90FF11D1082B801CE018196CA
:1038B0000E94B563892B09F0B5CFE0907312F090A8
:1038C0007412F7018289803108F474C04D895E89D1
:1038D00060E070E0BA01552744270B8D1C8D20E075
:1038E00030E0402B512B622B732B40935C12509392
:1038F0005D1260935E1270935F128B2D887181F45C
:1039000081E080934F128D8D9E8DAF8DB8A18093F5
:10391000501290935112A0935212B09353122AC096
:10392000803109F047C084E080934F12812C912CA4
:103930005401C7010E94FD43AB01BC014115510573
:103940006105710579F0F701808190E0982F882753
:10395000990F092E000CAA0BBB0B880E991EAA1EEC
:10396000BB1EE7CF8092501290925112A092521239
:10397000B0925312F0926112E092601280915C1248
:1039800090915D12A0915E12B0915F1280935412DB
:1039900090935512A0935612B0935712109258124A
:1039A0001092591210925A1210925B12AA24A394E8
:1039B00001C0A12C8A2DAD960FB6F894DEBF0FBEC4
:1039C000CDBFDF91CF911F910F91FF90EF90BF90EE
:1039D000AF909F908F900895EF92FF920F931F9357
:1039E000CF93DF937C018B01CEE9D1E18D819E8164
:1039F0000E941F28B7018D819E810E94842640E08D
:103A00006EEB8D819E810E94DD278D819E810E94BB
:103A1000B126F80180838D819E810E94B126F80134
:103A200081838D819E810E94B126F80182838D81E0
:103A30009E810E94B126F80183838D819E810E9420
:103A4000B126F80184838D819E810E94B126F80100
:103A500085838D819E810E94B126F80186838D81A8
:103A60009E810E94B126F80187838D819E810E94EC
:103A7000B126F80180878D819E81DF91CF911F91C2
:103A80000F91FF90EF900C941F28CF93DF93EB01E1
:103A90000E94EC1C68E0CE010E94E22591E028859E
:103AA000821390E0892FDF91CF910895CF92DF921A
:103AB000EF92FF920F931F93CF93DF936C017A01E4
:103AC0008B01C0E0D0E0CE15DF0589F0D8016D9103
:103AD0008D01D601ED91FC910190F081E02DC601A0
:103AE0000995892B11F47E0102C02196ECCFC70104
:103AF000DF91CF911F910F91FF90EF90DF90CF90CA
:103B00000895FC01918D828D981761F0828DDF01FF
:103B1000A80FB11D5D968C91928D9F5F9F73928FC0
:103B200090E008958FEF9FEF0895FC01918D828DB5
:103B3000981731F0828DE80FF11D858D90E0089582
:103B40008FEF9FEF0895FC01918D228D892F90E0DA
:103B5000805C9F4F821B91098F739927089587EB93
:103B60009EE00E94A31D21E0892B09F420E0822F12
:103B70000895FC01848DDF01A80FB11DA35ABF4F2A
:103B80002C91848D90E001968F739927848FA6895C
:103B9000B7892C93A089B1898C9180648C93938D83
:103BA000848D981306C00288F389E02D80818F7D73
:103BB00080830895EF92FF920F931F93CF93DF932B
:103BC000EC0181E0888F9B8D8C8D981305C0E8896E
:103BD000F989808185FD24C0F62E0B8D10E00F5FE2
:103BE0001F4F0F731127E02E8C8DE8120CC00FB6FB
:103BF00007FCFACFE889F989808185FFF5CFCE01EE
:103C00000E94B91DF1CF8B8DFE01E80FF11DE35A23
:103C1000FF4FF0820B8FEA89FB898081806207C0A9
:103C2000EE89FF896083E889F989808180648083D7
:103C300081E090E0DF91CF911F910F91FF90EF9085
:103C40000895CF93DF93EC01888D8823C9F0EA892A
:103C5000FB89808185FD05C0A889B9898C9186FD85
:103C60000FC00FB607FCF5CF808185FFF2CFA88982
:103C7000B9898C9185FFEDCFCE010E94B91DE7CFA8
:103C8000DF91CF91089580E090E0892B21F00E9490
:103C9000AF1D81110DC080E090E0892B71F080E0B4
:103CA00090E0892B51F00E940000811104C008951A
:103CB0000E940000F0CF0C940000089590E0FC01F9
:103CC0003197EA30F10540F5E459FF4F0C944A6210
:103CD000809180008F7703C0809180008F7D8093DA
:103CE0008000089584B58F7702C084B58F7D84BD30
:103CF00008958091B0008F7703C08091B0008F7DD0
:103D00008093B0000895809190008F7703C08091D8
:103D100090008F7D8093900008953FB7F894809134
:103D2000BB129091BC12A091BD12B091BE1226B5EB
:103D3000A89B05C02F3F19F00196A11DB11D3FBFE3
:103D4000BA2FA92F982F8827820F911DA11DB11D71
:103D5000BC01CD0142E0660F771F881F991F4A956D
:103D6000D1F7089508952F923F924F925F926F92EC
:103D70007F928F929F92AF92BF92CF92DF92EF92FB
:103D8000FF920F931F93CF93DF9300D000D000D00A
:103D9000CDB7DEB7882309F44EC1E091B41180910C
:103DA000B2129091B312A091B412B091B5120196D3
:103DB000A11DB11D8093B2129093B312A093B412BF
:103DC000B093B512F0E0EB54FE4E80839183A28352
:103DD000B3838091B4118095982F93708091B41122
:103DE000890F8093B411E091B411F0E0EB54FE4ED2
:103DF00080818F738083E091B411F0E0EB54FE4E2C
:103E0000208130E4939FC0011124822B8083809114
:103E1000B4118F5F8093B4112090B411822D8695D8
:103E20008695823008F459C2282E880F3308C101C4
:103E3000880F991F880F991FAC014F545E4E5E8307
:103E40004D83FA0180819181A281B381C12CD12C53
:103E50007601F1E02F1A310827E4C21A26E8D20AC7
:103E600028ECE20A21E6F20AB701A60112E07695F3
:103E70006795579547951A95D1F7342F33703A8344
:103E800019822981622F70E02C013D0154E0440C1D
:103E9000551C661C771C5A95D1F74C015D01E5E075
:103EA000B694A79497948794EA95D1F76215730511
:103EB0000CF062C06F5F7F4F660F771F660F771F32
:103EC000FB01EB54FE4E0081118122813381AB0155
:103ED0004F545E4E5C834B83B901A801E3E07695B5
:103EE000679557954795EA95D1F744265526662656
:103EF0007726B901A801F2E0440F551F661F771F0E
:103F0000FA95D1F784269526A626B726480C591C83
:103F10006A1C7B1C59815370EA815E2744E0549FE0
:103F2000F0011124E65FF64F408151816281738177
:103F300084279527A627B727B901A8014C255D2519
:103F40006E257F25840F951FA61FB71F482659266B
:103F50006A267B26EB81FC8180819181A281B381DD
:103F6000840D951DA61DB71D80839183A283B38305
:103F7000F981FF5FF98385CF4091B5115091B6115A
:103F80006091B7117091B811322F3370EA813E27DA
:103F900024E0329FF0011124E65FF64F0081118189
:103FA0002281338180279127A227B3279701860199
:103FB0000427152726273727800F911FA21FB31F1D
:103FC0008A019B01F3E03695279517950795FA9599
:103FD000D1F704251525262537252A013B0142E086
:103FE000440C551C661C771C4A95D1F7482459246B
:103FF0006A247B24400E511E621E731E8425952563
:10400000A625B725ED81FE814081518162817381B2
:10401000840F951FA61FB71F80839183A283B3834C
:10402000F6E5CF16FAEDDF06FCE4EF06F5EBFF064A
:1040300009F012CF52C18091BE139091BF13892B0A
:1040400009F04BC11091B41116951695123008F471
:1040500028C18091B5119091B611A091B711B0917E
:10406000B81144E0149F90011124F901EF54FE4E61
:104070001F0146E55AED6CE475EB11501B838A0174
:104080009B01E2E03695279517950795EA95D1F7BC
:10409000F02FF370FA832B8129833981032F10E0ED
:1040A00098012150304C220F331F220F331FF9018A
:1040B000EB54FE4E80809180A280B380F901E754DA
:1040C000FE4EFE83ED832401350104E0440C551CB3
:1040D000661C771C0A95D1F76C017D0123E0F694EC
:1040E000E794D794C7942A95D1F74C245D246E2485
:1040F0007F2495018401E5E036952795179507956E
:10410000EA95D1F76C017D01F2E0CC0CDD1CEE1CD0
:10411000FF1CFA95D1F7C026D126E226F3264C0CD7
:104120005D1C6E1C7F1C39813370FA813F2724E0AF
:10413000329FF0011124E65FF64FC080D180E2800B
:10414000F3808C249D24AE24BF246C017D01C42601
:10415000D526E626F726C80CD91CEA1CFB1C4C24E5
:104160005D246E247F24ED81FE8180819181A28176
:10417000B38184199509A609B70980839183A28325
:10418000B383F981F150F983F11187CFF101808078
:104190009180A280B3802C013D01E3E07694679486
:1041A00057944794EA95D1F775016401F4E0CC0C7B
:1041B000DD1CEE1CFF1CFA95D1F74C245D246E2407
:1041C0007F248C019D01E2E0000F111F221F331F8D
:1041D000EA95D1F775016401F5E0F694E794D79478
:1041E000C794FA95D1F7C026D126E226F326C40C4F
:1041F000D51CE61CF71C84279527A627B7272A81FC
:10420000F4E02F9F80011124F801E65FF64F408013
:10421000518062807380482459246A247B24480E8C
:10422000591E6A1E7B1E4C245D246E247F248091BF
:10423000B5119091B611A091B711B091B811841930
:104240009509A609B7098093B5119093B611A0936B
:10425000B711B093B811495B594767437E4909F0DC
:104260000ECFE091B411E150E093B411F0E0EB54C3
:10427000FE4E20812295269526952370E091B4115B
:10428000F0E0EB54FE4E80818F7390E0A0E0B0E050
:104290008093B9139093BA13A093BB13B093BC133C
:1042A00003C01123D1F0DDCF215078F0E091B4119B
:1042B000E150E093B411F0E0EB54FE4E3081BA2FA0
:1042C000A92F982F8827832BEFCF8093B913909332
:1042D000BA13A093BB13B093BC1326960FB6F894F1
:1042E000DEBF0FBECDBFDF91CF911F910F91FF9029
:1042F000EF90DF90CF90BF90AF909F908F907F9086
:104300006F905F904F903F902F90089508950E9476
:10431000B0631F920F920FB60F9211240BB60F923B
:104320002F933F934F935F936F937F938F939F93BD
:10433000AF93BF93EF93FF9387EB9EE00E94B91D6D
:10434000FF91EF91BF91AF919F918F917F916F916D
:104350005F914F913F912F910F900BBE0F900FBE29
:104360000F901F9018951F920F920FB60F92112465
:104370000BB60F922F938F939F93EF93FF93E09140
:10438000C70EF091C80E8081E091CD0EF091CE0E57
:1043900082FD12C090818091D00E8F5F8F7320912B
:1043A000D10E821751F0E091D00EF0E0E954F14FB8
:1043B000958F8093D00E01C08081FF91EF919F91E6
:1043C0008F912F910F900BBE0F900FBE0F901F90EB
:1043D0001895CF93DF93282F30E0F901EC52FF4E70
:1043E0008491F901E056F04FD491F901E058F04F73
:1043F000C491CC2391F081110E945E1EEC2FF0E05D
:10440000EE0FFF1FEA58F04FA591B491EC91ED2308
:1044100081E090E021F480E002C080E090E0DF9154
:10442000CF9108951F93CF93DF93282F30E0F901A8
:10443000EC52FF4E8491F901E056F04FD491F9010E
:10444000E058F04FC491CC23C9F0162F81110E947F
:104450005E1EEC2FF0E0EE0FFF1FE653FF4EA5911E
:10446000B4918FB7F894111105C09C91ED2FE09590
:10447000E92302C0EC91ED2BEC938FBFDF91CF913C
:104480001F910895CF93DF9390E0FC01E056F04F29
:104490002491FC01E058F04F8491882361F190E071
:1044A000880F991FFC01E054FF4EC591D491FC0187
:1044B000E653FF4EA591B491611109C09FB7F894DE
:1044C0008881209582238883EC912E230BC0623053
:1044D00061F49FB7F8943881822F80958323888375
:1044E000EC912E2B2C939FBF06C08FB7F894E881D8
:1044F0002E2B28838FBFDF91CF9108958F929F92AB
:10450000AF92BF92CF92DF92EF92FF926B017C014C
:104510000E948D1E4B015C01C114D104E104F10421
:10452000F1F00E948D1EDC01CB0188199909AA09BE
:10453000BB09883E9340A105B10570F321E0C21A82
:10454000D108E108F10888EE880E83E0981EA11CCE
:10455000B11CC114D104E104F10419F7DDCFFF90BF
:10456000EF90DF90CF90BF90AF909F908F90089585
:104570002FB7F8946091B7127091B8128091B91268
:104580009091BA122FBF08951F920F920FB60F92FB
:1045900011242F933F938F939F93AF93BF93809159
:1045A000B7129091B812A091B912B091BA1230918D
:1045B000B61223E0230F2D3720F40196A11DB11D63
:1045C00005C026E8230F0296A11DB11D2093B61247
:1045D0008093B7129093B812A093B912B093BA1205
:1045E0008091BB129091BC12A091BD12B091BE12ED
:1045F0000196A11DB11D8093BB129093BC12A09394
:10460000BD12B093BE12BF91AF919F918F913F9118
:104610002F910F900FBE0F901F9018951F920F9221
:104620000FB60F9211240BB60F922F933F934F9317
:104630005F936F937F938F939F93AF93BF93EF930A
:10464000FF93E0910801F09109010995FF91EF9125
:10465000BF91AF919F918F917F916F915F914F919A
:104660003F912F910F900BBE0F900FBE0F901F9098
:1046700018951F920F920FB60F9211240BB60F923E
:104680002F933F934F935F936F937F938F939F935A
:10469000AF93BF93EF93FF93E0910601F091070171
:1046A0000995FF91EF91BF91AF919F918F917F916C
:1046B0006F915F914F913F912F910F900BBE0F9093
:1046C0000FBE0F901F9018951F920F920FB60F926A
:1046D00011240BB60F922F933F934F935F936F93D9
:1046E0007F938F939F93AF93BF93EF93FF93E0914B
:1046F0000401F09105010995FF91EF91BF91AF91F0
:104700009F918F917F916F915F914F913F912F91E9
:104710000F900BBE0F900FBE0F901F9018950F9328
:104720001F93CF93DF938C01EB014CE050E00E948C
:10473000656ABE01645F7F4F4CE050E0C8010C9693
:10474000DF91CF911F910F910C94656A1F920F9288
:104750000FB60F9211240BB60F922F933F934F93E6
:104760005F936F937F938F939F93AF93BF93EF93D9
:10477000FF938091670F0E94E92120916A0F309189
:104780006B0F2F5F3F4F30936B0F20936A0F909109
:104790003410943618F095E09093680F9091680F5C
:1047A0009330B9F018F4923039F057C0943059F181
:1047B000953009F44CC051C081114FC020916A0F4F
:1047C00030916B0F2436310508F443C01092341039
:1047D0001CC0813009F041C0E091341091E09E0F7F
:1047E00090933410F0E020916A0F30916B0FEE0F30
:1047F000FF1FE959F04F3683258310926B0F1092FB
:104800006A0F94E021C0811117C0E091341091E04B
:104810009E0F90933410F0E020916A0F30916B0F4F
:10482000EE0FFF1FE959F04F3683258310926B0F6F
:1048300010926A0F93E008C020916A0F30916B0FBD
:104840002536310550F095E09093680F06C0811130
:1048500004C010926B0F10926A0F9091690F992308
:1048600029F0811102C02D9A01C02D98FF91EF917E
:10487000BF91AF919F918F917F916F915F914F9178
:104880003F912F910F900BBE0F900FBE0F901F9076
:104890001895CF92DF92EF92FF92CF93DF93EC01C6
:1048A000072E000C880B990B0E942D696B017C016F
:1048B00020E030E040E45FE30E948C6920E030E0DB
:1048C00048E452E40E94FE620E947063C617D70754
:1048D000D4F020E030E040EA5FE3C701B6010E9477
:1048E0008C6920E030E048E452E40E94FE6220E05F
:1048F00030E040E85FE30E9492620E94706321E032
:104900006C177D070CF420E0822F90E0DF91CF91AF
:10491000FF90EF90DF90CF9008950F931F93CF9368
:10492000DF931F92CDB7DEB7182F2CB521602CBDB9
:1049300060E082E199830E94122299819EBD0DB4AC
:1049400007FEFDCF8EB5282F30E0322F22271EBD67
:104950000DB407FEFDCF8EB58901082B61E082E121
:104960000E9412228CB58E7F8CBDC8010F90DF9102
:10497000CF911F910F9108958091BD13882369F005
:104980008DEE94E290930901809308018091690073
:104990008F7C80936900EA9A0895EA9882EB9EE101
:1049A000909309018093080108958627682F6295E6
:1049B0006827062E669566956025062E6695602505
:1049C0006770082E892F669507946795902D862726
:1049D00006946795902586270895CF9380E090E010
:1049E0000E948D248091C113853009F094C080917C
:1049F000B0129091B112892B91F08091AF1284FD89
:104A00000EC085E880937A008091AF128F70806429
:104A100080937C0080917A00806480937A0080E0AB
:104A200090EB0E948D24682F8091B0129091B1126A
:104A3000892B69F08091AF1284FD09C080917A00C2
:104A400086FDFCCF90917A00906490937A008091DB
:104A5000C01381110EC08091B813882351F0E091EA
:104A6000C01391E09E0F9093C013F0E0EF54FE4E00
:104A70008083E091C01381E08E0F8093C013F0E03B
:104A8000EF54FE4E60838091BE139091BF130E943D
:104A9000D5249093BF138093BE138091B012909150
:104AA000B112892B39F18091AF1284FD23C080911E
:104AB000B5138138F8F480917A0086FDFCCF80919F
:104AC00078002091790090E0922B9C012C533109C1
:104AD0002F35314078F42091B6133091B713820FFF
:104AE000931F9093B7138093B6138091B5138F5F84
:104AF0008093B5138091B4112091C01390E0059676
:104B000030E0821793070CF456C08091C0138638AA
:104B100008F051C055C08091C11387FF1BC0E091C0
:104B2000B4118091C11391E0980F9093C113EC5F81
:104B30008E0FE82FF0E0EF54FE4EC0818091BE133F
:104B40009091BF136C2F0E94D5249093BF13809334
:104B5000BE132DC08091C11391E0980F9093C113A3
:104B60008330F1F054F48823A9F08130E9F4809186
:104B7000BE139091BF13C92F1AC08930B9F08A3083
:104B800099F4C091B8139091B4118DEF891B809363
:104B9000C1130DC08091BE139091BF13C82F07C0E1
:104BA0008DE092E80E948D24CAEA01C0CDE28C2FEC
:104BB00090E0985402C08DE092E8CF910C948D243F
:104BC000CF910895DC01E0E0615038F08D91E82745
:104BD000F0E0E054F04FE491F7CF8E2F0895AF92BC
:104BE000BF92CF92DF92EF92FF920F931F93CF93DA
:104BF000DF931F92CDB7DEB75C01E62ED72EFC0106
:104C0000858581115DC0C5010E941F28811105C0E5
:104C1000F5011386158614866BC040E060EFC50170
:104C20000E94DD2701E0F12CC12C11E0C5010E949A
:104C30008A27682FC50169830E948A2769816130AC
:104C400019F48130B9F433C04F2D50E068131BC004
:104C5000F5018385181730F4E40FF51F8381802355
:104C600049F402C0181731F060E0193058F4F5012A
:104C7000148708C0F501EF0DF11D8381802B83831C
:104C800061E009C0C12EF501E40FF51F9381802F6B
:104C9000809589238383C5010E94AE271F5F000F83
:104CA00011F4F39401E0F7E0FF1508F0BFCF1134E1
:104CB00038F0F501C386C11015C081E0858712C0A8
:104CC000F50113861586148680E0D5011396EE2D26
:104CD000FD2D9501255F3F4F9D919193A217B3073D
:104CE000D9F706C0F5018381882351F381E0EDCF28
:104CF0000F90DF91CF911F910F91FF90EF90DF9078
:104D0000CF90BF90AF900895CF92DF92EF92FF9235
:104D10000F931F93CF93DF931F92CDB7DEB78C0114
:104D2000F62E40E065E579830E94DD27CF2C79815E
:104D3000D72E760188E0E80EF11CF60161916F0133
:104D400040E0C8010E94DD27CE14DF04B1F70F90C8
:104D5000DF91CF911F910F91FF90EF90DF90CF9057
:104D60000895EF92FF920F931F93CF93DF937C01EF
:104D700008E010E0C0E0D1E0C7010E948A2781115D
:104D8000CD2BDD0F01501109B9F78C2FDF91CF9199
:104D90001F910F91FF90EF9008958091590F90E02F
:104DA00020915A0F821B9109089585ED8093BC00D4
:104DB0008091BC0084FDFCCF1092560F0895409165
:104DC000E212262F30E0240F311D21323105DCF4B0
:104DD0002091560F2430C9F4FC0180E090E0861742
:104DE00058F43091E2122191DC01A054BD4EA30F82
:104DF000B11D2C930196F3CF8091E212680F60935E
:104E0000E21280E0089581E0089582E00895089517
:104E1000E0915A0F8091590FE81730F4F0E0E95F04
:104E2000FC4E808190E008958FEF9FEF0895909160
:104E30005A0F8091590F981750F4E92FF0E0E95F6D
:104E4000FC4E208130E09F5F90935A0F02C02FEFFD
:104E50003FEFC9010895CF92DF92EF92FF920F9337
:104E60001F93CF93DF937C01262F972F8A01809188
:104E70009313882391F0C62FD72F6E01C40ED51E31
:104E8000CC15DD0571F06991D701ED91FC91019090
:104E9000F081E02DC7010995F3CF642F822F0E9486
:104EA000DF26C801DF91CF911F910F91FF90EF9006
:104EB000DF90CF900895CF93DF931F92CDB7DEB7E9
:104EC0006983209193132223D1F02091570F203230
:104ED00040F021E030E0FC013383228380E090E069
:104EE00015C08091580FE82FF0E0EC56FC4E9981E8
:104EF00090838F5F8093580F8093570F05C061E0B8
:104F0000CE0101960E94DF2681E090E00F90DF91B4
:104F1000CF910895FC0190810180F281E02DF894F9
:104F20008181892B81832281892F80952823228367
:104F3000A7E0B0E01197F1F7218182238183A3E2FA
:104F4000B0E01197F1F780817894EFECF0E03197C1
:104F5000F1F7982381E009F480E00895FC01908145
:104F60000180F281E02D892F809560FF12C0F894B6
:104F70002281822382838181892B8183A3E2B0E015
:104F80001197F1F78281982B9283789487ED90E0C6
:104F900011C0F8942281822382838181892B8183AD
:104FA000AFEFB0E01197F1F78281982B928378945C
:104FB0008FE090E00197F1F70895CF92DF92EF92A2
:104FC000FF920F931F93CF93DF931F92CDB7DEB75E
:104FD0006C01E62E08E010E0FF24F39461E08F2DD1
:104FE0008E2109F460E0C60149830E94AE27FF0CC0
:104FF0000150110949810115110581F7411115C0B1
:10500000F894D6011196ED91FC91129791818C91B3
:105010008095892381831196ED91FC91129792815D
:105020008C9180958923828378940F90DF91CF9122
:105030001F910F91FF90EF90DF90CF900895FC01AA
:1050400090810180F281E02DF8948181292F2095B3
:105050008223818378948DE743E050E0815021F1F1
:10506000DA011197F1F730813923C1F3F894828185
:10507000822382838181892B81837894ABECB7E092
:105080001197F1F7F894818128232183ABE3B1E0F4
:105090001197F1F78081982381E009F080E07894FE
:1050A000EBE8F6E03197F1F708956093FA08709312
:1050B000FB088093FC089093FD08DC01CB01845D24
:1050C0009E4FAF4FBF4F8093F6089093F708A09381
:1050D000F808B093F90882E090E09093010980937A
:1050E00000090E94B82260933513709336138093A1
:1050F0003713909338130895CF92DF92EF92FF9277
:105100000F931F930E94B822C0903513D09036138E
:10511000E0903713F09038138B019C010C191D0996
:105120002E093F098091FA089091FB08A091FC0894
:10513000B091FD08083E134021053105D0F00196DD
:10514000A11DB11D8093FA089093FB08A093FC0861
:10515000B093FD08B701A60148515C4F6F4F7F4FD8
:10516000409335135093361360933713709338136D
:10517000C9CF4091F6085091F7086091F8087091F6
:10518000F90884179507A607B70788F1E091FE088C
:10519000F091FF08309759F1099561157105810566
:1051A000910519F00E94552822C08091FA0890912B
:1051B000FB08A091FC08B091FD08845D9E4FAF4FA5
:1051C000BF4F8093F6089093F708A093F808B09328
:1051D000F90881E090E02091000930910109232B2A
:1051E00011F480E090E090930109809300096091B0
:1051F000FA087091FB088091FC089091FD081F91BE
:105200000F91FF90EF90DF90CF9008956F927F9273
:105210008F929F92AF92BF92CF92DF92EF92FF92C6
:105220000F931F93CF93DF93EC01EE81AE2FB0E08D
:1052300020E833E341EE51E00E949C6A4B015C019F
:1052400022EB37E0FD0104E610E080E9E82EFF24C0
:10525000F394C901825B97408E179F07DCF4C90164
:1052600083709927892B99F4C901B8010E9436628D
:10527000892B31F4C901B7010E943662892B39F4B8
:1052800080E8880E81E5981E81E0A81EB11C2F5F82
:105290003F4FDFCF6D80712CEE54F84FCF0164E6A5
:1052A00070E00E9436627C01CF0160E971E00E94EB
:1052B00036626C0101E010E0E370FF270615170568
:1052C0002CF50230110581F4309771F4E114F104EA
:1052D00019F4C114D10441F480E8880E8BE3981EC0
:1052E00086E2A81EB11C0FC0D801A35EBD4FAC91D1
:1052F000B0E020E831E541E050E00E949C6A860E73
:10530000971EA81EB91E0F5F1F4FD8CF49812A8153
:1053100030E0A0E1BEE00E94D16A6B017C01242F45
:1053200030E0ACE3B0E00E94D16ADC01CB018C0D2F
:105330009D1DAE1DBF1D28816C017D01C20ED11CBB
:10534000E11CF11CAC81B0E0119720E831E541E0AF
:1053500050E00E94A76ADC01CB018C0D9D1DAE1DA3
:10536000BF1DBC01CD01680D791D8A1D9B1DDF91FC
:10537000CF911F910F91FF90EF90DF90CF90BF9052
:10538000AF909F908F907F906F9008951F93CF93D1
:10539000DF93CDB7DEB727970FB6F894DEBF0FBE09
:1053A000CDBF11E01093931388E68093B41310924D
:1053B000580F1092570F60E08BE59FE00E945B272B
:1053C00081E00E94694D882319F01092BF12BCC081
:1053D0001093BF128091560F8111FCCF81E0809312
:1053E000560F8093550F9FEF909392131092911345
:1053F00096E09093901380936F1380916F13806D5C
:1054000080936F138091540F813061F41092540F88
:1054100080916F138093BB008091BC0083FDF8CF17
:1054200085EC01C085EE8093BC008091560F8130E1
:10543000E1F380919113873018F48091911301C0AA
:1054400087E0A0E7B3E127E033E1F9019E2F921B4B
:10545000981718F49D919193F9CF10925A0F809359
:10546000590F873008F470C08BE59FE00E94172722
:10547000182F8695869586958E70982F990F990F7F
:10548000890F912F9F70890F89838BE59FE00E9480
:105490001727282F22952F70982F9F708AE0289F1A
:1054A000900D11249A838BE59FE00E941727982F77
:1054B000282F2695269526952670822F880F880FEF
:1054C000280F9F70920F9B838BE59FE00E94172708
:1054D000282F22952F70982F9F708AE0289F900D7B
:1054E00011249C838BE59FE00E941727282F22958B
:1054F0002F70982F9F708AE0289F900D11249D8314
:105500008BE59FE00E941727282F22952F70982F58
:105510009F708AE0289F900D11249E838BE59FE069
:105520000E941727982F9F70925E282F22952F7028
:105530008AE0289F900D11249F8317FD05C0CE019E
:1055400001960E94062903C060E070E0CB01279617
:105550000FB6F894DEBF0FBECDBFDF91CF911F9184
:1055600008956F927F928F929F92AF92BF92CF9247
:10557000DF92EF92FF920F931F93CF93DF93EA0195
:105580002CE3C22ED12CE12CF12CA70196010E9414
:10559000AF6A6883CA01B901A70196010E94AF6A88
:1055A0006983CA01B90128E130E040E050E00E947F
:1055B000AF6A69017A016A83CA01B9016C5F7F4FE2
:1055C0008F4F9F4F27E030E040E050E00E94AF6AED
:1055D0006F5F6B83812C912C540140E034E6632E85
:1055E000712C00E911E0242F30E02E54384FF901DE
:1055F000E370FF27309789F4C901B3010E94366236
:10560000892B31F4C901B8010E943662892B29F433
:105610008EE691E0A0E0B0E004C08DE691E0A0E06D
:10562000B0E0880E991EAA1EBB1ED501C401AA2790
:10563000BB27C816D906EA06FB0610F04F5FD3CF8A
:105640004E83309799F4C90164E670E00E94366297
:10565000892B39F4C90160E971E00E943662892B17
:1056600029F48EE691E0A0E0B0E004C08DE691E080
:10567000A0E0B0E0881A990AAA0ABB0AC818D9089B
:10568000EA08FB08C90164E670E00E9436628C01FA
:10569000C90160E971E00E943662AEE1B2E020E04B
:1056A000213041F4309751F40115110529F4009788
:1056B00029F402C04C9103C04DE101C04CE150E01F
:1056C00060E070E0C416D506E606F70640F0C41A9E
:1056D000D50AE60AF70A2F5F11962C3009F72F5FDB
:1056E0002D83C394CC82DF91CF911F910F91FF90B6
:1056F000EF90DF90CF90BF90AF909F908F907F9072
:105700006F900895CF92DF92EF92FF92C090311385
:10571000D0903213E0903313F09034136C157D0564
:105720008E059F0571F06B017C0140EB5EE00E94ED
:10573000B12AC0923113D0923213E0923313F09217
:105740003413FF90EF90DF90CF9008950E94822B4A
:105750008091B60E90E08E54984F08950E947C2858
:105760000E94822B8091B10E90E008950E94822BBE
:105770002091B20E222331F0822F90E02D3020F0C4
:105780000C9708958CE090E0089523E0829FC0017B
:105790001124A7E2B3E120E030E0F901E80FF91F9E
:1057A000EC50FF4EE491ED932F5F3F4F23303105D6
:1057B000A1F710922A1387E293E108951F920F92A6
:1057C0000FB60F9211240BB60F922F933F934F9366
:1057D0005F936F937F938F939F93AF93BF93EF9359
:1057E000FF938091B900887F803609F49CC068F5EA
:1057F000883209F45BC090F4803109F454C038F465
:10580000882309F4F6C0883009F44DC0F6C0883109
:1058100009F44CC0803209F45DC0EFC0803409F453
:1058200068C048F4803309F455C0883309F0E5C0F6
:1058300080939213D8C0803509F44FC0883509F49D
:105840005DC0883409F0D9C0D6C0883909F4C7C012
:10585000A8F4883709F467C038F4883609F463C0BF
:10586000803709F460C0C9C0883809F4B8C08039ED
:1058700009F45FC0803809F0C0C05BC0803B09F408
:1058800086C038F4803A09F466C0883A09F47FC0CB
:10589000B4C0803C09F4A7C0883C09F4A4C0883B8C
:1058A00009F48AC0AAC080916F1310C0909191131F
:1058B00080919013981770F5E091911381E08E0F0D
:1058C00080939113F0E0E059FC4E80818093BB00FF
:1058D00085EC86C0809392138EC0E091911381E095
:1058E0008E0F809391138091BB00F0E0E059FC4E45
:1058F000808390919113809190136EC0E0919113E9
:1059000081E08E0F809391138091BB00F0E0E0590D
:10591000FC4E80838091550F81116DC081E0809392
:10592000540F84EA61C083E08093560F10920613EF
:10593000CFCF80910613803208F051C0E09106135A
:1059400081E08E0F809306138091BB00F0E0EA5156
:10595000FD4E8083BDCF85EC8093BC001092560F26
:1059600080910613803230F4E0910613F0E0EA51A2
:10597000FD4E10826091061370E0E091E412F09108
:10598000E51286EE92E109951092061336C084E086
:105990008093560F1092E3121092E212E091E012FF
:1059A000F091E11209958091E212811105C081E028
:1059B0008093E2121092C012E091E31281E08E0F08
:1059C0008093E312F0E0E054FD4E80818093BB00B1
:1059D0009091E3128091E212981708F479CF85E84C
:1059E0008093BC000AC085EC8093BC001092560FD7
:1059F00004C0109292130E94D526FF91EF91BF919F
:105A0000AF919F918F917F916F915F914F913F9156
:105A10002F910F900BBE0F900FBE0F901F901895F7
:105A20000E94B64183EF92E00C940B192F923F92A3
:105A30004F925F926F927F928F929F92AF92BF929E
:105A4000CF92DF92EF92FF920F931F93CF93DF934A
:105A5000CDB7DEB7A7970FB6F894DEBF0FBECDBFA8
:105A6000F82E062FE42E442309F4F1C010914F13B1
:105A70008091A3119091A4110E941F2840E06CEC2A
:105A80008091A3119091A4110E94DD2740919E1155
:105A900064E48091A3119091A4110E94DD2780916C
:105AA000A0118823E9F080919F118A3049F08B3052
:105AB00061F0893079F46EE570E080E090E00EC02E
:105AC0006CEB70E080E090E009C067E771E080E097
:105AD00090E004C06EEE72E080E090E00E947E22D2
