:100000000C94DF080C94A51B0C947A1B0C944F1BCA
:100010000C9409090C9409090C9409090C94090918
:100020000C9409090C94E71B0C9409090C94090918
:100030000C9409090C94C0460C942D4A0C9409099F
:100040000C9409090C9409090C94051B0C940909DA
:100050000C94F4190C94CA190C9409090C9409090C
:100060000C9409090C9409090C94C63F0C940909D5
:100070000C9409090C9409090C9409090C940909B8
:100080000C9409090C9409090C940909660B750B69
:10009000A60BC30BE10BF20B030C210C320CC10CB1
:1000A000D20C410C450C5A0C700C870C9E0CB50CF4
:1000B000BE0C7E0E840EA00EA80EB50EB90EBD0E9F
:1000C000C10EC50EC90ED90EDF0EE30EE70EF60EF9
:1000D000FA0EFE0E020F130F841687167A167E167E
:1000E0009E169E168B168F16951699166C228622D2
:1000F000CE22F3221223372356237B239A230A2569
:10010000F02315243A245F248A24AF24DC240A2512
:100110001D2EF12E063018302E303330E030232FD4
:10012000262F292F2C2F2F2F322F352F7F3392332D
:10013000A533B833CB33DE33F1330D3491359535F8
:1001400099359F35A335A735AD35B1355737743758
:10015000BD37E737153844386B38B638C438CD3931
:10016000EA39D138E9380639373945396D399C399A
:10017000B93957726974696E67206E657720467762
:100180002076657273696F6E00556E61626C6520D2
:10019000746F2066696E6420616464726573732095
:1001A000666F72204465766963652030004F46466D
:1001B000004F4E004453313842323020706172613A
:1001C0007369746520706F7765722069733A2000D7
:1001D00020646576696365732E00466F756E6420D2
:1001E000004E6F2076616C69642046415420706136
:1001F00072746974696F6E210043616E2774206F99
:1002000070656E20726F6F742064697221004361A3
:10021000726420696E69742E206661696C65642160
:1002200000525443206861732073657420746865BC
:100230002073797374656D2074696D6500556E6106
:10024000626C6520746F2073796E632077697468BF
:1002500020746865205254430045786974206D65A8
:100260006E7500432F005600426174746572793ACE
:1002700000526563656976696E6720446174612E1A
:100280002E2E0052652D656E61626C652052616490
:10029000696F005363726F6C6C2054656D7000530E
:1002A00063726F6C6C204461746500577269746985
:1002B0006E6720496E697469616C20736574746936
:1002C0006E677320746F20454550524F4D21212198
:1002D0000048696768207261746520667261676DA5
:1002E000656E7465642066696C65210053616D708C
:1002F0006C65207261746520746F6F20686967682F
:1003000021004D6F7265207468616E203136206265
:10031000697473207065722073616D706C65210063
:10032000205761726E696E672073746572656F2005
:1003300066696C6521004E6F74206D6F6E6F2F7350
:10034000746572656F2100436F6D707265737369B8
:100350006F6E206E6F7420737570706F7274656449
:10036000000E1F13131313131313131F0E060E1E69
:10037000060606060606061F1F1E1F030303060CBD
:100380001818181F1F1E1F0303030E0E0303031F5D
:100390001E181818181B1F1F03030303031F1F1821
:1003A00018181E1F0303031F1E0E1F1818181E1FE8
:1003B0001313131F0E1F1F030303060C181818181E
:1003C000180E1F1313130E0E1313131F0E0E1F13ED
:1003D00013131F0F0303031F0E0000000000000093
:1003E00000000000001F1F1B1B1B1B1B1B1B1B1FD8
:1003F0001F0C0C0C0C0C0C0C0C0C0C0C0C1F1F030D
:1004000003031F1F1818181F1F1F1F0303031F1F9D
:100410000303031F1F1B1B1B1B1B1F1F03030303C4
:10042000031F1F1818181F1F0303031F1F1F1F1868
:1004300018181F1F1B1B1B1F1F1F1F030303030372
:1004400003030303031F1F1B1B1B1F1F1B1B1B1F60
:100450001F1F1F1B1B1B1F1F0303031F1F00000069
:100460000000000000000000000E1F1B1B1B1B1BD8
:100470001B1B1B1F0E02060E060606060606061F9F
:100480001F0E1F030303060C1818181F1F0E1F034F
:1004900003030E0E0303031F0E030306060C0C1BBF
:1004A0001F030303031F1F1818181E0F0303031F46
:1004B0000E0E1F1818181E1F1B1B1B1F0E1F1F03BD
:1004C0000303060C18181818180E1F1B1B1B0E0E02
:1004D0001B1B1B1F0E0E1F1B1B1B1F0F0303031FCA
:1004E0000E0000000000000000000000001F1111BD
:1004F00011111111111111111F0404040404040439
:1005000004040404041F010101011F101010101045
:100510001F1F010101011F01010101011F11111123
:1005200011111F0101010101011F101010101F0105
:10053000010101011F1F101010101F1111111111C5
:100540001F1F01010101010101010101011F111121
:1005500011111F11111111111F1F111111111F0163
:10056000010101011F000000000000000000000068
:10057000000E111111111111111111110E040C04A1
:1005800004040404040404041F0E11010101020404
:10059000081010101F0E110101010E0101010111BF
:1005A0000E11111111111F0101010101011F101084
:1005B00010101E01010101110E0E111010101E115C
:1005C000111111110E1F0101010102040810101078
:1005D000100E111111110E11111111110E0E111118
:1005E00011110F01010101110E00000000000000B7
:1005F0000000000000000020002300260029000267
:1006000002020202020202040404040404040403B9
:1006100003030303030303010101010101010101BC
:1006200002040810204080010204081020408001CC
:1006300002040810204080010204081020408000BD
:100640005EBCE2613FDD83C29C7E20A3FD1F419D15
:10065000C3217FFCA2401E5F01E3BD3E6082DC231C
:100660007D9FC1421CFEA0E1BF5D0380DE3C62BEF7
:10067000E0025CDF81633D7C22C09E1D43A1FF46FA
:1006800018FAA427799BC584DA3866E5BB5907DBDD
:10069000856739BAE406581947A5FB7826C49A65D8
:1006A0003BD987045AB8E6A7F91B45C6987A24F8BF
:1006B000A6441A99C7257B3A6486D85B05E7B98CAE
:1006C000D2306EEDB3510F4E10F2AC2F7193CD11AD
:1006D0004FADF3702ECC92D38D6F31B2EC0E50AF84
:1006E000F1134DCE90722C6D33D18F0C52B0EE328F
:1006F0006C8ED0530DEFB1F0AE4C1291CF2D73CA6A
:10070000947628ABF517490856B4EA6937D58B5764
:1007100009EBB536688AD495CB2977F4AA4816E94F
:10072000B7550B88D6346A2B7597C94A14F6A87446
:100730002AC896154BA9F7B6E80A54D7896B350035
:10074000002100240027002A0000002200250028A4
:10075000002B00000000010200090A000000000454
:100760000308070000000000000000000000000077
:100770000000004E6F7420612076616C6964205720
:10078000415600436F756C646E2774206F70656E00
:100790002066696C65200000000000000000000079
:1007A00008080808000800003612240000000000B5
:1007B00000143E143E140000081E281C0A3C0000D1
:1007C000003234081626000000182418261E0000E7
:1007D0001818100000000000081010101008000089
:1007E000100808080810000000082A082A0800005D
:1007F0000008083E0808000000000000180810006B
:100800000000003E00000000000000000C0C000092
:1008100000020408102000001C262626261C0000CA
:100820000C1C0C0C0C1E00001C260C18303E00008A
:100830003E061C06261C000026263E060606000074
:100840003E303C06261C00001C203C26261C0000D6
:100850003E060C18181800001C261C26261C00003A
:100860001C261E06261C0000000C0C000C0C0000B0
:10087000000C0C000C040800000408100804000020
:1008800000003E003E0000000010080408100000B8
:100890001C220408000800001C262A2E201E00002E
:1008A0001C22223E222200003C223C22223C00004C
:1008B0001C222020221C00003C222222223C00007C
:1008C0003E203C20203E00003E203C202020000016
:1008D0001C202026221E000022223E22222200006E
:1008E0001C080808081C00003E020202221C00002E
:1008F000222438382422000020202020203E00001E
:1009000022362A222222000022322A262222000017
:100910001C222222221C00003C223C20202000001D
:10092000182424242C1A00003C223C2222220000FD
:100930001E201C02221C00003E08080808080000B7
:1009400022222222221C000022222214140800004B
:100950002222222A2A14000022140808142200004D
:1009600022221408080800003E040810203E00005F
:100970001C101010101C00002010080402000000C1
:100980001C040404041C00000814220000000000E1
:1009900000000000003E000008040000000000000D
:1009A000001C021E223E000020203C22223C0000AF
:1009B000001C2020201C000002021E22221E00001B
:1009C000001C223E201C00000E10103C10100000E5
:1009D000001E223E02021C0020203C222222000097
:1009E00008001808081C000008001E0202221C0053
:1009F000202024382422000018080808081C0000C1
:100A000000342A2A2A2A0000002C32222222000046
:100A1000001C2222221C0000003C223C202020003E
:100A2000001C241C04040600002E3020202000009E
:100A3000001E201C023C0000083E080808060000BA
:100A400000222222221E000000222222140800007E
:100A50000022222A2A140000002214081422000076
:100A60000022221E02041800003E0408103E00006E
:100A7000040808100808040008080808080800000E
:100A8000100808040808100000102A0400000000E4
:100A9000102810000000000000000000000000000E
:100AA00008080808000800003612240000000000B2
:100AB00000143E143E140000081E281C0A3C0000CE
:100AC000003234081626000000182418261E0000E4
:100AD0001818100000000000081010101008000086
:100AE000100808080810000000082A082A0800005A
:100AF0000008083E08080000000000001808100068
:100B00000000003E00000000000000000C0C00008F
:100B100000020408102000000C121212120C000037
:100B2000040C0404040E00000C120204081E000051
:100B30001E020C02120C000012121E020202000021
:100B40001E101C02120C00000C101C12120C0000D3
:100B50001E020408080800000C120C12120C0000FF
:100B60000C120E02120C0000000C0C000C0C000009
:100B7000000C0C000C04080000040810080400001D
:100B800000003E003E0000000010080408100000B5
:100B90001C220408000800001C262A2E201E00002B
:100BA0001C22223E222200003C223C22223C000049
:100BB0001C222020221C00003C222222223C000079
:100BC0003E203C20203E00003E203C202020000013
:100BD0001C202026221E000022223E22222200006B
:100BE0001C080808081C00003E020202221C00002B
:100BF000222438382422000020202020203E00001B
:100C000022362A222222000022322A262222000014
:100C10001C222222221C00003C223C20202000001A
:100C2000182424242C1A00003C223C2222220000FA
:100C30001E201C02221C00003E08080808080000B4
:100C400022222222221C0000222222141408000048
:100C50002222222A2A14000022140808142200004A
:100C600022221408080800003E040810203E00005C
:100C70001C101010101C00002010080402000000BE
:100C80001C040404041C00000814220000000000DE
:100C900000000000003E000008040000000000000A
:100CA000001C021E223E000020203C22223C0000AC
:100CB000001C2020201C000002021E22221E000018
:100CC000001C223E201C00000E10103C10100000E2
:100CD000001E223E02021C0020203C222222000094
:100CE00008001808081C000008001E0202221C0050
:100CF000202024382422000018080808081C0000BE
:100D000000342A2A2A2A0000002C32222222000043
:100D1000001C2222221C0000003C223C202020003B
:100D2000001C241C04040600002E3020202000009B
:100D3000001E201C023C0000083E080808060000B7
:100D400000222222221E000000222222140800007B
:100D50000022222A2A140000002214081422000073
:100D60000022221E02041800003E0408103E00006B
:100D7000040808100808040008080808080800000B
:100D8000100808040808100000102A0400000000E1
:100D9000102810000000000000000000000000000B
:100DA0000404040400040000050500000000000025
:100DB000000C0F0C0F0C000004060C06060C0400BF
:100DC000003234081626000000182418261E0000E1
:100DD0001818100000000000081010101008000083
:100DE000100808080810000000082A082A08000057
:100DF0000008083E08080000000000001808100065
:100E00000000003E000000000000000002000000A2
:100E10000002040810200000020505050200000081
:100E2000020602020700000006010204070000009B
:100E3000070106010600000005050701010000008A
:100E40000704070106000000030407050200000074
:100E50000701020404000000070507050700000061
:100E60000705070106000000000200020000000064
:100E70000006060006020400000102040201000050
:100E80000000070007000000000402010204000047
:100E9000060102040004000006090B0B080600000E
:100EA0000205050705050000060506050506000004
:100EB00002050404050200000605050505060000FC
:100EC00007040604040700000704060404040000E5
:100ED00003040405050300000505070505050000DA
:100EE00007020202020700000701010105020000DB
:100EF00005050606050500000404040404070000B7
:100F0000050707050505000005070505050500009F
:100F1000020505050502000006050604040400009C
:100F20000205050507030000060506050505000086
:100F3000030402010502000007020202020200008F
:100F40000505050505070000050505050502000066
:100F50000505050507070000050502020505000057
:100F60000505050202020000070102040407000053
:100F70000604040404060000040402010100000049
:100F80000302020202030000020505000000000047
:100F90000000000000070000020100000000000047
:100FA0000006010705070000040407050507000007
:100FB0000003040404030000010107050507000005
:100FC00000020407040300000302020702020000FB
:100FD00000030507010106000404070505050000DC
:100FE00002000602020700000100070101050200DD
:100FF00000040506050500000602020202070000C3
:1010000000060707050500000006050505050000A8
:1010100000020505050200000006050604040400A0
:10102000000305070101010000030404040400009B
:101030000003040201060000020702020201000090
:101040000005050505030000000505050502000073
:10105000000505050707000000050502050500005D
:101060000005050701010600000701020407000052
:101070000102020402020100020202020202000056
:10108000040202010202040000040B0100000043FC
:101090006F756C646E2774206F70656E2066696C66
:1010A0006520004E6F7420612076616C6964205762
:1010B000415600446973706C6179204F7074696F98
:1010C0006E73204D656E7500446973706C61792094
:1010D00053797374656D204D656E75004469737046
:1010E0006C617920446174652F54696D65204D658C
:1010F0006E7500446973706C617920416C726D206B
:1011000032204D656E7500446973706C61792041C1
:101110006C726D2031204D656E750045786974697B
:101120006E6720514D656E7500526164696F204F86
:10113000666621002C20000D0A534420492F4F20C1
:101140006572726F723A20004572724A616E46652E
:10115000624D61724170724D61794A756E4A756C6B
:101160004175675365704F63744E6F7644656300D5
:101170006572726F7220636F72726563746564006A
:101180004E414E494E495459494E46CDCCCC3D0A6C
:10119000D7233C17B7D13877CC2B329595E6241F4F
:1011A000B14F0A000020410000C84200401C462008
:1011B000BCBE4CCA1B0E5AAEC59D7400575F1124AD
:1011C0001FBECFEFD0E4DEBFCDBF18E0A0E0B1E09E
:1011D000E2E0F5ED00E00BBF02C007900D92AA3FE0
:1011E000B107D9F723E1AAEFB8E001C01D92AA3CEC
:1011F000B207E1F718E0CFEDD8E004C02197FE0177
:101200000E94E961CE3DD107C9F70E94C34C0C94FE
:101210007F6A0C940000CF92DF92EF92FF920F93BF
:101220001F93CF93DF93CDB7DEB727970FB6F89410
:10123000DEBF0FBECDBF80915909823029F41092D4
:101240005C091092590917C6833019F402E310E0C3
:1012500002C00CE211E00E94F91AC0905E09D09021
:101260005F09E0906009F0906109AB01BC014C1985
:101270005D096E097F09C801110FAA0BBB0B481746
:1012800059076A077B0708F4F6C581E080934E0989
:10129000109247090E94F91A60935E0970935F09E2
:1012A000809360099093610980914109833099F09E
:1012B00038F4813061F0823009F0DDC581E008C08A
:1012C000843009F4EEC1853009F4F9C4D4C580E056
:1012D0000E94F234D0C50E94643C0E946A3F809113
:1012E000C60D8093B6090E94963F8093D7120E9444
:1012F000643C0E946A3F8091C40D8093B5090E94AE
:10130000643C0E946A3F8091C90D8093B4090E9499
:10131000643C0E946A3F8091C80D8093D8120E945D
:10132000643C0E948E3F64E670E00E94D561809329
:10133000B30990913909933009F442C028F49130EF
:1013400061F0923019F1A4C0953009F469C008F435
:1013500050C0963009F479C09BC090915D0980918E
:10136000B609992311F0815001C08F5F8093B609AF
:101370008091B6098F3F21F487E18093B60988C038
:10138000883108F485C01092B60982C090915D0939
:101390008091D712992311F0815001C08F5F809303
:1013A000D7128091D7128F3F21F48BE38093D7120D
:1013B00004C08C3310F01092D7121092B50968C097
:1013C00090915D098091D812992311F0815001C04C
:1013D0008F5F8093D8128091D8128F3F21F48FE1D4
:1013E0008093D81255C0803208F452C01092D8129F
:1013F0004FC090915D098091B409992311F08150FB
:1014000001C08F5F8093B4098091B409811102C03B
:101410008CE003C08D30E0F181E08093B40938C0E6
:1014200090915D09992311F0815001C08F5F8093E5
:10143000B3098091B309803110F488E203C0893286
:1014400038F180E18093B30923C081E00E945531D7
:1014500090915D098091710F992311F0815001C025
:101460008F5F8093710F8091710F883010F0109210
:10147000710F6091710F84E290E00E94543B6FE025
:1014800070E080E090E00E94BF1A81E080934D09F7
:101490000E94F91A0091AF091091B0092091B10989
:1014A0003091B209DC01CB01801B910BA20BB30B75
:1014B000893E9340A105B10578F18091B5098F5F10
:1014C0008C3318F48093B50907C01092B509809148
:1014D000D7128F5F8093D7128091D7128C3338F058
:1014E0001092D7128091B6098F5F8093B6098091D0
:1014F000B609883138F01092B6098091D8128F5F02
:101500008093D8120E94F91A6093AF097093B009C2
:101510008093B1099093B2098091B30990E06091F2
:10152000B4095091D8122091B5093091D712409149
:10153000B609843691051CF0825B974001C04E9637
:101540008093CA0D6093C90D5093C80D4093C60D8A
:101550003093C50D2093C40D84EC9DE00E94EE3CB9
:101560000E943D3C0E94643CAE014F5F5F4F0E9471
:10157000993E01E00093951388E6F82EF092B61399
:1015800010926C0E10926B0E60E08FE69EE00E944F
:101590006C4660E88FE69EE00E946C468A811AE005
:1015A000612F0E94B561692F20E1829F600D112497
:1015B0008FE69EE00E946C468B81612F0E94B56190
:1015C000692F20E1829F600D11248FE69EE00E942A
:1015D0006C468C81612F0E94B561692F20E1829F4A
:1015E000600D11248FE69EE00E946C468D81612F74
:1015F0000E94B561692F20E1829F600D11248FE662
:101600009EE00E946C468E81612F0E94B561692F19
:1016100020E1829F600D11248FE69EE00E946C46BF
:101620008F818E51612F0E94B561692F20E1829FC9
:10163000600D11248FE69EE00E946C4681E00E94BE
:10164000F24B882319F01092081323C0009308135B
:1016500000939513F092B61310926C0E10926B0ECD
:1016600060E08FE69EE00E946C468981612F0E94B7
:10167000B561692F20E1829F600D11248FE69EE005
:101680000E946C4681E00E94F24B8111DCCF0093F6
:1016900008138091AE09882309F4EDC30E94EF215D
:1016A000EAC380913A09882319F081E00E945531FC
:1016B000E0913A098E2F90E0FC013197EB30F10573
:1016C00008F0D9C3EA5BFF4F0C94E9618091C31322
:1016D000811104C081E08093C31302C01092C31330
:1016E0006091C31380E090E07AC30E942627909116
:1016F0005D0980913409992311F0815001C08F5FF9
:1017000080933409809134098F3F21F485E08093E0
:10171000340904C0863010F0109234096091340905
:1017200084E090E00E94543B6FE070E080E090E045
:101730000E94BF1A1092DB1280913409811103C0FC
:101740000E94583698C30E94F82695C30E94262707
:1017500090915D0980916709992311F0815001C032
:101760008F5F8093670980916709811102C083E0D0
:1017700003C0843018F081E08093670960916709A5
:1017800085E090E02CC30E94262790915D0980910E
:10179000FE08992311F0815001C08F5F8093FE08ED
:1017A0008091FE088F3F21F484E08093FE0804C0FE
:1017B000853010F01092FE086091FE0888E090E0FD
:1017C0000EC30E94262780910001882319F01092F1
:1017D000000103C081E080930001609100018DE071
:1017E00090E0FDC20E9426278091FD08882319F011
:1017F0001092FD0803C081E08093FD086091FD0810
:101800008EE090E0ECC20E94262790915D098091C5
:101810003309992311F08F5F01C081508093330900
:10182000809133098F3F21F488E08093330904C00D
:10183000893010F010923309609133098FE090E005
:10184000CEC20E94262780913209882319F0109277
:10185000320903C081E0809332096091320982E14C
:1018600090E0BDC20E942627E09140098E2F90E0B3
:101870008830910508F0FFC2FC01EF5AFF4F0C942D
:10188000E96181E080934009F6C28091C113882309
:1018900019F01092C11309C081E08093C1136FE069
:1018A00070E080E090E00E94BF1A6091C11386E171
:1018B00090E095C290915D0980913109992311F0D2
:1018C000815001C08F5F809331098091310983304D
:1018D00010F010923109609131098BE190E07FC2E4
:1018E00090915D0980912F09992311F0815001C0D9
:1018F0008F5F80932F0980912F09843618F081E043
:1019000080932F0960912F098EE190E068C2909139
:101910005D0980913009992311F0815001C08F5FDA
:101920008093300980913009843618F081E08093EB
:1019300030096091300980E290E051C290915D09D8
:101940008091FA08992311F0815001C08F5F809334
:10195000FA088091FA08843618F081E08093FA083A
:101960006091FA0881E290E03AC260912E0981E02C
:10197000682760932E0982E290E031C210924009FC
:101980007AC20E94262780916209882319F010925A
:10199000620903C081E0809362096091620987E176
:1019A00090E01DC20E9426278BEA92E00E94AB467F
:1019B00060E081E090E00E94543B62E370E080E0F0
:1019C00090E00E94BF1A60E082E090E00E94543BE9
:1019D00062E370E080E090E00E94BF1A60E083E084
:1019E00090E00E94543B62E370E080E090E00E944F
:1019F000BF1A61E087E090E00E94543B62E370E030
:101A000080E090E00E94BF1A60E089E090E00E94D0
:101A1000543B62E370E080E090E00E94BF1A60E017
:101A20008AE090E00E94543B62E370E080E090E046
:101A30000E94BF1A60E08BE090E00E94543B62E39A
:101A400070E080E090E00E94BF1A61E08CE090E0DE
:101A50000E94543B62E370E080E090E00E94BF1A75
:101A600060E080E090E00E94543B62E370E080E040
:101A700090E00E94BF1A63E084E090E00E94543B33
:101A800062E370E080E090E00E94BF1A61E085E0D0
:101A900090E00E94543B62E370E080E090E00E949E
:101AA000BF1A65E389E190E00E94543B61E08AE15E
:101AB00090E00E94543B62E370E080E090E00E947E
:101AC000BF1A61E088E090E00E94543B62E370E05E
:101AD00080E090E00E94BF1A61E08DE090E00E94FB
:101AE000543B62E370E080E090E00E94BF1A61E046
:101AF0008EE090E00E94543B62E370E080E090E072
:101B00000E94BF1A60E08FE090E00E94543B62E3C5
:101B100070E080E090E00E94BF1A62E080E190E017
:101B20000E94543B62E370E080E090E00E94BF1AA4
:101B30006FEF81E190E00E94543B62E370E080E04F
:101B400090E00E94BF1A61E082E190E00E94543B65
:101B500062E370E080E090E00E94BF1A62E084E1FE
:101B600090E00E94543B62E370E080E090E00E94CD
:101B7000BF1A62E085E190E00E94543B62E370E0AE
:101B800080E090E00E94BF1A60E086E190E00E9451
:101B9000543B62E370E080E090E00E94BF1A61E095
:101BA00087E190E00E94543B62E370E080E090E0C7
:101BB0000E94BF1A60E08BE190E00E94543B62E318
:101BC00070E080E090E00E94BF1A61E08EE190E05A
:101BD0000E94543B62E370E080E090E00E94BF1AF4
:101BE00069E08FE190E00E94543B62E370E080E0A6
:101BF00090E00E94BF1A61E080E290E00E94543BB6
:101C000062E370E080E090E00E94BF1A65E081E24C
:101C100090E00E94543B62E370E080E090E00E941C
:101C2000BF1A61E082E290E00E94543B69E170E0FB
:101C300080E090E00E94BF1A60E084E290E00E94A1
:101C4000543B69E170E080E090E00E94BF1A64E6D6
:101C500070E082E690E10E94D01B64E970E08AE3C4
:101C600090E10E94D01B64EC70E082E190E10E9460
:101C7000D01B64EF70E08AEE9FE00E94D01B64E20C
:101C800071E082EC9FE00E94D01B64E571E08AE97C
:101C90009FE00E94D01B64E871E082E79FE00E9411
:101CA000D01B64EB71E08AE890E10E94D01B64E6EF
:101CB00070E080E090E00E94BF1A0E944D36809153
:101CC0003D09882319F081E00E94553180913D093A
:101CD000823009F461C0833009F4A8C0813009F072
:101CE000CAC0E0913E098E2F90E08A30910508F03D
:101CF000C2C0FC01E75AFF4F0C94E9610E942627FD
:101D000081E080933E09B7C090915D0980915109AF
:101D1000992311F0815001C08F5F80935109809108
:101D20005109811104C089E08093510904C08A30AF
:101D300010F0109251096091510980E190E091C03A
:101D40008FE992E00E94AB4660915009605808C04C
:101D500083E992E00E94AB466091500980E46827D5
:101D60006093500985E190E03AC06091500980E2AB
:101D7000F6CF6091500980E1F2CF6091500988E080
:101D8000EECF6091500981E0EACF6091500984E084
:101D9000E6CF10923E096FC0E0913F098E2F90E090
:101DA0008930910508F067C0FC01ED59FF4F0C9494
:101DB000E9610E94262781E080933F095CC0609121
:101DC000FC0880E407C06091FC0880E203C06091D9
:101DD000FC0880E168276093FC0881E190E00E94A4
:101DE000543B65E070E080E090E01AC06091FC0830
:101DF00084E00BC06091FC0881E007C06091FC08A2
:101E000082E003C06091FC0888E068276093FC08CA
:101E100081E190E00E94543B6AE070E080E090E055
:101E20000E94BF1A28C010923F0925C090915D09F9
:101E30008091FB08992311F0815001C08F5F80933E
:101E4000FB088091FB088F3F21F489E08093FB0819
:101E500004C08A3010F01092FB086091FB0884E106
:101E600090E00E94543B65E070E080E090E00E94CA
:101E7000BF1A0E94262727960FB6F894DEBF0FBE22
:101E8000CDBFDF91CF911F910F91FF90EF90DF9029
:101E9000CF9008958F929F92AF92BF92CF92DF9290
:101EA000EF92FF920F931F93CF93DF93CDB7DEB7DF
:101EB00064970FB6F894DEBF0FBECDBF5F87798BF6
:101EC000F42E411109C06F5F6D3040F02FEFC21A40
:101ED000D20A21E061E003C0242F01C021E08989FA
:101EE0008B831A82198281E08D836E838EE48C0D40
:101EF0008F83CE0101962C8B0E94EE3C4B015C013E
:101F00000F8510E00E946A3F2C8930E02150310992
:101F100087E0829FF001839FF00D11248091C70D0F
:101F20009801281B3109C901079667E070E00E94FB
:101F3000D561DF01A80FB91F20E831E541E050E08D
:101F40000E94466A680D791D8A1D9B1DF11004C010
:101F500060587A438940910964960FB6F894DEBFC1
:101F60000FBECDBFDF91CF911F910F91FF90EF90EA
:101F7000DF90CF90BF90AF909F908F9008958F92F9
:101F80009F92AF92BF92CF92DF92EF92FF920F9308
:101F90001F93CF93DF936C01E090490FF0904A0FAD
:101FA00000914B0F10914C0F20914D0F30914E0F1F
:101FB00040914F0F5091500F6091510F7091520FFF
:101FC0008091530F9091540F0E944A0FC9E4DFE0B3
:101FD00068A379A38AA39BA3E5E5FFE0E080F180F5
:101FE0000281138124813581468157816085718505
:101FF000828593850E944A0F6B017C016CA37DA3AF
:102000008EA39FA3AE89BF892CE330E00E94F261CA
:1020100008A119A12AA13BA148015901861A970AD2
:10202000A80AB90A888E998EAA8EBB8EAA85BB850E
:102030002CE330E00E94F261C61AD70AE80AF90AD6
:10204000CC8EDD8EEE8EFF8EDF91CF911F910F91A2
:10205000FF90EF90DF90CF90BF90AF909F908F90C8
:1020600008952F923F924F925F926F927F928F923C
:102070009F92AF92BF92CF92DF92EF92FF920F9317
:102080001F93CF93DF9300D000D01F92CDB7DEB760
:102090008C016983FC0101900020E9F79F01281B56
:1020A000390B3D832C8328EF6C817D812603C00191
:1020B000279F900D11249B838A8380E2E82EF12CC8
:1020C00093E0492E512C612C712C4A01550FAA081E
:1020D000BB086A817B816E157F05CCF5670118010D
:1020E000C101801B910B2C813D8182179307C4F4A1
:1020F0003981343041F40E94E866A30192010E94C4
:102100001C6A6F5F6983F10141911F01298168E0B9
:1021100070E0C6010E949C29F8E0CF0ED11CE0CFF0
:102120008BE10E942A1A0197A1F08CE10E942A1AE1
:10213000019779F08AE10E942A1A019751F0C501AE
:10214000B4010E94BF1A31E0E31AF108C2CF81E066
:1021500003C00E94262780E00F900F900F900F90F1
:102160000F90DF91CF911F910F91FF90EF90DF9033
:10217000CF90BF90AF909F908F907F906F905F9027
:102180004F903F902F9008957F928F929F92AF92A1
:10219000BF92CF92DF92EF92FF920F931F93CF9354
:1021A000DF93722E2BE0429F600D711D11242CE0F5
:1021B000269F6001279FD00C1124C2E0D0E0039637
:1021C0005C0132E0C31AD1084501C6018C0F9D1F86
:1021D000FC01EF59FC4F7F0104E010E0F70164912E
:1021E00070E0002E02C0759567950A94E2F760FFD3
:1021F00002C0472D01C040E0BE01C4010E94622818
:1022000001501109FFEF8F1A9F0A0F3F2FEF12079E
:1022100029F72196CE30D105B9F6DF91CF911F91E4
:102220000F91FF90EF90DF90CF90BF90AF909F9075
:102230008F907F900895009769F0FC010190002035
:10224000E9F73197AF01481B590BBC018BEC9DE0BE
:102250000C94681580E090E008958F929F92AF9261
:10226000BF920F931F93CF93DF93CDB7DEB7A197A4
:102270000FB6F894DEBF0FBECDBF19A2423008F4EE
:102280004AE08E010F5D1F4F842E912CA12CB12CA2
:10229000A50194010E944E6AE62FB901CA010150BE
:1022A0001109EA3014F4E05D01C0E95CD801EC9357
:1022B000232B242B252B61F7C8010E941B11A1960B
:1022C0000FB6F894DEBF0FBECDBFDF91CF911F9147
:1022D0000F91BF90AF909F908F900895CF92DF9213
:1022E000EF92FF92CF93DF936B017C010E948E3FB0
:1022F000EC016091610F7091620F8091630F90917A
:10230000640F0E948E3FC817D90731F0C701B6018C
:102310000E948E3F0E94BF0FC701B6010E948E3FF0
:10232000EC016091610F7091620F8091630F909149
:10233000640F0E948E3FC817D90731F0C701B6015C
:102340000E948E3F0E94BF0F4091650F5091660F13
:102350006091670F7091680F8091610F9091620F8B
:10236000A091630FB091640F84179507A607B70774
:1023700058F4C816D906EA06FB06D8F0C416D506E6
:10238000E606F706B0F40AC0C416D506E606F70658
:1023900028F0C816D906EA06FB0658F089E49FE043
:1023A0009093C30D8093C20DA091530FB091540F21
:1023B0000AC085E59FE09093C30D8093C20DA09164
:1023C0005F0FB091600F2CE330E00E94F2616C0D62
:1023D0007D1D8E1D9F1DDF91CF91FF90EF90DF90AF
:1023E000CF90089581E480937C0080917A0080648E
:1023F00080937A0080917A0086FDFCCF80917800EE
:102400002091790090E0922B0895CF93DF930E9462
:102410001B11EC018DEF92E00E941B118C0F9D1F90
:10242000DF91CF9108950F931F93CF93DF938C018A
:10243000C0E0D0E0F801EC0FFD1F6491662371F05D
:10244000E091CB0DF091CC0D0190F081E02D8BEC63
:102450009DE00995892B11F02196ECCFCE01DF91FB
:10246000CF911F910F910895E091CB0DF091CC0D7C
:102470000190F081E02D682F8BEC9DE00994CF93C3
:10248000DF930E941312EC018DEF92E00E941B116A
:102490008C0F9D1FDF91CF910895E8980E94061D33
:1024A000E89A089581E591E19093C10D8093C00D64
:1024B00040E052E060EC7BE00E9496491816190655
:1024C0000CF056C020EC3BE03093BF0B2093BE0BCA
:1024D0008054944F9093BD0B8093BC0B40E052E02E
:1024E0006CEB79E081E591E10E94964997FD40C04F
:1024F0002CEB39E03093BB092093BA098454964FF2
:102500009093B9098093B80981E08093B7098093CB
:102510005B11209A219A229A289A239A2B9810923A
:10252000800089E080938100A09151112091521187
:10253000309153114091541150915511B0E00E94C7
:102540003B6A9B01AC0160E074E284EF90E00E9482
:102550004E6A309389002093880081E090E0909348
:102560008B0080938A0080916F00826080936F005F
:1025700008958F929F92AF92BF92CF92DF92EF9287
:10258000FF920F931F93CF93DF93CDB7DEB7629780
:102590000FB6F894DEBF0FBECDBF80916311877078
:1025A00041F1C0907011D0907111E0907211F090D3
:1025B0007311C114D104E104F10409F050C019C031
:1025C000460157012FEF821A920AA20AB20A6B0142
:1025D0007C01681579058A059B0509F045C0B7019E
:1025E000A601C8010E943D20611571058105910574
:1025F00039F74CE050E0BE016F5F7F4F83E691E119
:102600000E944F1F0C9749F544E050E06CEC73E0DA
:10261000CE0101960E947963892BF9F444E050E0E1
:1026200061ED73E0CE0109960E947963892BA9F4CC
:1026300048E050E0BE016F5F7F4F83E691E10E946A
:102640004F1F089751F444E050E066ED73E0CE016F
:1026500001960E947963892B01F110E0C5C00091B9
:10266000741110917511BBCFF8012289203129F026
:1026700008EF1FEF2FEF3FE004C008EF1FEF20E04F
:1026800030E0601771078207930708F4B2CF80919A
:102690006311886080936311ACCFCD80DE80EF80C2
:1026A000F8848601C6018D7F409761F4A601BE01C2
:1026B0006F5F7F4F83E691E10E944F1F8C159D0550
:1026C00061F602C01A82198289819A81019739F4D0
:1026D0000231110539F489899A89892B19F087E427
:1026E00093E007C08B8180935111833028F086E3FB
:1026F00093E00E94AB46B1CF823021F480E293E0B8
:102700000E94AB46EF85E0935611E13118F082E06C
:1027100093E0EFCF2D813E814F8158852093521158
:10272000309353114093541150935511A09151116E
:10273000B0E00E943B6A6B017C01AE2FB0E09B01D0
:10274000AC010E943B6ADC01CB0123E0B695A79562
:10275000979587952A95D1F7F3E2CF16F6E5DF0630
:10276000E104F10438F4893828E5920721E0A20752
:10277000B10518F08CEE92E0BCCF85349C4AA105DF
:10278000B10558F080916311182F187083FD05C0B2
:1027900081ED92E00E94AB4627C083E691E19093E1
:1027A00062118093611110925C1110925D11109270
:1027B0005E1110925F1110925B11109257111092DE
:1027C00058111092591110925A111092601140E054
:1027D00050E060E070E081E591E10E9496499095BB
:1027E000192F111F1127111F812F62960FB6F89410
:1027F000DEBF0FBECDBFDF91CF911F910F91FF9034
:10280000EF90DF90CF90BF90AF909F908F90089502
:102810008F929F92AF92BF92EF92FF920F931F936E
:10282000CF93DF93CDB7DEB7AD970FB6F894DEBF89
:102830000FBECDBF8C018091831190918411A09126
:102840008511B091861180937B1190937C11A09398
:102850007D11B0937E1110927F1110928011109211
:102860008111109282114EE2F42E909176119770A0
:10287000923008F4C1C040E250E0BE016F5F7F4F6C
:1028800086E791E10E944F1F803209F0B5C099811F
:10289000992309F4B1C0953E71F39E3261F3BC8473
:1028A000FB2DF870AF2EB3FCE6CFFE01319690E021
:1028B00020E08191803291F0283041F4A1E2B0E033
:1028C000AC0FBD1FA90FB11DFC929F5FA1E2B0E04C
:1028D000AC0FBD1FA90FB11D8C939F5F2F5F2B30D5
:1028E00041F7E1E2F0E0EC0FFD1FE90FF11D10826E
:1028F000B801CE0181960E945463892B09F0B5CFAF
:10290000E0908711F0908811F7018289803108F4F6
:1029100074C04D895E8960E070E0BA015527442794
:102920000B8D1C8D20E030E0402B512B622B732B44
:1029300040937011509371116093721170937311E1
:102940008B2D887181F481E0809363118D8D9E8D34
:10295000AF8DB8A18093641190936511A093661117
:10296000B09367112AC0803109F047C084E080939A
:102970006311812C912C5401C7010E943D20AB01B1
:10298000BC01411551056105710579F0F7018081A0
:1029900090E0982F8827990F092E000CAA0BBB0BEB
:1029A000880E991EAA1EBB1EE7CF809264119092DA
:1029B0006511A0926611B0926711F0927511E092C4
:1029C00074118091701190917111A0917211B09158
:1029D00073118093681190936911A0936A11B09359
:1029E0006B1110926C1110926D1110926E11109269
:1029F0006F11AA24A39401C0A12C8A2DAD960FB605
:102A0000F894DEBF0FBECDBFDF91CF911F910F9124
:102A1000FF90EF90BF90AF909F908F900895EF92AE
:102A2000FF920F931F93CF93DF937C018B01C2EB37
:102A3000D0E18D819E810E94073CB7018D819E81EE
:102A40000E944D1E40E06EEB8D819E810E940B1E08
:102A50008D819E810E94331FF80180838D819E812C
:102A60000E94331FF80181838D819E810E94331F54
:102A7000F80182838D819E810E94331FF801838338
:102A80008D819E810E94331FF80184838D819E81F8
:102A90000E94331FF80185838D819E810E94331F20
:102AA000F80186838D819E810E94331FF801878300
:102AB0008D819E810E94331FF80180878D819E81C8
:102AC000DF91CF911F910F91FF90EF900C94073CF5
:102AD000CF92DF92EF92FF920F931F93CF93DF93EA
:102AE0006C017A018B01C0E0D0E0CE15DF0589F0E2
:102AF000D8016D918D01D601ED91FC910190F0818D
:102B0000E02DC6010995892B11F47E0102C02196A2
:102B1000ECCFC701DF91CF911F910F91FF90EF9004
:102B2000DF90CF900895FC01918D828D981761F010
:102B3000828DDF01A80FB11D5D968C91928D9F5FF4
:102B40009F73928F90E008958FEF9FEF0895FC019F
:102B5000918D828D981731F0828DE80FF11D858D52
:102B600090E008958FEF9FEF0895FC01918D228DE5
:102B7000892F90E0805C9F4F821B91098F7399276A
:102B800008958BEC9DE00E94B51521E0892B09F496
:102B900020E0822F0895FC01848DDF01A80FB11D74
:102BA000A35ABF4F2C91848D90E001968F73992783
:102BB000848FA689B7892C93A089B1898C91806470
:102BC0008C93938D848D981306C00288F389E02D31
:102BD00080818F7D80830895EF92FF920F931F93E2
:102BE000CF93DF93EC0181E0888F9B8D8C8D9813C0
:102BF00005C0E889F989808185FD24C0F62E0B8DFA
:102C000010E00F5F1F4F0F731127E02E8C8DE8121D
:102C10000CC00FB607FCFACFE889F989808185FFDF
:102C2000F5CFCE010E94CB15F1CF8B8DFE01E80FC1
:102C3000F11DE35AFF4FF0820B8FEA89FB898081F7
:102C4000806207C0EE89FF896083E889F989808105
:102C50008064808381E090E0DF91CF911F910F919C
:102C6000FF90EF900895CF93DF93EC01888D882338
:102C7000C9F0EA89FB89808185FD05C0A889B989E9
:102C80008C9186FD0FC00FB607FCF5CF808185FFC4
:102C9000F2CFA889B9898C9185FFEDCFCE010E9432
:102CA000CB15E7CFDF91CF91089580E090E0892B9D
:102CB00021F00E94C11581110DC080E090E0892BA8
:102CC00071F080E090E0892B51F00E9400008111AA
:102CD00004C008950E940000F0CF0C9400000895F5
:102CE00090E0FC013197EA30F10540F5E459FF4FDF
:102CF0000C94E961809180008F7703C080918000FF
:102D00008F7D80938000089584B58F7702C084B54D
:102D10008F7D84BD08958091B0008F7703C080912E
:102D2000B0008F7D8093B0000895809190008F77E0
:102D300003C0809190008F7D8093900008953FB7ED
:102D4000F8948091CC119091CD11A091CE11B091B9
:102D5000CF1126B5A89B05C02F3F19F00196A11DE4
:102D6000B11D3FBFBA2FA92F982F8827820F911D21
:102D7000A11DB11DBC01CD0142E0660F771F881F68
:102D8000991F4A95D1F7089508952F923F924F9237
:102D90005F926F927F928F929F92AF92BF92CF92EB
:102DA000DF92EF92FF920F931F93CF93DF9300D0A8
:102DB00000D000D0CDB7DEB7882309F44EC1E09132
:102DC000C8108091C3119091C411A091C511B09108
:102DD000C6110196A11DB11D8093C3119093C4111A
:102DE000A093C511B093C611F0E0E753FF4E808366
:102DF0009183A283B3838091C8108095982F93709C
:102E00008091C810890F8093C810E091C810F0E03D
:102E1000E753FF4E80818F738083E091C810F0E00C
:102E2000E753FF4E208130E4939FC0011124822B91
:102E300080838091C8108F5F8093C8102090C81045
:102E4000822D86958695823008F459C2282E880FE7
:102E50003308C101880F991F880F991FAC014B538C
:102E60005F4E5E834D83FA0180819181A281B3819F
:102E7000C12CD12C7601F1E02F1A310827E4C21AB7
:102E800026E8D20A28ECE20A21E6F20AB701A601F6
:102E900012E076956795579547951A95D1F7342F97
:102EA00033703A8319822981622F70E02C013D0131
:102EB00054E0440C551C661C771C5A95D1F74C0104
:102EC0005D01E5E0B694A79497948794EA95D1F7CD
:102ED000621573050CF062C06F5F7F4F660F771F3E
:102EE000660F771FFB01E753FF4E0081118122819E
:102EF0003381AB014B535F4E5C834B83B901A80117
:102F0000E3E07695679557954795EA95D1F744267E
:102F1000552666267726B901A801F2E0440F551F11
:102F2000661F771FFA95D1F784269526A626B72621
:102F3000480C591C6A1C7B1C59815370EA815E271E
:102F400044E0549FF0011124E35EF64F408151812B
:102F50006281738184279527A627B727B901A80125
:102F60004C255D256E257F25840F951FA61FB71F55
:102F7000482659266A267B26EB81FC818081918137
:102F8000A281B381840D951DA61DB71D80839183F9
:102F9000A283B383F981FF5FF98385CF4091C91084
:102FA0005091CA106091CB107091CC10322F3370B9
:102FB000EA813E2724E0329FF0011124E35EF64FC0
:102FC000008111812281338180279127A227B32795
:102FD000970186010427152726273727800F911F81
:102FE000A21FB31F8A019B01F3E036952795179521
:102FF0000795FA95D1F704251525262537252A01A9
:103000003B0142E0440C551C661C771C4A95D1F7E5
:10301000482459246A247B24400E511E621E731ECC
:1030200084259525A625B725ED81FE814081518116
:1030300062817381840F951FA61FB71F80839183C0
:10304000A283B383F6E5CF16FAEDDF06FCE4EF06C4
:10305000F5EBFF0609F012CF52C18091BD1390919C
:10306000BE13892B09F04BC11091C8101695169507
:10307000123008F428C18091C9109091CA10A09113
:10308000CB10B091CC1044E0149F90011124F901B1
:10309000EB53FF4E1F0146E55AED6CE475EB115002
:1030A0001B838A019B01E2E03695279517950795CA
:1030B000EA95D1F7F02FF370FA832B8129833981B8
:1030C000032F10E098012150304C220F331F220FA4
:1030D000331FF901E753FF4E80809180A280B380B7
:1030E000F901E353FF4EFE83ED832401350104E033
:1030F000440C551C661C771C0A95D1F76C017D01A8
:1031000023E0F694E794D794C7942A95D1F74C24FA
:103110005D246E247F2495018401E5E03695279592
:1031200017950795EA95D1F76C017D01F2E0CC0C7B
:10313000DD1CEE1CFF1CFA95D1F7C026D126E22635
:10314000F3264C0C5D1C6E1C7F1C39813370FA8198
:103150003F2724E0329FF0011124E35EF64FC08048
:10316000D180E280F3808C249D24AE24BF246C01A6
:103170007D01C426D526E626F726C80CD91CEA1CF4
:10318000FB1C4C245D246E247F24ED81FE81808114
:103190009181A281B38184199509A609B709808319
:1031A0009183A283B383F981F150F983F11187CF21
:1031B000F10180809180A280B3802C013D01E3E089
:1031C0007694679457944794EA95D1F77501640112
:1031D000F4E0CC0CDD1CEE1CFF1CFA95D1F74C245E
:1031E0005D246E247F248C019D01E2E0000F111FFD
:1031F000221F331FEA95D1F775016401F5E0F694BB
:10320000E794D794C794FA95D1F7C026D126E22641
:10321000F326C40CD51CE61CF71C84279527A6278B
:10322000B7272A81F4E02F9F80011124F801E35E83
:10323000F64F4080518062807380482459246A246C
:103240007B24480E591E6A1E7B1E4C245D246E246E
:103250007F248091C9109091CA10A091CB10B09199
:10326000CC1084199509A609B7098093C9109093C9
:10327000CA10A093CB10B093CC10495B5947674359
:103280007E4909F00ECFE091C810E150E093C810DC
:10329000F0E0E753FF4E2081229526952695237076
:1032A000E091C810F0E0E753FF4E80818F7390E00B
:1032B000A0E0B0E08093B8139093B913A093BA1331
:1032C000B093BB1303C01123D1F0DDCF215078F0B0
:1032D000E091C810E150E093C810F0E0E753FF4ED2
:1032E0003081BA2FA92F982F8827832BEFCF809377
:1032F000B8139093B913A093BA13B093BB13269647
:103300000FB6F894DEBF0FBECDBFDF91CF911F91F6
:103310000F91FF90EF90DF90CF90BF90AF909F9074
:103320008F907F906F905F904F903F902F90089577
:103330000895FC0190810180F281E02D892F809514
:1033400060FF12C0F8942281822382838181892BBD
:103350008183A3E2B0E01197F1F78281982B9283E9
:10336000789487ED90E011C0F894228182238283C3
:103370008181892B8183AFEFB0E01197F1F78281D2
:10338000982B928378948FE090E00197F1F708955D
:103390000E944F631F920F920FB60F9211240BB62B
:1033A0000F922F933F934F935F936F937F938F93DE
:1033B0009F93AF93BF93EF93FF938BEC9DE00E949D
:1033C000CB15FF91EF91BF91AF919F918F917F911D
:1033D0006F915F914F913F912F910F900BBE0F9086
:1033E0000FBE0F901F9018951F920F920FB60F925D
:1033F00011240BB60F922F938F939F93EF93FF930C
:10340000E091DB0DF091DC0D8081E091E10DF09118
:10341000E20D82FD12C090818091E40D8F5F8F7369
:103420002091E50D821751F0E091E40DF0E0E553B5
:10343000F24F958F8093E40D01C08081FF91EF9151
:103440009F918F912F910F900BBE0F900FBE0F90F9
:103450001F901895CF93DF93282F30E0F901ED5A94
:10346000F84F8491F901E15EF94FD491F901E150EF
:10347000FA4FC491CC2391F081110E947016EC2F69
:10348000F0E0EE0FFF1FEB50FA4FA591B491EC91D5
:10349000ED2381E090E021F480E002C080E090E044
:1034A000DF91CF9108951F93CF93DF93282F30E0C2
:1034B000F901ED5AF84F8491F901E15EF94FD49189
:1034C000F901E150FA4FC491CC23C9F0162F8111B4
:1034D0000E947016EC2FF0E0EE0FFF1FE75BF84F35
:1034E000A591B4918FB7F894111105C09C91ED2F5F
:1034F000E095E92302C0EC91ED2BEC938FBFDF91B7
:10350000CF911F910895CF93DF9390E0FC01E15E8E
:10351000F94F2491FC01E150FA4F8491882361F125
:1035200090E0880F991FFC01E15CF84FC591D491A0
:10353000FC01E75BF84FA591B491611109C09FB7F9
:10354000F8948881209582238883EC912E230BC0E8
:10355000623061F49FB7F8943881822F809583237D
:103560008883EC912E2B2C939FBF06C08FB7F894C5
:10357000E8812E2B28838FBFDF91CF9108958F9202
:103580009F92AF92BF92CF92DF92EF92FF926B0128
:103590007C010E949F164B015C01C114D104E1041F
:1035A000F104F1F00E949F16DC01CB018819990902
:1035B000AA09BB09883E9340A105B10570F321E03B
:1035C000C21AD108E108F10888EE880E83E0981E3F
:1035D000A11CB11CC114D104E104F10419F7DDCF21
:1035E000FF90EF90DF90CF90BF90AF909F908F9023
:1035F00008952FB7F8946091C8117091C911809106
:10360000CA119091CB112FBF08951F920F920FB640
:103610000F9211242F933F938F939F93AF93BF9358
:103620008091C8119091C911A091CA11B091CB118C
:103630003091C71123E0230F2D3720F40196A11DEF
:10364000B11D05C026E8230F0296A11DB11D2093D0
:10365000C7118093C8119093C911A093CA11B09358
:10366000CB118091CC119091CD11A091CE11B09140
:10367000CF110196A11DB11D8093CC119093CD1156
:10368000A093CE11B093CF11BF91AF919F918F9125
:103690003F912F910F900FBE0F901F9018951F9282
:1036A0000F920FB60F9211240BB60F922F933F93E8
:1036B0004F935F936F937F938F939F93AF93BF933A
:1036C000EF93FF93E0910501F09106010995FF91B9
:1036D000EF91BF91AF919F918F917F916F915F918A
:1036E0004F913F912F910F900BBE0F900FBE0F90F7
:1036F0001F9018951F920F920FB60F9211240BB6C0
:103700000F922F933F934F935F936F937F938F937A
:103710009F93AF93BF93EF93FF93E0910301F091D9
:1037200004010995FF91EF91BF91AF919F918F9106
:103730007F916F915F914F913F912F910F900BBEB1
:103740000F900FBE0F901F9018951F920F920FB6FB
:103750000F9211240BB60F922F933F934F935F93C9
:103760006F937F938F939F93AF93BF93EF93FF9349
:10377000E0910101F09102010995FF91EF91BF9154
:10378000AF919F918F917F916F915F914F913F91F9
:103790002F910F900BBE0F900FBE0F901F9018959A
:1037A0000F931F93CF93DF938C01EB014CE050E01C
:1037B0000E94046ABE01645F7F4F4CE050E0C80184
:1037C0000C96DF91CF911F910F910C94046A1F9278
:1037D0000F920FB60F9211240BB60F922F933F93B7
:1037E0004F935F936F937F938F939F93AF93BF9309
:1037F000EF93FF9380917B0E0E942A1A20917E0EF8
:1038000030917F0E2F5F3F4F30937F0E20937E0EBF
:103810009091480F943618F095E090937C0E90911B
:103820007C0E9330B9F018F4923039F057C09430D0
:1038300059F1953009F44CC051C081114FC020910D
:103840007E0E30917F0E2436310508F443C010926D
:10385000480F1CC0813009F041C0E091480F91E051
:103860009E0F9093480FF0E020917E0E30917F0ED6
:10387000EE0FFF1FE558F14F3683258310927F0E20
:1038800010927E0E94E021C0811117C0E091480F84
:1038900091E09E0F9093480FF0E020917E0E3091C2
:1038A0007F0EEE0FFF1FE558F14F368325831092F0
:1038B0007F0E10927E0E93E008C020917E0E309114
:1038C0007F0E2536310550F095E090937C0E06C0B2
:1038D000811104C010927F0E10927E0E90917D0E89
:1038E000992329F0811102C02D9A01C02D98FF91D2
:1038F000EF91BF91AF919F918F917F916F915F9168
:103900004F913F912F910F900BBE0F900FBE0F90D4
:103910001F901895CF92DF92EF92FF92CF93DF9393
:10392000EC01072E000C880B990B0E94CC686B01F0
:103930007C0120E030E040E45FE30E942B6920E05E
:1039400030E048E452E40E949D620E940F63C61773
:10395000D707D4F020E030E040EA5FE3C701B601CA
:103960000E942B6920E030E048E452E40E949D620E
:1039700020E030E040E85FE30E9431620E940F6384
:1039800021E06C177D070CF420E0822F90E0DF919E
:10399000CF91FF90EF90DF90CF9008958EBD0DB442
:1039A00007FEFDCF8EB50895CF92DF92EF92FF9282
:1039B000CF93C82F38B1C12CD12C7601C394B70155
:1039C000A60100902D0904C0440F551F661F771FE4
:1039D0000A94D2F74095242F232328B9892F0E94D7
:1039E000CE1C8C2F0E94CE1C88B100902D0904C0E3
:1039F000CC0CDD1CEE1CFF1C0A94D2F7C82AC8B8F8
:103A0000CF91FF90EF90DF90CF900895CF92DF920B
:103A1000EF92FF921F93CF93DF93182F2CB5216065
:103A20002CBD38B1C12CD12C7601C394B701A601AD
:103A300000902D0904C0440F551F661F771F0A947C
:103A4000D2F74095242F232328B9892F0E94CE1C1A
:103A5000C82FD0E0DC2FCC27812F0E94CE1C98B13C
:103A600000902D0904C0CC0CDD1CEE1CFF1C0A9438
:103A7000D2F7C92AC8B89CB59E7F9CBD9E01282B51
:103A8000C901DF91CF911F91FF90EF90DF90CF9010
:103A900008958627682F62956827062E6695669595
:103AA0006025062E669560256770082E892F66951D
:103AB00007946795902D862706946795902586270D
:103AC0000895CF9380E090E00E94D41C8091C013B1
:103AD000853091F580E090EB0E94061D682F809163
:103AE000BF13811104C09091B713911175C0E0917B
:103AF000BF1381E08E0F8093BF13F0E0EB53FF4EB6
:103B000060838091BD139091BE130E94491D9093D4
:103B1000BE138093BD138091C8102091BF1390E015
:103B2000059630E0821793070CF461C08091BF13B3
:103B3000863808F05CC060C08091C01387FF1BC04E
:103B4000E091C8108091C01391E0980F9093C0133A
:103B5000EC5F8E0FE82FF0E0EB53FF4EC0818091B9
:103B6000BD139091BE136C2F0E94491D9093BE13FC
:103B70008093BD132DC08091C01391E0980F909356
:103B8000C0138330F1F054F48823A9F08130E9F4B4
:103B90008091BD139091BE13C92F1AC08930B9F01E
:103BA0008A3099F4C091B7139091C8108DEF891B9A
:103BB0008093C0130DC08091BD139091BE13C82F88
:103BC00007C08DE092E80E94D41CCAEA01C0CDE291
:103BD0008C2F90E098540DC0E091BF1381E08E0FC0
:103BE0008093BF13F0E0EB53FF4E908380CF8DE0C6
:103BF00092E8CF910C94D41CCF910895DC01E0E0C1
:103C0000615038F08D91E827F0E0E15CF94FE491E4
:103C1000F7CF8E2F0895CF92DF92EF92FF920F93FE
:103C20001F93CF93DF931F92CDB7DEB76C01E62EC3
:103C300008E010E0FF24F39461E08F2D8E2109F459
:103C400060E0C60149830E949919FF0C01501109D7
:103C500049810115110581F7411115C0F894D6016C
:103C60001196ED91FC91129791818C918095892309
:103C700081831196ED91FC91129792818C918095A0
:103C80008923828378940F90DF91CF911F910F91B8
:103C9000FF90EF90DF90CF900895CF92DF92EF9258
:103CA000FF920F931F93CF93DF931F92CDB7DEB791
:103CB0008C01F62E40E065E579830E940B1ECF2C27
:103CC0007981D72E760188E0E80EF11CF60161912A
:103CD0006F0140E0C8010E940B1ECE14DF04B1F753
:103CE0000F90DF91CF911F910F91FF90EF90DF9098
:103CF000CF900895FC0190810180F281E02DF8942D
:103D00008181892B81832281892F80952823228399
:103D1000A7E0B0E01197F1F7218182238183A3E22C
:103D2000B0E01197F1F780817894EFECF0E03197F3
:103D3000F1F7982381E009F480E00895AF92BF92F3
:103D4000CF92DF92EF92FF920F931F93CF93DF9367
:103D50001F92CDB7DEB75C01E62ED72EFC0185851C
:103D600081115DC0C5010E94073C811105C0F501AC
:103D70001386158614866BC040E060EFC5010E9473
:103D80000B1E01E0F12CC12C11E0C5010E947A1E2E
:103D9000682FC50169830E947A1E6981613019F418
:103DA0008130B9F433C04F2D50E068131BC0F501CA
:103DB0008385181730F4E40FF51F8381802349F4BD
:103DC00002C0181731F060E0193058F4F50114877B
:103DD00008C0F501EF0DF11D8381802B838361E025
:103DE00009C0C12EF501E40FF51F9381802F809546
:103DF00089238383C5010E9499191F5F000F11F465
:103E0000F39401E0F7E0FF1508F0BFCF113438F06C
:103E1000F501C386C11015C081E0858712C0F50188
:103E200013861586148680E0D5011396EE2DFD2DA0
:103E30009501255F3F4F9D919193A217B307D9F745
:103E400006C0F5018381882351F381E0EDCF0F9007
:103E5000DF91CF911F910F91FF90EF90DF90CF9066
:103E6000BF90AF900895EF92FF920F931F93CF935F
:103E7000DF937C0108E010E0C0E0D1E0C7010E94C0
:103E80007A1E8111CD2BDD0F01501109B9F78C2F4E
:103E9000DF91CF911F910F91FF90EF9008952F9296
:103EA0003F924F925F926F927F928F929F92AF92CA
:103EB000BF92CF92DF92EF92FF920F931F93CF9317
:103EC000DF9300D000D000D0CDB7DEB76C014B013E
:103ED0001A01A12CB12CA214B30408F0A1C0D60180
:103EE00019964D905D906D907C901C97F201F17049
:103EF00080E092E08E1B9F0B91012A193B093E83C3
:103F00002D838217930710F49E838D83D60111961B
:103F10004D915D916D917C9114972D813E81C901E8
:103F2000A0E0B0E08A019B010419150926093709B0
:103F3000081719072A073B0728F4CA0184199509AD
:103F40009E838D83D6018C91877099E076946794D7
:103F5000579447949A95D1F751960D911C91529789
:103F6000D801823039F457964D915D916D917C91D5
:103F70005A972CC0FC90D60115962D913D914D91EC
:103F80005C9118972250310941095109AF2DB0E0D9
:103F90000E943B6AD80119962D913D914D915C91FB
:103FA0001C97260F371F481F591F29833A834B83BD
:103FB0005C838F2D90E00197092E000CAA0BBB0BA0
:103FC000482259226A227B22BA01A901440D551DBB
:103FD000661D771DD80153966D907C9054972D8166
:103FE0003E81232B31F44D815E8114161506D4F0E9
:103FF00013C08D819E818E0F9F1F8130924048F4A7
:10400000ED80FE8084019F01C3010E944748811119
:10401000EACF8FEF9FEF18C0ED81FE81F7FDF9CF5A
:10402000C50112C02D813E81A901330F660B770BAC
:10403000C6010E94E848882361F32D813E81820EEB
:10404000931EA20EB31E47CF26960FB6F894DEBF7E
:104050000FBECDBFDF91CF911F910F91FF90EF90D9
:10406000DF90CF90BF90AF909F908F907F906F9098
:104070005F904F903F902F900895CF92DF92EF92F4
:10408000FF920F931F93CF93DF9300D000D0CDB753
:10409000DEB7FC01423051056105710500F18581F3
:1040A0009681A781B0850296A11DB11D48175907B9
:1040B0006A077B07A0F48289803279F5C684D784A9
:1040C000E088F1889A01220F331F220F331F3170CD
:1040D00083899489F9013496E130F24020F060E060
:1040E00070E0CB013CC0B7E0769567955795479552
:1040F000BA95D1F74C0D5D1D6E1D7F1D14E0E12EAC
:10410000F12C8E010F5F1F4F0E944748882339F31F
:1041100069817A818B819C8122C0803101F79A016B
:10412000220F331F3170452F562F672F7727868533
:104130009785A089B189480F591F6A1F7B1FA2E08C
:10414000EA2EF12C8E010F5F1F4F838994890E9404
:104150004748882321F269817A8180E090E00F90BE
:104160000F900F900F90DF91CF911F910F91FF90C3
:10417000EF90DF90CF9008958F929F92AF92BF9271
:10418000CF92DF92EF92FF920F931F93CF93DF9323
:10419000CDB7DEB72B970FB6F894DEBF0FBECDBFFD
:1041A000D82E80915809813011F40E9454270D2D8A
:1041B00010E09801295F364F4901F901C080C7FE20
:1041C000FBC09801235F3E4F5901F9018081FDE159
:1041D000DF9E700111248A3091F40E94643C0E9499
:1041E0006E110E946A3FE091C70DF0E0E25BFD4F67
:1041F00080818C2111F042E003C041E001C043E026
:104200006FE070E0C70101960E94622898012C5966
:10421000364F7901F9018081882309F474C00E9426
:10422000583BF801EB52FE4E80818111C5C09801C8
:104230002F5F364F6901F90180811F928F938BEDBB
:1042400093E09F938F931F928BE08F939E012F5F3C
:104250003F4F79013F932F930E9487630FB6F894E5
:10426000A895809160008861809360001092600042
:104270000FBE0E94583B80915B110FB6F894DEBFD1
:104280000FBECDBF811198C0C7010E9408148111D3
:1042900013C064E170E080E090E00E94BF1AC701A3
:1042A0000E940814811108C083E897E00E949B4691
:1042B000C7010E941B1180C00E94B912811105C064
:1042C00083E797E00E94131277C0F6018081F8011E
:1042D000E55FFE4F863030F48081882321F08150E5
:1042E000808301C010828081809360110E945212ED
:1042F00099E288E10FB6F894A895809360000FBE0C
:104300009093600059C0F501C080FAE0CF16E9F043
:104310000E94963F6AE070E00E94D561F50120811D
:1043200030E08217930709F047C081E0F7018083EE
:10433000F801EF5FF64F8081F801E55FFE4F8630B0
:1043400010F487E032C0108237C0F801EB52FE4E05
:104350008081811131C0F401B0800E94643C0E94D0
:104360006E110E946A3FE091C70DF0E0E25BFD4FE5
:1043700080818B2109F19091C213F801EB5FF64F18
:104380008081981319C00E94963FF801ED5FF64FA7
:10439000208130E08217930779F4D11008C0109281
:1043A0006509C0920E0181E0F701808305C010927B
:1043B0006409C0920D01F7CF2B960FB6F894DEBFBB
:1043C0000FBECDBFDF91CF911F910F91FF90EF9066
:1043D000DF90CF90BF90AF909F908F9008950F93F4
:1043E0000E94262710924B09109246091092450907
:1043F00010924409109243091092420900916709F2
:1044000022E030E046EE53E060E070E080E090E0D3
:104410000E94092AE091710FF0E0EE0FFF1FE25CAD
:10442000FD4F408151810091670922E030E068E052
:1044300070E080E090E00E94092A0F910895CF92E9
:10444000DF92EF92FF920F931F93CF93DF9300D0F1
:10445000CDB7DEB7109167090E94F91AC090D1114B
:10446000D090D211E090D311F090D411DC01CB01A7
:104470008C199D09AE09BF09853F9140A105B10581
:1044800098F00E94F91A6093D1117093D211809321
:10449000D3119093D4118091D011811103C0109346
:1044A000D01102C01092D01180913D09823009F4E0
:1044B00068C1833009F4BAC2813009F0F6C2E091D4
:1044C0003E098E2F90E08A30910508F0EEC2FC0183
:1044D000EA58FF4F0C94E961012F21E030E04CEEE7
:1044E00053E060E070E080E090E00E94092AE091F3
:1044F0003D0984E0E89FF0011124E25DFD4F428117
:10450000538121E030E068E070E08BC2012F21E0B0
:1045100030E041EF53E060E070E081E090E00E9425
:10452000092A8091510981110BC00091D01121E01D
:1045300030E047EF53E068E070E081E090E073C264
:10454000E0913E09F0E0EE0FFF1FE25EFD4F40817B
:104550005181012F23E030E068E070E080E090E0DE
:104560000E94092A809151091F928F938AEA96E04E
:104570009F938F931F9282E08F93CE0101967C01CF
:104580009F938F930E9487630091D01123E030E0C6
:10459000A70168E070E088E190E080C2012F21E08F
:1045A00030E041EF53E060E070E080E090E00E9496
:1045B000092AE0913E09F0E0EE0FFF1FE25EFD4F99
:1045C0004081518121E030E068E070E080E090E0DF
:1045D0000E94092A809150090091D01121E030E019
:1045E00087FF11C20DC2012F21E030E041EF53E0FF
:1045F00060E070E080E090E00E94092AE0913E09CE
:10460000F0E0EE0FFF1FE25EFD4F4081518123E09D
:1046100030E068E070E080E090E00E94092A80913C
:104620005009FCC08091C113811102C085E087C090
:10463000012F21E030E041EF53E060E070E080E0E6
:1046400090E00E94092AE0913E09F0E0EE0FFF1F82
:10465000E25EFD4F4081518123E030E068E070E090
:1046600080E090E00E94092A80915009FCC0012F4F
:1046700021E030E041EF53E060E070E080E090E066
:104680000E94092AE0913E09F0E0EE0FFF1FE25E72
:10469000FD4F4081518123E030E068E070E080E030
:1046A00090E00E94092A8091500902C18091C113B3
:1046B000811102C087E043C0012F21E030E041EFCB
:1046C00053E060E070E080E090E00E94092AE09111
:1046D0003E09F0E0EE0FFF1FE25EFD4F4081518189
:1046E00023E030E068E070E080E090E00E94092A7A
:1046F000809150097FC1012F21E030E041EF53E06C
:1047000060E070E080E090E00E94092AE0913E09BC
:10471000F0E0EE0FFF1FE25EFD4F4081518123E08C
:1047200030E068E070E080E090E00E94092A80912B
:1047300050090EC18091C113811104C089E080939A
:104740003E09B3C1012F21E030E041EF53E060E0CA
:1047500070E080E090E00E94092AE0913E09F0E0DC
:10476000EE0FFF1FE25EFD4F4081518123E030E0FC
:1047700068E070E080E090E00E94092A8091500992
:10478000C2C080913F0981111DC0012F21E030E09E
:1047900042E054E060E070E080E090E00E94092A8E
:1047A000E0913D0994E0E99FF0011124E25DFD4FA5
:1047B0004281538121E030E068E070E080E090E0E9
:1047C0000E94092AE0913F098E2F90E0FC01319769
:1047D000E830F10508F069C1E058FF4F0C94E96139
:1047E000012F21E030E047E054E060E070E080E03D
:1047F00090E00E94092AE0913F09F0E0EE0FFF1FD0
:10480000E45FFD4F4081518121E030E068E070E0DD
:1048100080E090E00E94092A8091FC080091D0116C
:1048200021E030E086FFEFC0EBC0012F21E030E057
:1048300047E054E060E070E080E090E00E94092AE8
:10484000E0913F09F0E0EE0FFF1FE45FFD4F408174
:10485000518121E030E068E070E080E090E00E946B
:10486000092A8091FC080091D01121E030E085FFF9
:10487000CAC0C6C0012F21E030E047E054E060E04C
:1048800070E080E090E00E94092AE0913F09F0E0AA
:10489000EE0FFF1FE45FFD4F4081518123E030E0C8
:1048A00068E070E080E090E00E94092A8091FC08B6
:1048B0000091D01121E030E084FFA5C0A1C080911B
:1048C000C113811102C085E04FC0012F21E030E00B
:1048D00047E054E060E070E080E090E00E94092A48
:1048E000E0913F09F0E0EE0FFF1FE45FFD4F4081D4
:1048F000518123E030E068E070E080E090E00E94C9
:10490000092A8091FC080091D01121E030E082FF5B
:104910007AC076C0012F21E030E047E054E060E04B
:1049200070E080E090E00E94092AE0913F09F0E009
:10493000EE0FFF1FE45FFD4F4081518123E030E027
:1049400068E070E080E090E00E94092A8091FC0815
:104950000091D01121E030E080FF55C051C080911E
:10496000C113811104C087E080933F099EC0012FCD
:1049700021E030E047E054E060E070E080E090E06B
:104980000E94092AE0913F09F0E0EE0FFF1FE45F6B
:10499000FD4F4081518123E030E068E070E080E02D
:1049A00090E00E94092A8091FC080091D01121E03A
:1049B00030E081FF28C024C0012F21E030E047E033
:1049C00054E060E070E080E090E00E94092AE0910D
:1049D0003F09F0E0EE0FFF1FE45FFD4F4081518182
:1049E00021E030E068E070E080E090E00E94092A79
:1049F0008091FC080091D01121E030E083FF03C0DA
:104A000044EE55E002C04CE455E068E070E089E116
:104A100090E009C0012F21E030E04DEF53E060E06D
:104A200070E080E090E00E94092A3FC0012F21E061
:104A300030E047E154E060E070E080E090E00E9408
:104A4000092AE0913D0924E0E29FF0011124E25D92
:104A5000FD4F4281538123E030E068E070E080E068
:104A600090E00E94092A8091FB081F928F938AEAA6
:104A700096E09F938F931F9282E08F93CE010196D1
:104A80007C019F938F930E9487630091D01121E056
:104A900030E0A70168E070E089E190E00E94092A17
:104AA0000FB6F894DEBF0FBECDBF0F900F90DF9111
:104AB000CF911F910F91FF90EF90DF90CF900895CD
:104AC000662351F05C98962F982311F05E9A01C0EE
:104AD0005E985C9A6695F4CF08955F9A5F98089502
:104AE0001F93CF93DF93EC0197FF02C05D9803C043
:104AF0005D9A892B59F40E946D250E946D250E94B4
:104B00006D25DF91CF911F910C946D250E946D252D
:104B10000E946D250E946D250E946D255D980E9462
:104B20006D255D9A11E0812F90E08C179D0724F48C
:104B30000E946D251F5FF7CFDF91CF911F910895E0
:104B40001F93CF93DF931F92CDB7DEB7162F90E060
:104B500049830E94702564E085E00E94602560E43E
:104B6000812F0E94602568E04981842F0E94602582
:104B700080E090E00F90DF91CF911F910C94702511
:104B8000CF93DF93EC010E94583B80915B11882307
:104B900021F081E591E10E94B146CE010E94081406
:104BA000811114C064E170E080E090E00E94BF1ABF
:104BB000CE010E940814811109C08FE890E10E9483
:104BC0009B46CE01DF91CF910C941B110E94B9122C
:104BD000811106C083EA90E1DF91CF910C943F12DE
:104BE0008091330980936011DF91CF910C94521220
:104BF000CF93DF9300D0CDB7DEB70FB6F894A8956A
:104C000020916000286120936000109260000FBE28
:104C1000A89589839A830E94583B89819A810E9432
:104C2000C02580915B118111FCCF99E288E10FB61C
:104C3000F894A895809360000FBE909360000F9049
:104C40000F90DF91CF910895CF93DF93C82FD0E0DD
:104C5000FE01EC59F64F808181110AC080916609EE
:104C6000811123C0DE01A35FBE4F9C919A30F0F406
:104C7000DE01AB52BE4E81E08C931082FE01E35FF9
:104C8000FE4F8AE0808387E794E00E94F825FE01CA
:104C9000EF5FF64F8081C55FDE4F863018F487E006
:104CA000888301C0188281E001C080E0DF91CF914C
:104CB0000895CF92DF92EF92FF920F931F93CF93BD
:104CC000DF93C82FD0E08E010C59164FF801808178
:104CD000882399F10E94963F2AE0C22ED12CB6017A
:104CE0000E94D5619E01235F3E4F7901892B11F40B
:104CF00089E006C00E94963FB6010E94D5618150AE
:104D0000F7018083F8011082CB52DE4E81E0888368
:104D100081E591E10E94B14618821092630968EE24
:104D200073E080E090E0DF91CF911F910F91FF90B1
:104D3000EF90DF90CF900C94BF1ADF91CF911F912D
:104D40000F91FF90EF90DF90CF900895CF93DF9376
:104D5000C82FD0E0FE01E95FF64F808187FF2FC0AA
:104D60002091C21330E0FE01EB5FF64F808190E0AE
:104D700001962817390719F50E94963FFE01ED5F4D
:104D8000F64F208130E082179307C9F4FE01EC59F9
:104D9000F64F1082FE01EB52FE4E1082FE01EF5FD5
:104DA000F64F8081FE01E55FFE4F863018F487E004
:104DB000808301C01082C35FDE4F8AE08883DF9169
:104DC000CF910895CF93C62F90E00E94702564E0A4
:104DD00084E00E94602560E88C2F0E94602561E0DD
:104DE00080E00E94602580E090E0CF910C947025D7
:104DF000EF92FF921F93CF93DF9300D000D01F92CA
:104E0000CDB7DEB795E0E6E5F2E0DE011196019060
:104E10000D929A95E1F7863008F085E011E07E0169
:104E2000E80EF11CF70160816056812F0E94E22696
:104E30001F5F1530B9F70F900F900F900F900F90E4
:104E4000DF91CF911F91FF90EF900895CF9387ED61
:104E500091E144E0480F20E030E0FC01E20FF31F55
:104E600010822C5F3F4F211551E03507B1F70196B5
:104E70004813F1CFC0E040E06C2F81E00E94A025F4
:104E800040E06C2F82E00E94A02540E06C2F83E080
:104E90000E94A02540E06C2F84E00E94A025CF5FF7
:104EA000C03649F7CF910895CF9380E00E945926EC
:104EB00081E00E94592680916609882309F400C187
:104EC0000E94F91A60935E0970935F0980936009EC
:104ED0009093610982E00E945531809141098330AD
:104EE00099F038F4813061F0823009F0E7C081E058
:104EF00008C0843009F47DC0853009F4A2C0DEC04A
:104F000080E00E94783BDAC00E9426270E94023788
:104F100010924A0991E090934C09109249098091AE
:104F200039098F5F873018F48093390902C0909354
:104F30003909C0913909C330A1F168F4C130E1F0F9
:104F4000C23009F0BBC01092460981E08093450948
:104F5000109244093DC0C53009F43FC090F1C630FD
:104F600009F0ACC081E08093AE0910924B09109219
:104F700042090E94EF21A2C00E942627C093070188
:104F8000C0934C0910924B09C093460910924509F1
:104F90001092440910924309109242091092AE09EE
:104FA0008DC0109207010E94262781E080934B0953
:104FB00010924609109245091092440980934309C2
:104FC00009C0109246091092450981E08093440976
:104FD000109243091092420971C010924609109232
:104FE0004509109244091092430981E080934209D7
:104FF00065C00E94262710924A0910924C0991E040
:105000009093490980913A09893079F48091400957
:10501000811102C08AE00AC08F5F883018F4809343
:10502000400906C09093400903C08F5F80933A09FE
:1050300080913A098C3008F441C081E080933A09AC
:105040003DC00E9426270E94262710924A091092EE
:105050004C091092490991E09093480980913D09CB
:10506000813079F490913E09911102C082E01BC019
:105070009F5F9A3018F490933E0917C080933E09C1
:1050800014C0823079F480913F09811102C083E01D
:105090000AC08F5F893018F480933F0906C090934F
:1050A0003F0903C08F5F80933D0980913D098430A3
:1050B00018F081E080933D090E942627109258093C
:1050C000CF910895EF92FF921F93CF93DF939B01AF
:1050D0008032910508F02AC16031710508F026C1BF
:1050E000542F507144FF70C04370582F52955F7019
:1050F0006830710514F0E2E001C0E0E0E50F22FB4A
:10510000992790F98F70880F890F237060E870E0FD
:1051100002C0759567952A95E2F790E0F0E042307D
:1051200011F14330C1F1262F2095DC01AA0FBB1FDE
:10513000AA0FBB1FAE0FBF1FA952BE4E3C914130FC
:1051400019F032233C9302C0632B6C938096880F36
:10515000991F880F991FE80FF91FE952FE4E8081B1
:1051600028232083E3C0DC01AA0FBB1FAA0FBB1FAB
:10517000AE0FBF1FA952BE4E262F20953C91232370
:105180002C939C01205E3F4F220F331F220F331FB1
:10519000E20FF31F13C0DC01AA0FBB1FAA0FBB1F36
:1051A000AE0FBF1FA952BE4E2C91262B2C9380967A
:1051B000880F991F880F991FE80FF91FE952FE4EBB
:1051C0008081862B8083B2C0443008F0AFC0BC0120
:1051D000E4E075956795EA95E1F7283031050CF024
:1051E00052E0560F8F709927880F22FB662760F9CF
:1051F000182F160F2370332788E090E07C0102C03F
:10520000F594E7942A95E2F7612F70E0C52FD0E07E
:105210009B01220F331F220F331FF901EC0FFD1FDB
:10522000E952FE4E9081892F8E21A1E009F4A0E081
:10523000FB01B096EE0FFF1FEE0FFF1FEC0FFD1FDF
:10524000E952FE4E80818E2109F082E08A0F4817D4
:1052500009F46CC0413039F148F0423009F441C0E2
:10526000433009F063C0492F4E293EC0E094492FD6
:105270004E212C0F3D1FF901E952FE4E4083FF24C1
:10528000F394F50E612F8F2D0E94A02560E2610F2F
:10529000FE0184E0689FE00DF11D1124E952FE4EED
:1052A00090814E2D1CC0492F4E292C0F3D1FF90116
:1052B000E952FE4E4083FF24F394F50E612F8F2DAB
:1052C0000E94A02560E2610FFE0184E0689FE00D6E
:1052D000F11D1124E952FE4E4E2D40959081492337
:1052E0001CC04E2D409549232C0F3D1FF901E9525A
:1052F000FE4E4083FF24F394F50E612F8F2D0E9404
:10530000A02560E2610FFE0184E0689FE00DF11DC1
:105310001124E952FE4E40814E2940838F2DDF91AA
:10532000CF911F91FF90EF900C94A025DF91CF912A
:105330001F91FF90EF9008952F923F924F925F92AE
:105340006F927F928F929F92AF92BF92CF92DF9295
:10535000EF92FF920F931F93CF93DF93582E492E16
:10536000322EA895403214F0405201C040E03B017B
:105370005B0128E0A20EB11C38E0439FE00111243C
:10538000C61BD70B85E0882E912C832D8071282E8B
:10539000F301EC0FFD1FE956F84FE491E52CF42CD6
:1053A000C12CD12C0E2F10E0C4018C199D0998013D
:1053B00002C0359527958A95E2F720FF02C0432D5C
:1053C00001C0422DB301C7010E9462283FEFC31AFA
:1053D000D30A8FEFE81AF80A26E0C216D10421F7A3
:1053E0003FEF631A730A6A147B0491F6DF91CF9141
:1053F0001F910F91FF90EF90DF90CF90BF90AF90F3
:105400009F908F907F906F905F904F903F902F90E4
:1054100008952F923F924F925F926F927F928F9258
:105420009F92AF92BF92CF92DF92EF92FF920F9333
:105430001F93CF93DF93CDB7DEB72A970FB6F894BB
:10544000DEBF0FBECDBFF82E192F6B012A01190147
:10545000A895043051F40E94E86623E030E040E073
:1054600050E00E941C6A01E0060FF9861A87298520
:105470003A853A8329837201C601089698878F83FB
:10548000102F1071F20101900020E9F73197CF0140
:10549000841995099701241935092817390708F047
:1054A000B6C092E02916310471F0A3E02A16310447
:1054B00009F451C0202FB1E02B16310409F091C03E
:1054C000F701408190C0D7018C91A895803214F0EB
:1054D000805201C080E03601B8E08B9FC0011124EA
:1054E0009C012C193D093C832B83EB81FC81E60D4B
:1054F000F71DE956F54FE49189849A84A12CB12CCB
:105500002E2F30E03E832D8385E090E08A199B09A1
:105510002D813E8102C0359527958A95E2F720FFBF
:1055200002C0402F01C0412FB301C4010E94622874
:105530003FEFA31AB30A8FEF881A980A96E0A916CC
:10554000B10411F7AFEF6A1A7A0AEF81F8856E1687
:105550007F0659F64DC0D7018C9180528F3508F0E7
:1055600080E05601B8E08B9FC00111249C012C19EA
:105570003D093C832B83EB81FC81EA0DFB1DE95641
:10558000F24FE49169807A80812C912C2E2F30E0AB
:105590003E832D8383E090E0881999092D813E8117
:1055A00002C0359527958A95E2F720FF02C0402F6B
:1055B00001C0412FB501C3010E9462283FEF831A49
:1055C000930A8FEF681A780A94E08916910411F70C
:1055D000AFEFAA1ABA0AEF81F885AE16BF0659F6E0
:1055E00007C0D7014C91B60189859A850E949C29F4
:1055F000BFEFEB1AFB0AE985FA853696FA87E98749
:1056000029813A812C5F3F4F3A8329833BCF2A96E9
:105610000FB6F894DEBF0FBECDBFDF91CF911F91C3
:105620000F91FF90EF90DF90CF90BF90AF909F9041
:105630008F907F906F905F904F903F902F90089544
:105640000F93CF93809163098111E7C00E942426B4
:10565000811170C081E00E94242681116BC00E94DC
:10566000F91A60935E0970935F09809360099093C3
:1056700061090E94F91A6093AF097093B009809391
:10568000B1099093B209C1E0C09366090E94023744
:1056900010924A0910924C0910924B0980914109CD
:1056A0008F5F863008F4B6C0C093410982E00E9443
:1056B0005531E7E3F9E0119289E0E134F807D9F7D1
:1056C00080914109833009F44AC008F041C081301B
:1056D000A1F587E091E10E94AB461092070110927C
:1056E0004909109248090E942627E091410984E067
:1056F000E89FF0011124E95AFD4F4081518103E0F8
:1057000021E030E060E070E087E090E00E94092A4C
:10571000E091410984E0E89FF0011124E95AFD4F2E
:105720004281538121E030E068E070E080E090E069
:105730000E94092A1092570970C08230D9F783EF6E
:1057400090E10E94AB461092070110924909CBCF1D
:10575000843041F0853071F783EB90E12FC08CED00
:1057600090E12CC088EC90E10E94AB4610920701BA
:105770000E942627E091410984E0E89FF00111246E
:10578000E95AFD4F4081518103E021E030E060E0C3
:1057900070E087E090E00E94092AE091410984E0EE
:1057A000E89FF0011124E95AFD4F4281538121E025
:1057B00030E068E070E081E090E0BACF0E94AB4654
:1057C00010920701109249090E942627E091410991
:1057D00084E0E89FF0011124E95AFD4F4081518196
:1057E00003E021E030E060E070E083E090E00E94C0
:1057F000092AE091410984E0E89FF0011124E95A67
:10580000FD4F4281538121E030E068E070E083E0A9
:1058100090E08ECF8093410949CFCF910F910895A9
:105820004F925F926F927F928F929F92AF92BF92B0
:10583000CF92DF92EF92FF920F931F93CF93DF935C
:10584000CDB7DEB7A7970FB6F894DEBF0FBECDBFBA
:10585000F82E062FE42E442309F4EAC01091FB0829
:105860008091B7109091B8100E94073C40E06CEC1A
:105870008091B7109091B8100E940B1E4091B21009
:1058800064E48091B7109091B8100E940B1E809133
:10589000B4108823E9F08091B3108A3049F08B303E
:1058A00061F0893079F46EE570E080E090E00EC040
:1058B0006CEB70E080E090E009C067E771E080E0A9
:1058C00090E004C06EEE72E080E090E00E94BF1AAB
:1058D000BE016F5F7F4F85E199E00E94804A882377
:1058E00009F48AC08A8190E0982F88272981822B29
:1058F000209115092232B9F12832A9F1203109F09D
:1059000081C0D884BC0175956795072E000C880B63
:10591000990B0E94CC6820E030E040E85EE30E94F2
:1059200030624B015C018D2D90E02F81821B91092B
:10593000BC01990F880B990B0E94CC682B013C018C
:105940006D2D70E080E090E00E94CA689B01AC0180
:10595000C301B2010E949D629B01AC01C501B4016B
:105960000E94316236C02D812F33B1F1A0F42F3166
:1059700009F048C0BC0133E0759567953A95E1F7A9
:10598000072E000C880B990B0E94CC6820E030E0B9
:1059900040E05FE31CC02F3569F02F3799F5BC015B
:1059A000990F880B990B0E94CC6820E030E040E80A
:1059B0005DE30DC0BC0175956795072E000C880B43
:1059C000990B0E94CC6820E030E040E05EE30E944A
:1059D0002B694B015C0116C0BC01759567957595E7
:1059E0006795072E000C880B990B0E94CC6820E06D
:1059F00030E040E85EE3EBCF812C912C9EEFA92EA6
:105A000092ECB92E20E030E040E05FE3C501B40144
:105A10000E9431620E940F636B017093DA126093EF
:105A2000D9126EEA74E0CE0181960E94726310C0B2
:105A30008091C113882309F48BC0C0900801D090D5
:105A4000090161EB74E0CE0181960E94726310E05F
:105A5000CE0101965C01C601C2968739910528F1F5
:105A6000002321F085EB94E00E94C025CE018196B1
:105A70009F938F938EEB94E09F938F931F9280E27E
:105A80008F93BF92AF920E9487638F2D0E94C44A6A
:105A900045E050E062E0C5010E943110182F0FB6BA
:105AA000F894DEBF0FBECDBF90C0B6010D2C000C28
:105AB000880B990B0E94CC6826E636E646EE5FE33B
:105AC0000E942B6920E030E040E052E40E94316205
:105AD00020E030E040E05FE30E9431620E940F630B
